S00C0000537461722E737265637E
S11300000C9435010C9456010C94B3030C94DE0348
S11300100C9456010C9456010C9456010C94560100
S11300200C9456010C9456010C9456010C945601F0
S11300300C9456010C9456010C943C080C945601F3
S11300400C946D080C9456010C9456010C945601B2
S11300500C9456010C9456010C9456010C945601C0
S11300600C9456010C9456010C9456010C945601B0
S11300700C9456010C9456010C9456010C945601A0
S11300800C9456010C9456010C94CE090C94560110
S11300900C9456010C9456010C9456010C94560180
S11300A00C9456010C9456010C9456010C94560170
S11300B00C9456010C9456010C9456010C94560160
S11300C00C9456010C9456010C9456010C94560150
S11300D00C9456010C9456010C9456010C94560140
S11300E00C9456010C9456010C9456010C94560130
S11300F00C9456010C9456010C9456010C94560120
S11301000C9456010C9456010C9456010C9456010F
S11301100C9456010C9456010C9456010C945601FF
S11301200C9456010C9456010C9456010C945601EF
S11301300C9456010C9456010C9456010C945601DF
S11301400C9456010C9456010C9456010C945601CF
S11301500C9456010C9456010C9456010C945601BF
S11301600C9456010C9456010C9456010C945601AF
S11301700C9456010C9456010C9456010C9456019F
S11301800C9456010C9456010C9456010C9456018F
S11301900C9456010C9456010C9456010C9456017F
S11301A00C9456010C9456010C9456010C9456016F
S11301B00C9456010C9456010C9456010C9456015F
S11301C00C9456010C9456010C9456010C9456014F
S11301D00C9456010C9456010C9456010C9456013F
S11301E00C9456010C94560103020201010000FF15
S11301F0FEFDFCFBF9F7F4EFE41B08153216742539
S1130200AA267D212E2B8F28B3280328D92E4F31DF
S11302100000CB32A12B0000F0189C1807193619E6
S11302201E19F719C319561900000000311A901A43
S11302307719E71A171ABA1A641A7A1AD11A4E1ABF
S11302400104010101020101010101010101010196
S1130250040108020101010102010102010201017C
S11302600201020201010101080011241FBECFEFA7
S1130270DFE5DEBFCDBF00E00CBF10E2A0E0B0E2DE
S1130280EAE8F1E700E00BBF02C007900D92A0314D
S1130290B107D9F715E2A0E1B0E201C01D92A33085
S11302A0B107E1F70E94B9010C94C3380C94000023
S11302B082E090E061E00E9477090895EF92FF9256
S11302C00F931F9381E090E062E00E94770985E03C
S11302D040E251EA67E070E020E00EE511E0EE2430
S11302E0FF240E94E5061F910F91FF90EF9008955F
S11302F0EF92FF920F931F93DF93CF93CDB7DEB7A7
S11303002C97CDBFDEBF82E08A838EEB9AEB8B8382
S11303109C8380911020909111208D839E830E9454
S11303204E38898300911A200F5F00931A2082E0CF
S1130330BE016E5F7F4F41E09E012F5F3F4FEE2471
S1130340E3940E94D93484E040E854E86EE170E01C
S113035020E008E711E0EE24FF240E94E5062C9635
S1130360CDBFDEBFCF91DF911F910F91FF90EF9032
S113037008950E94BC34882311F00E94C5040E9491
S1130380710980E090E060E00E94770981E090E0EC
S113039061E00E94770982E090E061E00E947709C1
S11303A0789481E00E94B2360E94C334FDCFEF926C
S11303B0FF920F931F938823B1F481E040E058EF3C
S11303C06FEF77E024E000E00E94483785E040E2E8
S11303D051EA67E070E020E00EE511E0EE24FF242E
S11303E00E94E50603C081E00E94B2361F910F917E
S11303F0FF90EF900895CF92DF92EF920F93DF93E7
S1130400CF930F920F92CDB7DEB720912F202F5F9D
S113041020932F20882309F044C0EC2DFD2D30E0DB
S11304203DC083858431C1F584858823A9F5818104
S113043092814AEB8E3B940779F58585968597FFE3
S11304402BC08081823039F4838194818093102081
S1130450909311201AC08330D9F5838180931220A0
S113046084818093132085818093142086818093D6
S1130470152087818093162080858093172081859D
S11304808093182082858093192084E160E0AF0175
S113049020E80E9473351FC071963F5F3E1508F235
S11304A002C08A3EA9F4233050F481E040E058EFC2
S11304B06FEF77E024E000E00E9448370CC0198217
S11304C01A8283E5BE016F5F7F4F0E94E03603C04E
S11304D081E00E94B2360F900F90CF91DF910F917F
S11304E0EF90DF90CF900895AF92CF92EF920F9359
S11304F0DF93CF930F92CDB7DEB7882301F5633531
S113050021F481E0898381E405C0613449F481E008
S1130510898382E5BE016F5F7F4F0E94E03612C07F
S1130520623569F48EEB9AEB64E140E02FE00FE072
S1130530EE24E394CC24AA240E947B3703C081E0F8
S11305400E94B2360F90CF91DF910F91EF90CF9030
S1130550AF900895882349F485E00E940C0681E059
S113056090E060E00E947709089581E00E94B2362D
S11305700895EF920F931F93A0911B20B0911C201C
S1130580109701F1E0911D20E217E1F4E0911E20A3
S1130590E317C1F4E0911F20E417A1F4E0912020B7
S11305A0E51781F4E0912120E61761F4E09122201F
S11305B0E71741F4E0912320E81721F4E091242087
S11305C0E91749F1E0912520F0912620309701F1B7
S11305D0009127200217E1F4009128200317C1F4A9
S11305E0009129200417A1F400912A20051781F411
S11305F000912B20061761F400912C20071741F479
S113060000912D20081721F400912E20091729F0BC
S11306101097A9F418C0E0E001C0E1E0AE2FB0E00B
S1130620FD01EE0FFF1F13E0AA0FBB1F1A95E1F7A0
S1130630EA0FFB1FE55EFF4D0081118123C0309757
S113064019F5E1E001C0E0E0F0E08F010F5F1F4F1A
S1130650DF01AA0FBB1FEE0FFF1FEE0FFF1FEE0FF0
S1130660FF1FAE0FBF1FA55EBF4DFD010193119388
S113067012962C9312973183428353836483758338
S113068086839783EE2404C00FEF1FEFEE24E394D8
S11306900E94BF351F910F91EF9008950895EF9236
S11306A0FF920F931F9382E090E060E00E9477092D
S11306B085E040E251EA67E070E020E008E511E0FF
S11306C0EE24FF240E94E5061F910F91FF90EF9006
S11306D00895EF92FF920F931F936623A9F485E088
S11306E00E940C0681E090E060E00E94770984E0BB
S11306F040E854E86EE170E020E008E711E0EE2401
S1130700FF240E94E50603C081E00E94B2361F91D7
S11307100F91FF90EF900895EF92FF920F931F9324
S1130720662381F482E090E00E94770985E040E24C
S113073051EA67E070E020E008E511E0EE24FF24D0
S11307400E94E5061F910F91FF90EF90089580930A
S1130750302090933120E0E4F6E081E0828B94E055
S11307609287848708951F920F920FB60F920BB64B
S11307700F9211242F933F934F935F936F937F9323
S11307808F939F93AF93BF93EF93FF93E0913020A8
S1130790F09131201995FF91EF91BF91AF919F9105
S11307A08F917F916F915F914F913F912F910F9016
S11307B00BBE0F900FBE0F901F9018951F920F92B3
S11307C00FB60F9211240F900FBE0F901F90189523
S11307D0EBECF1E021E030E088ED90E084BF208391
S11307E008958091CF0187FDFCCF08950F931F9347
S11307F0DF93CF930F920F92CDB7DEB789839A839D
S11308000E94F10300EC11E0F80112829A819183B5
S11308108981808386E082870E94E803F8018481CD
S11308200F900F90CF91DF911F910F9108950E9427
S11308308D080E94A8080E94F7090E944F050E9493
S113084083080E94870888ED84BF81E0809380003C
S113085080E008950E94FF070895CF92DF92EF92FF
S1130860FF920F931F93CF93DF938B01EA018130A3
S113087031F4862F642FA9010E94D20821C0882355
S1130880E1F4CA01860F971F40E181309407B8F460
S1130890C22ED32EEE24FF240BC0C701800F911F5C
S11308A00E94F603F60181936F010894E11CF11C88
S11308B0EC16FD0690F380E003C088EE01C085E8E5
S11308C0DF91CF911F910F91FF90EF90DF90CF9028
S11308D008955F926F927F928F929F92AF92BF9290
S11308E0CF92DF92EF92FF920F931F93CF93DF93F8
S11308F0EC015B01CB018C0F9D1F20E1813092073D
S113090098F5C42ED52EEE24FF2400EC11E023E349
S1130910722E95E3892E86E3982E21C0CE010E9483
S1130920F603F60161906F018615A9F05C2E0E9412
S1130930F1038091CF0181FF04C0F80192860E94E7
S1130940E803F80172865092C00111821282648217
S113095082860E94E80321960894E11CF11CEA14A3
S1130960FB04E0F280E001C085E8DF91CF911F91A4
S11309700F91FF90EF90DF90CF90BF90AF909F903A
S11309808F907F906F905F9008951F93CF93DF9324
S1130990E0E2F6E014828FEF8183C0E2D6E01FEF3D
S11309A08FEF9FEF0E947D051F83FACF6091002493
S11309B0709101249B0140E050E0A90133272227D4
S11309C08091200890912108A0E0B0E0282B392BD9
S11309D04A2B5B2B8091002490910124681779079E
S11309E029F7B901CA0108951F93CF93DF931FB765
S11309F0F894809134208F3F09F44CC0C82FD0E084
S1130A00FE0133E0EE0FFF1F3A95E1F7EC0FFD1FF7
S1130A10EE5FFB4D80819181A281B38120910024FE
S1130A20309101242A173B0769F480932808909396
S1130A30290880910C08806180930C088091070834
S1130A40836003C0809107088C7F809307080E940D
S1130A50D604FE0123E0EE0FFF1F2A95E1F7EC0F09
S1130A60FD1FEE5FFB4D2081318142815381621B6A
S1130A70730B840B950B6F5F7F4F8F4F9F4F6F3FAF
S1130A802FEF72072FEF82072FE7920718F481E008
S1130A90809333201FBFDF91CF911F91089510924F
S1130AA032201092332010920024109201248FEFF0
S1130AB0809334208093352080933620E6E0F4E25E
S1130AC0848310821182399694E2EC33F907C1F7DA
S1130AD00E94C5080895882319F488E080930008CB
S1130AE00895CF93DF93EC010E94D6046883798341
S1130AF08A839B83DF91CF9108954FB7F894863012
S1130B00910518F12091200830912108280F391FF0
S1130B1080912008909121088217930740F48091D6
S1130B2020089091210882179307C8F30EC0809182
S1130B3020089091210828173907C8F380912008CC
S1130B409091210882179307C8F34FBF089590E04E
S1130B50FC0143E0EE0FFF1F4A95E1F7E80FF91F90
S1130B60EE5FFB4D81E0248135812115310509F4C7
S1130B7080E0089580913320882309F44CC01092BA
S1130B80332020913220222309F445C0809135205E
S1130B908F3F59F4809136208F3F39F4809134206F
S1130BA0809336208093352012C030913420809178
S1130BB0362090E0FC0173E0EE0FFF1F7A95E1F719
S1130BC0E80FF91FEE5FFB4D30873093362080919C
S1130BD0342090E0FC0163E0EE0FFF1F6A95E1F71B
S1130BE0E80FF91FEE5FFB4D8085809334208091E0
S1130BF0362090E0FC0153E0EE0FFF1F5A95E1F719
S1130C00E80FF91FEE5FFB4D8FEF80872150209393
S1130C1032200E94F40408950F931F93082F863006
S1130C2008F0CDC01FB7F8940E94BA054091322055
S1130C30442309F45BC050913420252F352F02C082
S1130C40232F382F031709F041C0802F90E0051798
S1130C5081F4FC0153E0EE0FFF1F5A95E1F7E80F12
S1130C60F91FEE5FFB4D8085809334200E94F404CD
S1130C7019C030E0F90143E0EE0FFF1F4A95E1F798
S1130C80E20FF31FEE5FFB4DDC0123E0AA0FBB1F55
S1130C902A95E1F7A80FB91FAE5FBB4D18968C914A
S1130CA018978087802F90E0FC01A3E0EE0FFF1FD0
S1130CB0AA95E1F7E80FF91FEE5FFB4D8FEF8087F0
S1130CC08091322081508093322065C0832F90E040
S1130CD0FC0173E0EE0FFF1F7A95E1F7E80FF91FAF
S1130CE0EE5FFB4D8085415009F0AACF409135203D
S1130CF0342F242F4BC00217D9F520913620041726
S1130D00B1F4021721F48FEF809336200DC0802FA9
S1130D1090E0FC0163E0EE0FFF1F6A95E1F7E80F36
S1130D20F91FEE5FFB4D80858093352034C0832FFF
S1130D3090E0FC0153E0EE0FFF1F5A95E1F7E80F36
S1130D40F91FEE5FFB4D802F90E0DC0143E0AA0F1A
S1130D50BB1F4A95E1F7A80FB91FAE5FBB4D1896AC
S1130D608C91189780870217B1F43093362013C002
S1130D70822F90E0FC01B3E0EE0FFF1FBA95E1F77C
S1130D80E80FF91FEE5FFB4D322F20852F3F09F04E
S1130D90B2CF80E00FC0802F90E0FC01A3E0EE0F03
S1130DA0FF1FAA95E1F7E80FF91FEE5FFB4D1482D0
S1130DB0158281E01FBF882321F080E003C08AE808
S1130DC001C089E81F910F9108952F923F924F928D
S1130DD05F926F927F928F929F92AF92BF92CF92C7
S1130DE0DF92EF92FF920F931F93CF93DF93D82E4E
S1130DF04A015B01C22E3701863008F0CBC00115D1
S1130E00110509F4CBC0C82FD0E0FE0133E0EE0F8A
S1130E10FF1F3A95E1F7EC0FFD1FEE5FFB4D848158
S1130E209581009709F0B8C00E94D6049B01AC01DB
S1130E30CC2029F06C2D613009F0B0C014C0D5016C
S1130E40C40180589040A040B04080386FEF9607AE
S1130E506FEFA6076FE7B60708F0A2C0820E931ED5
S1130E60A41EB51E13C0D501C40180589040A040F3
S1130E70B040821B930BA40BB50B80382FEF920765
S1130E802FEFA2072FE7B20708F08AC0CFB6F89475
S1130E900E94BA05509134205F3F31F0F090322027
S1130EA0652F452F70E054C0D0923420FE0123E01A
S1130EB0EE0FFF1F2A95E1F7EC0FFD1FEE5FFB4DD0
S1130EC0508735C04F3F09F442C0242F30E0F90168
S1130ED093E0EE0FFF1F9A95E1F7E20FF31FEE5F29
S1130EE0FB4D80819181A281B38114012501281ACF
S1130EF0390A4A0A5B0AD201C1018F3F2FEF9207D8
S1130F002FEFA2072FE7B20718F4642F40851FC004
S1130F10FE0183E0EE0FFF1F8A95E1F7EC0FFD1F42
S1130F20EE5FFB4D4087541721F4D092342081E0CA
S1130F3013C0862F90E0FC01B3E0EE0FFF1FBA95BB
S1130F40E1F7E80FF91FEE5FFB4DD08656C07F5FD7
S1130F507F1508F4B7CF38C0FE01A3E0EE0FFF1FE2
S1130F60AA95E1F7EC0FFD1FEE5FFB4D80829182A5
S1130F70A282B382048315836682778290913220A1
S1130F809F5F90933220882311F00E94F404CFBE17
S1130F9080E007C08AE805C088E803C088EE01C085
S1130FA08BE8DF91CF911F910F91FF90EF90DF902D
S1130FB0CF90BF90AF909F908F907F906F905F90F5
S1130FC04F903F902F900895862F90E0FC0173E09E
S1130FD0EE0FFF1F7A95E1F7E80FF91FEE5FFB4D67
S1130FE0D086FE0163E0EE0FFF1F6A95E1F7EC0F78
S1130FF0FD1FEE5FFB4D8FEF808780E0ADCF1F9329
S11310001FB7F8940E94BA051FBF1FEF2FC03FB748
S1131010F8948091352090E0DC0143E0AA0FBB1FD7
S11310204A95E1F7A80FB91FAE5FBB4D18962C91F6
S113103018971496ED91FC91159716968D919C91A5
S1131040179718961C93189714961D921C9215972F
S113105016961D921C921797209335202F3F11F45A
S1131060109336203FBF309709F0199580913520B1
S11310708F3F69F61F9108951F920F920FB60F923A
S11310800BB60F9211242F933F934F935F936F935B
S11310907F938F939F93AF93BF93EF93FF9380912D
S11310A000249091012401968093002490930124BC
S11310B00E94F404FF91EF91BF91AF919F918F91A2
S11310C07F916F915F914F913F912F910F900BBE44
S11310D00F900FBE0F901F9018951F920F920FB68E
S11310E00F9211248F9380913220882319F081E08C
S11310F0809333208F910F900FBE0F901F901895FF
S1131100089581E0089584E8809380010895E0EAD9
S1131110F0E0828184608283089582E080935000AD
S11311208091510081FFFCCF88ED84BF94E0E0E41E
S1131130F0E0918384BF81E08093400082E0E0E5A9
S1131140F0E0868380916000816080936000089560
S1131150E0E4F6E080818061808380818068808320
S113116080818160808380818062808380818860C7
S1131170808380818F7B8083E0E6F6E080ED81834D
S113118080E2828380E18583089588E0809300086B
S113119080EF80930C0880E380934C0883E0809375
S11311A006080895AF92BF92CF92DF92EF92FF921A
S11311B00F931F93DF93CF93CDB7DEB7C054D040C6
S11311C0CDBFDEBF9E012F5F3F4F90E0E0E4F6E02D
S11311D0EE24E394B0E1FB2E00EC18E0A3E0DA2E59
S11311E070ECA72E78E0B72EC0904906709149069E
S11311F07C7F7187E682F682000000000000000018
S113120000000000000000000000000000000000DA
S11312100000000000000000D8011396DC92139730
S11312207091C20877FFFCCF792F7F77D501139691
S11312307C9313977091C20877FFFCCFD501139666
S11312401C9213977091C20877FFFCCF7091C3086A
S1131250F582E582C186D9017D939D019F5F90341B
S113126009F0C2CFDE01AF5BBF4F20E030E0FE01EA
S1131270319691912927022E2295207F2025032E35
S1131280322F22952F700226269532272327220FEC
S1131290220F220F2025EA17FB0759F721153105E4
S11312A081F4FA01DE011196A80FB11DCA01860F5F
S11312B0911D02C02D912193E817F907D9F780E019
S11312C001C085E8C05CDF4FCDBFDEBFCF91DF91A9
S11312D01F910F91FF90EF90DF90CF90BF90AF9050
S11312E00895E0E2F6E087E0818386830895833001
S11312F0910528F48050904EFC01208101C020E02B
S1131300662319F06130B9F40BC081E090E002C0AB
S1131310880F991F2A95E2F7E0E2F6E085830895A5
S113132081E090E002C0880F991F2A95E2F7E0E27D
S1131330F6E08683089581E090E002C0880F991F4B
S11313402A95E2F7E0E2F6E087830895E0E2F6E02A
S113135088E0828388E1838B0895E0E2F6E080856B
S113136090E023E0959587952A95E1F7817008959B
S11313702FB7F89498E09093B000E0E2F6E08BE1A8
S1131380838B81858C7F826081879287E0EAF0E09D
S113139082818260828378942FBF08951F920F9276
S11313A00FB60F920BB60F9211248F93EF93FF9306
S11313B0E0E2F6E08285877F8287E8E4F0E08081DE
S11313C08E7F8083FF91EF918F910F900BBE0F90D2
S11313D00FBE0F901F9018950E94B809E8E4F0E042
S11313E08081807F8560808378948895089580E5E6
S11313F08093C00880E1E0E4F6E085830895E0E4AA
S1131400F6E020914906909149069C7F9187806C73
S113141090E19683E0ECF8E083838091C20887FF33
S1131420FCCFE0ECF8E063838091C20887FFFCCF37
S1131430E0E4F6E080E1858321870895E0E4F6E0C6
S113144020914906909149069C7F9187806890E19C
S11314509683E0ECF8E083838091C20887FFFCCF99
S1131460E0ECF8E013828091C20887FFFCCF809102
S1131470C308E0E4F6E090E195832187089520E134
S1131480E0E4F6E0268320E2E0ECF8E02383209118
S1131490C20827FFFCCFE0ECF8E013826130B9F01A
S11314A0262FFC01A0ECB8E03091C20837FFFCCF36
S11314B03091C30813961C92139731932150223014
S11314C098F7625070E06F5F7F4F860F971F2091EF
S11314D0C20827FFFCCF2091C308FC01208380E1D0
S11314E0E0E4F6E085830895FC0180E1A0E4B6E041
S11314F016968C9380E6A0ECB8E013968C93139721
S11315008091C20887FFFCCFA0ECB8E081916150C4
S11315109091C20897FFFCCF13968C931397662380
S1131520A9F78091C20887FFFCCF80E1E0E4F6E0F0
S113153085830895DF93CF930F920F92CDB7DEB7D3
S11315404A8369830E941E0A6981862390E04A8146
S113155002C0959587954A95E2F70F900F90CF9129
S1131560DF9108951F93DF93CF9300D0CDB7DEB7FB
S1131570182F2B834A8369830E941E0A2B8130E033
S11315804A8102C0220F331F4A95E2F7698126235C
S113159060956823622B812F0E94FF092396CDBF9B
S11315A0DEBFCF91DF911F910895EF92FF920F93C9
S11315B01F93CF93DF9387E390E20E948B0B0CE39E
S11315C010E290ECE92E93E2F92EC0E0D0E0F701AE
S11315D000831183BE01660F771F660F771F605467
S11315E07C4D87E390E20E94920B21960A561F4F8E
S11315F084E090E0E80EF91EC630D10541F7DF9192
S1131600CF911F910F91FF90EF90089587E390E29F
S113161060E070E00E94AD0B0895BC01009721F0DA
S113162087E390E20E94920B08956F927F928F92CB
S11316309F92BF92CF92DF92EF92FF920F931F93EC
S1131640CF93DF938C014B016A01BFB6F894DC01A0
S113165014968C911497882309F44BC0CD91DC9196
S1131660119741155105C1F07E0113C0F601628145
S113167073810190F081E02D8881998119958823E7
S113168071F47E019A818B81692EE3013E01782EEB
S1131690E301209759F72FC0209769F17E01811447
S11316A0910449F5D8012D913C9111978A819B8130
S11316B0C217D30721F48D939C93119703C0F701AC
S11316C082839383D80112968D919C911397C817A6
S11316D0D90721F41296ED92FC921397F8018481B4
S11316E08150848380819181009729F4128213822E
S11316F002C0C0E0D0E0BFBECE01DF91CF911F9108
S11317000F91FF90EF90DF90CF90BF909F908F90BC
S11317107F906F900895FC011082118212821382CF
S113172014820895FC019FB7F8948481882319F4E6
S11317306083718306C0A281B38112966D937C93FA
S1131740139762837383DB0112961D921C92139785
S113175084818F5F84839FBF0895AB0160E070E054
S11317600E94150B0895AB0161E070E00E94150B17
S11317700895CF93DF93EC010BC0CE0160E070E0DD
S11317800E94AD0B009711F41C8205C00E940D0B42
S11317908C81882391F7DF91CF9108951F9381E085
S11317A06FE140E00E949A0A8830A1F48FE00E9421
S11317B01E0A82E069E00E94FF0910E08FE00E94A7
S11317C01E0A80FD07C08EE690E00E947D051F5F23
S11317D01330A1F71F9108951F93DF93CF930F92B6
S11317E0CDB7DEB7182F809158248F3089F5109229
S11317F0612481E694E10E94A703E0E4F6E081E03D
S1131800848780914906836081878FB7F8947894A0
S113181098E09683909161249923E1F38FBF8FE040
S11318200E941E0A86E394E10E94A7038EE06CE006
S11318300E94FF098DE064E042E021E00E94B20AC8
S1131840183011F0133021F488E080935824DCC15F
S113185081E06FE140E00E949A0A80935824183096
S113186009F458C0193050F4143009F4A5C01630E6
S113187009F4AFC0133009F0BEC164C01F3069F071
S1131880103120F4193009F0B6C174C0163109F4CE
S1131890D9C0193109F0AFC141C182E063E00E94AF
S11318A0FF098DE064E042E020E00E94B20A0E9459
S11318B04E38682F8DE299830E94FF098EE267E01B
S11318C040E09981292F0E94B20A8FE00E941E0AEB
S11318D08EE06FEF40E020E10E94B20A00000000B9
S11318E000000000000000000000000000000000F4
S11318F000000000000000000000000088E0E0E4B8
S1131900F6E0858383E290E00E947D0510935824DD
S11319108FE07AC1883009F46EC182E068E00E94E9
S1131920FF090000000000000000000000000000AB
S113193000000000000000000000000000000000A3
S1131940000059C1883009F456C182E063E00E9466
S1131950FF0900000000000000000000000000007B
S11319600000000000000000000000000000000073
S1131970000041C1883029F1893020F4863009F013
S11319803AC105C0863119F0893109F034C182E0C9
S113199069E00E94FF090000000000000000000050
S11319A00000000000000000000000000000000033
S11319B00000000000001FC1883019F0893021F4B4
S11319C01AC10E94CE0B17C182E064E00E94FF0995
S11319D012C1893059F08A3020F4883009F00BC1E3
S11319E01AC0863119F0893109F005C182E066E038
S11319F00E94FF0900000000000000000000000039
S1131A0000000000000000000000000000000000D2
S1131A1000000000F0C00E94CE0B82E066E00E944D
S1131A20FF090000000000000000000000000000AA
S1131A3000000000000000000000000000000000A2
S1131A400000D9C0883001F1893020F4863009F0D3
S1131A50D2C031C0893019F0893109F0CCC082E09C
S1131A6066E10E94FF090000000000000000000081
S1131A700000000000000000000000000000000062
S1131A80000000000000B7C00E94CE0B82E066E1B7
S1131A900E94FF0900000000000000000000000098
S1131AA00000000000000000000000000000000032
S1131AB000000000A0C082E069E00E94FF0900006D
S1131AC00000000000000000000000000000000012
S1131AD0000000000000000000000000000081E0A1
S1131AE06FE140E00E949A0A80935824893009F0FB
S1131AF08BC082E066E10E94FF0900000000000044
S1131B0000000000000000000000000000000000D1
S1131B10000000000000000000006DC0883009F4DF
S1131B2054C0893020F4863009F065C01BC0893068
S1131B3021F0863109F05FC015C082E069E10E949E
S1131B40FF09000000000000000000000000000089
S1131B500000000000000000000000000000000081
S1131B60000049C082E069E00E94FF090000000013
S1131B700000000000000000000000000000000061
S1131B8000000000000000000000000081E06FE1A0
S1131B9040E00E949A0A80935824893009F034C0A6
S1131BA082E069E10E94FF090000000000000000DB
S1131BB00000000000000000000000000000000021
S1131BC0000000000000000016C00E94CE0B82E05E
S1131BD069E10E94FF09000000000000000000000D
S1131BE000000000000000000000000000000000F1
S1131BF000000000000081E06FE140E00E949A0ACA
S1131C00809358248F31B9F30F90CF91DF911F91B6
S1131C100895809149248823E1F0809162248823E7
S1131C20C1F48091D8239091D923009739F486E99F
S1131C300E94060B8093D8239093D9238091D823B4
S1131C409091D923009729F01092492486E10E94AB
S1131C50EC0B80914E24882351F08AE494E260E0F6
S1131C6070E00E94AD0B009711F00E949E0E8091CF
S1131C706224823019F0853031F403C00E94D90EF9
S1131C8008950E9438100895DF92EF92FF920F9307
S1131C901F93DF93CF930F920F92CDB7DEB7E091EE
S1131CA0D823F091D923309731F4CE01029661E024
S1131CB00E943F0A39C0E080F18087E00E941E0A3A
S1131CC0D82ECE01019661E00E943F0A698167FD2A
S1131CD02BC0862F8D5F06E910E0081B11090E0D3D
S1131CE01F1D6E5FC8010E943F0AF701078310871A
S1131CF08981F801E80FF11DD2826091D823709197
S1131D00D9238AE494E20E94920B86E90E94060B8E
S1131D108093D8239093D923009731F489E00E94CB
S1131D20EC0B81E0809349240F900F90CF91DF91C9
S1131D301F910F91FF90EF90DF900895CF93DF9361
S1131D409C01FC01C081D181AF81B885EC91E09305
S1131D505A24F0E03196EA0FFB1F608141814F3134
S1131D6018F4442319F003C04EE101C041E0629528
S1131D706695669563708FEF689FB001112450E0FB
S1131D80649FC001659F900D749F900D11246AE5B6
S1131D9070E00E94EC376F3F710511F008F06FEFAF
S1131DA0608329833A83CE010E949F1EDF91CF91E5
S1131DB0089510926224E091DA23E83028F4F0E0E8
S1131DC0ED5FFF4D808101C085E8609154247091DE
S1131DD055240E94942D0895FF920F931F93CF933F
S1131DE0DF938C01EB01F42E442331F08CE260EF9D
S1131DF044E02091572404C08CE260EF44E020E0EA
S1131E000E94B20AC230D10598F4FF2061F08CE23E
S1131E106EE041E020914F240E94B20A8FE260E01C
S1131E200E94FF0916C08CE26EE041E027E00FC07B
S1131E30609153246295607F80915624682B8FE2D1
S1131E400E94FF098CE26EE041E020914F240E9441
S1131E50B20A89E10E94EC0B8931D9F780914906D5
S1131E608C7FE0E4F6E08187C130D10559F480919C
S1131E705A24833118F080E492E002C080E890E0B4
S1131E800E947D05C0E4D6E088E08D830000000058
S1131E908E83F80160816150C8010E94740A81E058
S1131EA0809362248091490683608987DF91CF9172
S1131EB01F910F91FF90089520916224222389F4A9
S1131EC08093542490935524FC01878190858093BA
S1131ED05B2490935C24009731F00E94EC0E80E028
S1131EE0089586E8089588EE0895882311F087E020
S1131EF005C082E060EE45E00E949A0A8093DA23EE
S1131F0082E0809362248091D8239091D923009712
S1131F1039F489E00E94EC0B81E080934924089510
S1131F2086E10E94EC0B08958FE00E941E0A84FF54
S1131F3028C087E00E941E0A9091DB23981710F4B2
S1131F408093DB238091DC239091DD23A091DE2319
S1131F50B091DF230197A109B1098093DC23909309
S1131F60DD23A093DE23B093DF230097A105B10501
S1131F7029F087E06FEF0E94FF09089585E08093C0
S1131F80622408951F93CF93DF93182F80916224C6
S1131F90882339F0809158248F3009F064C081E897
S1131FA063C0C0E4D6E0809149068C7F898784E0D1
S1131FB00E94EC0B8FE00E941E0A85E160E847E076
S1131FC021E00E94B20A84E99FE00E94A7038EE008
S1131FD06FEF40E020E10E94B20A809149068360DD
S1131FE0898786E00E94EC0B8630A1F085E160E8E9
S1131FF047E020E00E94B20A86E394E10E94A7032E
S11320008EE06CE00E94FF09809149068360898715
S113201085E82AC087E06FEF0E94FF0984E080937F
S113202062241092DB2320EC33E040E050E004C053
S1132030220F331F441F551F1A95D2F720543C4FCB
S11320404F4F5F4F83E056954795379527958A956F
S1132050D1F72093DC233093DD234093DE23509388
S1132060DF2380E001C086E8DF91CF911F910895BE
S113207085E160E847E020E00E94B20A86E394E14B
S11320800E94A7038EE06CE00E94FF09809149063C
S11320908360E0E4F6E081871092622486E10E9486
S11320A0EC0B8091DB23893320F08FEF8093DB23CB
S11320B00AC09FEF899FC001112468E370E00E9469
S11320C0EC376093DB238091DB230E943132089547
S11320D085FD03C0982F9F7304C0982F91959F711D
S11320E09195E8EEF1E02491291744F4203EB4F0F0
S11320F02032B4F427FF10C0822F0BC03F96E49126
S11321009E178CF4E03E54F0E03254F4E7FF0AC02A
S11321108E2F8F71806207C0822F05C080E203C0BA
S11321208FE101C08E2F8068089585FD03C0982F2C
S11321309F7304C0982F91959F71919520E030E092
S1132140822FF901E851FE4FE4919E1724F0E9171C
S113215044F4815008952F5F3F4F2031310581F7BA
S113216080E0089584E080934F2423E02093562454
S11321708FEF9FEF809344249093452480934724CA
S1132180909348248BE08093512480E098EFAFEF44
S1132190B7E080935D2490935E24A0935F24B09372
S11321A06024109243248AE091E080934124909328
S11321B042248AE08093592482E08093502485E06D
S11321C0809353242093572483E80E9468108093BB
S11321D0382481E0809346241092522408951F935A
S11321E0CF93DF9382E2609144240E94FF0983E24B
S11321F0609145240E94FF09C9E3D4E214E2812FCF
S113220069910E94FF091F5F1C32C9F780E2609147
S113221047240E94FF0981E2609148240E94FF093B
S113222088E060E645E0209146240E94B20A8FE2ED
S11322306FE040E0209156240E94B20A8EE268E0EA
S113224043E0209152240E94B20A8FE260EF44E0FE
S1132250209153240E94B20A88E06FE140E020916B
S113226051240E94B20A809138240E949510282F8C
S113227085E06FE040E00E94B20ADF91CF911F91A8
S113228008951F93CF93DF93EB01909162249430D0
S113229009F4D9C08E3431F0893541F488818093B2
S11322A05724CBC0888180934F24C7C020915824E1
S11322B02F3009F4C4C08B3009F4B7C08C3078F4E3
S11322C0823009F47CC0833018F48823E1F1B9C06A
S11322D0833009F480C0843009F0B3C061C0833511
S11322E011F1843530F48F3459F0803509F0A9C0E8
S11322F00CC0873509F45CC0803F09F0A2C072C0ED
S11323002881209356248FE263C088819981682FA5
S1132310809344249093452482E20E94FF0983E23F
S1132320609145240DC088819981682F809347244A
S11323309093482480E20E94FF0981E2609148243E
S11323400E94FF097AC0992309F07DC080E098EFCC
S1132350AFEFB7E0088004C0B695A7959795879529
S11323600A94D2F781709070009709F46EC02830F7
S113237039F088E00E94EC0B8830D9F716E101C0EF
S113238018E028812093512488E06FE140E00E9406
S1132390B20A183009F451C086E10E94EC0B4DC01A
S11323A0992309F050C08881882309F44FC04DC097
S11323B02881209353248FE260EF44E03CC088815D
S11323C00E946810809338240E949510282F85E07D
S11323D06FE040E030C028812093462488E060E626
S11323E045E029C0888180933924898180933A24E7
S11323F08A8180933B248B8180933C248C818093BD
S11324003D248D8180933E248E8180933F248F814F
S113241080934024C9E3D4E214E2812F69910E949D
S1132420FF091F5F1C32C9F708C02881209352247A
S11324308EE268E043E00E94B20A80E007C081E8CF
S113244005C084EF03C086E801C088EEDF91CF9118
S11324501F9108950F931F93CF93DF9386E00E94FB
S1132460EC0B8630D9F785E160E847E020E00E9474
S1132470B20A00914906809149068C7FE0E4F6E0B7
S1132480818718E0C0E0D0E086E060E645E00E9485
S11324909A0A9E01220F331F220F331FC82FD0E048
S11324A0C22BD32B0000000000000000000000003D
S11324B00000000000000000000000000000000018
S11324C000000000115001F783E00E94EC0B8FE044
S11324D00E941E0AE0E4F6E081E084870187CE01D1
S11324E00E945338DF91CF911F910F910895EF927D
S11324F0FF920F931F93DF93CF930F920F92CDB759
S1132500DEB7F82E81E065E170E041E050E09E0125
S11325102F5F3F4F0E942D0400E416E088E0F8018D
S113252086838CE791E00E947D05EE24E394F80114
S1132530E68281E090E00E947D05F801E58200E0FA
S113254084E690E00E947D0581E06FE140E00E9416
S11325509A0A0A30C9F0883011F00F5FF1CF8093E6
S1132560582429812223D1F082E16FE040E00E94C7
S1132570B20A14C00E94B2100E94EF10109262249A
S11325801092492480E001C085E80F900F90CF910C
S1132590DF911F910F91FF90EF9008950E942A12EE
S11325A083E060E344E020E00E94B20A83E068E054
S11325B043E020E00E94B20A83E067E040E021E0CB
S11325C00E94B20A0E944E38682F8DE29A830E94BC
S11325D0FF098EE267E040E09A81292F0E94B20A47
S11325E080E00E946A140E948D148EE260E245E04D
S11325F021E00E94B20A8CE060E847E021E00E94FA
S1132600B20A84E062E041E021E00E94B20A8EE076
S11326106CE00E94FF098DE063E040E021E00E944D
S1132620B20A8AE06FE040E023E00E94B20A8DE043
S113263068E043E021E00E94B20A8DE064E042E0F9
S113264021E00E94B20AFF2009F496CF93CF0E94A2
S11326507712882359F01CC08AE494E260E070E0A9
S11326600E94AD0B009711F00E940D0B80914E2437
S1132670882391F786E394E10E94A703E0E4F6E05F
S113268081E08487809149068360818780E0089592
S113269085E808951F93CF93DF930E94170488233E
S11326A009F0DFC0C0E4D6E011E01D8388E08E832A
S11326B08AE491E00E947D051E8381E090E00E94FF
S11326C07D051D831AE003C0115009F4CAC084E6D5
S11326D090E00E947D058DE10E941E0A8230A1F7E0
S11326E08CE10E941E0A833079F782E068E00E9440
S11326F0FF0910E084E690E00E947D0581E06FE12F
S113270040E00E949A0A1A3009F4ABC0883011F0F4
S11327101F5FF0CF8093582481E060E070E048E0D0
S113272050E029E334E20E942D0481E00E947712F4
S1132730882351F096C0C9E3D4E20E944E388993AD
S113274084E2C134D807C9F78091392420913A240E
S113275050913B2460913C2470913D24E0913E24AF
S1132760F0913F24A0914024382F315041E0381794
S113277008F040E0822F815091E0821708F090E049
S1132780480F21E0481708F020E0922B252F215014
S113279081E0251708F080E0592F520F91E052177D
S11327A008F090E0892B262F215091E0261708F09D
S11327B090E0682F620F81E0621708F080E0982BA8
S11327C0272F215081E0271708F080E0792F720F1E
S11327D091E0721708F090E0892B2E2F215091E0A0
S11327E02E1708F090E0E82FE20F81E0E21708F0DE
S11327F080E0982B2F2F215081E02F1708F080E0E4
S1132800920FF1E0921708F0F0E08F2BA195A81732
S113281079F49F3F69F4EF3F59F47F3F49F46F3FE8
S113282039F45F3F29F44F3F19F43E3F08F083CF5A
S113283086E394E10E94A703809149068360E0E463
S1132840F6E081870E94D50A86E90E94060B8093F0
S1132850D8239093D9238AE494E20E948B0B80E0DE
S113286001C085E8DF91CF911F9108958FE00E9408
S11328701E0A83FF0FC020916224213041F486FF99
S113288002C081E001C080E00E94750F08950E949B
S1132890440E089582FF14C08DE060E847E00E9472
S11328A09A0A882339F48DE063E040E021E00E9435
S11328B0B20A08958DE063E040E022E00E94B20A8B
S11328C008958FE00E941E0A84FF03C081E0809374
S11328D0612408958823C9F4809158248F30B9F075
S11328E0809162248823A9F41092492488E00E94EC
S11328F0EC0B8830D9F780E00E946B058FE00E94D2
S1132900EC0B8F3041F480E0089588EE089581E85F
S1132910089586E8089586E80895809158248F30B4
S113292051F488E00E94EC0B883039F481E00E9475
S11329306B0580E0089582E8089585E808959091F4
S113294062249923B9F4883031F40E94EC0B10927C
S1132950492488E008958091D8239091D923009741
S113296021F086E10E94EC0B03C081E080934924AE
S113297086E0089586E80895FC01A081B18184E190
S11329808C9313966C93139711964D935C931297B3
S11329908EEF94E2BF010E94920B08950F931F9350
S11329A0DF93CF930F920F92CDB7DEB78091872438
S11329B0909188246BEE4FEF5FEF0E94BC1410924D
S11329C076240FEF1FEF09831A8380E5BE016F5F42
S11329D07F4F0E944C2B0093BD241093BE24109271
S11329E0CB241092CC241092CD241092CE24109299
S11329F0CF241092D0241092D1241092D2240E9479
S1132A00CB270F900F90CF91DF911F910F910895D5
S1132A10DF92EF92FF920F931F93DF93CF93CDB783
S1132A20DEB72F97CDBFDEBF7C01DE011196FC011E
S1132A3050814181252F342FF9012FE001900D920F
S1132A402150E1F780938724909388248C818230ED
S1132A5019F48F8198851AC08F818093CB2488853F
S1132A608093CC2489858093CD248A858093CE2439
S1132A708B858093CF248C858093D0248D858093FF
S1132A80D1248E858093D2248EEF9FEF8093BD2432
S1132A909093BE2480E5BE016B5F7F4F0E944C2B58
S1132AA00E94F527D7010D911C9181E0F8018083E4
S1132AB0E182F282EE56FF4F80838F858183DF01AE
S1132AC01897809139248C9380913A2411968C9391
S1132AD0119780913B2412968C93129780913C24F9
S1132AE013968C93139780913D2414968C9314978A
S1132AF080913E2415968C93159780913F241696C9
S1132B008C9316978091402417968C93DF011A9723
S1132B108FEF9FEF8D939C9311978C81823059F4A2
S1132B203C978091BD249091BE248083918383E25D
S1132B3098EC45E11CC072978091CB2480838091EE
S1132B40CC2481838091CD2482838091CE2483837D
S1132B508091CF2484838091D02485838091D12453
S1132B6086838091D224878383E29CEC4BE1DF014E
S1132B70129720914424309145242D933C93DF01F6
S1132B801397209182242C932F5F20938224DF01BA
S1132B9015978D939C9336974083D8011796ED93A0
S1132BA0FC93189784E0BE016D5F7F4F0E944C2B0D
S1132BB0D82E80E0BE016E5F7F4F0E944C2BDD203B
S1132BC071F4882361F4C80162E070E041E00E947E
S1132BD05C0F882321F481E08093FB2408C0C701A3
S1132BE061EE4FEF5FEF0E94BC140E94CB272F963B
S1132BF0CDBFDEBFCF91DF911F910F91FF90EF907A
S1132C00DF900895BC01FC019081818120916324AF
S1132C10222321F4CB010E940D0B0895E92FF82FF4
S1132C208091E62481838091E72482838091E82443
S1132C3083838091E92484838091EA24858380912D
S1132C40EB2486838091EC2487838091ED24808714
S1132C508091F124818783E180838EEF94E20E9446
S1132C60920B0895CF92DF92EF92FF920F931F93EE
S1132C70CF93DF93BC01FC01C081D181D980EA806C
S1132C80FB800C811D815E814F81388589859A8501
S1132C90CB842091FA242250223020F0CB010E94D0
S1132CA00D0B5CC022E02883DE01A057BF4FFD015D
S1132CB0219311968D939C931297C282FD013897AC
S1132CC080913924808380913A24818380913B24AC
S1132CD0828380913C24838380913D2484838091EA
S1132CE03E24858380913F2486838091402487837A
S1132CF03897D082E182F28203831483558346831A
S1132D003783FD01729780914424909145248083F8
S1132D109183FD0173978091822480838F5F8093D8
S1132D208224FD01759783E69CEC808391835697FA
S1132D308BE18C93AF83B8871E8285E694E20E9470
S1132D40920B80918424909185248C839D8381E0CF
S1132D500E94A705882311F40E940C25DF91CF91CE
S1132D601F910F91FF90EF90DF90CF900895FF9205
S1132D700F931F93DF93CF930F920F92CDB7DEB7CC
S1132D80F090F3240E940D0BFF20B1F583E561EF71
S1132D9074E20E944C2B4091F1245091F2248091D2
S1132DA0E6248093CB248091E7248093CC248091E3
S1132DB0E8248093CD248091E9248093CE248091CB
S1132DC0EA248093CF248091EB248093D0248091B3
S1132DD0EC248093D1248091ED248093D22481E04B
S1132DE08093FA241092762480918124833031F5E3
S1132DF082E08093812422C0109276240FEF1FEF8B
S1132E0009831A8380E5BE016F5F7F4F0E944C2BBC
S1132E100093BD241093BE241092CB241092CC2492
S1132E201092CD241092CE241092CF241092D0244C
S1132E301092D1241092D2244FEF5FEF8091872417
S1132E40909188246F2D0E94BC140E94CB270F9070
S1132E500F90CF91DF911F910F91FF900895EF9202
S1132E60FF920F931F93CF93DF93C091C724D09108
S1132E70C82480E061E040E020E030E000E010E0C1
S1132E800E940E1F882351F48091872490918824F6
S1132E9061EE4FEF5FEF0E94BC1418C0AE0160E01A
S1132EA070E084E0440F551F661F771F8A95D1F7A1
S1132EB080E020E00EEC14E1EE24FF240E94E506FD
S1132EC0882321F080E090E00E94CE14DF91CF911E
S1132ED01F910F91FF90EF9008952091E2232730E6
S1132EE0E8F4FC01A781B08512968C91129786951F
S1132EF086958370823091F4E091E023F091E12390
S1132F003297E093E023F093E12316968D919C9100
S1132F101797808391832F5F2093E22380E00895A5
S1132F202091E2232730F0F4DC011796ED91FC9117
S1132F3018978281869586958370833099F4809161
S1132F40E0239091E12308978093E0239093E12379
S1132F50DC01369688E001900D928150E1F72F5FF5
S1132F602093E22380E00895BF92CF92DF92EF9204
S1132F70FF920F931F93DF93CF93CDB7DEB72597BF
S1132F80CDBFDEBFDB01ED90FC901197F7016183AB
S1132F9072838AE0808387010C561F4F40918324FB
S1132FA0442371F0041B1109242F235FE9E8F4E2A0
S1132FB0C801BF0150E02D830E945E382D8101C0FD
S1132FC02DE080916924882309F443C00093E02311
S1132FD01093E1231092E22380E997E189839A8395
S1132FE085E694E26E010894C11CD11CB6012D83C0
S1132FF00E94B30BB090E2231092E2238DE697E196
S113300089839A8385E694E2B6010E94B30B3091DA
S1133010E223A091E023B091E1231197EB2DF0E09E
S1133020CF0124E0880F991F2A95E1F7832B8C9315
S1133030EE0FFF1FEE0FFF1FE30FF11DEE0FE093E6
S1133040E2232D812E0FF0E0E095F095E00FF11FC3
S113305002C0F801129212928091FA24833019F07E
S11330608FEF9FE002C08FEF9FE430916324311112
S11330709068DF019E938E93809147249091482419
S11330803FEF8E3F9307E9F43A972A5F8091392402
S1133090808380913A24818380913B248283809130
S11330A03C24838380913D24848380913E248583C2
S11330B080913F24868380914024878380E090EC34
S11330C005C0FD019293829380E090E8DF0112979E
S11330D040914424509145244D935C93DF01139710
S11330E0309180243C933F5F30938024DF01159717
S11330F08D939C9336972083D7011796ED93FC9379
S11331001897C70162E070E040E00E945C0F81E024
S11331108093FB242596CDBFDEBFCF91DF911F9115
S11331200F91FF90EF90DF90CF90BF900895BC0176
S113313080E00E94B4170895CF92DF92EF920F932C
S1133140DF93CF93CDB7DEB76697CDBFDEBF6C01FB
S1133150DC01ED91FC9181818983828193818A8351
S11331609B8384818C8385818D8386818E838781F3
S11331708F83808588878185898782858A878385EF
S11331808B8784858C87858596858D879E878785A3
S11331908F878089888B8189898B82898A8B8389AF
S11331A08B8B84898C8B85898D8B86898E8B228DE4
S11331B0338DCE010196BE01645F7F4F418D078937
S11331C0E08C0E944F03C6010E940D0B6696CDBF92
S11331D0DEBFCF91DF910F91EF90DF90CF900895F4
S11331E0EF92FF92CF93DF93E82EE7017E01F92E51
S11331F0E701E881F981818162810E948C03C70122
S11332000E940D0BDF91CF91FF90EF900895EF9204
S1133210FF92CF93DF93E82EE7017E01F92EE701B9
S1133220E881F981818162810E94E337C7010E94AC
S11332300D0BDF91CF91FF90EF900895EF92FF92E5
S1133240CF93DF93E82EE7017E01F92EE701E881B1
S1133250F9818181928163810E946903C7010E947F
S11332600D0BDF91CF91FF90EF900895EF92FF92B5
S11332700F93CF93DF93E82EE7017E01F92EE70148
S1133280E881F9812181328143815481658176818C
S11332908781908501850E94B902C7010E940D0BA8
S11332A0DF91CF910F91FF90EF900895EF92FF92ED
S11332B00F93CF93DF93E82EE7017E01F92EE70108
S11332C0E881F981BF016E5F7F4F24893589E788E2
S11332D0F08C8181438906890E94E437CE010E94E3
S11332E00D0BDF91CF910F91FF90EF9008950F9305
S11332F01F93DF93CF93CDB7DEB76697CDBFDEBF05
S11333008C01DC01ED91FC91818192818A839B8304
S11333108381898384818C8385818D8386818E8357
S113332087818F83808588878185898782858A873D
S113333083858B87818192818D879E8784858C8705
S113334085858F878685888B8785898B80898A8BFD
S113335081898B8B82898C8B83898D8B84898E8BDD
S1133360CE010196BE01645F7F4F45890E944E03E2
S1133370C8010E940D0B6696CDBFDEBFCF91DF91D1
S11333801F910F9108950F931F93DF93CF93CDB7A0
S1133390DEB72B97CDBFDEBF8C01DC01ED91FC9134
S11333A082818983838194818A839B8385818C83B1
S11333B086818D8387818E8380858F8381858887AD
S11333C08285898783858A8784858B878181BE01ED
S11333D06F5F7F4F0E94E537C8010E940D0B2B964B
S11333E0CDBFDEBFCF91DF911F910F910895EF9272
S11333F0FF920F93CF93DF93E82EE7017E01F92E1E
S1133400E701E881F9812181328143815481658119
S113341076818781908501850E94E637C7010E94E5
S11334200D0BDF91CF910F91FF90EF900895EF92E4
S1133430FF92CF93DF93E82EE7017E01F92EE70197
S1133440E881F981AF014D5F5F4F818162810E9404
S1133450E737C7010E940D0BDF91CF91FF90EF90EA
S11334600895EF92FF92CF93DF93E82EE7017E0158
S1133470F92EE701E881F981218132814381548168
S113348065817681878190850E94E837C7010E9413
S11334900D0BDF91CF91FF90EF900895EF92FF9283
S11334A0CF93DF93E82EE7017E01F92EE701E8814F
S11334B0F98181810E94E937C7010E940D0BDF91D8
S11334C0CF91FF90EF900895EF92FF92CF93DF9307
S11334D0E82EE7017E01F92EE701E881F981818177
S11334E00E94D701C7010E940D0BDF91CF91FF907D
S11334F0EF900895EF92FF92CF93DF93E82EE701C8
S11335007E01F92EE701E881F98181810E94EA3781
S1133510C7010E940D0BDF91CF91FF90EF900895AA
S1133520CF92DF92EF92FF920F931F93CF93DF938B
S1133530E82EE7017E01F92EE701E881F981048193
S113354015812681378189E0C82ED12CCE0EDF1E4D
S1133550818162814381E0840E94FB01CE010E944B
S11335600D0BDF91CF911F910F91FF90EF90DF90A2
S1133570CF900895EF92FF92CF93DF93E82EE70167
S11335807E01F92EE701E881F981818162810E943F
S11335907402C7010E940D0BDF91CF91FF90EF9051
S11335A00895EF92FF92CF93DF93E82EE7017E0117
S11335B0F92EE701E881F98181810E94AA02C701FD
S11335C00E940D0BDF91CF91FF90EF900895DC01E5
S11335D0ED91FC91628173818181448125810E94F6
S11335E0EB3708952091F1243091F22436FF1BC06B
S11335F0882359F42091E4243091E52480914424D3
S1133600909145242817390759F02091E4243091EA
S1133610E5248091C0249091C1242817390719F416
S11336208EEE0E947A330895CF93DF932091F12494
S11336303091F22436FFC5C0882359F42091E42444
S11336403091E5248091442490914524281739072A
S113365061F02091E4243091E5248091C02490917C
S1133660C1242817390709F0ACC02091E624309111
S1133670E7248091BD249091BE242817390709F4CA
S1133680A0C09091E6248091CB24981759F590918D
S1133690E7248091CC24981729F59091E82480910F
S11336A0CD249817F9F49091E9248091CE249817A9
S11336B0C9F49091EA248091CF24981799F49091B9
S11336C0EB248091D024981769F49091EC24809194
S11336D0D124981739F49091ED248091D22498172D
S11336E009F46FC086E90E94060BEC01009709F407
S11336F068C08881998125E0FC012083C183D2833D
S1133700DC01AD56BF4F2C93FD013897209139242D
S1133710208320913A24218320913B2422832091E9
S11337203C24238320913D24248320913E2425831B
S113373020913F2426832091402427833897209189
S1133740CB2420832091CC2421832091CD24228357
S11337502091CE2423832091CF2424832091D0242C
S113376025832091D12426832091D2242783FD010F
S11337707297209144243091452420833183FD01A4
S113378073972091822420832F5F20938224FD014C
S1133790759723E63CEC20833183569728E12C93DC
S11337A0FC01A783B08762E070E041E00E945C0FF7
S11337B0882321F481E08093FB2403C0CE010E947E
S11337C00D0BDF91CF910895CF92DF92EF92FF928C
S11337D00F931F93CF93DF93E82EE7017E01F92E19
S11337E0E701E881F981A781B0858C918093D62483
S11337F0A80FB11D11968C918093EF24C780D084BB
S1133800D60111968D919C91129743ED54E28093C9
S1133810D3249093D42413962C9113972093D724D4
S1133820B6016C5F7F4F092F0295069506950370CC
S1133830192F16951695137009F45BC014962D91E3
S11338403C9115972093D9243093DA24F6013696C7
S1133850123019F5DA011896FA01108611961C92A5
S1133860119712961C92129713961C921397149602
S11338701C92149715961C92159716961C921697DF
S113388017961C92D60116962D913C911797208776
S11338903187F601389644E030C0133069F59A0157
S11338A0285F3F4FD6011696FC90DA011896FC92D9
S11338B04181D90111964C931197428112964C93F0
S11338C01297438113964C931397448114964C9307
S11338D01497458115964C931597468116964C93EB
S11338E01697478117964C931797F6013E964AE030
S11338F004C0FB0140E001C042E0002309F447C0DA
S113390086FD08C0219131912093E4243093E5246D
S11339104E5F08C02091D9243091DA242093E42406
S11339203093E5240230C1F41092E6241092E72487
S11339301092E8241092E9241092EA241092EB24C5
S11339401092EC241092ED24208131812093E624FE
S11339503093E7244E5F1BC00330C9F420812093C9
S1133960E62421812093E72422812093E8242381E3
S11339702093E92424812093EA2425812093EB24B5
S113398026812093EC2427812093ED24485F5091D5
S1133990D6245550541B5093F0240093E3241093E1
S11339A0D82483FDB9C1FB01E40FF11D282F277032
S11339B02093D524233021F420812093EE245BC06E
S11339C0213009F449C0213020F0233009F0A4C18A
S11339D052C0808191818093F1249093F22442819A
S11339E04093F324477011F04C5F01C043E0DF01C2
S11339F0A40FB11D8C918093F4244F5F682F6770DE
S1133A0090E08077907024E0959587952A95E1F76A
S1133A10662311F4882389F09F01240F311D20931C
S1133A20F5243093F624662311F0660F460F88239D
S1133A3021F0880F880F880F480F451750F4541B46
S1133A405093F724E40FF11DE093F824F093F92444
S1133A5067C11092F72464C1552351F0563718F00A
S1133A6086E78093F024E093F124F093F22458C184
S1133A701092F02455C12091EE242330C9F0243053
S1133A8030F42130A9F0223009F046C107C02830B3
S1133A9008F446C1283009F03FC10EC081819281EB
S1133AA08093F1249093F22483818093F32438C18A
S1133AB081818093F12434C1218132812093F124C6
S1133AC03093F224238134812093F3243093F4241B
S1133AD025812093F524268137812093F624309381
S1133AE0F72494FF1DC180858093F82419C1809127
S1133AF0D524833061F48091EE24843011F0873032
S1133B0031F482EC94E2BE010E94920B0FC18091C9
S1133B107624813009F4EBC0813020F0843008F041
S1133B20FBC0A3C080917F24882309F06AC09091D0
S1133B30FA24933080F1933009F0EEC08091D524BB
S1133B40813009F4E5C0813010F1833009F0E4C01C
S1133B508091EE24843009F4AFC0853038F481308C
S1133B6009F4A0C0833009F0D7C009C0863009F435
S1133B70AEC0863040F0873009F0CEC0B0C0CE0170
S1133B800E948922D3C08EEE0E947A33C5C080E0A1
S1133B900E94F21AC1C08091D524813009F4B8C0C2
S1133BA0813020F0833009F0B7C00CC08091FD242F
S1133BB0882309F4B1C0992309F4AEC080E00E94BF
S1133BC0141BAAC08091EE24843009F475C085309A
S1133BD038F4813009F466C0833009F09DC004C014
S1133BE0873009F05AC009C0CE010E948922809111
S1133BF0FA24813009F09AC05CC0923009F08CC07C
S1133C006EC0833009F1843019F0823009F084C029
S1133C108091D524882309F07FC08091FA248330D1
S1133C2019F481E00E94F21A8091FD24882341F066
S1133C308091FA248150823018F481E00E94141B90
S1133C40CE010E94332C72C08091D524833009F0B8
S1133C5063C08091EE24883009F05EC082E00E9447
S1133C600C06CE010E94663261C00E94122C809123
S1133C70D524813009F44CC0833009F04DC08091C3
S1133C80EE248430C9F0853030F4813059F083302B
S1133C9009F042C00BC08730F1F0883021F1863042
S1133CA0D9F515C0CE010E94021640C0CE010E9473
S1133CB089220E9447283AC080916924882321F0F0
S1133CC0CE010E94CA2032C00E94152025C0CE0118
S1133CD00E946C282BC08091FA248230E9F4CE0132
S1133CE00E94971823C0CE010E94B7331FC0809151
S1133CF0D524833059F48091EE24823069F480E035
S1133D000E940C06CE010E94B71610C0813021F427
S1133D10CE010E94C9230AC0CE010E940D0B06C029
S1133D208091FB24882309F0E2CEF1CEDF91CF917C
S1133D301F910F91FF90EF90DF90CF900895FC01B9
S1133D401082618172816115710521F082EC94E227
S1133D500E94920B0895FC018681882399F40780C0
S1133D60F085E02D8281869586958370823061F49A
S1133D7081E0DB014D915C911197268137814217D7
S1133D80530719F080E0089580E00895FB01DC01F9
S1133D9016968C9116978823E9F517960D90BC9189
S1133DA0A02D12968C9112978695869583708330F8
S1133DB099F581E0208116969C911697291751F563
S1133DC0218117969C911797291721F5228118961E
S1133DD09C9118972917F1F4238119969C911997AE
S1133DE02917C1F424811A969C911A97291791F4E2
S1133DF025811B969C911B97291761F426811C969B
S1133E009C911C97291731F427811D969C911D972D
S1133E10291719F080E0089580E008958F929F9209
S1133E20AF92BF92DF92EF92FF920F931F93DF93B3
S1133E30CF930F920F92CDB7DEB7D82E790186E9D2
S1133E404A8369830E94060B4C014A816981009769
S1133E5009F4DCC0FC01A080B180DD2011F084E015
S1133E6001C08BE0F5018083F50181829282D50146
S1133E70AD56BF4F84E08C938091472490914824A1
S1133E809C012E5F3F4F2230310510F0662359F11B
S1133E901897809139248C9380913A2411968C93AD
S1133EA0119780913B2412968C93129780913C2415
S1133EB013968C93139780913D2414968C931497A6
S1133EC080913E2415968C93159780913F241696E5
S1133ED08C9316978091402417968C93179783E2BE
S1133EE090EC52E105C09E938E9383E290E85CE0EF
S1133EF0442361F020914424309145240217130790
S1133F0029F05E5F3E932E9360E002C0806461E01E
S1133F10423029F49860F7012081318119C043307F
S1133F2071F49C6018975A5F9D0148E0F701019075
S1133F307F01F90101929F014150C1F735C02091E1
S1133F40BD243091BE24FFEF2E3F3F0721F098603F
S1133F503E932E9329C09C6018975A5F2091CB24DE
S1133F602C932091CC2411962C9311972091CD243D
S1133F7012962C9312972091CE2413962C93139778
S1133F802091CF2414962C9314972091D024159625
S1133F902C9315972091D12416962C931697209143
S1133FA0D22417962C9317971297662341F02091E9
S1133FB04424309145242D933C93119703C00D93D1
S1133FC01C9311979D012150304040918224F901A6
S1133FD040834F5F409382249D0123503040F90178
S1133FE08083918314975C93F501A783B087C501FF
S1133FF062E070E041E00E945C0F882321F481E0DC
S11340008093FB2404C0C4010E940D0B80E00F9038
S11340100F90CF91DF911F910F91FF90EF90DF9060
S1134020BF90AF909F908F9008950F931F93CF935D
S1134030DF9386E90E94060BEC01009709F4A5C002
S1134040088119818CE0D8018C931196CD93DC936F
S1134050129716961C921697F801EC56FF4F809112
S11340604724909148249C012E5F3F4F2230310514
S1134070E8F4389780913924808380913A248183AD
S113408080913B24828380913C24838380913D24CE
S1134090848380913E24858380913F24868380910C
S11340A04024878380E090EC61E105C09293829381
S11340B080E090E86BE020914424309145244091C5
S11340C0E4245091E5242417350711F4806403C0D7
S11340D06E5F329322932091E3242330E9F43897DE
S11340E06A5F2091E62420832091E7242183209194
S11340F0E82422832091E92423832091EA24248341
S11341002091EB2425832091EC2426832091ED2417
S1134110278381609C6008C02091E6243091E724C5
S113412032932293816098609F01225030404091E5
S1134130E4245091E524D9014D935C939F012350CD
S1134140304040918224D9014C934F5F40938224A4
S11341509F0125503040D9018D939C9336976083FD
S1134160D8011796ED93FC9318978881998161E0A3
S113417070E040E00E945C0F882321F481E080938A
S1134180FB2403C0CE010E940D0BDF91CF911F9140
S11341900F910895EF92FF920F931F93DF93CF93A4
S11341A000D00F92CDB7DEB70E940D0B8091FA2498
S11341B0823008F453C08091E324823019F48BEAEE
S11341C09EE105C0833009F049C086EC9EE18983F5
S11341D09A8386EE94E28B839C8385E694E27E0147
S11341E00894E11CF11CB7010E94B30B009789F0FD
S11341F0DC010D911C91D8011796ED91FC91189753
S11342004091E4245091E5242481358142175307D9
S113421019F00E94152022C021E0F8012683818331
S1134220928385E694E2B7010E94B30B009741F0B4
S1134230D8011796ED91FC91189781818061818353
S1134240C80161E070E040E00E945C0F882321F423
S113425081E08093FB2402C0F80116822496CDBF2E
S1134260DEBFCF91DF911F910F91FF90EF900895E2
S11342700F931F93CF93DF93FC01E801A081B181D9
S113428086E18C9311966C93119712964C93129726
S113429013962D933C9314974230F9F415961C927F
S11342A0159716961C92169717961C9217971896A0
S11342B01C92189719961C9219971A961C921A9781
S11342C01B961C921B971C961C921C9788819981A3
S11342D015968D939C93169706C0159688E00990C1
S11342E00D928150E1F78EEF94E2BF010E94920B90
S11342F0DF91CF911F910F910895EF92FF920F9349
S11343001F93DF93CF93CDB7DEB72E97CDBFDEBF1C
S11343107C01DC010D911C91DE011196F8018EE007
S113432001900D928150E1F7F801E182F28283E07D
S11343308083D801AE56BF4F8C938D8511968C9394
S11343401197FD01389780913924808380913A2414
S1134350818380913B24828380913C248383809158
S11343603D24848380913E24858380913F248683E9
S11343708091402487838A81823041F4FD013A97F9
S11343808D819E818083918323E112C038978D8132
S113439080838E8181838F818283888583838985CD
S11343A084838A8585838B8586838C85878329E1AD
S11343B0DF01129780914424909145248D939C931E
S11343C0DF011397809182248C938F5F80938224E2
S11343D0DF0115973A81932F990F990F80E0836637
S11343E0906C8D939C9336972083D8011796ED9308
S11343F0FC93189716961C9216978091FA24825073
S1134400823008F060C08E85882309F45CC08A81FC
S11344108230D1F48D818B3409F041C08E818823A0
S1134420F1F58F818823D9F588858823C1F589859D
S11344308823A9F58A85882391F58B85882379F5C6
S11344408C85882361F55BC0833009F058C09D8159
S11344508091CB24981719F59E818091CC249817CC
S1134460F1F49F818091CD249817C9F498858091A7
S1134470CE249817A1F499858091CF24981779F4C4
S11344809A858091D024981751F49B858091D124EA
S1134490981729F49C858091D224981781F185E698
S11344A094E2B7010E94920B809184249091852418
S11344B0F8018483958381E00E94A7058823F9F499
S11344C00E940C251CC00E94F527D7018D919C9158
S11344D062E070E041E00E945C0F882321F481E0F7
S11344E08093FB240CC02B813C81C70161EE4A817F
S11344F08E010B5F1F4F0E9438210E94CB272E96FE
S1134500CDBFDEBFCF91DF911F910F91FF90EF9050
S11345100895BC01DC01ED91FC9185E180838091DB
S1134520E62481838091E72482838091E824838335
S11345308091E92484838091EA2485838091EB240B
S113454086838091EC2487838091ED2480878091F9
S1134550F12481878EEF94E20E94920B1092CB2477
S11345601092CC241092CD241092CE241092CF24F9
S11345701092D0241092D1241092D2248FEF9FEF66
S11345808093BD249093BE2408950F931F93DF93CB
S1134590CF93CDB7DEB72897CDBFDEBFDC01ED9159
S11345A0FC91119719821A821B821C821D821E8221
S11345B01F8218860780F085E02D42814695469536
S11345C04370242F2250223080F4268129832781AE
S11345D02A8320852B8321852C8322852D83238583
S11345E02E8324852F83258528872091FA24233040
S11345F0D1F1223009F03FC0423059F40680F781EE
S1134600E02D2091BD243091BE24E217F30759F523
S113461032C0433041F536812091CB24321719F54D
S113462037812091CC243217F1F430852091CD24A8
S11346303217C9F431852091CE243217A1F4328582
S11346402091CF24321779F433852091D024321766
S113465051F434852091D124321729F435852091E1
S1134660D224321741F020914424309145248E0104
S11346700F5F1F4F14C040914724509148244E5F50
S11346805F4F20914424309145244230510520F459
S113469043E009E314E203C042E007E414E20E94A9
S11346A038212896CDBFDEBFCF91DF911F910F91A6
S11346B00895DC01ED91FC911197E081E43270F4EE
S11346C0F0E0EE0FFF1FE850FE4F25913491F90101
S11346D0309711F0199508950E940D0B08951F93BA
S11346E08091FB24882381F480917E24882361F0C7
S11346F08AE794E260E070E00E94AD0B009721F03D
S11347000E94592311E001C010E08091C62488233F
S113471059F082EC94E260E070E00E94AD0B0097E7
S113472019F00E94592311E0812F1F910895FC0173
S11347308681882329F484819581019784839583D4
S113474080E00895FC018681882341F481E024817E
S113475035812115310519F080E0089580E0089530
S113476021E0FC019381FB018081981320E0822FDA
S11347700895FC01A081B18180E18C9311964C9342
S1134780119712966C938EEF94E2BF010E94920BE4
S113479008950F931F93DF93CF93CDB7DEB7289778
S11347A0CDBFDEBFBC01FC01908181812091F0244A
S11347B0222321F4CB010E940D0B24C1E92FF82FF1
S11347C08091D724808F2091E32421838091E42455
S11347D09091E52482839383822F8250823050F516
S11347E01482158216821782108611861286138609
S11347F0223039F48091E6249091E72484839583D0
S113480023C08091E62484838091E724858380916A
S1134810E82486838091E92487838091EA24808731
S11348208091EB2481878091EC2482878091ED2410
S113483083870AC012821382148215821682178219
S11348401086118612861386808D909164248917B0
S113485061F5248190916C24291739F52581909173
S11348606D24291711F5268190916E242917E9F4F6
S1134870278190916F242917C1F420859091702489
S1134880291799F4218590917124291771F42285AF
S113489090917224291749F4238590917324291740
S11348A021F4CB010E940D0B63C0809364248481A6
S11348B080936C24858180936D24868180936E24FB
S11348C0878180936F248085809370248185809371
S11348D0712482858093722483858093732420912C
S11348E0D82424871786108A118A128A138A148A74
S11348F0158A168A8091D9249091DA24858796871F
S11349002330C9F48091DB2487878091DC24808B59
S11349108091DD24818B8091DE24828B8091DF2441
S1134920838B8091E024848B8091E124858B80911A
S1134930E224868B0BC0223039F48091DB249091E1
S1134940DC248787908B02C0158616868091EF241D
S1134950878B8091F024818F8091F1249091F224AF
S1134960828F938F81E180838EEF94E20E94920B79
S11349708091D32484FF46C08091FA24833009F4C3
S113498043C08091E324823071F48091E6249091B5
S1134990E72489839A830091E4241091E52480E03C
S11349A060E042E021C0833019F58091E6248983D8
S11349B08091E7248A838091E8248B838091E92481
S11349C08C838091EA248D838091EB248E83809163
S11349D0EC248F838091ED2488870091E424109146
S11349E0E52480E060E043E09E012F5F3F4F07C075
S11349F080E060E040E020E030E000E010E00E9471
S1134A000E1F02C00E94CB272896CDBFDEBFCF91D8
S1134A10DF911F910F910895EF92FF920F931F93CF
S1134A2081E040E050EE61E070E020E007E215E252
S1134A30EE24FF240E94E506882321F080E090E024
S1134A400E9427251F910F91FF90EF900895FF92E8
S1134A500F931F93DF93CF9300D00F92CDB7DEB7A0
S1134A6087E993E289839A8385E694E28E010F5F56
S1134A701F4FB8010E94B30B82EA93E289839A83A1
S1134A80F02E012F85E694E26F2D702F0E94AD0B5E
S1134A90BC010097D1F0DC01ED91FC91119780816C
S1134AA0833041F08D3059F0823061F780EF0E94FD
S1134AB05F27E8CFCB0160EF0E94C522E3CFCB0193
S1134AC060EF43810E94B923DDCF8091692488235C
S1134AD011F00E940C252496CDBFDEBFCF91DF914B
S1134AE01F910F91FF9008952F923F924F925F92E2
S1134AF06F927F928F929F92AF92BF92CF92DF92EA
S1134B00EF92FF920F931F93DF93CF9300D0CDB713
S1134B10DEB78C01DC012D903C90F1016180E280D4
S1134B2043815481C580D680A780B084F185FB83FE
S1134B30D1011A969C901A971B968C901B971C96E1
S1134B407C901C971D96FC901D971F96BC91BA8370
S1134B50F101268530E084E0482E512C4222532274
S1134B6022FD0BC080917624882321F480917F2438
S1134B70882319F0C80161EEA0C08DE0D1018C93A7
S1134B801396FC92139716961C926A816B5FE4E964
S1134B90F0E0BA81EB1BF109E20DF31D762D7230C2
S1134BA049F46B2F695F8091472490914824929334
S1134BB082931EC0862D8330D9F438976A81635F4F
S1134BC080913924808380913A24818380913B248D
S1134BD0828380913C24838380913D2484838091CB
S1134BE03E24858380913F2486838091402487835B
S1134BF080914424909145248417950729F46620D4
S1134C0041F0EE2059F402C0662019F06E5F9293D1
S1134C108293EE20F1F080E090E002C080E490E026
S1134C20AE2DA23029F46E5F6983D292C2920CC079
S1134C303897685F6983C082D182A282B382BB81C4
S1134C40B48395828682778269816E5F52934293A0
S1134C5002C080E090E04091822442934F5F4093F1
S1134C608224AC01416020FF02C0AC0141627A8120
S1134C70773608F050619E2D990F990F80E0362DFC
S1134C803295330F330F307C20E0822B932BDF01DE
S1134C901297842B952B8D939C93119767FD0BC0D2
S1134CA033976083D1011796ED93FC9318974114C1
S1134CB0510439F41FC0C80165EE4F2D0E94B92379
S1134CC033C08091FA2482508230A0F485E694E2C5
S1134CD0B8010E94920B8091842490918524F10163
S1134CE08483958381E00E94A7058823E9F40E94C8
S1134CF00C251AC00E94F527D10111960D931C931F
S1134D001297C10162E070E041E00E945C0F8823C9
S1134D1021F481E08093FB2407C0C80161EE4F2D8C
S1134D200E94B9230E94CB272396CDBFDEBFCF912B
S1134D30DF911F910F91FF90EF90DF90CF90BF9084
S1134D40AF909F908F907F906F905F904F903F9027
S1134D502F900895EF92FF920F931F93DF93CF93B9
S1134D60CDB7DEB72597CDBFDEBF7C01FC01008146
S1134D701181F801818192E19083898380EB93E230
S1134D808A839B83CE0101968C839D8385E694E27E
S1134D90BE016E5F7F4F0E94AD0B009729F00E9409
S1134DA00D0BF801128203C087EEF80182838EEFA7
S1134DB094E2B7010E94920B2596CDBFDEBFCF913E
S1134DC0DF911F910F91FF90EF900895FF920F9341
S1134DD01F93082F1092FB241092FA241092FC24A3
S1134DE010927F24109281241092762410926424CD
S1134DF08FEF80936C2480936D2480936E24809332
S1134E006F24809370248093712480937224809300
S1134E1073241092BF2488E00E949F14FFB6F89474
S1134E2010E0812F0E940C061F5F1430D1F7FFBEE3
S1134E30002309F440C01092FD2482EC97E0809393
S1134E4078249093792480E098E78093C724909302
S1134E50C8241092752410926324109283240E9413
S1134E604E388093802484EF91E08093842490933F
S1134E70852481E08093772486E080936B241092CC
S1134E80CB241092CC241092CD241092CE241092D4
S1134E90CF241092D0241092D1241092D2248FEFD8
S1134EA09FEF8093BD249093BE240E944E3880933C
S1134EB0822410926A241F910F91FF900895CF923B
S1134EC0DF92EF92FF920F931F93DB01ED91FC9120
S1134ED0A781B0851696CC9016971796DC901797F5
S1134EE01896EC9018971996FC9019971A960C91AD
S1134EF01A971B961C911B971C965C911C971D96E8
S1134F004C919CE190832091442430914524218349
S1134F10328393E0938320913924248320913A248B
S1134F20258320913B24268320913C2427832091B0
S1134F303D24208720913E24218720913F242287ED
S1134F402091402423879487C586D686E786F08AF5
S1134F50018B128B538B448B858B8EEF94E20E94D2
S1134F60920B1F910F91FF90EF90DF90CF900895D7
S1134F708091FC24882371F40E946B0580E00E94D8
S1134F806A14882321F481E08093FC24089581E04D
S1134F900E946B05089580916A24882331F48091DE
S1134FA0BF24882311F40E94B82708950E944A134D
S1134FB08823B9F40E9481088823A9F081E00E9423
S1134FC0E6260E94CB278AE794E20E948B0B82ECB0
S1134FD094E20E948B0B85E694E20E948B0B80E0A6
S1134FE0089585E8089585E808958091FC2481302A
S1134FF049F40E948D14853829F081E00E946B05E4
S11350001092FC240895EF92FF920F931F93CF9375
S1135010DF93E82EE7017E01F92EE701088119816B
S11350200E94F527F801118180E00E946B0581E060
S1135030112309F480E00E942713082F81E00E94C5
S11350406B05812F0E94E6260E94CB278AE794E213
S11350500E94B90B82EC94E20E94B90B8EEF94E2A9
S11350600E94B90B85E694E20E94B90BE881F981AC
S1135070018380E280838EEF94E2BE010E94920B52
S1135080DF91CF911F910F91FF90EF900895DF93DF
S1135090CF9300D00F92CDB7DEB70E94F5278FEFE4
S11350A09FEF89839A838B839C8383E5BE016F5F23
S11350B07F4F0E944C2B80E5BE016D5F7F4F0E94A5
S11350C04C2B81E00E94E6260E94CB272496CDBF7C
S11350D0DEBFCF91DF910895BC01DC01ED91FC911D
S11350E08AE180838091E62481838091E72482830E
S11350F08091E82483838091E92484838091EA2445
S113510085838091EB2486838091EC24878380912E
S1135110ED2480878EEF94E20E94920B08950F9302
S11351201F93DF93CF930F92CDB7DEB7182F409123
S113513044245091452489E0612F792F20915124F2
S11351400091432499830E94ED339981882329F4A3
S113515081EE612F792F0E945F270F90CF91DF910D
S11351601F910F9108950F931F93CF93DF938C0199
S1135170FC01C081D181FE01339689818B3409F40D
S1135180B7C08C3488F5863009F479C0873098F438
S1135190823009F4F3C0833038F4882309F4DEC084
S11351A0813009F0F3C0DDC0843009F460C085307B
S11351B008F060C0E6C0853409F46DC0863450F44C
S11351C0813409F465C0823409F45FC0873009F082
S11351D0DDC058C0893409F46BC08A3408F070C04B
S11351E0863409F0D3C061C0853509F464C08635BE
S11351F0B0F48F3409F487C0803538F48C3409F462
S11352007CC08E3409F0C2C07BC0823509F483C0EF
S1135210833509F483C0803509F0B8C077C0893577
S1135220D9F08A3528F4873579F0883580F409C0B7
S11352308D35D1F0803F09F478C08A3509F0A6C0D5
S11352400EC08091FD249FC0809153249CC0809106
S113525078249091792466C08091572494C08091D9
S1135260C7249091C8245EC0809175248CC080911D
S1135270432489C0809141249091422453C0809159
S1135280592481C0809150247EC0809177247BC0B2
S11352908091632478C04091832429E834E2CF01CB
S11352A0B90150E00E945E386FC0809183246BC0C6
S11352B08091802468C0809184249091852432C098
S11352C08091CB248B838091CC2481838091CD24C5
S11352D082838091CE2483838091CF2484838091A0
S11352E0D02485838091D12486838091D22434C0B4
S11352F08091BD249091BE2415C08091822443C026
S113530080914F2440C0809156243DC08091442414
S11353109091452407C080916A2435C08091472428
S1135320909148248B839C832FC0809139248B8354
S113533080913A24818380913B24828380913C2410
S1135340838380913D24848380913E24858380914E
S11353503F24868380914024878316C08091512402
S113536012C080915D2490915E24A0915F24B0913D
S113537060248B839C83AD83BE8306C080913824D4
S113538002C0809146248B8380E001C084EF998120
S11353909A839EE1988389838EEF94E2B8010E94F8
S11353A0920BDF91CF911F910F910895CF92DF92CD
S11353B0EF92FF920F931F93DF93CF930F92CDB78A
S11353C0DEB7082F6B01142F8B3409F4AAC08C3478
S11353D058F5833409F4C5C0843480F4853038F436
S11353E0823008F0BEC0882309F4BBC01BC18134DD
S11353F009F45DC0823409F015C14FC0863409F444
S113540064C0873438F4843409F44CC0853409F01A
S113541009C152C0893409F45DC08A3408F067C0F8
S1135420873409F0FFC09DC0853509F458C086351E
S113543080F4813538F48E3408F093C08C3409F04C
S1135440F1C077C0823509F479C0823508F4EAC026
S113545088C08835B1F0893530F4863569F08735F0
S113546009F0E0C07EC08A3581F08A3508F479C03D
S1135470803F09F0D7C075C0FB0180818093FD2473
S1135480CFC0FB0180819181C7C0FB0180819181E4
S11354908093C7249093C824C3C0FB018081809368
S11354A07724BEC0FB01808180936B24B9C0FB01CB
S11354B0808180936324B4C029E834E2409183243A
S11354C0C90150E00E945E38ABC0FB01808180932B
S11354D08324A6C0FB01808180938024A1C0FB01AA
S11354E080819181809384249093852499C0FB01C9
S11354F080818093CB2481818093CC24828180938A
S1135500CD2483818093CE2484818093CF2485818C
S11355108093D02486818093D12487818093D22460
S11355207FC0FB01808191818093BD249093BE2430
S113553077C0FB0180818093822472C081E0FB01EB
S11355409081992309F480E080936A24882331F0C0
S11355500E94F52786E00E949F1462C00E94CB2718
S11355605FC0802FB6010E944111982F813871F4D9
S11355700E948D14802FB6010E944111982F882318
S113558009F051C081E08093E32303C0882309F02C
S11355904AC090915324292F30E080915624609181
S11355A04F24462F50E0281B31092417350714F4E3
S11355B0692F681B70E0FA01E61BF70B21E030E06D
S11355C002C0220F331F9A95E2F721503040E29F28
S11355D0A001E39F500DF29F500D112490E0680F3D
S11355E0791F21E030E00AC0F901082E02C0EE0F55
S11355F0FF1F0A94E2F74E0F5F1F01968617970765
S113560099F724E130E0429FC001439F900D529FDF
S1135610900D1124865F9E4F809378249093792473
S113562090E001C094EF112371F08091E32388236B
S113563051F080916A24882331F499830E946A147A
S11356401092E3239981892F0F90CF91DF911F91BD
S11356500F91FF90EF90DF90CF9008950F931F93D9
S1135660CF93DF938C01FC01C081D181BE016E5FB9
S11356707F4F898141E00E94D62999819A839FE1D5
S1135680988389838EEF94E2B8010E94920BDF9194
S1135690CF911F910F910895DF93CF9300D0CDB791
S11356A0DEB79091FC24913079F469837A838B83FB
S11356B00E94F5278B8169817A810E9441118B8335
S11356C00E94CB278B8102C00E9441112396CDBF3B
S11356D0DEBFCF91DF910895853419F4809183243E
S11356E00895883030F4E82FF0E0E05CFD4F8491B9
S11356F00895982F9054903230F4E82FF0E0E85F4A
S1135700FD4F84910895803F30F0E82FF0E0E85891
S1135710FE4F8491089580E00895CF93DF93EC01C8
S1135720E881F98183E280836183662311F00E941A
S1135730CB278EEF94E2BE010E94920BDF91CF91B2
S11357400895DF92EF92FF920F931F93DF93CF930D
S1135750CDB7DEB72997CDBFDEBFD82E8091762492
S1135760882309F040C08091FA248330E1F18091CC
S11357707F248823C1F599870E94F527ED2C99850C
S1135780F92ED701ED91FC9111978181823031F48A
S11357902481358129833A8342E011C0848189833D
S11357A085818A8386818B8387818C8380858D83A1
S11357B081858E8382858F838385888743E00281F8
S11357C0138181E060E09E012F5F3F4F99870E9423
S11357D00E1F9985882329F0D092872490938824DA
S11357E006C0C70101C08D2D61EE0E948D2B299644
S11357F0CDBFDEBFCF91DF911F910F91FF90EF904E
S1135800DF90089580917624823039F48091872442
S1135810909188246BEE0E948D2B10927624109226
S1135820FB2408958091D5248823E1F080E00E9430
S11358300C068091D524813021F48091F0248823B2
S113584011F46BEE01C060E080917624823031F473
S113585080918724909188240E948D2B1092FB24A0
S11358601092762408952F923F924F925F926F92F6
S11358707F928F929F92AF92BF92CF92DF92EF92DC
S1135880FF920F931F93DF93CF93CDB7DEB7649747
S1135890CDBFDEBFBC0140917F24423011F04430C3
S11358A079F480917724882359F0E0918724F0914A
S11358B08824808191818B8B9C8BFC01399604C058
S11358C01B8A1C8AE0E0F0E01091E3248091E42438
S11358D09091E524123069F41E821F82188619867D
S11358E01A861B862091E6243091E7242C833D837D
S11358F018C02091E6242C832091E7242D83209145
S1135900E8242E832091E9242F832091EA242887F8
S11359102091EB2429872091EC242A872091ED24DF
S11359202B8700915124F0904324C090F124D0900F
S1135930F2242091F324E22EEE1CEE24EE1CB0900F
S1135940EF24423019F0443009F064C020917724E8
S1135950222309F45FC0AB89BC8918969C902C81E2
S11359603D814C805D806E807F80888439842A8468
S1135970AB85AA2430C0418152818417950749F52B
S11359804081141731F54385041719F54485F4163D
S113599001F5123031F44381548124173507C9F4D9
S11359A039C043814415A9F44481451591F44581D6
S11359B0461579F44681471561F44781481549F441
S11359C04085431531F44185421519F442854A173F
S11359D009F1A3947196A91470F268C0AF019E01F5
S11359E02F5F3F4FA1E1AA2ED9010D909D01DA014D
S11359F00D92AD01AA94C1F710838183928303872A
S1135A00F486C586D686E786B08AEB89FC8920852C
S1135A102F5F20875091F4242091F724222329F426
S1135A2020917724222309F03DC0DB01ED91FC9104
S1135A3027E120832091D72421839F012E5F3F4FAC
S1135A404E010894811C911C41E1D4010D904D013B
S1135A50D9010D929D014150C1F712838383948330
S1135A600587F686C786D08AE18AB28A8091F424B3
S1135A70838B852F877011F4507731F08091F52452
S1135A809091F624848B958B8091F724868B80915A
S1135A90F8249091F924878B908F8EEF94E20E94E2
S1135AA0920B09C0CB010E940D0B05C0B92DB53076
S1135AB008F494CFAFCF6496CDBFDEBFCF91DF9112
S1135AC01F910F91FF90EF90DF90CF90BF90AF9018
S1135AD09F908F907F906F905F904F903F902F900A
S1135AE0089541E0FB01208131812817390709F02D
S1135AF040E0842F0895DF93CF9300D00F92CDB769
S1135B00DEB721E73DE229833A838B839C8385E6D4
S1135B1094E2BE016F5F7F4F0E94AD0B2496CDBF10
S1135B20DEBFCF91DF910895EF92FF920F931F9301
S1135B30CF93DF93182FEB011092FB2480917F24E5
S1135B40823021F48881873051F405C0833039F4E0
S1135B508881863021F4812F0E94F630EFC088813D
S1135B60883009F4DEC0893090F48330B1F1843098
S1135B7038F4813009F44AC0823009F0DDC0B9C07C
S1135B80843009F46EC0853009F0D6C0C2C08B30B1
S1135B9009F467C08C3038F4893009F4B3C08A3012
S1135BA009F0CAC0C5C08C3009F4C2C08D3009F0F8
S1135BB0C3C08E81882351F01E82112319F0173837
S1135BC009F0BAC089819A810E947B2D89819A81CA
S1135BD0612F4B810E94B923AFC08E81882349F085
S1135BE01E82112311F0173849F489819A810E9489
S1135BF07B2D89819A81612F0E94C5228091FA248C
S1135C00813009F099C00E94472896C0193E11F0CE
S1135C10113E41F489819A81612F4FEF5FEF0E9419
S1135C20BC148AC0809376244091C7245091C82420
S1135C3060E070E094E0440F551F661F771F9A954B
S1135C40D1F780E020E00FE217E1EE24FF240E9468
S1135C50E506882309F472C080E090E00E942F17C3
S1135C606DC089819A810E940D0B809176248130C8
S1135C7009F464C088818430A1F4173881F0E0917C
S1135C808724F0918824A081B18183E28C931196BA
S1135C901C938EEF94E2BF010E94920B4DC082E0F0
S1135CA007C0193E09F448C0113E09F445C083E019
S1135CB080937624409178245091792460E070E0B8
S1135CC084E0440F551F661F771F8A95D1F780E043
S1135CD020E002E01CE2EE24FF240E94E50691E0AD
S1135CE09093FB24882351F180E090E00E94022CE1
