:100000000C944E010C946F010C9456070C948107CC
:100010000C946F010C946F010C946F010C946F01A0
:100020000C946F010C946F010C946F010C946F0190
:100030000C946F010C946F010C94070C0C946F01DD
:100040000C94380C0C946F010C946F010C946F019C
:100050000C946F010C946F010C946F010C946F0160
:100060000C946F010C946F010C946F010C946F0150
:100070000C946F010C946F010C946F010C946F0140
:100080000C946F010C946F010C94BE0D0C946F01D5
:100090000C946F010C946F010C946F010C946F0120
:1000A0000C946F010C946F010C946F010C946F0110
:1000B0000C946F010C946F010C946F010C946F0100
:1000C0000C946F010C946F010C946F010C946F01F0
:1000D0000C946F010C946F010C946F010C946F01E0
:1000E0000C946F010C946F010C946F010C946F01D0
:1000F0000C946F010C946F010C946F010C946F01C0
:100100000C946F010C946F010C946F010C946F01AF
:100110000C946F010C946F010C946F010C946F019F
:100120000C946F010C946F010C946F010C946F018F
:100130000C946F010C946F010C946F010C946F017F
:100140000C946F010C946F010C946F010C946F016F
:100150000C946F010C946F010C946F010C946F015F
:100160000C94C7060C946F010C94F3060C946F0169
:100170000C946F010C946F010C946F010C946F013F
:100180000C946F010C946F010C946F010C946F012F
:100190000C946F010C946F010C946F010C946F011F
:1001A0000C946F010C946F010C946F010C946F010F
:1001B0000C946F010C946F010C946F010C946F01FF
:1001C0000C946F010C946F010C946F010C946F01EF
:1001D0000C946F010C946F010C946F010C946F01DF
:1001E0000C946F010C946F01E7E7E7E7E7E7E8E9B4
:1001F000EACAAAAB4525030405060708090AE7E78A
:10020000E7E7E7E7E8E9EACBABACAD482706070844
:10021000090A0B0CC0A18182836061414222230242
:10022000030405060708090A0B0CCB2BB022E123B7
:1002300042377138DF32423D6C3A903ADC39FA424B
:100240005D470000D848B53D734ABF285F28DA28CB
:100250000929F128CA299629292900000000042A21
:10026000632A4A29BA2AEA298D2A372A4D2AA42A3A
:10027000212A010401010102010101010101010121
:100280000101040108020101010102010102010250
:1002900001010201020201010101080011241FBE37
:1002A000CFEFDFE5DEBFCDBF00E00CBF11E2A0E085
:1002B000B0E2E2EEF9EA00E00BBF02C007900D9257
:1002C000AA36B107D9F71BE2AAE6B1E201C01D9236
:1002D000A537B107E1F70E948E030C94EF540C94FC
:1002E0000000AF92BF92CF92DF92EF92FF920F93F6
:1002F0001F93DF93CF93CDB7DEB7CF5FD040CDBF95
:10030000DEBF78010AE611E2F801A081B181109701
:10031000E1F0C280C216C9F4C380C316B1F4C48030
:10032000C41699F4C580C51681F4C680C61669F452
:10033000C780C71651F4C084C81639F4C184C916E1
:1003400021F4F701A083B18364C03A96A5E2E235B7
:10035000FA07D9F6A0E0B0E0F801C080D1805D01D5
:100360000894A11CB11CC114D10409F054C0F701B8
:10037000A082B1828D01000F111FE3E0AA0FBB1F05
:10038000EA95E1F70A0F1B1F06591E4DF801A082DE
:10039000B182D8011296228311963C93119712963E
:1003A0004C93129713965C93139714966C9314972F
:1003B00015967C93159716968C93169717969C9383
:1003C000809153258F5F8093532500D000D0ADB727
:1003D000BEB711968E010F5F1F4FEDB7FEB70183B9
:1003E000128380E090E212968D939C93139714965B
:1003F000AD92BC9215970E94A1500F900F900F9054
:100400000F90EDB7FEB7018312830E9451500F90F9
:100410000F9081E008C0D501065F1F4FA436B105DB
:1004200009F09ACF80E0C150DF4FCDBFDEBFCF9142
:10043000DF911F910F91FF90EF90DF90CF90BF90D1
:10044000AF9008952F923F924F925F926F927F925A
:100450008F929F92AF92BF92CF92DF92EF92FF92D4
:100460000F931F93DF93CF93CDB7DEB7CB50D1401F
:10047000CDBFDEBF10E04DE0C42ED12CCC0EDD1E72
:1004800036E1832E30E2932E2EEB622E2AEB722E73
:1004900090E3492E90E2592E82E0282E312C2C0E2A
:1004A0003D1E5E010894A11CB11C65C0E12EFF2415
:1004B00000D000D0EDB7FEB73196ADB7BEB71196FC
:1004C000CD92DC92129782829382C7010196848337
:1004D00095830E94A1500F900F900F900F90EDB751
:1004E000FEB7C182D2820E945150F2E0FA836B8241
:1004F0007C82F701EE0FFF1FB3E0EE0CFF1CBA95F4
:10050000E1F7EE0DFF1DE659FE4D808191818D834F
:100510009E830F900F900E94ED4F8983809152250A
:100520008F5F8093522500D000D0EDB7FEB7319693
:10053000ADB7BEB71196CD92DC921297428253822C
:10054000848315820E94A1500F900F900F900F90FE
:10055000EDB7FEB7C182D2820E9451500F900F902A
:1005600082E0B10141E0950100915225A5E0EA2E1B
:100570000E94FE4B1F5F80915325181708F496CFF9
:100580008DE040E85DE86BE570E020E002E212E01B
:10059000EE24FF240E94B00AC55FDE4FCDBFDEBF50
:1005A000CF91DF911F910F91FF90EF90DF90CF904F
:1005B000BF90AF909F908F907F906F905F904F9083
:1005C0003F902F900895EF92FF920F931F93DF9328
:1005D000CF93CDB7DEB7CB50D140CDBFDEBF82E0E9
:1005E0008A838EEB9AEB8B839C838FEF9FEF8D83B7
:1005F0009E830E94ED4F898380915B258F5F80935E
:100600005B258091572590915825A0915925B0914F
:100610005A250196A11DB11D809357259093582509
:10062000A0935925B0935A252DB73EB72850304096
:100630002DBF3EBF4DB75EB74F5F5F4F8E01035F6B
:100640001F4FEDB7FEB70183128324E430E2FA01B5
:100650002283338384839583A683B7830E94A1502A
:100660002DB73EB72A5F3F4F2DBF3EBFEDB7FEB758
:10067000018312830E9451500F900F9082E0BE01BF
:100680006E5F7F4F41E09E012F5F3F4F00915B25E2
:10069000EE240E94FE4B882329F082E090E060E087
:1006A0000E94670D8BE040E454E569E870E020E0CB
:1006B00003EE12E0EE24FF240E94B00AC55FDE4F75
:1006C000CDBFDEBFCF91DF911F910F91FF90EF90D3
:1006D0000895EF92FF920F931F93809156258F5F9D
:1006E0006AE00E945D4F90935625905D9093532150
:1006F00085E461E471E20E94054E8CE040EC56EC2A
:100700006DE270E020E009E613E0EE24FF240E9491
:10071000B00A1F910F91FF90EF9008950E94E14B56
:10072000882311F00E948E080E94610D80E090E005
:1007300060E00E94670D81E090E061E00E94670D3B
:1007400082E090E061E00E94670D789480E00E9472
:100750002007882311F00E948E0881EA95E06BEC57
:1007600075E00E94065080E090E00E94CB0584E690
:1007700090E20E946A5089E790E20E946A5081E00C
:100780000E94D74D0E94E84BFDCFDF93CF930F928D
:100790000F92CDB7DEB7882349F419821A8283E518
:1007A000BE016F5F7F4F0E94054E03C081E00E9433
:1007B000D74D0F900F90CF91DF9108950F93DF9356
:1007C000CF930F92CDB7DEB7882379F5633521F447
:1007D00081E0898381E405C0613439F481E0898353
:1007E00082E5BE016F5F7F4F0BC0623521F483E16C
:1007F000898386E4F6CF663431F485E461E471E2FE
:100800000E94054E15C0653481F480915425909165
:100810005525009769F481E04EEF57E060E070E005
:1008200021E000E00E946D4E03C081E00E94D74DA0
:100830000F90CF91DF910F910895AF92CF92EF92E9
:100840000F938EEB9AEB61E040E025E005E0EE24AB
:10085000E394CC24AA240E94A04E0F91EF90CF9055
:10086000AF900895EF92FF920F931F93882331F575
:1008700081E090E0809354259093552587E890E29D
:100880000E946A5081E090E060E00E94670D8BE07A
:1008900040E454E569E870E020E003EE12E0EE2465
:1008A000FF240E94B00A8CE040EC56EC6DE270E050
:1008B00020E009E613E00E94B00A03C081E00E9434
:1008C000D74D1F910F91FF90EF9008958F929F92B7
:1008D000AF92BF92CF92DF92EF92FF920F931F934E
:1008E000DF93CF930F920F92CDB7DEB7F22EE32EA8
:1008F000D42EC52EB62EA72E982E892E8FEF9FEFC1
:1009000089839A83892D982D8E010F5F1F4F0E9436
:10091000710109811A81882351F02F2D3E2D4D2D13
:100920005C2D6B2D7A2D892D982DEE240AC02F2D4C
:100930003E2D4D2D5C2D6B2D7A2D892D982DEE247D
:10094000E3940E94E44C0F900F90CF91DF911F91A0
:100950000F91FF90EF90DF90CF90BF90AF909F905E
:100960008F900895EF92FF920F931F93442389F481
:1009700086EA90E20E946A508DE040E85DE86BE50F
:1009800070E020E002E212E0EE24FF240E94B00AB0
:1009900004C086EC90E20E946A501F910F91FF9074
:1009A000EF9008950F931F93DF93CF93CDB7DEB7EA
:1009B000C050D140CDBFDEBF00D000D0EDB7FEB7F4
:1009C00031968E010F5F1F4FADB7BEB711960D93D5
:1009D0001C93129724ED30E22283338384831582A3
:1009E000C050DF4F6883C050D1400E94A1500F908B
:1009F0000F900F900F90EDB7FEB7018312830E9406
:100A000051500F900F9082E090E061E00E94670DDE
:100A1000C050DF4F4881C050D140442319F482EFC9
:100A200090E209C0413F19F48AEF90E204C0403FD0
:100A300021F48FE091E20E946A50C050DF4FCDBF99
:100A4000DEBFCF91DF911F910F9108950F931F93F8
:100A5000DF93CF93CDB7DEB7C250D140CDBFDEBF5D
:100A600000D000D0EDB7FEB731968E010F5F1F4F5B
:100A7000ADB7BEB711960D931C93129763E271E266
:100A800062837383DC0113968D919C911497848308
:100A90009583CF5FDE4F2883C150D140CE5FDE4FBC
:100AA0003883C250D140C050DF4F4883C050D1403E
:100AB0000E94A1500F900F900F900F90EDB7FEB7CE
:100AC000018312830E945150CF5FDE4F2881C150B5
:100AD000D140CE5FDE4F3881C250D140822F932F5C
:100AE000DC01F801C050DF4F4881C050D140C8013F
:100AF000840F911D0F900F9002C02D912193E81744
:100B0000F907D9F7CE010196FC01E40FF11D10821F
:100B10000F920F92ADB7BEB711968D939C9312971B
:100B20000E9451500F900F908AE090E00E94635015
:100B3000CE5FDE4FCDBFDEBFCF91DF911F910F9112
:100B400008950F931F93DF93CF930F92CDB7DEB726
:100B500089838A3071F48DE089838E010F5F1F4F86
:100B600080E0B80141E00E942C078823C9F38AE0A5
:100B700089838E010F5F1F4F80E0B80141E00E9422
:100B80002C078823C9F380E090E00F90CF91DF918C
:100B90001F910F9108950F931F93DF93CF930F929F
:100BA000CDB7DEB78E010F5F1F4F80E0B80141E087
:100BB0000E9435078823C9F3898190E00F90CF9177
:100BC000DF911F910F910895DF93CF930F92CDB7CF
:100BD000DEB780E0BE016F5F7F4F41E00E943507C6
:100BE000813019F4298130E002C02FEF3FEFC901B5
:100BF0000F90CF91DF9108950F931F93CF93DF93C1
:100C00008C01EB010AC080E0B8014C2F0E942C0738
:100C100090E0C81BD90B080F191F1C161D069CF36A
:100C2000DF91CF911F910F9108959B01AC0160500E
:100C3000774F824C9F4FF2E0660F771F881F991FF6
:100C4000FA95D1F7E3E0220F331F441F551FEA95B1
:100C5000D1F70E947D4F21503040E0E6F6E088E079
:100C6000818384E08283E0EAF9E0378326838CE1A4
:100C7000848383E085838CE383830895CF93DF931C
:100C8000282F8091A309837FE0EAF9E08383E09134
:100C9000002A3091012A3E1718F08E2F875F02C07C
:100CA0008E2F8150831B681708F4862F392FE90196
:100CB000982F11C02091012A3991A22FB0E0A451A0
:100CC000B64D3C93293019F41092012A03C02F5FCE
:100CD0002093012A9150992369F79091042A99232E
:100CE00049F4F0E0E451F64D90819093A00991E031
:100CF0009093042A9091A3099C60E0EAF9E0938321
:100D0000DF91CF910895FC018091052A8823E9F1B4
:100D10009091A3099F7CA0EAB9E013969C93139746
:100D20008A3050F08091032A8093022A8AE08093CF
:100D3000052A6A3028F405C0861718F4682F01C008
:100D40006AE0962F18C0A091022AB0E0A451B64DD7
:100D50001A968C911A9781938091022A8F5F8093C3
:100D6000022A2091052A21502093052A91508A3089
:100D700011F41092022A992331F78091A30980631C
:100D8000E0EAF9E08383862F089580E008951F92BA
:100D90000F920FB60F920BB60F9211248F939F9361
:100DA000EF93FF938091032A9091052A9F5F909380
:100DB000052A9091A009E82FF0E0E451F64D9287C2
:100DC000893019F41092032A03C08F5F8093032A9D
:100DD000FF91EF919F918F910F900BBE0F900FBEDF
:100DE0000F901F9018951F920F920FB60F920BB68F
:100DF0000F9211248F93EF93FF938091002A8930F3
:100E000019F41092002A03C08F5F8093002AE091AA
:100E1000002A8091012AE81739F0F0E0E451F64DFC
:100E200080818093A00902C01092042AFF91EF9163
:100E30008F910F900BBE0F900FBE0F901F901895C3
:100E4000882341F460E875E280E090E00E94150696
:100E500080E0089585E80895882329F4CB01642F64
:100E60000E943E06089580E00895882329F4CB016E
:100E7000642F0E948306089580E0089580935E2584
:100E800090935F25E0E4F6E081E0828B94E0928726
:100E90008487089580935C2590935D25E0E4F6E0D7
:100EA00081E0818B82E08387848708951F920F926F
:100EB0000FB60F920BB60F9211242F933F934F93BF
:100EC0005F936F937F938F939F93AF93BF93EF93B2
:100ED000FF93E0915E25F0915F251995FF91EF91C9
:100EE000BF91AF919F918F917F916F915F914F9142
:100EF0003F912F910F900BBE0F900FBE0F901F9040
:100F000018951F920F920FB60F920BB60F921124E5
:100F10002F933F934F935F936F937F938F939F9301
:100F2000AF93BF93EF93FF93ECE4F8E0808180618F
:100F30008083E0915C25F0915D251995FF91EF91FB
:100F4000BF91AF919F918F917F916F915F914F91E1
:100F50003F912F910F900BBE0F900FBE0F901F90DF
:100F60001895EBECF1E021E030E088ED90E084BFF3
:100F7000208308958091CF0187FDFCCF08950F93C2
:100F80001F93DF93CF930F920F92CDB7DEB7898374
:100F90009A830E94BA0700EC11E0F80112829A814C
:100FA00091838981808386E082870E94B107F8015E
:100FB00084810F900F90CF91DF911F910F91089531
:100FC0000E94730C0E948E0C0E94E70D0E9418096B
:100FD0000E94660C0E946D0C88ED84BF81E08093B6
:100FE000800080E008950E94CA0B0895CF92DF929E
:100FF000EF92FF920F931F93CF93DF938B01EA0140
:10100000813031F4862F642FA9010E94C20C21C0C7
:101010008823E1F4CA01860F971F40E181309407CD
:10102000B8F4C22ED32EEE24FF240BC0C701800FCC
:10103000911F0E94BF07F60181936F010894E11C84
:10104000F11CEC16FD0690F380E003C088EE01C0B1
:1010500085E8DF91CF911F910F91FF90EF90DF9086
:10106000CF9008955F926F927F928F929F92AF92EE
:10107000BF92CF92DF92EF92FF920F931F93CF9385
:10108000DF93EC015B01CB018C0F9D1F20E18130D0
:10109000920798F5C42ED52EEE24FF2400EC11E023
:1010A00023E3722E95E3892E86E3982E21C0CE018C
:1010B0000E94BF07F60161906F018615A9F05C2EB2
:1010C0000E94BA078091CF0181FF04C0F801928687
:1010D0000E94B107F80172865092C00111821282FB
:1010E000648282860E94B10721960894E11CF11C5B
:1010F000EA14FB04E0F280E001C085E8DF91CF91C3
:101100001F910F91FF90EF90DF90CF90BF90AF9025
:101110009F908F907F906F905F9008951F93CF93D3
:10112000DF93E0E2F6E014828FEF8183C0E2D6E045
:101130001FEF8FEF9FEF0E9448091F83FACF609146
:10114000062A7091072A9B0140E050E0A90133274D
:1011500022278091200890912108A0E0B0E0282B60
:10116000392B4A2B5B2B8091062A9091072A68170E
:10117000790729F7B901CA0108951F93CF93DF9327
:101180001FB7F894809162258F3F09F44CC0C82F97
:10119000D0E0FE0133E0EE0FFF1F3A95E1F7EC0FD0
:1011A000FD1FE85FF54D80819181A281B38120917F
:1011B000062A3091072A2A173B0769F480932808EA
:1011C0009093290880910C08806180930C0880918D
:1011D0000708836003C0809107088C7F809307080D
:1011E0000E949F08FE0123E0EE0FFF1F2A95E1F702
:1011F000EC0FFD1FE85FF54D208131814281538165
:10120000621B730B840B950B6F5F7F4F8F4F9F4F4C
:101210006F3F2FEF72072FEF82072FE7920718F427
:1012200081E0809361251FBFDF91CF911F910895C9
:1012300010926025109261251092062A1092072ABA
:101240008FEF809362258093632580936425ECE083
:10125000FAE284831082118239969AE2EA38F90719
:10126000C1F70E94AB0C0895882329F488E080938D
:101270000008809340080895CF93DF93EC010E940B
:101280009F08688379838A839B83DF91CF91089538
:101290004FB7F8948630910518F1209120083091CD
:1012A0002108280F391F809120089091210882176A
:1012B000930740F4809120089091210882179307AA
:1012C000C8F30EC080912008909121082817390793
:1012D000C8F3809120089091210882179307C8F3E2
:1012E0004FBF089590E0FC0143E0EE0FFF1F4A95C9
:1012F000E1F7E80FF91FE85FF54D81E024813581C2
:101300002115310509F480E0089580916125882335
:1013100009F44CC01092612520916025222309F424
:1013200045C0809163258F3F59F4809164258F3F9C
:1013300039F480916225809364258093632512C0DF
:10134000309162258091642590E0FC0173E0EE0FFE
:10135000FF1F7A95E1F7E80FF91FE85FF54D308739
:10136000309364258091622590E0FC0163E0EE0FEC
:10137000FF1F6A95E1F7E80FF91FE85FF54D8085DB
:10138000809362258091642590E0FC0153E0EE0F8C
:10139000FF1F5A95E1F7E80FF91FE85FF54D8FEF52
:1013A00080872150209360250E94BD0808950F93E7
:1013B0001F93082F8E3008F0CDC01FB7F8940E94FD
:1013C000850940916025442309F45BC05091622552
:1013D000252F352F02C0232F382F031709F041C0C6
:1013E000802F90E0051781F4FC0153E0EE0FFF1F02
:1013F0005A95E1F7E80FF91FE85FF54D8085809376
:1014000062250E94BD0819C030E0F90143E0EE0FEB
:10141000FF1F4A95E1F7E20FF31FE85FF54DDC018E
:1014200023E0AA0FBB1F2A95E1F7A80FB91FA85FF9
:10143000B54D18968C9118978087802F90E0FC010D
:10144000A3E0EE0FFF1FAA95E1F7E80FF91FE85F91
:10145000F54D8FEF808780916025815080936025C6
:1014600065C0832F90E0FC0173E0EE0FFF1F7A95BB
:10147000E1F7E80FF91FE85FF54D8085415009F06D
:10148000AACF40916325342F242F4BC00217D9F5E2
:10149000209164250417B1F4021721F48FEF809393
:1014A00064250DC0802F90E0FC0163E0EE0FFF1F6C
:1014B0006A95E1F7E80FF91FE85FF54D80858093A5
:1014C000632534C0832F90E0FC0153E0EE0FFF1F33
:1014D0005A95E1F7E80FF91FE85FF54D802F90E08E
:1014E000DC0143E0AA0FBB1F4A95E1F7A80FB91F23
:1014F000A85FB54D18968C91189780870217B1F4A4
:101500003093642513C0822F90E0FC01B3E0EE0F0E
:10151000FF1FBA95E1F7E80FF91FE85FF54D322F8D
:1015200020852F3F09F0B2CF80E00FC0802F90E0E0
:10153000FC01A3E0EE0FFF1FAA95E1F7E80FF91FEA
:10154000E85FF54D1482158281E01FBF882321F0EA
:1015500080E003C08AE801C089E81F910F910895D7
:101560002F923F924F925F926F927F928F929F92B3
:10157000AF92BF92CF92DF92EF92FF920F931F93A1
:10158000CF93DF93D82E4A015B01C22E37018E30F4
:1015900008F0CBC00115110509F4CBC0C82FD0E06D
:1015A000FE0133E0EE0FFF1F3A95E1F7EC0FFD1F50
:1015B000E85FF54D84819581009709F0B8C00E94DD
:1015C0009F089B01AC01CC2029F06C2D613009F003
:1015D000B0C014C0D501C40180589040A040B040B4
:1015E00080386FEF96076FEFA6076FE7B60708F032
:1015F000A2C0820E931EA41EB51E13C0D501C40145
:1016000080589040A040B040821B930BA40BB50BB8
:1016100080382FEF92072FEFA2072FE7B20708F0CD
:101620008AC0CFB6F8940E948509509162255F3F29
:1016300031F0F0906025652F452F70E054C0D092B6
:101640006225FE0123E0EE0FFF1F2A95E1F7EC0F64
:10165000FD1FE85FF54D508735C04F3F09F442C08C
:10166000242F30E0F90193E0EE0FFF1F9A95E1F788
:10167000E20FF31FE85FF54D80819181A281B38174
:1016800014012501281A390A4A0A5B0AD201C1014C
:101690008F3F2FEF92072FEFA2072FE7B20718F423
:1016A000642F40851FC0FE0183E0EE0FFF1F8A9567
:1016B000E1F7EC0FFD1FE85FF54D4087541721F46B
:1016C000D092622581E013C0862F90E0FC01B3E048
:1016D000EE0FFF1FBA95E1F7E80FF91FE85FF54D30
:1016E000D08656C07F5F7F1508F4B7CF38C0FE01A3
:1016F000A3E0EE0FFF1FAA95E1F7EC0FFD1FE85FD7
:10170000F54D80829182A282B38204831583668222
:101710007782909160259F5F90936025882311F0D8
:101720000E94BD08CFBE80E007C08AE805C088E8F7
:1017300003C088EE01C08BE8DF91CF911F910F911C
:10174000FF90EF90DF90CF90BF90AF909F908F90E1
:101750007F906F905F904F903F902F900895862FCD
:1017600090E0FC0173E0EE0FFF1F7A95E1F7E80FC0
:10177000F91FE85FF54DD086FE0163E0EE0FFF1F15
:101780006A95E1F7EC0FFD1FE85FF54D8FEF80875D
:1017900080E0ADCF1F931FB7F8940E9485091FBF4B
:1017A0001FEF2FC03FB7F8948091632590E0DC01D4
:1017B00043E0AA0FBB1F4A95E1F7A80FB91FA85F26
:1017C000B54D18962C9118971496ED91FC9115979C
:1017D00016968D919C91179718961C9318971496AE
:1017E0001D921C92159716961D921C921797209386
:1017F00063252F3F11F4109364253FBF309709F004
:101800001995809163258F3F69F61F9108951F9266
:101810000F920FB60F920BB60F9211242F933F9396
:101820004F935F936F937F938F939F93AF93BF93E8
:10183000EF93FF938091062A9091072A0196809357
:10184000062A9093072A0E94BD08FF91EF91BF914D
:10185000AF919F918F917F916F915F914F913F9148
:101860002F910F900BBE0F900FBE0F901F901895E9
:101870001F920F920FB60F9211248F9380916025C3
:10188000882319F081E0809361258F910F900FBE1E
:101890000F901F901895FC012091062A3091072A7D
:1018A000609168087091690840E050E0A901332711
:1018B000222780E090E0262B372B482B592B2083C2
:1018C000318342835383089581E0089584E88093AF
:1018D000800181E6809381010895E0EAF0E0828151
:1018E00084608283089582E080935000809151004B
:1018F00081FFFCCF88ED84BF94E0E0E4F0E09183C9
:1019000084BF81E08093400082E0E0E5F0E08683E0
:10191000809160008160809360000895E0E4F6E0CB
:101920008081806180838081806880838081816004
:1019300080838081806280838081886080838081D1
:101940008F7B8083E0E6F6E080ED818380E2828316
:1019500080E18583089588E08093000880934008A3
:1019600080EF80930C0880E380934C0883E08093A1
:101970000608E1E4F8E080818061808389E2809359
:1019800043080895AF92BF92CF92DF92EF92FF92F9
:101990000F931F93DF93CF93CDB7DEB7C054D040E2
:1019A000CDBFDEBF9E012F5F3F4F90E0E0E4F6E049
:1019B000EE24E394B0E1FB2E00EC18E0A3E0DA2E75
:1019C00070ECA72E78E0B72EC090490670914906BA
:1019D0007C7F7187E682F682000000000000000034
:1019E00000000000000000000000000000000000F7
:1019F0000000000000000000D8011396DC9213974D
:101A00007091C20877FFFCCF792F7F77D5011396AD
:101A10007C9313977091C20877FFFCCFD501139682
:101A20001C9213977091C20877FFFCCF7091C30886
:101A3000F582E582C186D9017D939D019F5F903437
:101A400009F0C2CFDE01AF5BBF4F20E030E0FE0106
:101A5000319691912927022E2295207F2025032E51
:101A6000322F22952F700226269532272327220F08
:101A7000220F220F2025EA17FB0759F72115310500
:101A800081F4FA01DE011196A80FB11DCA01860F7B
:101A9000911D02C02D912193E817F907D9F780E035
:101AA00001C085E8C05CDF4FCDBFDEBFCF91DF91C5
:101AB0001F910F91FF90EF90DF90CF90BF90AF906C
:101AC0000895E0E2F6E087E081838683089583301D
:101AD000910528F48C5A9E4DFC01208101C020E024
:101AE000662319F06130B9F40BC081E090E002C0C8
:101AF000880F991F2A95E2F7E0E2F6E085830895C2
:101B000081E090E002C0880F991F2A95E2F7E0E299
:101B1000F6E08683089581E090E002C0880F991F67
:101B20002A95E2F7E0E2F6E087830895E0E2F6E046
:101B300088E0828388E1838B0895E0E2F6E0808587
:101B400090E023E0959587952A95E1F781700895B7
:101B50002FB7F89498E09093B000E0E2F6E08BE1C4
:101B6000838B81858C7F826081879287E0EAF0E0B9
:101B700082818260828378942FBF08951F920F9292
:101B80000FB60F920BB60F9211248F93EF93FF9322
:101B9000E0E2F6E08285877F8287E8E4F0E08081FA
:101BA0008E7F8083FF91EF918F910F900BBE0F90EE
:101BB0000FBE0F901F9018950E94A80DE8E4F0E06A
:101BC0008081807F8560808378948895089580E502
:101BD0008093C00880E1E0E4F6E085830895E0E4C6
:101BE000F6E020914906909149069C7F9187806C90
:101BF00090E19683E0ECF8E083838091C20887FF50
:101C0000FCCFE0ECF8E063838091C20887FFFCCF53
:101C1000E0E4F6E080E1858321870895E0E4F6E0E2
:101C200020914906909149069C7F9187806890E1B8
:101C30009683E0ECF8E083838091C20887FFFCCFB5
:101C4000E0ECF8E013828091C20887FFFCCF80911E
:101C5000C308E0E4F6E090E195832187089520E150
:101C6000E0E4F6E0268320E2E0ECF8E02383209134
:101C7000C20827FFFCCFE0ECF8E013826130B9F036
:101C8000262FFC01A0ECB8E03091C20837FFFCCF52
:101C90003091C30813961C92139731932150223030
:101CA00098F7625070E06F5F7F4F860F971F20910B
:101CB000C20827FFFCCF2091C308FC01208380E1EC
:101CC000E0E4F6E085830895FC0180E1A0E4B6E05D
:101CD00016968C9380E6A0ECB8E013968C9313973D
:101CE0008091C20887FFFCCFA0ECB8E081916150E1
:101CF0009091C20897FFFCCF13968C93139766239D
:101D0000A9F78091C20887FFFCCF80E1E0E4F6E00C
:101D100085830895DF93CF930F920F92CDB7DEB7EF
:101D20004A8369830E940E0E6981862390E04A816E
:101D300002C0959587954A95E2F70F900F90CF9145
:101D4000DF9108951F93DF93CF9300D0CDB7DEB717
:101D5000182F2B834A8369830E940E0E2B8130E05B
:101D60004A8102C0220F331F4A95E2F76981262378
:101D700060956823622B812F0E94EF0D2396CDBFC3
:101D8000DEBFCF91DF911F910895EF92FF920F93E5
:101D90001F93CF93DF9385E695E20E947B0F0AE6BF
:101DA00015E296E0E92E99E2F92EC0E0D0E0F701C5
:101DB00000831183BE01660F771F660F771F6A5F6E
:101DC000764D85E695E20E94820F219606561F4FBA
:101DD00084E090E0E80EF91EC630D10541F7DF91AE
:101DE000CF911F910F91FF90EF90089585E695E2B6
:101DF00060E070E00E949D0F0895BC01009721F003
:101E000085E695E20E94820F08956F927F928F92ED
:101E10009F92BF92CF92DF92EF92FF920F931F9308
:101E2000CF93DF938C014B016A01BFB6F894DC01BC
:101E300014968C911497882309F44BC0CD91DC91B2
:101E4000119741155105C1F07E0113C0F601628161
:101E500073810190F081E02D888199811995882303
:101E600071F47E019A818B81692EE3013E01782E07
:101E7000E301209759F72FC0209769F17E01811463
:101E8000910449F5D8012D913C9111978A819B814C
:101E9000C217D30721F48D939C93119703C0F701C8
:101EA00082839383D80112968D919C911397C817C2
:101EB000D90721F41296ED92FC921397F8018481D0
:101EC0008150848380819181009729F4128213824A
:101ED00002C0C0E0D0E0BFBECE01DF91CF911F9124
:101EE0000F91FF90EF90DF90CF90BF909F908F90D9
:101EF0007F906F900895FC011082118212821382EC
:101F000014820895FC019FB7F8948481882319F402
:101F10006083718306C0A281B38112966D937C9316
:101F2000139762837383DB0112961D921C921397A1
:101F300084818F5F84839FBF0895AB0160E070E070
:101F40000E94050F0895AB0161E070E00E94050F4B
:101F50000895CF93DF93EC010BC0CE0160E070E0F9
:101F60000E949D0F009711F41C8205C00E94FD0E77
:101F70008C81882391F7DF91CF9108951F9381E0A1
:101F80006FE140E00E948A0E8830A1F48FE00E9449
:101F90000E0E82E069E00E94EF0D10E08FE00E94DB
:101FA0000E0E80FD07C088EC90E00E9448091F5F7C
:101FB0001330A1F71F9108951F93DF93CF930F92D2
:101FC000CDB7DEB7182F8091B02A8F3059F5109217
:101FD000BD2A87E092E20E943E07E0E4F6E081E05D
:101FE000848780914906836081878FB7F8947894BD
:101FF00098E096839091BD2A9923E1F38FBF8FE0FB
:102000000E940E0E8BEE91E20E943E078EE068E089
:102010000E94EF0D183011F0133021F488E0809306
:10202000B02AD6C181E06FE140E00E948A0E809321
:10203000B02A183009F452C0193050F4143009F4A1
:102040009FC0163009F4A9C0133009F0B8C15EC0B2
:102050001F3069F0103120F4193009F0B0C16EC0A2
:10206000163109F4D3C0193109F0A9C13BC182E08E
:1020700063E00E94EF0D0E94ED4F682F8DE299837F
:102080000E94EF0D8EE267E040E09981292F0E94C7
:10209000A20E8FE00E940E0E8EE06FEF40E020E176
:1020A0000E94A20E000000000000000000000000DE
:1020B0000000000000000000000000000000000020
:1020C0000000000088E0E0E4F6E0858383E290E031
:1020D0000E9448091093B02A8FE07AC1883009F431
:1020E0006EC182E068E00E94EF0D00000000000079
:1020F00000000000000000000000000000000000E0
:102100000000000000000000000059C1883009F400
:1021100056C182E063E00E94EF0D00000000000065
:1021200000000000000000000000000000000000AF
:102130000000000000000000000041C1883029F1CB
:10214000893020F4863009F03AC105C0863119F093
:10215000893109F034C182E069E00E94EF0D00008E
:10216000000000000000000000000000000000006F
:1021700000000000000000000000000000001FC17F
:10218000883019F0893021F41AC10E94BE0F17C19E
:1021900082E064E00E94EF0D12C1893059F08A306C
:1021A00020F4883009F00BC11AC0863119F089314A
:1021B00009F005C182E066E00E94EF0D000000001A
:1021C000000000000000000000000000000000000F
:1021D000000000000000000000000000F0C00E94AD
:1021E000BE0F82E066E00E94EF0D000000000000DC
:1021F00000000000000000000000000000000000DF
:1022000000000000000000000000D9C0883001F18B
:10221000893020F4863009F0D2C031C0893019F0FD
:10222000893109F0CCC082E066E10E94EF0D000028
:10223000000000000000000000000000000000009E
:102240000000000000000000000000000000B7C017
:102250000E94BE0F82E066E10E94EF0D00000000C8
:10226000000000000000000000000000000000006E
:10227000000000000000000000000000A0C082E09C
:1022800069E00E94EF0D0000000000000000000067
:10229000000000000000000000000000000000003E
:1022A00000000000000081E06FE140E00E948A0E23
:1022B0008093B02A893009F08BC082E066E10E94E9
:1022C000EF0D000000000000000000000000000012
:1022D00000000000000000000000000000000000FE
:1022E00000006DC0883009F454C0893020F4863075
:1022F00009F065C01BC0893021F0863109F05FC04C
:1023000015C082E069E10E94EF0D000000000000AE
:1023100000000000000000000000000000000000BD
:102320000000000000000000000049C082E069E0F9
:102330000E94EF0D000000000000000000000000FF
:10234000000000000000000000000000000000008D
:102350000000000081E06FE140E00E948A0E80935F
:10236000B02A893009F034C082E069E10E94EF0DA3
:10237000000000000000000000000000000000005D
:10238000000000000000000000000000000000004D
:1023900016C00E94BE0F82E069E10E94EF0D0000AE
:1023A000000000000000000000000000000000002D
:1023B000000000000000000000000000000081E0BC
:1023C0006FE140E00E948A0E8093B02A8F31B9F30A
:1023D0000F90CF91DF911F9108958091992A8823C2
:1023E000E1F08091BE2A8823C1F480911E2990914A
:1023F0001F29009739F48AE90E94F60E80931E295E
:1024000090931F2980911E2990911F29009729F0F0
:102410001092992A86E10E94DC0F80919E2A8823DF
:1024200051F08AE99AE260E070E00E949D0F009707
:1024300011F00E9493128091BE2A833039F08530CA
:1024400041F0823041F40E94221308950E946F1CD3
:1024500008950E947D160895DF92EF92FF920F93E8
:102460001F93DF93CF930F920F92CDB7DEB7E0911A
:102470001E29F0911F29309731F4CE01029661E0B8
:102480000E942F0E46C0E080F18087E00E940E0E71
:10249000D82ECE01019661E00E942F0E698167FD62
:1024A00038C0862F8D5F0AE910E0081B11090E0D58
:1024B0001F1D6E5FC8010E942F0EF701038714874E
:1024C0008981F801E80FF11DD2828091AC2A9091A8
:1024D000AD2AA091AE2AB091AF2AF70187839087E9
:1024E000A187B28760911E2970911F298AE99AE21B
:1024F0000E94820F8AE90E94F60E80931E29909313
:102500001F29009731F489E00E94DC0F81E080935D
:10251000992A0F900F90CF91DF911F910F91FF900B
:10252000EF90DF900895CF92DF92FF920F931F9369
:10253000CF93DF936C01FC01C081D1810B851C8599
:10254000F801F080F092B22A818190E0877090705B
:10255000009709F041C08091AA2A9091AB2A82305D
:102560009105D1F58091922A2091A22A882391F495
:102570006F81788589859A85222329F422E330E0CA
:1025800040E050E004C029E130E040E050E00E942B
:102590007D4F14C06F81788589859A85222329F41F
:1025A00028E230E040E050E0F2CF9B01AC0184E053
:1025B00056954795379527958A95D1F72093B92A4F
:1025C0003093BA2A4093BB2A5093BC2A89E090E00A
:1025D0008093AA2A9093AB2AEF2DF0E03196E00F7A
:1025E000F11F40812181293218F4222319F003C000
:1025F00028E201C021E042954695469543708FEF51
:10260000489FA001112430E0429FC001439F900DDC
:10261000529F900D112468E770E00E94694F6F3F50
:10262000710511F008F06FEF6083C982DA82CE0184
:102630000E94ED2FDF91CF911F910F91FF90DF90BE
:10264000CF9008951092BE2A6091922A7091A22A8A
:10265000662341F4E091B32AF091B42A772309F478
:10266000A0C006C0772309F490C080EC90E08FC032
:10267000808190E0029648EC50E0849F9001859F15
:10268000300D949F300D112480EB94E021C0E09137
:10269000B32AF091B42A772391F4408150E04E5F41
:1026A0005F4FE0E5F0E04E9F90014F9F300D5E9F41
:1026B000300D11240DC0E091B32AF091B42A20818D
:1026C00030E02E5F3F4F45E0220F331F4A95E1F780
:1026D000280F391F275F3F4FE091A62AF091A72AC4
:1026E000A385B48511968C91119785FF32C07091A6
:1026F000A22A662341F4772309F462C040EB54E038
:1027000088EE93E00DC0772309F445C040EC50E01B
:1027100044C0772319F480E991E002C080EA90E098
:10272000840F951F820F931F7091A22A662329F4AC
:10273000772341F428E532E00AC0772331F420EE14
:1027400031E005C02CE231E002C020EC30E0280F7F
:10275000391F40E050E087819085A185B285821BBA
:10276000930BA40BB50B87839087A187B287A091A9
:102770002029A83028F4B0E0A95ABE4D8C9101C0A0
:1027800085E8BF010E94BC40089580EE91E0623070
:1027900009F091CF7CCF40EE51E0623009F0BECF1E
:1027A000B8CF808190E0029640E951E0849F90018B
:1027B000859F300D949F300D112480E699E088CFDD
:1027C00040E659E080ED97E0ABCFFF920F931F9367
:1027D000CF93DF938C01EB01F42E442331F08CE294
:1027E00060EF44E02091A92A04C08CE260EF44E04D
:1027F00020E00E94A20EC230D10598F4FF2061F0C3
:102800008CE26EE041E020919F2A0E94A20E8FE2AE
:1028100060E00E94EF0D16C08CE26EE041E027E020
:102820000FC06091A52A6295607F8091A82A682BCD
:102830008FE20E94EF0D8CE26EE041E020919F2A32
:102840000E94A20E89E10E94DC0F8931D9F78091A4
:1028500049068C7FE0E4F6E08187C130D10579F547
:102860008091B22A9091922A8331A0F08091A22A7D
:10287000992329F4882341F487EA97E01EC088232E
:1028800031F487E196E019C08FEB93E016C087E53D
:1028900092E013C08091A22A992329F4882341F45D
:1028A0008FE292E00AC0882331F487EB91E005C003
:1028B00083E091E002C087E990E00E944809C0E40B
:1028C000D6E088E08D83000000008E83C801F80107
:1028D00060810E94640E81E08093BE2A8091490647
:1028E00083608987DF91CF911F910F91FF900895A9
:1028F000AF92BF92DF92EF92FF920F931F93DF93FD
:10290000CF9300D00F92CDB7DEB75B01D42E2091CC
:10291000BE2A222309F0B0C08093A62A9093A72A4A
:10292000DC011B968D919C911C978093B32A909308
:10293000B42A009709F4A2C06330710539F4842FDA
:102940000E94881B882309F095C09AC08091A32A11
:102950008F3008F087C06130710509F083C04423CF
:1029600009F080C00E94481B70ECE72E73E0F72E40
:10297000012D112D0090A32A04C0EE0CFF1C001F96
:10298000111F0A94D2F78091B92A9091BA2AA09186
:10299000BB2AB091BC2AE80EF91E0A1F1B1F8FEF3D
:1029A0009FEFAFEFBFE0E822F9220A231B23CE01FD
:1029B00001960E943C098091922A2091A22A8823A4
:1029C00091F469817A818B819C81222329F422E30D
:1029D00030E040E050E004C029E130E040E050E069
:1029E0000E947D4F14C069817A818B819C81222352
:1029F00029F428E230E040E050E0F2CF9B01AC0146
:102A000064E056954795379527956A95D1F72983C0
:102A10003A834B835C832E153F054007510718F41A
:102A2000D801C70106C0D801C70181509040A0401D
:102A3000B04F821B930BA40BB50BBF702E153F0537
:102A400040075107E8F43091BF2A24E1329F9001FA
:102A50001124442737FD4095542F82179307A4076C
:102A6000B50770F08091B32A9091B42AB5014D2D2D
:102A70000E94E51380E005C086E803C088EE01C02F
:102A800081EE2496CDBFDEBFCF91DF911F910F91D4
:102A9000FF90EF90DF90BF90AF9008951F93182F95
:102AA0008091A12A882361F01092A12A8091AA2AFC
:102AB0009091AB2A82309105F1F589E090E030C029
:102AC0002091A62A3091A72AC90107960E943C09A5
:102AD000112311F087E005C082E060EE45E00E941E
:102AE0008A0E809320298091AA2A9091AB2A843063
:102AF0009105F1F483E08093BE2A809120298130F2
:102B000039F0813040F0833081F0853071F406C0B7
:102B100086E090E005C085E090E002C087E090E0AC
:102B20008093AA2A9093AB2A06C083E090E0F8CF66
:102B300082E08093BE2A80911E2990911F290097E0
:102B400039F489E00E94DC0F81E08093992A03C068
:102B500086E10E94DC0F1F9108950F931F93CF937E
:102B6000DF93FC01038514858091BE2A8130E1F05A
:102B700089E00E94DC0F8930D9F7C0E4D6E080916B
:102B800049068C7F898788E08D83000000008E8352
:102B9000C801F80160810E94640E81E08093A12A3F
:102BA0008091490683608987DF91CF911F910F91B2
:102BB00008958FE00E940E0E84FF28C087E00E94D7
:102BC0000E0E90912129981710F48093212980915D
:102BD000222990912329A0912429B0912529019798
:102BE000A109B1098093222990932329A093242934
:102BF000B09325290097A105B10529F087E06FEF73
:102C00000E94EF0D089585E08093BE2A08951F93DA
:102C1000CF93DF93182F8091BE2A882339F08091BB
:102C2000B02A8F3009F064C081E863C0C0E4D6E008
:102C3000809149068C7F898784E00E94DC0F8FE0B9
:102C40000E940E0E85E160E847E021E00E94A20E9E
:102C500089ED95E10E943E078EE06FEF40E020E1B4
:102C60000E94A20E809149068360898786E00E94B7
:102C7000DC0F8630A1F085E160E847E020E00E94AB
:102C8000A20E8BEE91E20E943E078EE068E00E9469
:102C9000EF0D809149068360898785E82AC087E027
:102CA0006FEF0E94EF0D84E08093BE2A10922129DD
:102CB00020EC33E040E050E004C0220F331F441FFB
:102CC000551F1A95D2F720543C4F4F4F5F4F83E06A
:102CD00056954795379527958A95D1F720932229C0
:102CE00030932329409324295093252980E001C063
:102CF00086E8DF91CF911F91089585E160E847E074
:102D000020E00E94A20E8BEE91E20E943E078EE030
:102D100068E00E94EF0D809149068360E0E4F6E0F0
:102D200081871092BE2A86E10E94DC0F80912129C2
:102D30008F3320F08FEF809321290AC09FEF899F66
:102D4000C00111246EE370E00E94694F6093212955
:102D5000809121290E943E480895CF92DF92EF9200
:102D6000FF920F931F9369017A01261737074807CF
:102D7000590718F48B019C0106C08B019C0101507E
:102D800010402040304F0C191D092E093F093F709B
:102D9000B801C9011F910F91FF90EF90DF90CF9084
:102DA000089588E090E08093AA2A9093AB2A089532
:102DB000EF92FF920F931F939091922A8091A22AF3
:102DC000992331F52091A32A882381F460EC73E0E4
:102DD00080E090E004C0660F771F881F991F2A9536
:102DE000D2F722E330E040E050E00FC060EC73E047
:102DF00080E090E004C0660F771F881F991F2A9516
:102E0000D2F729E130E040E050E00E943E4F1FC081
:102E10002091A32A882381F460EC73E080E090E0A5
:102E200004C0660F771F881F991F2A95D2F728E2E2
:102E300030E040E050E0E9CF60E07CE380E090E00B
:102E400004C0660F771F881F991F2A95D2F7AB0120
:102E5000BC0182E0440F551F661F771F8A95D1F78A
:102E60004053584F6F4F7F4F81E020E001ED16E156
:102E7000EE24FF240E94B00A1F910F91FF90EF9063
:102E80000895FF920F931F93DF93CF9300D00F927B
:102E9000CDB7DEB78E010F5F1F4FC8010E943C09FE
:102EA00089819A81AB81BC8182559E4FAF4FBF4FC4
:102EB00020912A2930912B2940912C2950912D299C
:102EC00082179307A407B50740F38091A12A8823AE
:102ED00009F0E7C08091B02A8F3019F488E00E9491
:102EE000DC0F8E010F5F1F4FC8010E943C098981D2
:102EF0009A81AB81BC8186509F4FAF4FBF4F2091CD
:102F00002A2930912B2940912C2950912D29821763
:102F10009307A407B50740F389E00E94DC0F8930CE
:102F200009F0BFC085E160E847E021E00E94A20E01
:102F300092E0F92E8E010F5F1F4FC8010E943C09DD
:102F400089819A81AB81BC814496A11DB11D2091DC
:102F50002A2930912B2940912C2950912D29821713
:102F60009307A407B50748F386E00E94DC0F88E0CA
:102F700060E847E021E00E94A20E9091922A8091A1
:102F8000A22A992329F4882341F482EC91E00AC013
:102F9000882331F488E691E005C081EE90E002C01C
:102FA00080E990E00E94480981E060E847E00E94E3
:102FB0008A0E8130C9F789E00E94DC0F81E060E46D
:102FC00046E00E948A0E8130B1F520912A29309185
:102FD0002B2940912C2950912D299091922A809152
:102FE000A22A992339F4882361F488EE93E0A0E0C3
:102FF000B0E010C0882351F480E293E0A0E0B0E09C
:1030000009C084EF91E0A0E0B0E004C080E491E06A
:10301000A0E0B0E0820F931FA41FB51F80932A2960
:1030200090932B29A0932C29B0932D29FA9409F081
:1030300084CF04E004C086E10E94DC0F00E085E15B
:1030400060E847E020E00E94A20E043051F58E01B6
:103050000F5F1F4FC8010E943C0989819A81AB8193
:10306000BC818096A11DB11D20912A2930912B2968
:1030700040912C2950912D2982179307A407B50759
:1030800048F384E090E08093AA2A9093AB2A809141
:10309000B32A9091B42A60E070E040E00E94E5130A
:1030A00006C083E090E08093AA2A9093AB2A2496EE
:1030B000CDBFDEBFCF91DF911F910F91FF9008959B
:1030C0002F923F924F925F926F927F928F929F9238
:1030D000AF92BF92CF92DF92EF92FF920F931F9326
:1030E000DF93CF93CDB7DEB72F97CDBFDEBFB0EC68
:1030F000EB2EB3E0FB2E012D112D0090932A04C07E
:10310000EE0CFF1C001F111F0A94D2F78091B92A00
:103110009091BA2AA091BB2AB091BC2AE80EF91E60
:103120000A1F1B1F2FEF3FEF4FEF5FE0E222F3225A
:10313000042315236091922A8091A22A662329F400
:10314000882341F487E090E00AC0882331F489E0C5
:1031500090E005C08FE090E002C087E190E0209110
:10316000A32A30E02E5F3F4FAC0102C0440F551F31
:103170002A95E2F79A01442737FD4095542F809114
:10318000A22A662339F4882361F484E190E0A0E068
:10319000B0E010C0882351F489E190E0A0E0B0E0F5
:1031A00009C088E290E0A0E0B0E004C08EE390E0C7
:1031B000A0E0B0E0280F391F4A1F5B1FC801B7010C
:1031C0000E94AD161B012C01CE0101960E943C0904
:1031D0005091922A5D838091A22A5523C1F4A9803F
:1031E000BA80CB80DC80882339F4C601B50122E3A4
:1031F00030E040E050E006C0C601B50129E130E012
:1032000040E050E00E947D4F59016A0114C0A9803E
:10321000BA80CB80DC80882339F4C601B50128E26E
:1032200030E040E050E0EECFA4E0D694C794B794ED
:10323000A794AA95D1F7A982BA82CB82DC8260904A
:10324000B92A7090BA2A8090BB2A9090BC2AC601F5
:10325000B501A40193010E94AD1624E130E040E0E5
:1032600050E00E947D4F611571058105910521F0A7
:103270002F5F3F4F4F4F5F4F8091A22A9D8199232F
:1032800061F5882389F4CA01B90124E130E040E006
:1032900050E00E943E4F660D771D881D991D22E368
:1032A00030E040E050E010C0CA01B90124E130E054
:1032B00040E050E00E943E4F660D771D881D991D2D
:1032C00029E130E040E050E00E943E4F7B018C015C
:1032D000C201B1010E943E4F31C0882389F4CA0166
:1032E000B90124E130E040E050E00E943E4F660D1D
:1032F000771D881D991D28E230E040E050E0E4CFC2
:10330000CA01B90124E130E040E050E00E943E4FA4
:103310007B018C01E60CF71C081D191DF4E0EE0C76
:10332000FF1C001F111FFA95D1F7C201B101E4E0A3
:10333000660F771F881F991FEA95D1F7E616F706E3
:103340000807190708F079C1C201B101A60195016A
:103350000E94AD1624E130E040E050E00E947D4F35
:1033600090902929892D90E0A0E0B0E02817390736
:103370004A075B0720F4921A909229295EC1209196
:10338000BF2A84E1289F900111248091A22AAD8157
:10339000AA2329F4882341F48BE190E00AC0882312
:1033A00031F482E290E005C087E390E002C086E558
:1033B00090E0280F391FC901AA2797FDA095BA2FC1
:1033C0008E839F83A887B9878091A22A9D819923A4
:1033D00091F4882339F4C801B70122E330E040E0DA
:1033E00050E006C0C801B70129E130E040E050E0FC
:1033F0000E947D4F12C0882339F4C801B70128E22A
:1034000030E040E050E0F4CFA801970164E0569529
:103410004795379527956A95D1F78E819F81A88525
:10342000B985280F391F4A1F5B1F5F7022153305AE
:103430004405550508F0F0C08091A22A9D8199238A
:1034400001F5882371F464E1A92DA69FB001112430
:10345000882777FD8095982F22E330E040E050E008
:103460000DC064E1B92DB69FB0011124882777FD06
:103470008095982F29E130E040E050E00E943E4FD7
:1034800020C0882371F464E1292D269FB001112406
:10349000882777FD8095982F28E230E040E050E0C3
:1034A000EDCF64E1392D369FB0011124882777FDD7
:1034B0008095982F34E0660F771F881F991F3A95E3
:1034C000D1F7E60EF71E081F191F9090A22AC60119
:1034D000B50122E330E040E050E00E943E4F662E0E
:1034E000272E882E792EC601B50129E130E040E073
:1034F00050E00E943E4F562E472E382E9E83C60126
:10350000B50128E230E040E050E00E943E4F8E8757
:103510009F8724E0AA0CBB1CCC1CDD1C2A95D1F78C
:103520001EC04D81442339F4992061F428EE33E024
:1035300040E050E010C0992051F420E233E040E038
:1035400050E009C024EF31E040E050E004C020E446
:1035500031E040E050E0E20EF31E041F151F5D81D4
:10356000552331F4992059F0D201F32DEE8110C08A
:10357000992051F0AA86BB86CC86DD8611C0B62D77
:10358000A22DF82DE72D04C0B62FA72FFE85EF85BD
:103590002B2F3A2F4F2F5E2F2A873B874C875D8733
:1035A000D801C7012A853B854C855D85821B930B1D
:1035B000A40BB50B843635E0930730E0A30730E069
:1035C000B30708F4AECFE0922A29F0922B2900939A
:1035D0002C2910932D29B801A7014E5A5140604063
:1035E000704080E021E001E417E1EE24FF240E9416
:1035F000B00A882319F481E090E009C08B3829F4DF
:1036000080E090E00E94411720C083E090E080932A
:10361000AA2A9093AB2A19C0109226290E94ED4F36
:1036200021E030E00090272902C0220F331F0A94C6
:10363000E2F7215028232093292982E090E080930B
:10364000AA2A9093AB2A0E94D8162F96CDBFDEBF30
:10365000CF91DF911F910F91FF90EF90DF90CF906E
:10366000BF90AF909F908F907F906F905F904F90A2
:103670003F902F9008951092BE2A1092AA2A10927D
:10368000AB2A6091A62A7091A72A0E94BC40089597
:10369000E091B32AF091B42A8081682F6B5F833167
:1036A00018F028E230E002C02CE030E0E091A62AD9
:1036B000F091A72A0384F485E02D818185FF03C062
:1036C000665F205E3F4F70E08091922A882319F454
:1036D00048E050E002C042E050E0469FC001479FF2
:1036E000900D569F900D1124820F931F64E170E09E
:1036F0000E94694F6093BF2A009721F0862F8F5F49
:103700008093BF2A8091BF2A8E5F8093BF2A08953D
:103710008F929F92AF92BF92CF92DF92EF92FF92E1
:103720000F931F93DF93CF9300D00F92CDB7DEB7E7
:10373000982E90ECA92E93E0B92EC12CD12C00909C
:10374000A32A04C0AA0CBB1CCC1CDD1C0A94D2F713
:10375000E090B92AF090BA2A0091BB2A1091BC2AB5
:10376000EA0CFB1C0C1D1D1D8FEF9FEFAFEFBFE0A0
:10377000E822F9220A231B23CE0101960E943C096C
:103780008091922A2091A22A882391F469817A81DA
:103790008B819C81222329F422E330E040E050E039
:1037A00004C029E130E040E050E00E947D4F14C0A9
:1037B00069817A818B819C81222329F428E230E07F
:1037C00040E050E0F2CF9B01AC0184E05695479574
:1037D000379527958A95D1F729833A834B835C8364
:1037E0008090B92AF091BA2AE091BB2A7091BC2A44
:1037F00060E025C06F5F643051F4E092B92AF09226
:10380000BA2A0093BB2A1093BC2A80E045C0D80195
:10381000C7018A0D9B1DAC1DBD1D8E2CFF2DE02FF9
:10382000712F0F2EFFEFEF2EFFEFFF2EFFEF0F2F69
:10383000FFE01F2FF02DE822F9220A231B23E216B6
:10384000F30604071507B0F237C08091A82A833029
:1038500020F082E002C08091A82A80932729992035
:1038600019F01092282904C08091A92A8093282950
:103870000E94481B0E94ED4F21E030E00090272974
:1038800002C0220F331F0A94E2F72150282320930D
:1038900029290E94601881E02496CDBFDEBFCF9118
:1038A000DF911F910F91FF90EF90DF90CF90BF902D
:1038B000AF909F908F9008958092B92AF093BA2A82
:1038C000E093BB2A7093BC2A83E08093BE2A1092B7
:1038D00026298091862A882309F0B7CFBCCF809112
:1038E000AA2A9091AB2A8630910579F1873091050B
:1038F00040F48330910599F08530910509F057C067
:1039000022C088309105E9F08830910510F18930A6
:10391000910509F04CC081E00E94D70942C0809116
:1039200026298F5F80932629909127299F5F909366
:1039300027292091A52A291710F4209327298F34AD
:1039400080F181EE03C080E001C087E80E943B1B4C
:103950000895809128299091A92A891728F58F5FC9
:103960008093282986E10E94DC0F809127298F5FB0
:10397000809327299091A52A981710F490932729CE
:10398000109226290E94ED4F21E030E00090272977
:1039900002C0220F331F0A94E2F7215028232093FC
:1039A00029290E946018089589EE0E943B1B089502
:1039B0008091872A85FD02C08F7305C081958F7124
:1039C0008195863F14F19091922A923049F095307A
:1039D00099F09923A9F49091A22A992349F40CC053
:1039E0009091A22A992321F4843064F083E011C0DD
:1039F0008B3044F08AE00DC0863024F085E009C0A9
:103A000080324CF487FF05C001C085EF8F71806A5A
:103A100003C0806801C08FE98093872A089585FDDF
:103A200002C08F7303C081958F7181959091922A06
:103A3000953049F4992787FD9095E2EFF1E0E81B76
:103A4000F90B849108952091A22A992787FD9095DA
:103A5000222331F4E8E0F2E0E81BF90B84910895A9
:103A6000EEE1F2E0E81BF90B849108959091922A1F
:103A7000992329F048E050E022E030E004C040E221
:103A800050E028E030E0420F531F992319F420E062
:103A900034E002C020E031E0240F351F2093902A4B
:103AA0003093912A992319F038E022E002C030E2E5
:103AB00028E0230F2093B12A992311F498E001C044
:103AC00092E09093A02A823089F0853009F452C0A8
:103AD000882309F096C08CE068E043E020E00E9473
:103AE000A20E86E163E040E023E010C08CE068E0D5
:103AF00043E021E00E94A20E86E163E040E022E084
:103B00000E94A20E8CE063E040E020E00E94A20E42
:103B10008091A22A882321F48CE064E042E009C06D
:103B20008CE064E042E021E00E94A20E8CE060E1C3
:103B300044E020E00E94A20E87E164E042E020E041
:103B40000E94A20E8FEF97E0A0E0B0E08093B52A2C
:103B50009093B62AA093B72AB093B82A84E167E07D
:103B600040E020E00E94A20E88E06FE140E020915A
:103B7000A22A43C08CE068E043E021E00E94A20E4C
:103B800086E163E040E022E00E94A20E8CE063E068
:103B900040E020E00E94A20E8CE060E144E021E0E1
:103BA0000E94A20E8CE064E042E021E00E94A20E9E
:103BB00087E164E042E020E00E94A20E8FE090E006
:103BC000A0E0B0E08093B52A9093B62AA093B72ADC
:103BD000B093B82A8091A22A843010F01092A22AC1
:103BE00084E167E040E024E00E94A20E2091A22A36
:103BF000220F255F83E16FEF40E00E94A20E81E07B
:103C0000089580E008951F9384E080939F2A23E025
:103C10002093A82A8FEF9FEF8093942A9093952A60
:103C20008093972A9093982A11E01093A22A1092D9
:103C3000922A88E294E08093902A9093912A88E2D5
:103C40008093B12A88E08093A02A85E08093A52AFA
:103C50002093A92A8AE88093872A0E94D81C10936F
:103C6000962A1092A42A1092862A8FE08093A32A83
:103C70008093932A1F9108951F93CF93DF9382E23D
:103C80006091942A0E94EF0D83E26091952A0E9430
:103C9000EF0DC8E8DAE214E2812F69910E94EF0D7E
:103CA0001F5F1C32C9F780E26091972A0E94EF0DD6
:103CB00081E26091982A0E94EF0D88E060E645E07D
:103CC0002091962A0E94A20E8FE26FE040E02091A0
:103CD000A82A0E94A20E8EE268E043E02091A42A66
:103CE0000E94A20E8FE260EF44E02091A52A0E947C
:103CF000A20E8091922A0E94361D8091872A0E94EE
:103D00000F1D682F85E00E94EF0DDF91CF911F916D
:103D10000895FF920F931F93CF93DF93EB01909140
:103D2000BE2A943009F439C1883411F1893428F459
:103D3000833491F0873449F513C08435A9F089356F
:103D400019F08E3411F504C088818093A92A1FC10F
:103D5000888180939F2A1BC188818093862A17C1FE
:103D600088818093A32A13C188818093932A0FC1ED
:103D700088819981AA81BB818093B92A9093BA2ABC
:103D8000A093BB2AB093BC2A02C12091B02A2F3045
:103D900009F4FFC08B3009F4F2C08C3078F4823023
:103DA00009F4B5C0833018F48823E1F1F4C08330FE
:103DB00009F4BBC0843009F0EEC085C0833521F121
:103DC000843530F48F3459F0803509F0E4C00EC0EA
:103DD000873509F495C0803F09F0DDC0ADC028816A
:103DE0002093A82A8FE26FE040E0CFC088819981BC
:103DF000682F8093942A9093952A82E20E94EF0D77
:103E000083E26091952A8EC088819981682F809382
:103E1000972A9093982A80E20E94EF0D81E26091A8
:103E2000982A80C0992309F0B8C08091922A3881DD
:103E3000853029F48FE090E0A0E0B0E004C08FEF7F
:103E400097E0A0E0B0E004C0B695A7959795879558
:103E50003A95D2F780FFA3C00091A22A888180936F
:103E6000A22A283039F088E00E94DC0F8830D9F788
:103E700016E101C018E08091922A2091A22A853093
:103E800029F4220F255F83E16FEF06C0222341F062
:103E9000002331F088E06FE140E00E94A20E0CC0E8
:103EA0000E94361D0E94D81C8091872A0E940F1DF7
:103EB000682F85E00E94EF0D183009F468C086E194
:103EC0000E94DC0F64C0992309F067C0283039F0E4
:103ED00088E00E94DC0F8830D9F706E101C008E0D5
:103EE0001881812F0E94361DF82E083019F086E1C6
:103EF0000E94DC0FFF2009F452C01093922A0AC0DE
:103F000028812093A52A8FE260EF44E03EC088819B
:103F10008093872A0E94D81C8091872A0E940F1DB7
:103F2000682F85E00E94EF0D32C028812093962AE9
:103F300088E060E645E029C088818093882A8981ED
:103F40008093892A8A8180938A2A8B8180938B2A05
:103F50008C8180938C2A8D8180938D2A8E81809391
:103F60008E2A8F8180938F2AC8E8DAE214E2812FAB
:103F700069910E94EF0D1F5F1C32C9F708C02881AC
:103F80002093A42A8EE268E043E00E94A20E80E023
:103F900007C081E805C084EF03C086E801C088EE51
:103FA000DF91CF911F910F91FF9008950F931F9371
:103FB000CF93DF9386E00E94DC0F8630D9F785E14E
:103FC00060E847E020E00E94A20E0091490680913F
:103FD00049068C7FE0E4F6E0818718E0C0E0D0E09D
:103FE00086E060E645E00E948A0E9E01220F331FA4
:103FF000220F331FC82FD0E0C22BD32B00000000AC
:1040000000000000000000000000000000000000B0
:10401000000000000000000000000000115001F747
:1040200083E00E94DC0F8FE00E940E0EE0E4F6E0D9
:1040300081E084870187CE010E94F24FDF91CF910A
:104040001F910F910895EF92FF920F931F93DF93AB
:10405000CF930F920F92CDB7DEB7F82E81E065E1D6
:1040600070E041E050E09E012F5F3F4F0E94F60755
:1040700000E416E088E0F80186838CE791E00E9476
:104080004809EE24E394F801E68281E090E00E9482
:104090004809F801E58200E084E690E00E944809C2
:1040A00081E06FE140E00E948A0E0A30F9F088302A
:1040B00011F00F5FF1CF8093B02A2981222301F103
:1040C00082E16FE040E00E94A20E1AC00E94031E2F
:1040D0000E943C1E1092BE2A1092AA2A1092AB2A6D
:1040E0001092A12A1092992A80E001C085E80F90D1
:1040F0000F90CF91DF911F910F91FF90EF90089556
:1041000083E060E344E020E00E94A20E83E068E0E8
:1041100043E020E00E94A20E83E067E040E021E05F
:104120000E94A20E0E94ED4F682F8DE29A830E949A
:10413000EF0D8EE267E040E09A81292F0E94A20EE7
:1041400080E00E9410220E9433228EE260E245E06D
:1041500021E00E94A20E8CE060E847E021E00E948E
:10416000A20E84E062E041E021E00E94A20E8EE017
:1041700068E00E94EF0D89E06FE040E025E00E94DA
:10418000A20E0E94D61FFF2009F4A2CF9FCF1F933B
:104190000E942320882329F51FB7F8940E94D7098D
:1041A00081E00E94D7091FBF0AC08AE99AE260E055
:1041B00070E00E949D0F009711F00E94FD0E80910B
:1041C0009E2A882391F78BEE91E20E943E07E0E45D
:1041D000F6E081E08487809149068360818780E0F2
:1041E00001C085E81F910895FF920F931F93CF930D
:1041F000DF930E94E007882309F0E6C0E0E4F6E0E0
:1042000081E0858388E086838AE491E00E94480902
:1042100010E0C0E4D6E0FF24F39401E00E8381E0D7
:1042200090E00E944809FD821A3009F4CDC084E66E
:1042300090E00E9448098CE10E940E0E873011F038
:104240001F5FECCF83E067E040E021E00E94A20E18
:1042500082E063E00E94EF0D10E084E690E00E94AF
:10426000480981E06FE140E00E948A0E1A3009F4AB
:10427000ABC0883011F01F5FF0CF8093B02A81E08F
:1042800060E070E048E050E028E83AE20E94F6077B
:1042900081E00E942320882351F096C0C8E8DAE22A
:1042A0000E94ED4F89938AE2C039D807C9F78091FF
:1042B000882A2091892A50918A2A60918B2A7091AC
:1042C0008C2AE0918D2AF0918E2AA0918F2A382F86
:1042D000315041E0381708F040E0822F815091E0E2
:1042E000821708F090E0480F21E0481708F020E01E
:1042F000922B252F215081E0251708F080E0592FBF
:10430000520F91E0521708F090E0892B262F215090
:1043100091E0261708F090E0682F620F81E06217A5
:1043200008F080E0982B272F215081E0271708F014
:1043300080E0792F720F91E0721708F090E0892BDE
:104340002E2F215091E02E1708F090E0E82FE20F79
:1043500081E0E21708F080E0982B2F2F215081E0B8
:104360002F1708F080E0920FF1E0921708F0F0E0CC
:104370008F2BA195A81779F49F3F69F4EF3F59F46B
:104380007F3F49F46F3F39F45F3F29F44F3F19F401
:104390003E3F08F083CF8BEE91E20E943E07809172
:1043A00049068360E0E4F6E081870E94C50E8AE951
:1043B0000E94F60E80931E2990931F298AE99AE2A3
:1043C0000E947B0F80E001C085E8DF91CF911F91B3
:1043D0000F91FF9008958CEA9AE20E943C098FE0C9
:1043E0000E940E0E83FF12C02091BE2A213021F0C0
:1043F0002091A12A222341F086FF02C081E001C062
:1044000080E00E944E1508950E942C1208958FE0BE
:104410000E940E0E84FF03C081E08093BD2A0895A0
:104420008823C9F48091B02A8F30B9F08091BE2AD8
:104430008823A9F41092992A88E00E94DC0F883022
:10444000D9F780E00E9434098FE00E94DC0F8F30A2
:1044500041F480E0089588EE089581E8089586E8A3
:10446000089586E808958091B02A8F3051F488E04D
:104470000E94DC0F883039F481E00E94340980E02A
:10448000089582E8089585E808959091BE2A9923B9
:1044900011F09330B9F4883031F40E94DC0F10929F
:1044A000992A88E0089580911E2990911F290097EC
:1044B00021F086E10E94DC0F03C081E08093992AFD
:1044C00086E0089586E80895FC01A081B18184E129
:1044D0008C9313966C93139711964D935C9312974C
:1044E00086E69BE2BF010E94820F08950F931F93FF
:1044F000DF93CF930F920F92CDB7DEB78091EA2A68
:104500009091EB2A6BEE4FEF5FEF0E9464221092C6
:10451000D32A0FEF1FEF09831A8380E5BE016F5F77
:104520007F4F0E94603D0093202B1093212B10920F
:104530002F2B1092302B1092312B1092322B109285
:10454000332B1092342B1092352B1092362B0E9465
:1045500097390F900F90CF91DF911F910F91089590
:10456000DF92EF92FF920F931F93DF93CF93CDB71C
:10457000DEB72F97CDBFDEBF7C01DE011196FC01B7
:1045800050814181252F342FF9012FE001900D92A8
:104590002150E1F78093EA2A9093EB2A8C818230B4
:1045A00019F48F8198851AC08F8180932F2B88856D
:1045B0008093302B89858093312B8A858093322B91
:1045C0008B858093332B8C858093342B8D858093C2
:1045D000352B8E858093362B8EEF9FEF8093202B8B
:1045E0009093212B80E5BE016B5F7F4F0E94603D61
:1045F0000E94CE39D7010D911C9181E0F801808392
:10460000E182F282EA56FF4F80838F858183DF014A
:1046100018978091882A8C938091892A11968C937F
:10462000119780918A2A12968C93129780918B2AE7
:1046300013968C93139780918C2A14968C931497CD
:1046400080918D2A15968C93159780918E2A1696B7
:104650008C93169780918F2A17968C93DF011A9767
:104660008FEF9FEF8D939C9311978C81823059F43B
:104670003C978091202B9091212B8083918383E222
:1046800098EC45E11CC0729780912F2B808380911C
:10469000302B81838091312B82838091322B8383D5
:1046A0008091332B84838091342B85838091352BAB
:1046B00086838091362B878383E29CEC4BE1DF017C
:1046C00012972091942A3091952A2D933C93DF01E3
:1046D00013972091E52A2C932F5F2093E52ADF0181
:1046E00015978D939C9336974083D8011B96ED9335
:1046F000FC931C9784E0BE016D5F7F4F0E94603D7C
:10470000D82E80E0BE016E5F7F4F0E94603DDD20AD
:10471000A9F4882399F48091E32A833019F463E0A3
:1047200070E002C062E070E0C80141E00E947814CD
:10473000882321F481E08093632B08C0C70161EED8
:104740004FEF5FEF0E9464220E9497392F96CDBFF2
:10475000DEBFCF91DF911F910F91FF90EF90DF901F
:104760000895BC01FC01908181812091C02A2223FF
:1047700021F4CB010E94FD0E0895E92FF82F8091BE
:104780004A2B818380914B2B828380914C2B838396
:1047900080914D2B848380914E2B858380914F2B6C
:1047A00086838091502B87838091512B80878091C5
:1047B000592B818783E1808386E69BE20E94820FEA
:1047C0000895CF92DF92EF92FF920F931F93CF93B2
:1047D000DF93BC01FC01C081D181D980EA80FB80DC
:1047E0000C811D815E814F81388589859A85CB84B6
:1047F0002091622B2250223020F0CB010E94FD0E2E
:104800005CC022E02883DE01AC56BF4FFD0121933E
:1048100011968D939C931297C282FD0138978091D7
:10482000882A80838091892A818380918A2A828341
:1048300080918B2A838380918C2A848380918D2A16
:10484000858380918E2A868380918F2A87833897EB
:10485000D082E182F28203831483558346833783B7
:10486000FD0172978091942A9091952A808391837B
:10487000FD0173978091E52A80838F5F8093E52AFD
:10488000FD01759783E69CEC8083918356978BE1BD
:104890008C93AB87BC871E8282EC9AE20E94820FC7
:1048A0008091E72A9091E82A8C839D8388E00E947A
:1048B0007209882311F40E948D36DF91CF911F91E8
:1048C0000F91FF90EF90DF90CF900895FF920F939C
:1048D0001F93DF93CF930F920F92CDB7DEB7F09077
:1048E0005B2B0E94FD0EFF20B1F583E569E57BE2BD
:1048F0000E94603D4091592B50915A2B80914A2B38
:1049000080932F2B80914B2B8093302B80914C2BBD
:104910008093312B80914D2B8093322B80914E2BA5
:104920008093332B80914F2B8093342B8091502B8D
:104930008093352B8091512B8093362B81E080938F
:10494000622B1092D32A8091E32A833031F582E0E2
:104950008093E32A22C01092D32A0FEF1FEF09831E
:104960001A8380E5BE016F5F7F4F0E94603D009318
:10497000202B1093212B10922F2B1092302B109262
:10498000312B1092322B1092332B1092342B109229
:10499000352B1092362B4FEF5FEF8091EA2A9091E2
:1049A000EB2A6F2D0E9464220E9497390F900F907E
:1049B000CF91DF911F910F91FF900895CF92DF92D9
:1049C000EF92FF920F931F939091922A8091A22AC7
:1049D0009923C1F460912B2B70912C2B882339F4EF
:1049E00080E090E022E330E040E050E006C080E06C
:1049F00090E029E130E040E050E00E943E4F6B0142
:104A00007C0117C060912B2B70912C2B882339F4DB
:104A100080E090E028E230E040E050E0EECF6B0133
:104A2000EE24FF2484E0CC0CDD1CEE1CFF1C8A95D8
:104A3000D1F780E061E040E020E030E000E010E00D
:104A40000E945C30882351F48091EA2A9091EB2AED
:104A500061EE4FEF5FEF0E94642210C087E0B70164
:104A6000A60120E006E712E2EE24FF240E94B00A2D
:104A7000882321F080E090E00E9476221F910F9120
:104A8000FF90EF90DF90CF9008952091CA292730B2
:104A9000E8F4FC01A385B48512968C911297869553
:104AA00086958370823091F4E091C829F091C929EC
:104AB0003297E093C829F093C92916968D919C915D
:104AC0001797808391832F5F2093CA2980E00895F0
:104AD0002091CA292730F0F4DC011B96ED91FC915E
:104AE0001C978281869586958370833099F4809196
:104AF000C8299091C92908978093C8299093C929FA
:104B0000DC01369688E001900D928150E1F72F5F2D
:104B10002093CA2980E00895BF92CF92DF92EF924E
:104B2000FF920F931F93DF93CF9300D00F92CDB7D7
:104B3000DEB7C82E10922F29109230298AE0809378
:104B40002E294091E62A442391F0042F10E010957D
:104B500001951F4F0A53164D6DE0D62ED40E2CEE44
:104B60003AE2C801B90150E00E94FD4F04C006ECD2
:104B700019E25DE0D52E8091C62A882309F441C050
:104B80000093C8291093C9291092CA2988E695E292
:104B900089839A8382EC9AE27E010894E11CF11CDD
:104BA000B7010E94A30FB090CA291092CA2985E4C8
:104BB00095E289839A8382EC9AE2B7010E94A30F5F
:104BC0002091CA29A091C829B091C9291197EB2D2C
:104BD000F0E0CF0144E0880F991F4A95E1F7822B5E
:104BE0008C93EE0FFF1FEE0FFF1FE20FF11DEE0F74
:104BF000E093CA29DE0EF0E0E095F095E00FF11F9A
:104C000002C0F801129212924091A32A50E08091C2
:104C1000932A90E024E0880F991F2A95E1F73091BC
:104C2000E42A20E0822B932B842B952B2091862A3B
:104C3000211190612091622B233009F4906420911E
:104C4000C02A21119068DF019E938E938091972A4C
:104C50009091982A2FEF8E3F9207F1F43A9786E0D1
:104C6000D80E8091882A80838091892A81838091BF
:104C70008A2A828380918B2A838380918C2A8483E1
:104C800080918D2A858380918E2A868380918F2AB8
:104C9000878380E090EC05C0FD019293829380E0D1
:104CA00090E8DF0112972091942A3091952A2D9354
:104CB0003C93119733972091E22A20832F5F209312
:104CC000E22A2091622B2250223040F42091A32A24
:104CD0002F3020F42091D92A21118061DF01129711
:104CE0008D939C9311973397D082E0933929F09359
:104CF0003A29CC2071F410922F29109230298EE29B
:104D000099E262E070E040E00E94781481E08093D4
:104D1000632B2496CDBFDEBFCF91DF911F910F9102
:104D2000FF90EF90DF90CF90BF9008950E94CE3912
:104D300081E00E948C2508950E94FD0E8091A32A97
:104D40008F3019F480E00E948C2508950F931F93F3
:104D5000CF93DF9385ED9AE260E070E00E949D0FB3
:104D60000097D1F0FC01C081D18189839A83CE0163
:104D700061E070E040E00E947814882321F481E033
:104D80008093632B09C089819A8161EE4B8100E099
:104D900010E098010E942335DF91CF911F910F9170
:104DA00008956F927F928F929F92AF92BF92CF920F
:104DB000DF92EF92FF920F931F93DF93CF9300D078
:104DC0000F92CDB7DEB78091A32A8F3008F0F8C0DC
:104DD0008091E12A882321F48EE299E20E94AD15A8
:104DE0008091922A2091A22A8823A1F53091A32AAA
:104DF000A090B92AB090BA2AC090BB2AD090BC2A01
:104E0000222381F460EC73E080E090E004C0660F40
:104E1000771F881F991F3A95D2F722E330E040E0D0
:104E200050E00FC060EC73E080E090E004C0660FDB
:104E3000771F881F991F3A95D2F729E130E040E0AB
:104E400050E00E943E4F3B014C01C601B5010E945B
:104E50003E4F31C03091A32AA090B92AB090BA2A0F
:104E6000C090BB2AD090BC2A222381F460EC73E06E
:104E700080E090E004C0660F771F881F991F3A9565
:104E8000D2F728E230E040E050E0DBCF612CFCE3D9
:104E90007F2E812C912C04C0660C771C881C991CD9
:104EA0003A95D2F7C601B501E4E0660F771F881F77
:104EB000991FEA95D1F764015301A60EB71EC81ECB
:104EC000D91EA60CB71CC81CD91C85E0B601A501CB
:104ED00021E001ED16E2EE24FF240E94B00A8823AF
:104EE00081F7C601B50166197709880999093091DA
:104EF000922A2091A22A332371F4222329F422E357
:104F000030E040E050E004C029E130E040E050E013
:104F10000E947D4F10C0222329F428E230E040E0B7
:104F200050E0F6CF9B01AC0174E05695479537955C
:104F300027957A95D1F729833A834B835C8388E45C
:104F4000BE016F5F7F4F0E94603D8091922A209149
:104F5000A22A882339F4222361F484EC99E0A0E0AA
:104F6000B0E010C0222351F480ED97E0A0E0B0E063
:104F700009C082EE94E0A0E0B0E004C080E293E0DB
:104F8000A0E0B0E0A81AB90ACA0ADB0A86E0B601B6
:104F9000A50121E006E916E2EE24FF240E94B00AF2
:104FA000A60CB71CC81CD91C882381F78091E12A64
:104FB000882331F48091D92A882311F00E94A626F3
:104FC0002496CDBFDEBFCF91DF911F910F91FF904F
:104FD000EF90DF90CF90BF90AF909F908F907F9099
:104FE0006F900895DF93CF9300D00F92CDB7DEB7C7
:104FF00081E00E948C25CE0101960E943C0980919F
:10500000922A2091A22A882391F469817A818B8146
:105010009C81222329F422E330E040E050E004C0E8
:1050200029E130E040E050E00E947D4F14C06981EA
:105030007A818B819C81222329F428E230E040E0B0
:1050400050E0F2CF9B01AC01A4E05695479537950F
:105050002795AA95D1F780EC93E0A0E0B0E000900E
:10506000A32A04C0880F991FAA1FBB1F0A94D2F756
:1050700082179307A407B50728F4281B390B4A0B9E
:105080005B0B08C0281B390B4A0B5B0B21503040CF
:105090004040504F5F7029833A834B835C8388E4A0
:1050A000BE016F5F7F4F0E94603D80E090E00E94F4
:1050B000D1262496CDBFDEBFCF91DF9108958F9288
:1050C0009F92AF92BF92CF92DF92EF920F93DF93B6
:1050D000CF93CDB7DEB76697CDBFDEBF4C01DC0105
:1050E000ED91FC9181818983828193818A839B8365
:1050F00084818C8385818D8386818E8387818F8354
:10510000808588878185898782858A8783858B8743
:1051100084858C87858596858D879E8787858F87F3
:105120008089888B8189898B82898A8B83898B8B03
:1051300084898C8B85898D8B86898E8B268D378D86
:10514000A18CB28CC38CD48CCE010196BE01645F5D
:105150007F4F458D0789E08C0E942605C4010E947F
:10516000FD0E6696CDBFDEBFCF91DF910F91EF9020
:10517000DF90CF90BF90AF909F908F900895EF9267
:10518000FF92CF93DF93E82EE7017E01F92EE7012E
:10519000E881F98123813481458156818181628151
:1051A0000E94D204C7010E94FD0EDF91CF91FF90B3
:1051B000EF900895EF92FF92CF93DF93E82EE701EF
:1051C0007E01F92EE701E881F981818162810E94E7
:1051D000344FC7010E94FD0EDF91CF91FF90EF90F9
:1051E0000895EF92FF92CF93DF93E82EE7017E01BF
:1051F000F92EE701E881F9818181928163810E9422
:10520000354FC7010E94FD0EDF91CF91FF90EF90C7
:105210000895EF92FF920F93CF93DF93E82EE7016B
:105220007E01F92EE701E881F981218132814381F4
:105230005481658176818781908501850E9466040D
:10524000C7010E94FD0EDF91CF910F91FF90EF906B
:105250000895EF92FF920F93CF93DF93E82EE7012B
:105260007E01F92EE701E881F981BF016E5F7F4F72
:10527000208D318DE38CF48C81814789028D0E94D1
:10528000364FCE010E94FD0EDF91CF910F91FF901E
:10529000EF9008950F931F93DF93CF93CDB7DEB7B1
:1052A0006697CDBFDEBF8C01DC01ED91FC91818161
:1052B00092818A839B838381898384818C83858186
:1052C0008D8386818E8387818F8380858887818582
:1052D000898782858A8783858B87818192818D8763
:1052E0009E8784858C8785858F878685888B878533
:1052F000898B80898A8B81898B8B82898C8B83892E
:105300008D8B84898E8BCE010196BE01645F7F4FA9
:1053100045890E94B204C8010E94FD0E6696CDBF69
:10532000DEBFCF91DF911F910F9108950F931F93CF
:10533000DF93CF93CDB7DEB72B97CDBFDEBF8C0108
:10534000DC01ED91FC9182818983838194818A8340
:105350009B8385818C8386818D8387818E838085E5
:105360008F83818588878285898783858A878485DD
:105370008B878181BE016F5F7F4F0E94374FC801CD
:105380000E94FD0E2B96CDBFDEBFCF91DF911F9106
:105390000F910895EF92FF920F93CF93DF93E82E32
:1053A000E7017E01F92EE701E881F981218132814F
:1053B00043815481658176818781908501850E9432
:1053C000384FC7010E94FD0EDF91CF910F91FF90E2
:1053D000EF900895EF92FF92CF93DF93E82EE701CD
:1053E0007E01F92EE701E881F981AF014D5F5F4F42
:1053F000818162810E94394FC7010E94FD0EDF91B9
:10540000CF91FF90EF900895EF92FF92CF93DF93AB
:10541000E82EE7017E01F92EE701E881F98121817B
:1054200032814381548165817681878190850E9494
:105430003A4FC7010E94FD0EDF91CF91FF90EF9090
:105440000895EF92FF92CF93DF93E82EE7017E015C
:10545000F92EE701E881F98181810E943B4FC70164
:105460000E94FD0EDF91CF91FF90EF900895EF9293
:10547000FF92CF93DF93E82EE7017E01F92EE7013B
:10548000E881F98181810E94C503C7010E94FD0E58
:10549000DF91CF91FF90EF900895EF92FF92CF931D
:1054A000DF93E82EE7017E01F92EE701E881F9811B
:1054B00081810E943C4FC7010E94FD0EDF91CF9178
:1054C000FF90EF900895CF92DF92EF92FF920F93AB
:1054D0001F93CF93DF93E82EE7017E01F92EE701BA
:1054E000E881F981048115812681378189E0C82E00
:1054F000D12CCE0EDF1E818162814381E0840E9427
:105500001D04CE010E94FD0EDF91CF911F910F91DE
:10551000FF90EF90DF90CF900895EF92FF92CF939E
:10552000DF93E82EE7017E01F92EE701E881F9819A
:10553000818162810E94DE03C7010E94FD0EDF911E
:10554000CF91FF90EF900895EF92FF92CF93DF936A
:10555000E82EE7017E01F92EE701E881F9818181DA
:105560000E943204C7010E94FD0EDF91CF91FF908F
:10557000EF900895DC01ED91FC916281738181814E
:10558000448125810E943D4F08952091592B3091EF
:105590005A2B36FF1BC0882359F42091482B309199
:1055A000492B8091942A9091952A2817390759F010
:1055B0002091482B3091492B8091242B9091252BC1
:1055C0002817390719F48EEE0E94CE490895CF931B
:1055D000DF932091592B30915A2B36FFD9C0882365
:1055E00059F42091482B3091492B8091942A909125
:1055F000952A2817390761F02091482B3091492BC3
:105600008091242B9091252B2817390709F0C0C0D1
:1056100020914A2B30914B2B8091202B9091212B64
:105620002817390709F4B4C090914A2B80912F2B89
:10563000981759F590914B2B8091302B981729F59D
:1056400090914C2B8091312B9817F9F490914D2B20
:105650008091322B9817C9F490914E2B8091332B67
:10566000981799F490914F2B8091342B981769F4E7
:105670009091502B8091352B981739F49091512BA4
:105680008091362B981709F483C08AE90E94F60EA0
:10569000EC01009709F47CC08881998125E0FC0128
:1056A0002083C183D283DC01A956BF4F2C93FD0117
:1056B00038972091882A20832091892A218320915C
:1056C0008A2A228320918B2A238320918C2A248367
:1056D00020918D2A258320918E2A268320918F2A3E
:1056E0002783389720912F2B20832091302B2183E3
:1056F0002091312B22832091322B23832091332B35
:1057000024832091342B25832091352B26832091CF
:10571000362B2783FD0172972091942A3091952A88
:1057200020833183FD0173972091E52A20832F5F29
:105730002093E52AFD01759723E63CEC2083318315
:10574000569728E12C93FC01A387B4872091A32AC4
:105750002F3069F02091622B222329F42091E32A33
:10576000233029F407C0213029F0223019F062E0FB
:1057700070E002C063E070E041E00E94781488238A
:1057800021F481E08093632B03C0CE010E94FD0EC3
:10579000DF91CF9108958F929F92AF92BF92CF9257
:1057A000DF92EF92FF920F931F93DF93CF9300D07E
:1057B0000F92CDB7DEB78C01DC01AD90BC90D50166
:1057C0001B96ED91FC911C97808180933A2BE80FFA
:1057D000F11D81818093532B1B968D909C901C977B
:1057E000F4018181928147E35BE28093372B9093B0
:1057F000382B238120933B2BB4016C5F7F4FE92E24
:10580000E294E694E694E3E0EE22F92EF694F69420
:10581000F3E0FF2209F45EC0D40114962D913C916F
:10582000159720933D2B30933E2BF4013696BF2DD8
:10583000B23019F5DA011896FA01108611961C9209
:10584000119712961C92129713961C921397149606
:105850001C92149715961C92159716961C921697E3
:1058600017961C92D40116962D913C91179720877C
:105870003187F401389644E031C0BF2DB33069F56B
:105880009A01285F3F4FD4011696DC90DA011896F2
:10589000DC924181D90111964C9311974281129665
:1058A0004C931297438113964C931397448114960B
:1058B0004C931497458115964C93159746811696EF
:1058C0004C931697478117964C931797F4013E9681
:1058D0004AE004C0FB0140E001C042E0EE2009F4D0
:1058E00049C086FD08C0219131912093482B309307
:1058F000492B4E5F08C020913D2B30913E2B2093C9
:10590000482B3093492BBE2DB230C1F410924A2B54
:1059100010924B2B10924C2B10924D2B10924E2B21
:1059200010924F2B1092502B1092512B20813181CD
:1059300020934A2B30934B2B4E5F1CC02E2D2330CF
:10594000C9F4208120934A2B218120934B2B228163
:1059500020934C2B238120934D2B248120934E2B7D
:10596000258120934F2B26812093502B2781209334
:10597000512B485FD0903A2BABEFDA0ED41AD0926D
:10598000582BE092472BF0923C2B83FD0CC3FB017C
:10599000E40FF11D682F67706093392B633019F4A1
:1059A00020812093522BD50117962D913D914D9139
:1059B0005C911A972093542B3093552B4093562B80
:1059C0005093572B613009F449C0613020F06330A7
:1059D00009F0E9C253C0808191818093592B909343
:1059E0005A2B428140935B2B477011F04C5F01C0F2
:1059F00043E0DF01A40FB11D8C9180935C2B4F5FBE
:105A0000582F577090E08077907074E09595879547
:105A10007A95E1F7552311F4882389F09F01240F2B
:105A2000311D20935D2B30935E2B552311F0550FC4
:105A3000450F882321F0880F880F880F480F4D15D8
:105A400050F4D41AD0925F2BE40FF11DE093602B39
:105A5000F093612BACC210925F2BA9C2DD2059F0EC
:105A6000BD2DB63718F086E78093582BE093592B5D
:105A7000F0935A2B9CC21092582B99C22091522B12
:105A80002330C9F0243030F42130A9F0223009F05D
:105A90008AC207C0283008F48AC2283009F083C2BD
:105AA0000EC0818192818093592B90935A2B8381D0
:105AB00080935B2B7CC281818093592B78C221819A
:105AC00032812093592B30935A2B23813481209398
:105AD0005B2B30935C2B258120935D2B26813781B6
