:100000000C9430010C944F010C944F010C944F014F
:100010000C944F010C944F010C944F010C944F0120
:100020000C944F010C944F010C944F010C944F0110
:100030000C944F010C944F010C944F010C944F0100
:100040000C944F010C944F010C944F010C944F01F0
:100050000C944F010C944F010C944F010C944F01E0
:100060000C944F010C94E30B0C944F010C940F0C67
:100070000C944F010C944F010C944F010C944F01C0
:100080000C944F010C944F010C944F010C944F01B0
:100090000C944F010C944F010C944F010C944F01A0
:1000A0000C944F010C944F010C944F010C944F0190
:1000B0000C944F010C944F010C944F010C944F0180
:1000C0000C944F010C944F010C944F010C944F0170
:1000D0000C944F010C944F010C944F010C944F0160
:1000E0000C944F010C94240D0C942E0D0C941A0DAD
:1000F0000C94990C0C94C40C0C94380D0C946E0C4C
:100100000C94EF0C0C948C110C94B5110C944F01C1
:100110000C944F010C944F010C944C0D0C94420D17
:100120007707130A44061C09D0078F07130A130A1E
:10013000AC07130A130A34078407FF06A4077506E1
:10014000130A9D07A6099A07A6084F09C3066E6100
:100150006E00696E660003020201010000FFFEFDF1
:10016000FCFBF9F7F4EF00407A10F35A00A0724E4E
:1001700018090010A5D4E80000E87648170000E44C
:100180000B54020000CA9A3B000000E1F505000094
:1001900080969800000040420F000000A0860100F9
:1001A0000000102700000000E803000000006400C9
:1001B000000000000A000000000001000000000034
:1001C0002C76D888DC674F0823DFC1DFAE59E1B158
:1001D000B796E5E3E453C63AE651997696E8E6C267
:1001E0008426EB898C9B62ED407C6FFCEFBC9C9F6E
:1001F00040F2BAA56FA5F490055A2AF75C936B6C90
:10020000F9676DC11BFCE0E40D47FEF520E6B50083
:10021000D0ED902E0300943577050080841E0800F1
:1002200000204E0A000000C80C333333330F986EA1
:1002300012831141EF8D2114893BE65516CFFEE65E
:10024000DB18D1844B381BF77C1D901DA4BBE42424
:10025000203284725E228100C9F124ECA1E53D27A1
:1002600011241FBECFEFD1E4DEBFCDBF1CE0A0E064
:10027000B2E0ECE1FDE500E00BBF02C007900D929B
:10028000A435B107D9F715E1A4E5BCE001C01D9282
:10029000AB39B107E1F70E94210A0C948C2E0C9423
:1002A0000000CF92DF92EF92FF920F931F93809105
:1002B0002F0B9091300B029709F001C1E0900F0DC8
:1002C000F090100D0091110D1091120D80910B0DF9
:1002D00090910C0DA0910D0DB0910E0DE81AF90A38
:1002E0000A0B1B0B80E092E00E946F2CC801B70143
:1002F0000E94552320E034E244E759E40E94C721DC
:100300006B017C0100D000D000D088E192E0ADB755
:10031000BEB712969C938E931197EDB7FEB7C3822A
:10032000D482E582F6820E94562C00D000D0EDB730
:10033000FEB7319682E392E0ADB7BEB712969C93BA
:100340008E9311978091310B9091320BA091330BCA
:10035000B091340B82839383A483B5838091030D82
:100360009091040DA091050DB091060D86839783A1
:10037000A087B1870E94562CEDB7FEB73A960FB60C
:10038000F894FEBF0FBEEDBF8091350B882319F1A5
:1003900000D000D000D083E692E0ADB7BEB7129691
:1003A0009C938E9311978091FB0C9091FC0CA091E3
:1003B000FD0CB091FE0CEDB7FEB783839483A5834B
:1003C000B6830E94562C8DB79EB706960FB6F8944A
:1003D0009EBF0FBE8DBF8091360B882319F100D0D0
:1003E00000D000D08AE792E0ADB7BEB712969C93DA
:1003F0008E9311978091FF0C9091000DA091010DAB
:10040000B091020DEDB7FEB783839483A583B683C5
:100410000E94562C8DB79EB706960FB6F8949EBFD5
:100420000FBE8DBF00D000D000D00DB71EB70F5F3C
:100430001F4F8AE992E0ADB7BEB712969C938E9398
:1004400011976091310B7091320B8091330B909129
:10045000340B23E0660F771F881F991F2A95D1F769
:100460002091370B30E040E050E00E9473290E9459
:100470005523A70196010E94C72120E030E04AE7FA
:1004800054E40E94C721F8016283738384839583B7
:100490000E94562C0F900F900F900F9088EB92E0D7
:1004A000ADB7BEB712969C938E9311970E94562CAF
:1004B0000F900F9080E090E00E94040B48C082ED06
:1004C00092E00E946F2CE090F30CF090F40C0091FD
:1004D000F50C1091F60CE114F10401051105A1F0E1
:1004E0006091130D7091140D8091150D9091160D62
:1004F000A80197010E94B9292093130D3093140D80
:100500004093150D5093160DEDB7FEB738970FB603
:10051000F894FEBF0FBEEDBF31968BEE92E0ADB703
:10052000BEB712969C938E931197E282F382048356
:1005300015838091130D868317820E94562CEDB788
:10054000FEB738960FB6F894FEBF0FBEEDBF1F91F1
:100550000F91FF90EF90DF90CF900895FF920F934F
:100560001F93DF93CF930F92CDB7DEB7F82E80E0C5
:10057000BE016F5F7F4F0E94991700D000D000D05E
:100580000DB71EB70F5F1F4F8FE193E0EDB7FEB7BA
:10059000928381838981F801828313826F2D70E0B9
:1005A000882777FD8095982F0E94A3222DED3CEDA2
:1005B0004CE55EE30E94CD209B01AC0160E070E061
:1005C00084EB92E40E946F200E94F71EF80164837E
:1005D00015820E94562CF694F69400E08DB79EB7D3
:1005E00006960FB6F8949EBF0FBE8DBF05C088E576
:1005F00090E00E94682C0F5F0F15C8F388E293E02B
:100600000E946F2C8FEF89834091180D5091190D26
:1006100060911A0D70911B0D20E030E0DB01CA01E2
:10062000022E04C0B695A795979587950A94D2F7A0
:1006300081709070892BF1F0298381E090E0A0E037
:10064000B0E0022E04C0880F991FAA1FBB1F0A9496
:10065000D2F780959095A095B09584239523A623F5
:10066000B7238093180D9093190DA0931A0DB09392
:100670001B0D05C02F5F3F4F2B31310579F6898166
:100680008F3FB9F480E067E17DE00E94FA18109294
:10069000540C00D08AE293E0EDB7FEB792838183D9
:1006A0000E94562C0F900F9080E090E00E94040B67
:1006B0000AC080E0BE016F5F7F4F0E94FA188091F0
:1006C0001C0D0E9443170F90CF91DF911F910F9146
:1006D000FF9008958823A1F48091F70C9091F80C75
:1006E000A091F90CB091FA0C0196A11DB11D809357
:1006F000F70C9093F80CA093F90CB093FA0C3FC050
:10070000893EA1F48091FB0C9091FC0CA091FD0C12
:10071000B091FE0C0196A11DB11D8093FB0C90932E
:10072000FC0CA093FD0CB093FE0C29C0813EA1F4FB
:100730008091FF0C9091000DA091010DB091020DE0
:100740000196A11DB11D8093FF0C9093000DA09305
:10075000010DB093020D13C08091030D9091040D13
:10076000A091050DB091060D0196A11DB11D8093BC
:10077000030D9093040DA093050DB093060D809189
:10078000070D9091080DA091090DB0910A0D0197E8
:10079000A109B1098093070D9093080DA093090D4D
:1007A000B0930A0D0097A105B10549F48FE09DE0D3
:1007B0000E94210E88E00E94811C0E94510110922B
:1007C000550C0895AF92BF92CF92DF92FF920F9394
:1007D0001F93DF93CF9300D000D00F92CDB7DEB739
:1007E0008C018091F30C9091F40CA091F50CB091D8
:1007F000F60C0196A11DB11D8093F30C9093F40C9F
:10080000A093F50CB093F60CD8011796ED91FC91DE
:1008100018973081E30FF11D21818091130D909184
:10082000140DA091150DB091160D820F911DA11DF3
:10083000B11D8093130D9093140DA093150DB093DB
:10084000160D80912F0B9091300B039709F051C03A
:1008500000D000D0EDB7FEB7319682E593E0ADB79A
:10086000BEB712969C938E931197328313820E9487
:10087000562CFF240F900F900F900F906E0108944C
:10088000C11CD11C3EE5A32E33E0B32E24C000D002
:1008900000D000D04DB75EB74F5F5F4FEDB7FEB7EA
:1008A000D282C182FA01B382A282A20FB31F8C91BD
:1008B000848315820E94A42C0F900F900F900F90AC
:1008C000ADB7BEB71296DC92CE9211970E94562C0D
:1008D000F3940F900F90F801A781B0858C9190E070
:1008E0002F2D30E08217930794F688E293E00E9460
:1008F0006F2CD80111968D919C9112970E9427120E
:100900000F900F900F900F900F90CF91DF911F914C
:100910000F91FF90DF90CF90BF90AF900895CF934D
:10092000DF934091370B4B5088E990E0841B91098D
:100930002091F10C3091F20C280F391FF90180E061
:1009400002C081938F5F8417E0F3F90181E090E0AA
:10095000929382939293829332978DEC9BEA918348
:100960008083E90127970E946D2A88838091350B47
:10097000882319F081E698E802C081E498E89A9308
:100980008A93FE018091370B8293A091F10CB09174
:10099000F20C1896FC93EE931797DF91CF91089580
:1009A000DF92EF92FF920F931F93DF93CF93CDB718
:1009B000DEB764970FB6F894DEBF0FBECDBF88E2F6
:1009C00093E00E946F2C84E693E00E946F2C00D08D
:1009D0008CE993E0ADB7BEB712969C938E931197B6
:1009E0000E94562C8BEB93E0EDB7FEB79283818388
:1009F0000E94562C0F900F9089EC93E00E946F2C70
:100A000080E08E010F5F1F4FB8010E94991700D040
:100A100000D0EDB7FEB7319687ED93E0ADB7BEB726
:100A200012969C938E9311978981828313820E94E0
:100A3000562C0F900F908CEE93E0EDB7FEB792839B
:100A400081830E94562C0F900F9084E0B8010E9481
:100A500099178823B9F400D000D0EDB7FEB73196CE
:100A600080E094E0ADB7BEB712969C938E93119739
:100A70008981828313820E94562C0F900F900F90D1
:100A80000F9004C087E094E00E946F2C82E0BE01CA
:100A90006F5F7F4F0E949917898185FD03C0282FC2
:100AA0002F7304C0282F21952F71219500D000D0DD
:100AB00086E194E0EDB7FEB792838183822F992778
:100AC00087FD9095948383830E94562C00D080E309
:100AD00094E0ADB7BEB712969C938E931197809118
:100AE000310B9091320BA091330BB091340BEDB7D9
:100AF000FEB783839483A583B6830E94562C0F9000
:100B00000F90EDB7FEB7319684E594E0ADB7BEB770
:100B100012969C938E9311978091370B8283138248
:100B20000E94562C0F900F9085E794E0EDB7FEB72A
:100B3000928381830E94562C0F900F908091350BE9
:100B4000882319F08AE894E002C089E994E00E94C1
:100B50006F2C00D08BEA94E0ADB7BEB712969C9391
:100B60008E9311970E94562C0F900F908091380B06
:100B7000882319F088EC94E002C08EEC94E00E9487
:100B80006F2C00D085ED94E0EDB7FEB792838183A2
:100B90000E94562C0F900F908091360B882319F0ED
:100BA00088EC94E002C08EEC94E00E946F2C00D0A0
:100BB0008BEE94E0ADB7BEB712969C938E931197CF
:100BC0000E94562C0F900F9080912F0B9091300B1C
:100BD0008130910569F08130910530F082309105C6
:100BE00059F00397F1F410C000D08FE195E007C0F1
:100BF00000D083E295E00BC000D086E295E0EDB72F
:100C0000FEB79283818309C000D089E295E0ADB739
:100C1000BEB712969C938E9311970E94562C0F90FC
:100C20000F9088E293E00E946F2C8AE395E00E9487
:100C30006F2C8DE595E00E946F2C8FE895E00E9467
:100C40006F2C8AEC95E00E946F2C86E096E00E9463
:100C50006F2C8EE390E00E94682C80E090E00E9470
:100C6000040B90E00E949A2B90E0FC01E154F040CC
:100C7000E731F10508F0D7C3E057FF4FEE0FFF1F34
:100C80000590F491E02D0994DE011496E9E3FBE070
:100C900083E001900D928150E1F700D088E196E069
:100CA000EDB7FEB7928381830E94562C8E010C5FB4
:100CB0001F4F0F900F90F7E0EF2EF12CEC0EFD1E62
:100CC00080E090E00E94040B982F80538A3030F42B
:100CD000D8019D938D01AE15BF0591F7CE01049605
:100CE0000E949B2A6A8380E048C0DE011496ECE3F0
:100CF000FBE083E001900D928150E1F785E496E0FE
:100D00000E946F2C8FE696E00E946F2C87E796E09A
:100D10000E946F2C82E896E00E946F2C8FE896E08C
:100D20000E946F2C8CE996E00E946F2C00D089EB1A
:100D300096E0EDB7FEB7928381830E94562C8E0118
:100D40000C5F1F4F0F900F90E7E0EE2EF12CEC0E92
:100D5000FD1E80E090E00E94040B982F80538A30A3
:100D600030F4D8019D938D01AE15BF0591F7CE01EA
:100D700004960E947D2A8A8384E0BE016E5F7F4FC5
:100D80000E94FA1850C31F82188619861A8600D04E
:100D900084EF96E0EDB7FEB7928381830E94562CD4
:100DA0008E01095F1F4F0F900F907BE0E72EF12C13
:100DB000EC0EFD1E80E090E00E94040B982F805303
:100DC0008A3020F09D3211F09B3231F4D8019D938E
:100DD0008D01AE15BF0571F7CE0107960E947D2AE1
:100DE000803E14F480E208C0803214F08FE104C029
:100DF00087FF02C08F7180628A8382E0BECF8E013E
:100E0000055F1F4F8AE0F80111928A95E9F700D03B
:100E100089E397E0ADB7BEB712969C938E93119776
:100E20000E94562C0F900F9065E1E62EF12CEC0EEF
:100E3000FD1E80E090E00E94040B982F80538A30C2
:100E400030F4F80191938F01EE15FF0591F7CE0173
:100E50000B960E949B2A6093310B7093320B809308
:100E6000330B9093340BDFC21F82188619861A86C3
:100E700000D000D084E797E0ADB7BEB712969C9340
:100E80008E9311978BE090E014969C938E9313971A
:100E90000E94562C8E01095F1F4F0F900F900F90EC
:100EA0000F905BE0E52EF12CEC0EFD1E80E090E053
:100EB0000E94040B982F80538A3030F4F8019193EC
:100EC0008F01EE15FF0591F7CE0107960E947D2A4E
:100ED0008B30910510F48BE004C08038910520F030
:100EE0008FE78093370B0DC08093370B0AC080913A
:100EF000350B882319F01092350B03C081E08093E5
:100F0000350B0E948F048FC28091360B882319F015
:100F10001092360B88C281E08093360B84C2809198
:100F2000380B882319F01092380B7DC281E0809332
:100F3000380B79C282E090E002C081E090E09093AB
:100F4000300B80932F0B6FC21092300B10922F0B2F
:100F500088E00E94811C67C281E08A831092F30CB2
:100F60001092F40C1092F50C1092F60C1092130DD6
:100F70001092140D1092150D1092160D81E5BE0100
:100F80006E5F7F4F0E94FA18882309F04CC283E0FD
:100F900090E09093300B80932F0B8DEB97E049C13D
:100FA000DE011496EFE3FBE083E001900D928150A7
:100FB000E1F78CE08B8380E0BE016D5F7F4F41E005
:100FC0000E94450C84EF97E00E946F2C81E098E02E
:100FD0000E946F2C8EE398E00E946F2C00D089E66F
:100FE00098E0ADB7BEB712969C938E9311970E946E
:100FF000562C8E010C5F1F4FDD240F900F9047E0A1
:10100000E42EF12CEC0EFD1E80E090E00E94040B1B
:10101000982F80538A3040F4F80191938F01DD249A
:10102000D394EE15FF0581F7CE0104960E949B2A0A
:1010300060931C0DDD2011F0603190F08BE998E099
:101040000E946F2C00D08AE293E0ADB7BEB7129633
:101050009C938E9311970E94562C0F900F90DFC196
:1010600081E08093540C00D000D0EDB7FEB73196EC
:1010700084EB98E0ADB7BEB712969C938E93119710
:1010800080911C0D828313820E94562C0F900F902A
:101090000F900F9088EF98E00E946F2C80E067E13E
:1010A0007DE00E94991781E068E17DE00E94991738
:1010B0004091180D5091190D60911A0D70911B0DF2
:1010C00020E030E0E22FDB01CA01022E04C0B69519
:1010D000A795979587950A94D2F781709070892B80
:1010E00029F12A8321E030E040E050E004C0220FE3
:1010F000331F441F551FEA95D2F720953095409530
:1011000050958091180D9091190DA0911A0DB091E4
:101110001B0D82239323A423B5238093180D909352
:10112000190DA0931A0DB0931B0D05C02F5F3F4FF3
:101130002B31310539F680E0BE016E5F7F4F0E9492
:10114000FA1880911C0D0E9443176DC180E0BE010A
:101150006D5F7F4F0E94991700D08EE099E0EDB748
:10116000FEB7928381830E94562C0F900F9080E0EF
:1011700090E00E94040B90E00E949A2B833421F0AF
:10118000803509F054C018C000D000D0EDB7FEB7CC
:10119000319681E599E0ADB7BEB712969C938E93D8
:1011A00011978B81828313820E94562C0F900F908F
:1011B0000F900F9080E017C000D000D0EDB7FEB7C1
:1011C00031968FE899E0ADB7BEB712969C938E9397
:1011D00011978B81828313820E94562C0F900F905F
:1011E0000F900F9081E00E94A61D84E090E0909304
:1011F000300B80932F0B00D080EE99E0EDB7FEB757
:10120000928381830E94562C0F900F9080E090E093
:101210000E94040B0E94A21D81E19AE00E946F2CA3
:101220001092300B10922F0B0E94D004FCC085EC62
:1012300099E00E946F2CF7C084E090E09093300B0F
:1012400080932F0B80E0BE016E5F7F4F0E94991745
:1012500000D000D0EDB7FEB7319681E599E0ADB78B
:10126000BEB712969C938E9311978A8182831382C4
:101270000E94562C0F900F900F900F9080E00E94CC
:10128000A61D80E040E553EC60E070E020E030E037
:101290000EED1AE0EE24FF240E945010C4C00E94FC
:1012A000091E9C01BFEF8F3F9B0761F400D087E2CE
:1012B0009AE0EDB7FEB7928381830E94562C0F907F
:1012C0000F9026C000D000D000D0EDB7FEB7319609
:1012D0008CE59AE0ADB7BEB712969C938E931197AA
:1012E000C90168EE73E00E94922973836283C90189
:1012F00068EE73E00E949229958384830E94562CA5
:10130000EDB7FEB736960FB6F894FEBF0FBEEDBF31
:101310000E94E31C00D000D000D02FE73AE0ADB728
:10132000BEB712963C932E931197EDB7FEB7638329
:101330007483858396830E94562C8DB79EB706963C
:101340000FB6F8949EBF0FBE8DBF6DC080912F0B5E
:101350009091300B82309105D1F500D08AE99AE066
:10136000ADB7BEB712969C938E9311970E94562CE0
:101370008091310B9091320BA091330BB091340BD3
:101380008093070D9093080DA093090DB0930A0D5B
:101390001092FB0C1092FC0C1092FD0C1092FE0CA3
:1013A0001092FF0C1092000D1092010D1092020D80
:1013B0001092030D1092040D1092050D1092060D5F
:1013C0000F900F908BE09DE00E94210E2CC00197A2
:1013D00011F51092130D1092140D1092150D10921C
:1013E000160D1092F30C1092F40C1092F50C109252
:1013F000F60C81E08093560C86E00E94811C00D0A0
:101400008AEC9AE0EDB7FEB7928381830E94562C56
:101410000F900F9008C08FEF9AE00E946F2C80E031
:1014200090E00E94040B64960FB6F894DEBF0FBEE6
:10143000CDBFCF91DF911F910F91FF90EF90DF9083
:101440000895EF92FF920F931F93DF93CF9300D0F5
:101450000F92CDB7DEB70E94511B882311F00E9476
:10146000560D0E94CA110E94CC1180E090E060E00D
:1014700070E00E94D311789480E00E944E0C882383
:1014800011F00E94560D8DE19BE064E07BE00E942C
:10149000DE2B87E59CE09093F20C8093F10C81E0C9
:1014A00090E09B838A838E010E5F1F4F83E5B80116
:1014B0000E94FA188DEC9BEA9B838A8380E5B80131
:1014C0000E94FA1884E1898380E08E010F5F1F4F2C
:1014D000B8010E94FA180E948F0480E090E00E94F8
:1014E000040BEE24E394F02E012F0E94C40D0E9401
:1014F00009158091070D9091080DA091090DB091EB
:101500000A0D0097A105B10509F18091550C8823BA
:1015100061F7E092550CA091F10CB091F20C179686
:10152000ED91FC91189783818F5F83838091360BB7
:10153000882321F0CD0162E070E003C0CD0160E0BE
:1015400070E04091380B0E94AF16CFCF8091560CBF
:10155000882369F080E090E00E94EB0A8F5F9F4F44
:1015600021F21092560C88E00E94811C19C08091D3
:101570002F0B9091300B83309105A9F480E090E01F
:101580000E94EB0A8F5F9F4F09F4AFCF198281E56C
:101590006F2D702F0E94FA181092300B10922F0BA3
:1015A0000E945101A2CF049709F49FCF8091540C5F
:1015B000882309F09ACF0E94D00497CF0E94A21DE1
:1015C00081E19AE00E946F2C1092300B10922F0B49
:1015D0000E94D0040895DF93CF930F92CDB7DEB76A
:1015E00080E0BE016F5F7F4F41E00E943C0C813084
:1015F00019F02FEF3FEF03C08981282F30E0C90198
:101600000F90CF91DF9108950F931F93DF93CF93A6
:101610000F92CDB7DEB78E010F5F1F4F80E0B8018C
:1016200041E00E943C0C8823C9F3898190E00F902F
:10163000CF91DF911F910F9108950F931F93DF9327
:10164000CF930F92CDB7DEB789838E010F5F1F4F07
:1016500080E0B80141E00E94450C8823C9F380E096
:1016600090E00F90CF91DF911F910F9108959B0112
:10167000AC016050774F824C9F4FF2E0660F771FAE
:10168000881F991FFA95D1F7E3E0220F331F441FFB
:10169000551FEA95D1F70E94B92921503040309367
:1016A000C5002093C40082E08093C000E2ECF0E02B
:1016B00096E0908388ED8093C10090830895DC01CB
:1016C0008091C1008F7B8093C1002091551580913E
:1016D0005615821730F0275F922F981B892F2950BB
:1016E00005C02150922F981B892F2F5F482F681714
:1016F00008F4462F342F12C090915615E92FF0E0D0
:10170000EF5BFA4E8C918083993019F41092561544
:1017100003C09F5F9093561531501196332361F7A4
:1017200080915915882351F4E22FF0E0EF5BFA4ED7
:1017300080818093C60081E0809359158091C1001B
:1017400080648093C100842F0895DC0120915A1594
:10175000222311F480E008958091C1008F77809357
:10176000C1002A3058F080915815809357158AE0AF
:1017700080935A156A3020F02AE003C0261708F03B
:10178000262F322F17C0E0915715F0E0EF5BFA4E8D
:1017900082858C93909157159F5F909357158091F8
:1017A0005A15815080935A159A3011F4109257159A
:1017B00011963150332339F78091C10080688093AE
:1017C000C100822F08951F920F920FB60F920BB691
:1017D0000F9211248F939F93EF93FF93909158153D
:1017E00080915A158F5F80935A158091C600E92F1A
:1017F000F0E0EF5BFA4E8287993019F41092581599
:1018000003C09F5F90935815FF91EF919F918F9127
:101810000F900BBE0F900FBE0F901F9018951F9248
:101820000F920FB60F920BB60F9211248F93EF9376
:10183000FF9380915515893019F41092551503C006
:101840008F5F80935515E091551580915615E817D7
:1018500039F0F0E0EF5BFA4E80818093C60002C061
:1018600010925915FF91EF918F910F900BBE0F9031
:101870000FBE0F901F901895882311F080E00895F7
:10188000CB01642F0E94A50B0895882311F080E0FE
:101890000895CB01642F0E945F0B0895882311F0F7
:1018A00085E8089560E875E280E090E00E94370BDB
:1018B00080E0089590931E0D80931D0D08959093E0
:1018C000200D80931F0D08959093220D8093210D7C
:1018D00008959093240D8093230D08951F920F92E5
:1018E0000FB60F920BB60F9211242F933F934F9385
:1018F0005F936F937F938F939F93AF93BF93EF9378
:10190000FF93E0911D0DF0911E0D0995FF91EF9150
:10191000BF91AF919F918F917F916F915F914F9107
:101920003F912F910F900BBE0F900FBE0F901F9005
:1019300018951F920F920FB60F920BB60F921124AB
:101940002F933F934F935F936F937F938F939F93C7
:10195000AF93BF93EF93FF93E0911F0DF091200D94
:101960000995FF91EF91BF91AF919F918F917F91D9
:101970006F915F914F913F912F910F900BBE0F9000
:101980000FBE0F901F9018951F920F920FB60F92D7
:101990000BB60F9211242F933F934F935F936F9346
:1019A0007F938F939F93AF93BF93EF93FF93E091B8
:1019B000210DF091220D0995FF91EF91BF91AF910B
:1019C0009F918F917F916F915F914F913F912F9157
:1019D0000F900BBE0F900FBE0F901F9018951F9287
:1019E0000F920FB60F920BB60F9211242F933F93C5
:1019F0004F935F936F937F938F939F93AF93BF9317
:101A0000EF93FF93E091230DF091240D0995FF9141
:101A1000EF91BF91AF919F918F917F916F915F9166
:101A20004F913F912F910F900BBE0F900FBE0F90D3
:101A30001F9018951F920F920FB60F9211240F90BE
:101A40000FBE0F901F9018951F920F920FB60F9216
:101A500011240F900FBE0F901F9018951F920F9298
:101A60000FB60F9211240F900FBE0F901F90189574
:101A70001F920F920FB60F9211240F900FBE0F906E
:101A80001F9018951F920F920FB60F9211240F906E
:101A90000FBE0F901F9018951F920F920FB60F92C6
:101AA00011240F900FBE0F901F9018951EB88FEF46
:101AB0008DB98FEF9FEF0E94570E8EB180958EB932
:101AC000F8CFCF92DF92EF92FF920F931F93CF93B5
:101AD000DF937B018A016901892B11F088EE19C01F
:101AE000CA01860F971F8150904110F085E811C000
:101AF000C0E0D0E00AC0CE018E0D9F1D0E94332DA4
:101B0000F601EC0FFD1F80832196C017D10798F3D3
:101B100080E0DF91CF911F910F91FF90EF90DF90C8
:101B2000CF900895CF92DF92EF92FF920F931F9381
:101B3000CF93DF938C017B016A01CB01800F911F52
:101B40008150904110F085E816C0C0E0D0E00FC091
:101B5000C8010E94332DF601EC0FFD1F608186172E
:101B600019F0C8010E943B2D0F5F1F4F2196CE1523
:101B7000DF0570F380E0DF91CF911F910F91FF900F
:101B8000EF90DF90CF9008950E941A1008950E9460
:101B9000D60D0E94F70DA89588E10FB6F8948093B2
:101BA0006000109260000FBE80E008959FB7F89427
:101BB000E0E0F0E089E08093570084919FBF8F7050
:101BC000823011F090E001C09FE080E80FB6F894F9
:101BD00080936100909361000FBE80E18093350196
:101BE00080933401809333018093320108951092E1
:101BF000250D109264159FEF9093260D9093270D5D
:101C00009093280D909363151092601510925F15B4
:101C100080E28093B60088EA8093DC008FE08093B6
:101C2000F4009093F3009093F2009093F10082E01F
:101C30008093E000EFEDF0E0808182608083089582
:101C40000895FC018091DE0080FDFCCF2091E10031
:101C5000822F2091E200922F2091E300A22F209169
:101C6000E400B22F24E0880F991FAA1FBB1F2A95FA
:101C7000D1F780839183A283B3830895FC012091DF
:101C8000E900822F2091EA00922F2091EB00A22FF1
:101C90002091EC00B22F34E0880F991FAA1FBB1FC0
:101CA0003A95D1F780839183A283B3830895AC01E1
:101CB0008436910518F060E070E01EC07FB7F8949C
:101CC00061E01AC057FD02C09A0102C02FEF3FE742
:101CD000C901880F991F909581959F4F9093250179
:101CE00080932401FABBE0932101D09BFECF421BDD
:101CF000530B1092210102C0F1E0E2E041155105C1
:101D000009F761117FBF089520E090E0FC01B3E086
:101D1000EE0FFF1FBA95E1F7E80FF91FE55AFA4EEB
:101D200084819581892B09F021E0822F0895AF925B
:101D3000BF92CF92DF92EF92FF920F931F93809109
:101D4000260D90E0FC0113E0EE0FFF1F1A95E1F75E
:101D5000E80FF91FE55AFA4EA080B180C280D38007
:101D60008091250D882309F46BC0D092F800C092B1
:101D7000F700B092F600A092F5008091DF0080FDA0
:101D800008C081E08093E0008091DF008160809353
:101D9000DF002091E100822F2091E200922F20911C
:101DA000E300A22F2091E400B22F9C01AD012F5F30
:101DB0003F4F4F4F5F4FDA01C9018A259B25AC2564
:101DC000BD2580709070A070B87F0097A105B10507
:101DD00031F4A216B306C406D506C0F109C0D60177
:101DE000C501B7705770281739074A075B0770F1AC
:101DF00080915D01883068F5E090290DF0902A0D02
:101E000000912B0D10912C0D0894E11CF11C011D6B
:101E1000111DEA14FB040C051D05D9F48091E100A5
:101E2000282F8091E200382F8091E300482F809185
:101E3000E400582F2E153F054007510779F706C0DB
:101E40008091DF008E7F8093DF0003C081E080936C
:101E500064151F910F91FF90EF90DF90CF90BF908E
:101E6000AF9008951F931FB7F8948091641588234D
:101E700009F44CC0109264153091250D332309F4F8
:101E800045C08091270D8F3F59F48091280D8F3FD9
:101E900039F48091260D8093280D8093270D12C070
:101EA0002091260D8091280D90E0FC0153E0EE0F6B
:101EB000FF1F5A95E1F7E80FF91FE55AFA4E208700
:101EC0002093280D8091260D90E0FC0143E0EE0F59
:101ED000FF1F4A95E1F7E80FF91FE55AFA4E808592
:101EE0008093260D8091280D90E0FC0123E0EE0FF9
:101EF000FF1F2A95E1F7E80FF91FE55AFA4E8FEF19
:101F0000808731503093250D0E94970E1FBF1F917F
:101F100008950F931F93882311F08AE883C00FB7A9
:101F2000F8940E94320F1091250D112309F47DC001
:101F30004091260D242F842F312F2223F1F44423A6
:101F400039F4809163158093260D0E94970E0EC080
:101F500090E0FC01B3E0EE0FFF1FBA95E1F7E80F48
:101F6000F91FE55AFA4E8091631580878FEF8093B1
:101F7000631511501093250D4AC0822F90E0FC018B
:101F8000A3E0EE0FFF1FAA95E1F7E80FF91FE55A4E
:101F9000FA4E50853150822F09F447C0252FCDCFFE
:101FA000222319F52091280D332359F4222321F4FB
:101FB0008FEF8093280D02C0809163158093270DC9
:101FC00026C0842F90E0FC0173E0EE0FFF1F7A958E
:101FD000E1F7E80FF91FE55AFA4E80916315808703
:101FE0002223A9F44093280D12C0822F90E0FC0117
:101FF00063E0EE0FFF1F6A95E1F7E80FF91FE55A5E
:10200000FA4E422F20852F3F59F680E005C01092EE
:10201000601510925F1581E00FBF882311F489E8E5
:1020200001C080E01F910F9108953091270D232F5B
:10203000432FE9CF1F930E94320F1FEF25C06FB7C8
:10204000F894822F90E0FC0123E0EE0FFF1F2A9509
:10205000E1F7E80FF91FE55AFA4E208544815581D2
:1020600086819781108715821482178216822F3FEE
:1020700009F43FEF6FBF4115510551F03093280D22
:102080002093270DFA0109953091280D2091270DF5
:102090002F3FA9F63093280D2093270D1F91089507
:1020A0002F923F924F925F926F927F928F929F9268
:1020B000AF92BF92CF92DF92EF92FF920F931F9356
:1020C000CF93DF93E8011701882311F08AE8F4C069
:1020D0000115110509F4EDC080915F15909160150F
:1020E000892B11F088E8E8C014E07695679557953C
:1020F00047951A95D1F72115310529F02130310581
:1021000009F0D7C026C0DB01CA010897A109B109AF
:10211000885F9F4FAF4FB74008F0CDC02091E100DE
:10212000822F2091E200922F2091E300A22F209194
:10213000E400B22F7A018B01E80EF91E0A1F1B1F63
:102140008FEF9FEFAFEFBFE0E822F9220A231B23B6
:1021500020C02091E100822F2091E200922F209157
:10216000E300A22F2091E400B22F8A019B01081BFB
:10217000190B2A0B3B0BD901C801BF700897A109A5
:10218000B109885F9F4FAF4FB74008F094C07A0104
:102190008B014FB6F894BFEF8B2EBFEF9B2EBFEF96
:1021A000AB2EBFE0BB2E8E209F20A022B1220E942A
:1021B000320F7090260D2FEF721671F05090250D92
:1021C000C72CD72C66248FEF9FEFAFEFB7E0E82244
:1021D000F9220A231B234FC01092260D709263151B
:1021E0004EC09FEFD91609F441C06D2D70E0FB0180
:1021F000A3E0EE0FFF1FAA95E1F7E60FF71FE55AE0
:10220000FA4E2081318142815381D501C401822758
:102210009327A427B52780709070A070B87F00978F
:10222000A105B10539F4281539054A055B0508F4FF
:1022300056C007C05770E216F3060407150708F4E6
:102240004EC0D09263157D1419F41092260D17C05C
:102250008C2D90E0FC0153E0EE0FFF1F5A95E1F743
:10226000E80FF91FE55AFA4E108609C08FEFDC2CF3
:102270006394CD2CD82E651408F4B3CF3CC0809263
:102280005B1590925C15A0925D15B0925E15D0938F
:102290006015C0935F153092621520926115809190
:1022A000250D8F5F8093250D0E94970E4FBE80E015
:1022B00003C088EE01C08BE8DF91CF911F910F9191
:1022C000FF90EF90DF90CF90BF90AF909F908F9056
:1022D0007F906F905F904F903F902F900895FB01FB
:1022E00043E0EE0FFF1F4A95E1F7E60FF71FE55AAF
:1022F000FA4E8085BDCF8C2D90E0FC0133E0EE0FCF
:10230000FF1F3A95E1F7E80FF91FE55AFA4E1086DC
:102310008FEF80936315B3CF1F920F920FB60F927A
:1023200011242F933F938F939F938091E10090917D
:10233000E2002091E3003091E4008093290D909316
:102340002A0D20932B0D30932C0D8091250D882381
:1023500019F081E0809364159F918F913F912F91A7
:102360000F900FBE0F901F9018951F920F920FB6EF
:102370000F9211248F938FEF8093E4008093E300FA
:102380008093E2008093E1008F910F900FBE0F9039
:102390001F90189581E008958DB18C618DB98EB133
:1023A0008C618EB9089581309105B9F08130910525
:1023B00018F00297B9F524C06130710549F0613019
:1023C000710520F06230710569F504C072980895B6
:1023D000729A08958EB194E010C06130710549F091
:1023E0006130710520F062307105E1F404C073982A
:1023F0000895739A08958EB198E089278EB908954B
:102400006130710549F06130710520F0623071056D
:1024100049F404C074980895749A08958EB190E1B7
:1024200089278EB908956D9875980895892B19F0AC
:1024300021E030E00AC08CB1282F30E085E03695ED
:1024400027958A95E1F721703070C9010895BC0184
:10245000009721F083E395E10E945C12089583E3E5
:1024600095E160E070E00E94F11208950F931F93D0
:10247000CF93DF9383E395E10E945512CFEFD4E130
:102480000DE21DE01983088383E395E1BE010E94FC
:102490005C12249606561F4F85E1C333D80791F787
:1024A000DF91CF911F910F910895FC01118210824D
:1024B0001382128214820895CF93DF93DC01EB0123
:1024C0009FB7F89414968C911497882321F4119651
:1024D0007C936E9306C01296ED91FC9113977383D3
:1024E00062831396DC93CE9312971B821A82149602
:1024F0008C9114978F5F14968C939FBFDF91CF912F
:1025000008959F92AF92BF92CF92DF92EF92FF9287
:102510000F931F93CF93DF938C015B016A019FB6EA
:10252000F894DC0114968C91882319F4C0E0D0E073
:102530004AC0F801C081D18141155105B1F07E0139
:1025400011C0D60112966D917C911397ED91FC917B
:10255000888199810995882359F47E018A819B811C
:102560009C01E901209769F72EC0209761F17E0157
:10257000AB2849F5F801808191812A813B81C817F8
:10258000D90719F43183208305C0D70113963C93F2
:102590002E931297F80182819381C817D90711F4FD
:1025A000F382E282D80114968C911497815014968C
:1025B0008C9314978D919C911197892B21F41396EC
:1025C0001C921E9212979FBECE01DF91CF911F9158
:1025D0000F91FF90EF90DF90CF90BF90AF909F90C2
:1025E0000895AB0160E070E00E9481120895AB0194
:1025F00061E070E00E9481120895CF93DF93EC01B7
:102600000BC0CE0160E070E00E94F112009711F45F
:102610001C8205C00E9427128C81882391F7DF91CC
:10262000CF910895809141018F718830F1F481E05C
:1026300080934F0189E08093420180914F0180FD9A
:1026400014C08EE690E00E94570E80914F0180FDED
:102650000CC08EE690E00E94570E80914F0180FDE5
:1026600004C08EE690E00E94570E08951F93182F25
:10267000809186158F30D1F49FB7F894789480912B
:1026800039018D7F8093390180918F158823E1F383
:102690009FBF10928F1580914F018CE480934E0163
:1026A000183011F0133011F488E0AFC1809141016E
:1026B0008F7180938615183009F44BC0193050F48F
:1026C000143009F493C0163009F49BC0133009F09C
:1026D00097C155C01F3069F0103120F4193009F04E
:1026E0008FC163C0163109F4C2C0193109F088C125
:1026F00022C183E0809342010E946D2A80936D0184
:1027000080916E019770887F982B90936E018091D5
:102710004F0180E880934E0100000000000000009F
:1027200000000000000000000000000000000000A9
:102730000000000000000000809139018260809359
:10274000390183E290E00E94570E109386158FE0C6
:102750005EC1883009F454C11093420100000000AA
:102760000000000000000000000000000000000069
:1027700000000000000000000000000041C188309F
:1027800009F43EC110934201000000000000000067
:102790000000000000000000000000000000000039
:1027A00000000000000000002BC1883021F18930BA
:1027B00020F4863009F024C105C0863119F0893132
:1027C00009F01EC189E08093420100000000000072
:1027D00000000000000000000000000000000000F9
:1027E000000000000000000000000AC1883019F05D
:1027F000893021F405C10E94121302C110934201D5
:10280000FFC0893059F08A3020F4883009F0F8C0D0
:1028100019C0863119F0893109F0F2C086E0809341
:102820004201000000000000000000000000000065
:102830000000000000000000000000000000000098
:102840000000DEC00E94121310934201000000003D
:102850000000000000000000000000000000000078
:10286000000000000000000000000000C9C0883027
:10287000F9F0893020F4863009F0C2C02EC08930CA
:1028800019F0893109F0BCC086E180934201000053
:102890000000000000000000000000000000000038
:1028A0000000000000000000000000000000A8C0C0
:1028B0000E9412131093420100000000000000006B
:1028C0000000000000000000000000000000000008
:1028D000000000000000000093C089E080934201E6
:1028E00000000000000000000000000000000000E8
:1028F00000000000000000000000000000000000D8
:10290000809141018F7180938615893009F07FC0D5
:1029100010934201000000000000000000000000D1
:1029200000000000000000000000000000000000A7
:102930000000000065C0883009F44EC0893020F4E2
:10294000863009F05DC019C0893021F0863109F068
:1029500057C013C0109342010000000000000000A7
:102960000000000000000000000000000000000067
:10297000000000000000000043C089E08093420195
:102980000000000000000000000000000000000047
:102990000000000000000000000000000000000037
:1029A000809141018F7180938615893009F02FC085
:1029B00089E1809342010000000000000000000057
:1029C0000000000000000000000000000000000007
:1029D00000000000000014C00E9412131093420176
:1029E00000000000000000000000000000000000E7
:1029F00000000000000000000000000000000000D7
:102A0000809141018F718F31D9F3809386151F9189
:102A1000089580917615882311F18091901588236F
:102A2000F1F48091381590913915892B39F48AE9A0
:102A30000E942F1290933915809338158091381584
:102A400090913915892B59F0109276158091851542
:102A5000882311F086E001C086E10E943613809140
:102A60007B15882351F087E795E160E070E00E94D4
:102A7000F112009711F00E947A1580919015823022
:102A800019F0853031F403C00E94C81608950E94E1
:102A90001F170895982F80917015882319F56D33AD
:102AA00010F06CE303C0662309F461E092959695FB
:102AB000969593708FEF989FC0011124262F30E0D8
:102AC000AC01429FC001439F900D529F900D112475
:102AD00064EB70E00E949229CB016F3F710509F011
:102AE00038F408956D3320F4862F880F880F0895E9
:102AF0008FEF0895EF92FF920F931F93CF93DF9381
:102B00007C01FC01C081D181EF81F88580818093B7
:102B1000881590918515282F30E0992359F0890167
:102B20000F5F1F4F0E0F1F1FF801808161810E94F0
:102B30004A150AC089010F5F1F4F0E0F1F1FF801B2
:102B4000808161810E944A15F8018083FA82E982BE
:102B5000CE010E94E203DF91CF911F910F91FF9070
:102B6000EF900895CF92DF92EF92FF920F931F9311
:102B7000CF93DF93E0913815F0913915309709F430
:102B800051C0C081D18180918515882321F0809129
:102B9000460187FF47C0C0904701D0907B01D7FC1A
:102BA00041C082E0D80E0AE910E00D191109EEEFDC
:102BB000DE0E0C0F1D1FED2CFF2497012F5F3F4FE2
:102BC000C80160E871E0A9010E94AD2BF801D29222
:102BD000F887EF83EE0EFF1EF701C28280914C0151
:102BE0008F7780934C0180914C01806880934C01D9
:102BF000609138157091391587E795E10E945C1254
:102C00008AE90E942F129093391580933815892BE9
:102C100031F489E00E94361381E08093761580E4D8
:102C200080934F01DF91CF911F910F91FF90EF9013
:102C3000DF90CF9008951F93109190151130C9F433
:102C40008091420182958695877080933A1582E043
:102C5000809390158091381590913915892B31F416
:102C600089E00E9436131093761503C086E10E9416
:102C700036131F9108950F931F93CF93DF93EC01A9
:102C80008B01442349F090916C01809184158295C9
:102C9000807F9F70892B03C080916C018F7080931F
:102CA0006C010230110598F4442369F090916C0195
:102CB00080917C15880F8E70917F892B80936C0199
:102CC00010926F0117C080916C018E6011C08091CD
:102CD00080158295807F90918315892B80936F0159
:102CE00090916C0180917C15880F8E70917F892B5B
:102CF00080936C0189E10E9436138931D9F7013044
:102D0000110551F480918815833118F080E492E028
:102D100005C080E890E002C089E090E00E94570E74
:102D20001FB7F894809139018260809339018091B6
:102D300039018D7F80933901288130E02150304066
:102D400080E891E0BE01A9010E94AD2B81E0809353
:102D500090151FBFDF91CF911F910F910895FC0136
:102D600080919015882311F086E80895F0938215DC
:102D7000E09381158781908590938A1580938915BA
:102D8000009711F488EE08950E943B1680E00895A4
:102D90001092901580913A158330B1F0843028F468
:102DA000882331F08130E1F409C08530C9F412C0C4
:102DB000609181157091821580E017C06091811536
:102DC0007091821587E811C060918115709182150C
:102DD00081EE0BC0609181157091821589EE05C05E
:102DE000609181157091821585E80E946A030895AB
:102DF0009091470180913B15891710F490933B15F2
:102E000080913C1590913D15A0913E15B0913F15D4
:102E10000197A109B10980933C1590933D15A093AA
:102E20003E15B0933F150097A105B10521F08FEF36
:102E300080934701089585E08093901508958091CF
:102E400055018F77809355018CE480934E01109249
:102E5000901586E10E94361390913B15983320F02F
:102E60008FEF80933B150AC08FEF989FC00111240C
:102E700067E370E00E94922960933B1580913B15B7
:102E80000E94AE0208950F931F93082F8091901512
:102E9000882341F0809186158F3011F086E846C076
:102EA00081E844C08091550180688093550110E10C
:102EB00010934F0188EF96E10E94640C10934E012D
:102EC00086E00E943613863051F0809155018F774D
:102ED000809355018CE480934E0185E827C084E0FF
:102EE0008093901510923B1580EC93E0A0E0B0E049
:102EF00004C0880F991FAA1FBB1F0A95D2F78054E0
:102F00009C4FAF4FBF4F23E0B695A79597958795F8
:102F10002A95D1F780933C1590933D15A0933E15CB
:102F2000B0933F158FEF8093470180E01F910F9181
:102F30000895FB018B3009F491C08C30C0F48330CC
:102F400009F458C0843038F4813009F443C0823029
:102F500008F04DC03CC0853009F452C0853008F4FB
:102F60004CC0863009F456C08730D1F450C081354A
:102F700021F1823538F48F34C1F08035C8F48E34B5
:102F800079F410C0873509F448C0883518F48335C2
:102F900039F418C0893509F443C0803F09F444C0AE
:102FA00084EF089580917C153DC0809183153AC0CF
:102FB000809171159091721527C08091851580833D
:102FC00011824AC080917415909175151DC0809131
:102FD0007E1528C080918B1590918C15A0918D1530
:102FE000B0918E1580839183A283B38335C0809185
:102FF000651518C08091731515C08091701512C0A9
:1030000080916E1590916F159183808325C080917A
:103010007D1508C08091871505C08091801502C07C
:1030200080918415808318C080916615808380917B
:1030300067158183809168158283809169158383E8
:1030400080916A15848380916B15858380916C15BE
:10305000868380916D15878380E0089580917F1528
:10306000808380E00895282F85FD03C0982F9F73EB
:1030700004C0982F91959F719195E6E5F1E08491B8
:10308000891734F03F968491981714F0822F0CC062
:10309000803E3CF080323CF487FF06C08F71806236
:1030A00003C080E201C08FE18068089584E08093CE
:1030B0007C1523E0209383158FEF9FEF909372157B
:1030C0008093711590937515809374158BE08093A0
:1030D0007E151092701580E098EFAFEFB7E0809307
:1030E0008B1590938C15A0938D15B0938E158AE057
:1030F00091E090936F1580936E158AE08093871509
:1031000082E080937D1585E080938015209384155F
:1031100083E80E9433188093651581E080937315CE
:1031200010927F1510928515089585FD03C0982F84
:103130009F7304C0982F91959F719195E6E5F1E0FA
:1031400080E02491921724F029173CF481500895CF
:103150008F5F31968031A9F780E00895282F8AE0AB
:1031600091E090936F1580936E158AE08093871598
:1031700082E080937D152230A1F0233018F42223C1
:1031800039F004C0203191F0213111F180E008952F
:1031900080914C018C7F80934C01809157018B7FF3
:1031A0000EC080914C018C7F816004C080914C01E5
:1031B0008C7F826080934C01809157018460809362
:1031C000570180915501807F8093550181E00895DA
:1031D00080914C01836080934C0180915701846001
:1031E0008093570180915501807F816080935501C4
:1031F00081E00895FF920F931F93CF93DF93EB012C
:1032000090919015943009F42CC1813569F089357D
:1032100019F08E3439F504C088818093841525C156
:10322000888180937C1521C16881611161E0609380
:103230008515662389F00E94541C80913815909161
:103240003915892B39F489E00E94361381E0809387
:1032500076150BC186E084C088E00E943613109278
:10326000761503C1209186152F3011F481E8FEC038
:103270008B3009F4E8C08C3078F4823009F4A2C0B5
:10328000833020F4882309F441C015C0833009F449
:10329000AAC0843081F467C0833569F1843528F48D
:1032A0008F3459F0803539F41BC0873509F478C064
:1032B000803F09F4A5C084EFD9C08881809383152D
:1032C00020918015281710F42093831590916F0199
:1032D000809183158F70907F892B80936F01C5C07B
:1032E0008881998180937115909372158093620102
:1032F00090936301BAC088819981809374159093EB
:1033000075158093600190936101AFC0992309F016
:10331000A8C080E098EFAFEFB7E0088004C0B69592
:10332000A795979587950A94D2F781709070892B0D
:1033300009F499C0283031F088E00E9436138830B3
:10334000D9F726E1988190937E15809148019F716D
:10335000807E982B90934801283009F486C086E13E
:103360000E94361382C0992309F07BC0283011F4E3
:1033700018E006C088E00E9436138830D9F716E1BD
:10338000F8808F2D0E94AE18082F183019F086E1B2
:103390000E943613002309F466C0F092701565C0D0
:1033A00068816093801580918315681710F460938D
:1033B000831580916F016295607F8F70682B609399
:1033C0006F0153C08881809365150E9433188093E4
:1033D00065150E949518909145018F70907F892BFB
:1033E0008093450142C08881809373159091480174
:1033F0008295880F80769F79892B8093480135C00C
:103400008881809366158981809367158A8180936E
:1034100068158B81809369158C8180936A158D81E5
:1034200080936B158E8180936C158F8180936D15C1
:10343000E6E6F5E1A4E6B1E081918D9385E1EE3613
:10344000F807D1F712C0888180937F1590916E01A3
:10345000880F880F880F8870977F892B80936E0163
:1034600004C086E803C088EE01C080E0DF91CF9100
:103470001F910F91FF900895809171159091721591
:103480008093620190936301E6E6F5E1A4E6B1E082
:1034900081918D9385E1EE36F807D1F7809174150F
:1034A000909175158093600190936101909148010E
:1034B000809173158295880F80769F79892B8093F0
:1034C000480190916F01809183158F70907F892BB7
:1034D00080936F0190916E0180917F15880F880F06
:1034E000880F8870977F892B80936E0190916F0170
:1034F000809180158295807F9F70892B80936F01CA
:10350000809170150E94AE189091480180917E15AF
:103510008F71907E892B80934801809165150E9460
:103520009518909145018F70907F892B809345016C
:1035300080918515882319F086E00E94361308953E
:103540000F931F93CF93DF93082F809139018D7FC5
:103550008093390180EF90E00E94570E80913901ED
:103560008E7F8093390181E090E00E94570E809118
:10357000390181608093390110E084E690E00E9477
:10358000570E809141011A3011F485E84DC08F71BA
:10359000883011F01F5FF1CF8093861580916E0106
:1035A000806280936E0180914C01806880934C0111
:1035B0008CE480934E0186E00E94361310924E01F7
:1035C000C0E0D0E010E080914601CC0FDD1FCC0FB1
:1035D000DD1F90E08076907025E0969587952A957E
:1035E000E1F7C82BD92B1F5F183069F783E00E94E1
:1035F000361380914F0110934F0180E480934F0167
:1036000080E880934F018CE480934E01CE010E94AC
:10361000722A002311F00E9456180E943C1A109240
:1036200090151092761580E0DF91CF911F910F9148
:1036300008951F93182F0E94A01A882361F085E82F
:103640002EC087E795E160E070E00E94F1120097DC
:1036500011F00E94271280917B15882391F7812F0A
:103660000E94D51C88E080934F0180E480934F0135
:1036700084E080934F0180E880934F010E946D2A7F
:1036800080936D0180916E019770887F982B909345
:103690006E0180E00E94631C0E94541C80E01F9118
:1036A00008950F931F93CF93DF930E94C70D882334
:1036B00009F0CFC0809139018160809339018091F8
:1036C00039018D7F809339018CE791E00E94570E7C
:1036D000809139018E7F8093390181E090E00E94D2
:1036E000570E8091390181608093390110E084E6A2
:1036F00090E00E94570E809141011A3009F4A9C050
:103700008F71883011F01F5FF2CF80938615809102
:103710005C01833809F09DC0A2C0C6E6D5E10E94D5
:103720006D2A899385E1CE36D807C9F78091661551
:1037300030916715409168156091691570916A150F
:10374000F0916B15B0916C1550916D15082F0150CB
:1037500091E0081708F090E0832F815021E0831753
:1037600008F020E0192F180F91E0181708F090E0EA
:10377000292B842F815031E0841708F030E0A22FEC
:10378000A80F91E0A81708F090E0392B862F815000
:1037900021E0861708F020E0E32FE80F91E0E8171A
:1037A00008F090E0292B872F815031E0871708F02F
:1037B00030E0622F680F91E0681708F090E0392B35
:1037C0008F2F815021E08F1708F020E0432F480F02
:1037D00091E0481708F090E0292B8B2F815091E061
:1037E0008B1708F090E0322F380F21E0381708F0DF
:1037F00020E0922B5195591779F43F3F69F44F3FE0
:1038000059F46F3F49F4EF3F39F4AF3F29F41F3FBC
:1038100019F40E3F08F081CF8CE49CE10E945F0C0C
:1038200084E49CE10E945A0C80E49CE10E94690CB3
:103830000E9436128AE90E942F12909339158093C4
:10384000381587E795E10E9455120E94CC1C80E054
:1038500001C085E8DF91CF911F910F91089580E01D
:1038600090E060E070E048E050E026E635E10E943C
:10387000610D81E00E94A01A882309F457CFE9CF97
:1038800081E080938F1508951F931FB7F8940E94CD
:103890001B161FBF1F9108951F931FB7F8940E9416
:1038A000B2151FBF1F910895809186158F3011F0BA
:1038B00082E8089588E00E943613883011F085E888
:1038C000089580E00895882311F088EE089580918E
:1038D00086158F3011F481E8089580919015882322
:1038E00071F41092761588E00E9436138830D9F76B
:1038F0008FE00E9436138F3011F480E0089586E83F
:103900000895982F80919015882311F086E80895E6
:10391000983039F488E00E9436131092761588E0CA
:1039200008958091381590913915892B59F080911F
:103930008515882311F086E001C086E10E943613C8
:1039400086E0089581E08093761586E00895FB0176
:10395000882311F084EF089580914015808380E0E2
:103960000895FB01882311F084EF089580818093EE
:10397000401520915501992787FD9095865A9F4FB4
:1039800063E070E00E94A6296F5F6F70207F262B96
:103990002093550180E0089510924015E5E5F1E08F
:1039A0008081807F808380E00895882311F01092C9
:1039B000401590915501907F809140158F70982B04
:1039C0009093550108958F929F92AF92BF92CF929C
:1039D000DF92EF92FF920F931F93CF93DF9380E8D4
:1039E00080937A0088E080937B0089EC80937C0050
:1039F00085ED80937A0080917A0084FFFCCF0F2EB2
:103A0000F0E0EF2EF0E0FF2EF0E00F2FF0E01F2FA0
:103A1000F02DDD2495EDC92EC0927A0080917A00B8
:103A200084FFFCCF609178007091790080E090E095
:103A30000E9455239B01AC01C801B7010E94A02040
:103A40007B018C01D39480E1D81631F780917A0004
:103A50008F7780937A0010927B0088EC80937C00B3
:103A60000F2EF0E0AF2EF0E0BF2EF0E0CF2EF0E012
:103A7000DF2EF02D992485ED882EC0E0D4E08092D1
:103A80007A0080917A0084FFFCCF60917800709179
:103A9000790092E06030790778F0CE01861B970BB1
:103AA000BC0180E090E00E9455239B01AC01C6015F
:103AB000B5010E946F200AC080E090E00E9455236B
:103AC0009B01AC01C601B5010E94A0205B016C0105
:103AD000939490E1991699F680917A008F7780936C
:103AE0007A00C801B70120E030E040E85DE30E94C1
:103AF000CD207B018C01C601B50120E030E040E81B
:103B00005DE30E94CD209B01AC01C801B7010E947A
:103B10006F2027ED33EA40E95FE30E94CD2026E6DF
:103B200036E648E853E40E946F20DF91CF911F9161
:103B30000F91FF90EF90DF90CF90BF90AF909F904C
:103B40008F90089580E00E94191B0895EF92FF92D4
:103B50001F93DF93CF93CDB7DEB7C058D0400FB6D9
:103B6000F894DEBF0FBECDBF909144019F7D90932E
:103B7000440198E0909342019FE09093760193E096
:103B800090934C0197EA90934A01882351F481E085
:103B900089831A8289819A8190938101809380011F
:103BA00018C08FE7898311E07E010894E11CF11CA5
:103BB0000E946D2AF701E10FF11D80831F5F10380D
:103BC000B9F7A0E8B1E0F70180E801900D928150CB
:103BD000E1F784E580935C0186E480935C0189E0F1
:103BE0000E9436138091390182608093390180915F
:103BF00039018D7F80933901C058DF4F0FB6F8949B
:103C0000DEBF0FBECDBFCF91DF911F91FF90EF9030
:103C10000895FF920F931F93CF93DF93F090861533
:103C20008FE0F81619F488E00E94361310924E01C6
:103C3000809151018F7E80935101809151018F605D
:103C40008093510185E090E00E94570E80915101D0
:103C500085FD10C080915101807F8093510182E0E9
:103C600090E00E94570E8091510185FD5EC0C0E03A
:103C7000D0E041C0809151018061809351018091D9
:103C800051018F608093510185E090E00E94570EB2
:103C90008091510185FD02C001E048C0CFEFDFEF08
:103CA0002AC080915101912F9F70807F982B909313
:103CB000510182E090E00E94570E8091510185FDF4
:103CC00007C0112311F490E007C0912F915004C058
:103CD0001F5F103131F79FE0002339F08BE4989F8C
:103CE000E0011124CA50D64F06C082E3989FE0013C
:103CF0001124CC55D94F80914F0188E080934F011A
:103D000080E480934F0184E080934F018CE48093A2
:103D10004E018FE0F81611F40E943613CE01DF91A8
:103D2000CF911F910F91FF90089500E010E0B9CF5F
:103D30001F9386E00E9436138630D9F78091550193
:103D40008068809355018FEF8093470180E890E071
:103D50000E94570E80914F0184FFFCCF9091470144
:103D6000983310F01FEF09C08FEF989FC001112406
:103D700067E370E00E949229162F80914F01809195
:103D800055018F778093550188E00E943613812F6B
:103D90001F91089588E00E9436138830D9F78091EA
:103DA000550180688093550186E00E943613863065
:103DB000D9F78091480180688093480180E990E0BC
:103DC0000E94570E8091410187FFFCCF88E00E943E
:103DD00036138091410186FD02C090E001C094E05D
:103DE000809155018F7780935501892F0895EF9227
:103DF000FF920F931F937B018C0120E030E040E0A5
:103E00005FE40E94732288238CF0C801B70120E090
:103E100030E040E05FE40E946F200E9401239B019C
:103E2000AC01205030404040504806C0C801B701A6
:103E30000E9401239B01AC01B901CA011F910F919E
:103E4000FF90EF900895A0E0B0E0E9E2FFE10C946C
:103E5000DB29DC012B01FA019C91923008F439C175
:103E6000EB018881823008F433C1943069F48430E6
:103E700009F02FC111969C9111978981981709F427
:103E800028C1A2E4BBE025C1843009F421C18230FD
:103E9000A9F4923009F01DC19A01AD0188E0EA0150
:103EA0000990AE01E90109929E018150C1F7E2013A
:103EB000898111969C918923818308C1923009F4EC
:103EC00007C112962D903C901397EB018A819B813C
:103ED0001496AD90BD90CD90DC901797EC80FD804E
:103EE0000E811F819101281B390BB90137FF04C0D6
:103EF00066277727621B730B603271050CF061C077
:103F0000121613066CF537014801062E04C096946C
:103F10008794779467940A94D2F721E030E040E0E8
:103F200050E004C0220F331F441F551F6A95D2F77B
:103F300021503040404050402E213F21402351230A
:103F4000211531054105510521F021E030E040E027
:103F500050E079018A01E628F728082919293CC090
:103F6000232BD1F1260E371E35014601062E04C043
:103F700096948794779467940A94D2F721E030E07E
:103F800040E050E004C0220F331F441F551F6A95C4
:103F9000D2F721503040404050402A213B214C2153
:103FA0005D21211531054105510521F021E030E069
:103FB00040E050E059016A01A628B728C828D9284E
:103FC0000BC0821593052CF01C01AA24BB246501AB
:103FD00003C0EE24FF24870111969C91D201119613
:103FE0008C91981709F445C0992339F0A8019701DD
:103FF0002A193B094C095D0906C0A60195012E1935
:104000003F09400B510B57FD08C0118233822282B9
:1040100024833583468357831DC081E081833382A7
:10402000228288279927DC01821B930BA40BB50BF6
:1040300084839583A683B7830DC0220F331F441F4B
:10404000551F24833583468357838281938101974B
:10405000938382832481358146815781DA01C901A6
:104060000197A109B1098F5F9F4FAF4FBF4328F35D
:104070000BC0918333822282EA0CFB1C0C1D1D1D98
:10408000E482F5820683178383E08083248135816F
:104090004681578157FF1AC0C901AA2797FDA095ED
:1040A000BA2F81709070A070B07056954795379573
:1040B0002795822B932BA42BB52B84839583A683E2
:1040C000B78382819381019693838283DF0101C04C
:1040D000D201CD01CDB7DEB7E2E10C94F729A0E221
:1040E000B0E0E5E7F0E20C94E72969837A838B83FB
:1040F0009C832D833E834F835887E9E0EE2EF12C7D
:10410000EC0EFD1ECE010196B7010E94F2248E0135
:104110000F5E1F4FCE010596B8010E94F2248A89D6
:1041200091E089278A8BC701B801AE01475E5F4FD6
:104130000E94231F0E941D24A096E6E00C94032AEF
:10414000A0E2B0E0E6EAF0E20C94E72969837A8322
:104150008B839C832D833E834F835887F9E0EF2E1A
:10416000F12CEC0EFD1ECE010196B7010E94F22447
:104170008E010F5E1F4FCE010596B8010E94F224FA
:10418000C701B801AE01475E5F4F0E94231F0E9426
:104190001D24A096E6E00C94032AA0E2B0E0E3ED33
:1041A000F0E20C94DB2969837A838B839C832D83D3
:1041B0003E834F835887CE010196BE01675F7F4FD4
:1041C0000E94F224CE010596BE016F5E7F4F0E94D1
:1041D000F2249985923088F089898230C8F0943031
:1041E00019F4823051F404C0843029F4923081F4FF
:1041F00082E49BE0C6C0923049F420E09A858A8927
:10420000981321E02A87CE010996BBC0823049F479
:1042100020E09A858A89981321E02A8BCE01419665
:10422000B0C02D843E844F8458886D887E888F88E6
:10423000988CEE24FF248701AA24BB24650140E06A
:1042400050E060E070E0E0E0F0E0C101817090706B
:10425000892BE9F0E60CF71C081D191D9A01AB012A
:104260002A0D3B1D4C1D5D1D80E090E0A0E0B0E0FC
:10427000E614F7040805190520F481E090E0A0E0B9
:10428000B0E0BA01A901480F591F6A1F7B1FAA0C91
:10429000BB1CCC1CDD1C97FE08C081E090E0A0E0B8
:1042A000B0E0A82AB92ACA2ADB2A3196E032F10501
:1042B00049F0660C771C881C991C569447943794D7
:1042C0002794C3CFFA85EA892B893C898B859C8505
:1042D000280F391F2E5F3F4F17C0CA0181709070A1
:1042E000892B61F016950795F794E79480E090E0AC
:1042F000A0E0B0E8E82AF92A0A2B1B2B76956795EF
:10430000579547952F5F3F4F77FDE7CF0CC0440F80
:10431000551F661F771F17FD4160EE0CFF1C001F25
:10432000111F21503040403090E0590790E069075C
:1043300090E4790760F32B8F3C8FDB01CA018F7704
:104340009070A070B07080349105A105B10561F442
:1043500047FD0AC0E114F1040105110529F0405C94
:104360005F4F6F4F7F4F40781A8EFE1711F081E03C
:104370008A8F4D8F5E8F6F8F78A383E0898FCE01F8
:1043800049960E941D24A096E2E10C94F729A8E129
:10439000B0E0EDECF1E20C94E32969837A838B833E
:1043A0009C832D833E834F835887B9E0EB2EF12CFD
:1043B000EC0EFD1ECE010196B7010E94F2248E0183
:1043C0000F5E1F4FCE010596B8010E94F224298589
:1043D000223008F47EC03989323010F4B8017CC034
:1043E0008A859A8989278A87243011F0223031F40E
:1043F000231709F06EC062E47BE06EC0343039F4FC
:104400001D861E861F86188A1C861B8604C03230B5
:1044100021F484E08987B7015FC02B853C858B89B7
:104420009C89281B390B3C872B87ED84FE840F85E4
:104430001889AD88BE88CF88D88CEA14FB040C0597
:104440001D0540F4EE0CFF1C001F111F21503040D1
:104450003C872B8720E030E040E050E080E090E0B7
:10446000A0E0B0E460E070E0EA14FB040C051D0578
:1044700040F0282B392B4A2B5B2BEA18FB080C0940
:104480001D09B695A79597958795EE0CFF1C001F03
:10449000111F6F5F7F4F6F31710531F7DA01C9016D
:1044A0008F779070A070B07080349105A105B10530
:1044B00061F427FD0AC0E114F1040105110529F09A
:1044C000205C3F4F4F4F5F4F20782D873E874F87AF
:1044D000588BBE01675F7F4FCB010E941D246896F9
:1044E000EAE00C94FF29A8E1B0E0E9E7F2E20C94DD
:1044F000E72969837A838B839C832D833E834F8353
:10450000588789E0E82EF12CEC0EFD1ECE010196B5
:10451000B7010E94F2248E010F5E1F4FCE01059657
:10452000B8010E94F2248985823040F08989823066
:1045300028F0C701B8010E946A2501C08FEF689674
:10454000E6E00C94032AA8E0B0E0E9EAF2E20C9479
:10455000E4299B01AC0183E08983DA01C901882742
:10456000B7FD83959927AA27BB27B82E21153105BA
:104570004105510519F482E089833AC08823A9F0E6
:10458000203080E0380780E0480780E8580729F4A9
:1045900060E070E080E09FEC30C0EE24FF248701F3
:1045A000E21AF30A040B150B02C079018A018EE1AD
:1045B000C82ED12CDC82CB82ED82FE820F8318873D
:1045C000C801B7010E94CE2301971816190684F47A
:1045D000082E04C0EE0CFF1C001F111F0A94D2F716
:1045E000ED82FE820F831887C81AD90ADC82CB823B
:1045F000BA82CE0101960E941D242896E9E00C940F
:10460000002AACE0B0E0E7E0F3E20C94EB29698328
:104610007A838B839C83CE010196BE016B5F7F4FB3
:104620000E94F2248D81823061F1823050F1843019
:1046300021F48E81882351F12EC02F81388537FDDA
:1046400020C06E812F3131051CF06623F9F023C0A4
:104650008EE190E0821B930B29853A854B855C8522
:1046600004C056954795379527958A95D2F76623C6
:10467000B1F050954095309521953F4F4F4F5F4F8A
:104680000EC020E030E040E050E009C02FEF3FEFE7
:104690004FEF5FE704C020E030E040E050E8B901B0
:1046A000CA012C96E2E00C94072AA8E0B0E0EBE502
:1046B000F3E20C94E3297B018C01611571058105FE
:1046C000910519F482E0898360C083E089838EE1DB
:1046D000C82ED12CDC82CB82ED82FE820F8318871C
:1046E000C801B7010E94CE23FC013197F7FF3BC000
:1046F000222733272E1B3F0B57016801022E04C0CF
:10470000D694C794B794A7940A94D2F740E050E0A7
:1047100060E070E081E090E0A0E0B0E004C0880FCD
:10472000991FAA1FBB1F2A95D2F70197A109B109AA
:104730008E219F21A023B1230097A105B10521F06F
:1047400041E050E060E070E04A295B296C297D2956
:104750004D835E836F8378878EE190E08E1B9F0B85
:104760009C838B8312C0309781F00E2E04C0EE0C18
:10477000FF1C001F111F0A94D2F7ED82FE820F83E7
:104780001887CE1ADF0ADC82CB821A82CE0101960C
:104790000E941D242896EAE00C94FF29EF92FF92D4
:1047A0000F931F937B018C0180E0E81680E0F806F0
:1047B00081E0080780E0180788F48FEFE816F1041D
:1047C0000105110531F028F088E090E0A0E0B0E0AC
:1047D00017C080E090E0A0E0B0E012C080E0E816F2
:1047E00080E0F80680E0080781E0180728F088E1FB
:1047F00090E0A0E0B0E004C080E190E0A0E0B0E094
:1048000020E230E040E050E0281B390B4A0B5B0B04
:1048100004C016950795F794E7948A95D2F7F701A7
:10482000E65BF44F8081281B310941095109C90118
:104830001F910F91FF90EF900895DF92EF92FF92FA
:104840000F931F93FC01E480F58006811781D180CE
:104850008081823048F480E090E0A0E1B0E0E82A76
:10486000F92A0A2B1B2BA5C0843009F49FC0823083
:1048700021F4EE24FF24870105C0E114F1040105B1
:10488000110519F4E0E0F0E096C0628173819FEFBA
:10489000623879070CF05BC022E83FEF261B370B2C
:1048A0002A3131052CF020E030E040E050E02AC011
:1048B000B801A701022E04C07695679557954795D4
:1048C0000A94D2F781E090E0A0E0B0E004C0880F45
:1048D000991FAA1FBB1F2A95D2F70197A109B109F9
:1048E0008E219F21A023B1230097A105B10521F0BE
:1048F00081E090E0A0E0B0E09A01AB01282B392BD9
:104900004A2B5B2BDA01C9018F779070A070B070D1
:1049100080349105A105B10539F427FF09C0205C59
:104920003F4F4F4F5F4F04C0215C3F4F4F4F5F4F92
:10493000E0E0F0E02030A0E03A07A0E04A07A0E481
:104940005A0710F0E1E0F0E079018A0127C06038F1
:10495000710564F5FB01E158FF4FD801C7018F775E
:104960009070A070B07080349105A105B10539F444
:10497000E7FE0DC080E490E0A0E0B0E004C08FE36B
:1049800090E0A0E0B0E0E80EF91E0A1F1B1F17FF21
:1049900005C016950795F794E794319687E016952C
:1049A0000795F794E7948A95D1F705C0EE24FF2484
:1049B0008701EFEFF0E06E2F679566276795902FE0
:1049C0009F77D794DD24D7948E2F8695492F462B39
:1049D000582F5D29B701CA011F910F91FF90EF90E9
:1049E000DF900895FC01DB01408151812281622F1B
:1049F0006F7770E0221F2227221F9381892F880F53
:104A0000822B282F30E0991F9927991F11969C938C
:104A1000119721153105A9F541155105610571055C
:104A200011F482E037C082E89FEF13969C938E9337
:104A300012979A01AB0167E0220F331F441F551FE5
:104A40006A95D1F783E08C930DC0220F331F441F6A
:104A5000551F12968D919C911397019713969C93D5
:104A60008E931297203080E0380780E0480780E47A
:104A7000580758F314962D933D934D935C931797D5
:104A800008952F3F310579F44115510561057105F0
:104A900019F484E08C93089564FF03C081E08C9343
:104AA00012C01C9210C02F57304013963C932E9387
:104AB000129783E08C9387E0440F551F661F771F82
:104AC0008A95D1F7706414964D935D936D937C93A2
:104AD000179708951F93DC01FB019C91923008F415
:104AE00047C08081823008F443C0943051F411965D
:104AF0001C91843099F58181682F70E0611B7109E8
:104B00003FC0843021F0923031F48230B9F181819C
:104B1000882389F12DC011961C9111978230F1F0F4
:104B200081811817D9F412962D913C9113978281A7
:104B300093818217930794F028173907BCF01496D5
:104B40008D919D910D90BC91A02D24813581468140
:104B50005781281739074A075B0718F4112341F0DA
:104B60000AC082179307A407B50740F4112319F070
:104B700061E070E005C06FEF7FEF02C060E070E0C1
:104B8000CB011F9108952F923F924F925F926F92A7
:104B90007F928F929F92AF92BF92CF92DF92EF92CD
:104BA000FF920F931F93DF93CF93CDB7DEB761973B
:104BB0000FB6F894DEBF0FBECDBF3C017F876E8776
:104BC0006A01FC0117821682838181FD03C06FEFA9
:104BD0007FEF6FC39E012F5F3F4F398B288BF3010F
:104BE0002381EE85FF8523FD859123FF8191FF873A
:104BF000EE87882309F45AC3853251F4EE85FF8588
:104C000023FD859123FF8191FF87EE87853229F46B
:104C100090E0B3010E942A2CE2CF982F10E0882464
:104C200099241032B0F49B3269F09C3228F490320F
:104C300051F0933271F40BC09D3239F0903349F446
:104C4000116028C01260146025C0186023C0106174
:104C500021C017FD2AC0892F80538A3078F416FFAF
:104C600006C0FAE09F9E902C1124980E13C03AE0E3
:104C7000839E802C1124880E10620CC09E3221F479
:104C800016FD14C3106406C09C3611F4106802C0EF
:104C9000983659F4EE85FF8523FD959123FF919178
:104CA000FF87EE87992309F0BCCF892F8554833085
:104CB00020F4812F8061905E07C0892F8556833054
:104CC00008F09FC1812F8F7E86FD02C076E0972E6F
:104CD0006FE3F62EF822953619F4F0E4FF2A07C0A8
:104CE000963619F420E8F22A02C091109A94F7FE41
:104CF0000AC03BE3391518F45CE3B52E02C0B92CA9
:104D0000B39427E009C047E0491520F4BB2447E0ED
:104D1000942EF7CF292DBB24C60104969D878C873E
:104D2000F6016081718182819381AE014F5F5F4F97
:104D30000B2D0E94C22A6C010981202E332400FF12
:104D400004C003FD02C01DE209C0F1FE02C01BE267
:104D500005C0F2FC02C010E001C010E2C1018C707D
:104D60009070892BB9F1112311F483E001C084E024
:104D7000881510F088240AC0881AF3FC07C080E266
:104D800090E0B3010E942A2C8A94C9F7112329F0DC
:104D9000812F90E0B3010E942A2C23FE03C00EE471
:104DA00011E00EC002E511E00BC0E114F10409F0BE
:104DB000805290E0B3010E942A2C0F5F1F4F05C064
:104DC000EF2CFF24F0E1EF22FF24F80184918823E7
:104DD00061F714C1F7FE12C0BC0C24FE04C08A8126
:104DE000813309F4BA941B141CF0BB24B3942DC076
:104DF000F8E0FB1550F538E0B32E27C0F6FC25C0CF
:104E0000892D90E08C159D054CF02CEFC2162FEFEC
:104E1000D20624F030E8F32A01C09A94992049F090
:104E2000E2E0F0E0EC0FFD1FE90DF11D8081803321
:104E3000A1F3F7FE0AC0B92CB394892D90E0C816EF
:104E4000D90614F0992401C09C18F7FC03C025E092
:104E500030E009C01C141D041CF021E030E003C048
:104E600096012F5F3F4F112311F02F5F3F4F992085
:104E700029F0892D90E00196280F391F882D90E0A8
:104E80002817390714F0882401C0821A4F2C5524A2
:104E9000C20189709070892B39F008C080E290E0DF
:104EA000B3010E942A2C8A948820C1F7112329F08B
:104EB000812F90E0B3010E942A2C43FE07C008C056
:104EC00080E390E0B3010E942A2C8A948820C1F7E5
:104ED000F7FE46C08601D7FE02C000E010E0760172
:104EE0000894E11CF11CE01AF10A41E050E04C0F7B
:104EF0005D1FE40EF51E26014B185108892D90E028
:104F0000AA24BB24A81AB90A5FEF0F3F150729F49A
:104F10008EE290E0B3010E942A2CC016D10634F034
:104F2000401651061CF4F701808101C080E3015056
:104F300010400894E11CF11C0A151B052CF090E0B0
:104F4000B3010E942A2CE0CF0C151D0539F49A817B
:104F5000963318F4953311F424FE81E390E04BC0AE
:104F60008A81813309F00F7E90E0B3010E942A2CE0
:104F70009920A1F08EE290E0B3010E942A2C12E069
:104F8000E1E0F0E0EC0FFD1FE10FF11D1F5F8081FC
:104F900090E0B3010E942A2C9A9491F744FC03C03C
:104FA00085E690E002C085E490E0B3010E942A2CDF
:104FB000D7FC05C0C114D10441F404FF06C0D0944D
:104FC000C194D108D3948DE201C08BE290E0B3018B
:104FD0000E942A2C80E305C08F5F26EF3FEFC20EB0
:104FE000D31E3AE0C316D104BCF790E0B3010E948F
:104FF0002A2CC601C096B3010E942A2CCC84DD84E1
:1050000052C1933631F0933799F0933509F059C076
:1050100023C0F601808189835E010894A11CB11C24
:1050200022E030E0C20ED31E21E0E22EF12C12C0AD
:10503000F601A080B18016FD03C06FEF7FEF02C0C4
:10504000692D70E022E030E0C20ED31EC5010E943F
:10505000B62B7C011F7713C0F601A080B18016FD2E
:1050600003C06FEF7FEF02C0692D70E022E030E0F7
:10507000C20ED31EC5010E94A22B7C01106813FF33
:1050800007C01BC080E290E0B3010E942A2C8A94E2
:10509000882D90E0E816F906A8F30FC0F50117FD7A
:1050A000859117FF81915F0190E0B3010E942A2C46
:1050B00081108A940894E108F108E114F10471F771
:1050C000F2C0943611F0993689F517FF08C0F60141
:1050D000208131814281538184E090E00AC0F60151
:1050E000808191819C01442737FD4095542F82E0B7
:1050F00090E0C80ED91E9FE6F92EF12257FF09C095
:1051000050954095309521953F4F4F4F5F4F90E818
:10511000F92ACA01B901AE014F5F5F4F2AE030E0C2
:105120000E94D52CE82EE889EE1A41C0953721F46B
:105130001F7E2AE030E01CC0197F9F3661F0903757
:1051400020F4983509F0B2C00FC0903739F0983785
:1051500009F0ACC004C028E030E00AC0106114FDC2
:10516000146020E130E004C014FD166020E132E05C
:1051700017FF08C0F601608171818281938144E04C
:1051800050E008C0F60180819181BC0180E090E090
:1051900042E050E0C40ED51EAE014F5F5F4F0E944B
:1051A000D52CE82E5889E51A8FE7F82EF122F6FE65
:1051B0000BC08EEFF822E91438F4F4FE07C0F2FCBD
:1051C00005C09FEEF92202C01E2D01C0192DF4FE6C
:1051D0000DC0FE01EE0DF11D8081803319F4E9EE62
:1051E000FE2208C01F5FF2FE05C003C08F2D867827
:1051F00009F01F5F0F2DF3FC14C0F0FE0FC018154F
:1052000010F09E2C0BC09E2C980C911A182D06C0E5
:1052100080E290E0B3010E942A2C1F5F1815C0F3B2
:1052200004C0181510F4811A01C0882404FF0FC0AF
:1052300080E390E0B3010E942A2C02FF1DC001FD13
:1052400003C088E790E00EC088E590E00BC0802F97
:10525000867891F001FF02C08BE201C080E2F7FC8A
:105260008DE290E0B3010E942A2C06C080E390E01A
:10527000B3010E942A2C9A94E914C0F3EA94E1E065
:10528000F0E0EC0FFD1FEE0DF11D808190E0B30109
:105290000E942A2CEE2091F706C080E290E0B30134
:1052A0000E942A2C8A948820C1F799CCF301668148
:1052B0007781CB0161960FB6F894DEBF0FBECDBFEC
:1052C000CF91DF911F910F91FF90EF90DF90CF90E2
:1052D000BF90AF909F908F907F906F905F904F9016
:1052E0003F902F900895629FD001739FF001829F9D
:1052F000E00DF11D649FE00DF11D929FF00D839F65
:10530000F00D749FF00D659FF00D9927729FB00D01
:10531000E11DF91F639FB00DE11DF91FBD01CF0114
:1053200011240895AA1BBB1B51E107C0AA1FBB1F74
:10533000A617B70710F0A61BB70B881F991F5A9521
:10534000A9F780959095BC01CD01089597FB092E92
:1053500007260AD077FD04D0E5DF06D000201AF436
:10536000709561957F4F0895F6F7909581959F4FC1
:105370000895A1E21A2EAA1BBB1BFD010DC0AA1F96
:10538000BB1FEE1FFF1FA217B307E407F50720F0AE
:10539000A21BB30BE40BF50B661F771F881F991F29
:1053A0001A9469F760957095809590959B01AC0172
:1053B000BD01CF0108952F923F924F925F926F925D
:1053C0007F928F929F92AF92BF92CF92DF92EF9295
:1053D000FF920F931F93CF93DF93CDB7DEB7CA1B16
:1053E000DB0B0FB6F894DEBF0FBECDBF09942A8841
:1053F000398848885F846E847D848C849B84AA84E9
:10540000B984C884DF80EE80FD800C811B81AA8175
:10541000B981CE0FD11D0FB6F894DEBF0FBECDBF40
:10542000ED010895AF92BF92CF92DF92EF92FF927B
:105430000F931F93CF93DF93EC01A880B980CA80AC
:10544000DB80A114B104C104D10441F484E2A82E8C
:1054500089EDB82E8BE5C82E87E0D82EC601B501A0
:105460002DE133EF41E050E00E94712E27EA31E454
:1054700040E050E00E9473297B018C01C601B50118
:105480002DE133EF41E050E00E94712ECA01B901D5
:105490002CEE34EF4FEF5FEF0E9473296E0D7F1DEE
:1054A000801F911F97FF04C061507040804090485A
:1054B000688379838A839B839B013F77C901DF914E
:1054C000CF911F910F91FF90EF90DF90CF90BF9001
:1054D000AF9008950E94122A08958AE49CE00E94E9
:1054E000122A0895A0E0B0E080934A0C90934B0CF0
:1054F000A0934C0CB0934D0C0895FC01882799277C
:10550000E89421912032E9F3293010F02E30C8F3CD
:105510002B3241F02D3239F4689404C00E94D62B0E
:10552000820F911D219120532A30C0F31EF49095D3
:1055300081959F4F08951F93FC0199278827BC01EF
:10554000E89411911032E9F3193010F01E30C8F3CD
:105550001B3251F01D3249F4689406C00E94C12BE1
:10556000610F711D811D911D119110531A30B0F3FF
:105570003EF490958095709561957F4F8F4F9F4F2A
:105580001F910895283008F027E03327DA01990F9A
:10559000311D87FD916000966105710539F4326017
:1055A0002E5F3D9330E32A95E1F708959F3F30F059
:1055B00080387105610509F03C5F3C5F3D93913097
:1055C00008F08068911DDF93CF931F930F93FF9294
:1055D000EF92192F987F9695E92F96959695E90F5A
:1055E000FF27E054FE4F99273327EE24FF24A7011D
:1055F000E70105900894079428F4360FE71EF81E7B
:10560000491F511D660F771F881F991F0694A1F728
:105610000590079428F4E70EF81E491F561FC11D78
:10562000770F881F991F661F0694A1F705900794AE
:1056300028F4F80E491F561FC71FD11D880F991F48
:10564000661F771F0694A1F70590079420F4490F71
:10565000561FC71FD81F990F661F771F881F0694F4
:10566000A9F784911095177041F0D695C795579575
:105670004795F794E7941A95C1F7E6E6F1E0689448
:105680001590159135916591959105907FE27395EF
:10569000E118F10A430B560BC90BD009C0F7E10C16
:1056A000F11E431F561FC91FD01D7EF4703311F425
:1056B0008A95E6CFE894015030F0080F0AF40027ED
:1056C000021708F4202F2395022F7A3328F079E36C
:1056D0007D932A95E9F710C07D932A9589F6069463
:1056E00097956795379517951794E118F10A430B2D
:1056F000560BC90BD00998F023957E9173957A3398
:1057000008F070E37C932013B8F77E9170617D936D
:1057100030F0839571E37D9370E32A95E1F71124CE
:10572000EF90FF900F911F91CF91DF91992787FD07
:10573000909508959111089581568A5108F48052E8
:1057400085580895FC010590615070400110D8F70C
:10575000809590958E0F9F1F0895FB01DC0102C07C
:1057600001900D9241505040D8F70895FC016150CE
:10577000704001900110D8F7809590958E0F9F1F73
:105780000895592F482F372F262F660F771F881F10
:10579000991F660F771F881F991F620F731F841F41
:1057A000951F660F771F881F991F08957AE0979FAE
:1057B000902D879F802D910D112408950F931F9395
:1057C000CF93DF938C01EB01009731F461157105E4
:1057D00019F420E030E038C081E090E06EE070E045
:1057E0000E94492DFC019C01009771F180E88383A0
:1057F000209771F0D387C28781E8838380919115C8
:1058000090919215892B21F4F0939215E0939115C4
:1058100001151105C9F01187008783818260838398
:105820008091931590919415892B71F4F0939415B0
:10583000E09393158091951590919615892B21F4FD
:10584000F0939615E0939515C901DF91CF911F91C3
:105850000F9108950F931F93CF93DF938C01EB016A
:105860008B8181FF1BC082FF0DC02E813F818C8107
:105870009D812817390764F4E881F9810193F98340
:10588000E88306C0E885F985802F0995892B31F4D6
:105890008E819F8101969F838E8302C00FEF1FEF41
:1058A000C801DF91CF911F910F910895DF93CF939E
:1058B000CDB7DEB7FE013596619171918091931558
:1058C00090919415AF010E94C325CF91DF91089567
:1058D00060919315709194150E942A2C08950F934E
:1058E0001F93CF93DF938C01E0919315F091941562
:1058F000838181FF21C0C0E0D0E00DC0E09193150D
:10590000F091941520853185BF01F9010995892B06
:1059100011F0CFEFDFEFF80181918F01882371F74C
:10592000E0919315F0919415208531858AE0BF01AF
:10593000F9010995892B11F0CFEFDFEFCE01DF914F
:10594000CF911F910F9108950F931F93DF93CF93E2
:10595000CDB7DEB72E970FB6F894DEBF0FBECDBF22
:105960000D891E8986E08C831A8309838FEF9FE758
:105970009E838D839E01275E3F4FCE0101966F89E6
:10598000788DA9010E94C3252F813885020F131F2E
:10599000F80110822E960FB6F894DEBF0FBECDBF71
:1059A000CF91DF911F910F910895FA01AA27283016
:1059B00051F1203181F1E8946F936E7F6E5F7F4FDC
:1059C0008F4F9F4FAF4FB1E03ED0B4E03CD0670F58
:1059D000781F891F9A1FA11D680F791F8A1F911DAB
:1059E000A11D6A0F711D811D911DA11D20D009F4FB
:1059F00068943F912AE0269F11243019305D31933D
:105A0000DEF6CF010895462F4770405D4193B3E025
:105A10000FD0C9F7F6CF462F4F70405D4A3318F0CC
:105A2000495D31FD4052419302D0A9F7EACFB4E07D
:105A3000A6959795879577956795BA95C9F7009735
:105A40006105710508959B01AC010A2E06945795D6
:105A5000479537952795BA95C9F7620F731F841F2D
:105A6000951FA01D0895F999FECF92BD81BDF89AAA
:105A7000992780B50895262FF999FECF1FBA92BDB8
:105A800081BD20BD0FB6F894FA9AF99A0FBE01961F
:105A900008950F931F93CF93DF93689F8001699FB1
:105AA000100D789F100D1124C8010E94652DEC0186
:105AB000009729F060E070E0A8010E946A2ECE01F4
:105AC000DF91CF911F910F910895CF93DF93BC0188
:105AD0008230910510F462E070E0A0919915B091C8
