S01D00005365637572655F52656D6F74655F436F6E74726F6C2E7372656395
S11300000C94FC000C941D010C94F8050C9423062C
S11300100C941D010C941D010C941D010C941D01E4
S11300200C941D010C941D010C941D010C941D01D4
S11300300C941D010C941D010C94070A0C941D01D1
S11300400C94380A0C941D010C941D010C941D0190
S11300500C941D010C941D010C941D010C941D01A4
S11300600C941D010C941D010C941D010C941D0194
S11300700C941D010C941D010C941D010C941D0184
S11300800C941D010C941D010C94990B0C941D01EE
S11300900C941D010C941D010C941D010C941D0164
S11300A00C941D010C941D010C941D010C941D0154
S11300B00C941D010C941D010C941D010C941D0144
S11300C00C941D010C941D010C941D010C941D0134
S11300D00C941D010C941D010C941D010C941D0124
S11300E00C941D010C941D010C941D010C941D0114
S11300F00C941D010C941D010C941D010C941D0104
S11301000C941D010C941D010C941D010C941D01F3
S11301100C941D010C941D010C941D010C941D01E3
S11301200C941D010C941D010C941D010C941D01D3
S11301300C941D010C941D010C941D010C941D01C3
S11301400C941D010C941D010C941D010C941D01B3
S11301500C941D010C941D010C941D010C941D01A3
S11301600C9475050C941D010C94A1050C941D01AF
S11301700C941D010C941D010C941D010C941D0183
S11301800C941D010C941D010C941D010C941D0173
S11301900C941D010C941D010C941D010C941D0163
S11301A00C941D010C941D010C941D010C941D0153
S11301B00C941D010C941D010C941D010C941D0143
S11301C00C941D010C941D010C941D010C941D0133
S11301D00C941D010C941D010C941D010C941D0123
S11301E00C941D010C941D0103020201010000FF87
S11301F0FEFDFCFBF9F7F4EF11241FBECFEFDFE5A2
S1130200DEBFCDBF00E00CBF11E2A0E0B0E2E2E946
S1130210FEE300E00BBF02C007900D92AC34B107BF
S1130220D9F714E2ACE4B1E201C01D92A236B107E1
S1130230E1F70E9445010C94471F0C9400001092B2
S1130240EA210895CF93DF93CAE0D0E009C08FEF8D
S11302509FEF0E94BE0781E090E062E00E94420BA3
S113026021978FEFCF3FD80791F7809120218823E2
S113027021F081E090E060E003C081E090E061E083
S11302800E94420BDF91CF9108952F923F924F929B
S11302905F926F927F928F929F92AF92BF92CF9212
S11302A0DF92EF92FF920F931F93DF93CF9300D0CF
S11302B00F92CDB7DEB70E94B717882311F00E94C2
S11302C00A070E943C0B80E090E060E00E94420B31
S11302D081E090E061E00E94420B82E090E061E006
S11302E00E94420B789480E00E94CE05882311F08E
S11302F00E940A078FE494E069E774E00E94461ABA
S11303000E94710B80E090E00E94780B882319F41E
S11303101092202103C081E08093202180E090E0AE
S11303200E947904809120218823A1F081E090E04B
S113033060E00E94420B0F920F9280E090E2ADB712
S1130340BEB711968D939C9312970E94911A0F90A9
S11303500F9004C08FE190E20E94AA1A0E94470EF7
S11303608AEB9BEA8A839B838E010E5F1F4F80E595
S1130370B8010E949E1581E090E08A839B8383E507
S1130380B8010E949E1584E1898380E0BE016F5FFD
S11303907F4F0E949E150E94191A80935D218EE55D
S11303A091E28093E8219093E92186E00E940C1960
S11303B0B1E0AB2EB12C222423940E946F060E943C
S11303C0B11280914C218823C1F78091EA218823BE
S11303D0A1F780912321813009F007C180E090E0EA
S11303E00E94780B882349F780912021882309F4FF
S11303F0A4C0A9EFB1E2EDE3F0E28DE001900D922B
S11304008150E1F7EDE4F1E2A0E1CA2E1192CA9421
S1130410E9F7E0902E2490902F248090302470905F
S1130420312460903224509033244090342430900E
S11304303524F8E0FF2EFA940F2D10E0E8E0CE2EDC
S1130440D12CC01AD10A4DE451E2C40ED51E73E07A
S1130450000F111F7A95E1F72E2D392D482D572DB8
S1130460662D752D842D932D0E942A19D6012C9367
S1130470FF2009F7BEE2B0935A21B093EB21A0EF1D
S1130480B1E2EEE4F1E288E001900D928150E1F7EF
S11304901092F8218091162290911722A09118228F
S11304A0B091192204E00150202F30E0A90163E04B
S11304B0440F551F6A95E1F76C017D0104C0F69461
S11304C0E794D794C7944A95D2F7ECE0F0E0E21BA6
S11304D0F30BE35BFE4DC082E4E0F0E0E21BF30BC0
S11304E0E551FE4DC0820023F1F6809116229091D1
S11304F01722A0911822B09119220196A11DB11DB5
S11305008093162290931722A0931822B093192255
S113051040912121509122218BEE91E26DE471E210
S11305202EE00DE036E0E32ECC240E944E0E109215
S113053021211092222123E20AC0ABEEB1E2EDE3C5
S1130540F0E28DE001900D928150E1F72DE0E09012
S1130550E821F090E92108E810E0021B11090E0DD2
S11305601F1DC8014BEE51E2BA01422F50E02C830B
S11305700E94361AF801B292A292B292A2923297D3
S11305808AEB9BEA80839183F801379780915D2100
S113059080838F5F80935D21F8013997A1E6B8E8E5
S11305A0A083B183F8013A972C81255F2083D7017A
S11305B01696ED93FC93179720924C21C70162E0A5
S11305C070E041E00E94FE132092EA2180E040E4C2
S11305D05DE063E070E020E00FE111E0EE24FF2431
S11305E00E94DA0810922321E8CE80E090E00E9475
S11305F0780B813009F0E1CE80932321DECE4F9237
S11306005F926F927F928F929F92AF92BF92CF929E
S1130610EF920F931F93DF93CF93CDB7DEB7CF5FE6
S1130620D040CDBFDEBF2C01DC011696AD90BC904E
S11306301797F5016080F5EF6F0E8501065F1F4F78
S113064080912021882309F4BCC00F920F928BE47F
S113065090E2ADB7BEB711968D939C9312970E940A
S1130660911A0F900F90B62DB33221F4F5018285C3
S11306708E3229F00E94220189E590E2B8C0AEE4EE
S1130680B1E2F5013F9688E001900D928150E1F7C7
S11306908EE280935A2164E066247724430124E0A7
S11306A030E06150462F50E0F901E41BF50BE00FF8
S11306B0F11F808190E073E0440F551F7A95E1F7B4
S11306C002C0880F991F4A95E2F7AA2797FDA095C3
S11306D0BA2F682A792A8A2A9B2A662311F7F801F5
S11306E081819281A381B481809356219093572173
S11306F0A0935821B0935921409121215091222156
S1130700C8016DE471E22EE00DE016E0E12ECC2488
S1130710C3940E944E0E882349F50F920F928BE7E3
S113072090E2ADB7BEB711968D939C9312970E9439
S1130730911A8501085E1F4FE5E2F0E0AE0EBF1E80
S11307400F900F90D8018D918D0160E070E00E94B0
S11307504F040A151B05B1F78AE090E00E94A31A22
S113076082E090E062E00E94420B26C00E942201D7
S1130770EDB7FEB73897EDBFFEBF31968E010F5F20
S11307801F4FADB7BEB711960D931C93129784E912
S113079090E28283938364827582868297820E9428
S11307A0E11AEDB7FEB73696EDBFFEBF01831283A3
S11307B00E94911A0F900F901092212110922221E1
S11307C03CC00F920F928AEA90E2ADB7BEB7119681
S11307D08D939C9312970E94911A0F900F90F5019C
S11307E082858E3239F40E94220189EB90E20E94C4
S11307F0AA1A23C00F920F9288ED90E2ADB7BEB74C
S113080011968D939C9312970E94911A0F900F90BA
S1130810AA2408C0F80181918F0160E070E00E9471
S11308204F04A394A614B0F38AE090E00E94A31AA4
S113083082E090E062E00E94420BD20111968D9119
S11308409C9112970E94D90CC150DF4FCDBFDEBFDF
S1130850CF91DF911F910F91EF90CF90BF90AF9008
S11308609F908F907F906F905F904F900895882312
S113087089F480912021882319F087EE90E202C048
S113088082E091E20E94AA1A82E090E062E00E9473
S1130890420B02C00E94220110924C2108950F9332
S11308A01F93DF93CF930F92CDB7DEB789838A303E
S11308B071F48DE089838E010F5F1F4F80E0B801D2
S11308C041E00E94DA058823C9F38AE089838E0116
S11308D00F5F1F4F80E0B80141E00E94DA058823D2
S11308E0C9F380E090E00F90CF91DF911F910F91B9
S11308F008950F931F93DF93CF930F92CDB7DEB775
S11309008E010F5F1F4F80E0B80141E00E94E305B4
S11309108823C9F3898190E00F90CF91DF911F91D3
S11309200F910895DF93CF930F92CDB7DEB780E098
S1130930BE016F5F7F4F41E00E94E305813019F4EF
S1130940298130E002C02FEF3FEFC9010F90CF9112
S1130950DF9108950F931F93CF93DF938C01EB01E5
S11309600AC080E0B8014C2F0E94DA0590E0C81B51
S1130970D90B080F191F1C161D069CF3DF91CF918C
S11309801F910F9108959B01AC016050774F824CE9
S11309909F4FF2E0660F771F881F991FFA95D1F7D2
S11309A0E3E0220F331F441F551FEA95D1F70E943D
S11309B0A91921503040E0E6F6E088E0818384E024
S11309C08283E0EAF9E0378326838CE1848383E041
S11309D085838CE383830895CF93DF93282F8091BD
S11309E0A309837FE0EAF9E08383E0911C2430913A
S11309F01D243E1718F08E2F875F02C08E2F815062
S1130A00831B681708F4862F392FE901982F11C02A
S1130A1020911D243991A22FB0E0A85FBB4D3C93D7
S1130A20293019F410921D2403C02F5F20931D2434
S1130A309150992369F790912024992349F4F0E087
S1130A40E85FFB4D90819093A00991E0909320245E
S1130A509091A3099C60E0EAF9E09383DF91CF9140
S1130A600895FC01809121248823E9F19091A30940
S1130A709F7CA0EAB9E013969C9313978A3050F0B8
S1130A8080911F2480931E248AE0809321246A305D
S1130A9028F405C0861718F4682F01C06AE0962F61
S1130AA018C0A0911E24B0E0A85FBB4D1A968C918B
S1130AB01A97819380911E248F5F80931E24209126
S1130AC0212421502093212491508A3011F4109232
S1130AD01E24992331F78091A3098063E0EAF9E0A9
S1130AE08383862F089580E008951F920F920FB696
S1130AF00F920BB60F9211248F939F93EF93FF9352
S1130B0080911F24909121249F5F909321249091A0
S1130B10A009E82FF0E0E85FFB4D9287893019F4D3
S1130B2010921F2403C08F5F80931F24FF91EF91C5
S1130B309F918F910F900BBE0F900FBE0F901F903F
S1130B4018951F920F920FB60F920BB60F921124A5
S1130B508F93EF93FF9380911C24893019F41092A2
S1130B601C2403C08F5F80931C24E0911C2480917B
S1130B701D24E81739F0F0E0E85FFB4D8081809395
S1130B80A00902C010922024FF91EF918F910F9041
S1130B900BBE0F900FBE0F901F901895882341F441
S1130BA060E875E280E090E00E94C30480E008956C
S1130BB085E80895882329F4CB01642F0E94EC046E
S1130BC0089580E00895882329F4CB01642F0E94BE
S1130BD03105089580E0089580931A2290931B2292
S1130BE0E0E4F6E081E0828B94E0928784870895C4
S1130BF01F920F920FB60F920BB60F9211242F93E0
S1130C003F934F935F936F937F938F939F93AF9390
S1130C10BF93EF93FF93E0911A22F0911B22199551
S1130C20FF91EF91BF91AF919F918F917F916F91C0
S1130C305F914F913F912F910F900BBE0F900FBE7C
S1130C400F901F9018951F920F920FB60F921124B8
S1130C500F900FBE0F901F901895EBECF1E021E080
S1130C6030E088ED90E084BF208308958091CF0127
S1130C7087FDFCCF08950F931F93DF93CF930F92BB
S1130C800F92CDB7DEB789839A830E94360600ECB3
S1130C9011E0F80112829A8191838981808386E030
S1130CA082870E942D06F80184810F900F90CF91C6
S1130CB0DF911F910F9108950E94580A0E94730AB0
S1130CC00E94C20B0E9494070E944E0A0E94520A7C
S1130CD088ED84BF81E08093800080E008950E94C5
S1130CE0CA090895CF92DF92EF92FF920F931F9358
S1130CF0CF93DF938B01EA01813031F4862F642F87
S1130D00A9010E949D0A21C08823E1F4CA01860F2B
S1130D10971F40E181309407B8F4C22ED32EEE24FD
S1130D20FF240BC0C701800F911F0E943B06F601F0
S1130D3081936F010894E11CF11CEC16FD0690F3FD
S1130D4080E003C088EE01C085E8DF91CF911F9158
S1130D500F91FF90EF90DF90CF9008955F926F9284
S1130D607F928F929F92AF92BF92CF92DF92EF9237
S1130D70FF920F931F93CF93DF93EC015B01CB01A1
S1130D808C0F9D1F20E18130920798F5C42ED52E3B
S1130D90EE24FF2400EC11E023E3722E95E3892E68
S1130DA086E3982E21C0CE010E943B06F601619095
S1130DB06F018615A9F05C2E0E9436068091CF0142
S1130DC081FF04C0F80192860E942D06F801728604
S1130DD05092C00111821282648282860E942D0682
S1130DE021960894E11CF11CEA14FB04E0F280E073
S1130DF001C085E8DF91CF911F910F91FF90EF9093
S1130E00DF90CF90BF90AF909F908F907F906F9026
S1130E105F9008951F93CF93DF93E0E2F6E014828E
S1130E208FEF8183C0E2D6E01FEF8FEF9FEF0E9428
S1130E30BE071F83FACF60912224709123249B0163
S1130E4040E050E0A90133272227809120089091A7
S1130E502108A0E0B0E0282B392B4A2B5B2B809192
S1130E602224909123246817790729F7B901CA012C
S1130E7008951F93CF93DF931FB7F89480911E2298
S1130E808F3F09F44CC0C82FD0E0FE0133E0EE0FD1
S1130E90FF1F3A95E1F7EC0FFD1FEC5DFB4D8081E0
S1130EA09181A281B38120912224309123242A1795
S1130EB03B0769F4809328089093290880910C08D3
S1130EC0806180930C0880910708836003C080913F
S1130ED007088C7F809307080E941B07FE0123E00C
S1130EE0EE0FFF1F2A95E1F7EC0FFD1FEC5DFB4DA4
S1130EF02081318142815381621B730B840B950BDA
S1130F006F5F7F4F8F4F9F4F6F3F2FEF72072FEF12
S1130F1082072FE7920718F481E080931D221FBFF8
S1130F20DF91CF911F91089510921C2210921D22DF
S1130F3010922224109223248FEF80931E228093F8
S1130F401F228093202280932C2410922824109214
S1130F5029240E94900A0895882319F488E0809334
S1130F6000080895CF93DF93EC010E941B07688368
S1130F7079838A839B83DF91CF9108954FB7F89447
S1130F808630910518F12091200830912108280F0E
S1130F90391F80912008909121088217930740F40B
S1130FA0809120089091210882179307C8F30EC0FE
S1130FB0809120089091210828173907C8F380915F
S1130FC020089091210882179307C8F34FBF089512
S1130FD090E0FC0143E0EE0FFF1F4A95E1F7E80FB4
S1130FE0F91FEC5DFB4D81E024813581211531052C
S1130FF009F480E0089580911D22882309F44CC0EF
S113100010921D2220911C22222309F445C08091B4
S11310101F228F3F59F4809120228F3F39F4809111
S11310201E228093202280931F2212C030911E2200
S11310308091202290E0FC0173E0EE0FFF1F7A956F
S1131040E1F7E80FF91FEC5DFB4D30873093202268
S113105080911E2290E0FC0163E0EE0FFF1F6A9571
S1131060E1F7E80FF91FEC5DFB4D808580931E22AC
S11310708091202290E0FC0153E0EE0FFF1F5A956F
S1131080E1F7E80FF91FEC5DFB4D8FEF80872150EE
S113109020931C220E94390708951F93882309F086
S11310A084C01FB7F8940E94FB0730911C2233239D
S11310B0B1F140911E22842F242F02C0822F292FA8
S11310C02223F1F420912C24442329F420931E227A
S11310D00E9439070CC090E0FC0163E0EE0FFF1F93
S11310E06A95E1F7E80FF91FEC5DFB4D20878FEF60
S11310F080932C2480911C22815080931C224BC00D
S1131100822F90E0FC0153E0EE0FFF1F5A95E1F7A8
S1131110E80FF91FEC5DFB4D9085315079F6409155
S11311201F22342F242F33C0222319F5209120228B
S1131130442359F4222321F48FEF8093202202C008
S113114080912C2480931F2226C0832F90E0FC01E1
S1131150B3E0EE0FFF1FBA95E1F7E80FF91FEC5D5E
S1131160FB4D80912C2480872223A9F430932022E4
S113117012C0822F90E0FC01A3E0EE0FFF1FAA959E
S1131180E1F7E80FF91FEC5DFB4D322F20852F3F6F
S113119059F680E005C0109228241092292481E099
S11311A01FBF882321F080E003C08AE801C089E8DA
S11311B01F9108954F925F926F927F928F929F92A8
S11311C0AF92BF92CF92DF92EF92FF920F931F9351
S11311D0DF93CF930F92CDB7DEB75A016B0188230B
S11311E009F0ADC00115110509F4ADC080912824A2
S11311F090912924009709F0A4C029830E941B0719
S1131200AB01BC012981222321F0213009F09BC0CC
S113121014C0D601C50180589040A040B040803829
S11312202FEF92072FEFA2072FE7B20708F08DC028
S1131230A40EB51EC61ED71E13C0D601C501805804
S11312409040A040B040841B950BA60BB70B803890
S1131250EFEF9E07EFEFAE07EFE7BE0708F075C0AC
S11312609FB6F8940E94FB0750911E225F3F31F015
S113127080901C22652F452F70E042C010921E22E0
S113128050932C242CC04F3FD1F1242F30E0F9018E
S1131290B3E0EE0FFF1FBA95E1F7E20FF31FEC5D29
S11312A0FB4D80819181A281B38125013601481AC9
S11312B0590A6A0A7B0AD301C2018F3F2FEF9207B2
S11312C02FEFA2072FE7B20718F4642F408517C049
S11312D0E4E2F4E24087541721F410921E2281E0E4
S11312E012C0862F90E0FC01A3E0EE0FFF1FAA9529
S11312F0E1F7E80FF91FEC5DFB4D108649C07F5FF5
S1131300781508F235C0A0922424B0922524C09206
S11313102624D09227240093282410932924E09291
S11313202A24F0922B2490911C229F5F90931C22DC
S1131330882311F00E9439079FBE80E007C08AE825
S113134005C088E803C088EE01C08BE80F90CF91F8
S1131350DF911F910F91FF90EF90DF90CF90BF909E
S1131360AF909F908F907F906F905F904F90089573
S1131370862F90E0FC0173E0EE0FFF1F7A95E1F7F2
S1131380E80FF91FEC5DFB4D10868FEF80932C2442
S113139080E0B9CF1F931FB7F8940E94FB071FBFCB
S11313A01FEF2FC03FB7F89480911F2290E0DC011B
S11313B023E0AA0FBB1F2A95E1F7A80FB91FAC5D64
S11313C0BB4D18962C9118971496ED91FC91159796
S11313D016968D919C91179718961C9318971496AE
S11313E01D921C92159716961D921C921797209386
S11313F01F222F3F11F4109320223FBF309709F092
S1131400199580911F228F3F69F61F9108951F92AD
S11314100F920FB60F920BB60F9211242F933F9396
S11314204F935F936F937F938F939F93AF93BF93E8
S1131430EF93FF938091222490912324019680932B
S11314402224909323240E943907FF91EF91BF91A6
S1131450AF919F918F917F916F915F914F913F9148
S11314602F910F900BBE0F900FBE0F901F901895E9
S11314701F920F920FB60F9211248F9380911C220A
S1131480882319F081E080931D228F910F900FBE65
S11314900F901F901895089581E0089584E8809333
S11314A080010895E0EAF0E08281846082830895F7
S11314B082E0809350008091510081FFFCCF88ED41
S11314C084BF94E0E0E4F0E0918384BF81E0809302
S11314D0400082E0E0E5F0E0868380916000816076
S11314E0809360000895E0E4F6E080818061808369
S11314F08081806880838081816080838081806234
S1131500808380818860808380818F7B8083E0E614
S1131510F6E080ED818380E2828380E18583089513
S113152088E08093000880EF80930C0880E3809328
S11315304C0883E0809306080895AF92BF92CF923F
S1131540DF92EF92FF920F931F93DF93CF93CDB768
S1131550DEB7C054D040CDBFDEBF9E012F5F3F4FEA
S113156090E0E0E4F6E0EE24E394B0E1FB2E00EC3E
S113157018E0A3E0DA2E70ECA72E78E0B72EC09026
S11315804906709149067C7F7187E682F6820000E5
S11315900000000000000000000000000000000047
S11315A00000000000000000000000000000D8015E
S11315B01396DC9213977091C20877FFFCCF792FB2
S11315C07F77D50113967C9313977091C20877FFA8
S11315D0FCCFD50113961C9213977091C20877FF24
S11315E0FCCF7091C308F582E582C186D9017D9351
S11315F09D019F5F903409F0C2CFDE01AF5BBF4F06
S113160020E030E0FE01319691912927022E2295A7
S1131610207F2025032E322F22952F700226269517
S113162032272327220F220F220F2025EA17FB0738
S113163059F72115310581F4FA01DE011196A80F3D
S1131640B11DCA01860F911D02C02D912193E81787
S1131650F907D9F780E001C085E8C05CDF4FCDBF52
S1131660DEBFCF91DF911F910F91FF90EF90DF903C
S1131670CF90BF90AF900895E0E2F6E087E08183D9
S1131680868308958330910528F48C5C9E4DFC017B
S1131690208101C020E0662319F06130B9F40BC049
S11316A081E090E002C0880F991F2A95E2F7E0E2FA
S11316B0F6E08583089581E090E002C0880F991FC9
S11316C02A95E2F7E0E2F6E08683089581E090E06F
S11316D002C0880F991F2A95E2F7E0E2F6E08783BB
S11316E00895E0E2F6E088E0828388E1838B089540
S11316F0E0E2F6E0808590E023E0959587952A95D1
S1131700E1F7817008952FB7F89498E09093B000B2
S1131710E0E2F6E08BE1838B81858C7F82608187B8
S11317209287E0EAF0E082818260828378942FBF1E
S113173008951F920F920FB60F920BB60F921124B9
S11317408F93EF93FF93E0E2F6E08285877F8287B1
S1131750E8E4F0E080818E7F8083FF91EF918F91A8
S11317600F900BBE0F900FBE0F901F9018950E9404
S1131770830BE8E4F0E08081807F85608083789447
S11317808895089580E58093C00880E1E0E4F6E060
S113179085830895E0E4F6E0209149069091490696
S11317A09C7F9187806C90E19683E0ECF8E08383E2
S11317B08091C20887FFFCCFE0ECF8E0638380915E
S11317C0C20887FFFCCFE0E4F6E080E1858321874F
S11317D00895E0E4F6E020914906909149069C7F43
S11317E09187806890E19683E0ECF8E083838091B0
S11317F0C20887FFFCCFE0ECF8E013828091C208B6
S113180087FFFCCF8091C308E0E4F6E090E1958384
S11318102187089520E1E0E4F6E0268320E2E0EC6D
S1131820F8E023832091C20827FFFCCFE0ECF8E026
S113183013826130B9F0262FFC01A0ECB8E030919E
S1131840C20837FFFCCF3091C30813961C9213973C
S113185031932150223098F7625070E06F5F7F4FD0
S1131860860F971F2091C20827FFFCCF2091C30841
S1131870FC01208380E1E0E4F6E085830895FC0127
S113188080E1A0E4B6E016968C9380E6A0ECB8E084
S113189013968C9313978091C20887FFFCCFA0EC1A
S11318A0B8E0819161509091C20897FFFCCF1396E4
S11318B08C9313976623A9F78091C20887FFFCCF06
S11318C080E1E0E4F6E085830895DF93CF930F92FF
S11318D00F92CDB7DEB74A8369830E94E90B698111
S11318E0862390E04A8102C0959587954A95E2F750
S11318F00F900F90CF91DF9108951F93DF93CF93B3
S113190000D0CDB7DEB7182F2B834A8369830E949A
S1131910E90B2B8130E04A8102C0220F331F4A9524
S1131920E2F76981262360956823622B812F0E9448
S1131930CA0B2396CDBFDEBFCF91DF911F910895CF
S11319400F931F93CF93DF93C1E2D2E2CE010E94A3
S1131950570D04EC13E286E292E28093C423909341
S1131960C523CE01B8010E945E0DB8016C5F7F4FA4
S113197080EB92E28093C8239093C923CE010E9406
S11319805E0DB801685F7F4F8AE393E28093CC23B6
S11319909093CD23CE010E945E0DDF91CF911F91D4
S11319A00F91089581E292E260E070E00E94790D67
S11319B00895BC01009721F081E292E20E945E0D3D
S11319C008956F927F928F929F92BF92CF92DF92EF
S11319D0EF92FF920F931F93CF93DF938C014B01F0
S11319E06A01BFB6F894DC0114968C91149788238D
S11319F009F44BC0CD91DC91119741155105C1F00B
S1131A007E0113C0F601628173810190F081E02DA3
S1131A10888199811995882371F47E019A818B813B
S1131A20692EE3013E01782EE301209759F72FC078
S1131A30209769F17E018114910449F5D8012D9113
S1131A403C9111978A819B81C217D30721F48D930E
S1131A509C93119703C0F70182839383D801129654
S1131A608D919C911397C817D90721F41296ED9282
S1131A70FC921397F8018481815084838081918141
S1131A80009729F41282138202C0C0E0D0E0BFBEE6
S1131A90CE01DF91CF911F910F91FF90EF90DF90D6
S1131AA0CF90BF909F908F907F906F900895FC018E
S1131AB0108211821282138214820895FC019FB74E
S1131AC0F8948481882319F46083718306C0A28109
S1131AD0B38112966D937C93139762837383DB01B6
S1131AE012961D921C92139784818F5F84839FBFEB
S1131AF00895AB0160E070E00E94E10C0895AB0131
S1131B0061E070E00E94E10C0895CF93DF93EC0153
S1131B100BC0CE0160E070E00E94790D009711F4D3
S1131B201C8205C00E94D90C8C81882391F7DF9117
S1131B30CF91089580E28093C00008950895FC0138
S1131B40A091D023B091D12380E19D919093C300C3
S1131B508150D9F780E191919093C2008150D9F7D7
S1131B608091C1008178E1F381E08093C100089500
S1131B70DF93CF93CDB7DEB76297CDBFDEBF21E44D
S1131B802093D223009799F01092D32322E020933C
S1131B903721A4EDB3E2FC0180E101900D92815064
S1131BA0E1F784ED93E28093D0239093D1234423EF
S1131BB021F0413009F05CC007C0809137218130A9
S1131BC071F584ED93E227C080913721813039F19A
S1131BD08091D3238823E9F481E48093C00084EDC9
S1131BE093E28093D0239093D123CE0101964A8B24
S1131BF0698B0E949F0DE4EEF3E269894A89809122
S1131C00C300819383E2E43FF807C9F781E080933E
S1131C10D32384EE93E28093D0239093D1234093F3
S1131C203721662311F0623019F581E090E06230CB
S1131C3011F080E090E0880F991F880F991F582FAA
S1131C4054708091D223582B81E090E0413011F000
S1131C5080E090E09C0184E0220F331F8A95E1F735
S1131C602071252B2093D2232093C00081E001C052
S1131C7080E06296CDBFDEBFCF91DF910895FC0175
S1131C8080E19091C20091938150D9F708950E9408
S1131C909A0D089581E08093F42308952F923F9242
S1131CA04F925F926F927F928F929F92AF92BF9268
S1131CB0CF92DF92EF92FF920F931F93DF93CF9314
S1131CC0CDB7DEB76297CDBFDEBF4C015B013A01F1
S1131CD0D22E102F8091F423882321F00E949E0D90
S1131CE01092F4232E2D30E0A90143705070411559
S1131CF0510559F04F5F5F4F81E090E002C0880FBB
S1131D00991F4A95E2F7F82E01C0FF24287F211578
S1131D10310509F0B3C08114910409F4AFC0A114D2
S1131D20B10409F4ABC04D2C55241201210E311C11
S1131D308F2D90E0898B9A8B820D931D80389105AD
S1131D4008F09CC080913821882321F0611471042B
S1131D50F1F496C061147104D1F020E040E14150E7
S1131D60842F90E0F301E80FF91FDC01AB50BC4D68
S1131D7080819C91892790E030E0822B932B21E095
S1131D80009709F420E0442351F7209338218091EF
S1131D903821882379F0C30160E040E00E94B80D47
S1131DA0E5EFF3E2D30180E10D9001928150E1F778
S1131DB01092382181E0F5018083FF2061F08F2D9E
S1131DC090E002979595879523E0880F991F2A95AF
S1131DD0E1F781608083DD2021F0F501808180645A
S1131DE0808384E0682E6E20F501E0801686CC2086
S1131DF0D1F4FF2051F01787B401620D731DC401A3
S1131E00A5012D2D012F0E94A90F6620D9F181E093
S1131E10F5018083C401840D951DB5014F2D212F3B
S1131E200E9409102FC0662059F081E0F5018083DB
S1131E30C401840D951DB5014F2D212F0E94091059
S1131E40FF2001F1F501E0821787C4013E010894E7
S1131E50611C711CB301A5012D2D012F0E94A90F36
S1131E608D2D90E0810F911D880D991DB301498935
S1131E705A890E94291A009729F006C081E005C0FA
S1131E8082E003C080E001C083E06296CDBFDEBF84
S1131E90CF91DF911F910F91FF90EF90DF90CF9042
S1131EA0BF90AF909F908F907F906F905F904F9076
S1131EB03F902F900895EF92FF920F931F93DF931B
S1131EC0CF93CDB7DEB76297CDBFDEBF8C01262F8F
S1131ED07C010CC0C701298B6A8B0E949F0D80E195
S1131EE090E0E80EF91E298920516A89203190F783
S1131EF0262F22952F7030E084E0220F331F8A951D
S1131F00E1F7200F311F462F4F70C9F0E42EFF2454
S1131F108E010F5F1F4FC801B90150E00E94361AAD
S1131F2020E130E02E193F09E00EF11EC70160E008
S1131F3070E0A9010E943F1AC8010E949F0D629699
S1131F40CDBFDEBFCF91DF911F910F91FF90EF9036
S1131F5008958F929F92BF92CF92DF92EF92FF9259
S1131F600F931F93DF93CF93CDB7DEB76097CDBFA9
S1131F70DEBF7C014B016A01122FFA01078780E062
S1131F8090E060E040E00E94B80DC6010E949F0D01
S1131F9080E090E062E040E00E94B80D112309F176
S1131FA0B12E1F3010F09EE0B92E19821A83CB2C6B
S1131FB0DD249E012D5F3F4FC901B7014B2D50E039
S1131FC00E94361A6B2D6E5FCE0101960E945B0F44
S1131FD0B11638F4612F6B19C7018C0D9D1D0E9439
S1131FE05B0FC701810F911D602F0E945B0FC4011D
S1131FF00E943F0E6096CDBFDEBFCF91DF911F914F
S11320000F91FF90EF90DF90CF90BF909F908F90B3
S113201008958F929F92AF92BF92CF92DF92EF92E8
S1132020FF920F931F93DF93CF93CDB7DEB76097E3
S1132030CDBFDEBF7C015B01942E022F10E080E057
S113204090E060E040E00E94B80D88246E0108949E
S1132050C11CD11C22C08394D5011F968C92C5014A
S11320600E949F0DC6010E943F0ED601C801013196
S1132070110514F080E190E090E09601280F391FDB
S1132080F70104C05D91408145274193A217B3072E
S1132090C9F7E80EF91E0051104010161106DCF2C3
S11320A09920A1F0F5011786C5010E949F0D8E01AC
S11320B00F5F1F4FC8010E943F0EF8019191D70195
S11320C08C9189278D937D019A94C1F76096CDBF39
S11320D0DEBFCF91DF911F910F91FF90EF90DF90C2
S11320E0CF90BF90AF909F908F9008951F9381E001
S11320F06FE140E00E94650C8830A1F48FE00E94FB
S1132100E90B82E069E00E94CA0B10E08FE00E94B4
S1132110E90B80FD07C08EE690E00E94BE071F5FBA
S11321201330A1F71F9108951F93DF93CF930F925C
S1132130CDB7DEB7182F80914D248F3089F51092DA
S113214056248EEC98E10E94EC05E0E4F6E081E090
S1132150848780914906836081878FB7F894789447
S113216098E09683909156249923E1F38FBF8FE0F2
S11321700E94E90B83EA98E10E94EC058EE06CE092
S11321800E94CA0B8DE064E042E021E00E947D0CD5
S1132190183011F0133021F488E080934D24DCC111
S11321A081E06FE140E00E94650C80934D2418307B
S11321B009F458C0193050F4143009F4A5C016308D
S11321C009F4AFC0133009F0BEC164C01F3069F018
S11321D0103120F4193009F0B6C174C0163109F475
S11321E0D9C0193109F0AFC141C182E063E00E9456
S11321F0CA0B8DE064E042E020E00E947D0C0E9466
S1132200191A682F8DE299830E94CA0B8EE267E047
S113221040E09981292F0E947D0C8FE00E94E90BF8
S11322208EE06FEF40E020E10E947D0C0000000092
S1132230000000000000000000000000000000009A
S113224000000000000000000000000088E0E0E45E
S1132250F6E0858383E290E00E94BE0710934D244C
S11322608FE07AC1883009F46EC182E068E00E9490
S1132270CA0B000000000000000000000000000085
S1132280000000000000000000000000000000004A
S1132290000059C1883009F456C182E063E00E940D
S11322A0CA0B000000000000000000000000000055
S11322B0000000000000000000000000000000001A
S11322C0000041C1883029F1893020F4863009F0BA
S11322D03AC105C0863119F0893109F034C182E070
S11322E069E00E94CA0B000000000000000000002A
S11322F000000000000000000000000000000000DA
S11323000000000000001FC1883019F0893021F45A
S11323101AC10E94761017C182E064E00E94CA0BC1
S113232012C1893059F08A3020F4883009F00BC189
S11323301AC0863119F0893109F005C182E066E0DE
S11323400E94CA0B00000000000000000000000012
S11323500000000000000000000000000000000079
S113236000000000F0C00E94761082E066E00E9447
S1132370CA0B000000000000000000000000000084
S11323800000000000000000000000000000000049
S11323900000D9C0883001F1893020F4863009F07A
S11323A0D2C031C0893019F0893109F0CCC082E043
S11323B066E10E94CA0B000000000000000000005B
S11323C00000000000000000000000000000000009
S11323D0000000000000B7C00E94761082E066E1B1
S11323E00E94CA0B00000000000000000000000072
S11323F000000000000000000000000000000000D9
S113240000000000A0C082E069E00E94CA0B000046
S113241000000000000000000000000000000000B8
S1132420000000000000000000000000000081E047
S11324306FE140E00E94650C80934D24893009F0DF
S11324408BC082E066E10E94CA0B0000000000001D
S11324500000000000000000000000000000000078
S1132460000000000000000000006DC0883009F486
S113247054C0893020F4863009F065C01BC089300F
S113248021F0863109F05FC015C082E069E10E9445
S1132490CA0B000000000000000000000000000063
S11324A00000000000000000000000000000000028
S11324B0000049C082E069E00E94CA0B00000000ED
S11324C00000000000000000000000000000000008
S11324D000000000000000000000000081E06FE147
S11324E040E00E94650C80934D24893009F034C08B
S11324F082E069E10E94CA0B0000000000000000B5
S113250000000000000000000000000000000000C7
S1132510000000000000000016C00E94761082E057
S113252069E10E94CA0B00000000000000000000E6
S11325300000000000000000000000000000000097
S113254000000000000081E06FE140E00E94650CA3
S113255080934D248F31B9F30F90CF91DF911F9168
S1132560089580913E248823E1F0809157248823A4
S1132570C1F48091052490910624009739F48AE8E7
S11325800E94D20C80930524909306248091052404
S113259090910624009729F010923E2486E10E942F
S11325A0941080914324882351F08FE394E260E0F7
S11325B070E00E94790D009711F00E944013809101
S11325C05724823011F40E947B130895DF92EF9216
S11325D0FF920F931F93DF93CF930F920F92CDB778
S11325E0DEB7E0910524F0910624309731F4CE0152
S11325F0029661E00E940A0C39C0E080F18087E015
S11326000E94E90BD82ECE01019661E00E940A0CCB
S1132610698167FD2BC0862F8D5F0AE810E0081BD7
S113262011090E0D1F1D6E5FC8010E940A0CF701EF
S1132630068317838981F801E80FF11DD282609126
S11326400524709106248FE394E20E945E0D8AE8CB
S11326500E94D20C8093052490930624009731F4B1
S113266089E00E94941081E080933E240F900F90A3
S1132670CF91DF911F910F91FF90EF90DF9008951C
S1132680CF93DF939C01FC01C081D181AE81BF81D6
S1132690EC91E0934F24F0E03196EA0FFB1F608148
S11326A041814F3118F4442319F003C04EE101C0B5
S11326B041E062956695669563708FEF689FB001FF
S11326C0112450E0649FC001659F900D749F900D8C
S11326D011246AE570E00E9495196F3F710511F0AD
S11326E008F06FEF608329833A83CE010E94FF02D2
S11326F0DF91CF91089510925724E0910724E83098
S113270028F4F0E0E75CFE4D808101C085E860912B
S1132710492470914A240E9437040895FF920F932C
S11327201F93CF93DF938C01EB01F42E442331F0FC
S11327308CE260EF44E020914C2404C08CE260EF12
S113274044E020E00E947D0CC230D10598F4FF20C3
S113275061F08CE26EE041E0209144240E947D0C03
S11327608FE260E00E94CA0B16C08CE26EE041E08A
S113277027E00FC0609148246295607F80914B24CC
S1132780682B8FE20E94CA0B8CE26EE041E020913C
S113279044240E947D0C89E10E9494108931D9F768
S11327A0809149068C7FE0E4F6E08187C130D10551
S11327B059F480914F24833118F080E492E002C0F0
S11327C080E890E00E94BE07C0E4D6E088E08D83F4
S11327D0000000008E83F80160816150C8010E94EE
S11327E03F0C81E080935724809149068360898758
S11327F0DF91CF911F910F91FF900895209157245D
S1132800222389F48093492490934A24FC018681ED
S113281097818093502490935124009731F00E9423
S11328208E1380E0089586E8089588EE089588233D
S113283011F087E005C082E060EE45E00E94650C7F
S11328408093072482E080935724809105249091FB
S11328500624009739F489E00E94941081E0809363
S11328603E24089586E10E949410089585FD03C0D6
S1132870982F9F7304C0982F91959F719195E8EEBE
S1132880F1E02491291744F4203EB4F02032B4F44A
S113289027FF10C0822F0BC03F96E4919E178CF443
S11328A0E03E54F0E03254F4E7FF0AC08E2F8F71FB
S11328B0806207C0822F05C080E203C08FE101C09F
S11328C08E2F8068089585FD03C0982F9F7304C0E0
S11328D0982F91959F71919520E030E0822FF90116
S11328E0E851FE4FE4919E1724F0E91744F4815017
S11328F008952F5F3F4F2031310581F780E008951F
S113290084E08093442423E020934B248FEF9FEFB3
S11329108093392490933A2480933C2490933D24CB
S11329208BE08093462480E098EFAFEFB7E080938C
S1132930522490935324A0935424B093552410927A
S113294038248AE091E080933624909337248AE0F7
S113295080934E2482E08093452485E0809348242C
S113296020934C2483E80E94361480932D2481E024
S113297080933B241092472408951F93CF93DF93B1
S113298082E2609139240E94CA0B83E260913A2466
S11329900E94CA0BCEE2D4E214E2812F69910E9414
S11329A0CA0B1F5F1C32C9F780E260913C240E946D
S11329B0CA0B81E260913D240E94CA0B88E060E664
S11329C045E020913B240E947D0C8FE26FE040E0C3
S11329D020914B240E947D0C8EE268E043E020911C
S11329E047240E947D0C8FE260EF44E0209148244C
S11329F00E947D0C88E06FE140E0209146240E9413
S1132A007D0C80912D240E946314282F85E06FE0B3
S1132A1040E00E947D0CDF91CF911F910895FB014E
S1132A20873009F45FC0883090F4833009F44DC0D6
S1132A30843030F48130C9F1823008F043C032C0B0
S1132A40853009F448C0863008F04FC041C0803555
S1132A50F9F0813540F48E34A9F08F34B0F48B3022
S1132A6009F06AC064C0873509F442C0883520F48F
S1132A70833509F061C011C08935E9F1803F09F05F
S1132A805BC03CC08091442454C080914B2451C00D
S1132A908091392490913A2422C080913C249091D1
S1132AA03D241DC08091462444C0809152249091BD
S1132AB05324A0915424B091552480839183A283FC
S1132AC0B38338C080912D2434C080913B2431C01D
S1132AD0809138242EC080913624909137248083AD
S1132AE0918328C08091452424C080914E2421C024
S1132AF0809148241EC080914C241BC080912E24B8
S1132B00808380912F2481838091302482838091DB
S1132B103124838380913224848380913324858378
S1132B2080913424868380913524878303C08091E7
S1132B304724808380E0089584EF08951F93CF9302
S1132B40DF93EB018E3431F0893541F48881809331
S1132B504C24E0C0888180934424DCC020914D241F
S1132B602F3009F4D9C08B3009F4CCC08C3080F4F8
S1132B70823009F491C0833020F4882309F446C0DC
S1132B80CDC0833009F494C0843009F0C7C06DC04F
S1132B90833561F1843530F48F3459F0803509F090
S1132BA0BDC016C0873509F46AC0803F09F0B6C0BD
S1132BB086C0988190934B2480914824891710F4FF
S1132BC080934B248FE26FE040E020914B24A0C01F
S1132BD088819981682F8093392490933A2482E2E2
S1132BE00E94CA0B83E260913A240DC088819981C6
S1132BF0682F80933C2490933D2480E20E94CA0B6A
S1132C0081E260913D240E94CA0B84C080915724C4
S1132C10882309F085C080E098EFAFEFB7E0088023
S1132C2004C0B695A795979587950A94D2F78170B5
S1132C309070009709F476C0283039F088E00E943B
S1132C4094108830D9F716E101C018E02881209348
S1132C50462488E06FE140E00E947D0C183009F4BE
S1132C6059C086E10E94941055C08091572488234E
S1132C7009F056C08881882309F455C053C02881BF
S1132C802093482480914B24281710F420934B243C
S1132C908FE260EF44E03CC088810E943614809348
S1132CA02D240E946314282F85E06FE040E030C09B
S1132CB0288120933B2488E060E645E029C0888190
S1132CC080932E24898180932F248A8180933024B9
S1132CD08B81809331248C81809332248D818093E5
S1132CE033248E81809334248F8180933524CEE2E3
S1132CF0D4E214E2812F69910E94CA0B1F5F1C3237
S1132D00C9F708C02881209347248EE268E043E095
S1132D100E947D0C80E007C081E805C084EF03C0F9
S1132D2086E801C088EEDF91CF911F9108950F933B
S1132D301F93CF93DF9386E00E9494108630D9F7D7
S1132D4085E160E847E020E00E947D0C009149069F
S1132D50809149068C7FE0E4F6E0818718E0C0E0CA
S1132D60D0E086E060E645E00E94650C9E01220FFB
S1132D70331F220F331FC82FD0E0C22BD32B0000E8
S1132D80000000000000000000000000000000003F
S1132D9000000000000000000000000000001150CE
S1132DA001F783E00E9494108FE00E94E90BE0E4B5
S1132DB0F6E081E084870187CE010E941E1ADF912C
S1132DC0CF911F910F910895EF92FF920F931F934C
S1132DD0DF93CF930F920F92CDB7DEB7F82E81E039
S1132DE065E170E041E050E09E012F5F3F4F0E949B
S1132DF0720600E416E088E0F80186838CE791E02F
S1132E000E94BE07EE24E394F801E68281E090E09C
S1132E100E94BE07F801E58200E084E690E00E948B
S1132E20BE0781E06FE140E00E94650C0A30C9F002
S1132E30883011F00F5FF1CF80934D242981222334
S1132E40D1F082E16FE040E00E947D0C14C00E944A
S1132E5080140E94BD141092572410923E2480E0E6
S1132E6001C085E80F900F90CF91DF911F910F91D2
S1132E70FF90EF9008950E94971683E060E344E08A
S1132E8020E00E947D0C83E068E043E020E00E94A3
S1132E907D0C83E067E040E021E00E947D0C0E940D
S1132EA0191A682F8DE29A830E94CA0B8EE267E09A
S1132EB040E09A81292F0E947D0C80E00E94D7185F
S1132EC00E94FA188EE260E245E021E00E947D0C47
S1132ED08CE060E847E021E00E947D0C84E062E041
S1132EE041E021E00E947D0C8EE06CE00E94CA0B60
S1132EF08DE063E040E021E00E947D0C8AE06FE019
S1132F0040E023E00E947D0C8DE068E043E021E096
S1132F100E947D0C8DE064E042E021E00E947D0C83
S1132F20FF2009F496CF93CF0E94E416882359F02A
S1132F301CC08FE394E260E070E00E94790D00977A
S1132F4011F00E94D90C80914324882391F783EADD
S1132F5098E10E94EC05E0E4F6E081E0848780914A
S1132F6049068360818780E0089585E808951F936A
S1132F70CF93DF930E945C06882309F0DFC0C0E48E
S1132F80D6E011E01D8388E08E838AE491E00E94FC
S1132F90BE071E8381E090E00E94BE071D831AE0F5
S1132FA003C0115009F4CAC084E690E00E94BE0731
S1132FB08DE10E94E90B8230A1F78CE10E94E90BBC
S1132FC0833079F782E068E00E94CA0B10E084E65F
S1132FD090E00E94BE0781E06FE140E00E94650C32
S1132FE01A3009F4ABC0883011F01F5FF0CF809322
S1132FF04D2481E060E070E048E050E02EE234E2ED
S11330000E94720681E00E94E416882351F096C063
S1133010CEE2D4E20E94191A899384E2C633D80717
S1133020C9F780912E2420912F245091302460914F
S1133030312470913224E0913324F0913424A0910E
S11330403524382F315041E0381708F040E0822F02
S1133050815091E0821708F090E0480F21E0481772
S113306008F020E0922B252F215081E0251708F04D
S113307080E0592F520F91E0521708F090E0892B0D
S1133080262F215091E0261708F090E0682F620F58
S113309081E0621708F080E0982B272F215081E00F
S11330A0271708F080E0792F720F91E0721708F06B
S11330B090E0892B2E2F215091E02E1708F090E0FC
S11330C0E82FE20F81E0E21708F080E0982B2F2F21
S11330D0215081E02F1708F080E0920FF1E0921761
S11330E008F0F0E08F2BA195A81779F49F3F69F4BD
S11330F0EF3F59F47F3F49F46F3F39F45F3F29F4C0
S11331004F3F19F43E3F08F083CF83EA98E10E94D1
S1133110EC05809149068360E0E4F6E081870E9433
S1133120A00C8AE80E94D20C809305249093062474
S11331308FE394E20E94570D80E001C085E8DF919F
S1133140CF911F9108958FE00E94E90B83FF0FC078
S113315020915724213041F486FF02C081E001C050
S113316080E00E94171408950E94E612089582FFD9
S113317014C08DE060E847E00E94650C882339F4B0
S11331808DE063E040E021E00E947D0C08958DE035
S113319063E040E022E00E947D0C08958FE00E94ED
S11331A0E90B84FF03C081E08093562408958823AB
S11331B0C9F480914D248F30B9F08091572488232D
S11331C0A9F410923E2488E00E9494108830D9F724
S11331D080E00E94AC078FE00E9494108F3041F48D
S11331E080E0089588EE089581E8089586E80895BA
S11331F086E8089580914D248F3051F488E00E9430
S11332009410883039F481E00E94AC0780E008957E
S113321082E8089585E80895909157249923B9F494
S1133220883031F40E94941010923E2488E008956E
S11332308091052490910624009721F086E10E9454
S1133240941003C081E080933E2486E0089586E8CC
S1133250089508950F93DF93CF93CDB7DEB76097AA
S1133260CDBFDEBF002309F459C029833A834B83C1
S11332705C836D837E838F839887E0E2E01B2D81DE
S11332803E814F8158851E16BCF01D861E861F8602
S1133290188A8E2F992787FD9095909581959F4F39
S11332A004C056954795379527958A95D2F729876F
S11332B03A874B875C872AC0CA01B901002E04C033
S11332C096958795779567950A94D2F76D877E874B
S11332D08F87988BDA01C90104C0880F991FAA1F30
S11332E0BB1FEA95D2F729813A814B815C8104C0E6
S11332F056954795379527950A95D2F7822B932BA8
S1133300A42BB52B89879A87AB87BC8729853A85F7
S11333104B855C856D857E858F8598896096CDBF4C
S1133320DEBFCF91DF910F910895AA1BBB1B51E122
S113333007C0AA1FBB1FA617B70710F0A61BB70B21
S1133340881F991F5A95A9F780959095BC01CD01C6
S11333500895A1E21A2EAA1BBB1BFD010DC0AA1FD2
S1133360BB1FEE1FFF1FA217B307E407F50720F0EA
S1133370A21BB30BE40BF50B661F771F881F991F65
S11333801A9469F760957095809590959B01AC01AE
S1133390BD01CF010895AF92BF92CF92DF92EF9219
S11333A0FF920F931F93CF93DF93EC016881798190
S11333B08A819B81611571058105910521F464E27F
S11333C079ED8BE597E02DE133EF41E050E00E9489
S11333D02C1F79018A0127EA31E440E050E00E9481
S11333E00D1F5B016C01C801B7012CEE34EF4FEFE8
S11333F05FEF0E940D1F6A0D7B1D8C1D9D1D97FFA5
S113340004C06150704080409048688379838A8307
S11334109B837F77CB01DF91CF911F910F91FF9019
S1133420EF90DF90CF90BF90AF9008950E94CB199A
S1133430089581E491E20E94CB190895A0E0B0E0E0
S11334408093412190934221A0934321B09344213E
S11334500895FB01DC0104C08D910190801921F4D1
S113346041505040C8F7881B990B0895FB01DC01BB
S113347002C001900D9241505040D8F70895DC01EC
S113348001C06D9341505040E0F708950F931F938E
S1133490CF93DF938C01EB01009711F42097C9F1CE
S11334A081E090E06EE070E00E94151DFC019C013B
S11334B0009789F180E88383209771F0C287D387CE
S11334C081E883838091582490915924009721F4B2
S11334D0E0935824F093592401151105E1F0008775
S11334E0118783818260838380915A2490915B2425
S11334F0009789F4E0935A24F0935B2480915C2430
S113350090915D24009739F4E0935C24F0935D245A
S113351002C020E030E0C901DF91CF911F910F91EB
S11335200895DF93CF93CDB7DEB7FE013696619150
S1133530719180915A2490915B24AF010E940B1BDE
S1133540CF91DF91089560915A2470915B240E9479
S1133550831E0895EF92FF920F931F93CF93DF93EF
S11335608C01E0915A24F0915B24838181FF1FC078
S1133570C0E0D0E00AC0DB011896ED91FC911997E8
S11335801995009711F0CFEFDFEFF80181918F01CA
S113359060915A2470915B24882369F7DB011896A3
S11335A0ED91FC9119978AE01995009711F0CFEFEE
S11335B0DFEFCE01DF91CF911F910F91FF90EF903C
S11335C008950F931F93DF93CF93CDB7DEB72E9754
S11335D0CDBFDEBF0E891F8986E08C8309831A83E1
S11335E08FEF9FE78D839E839E01265E3F4FCE0122
S11335F00196688D798DA9010E940B1BEF81F885D6
S1133600E00FF11F10822E96CDBFDEBFCF91DF9168
S11336101F910F9108952F923F924F925F926F9254
S11336207F928F929F92AF92BF92CF92DF92EF924E
S1133630FF920F931F93DF93CF93CDB7DEB72C97F1
S1133640CDBFDEBF6C011B018A01FC01168217820B
S1133650838181FFD1C12E010894411C511CF601C4
S11336609381F10193FD859193FF81911F0188233B
S113367009F4BEC1853239F493FD859193FF81919C
S11336801F01853229F490E0B6010E94831EE7CF22
S1133690EE24FF2420E02032B0F48B3269F08C3227
S11336A028F4803251F0833271F40BC08D3239F03A
S11336B0803349F421602CC02260246029C0286032
S11336C027C0206125C027FD2CC0382F30533A3045
S11336D098F426FF08C08E2D880FE82EEE0CEE0C11
S11336E0E80EE30E15C08F2D880FF82EFF0CFF0C8B
S11336F0F80EF30E20620CC08E3221F426FD78C140
S1133700206406C08C3611F4206802C0883649F45F
S1133710F10193FD859193FF81911F01882309F0A5
S1133720BACF982F9554933018F09052933028F4D0
S11337300C5F1F4FFFE3F9830DC0833631F08337ED
S113374071F0833509F060C022C0F801808189835B
S11337500E5F1F4F420171E0A72EB12C16C062E02C
S1133760662E712C600E711EF8018080918026FFF8
S113377003C06E2D70E002C06FEF7FEFC4012C8791
S11337800E94781E5C0183012C852F7717C052E0BC
S1133790652E712C600E711EF8018080918026FFC9
S11337A003C06E2D70E002C06FEF7FEFC4012C8761
S11337B00E946D1E5C012C852068830123FD20C0BE
S11337C008C080E290E0B6012C870E94831EFA9420
S11337D02C858F2D90E0A816B90698F311C0F4013A
S11337E027FD859127FF81914F0190E0B6012C8739
S11337F00E94831E2C85F110FA940894A108B10844
S1133800A114B10461F7F1C0843611F0893649F589
S113381027FF08C0F80160817181828193810C5F68
S11338201F4F09C0F80160817181882777FD809559
S1133830982F0E5F1F4F4FE6B42EB22297FF09C098
S113384090958095709561957F4F8F4F9F4FF0E8CD
S1133850BF2AA2012AE030E00E94AF1E782E74181D
S113386045C0853731F43FEEB32EB2222AE030E072
S113387025C099EFB92EB2228F36C1F0803720F4DB
S1133880883509F0B5C00DC0803721F0883709F0BC
S1133890AFC002C020E1B22AB4FE0BC084E0B82A53
S11338A008C0B4FE09C0E6E0BE2A06C028E030E045
S11338B005C020E130E002C020E132E0B7FE08C0DC
S11338C0F80160817181828193810C5F1F4F07C071
S11338D0F8016081718180E090E00E5F1F4FA201CA
S11338E00E94AF1E782E7418FFE7BF22B6FE0BC0ED
S11338F02EEFB2227E1438F4B4FE07C0B2FC05C029
S11339008FEEB82202C0A72C01C0AE2C8B2D90E004
S1133910B4FE0DC0FE01E70DF11D2081203319F422
S1133920E9EEBE2209C0A394B2FE06C004C08678A4
S11339309070009709F0A3948B2C9924B3FC14C0C5
S1133940B0FE0FC0AF1428F4E72CEF0CEA18AF2C2C
S113395008C0E72C06C080E290E0B6010E94831EF6
S1133960A394AF14C0F304C0AF1410F4FA1801C048
S1133970FF2484FE0FC080E390E0B6010E94831E02
S113398082FE1FC081FE03C088E590E010C088E776
S113399090E00DC0C40186789070009791F081FC8E
S11339A002C080E201C08BE2B7FC8DE290E0B60178
S11339B00E94831E06C080E390E0B6010E94831E2D
S11339C0EA947E14C0F37A94F201E70DF11D80812C
S11339D090E0B6010E94831E7720A9F706C080E21A
S11339E090E0B6010E94831EFA94FF20C1F737CEFF
S11339F0F6012681378102C02FEF3FEFC9012C96D3
S1133A00CDBFDEBFCF91DF911F910F91FF90EF905B
S1133A10DF90CF90BF90AF909F908F907F906F90EA
S1133A205F904F903F902F900895EF92FF920F93E5
S1133A301F93CF93DF93689F8001699F100D789F38
S1133A40100D1124C8010E943A1DE82EE7017E01E1
S1133A50F92EE701209731F08E2D60E070E0A80187
S1133A600E943F1ACE01DF91CF911F910F91FF90D9
S1133A70EF900895CF93DF938230910510F482E0A4
S1133A8090E0E0916024F091612440E050E020E077
S1133A9030E026C06081718168177907E0F068170B
S1133AA0790781F4828193812115310531F0D9019F
S1133AB012968D939C9313972BC0809360249093BC
S1133AC0612426C04115510519F06417750718F4CF
S1133AD0AB01E901DF019F0172816381E72FF62FBA
S1133AE03097C1F64115510501F1481B590B44307B
S1133AF0510580F412968D919C911397209719F09B
S1133B008A839B8304C08093602490936124FD0185
S1133B10329646C0FD01E40FF51F81939193425004
S1133B2050404D935C9311973BC020915E2430919B
S1133B305F242115310541F420914721309148211A
S1133B4020935E2430935F242091492130914A21AF
S1133B502115310541F42DB73EB7409145215091CF
S1133B604621241B350BE0915E24F0915F24E2177B
S1133B70F307A0F42E1B3F0B2817390778F0AC018C
S1133B804E5F5F4F2417350748F04E0F5F1F409379
S1133B905E2450935F248193919302C0E0E0F0E0AF
S1133BA0CF01DF91CF910895CF93DF93009709F46C
S1133BB091C0FC013297128213826091602470914B
S1133BC061246115710581F420813181280F391F29
S1133BD080915E2490915F248217930799F5E09376
S1133BE05E24F0935F2476C0DB0180E090E002C0A5
S1133BF0CD01D901AE17BF0748F412962D913C911F
S1133C00139721153105A1F7CD0121C0A283B383F8
S1133C10EF01499159919E01240F351FA217B30753
S1133C2079F42D913C911197240F351F2E5F3F4F4E
S1133C302083318312962D913C91139722833383F1
S1133C40009729F4E0936024F093612443C0DC01DD
S1133C501296ED93FC9313974D915D91A40FB51FAC
S1133C60EA17FB0769F420813181240F351F2E5F89
S1133C703F4FEC0128833983228133812A833B839C
S1133C80E0E0F0E002C0FB01BC01DB0112968D9183
S1133C909C9113970097B9F79B012E5F3F4F8D912D
S1133CA09C911197820F931F40915E2450915F2441
S1133CB04817590779F4309729F410926024109228
S1133CC0612402C0128213822250304020935E2469
S1133CD030935F24DF91CF910895FC0105906150EA
S1133CE070400110D8F7809590958E0F9F1F08950E
S1133CF0FC016150704001900110D8F780959095B7
S1133D008E0F9F1F08950F931F93CF93DF938C0102
S1133D10EB018B8181FF1BC082FF0DC02E813F818F
S1133D208C819D812817390764F4E881F981019316
S1133D30E883F98306C0E885F985802F19950097F3
S1133D4031F48E819F8101968E839F8302C00FEF91
S1133D501FEFC801DF91CF911F910F910895FA01D0
S1133D60AA27283051F1203181F1E8946F936E7FB6
S1133D706E5F7F4F8F4F9F4FAF4FB1E03ED0B4E0A7
S1133D803CD0670F781F891F9A1FA11D680F791FE8
S1133D908A1F911DA11D6A0F711D811D911DA11DF9
S1133DA020D009F468943F912AE0269F1124301909
S1133DB0305D3193DEF6CF010895462F4770405DA4
S1133DC04193B3E00FD0C9F7F6CF462F4F70405D53
S1133DD04A3318F0495D31FD4052419302D0A9F7AE
S1133DE0EACFB4E0A6959795879577956795BA95A8
S1133DF0C9F700976105710508959B01AC010A2E6E
S1133E0006945795479537952795BA95C9F7620F44
S1133E10731F841F951FA01D0895629FD001739F77
S1133E20F001829FE00DF11D649FE00DF11D929F52
S1133E30F00D839FF00D749FF00D659FF00D992791
S1133E40729FB00DE11DF91F639FB00DE11DF91FB5
S1133E50BD01CF011124089597FB092E05260ED02C
S1133E6057FD04D076DA0AD0001C38F450954095FA
S1133E70309521953F4F4F4F5F4F0895F6F790953A
S1133E808095709561957F4F8F4F9F4F0895F8945B
S1053E90FFCF5E
S1133E924170702073746172746564207769746808
S1133EA2207365637572697479206F6E0A0D00411F
S1133EB27070207374617274656420776974682009
S1133EC27365637572697479206F666600546F67EF
S1133ED2676C65206C696768742100536563757249
S1133EE2697479206F6E3A2000527820756E6B6E79
S1133EF26F776E206672616D6520776974686F757D
S1133F0274207365637572697479005278207365DD
S1133F1263757265642C2064656372797079746563
S1133F22643A20004672616D6520256C753A204D15
S1133F3249432077726F6E670A005365637572692D
S1133F427479206F66663A2000527820756E6B6E23
S1133F526F776E206672616D65207769746820736D
S1133F626563757269747900527820706C61696E48
S1133F72746578743A2000536563757269747920A4
S1133F826F6E3A2054782073656375726564206F8E
S1133F926B005365637572697479206F66663A20A3
S1133FA2547820706C61696E74657874206F6B004C
S1133FB201242101A1A3A5A73C5E70B2015293C4BE
S1133FC2844820100001020201008785E185E98509
S10F3FD2850100000020006224000000B3
S9030000FC
