:100000000C94D1000C94F0000C94F0000C94F000CF
:100010000C94F0000C94F0000C94F0000C94F000A0
:100020000C94F0000C94F0000C94F0000C94F00090
:100030000C94F0000C94F0000C94F0000C94F00080
:100040000C94F0000C94F0000C94F0000C94F00070
:100050000C94F0000C94F0000C94F0000C94F00060
:100060000C94F0000C94F0000C94F0000C94F00050
:100070000C94F0000C94F0000C94F0000C94F00040
:100080000C94F0000C94F0000C94F0000C94F00030
:100090000C94BB040C94F0000C94E7040C94F00056
:1000A0000C94F0000C94F0000C94F0000C94F00010
:1000B0000C94F0000C94F0000C94F0000C94F00000
:1000C0000C94F0000C94F0000C94F0000C94F000F0
:1000D0000C94F0000C94F0000C94F0000C94F000E0
:1000E0000C94F0000C94FC050C9406060C94F2059C
:1000F0000C9471050C949C050C9410060C94460508
:100100000C94C7050C94F30A0C941C0B0C94F0008F
:100110000C94F0000C94F0000C9424060C941A0635
:1001200003020201010000FFFEFDFCFBF9F7F4EF02
:10013000341B36180000BB200000B11E1A2400003A
:100140003A246522F3278F2A00000000562500007C
:100150000D1A1D1A00000000FC198C19A519DE19D2
:100160000000000000002B1900000F197A191B195C
:100170005C194D1900006B19010401010102010114
:100180000101010101010101040108020101010154
:100190000201010201020101020102020101010149
:1001A000080011241FBECFEFD1E4DEBFCDBF12E0A7
:1001B000A0E0B2E0E2EAF8E600E00BBF02C0079080
:1001C0000D92AA37B107D9F716E0AAE7B2E001C04D
:1001D0001D92A337B107E1F70E9487030C944F34B7
:1001E0000C94000082E090E061E070E00E943A0B25
:1001F0000895EF92FF920F931F93662399F482E084
:1002000090E060E070E00E943A0B84E040E251EA46
:1002100067E070E020E030E002EF10E0EE24FF2421
:100220000E9472091F910F91FF90EF900895EF9235
:10023000FF920F931F9381E090E062E070E00E94D4
:100240003A0B84E040E251EA67E070E020E030E001
:1002500007E111E0EE24FF240E9472091F910F9123
:10026000FF90EF900895EF92FF920F931F936623F4
:10027000D9F480E092E00E94D22F84E00E946608C8
:1002800081E090E060E070E00E943A0B83E040E89B
:1002900054E86EE170E020E030E008EA12E0EE247D
:1002A000FF240E94720903C081E00E94F82C1F9174
:1002B0000F91FF90EF9008956F927F928F929F928F
:1002C000AF92BF92CF92EF92FF920F931F93DF9363
:1002D000CF93CDB7DEB7CF5FD0400FB6F894DEBF77
:1002E0000FBECDBF5C0180917B0290917C02A091FA
:1002F0007D02B0917E020097A105B10509F042C0D0
:1003000080E1EFE7F2E0DF011D928A95E9F708E06E
:10031000C02E18E0812E912CCA940C2D10E074018F
:10032000E01AF10AEFE7F2E0EE0EFF1EB3E0000F75
:10033000111FBA95E1F72091DB053091DC05409162
:10034000DD055091DE056091DF057091E00580913B
:10035000E1059091E2050E94302ED7012C93CC202C
:10036000D9F68EE280938C02F5018083D501159633
:10037000E0E8F2E088E001900D928150E1F7D501CC
:100380001D961C9240917B0250917C0260917D02EF
:1003900070917E02A4E0CA2EFCE0EF2EF12C04E066
:1003A00010E0CA942C2D30E0C901E3E0880F991FBA
:1003B000EA95E1F73A014B0104C09694879477944B
:1003C00067948A95D2F7F701E21BF30BE158FD4FD2
:1003D0006082F801E21BF30BEA0DFB1D6082CC206A
:1003E00001F70E94CC1680915B0290915C02892BF0
:1003F00011F40E949D0C8DB79EB708970FB6F89424
:100400009EBF0FBE8DBFEDB7FEB731968E010F5F59
:100410001F4FADB7BEB712961C930E9311978DE187
:1004200092E09383828380917B0290917C02A091E1
:100430007D02B0917E0284839583A683B7830E9458
:100440000730EDB7FEB736960FB6F894FEBF0FBE75
:10045000EDBF128301830E94C02F75010F900F9092
:100460004CE2842E42E0942E00D000D000D0EDB7B4
:10047000FEB73196ADB7BEB711960C931197129691
:100480001C9393828282D7011E968C91848315825D
:100490000E9407300F900F900F900F90EDB7FEB7AE
:1004A000018312830E94C02FC3940894E11CF11CA5
:1004B0000F900F90F4E0CF16B9F6C80160E372E038
:1004C0000E946D2F00D0ADB7BEB711960C93119757
:1004D00012961C930E94C02F0F900F9040915B02C8
:1004E00050915C02C5016FE772E02EE004E036E057
:1004F000E32ECC240E94450D10925C0210925B0208
:1005000080917B0290917C02A0917D02B0917E024D
:100510000196A11DB11D80937B0290937C02A09354
:100520007D02B0937E02C150DF4F0FB6F894DEBF5C
:100530000FBECDBFCF91DF911F910F91FF90EF9034
:10054000CF90BF90AF909F908F907F906F900895C5
:10055000EF92FF920F931F93DF93CF93CDB7DEB748
:100560002B970FB6F894DEBF0FBECDBF82E0898314
:100570008EEC9AEF9B838A8380918F0290919002F8
:100580009D838C830E94402F8093A7020E94402F5E
:100590008093A8020E94402F8093A9020E94402FBE
:1005A0008093AA0289E9E82E82E0F82EC7010E9412
:1005B0005C0100917A020F5F00937A0282E0BE0133
:1005C0006F5F7F4F4AE19701EE24E3940E947A2DFA
:1005D00083E040E854E86EE170E020E030E008EAB3
:1005E00012E0EE24FF240E9472092B960FB6F894B5
:1005F000DEBF0FBECDBFCF91DF911F910F91FF9056
:10060000EF900895CF92DF92EF920F93CF93DF9305
:10061000882309F03DC0E60120E031C08B8584319C
:1006200061F58C85882349F589819A818E5C9A4F82
:1006300021F58D859E8597FF20C08881823039F411
:100640008B819C819093900280938F020BC08330AA
:1006500059F5A1E9B2E0FE01339688E001900D92D0
:100660008150E1F782E392E00E94D22F8B856C8566
:10067000AE0120E80E94432D1AC061962F5F2E150F
:1006800068F281E040E058EF6FEF77E025E008C0C6
:100690008A3E51F481E040E058EF6FEF77E026E0CA
:1006A00000E00E947B2C03C081E00E94F82CDF91C7
:1006B000CF910F91EF90DF90CF900895EF92FF923E
:1006C0000F931F938823D9F480E492E00E94D22FE5
:1006D00081E040E058EF6FEF77E025E000E00E9416
:1006E0007B2C84E040E251EA67E070E020E030E0FB
:1006F00007E111E0EE24FF240E94720903C081E0AB
:100700000E94F82C1F910F91FF90EF9008950E9486
:100710001F2E882311F00E942E060E94330B80E0CA
:1007200090E060E070E00E943A0B81E090E061E0D0
:1007300070E00E943A0B82E090E061E070E00E947D
:100740003A0B789481E00E942605882311F00E94DC
:100750002E0681EF93E068ED73E00E94742F80E035
:1007600090E00E94D80382E592E00E94D22F81E0BF
:100770000E94F82C0E94560E0E94092EFDCFDF9396
:10078000CF930F92CDB7DEB781E0BE016F5F7F4F91
:1007900041E00E941405813019F02FEF3FEF03C0B4
:1007A0008981282F30E0C9010F90CF91DF91089502
:1007B0000F931F93DF93CF930F92CDB7DEB78E01C8
:1007C0000F5F1F4F81E0B80141E00E9414058823AC
:1007D000C9F3898190E00F90CF91DF911F910F9124
:1007E00008950F931F93DF93CF930F92CDB7DEB78A
:1007F00089838E010F5F1F4F81E0B80141E00E94A5
:100800001D058823C9F380E090E00F90CF91DF9120
:100810001F910F9108959B01AC016050774F824C5E
:100820009F4FF2E0660F771F881F991FFA95D1F747
:10083000E3E0220F331F441F551FEA95D1F70E94B2
:10084000C32E215030403093CD002093CC0082E065
:100850008093C800EAECF0E096E0908388ED809306
:10086000C90080ED8AB980EC8BB990830895DC01D2
:100870008091C9008F7B8093C9002091A60580914B
:10088000A705821730F0275F922F981B892F2950D8
:1008900005C02150922F981B892F2F5F482F681772
:1008A00008F4462F342F12C09091A705E92FF0E0ED
:1008B000EE56FA4F8C918083993019F41092A70567
:1008C00003C09F5F9093A70531501196332361F7C2
:1008D0008091AA05882351F4E22FF0E0EE56FA4FFA
:1008E00080818093CE0081E08093AA058091C90029
:1008F00080648093C900842F0895DC012091AB05AA
:10090000222311F480E008958091C9008F778093AD
:10091000C9002A3058F08091A9058093A8058AE083
:100920008093AB056A3020F02AE003C0261708F058
:10093000262F322F17C0E091A805F0E0EE56FA4FAF
:1009400082858C939091A8059F5F9093A8058091D4
:10095000AB0581508093AB059A3011F41092A80535
:1009600011963150332339F78091C9008068809304
:10097000C900822F08951F920F920FB60F920BB6E7
:100980000F9211248F939F93EF93FF939091A9055A
:100990008091AB058F5F8093AB058091CE00E92FEE
:1009A000F0E0EE56FA4F8287993019F41092A905BB
:1009B00003C09F5F9093A905FF91EF919F918F9145
:1009C0000F900BBE0F900FBE0F901F9018951F92A7
:1009D0000F920FB60F920BB60F9211248F93EF93D5
:1009E000FF938091A605893019F41092A60503C0E3
:1009F0008F5F8093A605E091A6058091A705E81773
:100A000039F0F0E0EE56FA4F80818093CE0002C0BC
:100A10001092AA05FF91EF918F910F900BBE0F904E
:100A20000FBE0F901F901895813011F080E008954F
:100A3000CB01642F0E947D040895813011F080E085
:100A40000895CB01642F0E9437040895813011F07E
:100A500085E8089560E875E280E090E00E940B046C
:100A600080E008959093BC028093BB020895909318
:100A7000BE028093BD0208959093C0028093BF028E
:100A800008959093C2028093C10208951F920F921D
:100A90000FB60F920BB60F9211242F933F934F93E3
:100AA0005F936F937F938F939F93AF93BF93EF93D6
:100AB000FF93E091BB02F091BC020995FF91EF9189
:100AC000BF91AF919F918F917F916F915F914F9166
:100AD0003F912F910F900BBE0F900FBE0F901F9064
:100AE00018951F920F920FB60F920BB60F9211240A
:100AF0002F933F934F935F936F937F938F939F9326
:100B0000AF93BF93EF93FF93E091BD02F091BE02CC
:100B10000995FF91EF91BF91AF919F918F917F9137
:100B20006F915F914F913F912F910F900BBE0F905E
:100B30000FBE0F901F9018951F920F920FB60F9235
:100B40000BB60F9211242F933F934F935F936F93A4
:100B50007F938F939F93AF93BF93EF93FF93E09116
:100B6000BF02F091C0020995FF91EF91BF91AF9143
:100B70009F918F917F916F915F914F913F912F91B5
:100B80000F900BBE0F900FBE0F901F9018951F92E5
:100B90000F920FB60F920BB60F9211242F933F9323
:100BA0004F935F936F937F938F939F93AF93BF9375
:100BB000EF93FF93E091C102F091C2020995FF917A
:100BC000EF91BF91AF919F918F917F916F915F91C5
:100BD0004F913F912F910F900BBE0F900FBE0F9032
:100BE0001F9018951F920F920FB60F9211240F901D
:100BF0000FBE0F901F9018951F920F920FB60F9275
:100C000011240F900FBE0F901F9018951F920F92F6
:100C10000FB60F9211240F900FBE0F901F901895D2
:100C20001F920F920FB60F9211240F900FBE0F90CC
:100C30001F9018951F920F920FB60F9211240F90CC
:100C40000FBE0F901F9018951F920F920FB60F9224
:100C500011240F900FBE0F901F9018951EB88FEFA4
:100C60008DB98FEF9FEF0E9434078EB180958EB9BA
:100C7000F8CFCF92DF92EF92FF920F931F93CF9313
:100C8000DF937B018A016901892B11F088EE19C07D
:100C9000CA01860F971F8150904110F085E811C05E
:100CA000C0E0D0E00AC0CE018E0D9F1D0E943E32F2
:100CB000F601EC0FFD1F80832196C017D10798F332
:100CC00080E0DF91CF911F910F91FF90EF90DF9027
:100CD000CF900895CF92DF92EF92FF920F931F93E0
:100CE000CF93DF938C017B016A01CB01800F911FB1
:100CF0008150904110F085E816C0C0E0D0E00FC0F0
:100D0000C8010E943E32F601EC0FFD1F608186177C
:100D100019F0C8010E9446320F5F1F4F2196CE1571
:100D2000DF0570F380E0DF91CF911F910F91FF906D
:100D3000EF90DF90CF9008950E943C0908950E94A3
:100D4000AE060E94CF06A89588E10FB6F89480936E
:100D50006000109260000FBE80E008959FB7F89485
:100D6000E0E0F0E089E08093570084919FBF8F70AE
:100D7000823011F090E001C09FE080E80FB6F89457
:100D800080936100909361000FBE80E180933501F4
:100D9000809334018093330180933201089510923F
:100DA000C3021092D9058FEF8093C4028093C502CD
:100DB0008093C602E0EBF5E09FEF948311821082EE
:100DC000399685E0ED3DF807C1F780E28093B600E3
:100DD00088EA8093DC008FE08093F4009093F30026
:100DE0009093F2009093F10082E08093E000809174
:100DF000DF0082608093DF0008950895FC018091F8
:100E0000DE0080FDFCCF2091E100822F2091E200E6
:100E1000922F2091E300A22F2091E400B22F24E032
:100E2000880F991FAA1FBB1F2A95D1F78083918332
:100E3000A283B3830895FC012091E900822F2091C1
:100E4000EA00922F2091EB00A22F2091EC00B22F0C
:100E500034E0880F991FAA1FBB1F3A95D1F78083F2
:100E60009183A283B3830895AC018436910518F071
:100E700060E070E01EC07FB7F89461E01AC057FDD3
:100E800002C09A0102C02FEF3FE7C901880F991FE6
:100E9000909581959F4F9093250180932401FABBF3
:100EA000E0932101D09BFECF421B530B10922101F6
:100EB00002C0F1E0E2E04115510509F761117FBF81
:100EC000089520E090E0FC01B3E0EE0FFF1FBA951B
:100ED000E1F7E80FF91FE455FA4F84819581892BDA
:100EE00009F021E0822F0895AF92BF92CF92DF9256
:100EF000EF92FF920F931F938091C40290E0FC0148
:100F000013E0EE0FFF1F1A95E1F7E80FF91FE45504
:100F1000FA4FA080B180C280D3808091C302882321
:100F200009F46BC0D092F800C092F700B092F600BE
:100F3000A092F5008091DF0080FD08C081E08093E1
:100F4000E0008091DF0081608093DF002091E1006C
:100F5000822F2091E200922F2091E300A22F209176
:100F6000E400B22F9C01AD012F5F3F4F4F4F5F4F09
:100F7000DA01C9018A259B25AC25BD2580709070BA
:100F8000A070B87F0097A105B10531F4A216B30691
:100F9000C406D506C0F109C0D601C501B7705770A7
:100FA000281739074A075B0770F180915D01883087
:100FB00068F5E090C702F090C8020091C902109154
:100FC000CA020894E11CF11C011D111DEA14FB0466
:100FD0000C051D05D9F48091E100282F8091E200D5
:100FE000382F8091E300482F8091E400582F2E1570
:100FF0003F054007510779F706C08091DF008E7FDB
:101000008093DF0003C081E08093D9051F910F9189
:10101000FF90EF90DF90CF90BF90AF9008951F9317
:101020001FB7F8948091D905882309F44CC0109219
:10103000D9053091C302332309F445C08091C5021C
:101040008F3F59F48091C6028F3F39F48091C402DA
:101050008093C6028093C50212C02091C402809181
:10106000C60290E0FC0153E0EE0FFF1F5A95E1F736
:10107000E80FF91FE455FA4F20872093C6028091AC
:10108000C40290E0FC0143E0EE0FFF1F4A95E1F738
:10109000E80FF91FE455FA4F80858093C4028091D0
:1010A000C60290E0FC0123E0EE0FFF1F2A95E1F756
:1010B000E80FF91FE455FA4F8FEF808731503093D6
:1010C000C3020E9474071FBF1F910895FF920F93E0
:1010D0001F93182F853010F08AE8C5C0FFB6F8942A
:1010E0000E940F080091C302002309F4C0C0409180
:1010F000C402242F842F302F1217F1F5212F30E056
:10110000141781F4F901A3E0EE0FFF1FAA95E1F790
:10111000E20FF31FE455FA4F80858093C4020E94CA
:10112000740718C090E0DC01E3E0AA0FBB1FEA954A
:10113000E1F7A80FB91FA455BA4FF90173E0EE0FFC
:10114000FF1F7A95E1F7E20FF31FE455FA4F808510
:1011500018968C93812F90E0FC0163E0EE0FFF1F47
:101160006A95E1F7E80FF91FE455FA4F8FEF808792
:1011700001500093C30262C0822F90E0FC0153E053
:10118000EE0FFF1F5A95E1F7E80FF91FE455FA4FEC
:1011900050853150822F09F46AC0252FADCF121728
:1011A000D1F52091C6021317B1F4121721F48FEF75
:1011B0008093C6020DC0812F90E0FC0143E0EE0F4A
:1011C000FF1F4A95E1F7E80FF91FE455FA4F8085B4
:1011D0008093C50233C0842F90E0DC0133E0AA0F76
:1011E000BB1F3A95E1F7A80FB91FA455BA4F812F3D
:1011F00090E0FC0103E0EE0FFF1F0A95E1F7E80F16
:10120000F91FE455FA4F808518968C931217B1F4A4
:101210004093C60213C0822F90E0FC0173E0EE0FF2
:10122000FF1F7A95E1F7E80FF91FE455FA4F422FB7
:1012300020852F3F09F0B3CF80E00FC0812F90E0D1
:10124000FC0163E0EE0FFF1F6A95E1F7E80FF91F5D
:10125000E455FA4F1582148281E0FFBE882311F411
:1012600089E801C080E01F910F91FF9008953091AF
:10127000C502232F432FDDCF1F930E940F081FEFBE
:1012800025C06FB7F894822F90E0FC01B3E0EE0F19
:10129000FF1FBA95E1F7E80FF91FE455FA4F2085D3
:1012A0004481558186819781108715821482178227
:1012B00016822F3F09F43FEF6FBF4115510551F0E2
:1012C0003093C6022093C502FA0109953091C602F7
:1012D0002091C5022F3FA9F63093C6022093C50284
:1012E0001F9108952F923F924F925F926F927F923B
:1012F0008F929F92AF92BF92CF92DF92EF92FF9226
:101300000F931F93DF93CF9300D000D00F92CDB7F0
:10131000DEB7582E1801FB82EA8204E0081710F4A9
:101320008AE820C12114310409F419C190E09D8399
:101330008C83FC01A3E0EE0FFF1FAA95E1F7E80FF5
:10134000F91FE455FA4F84819581892B11F088E8C3
:1013500009C1E4E07695679557954795EA95D1F7E9
:101360002115310529F02130310509F0F8C026C0DA
:10137000DB01CA010897A109B109885F9F4FAF4FF0
:10138000B74008F0EEC02091E100822F2091E200EA
:10139000922F2091E300A22F2091E400B22F7A0136
:1013A0008B01E80EF91E0A1F1B1F8FEF9FEFAFEF97
:1013B000BFE0E822F9220A231B2320C02091E1008C
:1013C000822F2091E200922F2091E300A22F209102
:1013D000E400B22F8A019B01081B190B2A0B3B0B5F
:1013E000D901C801BF700897A109B109885F9F4F53
:1013F000AF4FB74008F0B5C07A018B012FB72983F2
:10140000F8946FEF862E6FEF962E6FEFA62E6FE09B
:10141000B62E8E209F20A022B1220E940F0860903D
:10142000C4023FEF631671F04090C302C62CD62C65
:1014300077248FEF9FEFAFEFB7E0E822F9220A237E
:101440001B2367C05092C402EC81FD8153E0EE0F74
:10145000FF1F5A95E1F7AC81BD81EA0FFB1FE455F0
:10146000FA4F60865AC0BFEFDB1609F44DC06D2DF0
:1014700070E0FB0143E0EE0FFF1F4A95E1F7E60F36
:10148000F71FE455FA4F2081318142815381D50104
:10149000C40182279327A427B52780709070A0707D
:1014A000B87F0097A105B10539F4281539054A051B
:1014B0005B0508F46FC007C05770E216F306040717
:1014C000150708F467C0EC81FD8133E0EE0FFF1FC4
:1014D0003A95E1F70C811D81E00FF11FE455FA4FB9
:1014E000D0866D1419F45092C40217C08C2D90E070
:1014F000FC0123E0EE0FFF1F2A95E1F7E80FF91F2B
:10150000E455FA4F508609C08FEFDC2C7394CD2C34
:10151000D82E741408F4A7CF49C0EC81FD8193E064
:10152000EE0FFF1F9A95E1F72C813D81E20FF31F2B
:10153000E455FA4F80829182A282B382358224825E
:101540008A819B81978386838091C3028F5F80937A
:10155000C3020E94740799819FBF80E003C088EE98
:1015600001C08BE80F900F900F900F900F90CF91CC
:10157000DF911F910F91FF90EF90DF90CF90BF9080
:10158000AF909F908F907F906F905F904F903F9023
:101590002F900895FB0183E0EE0FFF1F8A95E1F77E
:1015A000E60FF71FE455FA4F8085B0CF8C2D90E001
:1015B000FC0103E0EE0FFF1F0A95E1F7E80FF91FAA
:1015C000E455FA4F5086EC81FD8113E0EE0FFF1FCA
:1015D0001A95E1F7AC81BD81EA0FFB1FE455FA4F84
:1015E0008FEF80879ACF1F920F920FB60F92112420
:1015F0002F933F938F939F938091E1009091E2000E
:101600002091E3003091E4008093C7029093C802D8
:101610002093C9023093CA028091C302882319F033
:1016200081E08093D9059F918F913F912F910F90E9
:101630000FBE0F901F9018951F920F920FB60F922A
:1016400011248F938FEF8093E4008093E3008093C5
:10165000E2008093E1008F910F900FBE0F901F90DA
:10166000189581E00895729A6A9A739A6B9A749A9F
:101670006C9A089581309105B9F08130910518F088
:101680000297B9F524C06130710549F061307105E8
:1016900020F06230710569F504C072980895729A5D
:1016A00008958EB194E010C06130710549F0613049
:1016B000710520F062307105E1F404C0739808955B
:1016C000739A08958EB198E089278EB90895613094
:1016D000710549F06130710520F06230710549F4FF
:1016E00004C074980895749A08958EB190E1892782
:1016F0008EB908956D9875980895892B19F021E099
:1017000030E00AC08CB1282F30E085E0369527956F
:101710008A95E1F721703070C9010895BC010097E6
:1017200021F083E495E00E94C30B089583E495E0E3
:1017300060E070E00E94580C08950F931F93CF93C0
:10174000DF9383E495E00E94BC0BC3E3D5E00BEC90
:1017500012E01983088383E495E0BE010E94C30B65
:10176000249606561F4F85E0C334D80791F7DF91C2
:10177000CF911F910F910895FC0111821082138265
:10178000128214820895CF93DF93DC01EB019FB79F
:10179000F89414968C911497882321F411967C93D5
:1017A0006E9306C01296ED91FC911397738362833A
:1017B0001396DC93CE9312971B821A8214968C9107
:1017C00014978F5F14968C939FBFDF91CF910895EC
:1017D0009F92AF92BF92CF92DF92EF92FF920F93C0
:1017E0001F93CF93DF938C015B016A019FB6F8943E
:1017F000DC0114968C91882319F4C0E0D0E04AC033
:10180000F801C081D18141155105B1F07E0111C0AF
:10181000D60112966D917C911397ED91FC91888180
:1018200099810995882359F47E018A819B819C01C5
:10183000E901209769F72EC0209761F17E01AB285E
:1018400049F5F801808191812A813B81C817D90728
:1018500019F43183208305C0D70113963C932E934E
:101860001297F80182819381C817D90711F4F38286
:10187000E282D80114968C911497815014968C931F
:1018800014978D919C911197892B21F413961C929A
:101890001E9212979FBECE01DF91CF911F910F91A3
:1018A000FF90EF90DF90CF90BF90AF909F90089502
:1018B000AB0160E070E00E94E80B0895AB0161E0CD
:1018C00070E00E94E80B0895CF93DF93EC010BC00A
:1018D000CE0160E070E00E94580C009711F41C8269
:1018E00005C00E948E0B8C81882391F7DF91CF91E8
:1018F00008950895FC0190E0819180933E019F5FDF
:101900009031D1F780914905806880933C018091A6
:101910003D0180FFFCCF0895FC0190E080913E01E5
:1019200081939F5F9031D1F7089580916A058F3040
:1019300019F480E00E94DB1608958091FA058093E7
:101940006A058F3011F40E94CC1680916D028823B5
:1019500019F0EAE5F5E002C0EAE4F5E090E08191F3
:1019600080933F019F5F9031D1F78091490580932B
:101970003C0108950F931F93DF93CF93CDB7DEB74C
:1019800060970FB6F894DEBF0FBECDBFDC01162FF7
:10199000042F0097F1F01092480582E080936D02C9
:1019A0002AE435E0AD0180E1FA010190AF01F901CF
:1019B00001929F018150C1F720E030E0FD01E20F6C
:1019C000F31F808180933F012F5F3F4F203131050E
:1019D000A9F7002321F0013009F047C00EC0809123
:1019E0006D02813079F5EAE4F5E0819180933F0161
:1019F00085E0EA35F807C9F725C080916D0281308E
:101A0000A1F1809148058823A1F410924905109214
:101A10003C01CE0101960E947A0CEAE5F5E0809146
:101A20003F01819385E0EA36F807C9F781E08093AA
:101A30004805EAE5F5E0819180933F0185E0EA36CB
:101A4000F807C9F700936D02123078F4802F880FE1
:101A5000880F880F88701295110F1072812B809358
:101A6000490580933C0181E001C080E060960FB69B
:101A7000F894DEBF0FBECDBFCF91DF911F910F91C4
:101A8000089581E080936B0508953F924F925F9295
:101A90006F927F928F929F92AF92BF92CF92DF927E
:101AA000EF92FF920F931F93DF93CF93CDB7DEB7E3
:101AB00062970FB6F894DEBF0FBECDBF4C015B013D
:101AC0003A01322ED02EFE2C80916B05882321F016
:101AD0000E949D0C10926B054F2D50E09A012370CF
:101AE00030702115310511F4EE240AC02F5F3F4FED
:101AF00081E090E002C0880F991F2A95E2F7E82E56
:101B0000487F452BA1F48114910489F0A114B104FC
:101B100071F0432C552482010D0D111D8E2D90E086
:101B20009A8B898B800F911F8038910520F00E943D
:101B3000950C81E0A3C080916E02882339F0611476
:101B4000710409F50E94950C82E098C0611471043B
:101B5000D1F040E130E04150E42FF0E0D301AE0F8E
:101B6000BF1FE459FA4F8C912081822790E0232FE8
:101B700030E0822B932B30E0892B09F031E04423B5
:101B800051F730936E0280916E02882379F0C30181
:101B900060E040E00E94BA0CACE6B5E0F30180E101
:101BA00001900D928150E1F710926E0281E0F501F3
:101BB0008083EE2061F08E2D90E0029795958795B9
:101BC00023E0880F991F2A95E1F7816080833320F5
:101BD00021F0F50180818064808384E0782E7F206D
:101BE000F50160801686CC20D1F4EE2051F0D78626
:101BF000080D191DC401B801A501232D0D2D0E944A
:101C00003F0F7720C1F181E0F5018083C401840D8D
:101C1000951DB5014E2D2D2D0E94590E2CC07720FB
:101C200059F081E0F5018083C401840D951DB50153
:101C30004E2D2D2D0E94590EEE20E9F0F501608207
:101C4000D786C4017E010894E11CF11CB701A501EF
:101C5000232D0D2D0E943F0F832D90E08D0D911DA2
:101C6000880D991DB70149895A890E94502F009704
:101C700011F083E003C00E94950C80E062960FB6DD
:101C8000F894DEBF0FBECDBFCF91DF911F910F91B2
:101C9000FF90EF90DF90CF90BF90AF909F908F908C
:101CA0007F906F905F904F903F9008950E94790CC5
:101CB00008954F925F926F927F928F929F92AF9210
:101CC000BF92CF92DF92EF92FF920F931F93DF9319
:101CD000CF93CDB7DEB760970FB6F894DEBF0FBED7
:101CE000CDBF5C016B01642E122F80E090E060E0BC
:101CF00040E00E94BA0C7724EE24FF24412E5524A4
:101D00004E010894811C911C25C07394D6011F9626
:101D10007C92C6010E947A0CC4010E948C0CC801FE
:101D20000131110514F080E190E0D501F401282F74
:101D300030E0A401420F531F04C08C919191892778
:101D40008D93E417F507C9F7A20EB31EE0EFFFEF7E
:101D5000EE0EFF1E8701040D151D10161106ACF2C4
:101D60006620E9F0D6011F961C92C6010E947A0CEB
:101D70008E010F5F1F4FC8010E948C0C20E030E0E5
:101D80000CC0F801E20FF31FD5018C9190818927D7
:101D9000F50181935F012F5F3F4F621691F76096C7
:101DA0000FB6F894DEBF0FBECDBFCF91DF911F916C
:101DB0000F91FF90EF90DF90CF90BF90AF909F90EA
:101DC0008F907F906F905F904F900895CF92DF92A9
:101DD000EF92FF920F931F93DF93CF93CDB7DEB7B0
:101DE00060970FB6F894DEBF0FBECDBF6C01F62E24
:101DF0008C01E62E07C0C8010E947A0C005F1F4FBD
:101E000080EFE80E8FE08E15B0F30F2D0F70F29477
:101E10009FE0F9222F2D30E084E0220F331F8A95B6
:101E2000E1F72C0D3D1D0023D9F010E07E01089450
:101E3000E11CF11CC701B901402F50E00E945D2F49
:101E4000E0E1F0E0E01BF10B9701200F311FC90129
:101E500060E070E0AF010E94662FC7010E947A0C1B
:101E600060960FB6F894DEBF0FBECDBFCF91DF9165
:101E70001F910F91FF90EF90DF90CF9008959F9268
:101E8000AF92BF92CF92DF92EF92FF920F931F9388
:101E9000DF93CF93CDB7DEB760970FB6F894DEBF70
:101EA0000FBECDBF6C015B017A01122F902EFA019B
:101EB000078780E090E060E040E00E94BA0CC70134
:101EC0000E947A0C80E090E061E040E00E94BA0C51
:101ED000112301F1012F1F3008F00EE019821A833F
:101EE000E02EFF249E012D5F3F4FC901B601402F18
:101EF00050E00E945D2F602F6E5FCE0101960E9420
:101F0000E60E011738F4612F601BC6018E0D9F1D70
:101F10000E94E60EC601810F911D692D0E94E60EFA
:101F2000C5010E948C0C60960FB6F894DEBF0FBE00
:101F3000CDBFCF91DF911F910F91FF90EF90DF9078
:101F4000CF90BF90AF909F900895809141018F7185
:101F50008830F1F481E080934F0189E08093420161
:101F600080914F0180FD14C08EE690E00E943407FE
:101F700080914F0180FD0CC08EE690E00E943407F6
:101F800080914F0180FD04C08EE690E00E943407EE
:101F900008951F93182F8091FA058F30D1F49FB7C1
:101FA000F8947894809139018D7F809339018091E4
:101FB00003068823E1F39FBF1092030680914F012F
:101FC0008CE480934E01183011F0133011F488E046
:101FD000AFC1809141018F718093FA05183009F4E7
:101FE0004BC0193050F4143009F493C0163009F482
:101FF0009BC0133009F097C155C01F3069F01031F4
:1020000020F4193009F08FC163C0163109F4C2C041
:10201000193109F088C122C183E0809342010E94F6
:10202000402F80936D0180916E019770887F982B6F
:1020300090936E0180914F0180E880934E010000E3
:102040000000000000000000000000000000000090
:10205000000000000000000000000000000080916F
:10206000390182608093390183E290E00E94340755
:102070001093FA058FE05EC1883009F454C11093C3
:10208000420100000000000000000000000000000D
:102090000000000000000000000000000000000040
:1020A000000041C1883009F43EC110934201000094
:1020B0000000000000000000000000000000000020
:1020C00000000000000000000000000000002BC124
:1020D000883021F1893020F4863009F024C105C010
:1020E000863119F0893109F01EC189E080934201DF
:1020F00000000000000000000000000000000000E0
:1021000000000000000000000000000000000000CF
:102110000AC1883019F0893021F405C10E94A50F49
:1021200002C110934201FFC0893059F08A3020F477
:10213000883009F0F8C019C0863119F0893109F0EA
:10214000F2C086E080934201000000000000000021
:10215000000000000000000000000000000000007F
:102160000000000000000000DEC00E94A50F1093D8
:10217000420100000000000000000000000000001C
:10218000000000000000000000000000000000004F
:102190000000C9C08830F9F0893020F4863009F099
:1021A000C2C02EC0893019F0893109F0BCC086E167
:1021B00080934201000000000000000000000000C9
:1021C000000000000000000000000000000000000F
:1021D00000000000A8C00E94A50F1093420100005B
:1021E00000000000000000000000000000000000EF
:1021F000000000000000000000000000000093C08C
:1022000089E080934201000000000000000000000F
:1022100000000000000000000000000000000000BE
:10222000000000000000809141018F718093FA0549
:10223000893009F07FC010934201000000000000C7
:10224000000000000000000000000000000000008E
:102250000000000000000000000065C0883009F4A4
:102260004EC0893020F4863009F05DC019C0893035
:1022700021F0863109F057C013C0109342010000CD
:10228000000000000000000000000000000000004E
:10229000000000000000000000000000000043C03B
:1022A00089E080934201000000000000000000006F
:1022B000000000000000000000000000000000001E
:1022C000000000000000809141018F718093FA05A9
:1022D000893009F02FC089E180934201000000009D
:1022E00000000000000000000000000000000000EE
:1022F00000000000000000000000000014C00E9468
:10230000A50F109342010000000000000000000033
:1023100000000000000000000000000000000000BD
:10232000000000000000809141018F718F31D9F3CE
:102330008093FA051F9108958091EB058823E1F0C1
:10234000809104068823C1F480917C0590917D05DD
:10235000892B39F48AE90E94960B90937D0580932E
:102360007C0580917C0590917D05892B29F0109248
:10237000EB0586E10E94C90F8091F005882351F09A
:102380008CEE95E060E070E00E94580C009711F030
:102390000E94D11180910406823011F40E94291309
:1023A0000895EF92FF920F931F93CF93DF937C01D9
:1023B000DC010D911C91D8011696ED91FC911797B7
:1023C00080818093FC05C82FD0E02196CE0FDF1FBF
:1023D000988129812D3310F02CE303C0222309F4C6
:1023E00021E092959695969593708FEF989FC001F6
:1023F000112430E0FC01E29FC001E39F900DF29FA9
:10240000900D112464EB70E00E94AF2E6F3F7105B8
:1024100011F008F06FEF6883D8011296FC92EE92EB
:102420001197C8010E94751ADF91CF911F910F91EA
:10243000FF90EF900895CF92DF92EF92FF920F936B
:102440001F93CF93DF93E0917C05F0917D0530974A
:1024500009F449C0C081D181C0904701D0907B016F
:10246000D7FC41C082E0D80E0AE910E00D1911092D
:10247000EEEFDE0E0C0F1D1FED2CFF2497012F5FDA
:102480003F4FC80160E871E0A9010E945D2FF8018B
:10249000D292FF83EE83EE0EFF1EF701C28280917F
:1024A0004C018F7780934C0180914C018068809320
:1024B0004C0160917C0570917D058CEE95E00E9449
:1024C000C30B8AE90E94960B90937D0580937C054F
:1024D000892B31F489E00E94C90F81E08093EB05DC
:1024E00080E480934F01DF91CF911F910F91FF9076
:1024F000EF90DF90CF9008951F9310910406113054
:10250000C9F48091420182958695877080937E05FB
:1025100082E08093040680917C0590917D05892B53
:1025200031F489E00E94C90F1093EB0503C086E1E6
:102530000E94C90F1F9108950F931F93CF93DF93AC
:10254000EC018B01442349F090916C018091F905D5
:102550008295807F9F70892B03C080916C018F7062
:1025600080936C010230110598F4442369F0909136
:102570006C018091F105880F8E70917F892B80937B
:102580006C0110926F0117C080916C018E6011C0B8
:102590008091F5058295807F9091F805892B809335
:1025A0006F0190916C018091F105880F8E70917F81
:1025B000892B80936C0189E10E94C90F8931D9F779
:1025C0000130110551F48091FC05833118F080E44D
:1025D00092E005C080E890E002C089E090E00E94AF
:1025E00034071FB7F89480913901826080933901D4
:1025F000809139018D7F80933901288130E021500D
:10260000304080E891E0BE01A9010E945D2F81E089
:10261000809304061FBFDF91CF911F910F91089502
:10262000FC0180910406882311F086E80895F09358
:10263000F705E093F605868197819093FE058093D8
:10264000FD05009711F488EE08950E949C1280E029
:1026500008951092040680917E058330B1F0843095
:1026600028F4882331F08130E1F409C08530C9F4C1
:1026700012C06091F6057091F70580E017C0609177
:10268000F6057091F70587E811C06091F605709125
:10269000F70581EE0BC06091F6057091F70589EEA4
:1026A00005C06091F6057091F70585E80E94042742
:1026B0000895282F85FD03C0982F9F7304C0982F7D
:1026C00091959F719195E0E2F1E08491891734F042
:1026D0003F968491981714F0822F0CC0803E3CF0F6
:1026E00080323CF487FF06C08F71806203C080E2B5
:1026F00001C08FE18068089584E08093F10523E0B4
:102700002093F8058FEF9FEF9093E7058093E60500
:102710009093EA058093E9058BE08093F30510928E
:10272000E50580E098EFAFEFB7E08093FF05909369
:102730000006A0930106B09302068AE091E0909310
:10274000E4058093E3058AE08093FB0582E08093B3
:10275000F20585E08093F5052093F90583E80E9452
:1027600059138093DA0581E08093E8051092F4050F
:10277000089585FD03C0982F9F7304C0982F9195ED
:102780009F719195E0E2F1E080E02491921724F0AE
:1027900029173CF4815008958F5F31968031A9F755
:1027A00080E008958091E6059091E70580936201AD
:1027B00090936301EBEDF5E0A4E6B1E081918D9398
:1027C00085E0E33EF807D1F78091E9059091EA05AD
:1027D0008093600190936101909148018091E80598
:1027E0008295880F80769F79892B809348019091FC
:1027F0006F018091F8058F70907F892B80936F0116
:1028000090916E018091F405880F880F880F887071
:10281000977F892B80936E0190916F018091F505D0
:102820008295807F9F70892B80936F0190914801E2
:102830008091F3058F71907E892B80934801809160
:10284000DA050E94B913909145018F70907F892B12
:10285000809345010895CF93DF93EB018E3431F0DF
:10286000893541F488818093F905E4C0888180939B
:10287000F105E0C02091FA052F3011F481E8DBC0AA
:102880008B3009F4C5C08C3070F4823009F47FC0FD
:10289000833018F48823B1F115C0833009F488C05F
:1028A000843081F45EC0833511F1843528F48F348F
:1028B00059F0803539F410C0873509F45CC0803F89
:1028C00009F483C084EFB7C098819093F805809194
:1028D0006F019F70807F57C0888199818093E60542
:1028E0009093E7058093620190936301A3C0888170
:1028F00099818093E9059093EA0580936001909314
:10290000610198C080910406882309F08FC080E09F
:1029100098EFAFEFB7E0088004C0B695A7959795FC
:1029200087950A94D2F781709070892B09F480C042
:10293000283031F088E00E94C90F8830D9F726E1AD
:1029400098819093F305809148019F71807E982B28
:1029500090934801283009F46DC086E10E94C90FA8
:1029600069C080910406882309F060C088818823AB
:1029700009F460C05DC098819093F50580916F0166
:102980009295907F8F70982B90936F0153C08881A0
:102990008093DA050E9459138093DA050E94B913D7
:1029A000909145018F70907F892B8093450142C0A3
:1029B00088818093E805909148018295880F807600
:1029C0009F79892B8093480135C088818093DB05EE
:1029D00089818093DC058A818093DD058B818093DA
:1029E000DE058C818093DF058D818093E0058E81EB
:1029F0008093E1058F818093E205EBEDF5E0A4E69D
:102A0000B1E081918D9385E0E33EF807D1F712C0E4
:102A100088818093F40590916E01880F880F880F4C
:102A20008870977F892B80936E0104C086E803C06D
:102A300088EE01C080E0DF91CF9108950F931F933E
:102A4000CF93DF93082F809139018D7F80933901D7
:102A500080EF90E00E943407809139018E7F80934F
:102A6000390181E090E00E94340780913901816052
:102A70008093390110E084E690E00E943407809151
:102A800041011A3011F485E84DC08F71883011F082
:102A90001F5FF1CF8093FA0580916E018062809371
:102AA0006E0180914C01806880934C018CE480938E
:102AB0004E0186E00E94C90F10924E01C0E0D0E0A6
:102AC00010E080914601CC0FDD1FCC0FDD1F90E0A0
:102AD0008076907025E0969587952A95E1F7C82B2A
:102AE000D92B1F5F183069F783E00E94C90F8091CE
:102AF0004F0110934F0180E480934F0180E8809351
:102B00004F018CE480934E01CE010E94452F00239B
:102B100011F00E947C130E94D213109204061092AE
:102B2000EB0580E0DF91CF911F910F9108950E94F6
:102B30001E15882361F085E808958CEE95E060E02D
:102B400070E00E94580C009711F00E948E0B80914B
:102B5000F005882391F788E080934F0180E480930B
:102B60004F0184E080934F0180E880934F010E94E1
:102B7000402F80936D0180916E019770887F982B14
:102B800090936E0180E00E94DB160E94CC160E949A
:102B9000410D80E008950F931F93CF93DF930E9420
:102BA0009F06882309F0CDC0809139018160809310
:102BB0003901809139018D7F809339018CE791E053
:102BC0000E943407809139018E7F8093390181E022
:102BD00090E00E943407809139018160809339012F
:102BE00010E084E690E00E943407809141011A30A1
:102BF00009F4A7C08F71883011F01F5FF2CF809366
:102C0000FA0580915C01833809F09BC0A0C0CBED30
:102C1000D5E00E94402F899385E0C33ED807C9F7CD
:102C20008091DB053091DC054091DD056091DE058A
:102C30007091DF05F091E005B091E1055091E2055A
:102C4000082F015091E0081708F090E0832F815081
:102C500021E0831708F020E0192F180F91E01817D2
:102C600008F090E0292B842F815031E0841708F080
:102C700030E0A22FA80F91E0A81708F090E0392BC0
:102C8000862F815021E0861708F020E0E32FE80F1F
:102C900091E0E81708F090E0292B872F815031E070
:102CA000871708F030E0622F680F91E0681708F08E
:102CB00090E0392B8F2F815021E08F1708F020E012
:102CC000432F480F91E0481708F090E0292B8B2FF5
:102CD000815091E08B1708F090E0322F380F21E0FF
:102CE000381708F020E0922B5195591779F43F3F9F
:102CF00069F44F3F59F46F3F49F4EF3F39F4AF3F68
:102D000029F41F3F19F40E3F08F081CF84EC96E1BF
:102D10000E9437058CEB96E10E94320588EB96E124
:102D20000E9441050E949D0B8AE90E94960B909398
:102D30007D0580937C058CEE95E00E94BC0B80E0C5
:102D400001C085E8DF91CF911F910F91089580E038
:102D500090E060E070E048E050E02BED35E00E944C
:102D6000390681E00E941E15882309F459CFE9CF66
:102D700081E08093030608951F931FB7F8940E9483
:102D80007C121FBF1F9108951F931FB7F8940E94D4
:102D90001B121FBF1F9108958091FA058F3011F00B
:102DA00082E8089588E00E94C90F883011F085E814
:102DB000089580E00895882311F088EE08958091A9
:102DC000FA058F3011F481E8089580910406882374
:102DD00081F41092EB0588E00E94C90F8830D9F782
:102DE0008FE00E94C90F8F3021F40E94410D80E0D6
:102DF000089586E80895982F80910406882311F09D
:102E000086E80895983039F488E00E94C90F10923E
:102E1000EB0588E0089580917C0590917D05892BD4
:102E200029F086E10E94C90F86E0089581E0809331
:102E3000EB0586E00895DC01ED91FC91119784E1AA
:102E4000808363835283418384E696E0BD010E94C0
:102E5000C30B08950F931F93DF93CF9300D0CDB78B
:102E6000DEB7A0912106B0912206ED91FC91119759
:102E700084E180838BEE83830FEF1FEF1283018346
:102E800084E696E0BD010E94C30B109212061A83DD
:102E9000098380E5BE016F5F7F4F0E94F722109388
:102EA00024060093230610923106109232061092E7
:102EB00033061092340610923506109236061092A0
:102EC0003706109238060E94F0210F900F90CF9194
:102ED000DF911F910F910895EF92FF920F931F932F
:102EE000E0902D06F0902E0680E061E040E020E0CA
:102EF00030E000E010E00E946C1D8823A9F4A0914E
:102F00002106B0912206ED91FC91119784E1808316
:102F100081EE83838FEF9FEF9283818384E696E037
:102F2000BD010E94C30B19C0A70160E070E084E0FE
:102F3000440F551F661F771F8A95D1F780E020E068
:102F400030E00AE217E1EE24FF240E947209882390
:102F500021F080E090E00E942A171F910F91FF90CE
:102F6000EF900895FF920F931F93DF93CF9300D0BC
:102F7000CDB7DEB7F09059060E948E0BFF20B1F559
:102F800083E567E576E00E94F722209157063091AD
:102F9000580680914C068093310680914D068093AF
:102FA000320680914E068093330680914F068093BF
:102FB00034068091500680933506809151068093A7
:102FC000360680915206809337068091530680938F
:102FD000380681E0809360061092120680911C06EC
:102FE000833031F582E080931C0622C010921206D5
:102FF0000FEF1FEF1A83098380E5BE016F5F7F4FDC
:103000000E94F722109324060093230610923106A3
:103010001092320610923306109234061092350642
:103020001092360610923706109238062FEF3FEFB7
:10303000E0912106F0912206A081B18184E18C9378
:103040001396FC92139712963C932E93119784E655
:1030500096E0BF010E94C30B0E94F0210F900F90D9
:10306000CF91DF911F910F91FF900895CF92DF9242
:10307000EF92FF921F93DF93CF93CDB7DEB72F97D9
:103080000FB6F894DEBF0FBECDBFAC017C01DE01F0
:103090001196FC01808191819C01F9018FE00190E2
:1030A0000D928150E1F740932106509322068C81C6
:1030B000823019F48F8198851AC08F8180933106F0
:1030C0008885809332068985809333068A8580932C
:1030D00034068B85809335068C85809336068D85E6
:1030E000809337068E85809338068EEF9FEF9093FE
:1030F00024068093230680E5BE016B5F7F4F0E940C
:10310000F7220E94CB21D701CD90DC9081E0F6011F
:103110008083F282E182EA56FF4F80838F8581832C
:103120009F0128503040D901EBEDF5E088E0019097
:103130000D928150E1F7F9018FEF9FEF9293829307
:103140008C81823051F480912306909124069293D1
:10315000829345E123E238EC11C0F9013A979F01CF
:1031600041E356E088E0DA010D90AD01D9010D92FE
:103170009D018150C1F74BE123E23CEC8091E605D3
:103180009091E7059293829380911D0682938F5FC1
:1031900080931D06329322934293D6011796FC9397
:1031A000EE93169784E0BE016D5F7F4F0E94F72279
:1031B000182F80E0BE016E5F7F4F0E94F72211231F
:1031C00071F4882361F4C60162E070E041E00E947E
:1031D0001013882321F481E08093610612C0D70187
:1031E000ED91FC9184E1808381EE83838FEF9FEFEB
:1031F0009283818384E696E0B7010E94C30B0E940C
:10320000F0212F960FB6F894DEBF0FBECDBFCF9141
:10321000DF911F91FF90EF90DF90CF900895FC0118
:103220000190F081E02D628173818181448125814B
:103230000E942F2E08950F931F938C01DC01ED91B6
:10324000FC91818162810E942B2EC8010E948E0B0D
:103250001F910F910895AF92BF92CF92DF92EF929C
:103260000F931F935C01DC01ED91FC9104811581AA
:1032700026813781818162814381E08439966F01A3
:103280000E940203C5010E948E0B1F910F91EF90C7
:10329000DF90CF90BF90AF9008950F931F938C0154
:1032A000DC01ED91FC9181810E942E2EC8010E94CB
:1032B0008E0B1F910F9108950F931F938C01DC01CA
:1032C000ED91FC9181810E945E03C8010E948E0BEA
:1032D0001F910F9108950F931F938C01DC01ED91C5
:1032E000FC9181810E942D2EC8010E948E0B1F919E
:1032F0000F9108950F931F938C01DC01ED91FC91C8
:10330000818162813396AF010E942A2EC8010E94FA
:103310008E0B1F910F910895EF92FF920F937C01F6
:10332000DC01ED91FC9121813281438154816581E1
:1033300076818781908501850E94292EC7010E9490
:103340008E0B0F91FF90EF9008950F931F93DF93D3
:10335000CF93CDB7DEB72B970FB6F894DEBF0FBE75
:10336000CDBF8C01DC01ED91FC9182818983838149
:1033700094819B838A839E012C5F3F4FAF014B5FFB
:103380005F4F88E0DA010D90AD01D9010D929D01EA
:103390008150C1F78181BE016F5F7F4F0E94282E4F
:1033A000C8010E948E0B2B960FB6F894DEBF0FBE9D
:1033B000CDBFCF91DF911F910F910895CF92DF92F2
:1033C000EF92FF920F936C01DC01ED91FC91BF0134
:1033D0006E5F7F4F24893589E788F08C818143892E
:1033E00006890E94272EC6010E948E0B0F91FF9026
:1033F000EF90DF90CF9008950F931F938C01DC0125
:10340000ED91FC918181928163810E943301C80119
:103410000E948E0B1F910F9108950F931F938C01A3
:10342000DC01ED91FC91818162810E94F900C8016B
:103430000E948E0B1F910F910895CF92DF92EF9211
:103440000F93DF93CF93CDB7DEB766970FB6F8949F
:10345000DEBF0FBECDBF6C01DC01ED91FC9181811F
:103460008983828193819B838A839E012C5F3F4F56
:10347000AF014C5F5F4F88E0DA010D90AD01D901DB
:103480000D929D018150C1F784858C878585968535
:103490009E878D879E01215F3F4FAF01415F5F4F48
:1034A00088E0DA010D90AD01D9010D929D018150A6
:1034B000C1F7228D338DCE010196BE01645F7F4F2F
:1034C000418D0789E08C0E94262EC6010E948E0B3A
:1034D00066960FB6F894DEBF0FBECDBFCF91DF91D9
:1034E0000F91EF90DF90CF900895FC0110826181E1
:1034F00072816115710521F088E296E00E94C30B8C
:1035000008950F931F93CF93DF93282F8091570631
:103510009091580696FFA3C0222359F420914A06A1
:1035200030914B068091E6059091E7052817390701
:1035300061F020914A0630914B06809126069091C9
:1035400027062817390709F08AC020914C063091C8
:103550004D0680912306909124062817390709F417
:103560007EC090914C0680913106981759F5909144
:103570004D0680913206981729F590914E0680915C
:1035800033069817F9F490914F06809134069817F6
:10359000C9F49091500680913506981799F490914E
:1035A000510680913606981769F4909152068091E1
:1035B0003706981739F4909153068091380698177A
:1035C00009F44DC08AE90E94960B8C01009709F41A
:1035D00046C0DC012D913C9185E0F9018083128386
:1035E0000183E956FF4F8083AF0148505040FA01F4
:1035F000ABEDB5E088E00D9001928150E1F7FA0162
:103600003897EF01A1E3B6E088E00D900992815070
:10361000E1F78091E6059091E7059293829380917E
:103620001D0682938F5F80931D0683E69CEC929328
:10363000829388E18293D9011796FC93EE931697B3
:10364000C90162E070E041E00E941013882321F478
:1036500081E08093610603C0C8010E948E0BDF9158
:10366000CF911F910F9108950F931F93CF93DF93E5
:10367000EC01E881F981A681B7817C9170933C06C9
:10368000FD01E70FF11D81818093550611964D9143
:103690005C91129750933A064093390613968C9199
:1036A000139780933D068D010C5F1F4F652F629528
:1036B000669566956370352F36953695337019F497
:1036C000F80120E049C014968D919C911597909334
:1036D000400680933F06FD0136963230E1F41092A9
:1036E0004106109242061092430610924406109230
:1036F0004506109246061092470610924806169606
:103700008D919C9117979093420680934106FD01FD
:10371000389624E021C0333011F022E01DC0169607
:103720008C91169780934106818180934206828115
:103730008093430683818093440684818093450669
:103740008581809346068681809347068781809392
:103750004806FD013E962AE0662309F447C046FD6F
:1037600008C08191919190934B0680934A062E5FF9
:1037700008C080913F069091400690934B0680933D
:103780004A066230C1F410924C0610924D06109217
:103790004E0610924F06109250061092510610924B
:1037A0005206109253068081918190934D0680932A
:1037B0004C062E5F1BC06330C9F4808180934C0699
:1037C000818180934D06828180934E068381809310
:1037D0004F068481809350068581809351068681AF
:1037E00080935206878180935306285F972F9550C8
:1037F000921B909356066093490630933E0643FD14
:103800005CC1D801A20FB11D842F877080933B0645
:10381000833021F48C918093540663C0813009F485
:1038200051C0813020F0833009F047C15AC08D91DA
:103830009C911197909358068093570612968C91FD
:10384000129780935906877011F493E002C0982F65
:103850009C5FFD01E90FF11D808180935A06292F9D
:103860002F5F382F377090E08077907044E0959507
:1038700087954A95E1F7482F332311F4882389F07F
:10388000CD01820F911D90935C0680935B063323DC
:1038900011F0330F230F442321F0440F440F440F42
:1038A000240F80915606281750F4821B80935D06E2
:1038B000A20FB11DB0935F06A0935E0602C11092E5
:1038C0005D06FFC0992351F0963718F086E7809384
:1038D0005606B0935806A0935706F3C010925606AA
:1038E000F0C080915406843009F4EBC0853030F488
:1038F000823059F0833009F0E0C014C0873009F4F9
:10390000E0C0883009F0D9C012C011968D919C9109
:103910001297909358068093570613968C91809334
:103920005906CFC011968C9180935706CAC0119644
:103930008D919C91129790935806809357061396F9
:103940008D919C91149790935A06809359061596E1
:103950008C91159780935B0616968D919C91179785
:1039600090935D0680935C0654FFABC018968C91D3
:1039700080935E06A6C080913B06833061F48091FF
:103980005406843011F0873031F488E296E0BE01AD
:103990000E94C30B9CC080911206813009F478C04C
:1039A000813020F0843008F088C059C080911B0617
:1039B000882351F590916006923008F07EC0809186
:1039C0003B06813009F475C0813020F0833009F066
:1039D00074C00CC080916306882309F46EC09923DB
:1039E00009F46BC080E00E94811A67C08091540680
:1039F000833009F040C0CE010E94801E8091600695
:103A0000813009F064C03DC08330D1F0843019F0BA
:103A1000823009F052C080913B06882309F04DC0E6
:103A200080916306882341F0809160068150823046
:103A300018F481E00E94811ACE010E94B62547C089
:103A400080913B068330C9F5809154068830A9F5F2
:103A500081E00E946608CE010E94392938C00E9488
:103A6000252580913B06813021F1833031F580910D
:103A70005406833019F0883001F506C0CE010E944B
:103A8000801E0E949E2223C0CE010E94132C1FC0C4
:103A900080913B06833059F480915406823069F45A
:103AA00080E00E946608CE010E94B21710C08130EB
:103AB00021F4CE010E94871F0AC0CE010E948E0B06
:103AC00006C080916106882309F055CF64CFDF914D
:103AD000CF911F910F9108956F927F929F92AF9215
:103AE000BF92CF92DF92EF92FF920F931F93CF93EB
:103AF000DF93D82E962EC42E590138018AE90E94F0
:103B0000960B7C01009709F49BC0DC010D911C9180
:103B1000DD2021F084E0F801808303C08BE0D80130
:103B20008C93F801F282E182E956FF4F84E08083B2
:103B30002091E9053091EA05C9010296029710F03B
:103B4000992069F03897EF01ABEDB5E088E00D9072
:103B500009928150E1F762E183E290EC05C0329373
:103B600022936CE083E290E8CC2061F02091E6059E
:103B70003091E7056216730629F06E5F3293229347
:103B800070E002C0806471E022E0C21641F4AC0132
:103B90005860D5018D919C919293829328C0B3E097
:103BA000CB1661F4AC015C6038976A5FEF01D50118
:103BB00088E00D9009928150E1F719C02091230609
:103BC000309124064FEF2E3F340729F0AC015860A6
:103BD000329322930CC0AC015C6038976A5FEF01AE
:103BE000A1E3B6E088E00D9009928150E1F73297A9
:103BF000772339F08091E6059091E70591838083E2
:103C000002C07182608280911D0682938F5F8093D3
:103C10001D06529342936293D8011796FC93EE933C
:103C20001697C80162E070E041E00E9410138823FB
:103C300021F481E08093610604C0C7010E948E0BCD
:103C400080E0DF91CF911F910F91FF90EF90DF9077
:103C5000CF90BF90AF909F907F906F900895EF921C
:103C6000FF920F931F93CF93DF937C01E801DC0158
:103C7000ED91FC9186E180836183428334832383C9
:103C8000CF010596423069F415821682178210869C
:103C9000118612861386148688819981968385837E
:103CA00007C0DC01F80188E001900D928150E1F736
:103CB00084E696E0B7010E94C30BDF91CF911F917C
:103CC0000F91FF90EF9008950F931F93AC01809197
:103CD000E9059091EA0502962091E6053091E70505
:103CE000029728F4CA0143E00BED15E004C0CA01B5
:103CF00042E009EE15E00E942F1E1F910F910895DA
:103D0000CF93DF939C01FC01C081D181FE0185E14D
:103D10008193ACE4B6E088E00D9001928150E1F728
:103D200080915706898784E696E0B9010E94C30B0B
:103D30001092310610923206109233061092340619
:103D400010923506109236061092370610923806F9
:103D50008FEF9FEF9093240680932306DF91CF91FE
:103D600008950F931F93DF93CF93CDB7DEB72E97B0
:103D70000FB6F894DEBF0FBECDBF8C01DC014D91B4
:103D80005C91DE011196FA018EE001900D92815056
:103D9000E1F7FA011283018383E08083EA56FF4F43
:103DA00080838D85818338979F016BED75E088E076
:103DB000DB010D90BD01D9010D929D018150C1F72C
:103DC0008A81823031F48D819E819293829333E196
:103DD0000FC038979F01BE016B5F7F4F88E0DB010A
:103DE0000D90BD01D9010D929D018150C1F739E1BE
:103DF0008091E6059091E7059293829380911D064C
:103E000082938F5F80931D062A81922F990F990FBD
:103E100080E08366906C929382933293DA011796D6
:103E2000FC93EE9316970E94CB21F801808191813B
:103E300062E070E041E00E941013882321F481E0E9
:103E4000809361060CC02B813C81C80161EE4A81E0
:103E50008E010B5F1F4F0E942F1E0E94F0212E9695
:103E60000FB6F894DEBF0FBECDBFCF91DF911F918B
:103E70000F910895DC01ED91FC911197E081E432FE
:103E800078F4F0E0EE0FFF1FE05DFE4F25913491D6
:103E90002115310519F0F901099508950E948E0B3D
:103EA00008951F9380916106882381F480911A06FA
:103EB000882361F086E196E060E070E00E94580C93
:103EC000009721F00E943A1F11E001C010E080919C
:103ED0002C06882359F088E296E060E070E00E94AA
:103EE000580C009719F00E943A1F11E0812F1F9182
:103EF0000895DC01ED91FC91119780E1808341836D
:103F0000628384E696E0BD010E94C30B08950F937F
:103F10001F93DF93CF93CDB7DEB728970FB6F894F2
:103F2000DEBF0FBECDBFAC01DC019C9111962C9180
:103F300080915606882321F4CA010E948E0B0EC17F
:103F4000E92FF22F80913D06808F20914906218331
:103F500080914A0690914B0693838283822F8250F0
:103F6000823010F51482158216821782108611860F
:103F700012861386223039F480914C0690914D06BA
:103F8000958384831BC02330C9F49F012C5F3F4F6E
:103F90006CE476E088E0DB010D90BD01D9010D9263
:103FA0009D018150C1F70AC01382128214821582CA
:103FB000168217821086118612861386208D8091B4
:103FC0000506281761F5948180910806981739F540
:103FD000958180910906981711F5968180910A06BE
:103FE0009817E9F4978180910B069817C1F4908592
:103FF00080910C06981799F4918580910D06981779
:1040000071F4928580910E06981749F493858091FA
:104010000F06981721F4CA010E948E0B5AC02093F4
:104020000506848180930806858180930906868130
:1040300080930A06878180930B06808580930C0607
:10404000818580930D06828580930E0683858093FB
:104050000F0620913E0624871786108A118A128A3D
:10406000138A148A158A168A80913F069091400619
:1040700096878587233079F49F01215F3F4F61E464
:1040800076E088E0DB010D90BD01D9010D929D0124
:104090008150C1F70BC0223039F4809141069091D4
:1040A0004206908B878702C016861586809155063A
:1040B000878B80915606818F809157069091580684
:1040C000938F828F81E1808384E696E0BA010E941B
:1040D000C30B8091390684FF41C08091490682302C
:1040E00071F480914C0690914D069A8389830091DA
:1040F0004A0610914B0680E060E042E021C0833028
:1041000019F580914C06898380914D068A838091B0
:104110004E068B8380914F068C83809150068D8351
:10412000809151068E83809152068F838091530631
:10413000888700914A0610914B0680E060E043E0DA
:104140009E012F5F3F4F07C080E060E040E020E02D
:1041500030E000E010E00E946C1D02C00E94F021DF
:1041600028960FB6F894DEBF0FBECDBFCF91DF917A
:104170001F910F910895CF92DF92EF92FF920F93CC
:104180001F93DF93CF93CDB7DEB762970FB6F89446
:10419000DEBF0FBECDBF8C01DE011196FC01808118
:1041A00091819C01F90182E101900D928150E1F72A
:1041B0008F8582FD11C080911206882321F48091A1
:1041C0001B06882349F09E85D801ED91FC9180E182
:1041D0008083918381EEB5C0F801C080D1808DE0ED
:1041E000D6018C938E8513968C93888945E0F42EA6
:1041F000F80EE8E9F0E0E81BF109EC0DFD1D9A81ED
:10420000923051F437E0F32EF80E8091E905909149
:10421000EA059293829312C0933081F438972DE08F
:10422000F22EF80E9F014BED55E088E0DA010D907B
:10423000AD01D9010D929D018150C1F72091E60594
:104240003091E7058C819D812817390749F48A81CF
:10425000882331F08B81882319F040E450E009C0B5
:104260008A81882321F0B2E0FB0E3293229340E052
:1042700050E08B81882311F1823039F46F2D6E5F0D
:104280008E819F819293829312C038976F2D685FC1
:104290009F0196E0E92EF12CEC0EFD1E88E0D7017F
:1042A0000D907D01D9010D929D018150C1F782E0F1
:1042B000F82EF60E8C819D819293829380911D063B
:1042C00082938F5F80931D06BA0161608F8580FFA6
:1042D00002C0BA0161628889873608F070618B81FB
:1042E000382F330F330F20E04A81942F9295990F86
:1042F000990F907C80E0282B392B262B372B32937B
:1043000022933296F7FC15C03397F082D6011796A8
:10431000FC93EE9316970E94CB21F6011283018342
:10432000C60162E070E041E00E941013882381F032
:1043300013C09E85D801ED91FC9180E1808391832B
:1043400085EE828384E696E0B8010E94C30B14C018
:1043500081E08093610610C09E85D801ED91FC91AB
:1043600080E18083918381EE828384E696E0B801C8
:104370000E94C30B0E94F02162960FB6F894DEBF34
:104380000FBECDBFCF91DF911F910F91FF90EF90A6
:10439000DF90CF90089580916206813051F40E94A1
:1043A000CC16853831F081E090E00E94FD06109235
:1043B0006206089580916206882389F480E090E087
:1043C0000E94FD0680E00E94DB16882321F481E034
:1043D00080936206089581E090E00E94FD060895B2
:1043E00080910606882331F480912506882311F4F4
:1043F0000E94DA2108950F931F93182F10926106DF
:10440000109260061092620610921B0610921C0613
:1044100010921206109205068FEF80930806809383
:10442000090680930A0680930B0680930C068093FE
:104430000D0680930E0680930F061092250688E0E5
:104440000E94FB160FB7F89480E00E94660881E096
:104450000E94660882E00E9466080FBF112391F156
:104460001092630682EC97E09093150680931406F1
:1044700080E098E790932E0680932D061092110607
:1044800081E08093130686E0809307061092310640
:1044900010923206109233061092340610923506AE
:1044A0001092360610923706109238068FEF9FEF63
:1044B00090932406809323060E94402F80931D062C
:1044C000109206061F910F9108950F931F93CF939B
:1044D000DF93EC01088119810E94CB21F801018151
:1044E00080E090E00E94FD0680E0011181E00E94E2
:1044F0009715182F81E090E00E94FD06802F0E9402
:10450000FB210E94F02186E196E00E94640C88E283
:1045100096E00E94640C84E696E00E94640CE881B8
:10452000F981118380E2808384E696E0BE010E94D7
:10453000C30BDF91CF911F910F910895DF93CF931C
:1045400000D000D0CDB7DEB70E94CB218FEF9FEF18
:104550009A8389839C838B8383E5BE016F5F7F4F42
:104560000E94F72280E5BE016D5F7F4F0E94F72217
:1045700081E00E94FB210E94F0210F900F900F908C
:104580000F90CF91DF9108950E94CB15882399F465
:104590000E94310B882379F081E00E94FB210E9468
:1045A000F02186E196E00E94BC0B88E296E00E9432
:1045B000BC0B80E0089585E80895E82F883030F43A
:1045C000E82FF0E0E858FE4F84910895805480323F
:1045D00028F4F0E0E05CFE4F84910895E03F10F491
:1045E00080E00895F0E0E055FF4F849108951F9317
:1045F000CF93DF93182FEB0180916206813051F445
:104600000E94CB21812FBE010E942B14182F0E94E3
:10461000F02104C0812F0E942B14182F812FDF91CD
:10462000CF911F910895FF920F931F93CF93DF9324
:10463000182FEB01F42E813520F58E3408F087C059
:10464000833409F484C0843460F4853038F48230D3
:1046500008F07DC0882309F47AC02DC0823459F552
:104660003AC08A3409F43FC08B3428F48434B9F159
:10467000873409F56CC08B3409F44EC08C34D9F4FE
:1046800052C0873509F463C0883558F4853530F455
:10469000833508F05CC0823571F449C0863559F421
:1046A0000CC0893509F453C0893558F08A3561F05A
:1046B000803F09F44CC004EFABC08881809363064F
:1046C000A6C0888199819FC08881998190932E0688
:1046D00080932D069CC088818093130698C08881A2
:1046E0008093070694C088818093310689818093E6
:1046F00032068A81809333068B81809334068C81C5
:10470000809335068D81809336068E81809337069F
:104710008F81809338067BC088819981909324068D
:104720008093230674C0888180931D0670C06881C1
:10473000611161E060930606662331F00E94CB218F
:1047400086E00E94FB1663C00E94F02160C0812FAA
:10475000BE010E942B14082F813871F40E94CC16E0
:10476000812FBE010E942B14082F882309F050C00E
:1047700081E080937F0503C0882309F049C08091C0
:10478000F105282F30E08091F505482F50E0609129
:10479000F805CA01861B9109281739070CF4C901CD
:1047A000A82F281B310981E090E002C0880F991FD3
:1047B0004A95E2F70197289FA001299F500D389F45
:1047C000500D112420E030E070E0E1E0F0E00DC099
:1047D000C901860F971FEF0102C0CC0FDD1F8A951C
:1047E000E2F74C0F5D1F2F5F3F4F2A1788F384E1DC
:1047F00090E09C01429FC001439F900D529F900DFD
:104800001124865F9E4F909315068093140600E056
:10481000FF2049F080917F05882329F080E00E94E5
:10482000DB1610927F05802FDF91CF911F910F91A2
:10483000FF900895EF92FF920F931F937C01FC016C
:1048400000811181B8016E5F7F4FF801818141E0E5
:104850000E941323F801918192839FE190838183C9
:1048600084E696E0B7010E94C30B1F910F91FF9061
:10487000EF900895CF93DF93AC01DC01ED91FC91B3
:104880009F012D5F3F4F81818C3409F485C08D34A9
:1048900038F5853009F464C0863088F4823009F434
:1048A000ACC0833030F4882309F497C08130E9F537
:1048B00097C0833009F4A4C08430B9F54EC0823467
:1048C00009F459C0833430F4863009F44EC087307F
:1048D00061F54EC08A3409F451C08B3431F557C0AC
:1048E000863529F1873588F4803509F45EC0813535
:1048F00030F48E3409F453C08F34B9F453C0823588
:1049000009F458C0833589F458C08935D9F08A35FF
:1049100028F4873579F0883541F40FC08D35D1F012
:10492000803F09F451C08A3581F094EF6DC08091C9
:10493000630668C08091F50565C08091140690916A
:1049400015063FC08091F9055DC080912D069091BC
:104950002E0637C08091110655C08091E50552C0E2
:104960008091E3059091E4052CC08091FB054AC03D
:104970008091F20547C08091130644C0E901A1E38C
:10498000B6E088E00D9009928150E1F73CC080913B
:1049900023069091240615C080911D0633C0809196
:1049A000F10530C08091F8052DC08091E605909109
:1049B000E70507C08091060625C08091E905909122
:1049C000EA05948383831FC0E901ABEDB5E088E07D
:1049D0000D9009928150E1F716C08091F30512C045
:1049E0008091FF0590910006A0910106B09102060A
:1049F00083839483A583B68306C08091DA0502C0C1
:104A00008091E805838390E0818182838EE18083B9
:104A1000918384E696E0BA010E94C30BDF91CF91A7
:104A20000895CF93DF93EC01E881F98183E28083DD
:104A30006183662311F00E94F02184E696E0BE01B6
:104A40000E94C30BDF91CF91089580913B0688238C
:104A5000E1F080E00E94660880913B06813031F4ED
:104A600080915606882311F060E001C06BEE8091C2
:104A70001206823031F480912106909122060E9424
:104A80001125109261061092120608958091120667
:104A9000823039F480912106909122066BEE0E94BB
:104AA000112510921206109261060895CF92DF929E
:104AB000EF92FF920F931F93DF93CF93CDB7DEB7A3
:104AC00028970FB6F894DEBF0FBECDBFD82EC92EE3
:104AD000809112068823B1F580911B06882391F5F9
:104AE0000E94CB21ED2CFC2CD701ED91FC91818112
:104AF0009F012C5F3F4F823031F4848195819A83EE
:104B0000898342E00DC0AE014F5F5F4F88E0D9015D
:104B10000D909D01DA010D92AD018150C1F743E086
:104B20000281138181E060E09E012F5F3F4F0E9470
:104B30006C1D882329F0D0922106C092220607C05E
:104B4000C70102C08D2D9C2D61EE0E941125289673
:104B50000FB6F894DEBF0FBECDBFCF91DF911F918E
:104B60000F91FF90EF90DF90CF9008955F926F923A
:104B70007F928F929F92AF92BF92CF92DF92EF92ED
:104B8000FF920F931F93DF93CF93CDB7DEB761975B
:104B90000FB6F894DEBF0FBECDBFBC0140911B061F
:104BA000423011F0443069F480911306882349F0B3
:104BB000E0912106F091220620813181D9011996D8
:104BC00004C0A0E0B0E020E030E0509149065983F5
:104BD00000914A0610914B061B830A83523069F4F8
:104BE0001E821F82188619861A861B8680914C06A3
:104BF00090914D069D838C8318C080914C068C83C8
:104C000080914D068D8380914E068E8380914F0654
:104C10008F83809150068887809151068987809183
:104C200052068A87809153068B879090F3059C8665
:104C3000B090E505BD8680915706909158069F87F4
:104C40008E87188A8091590687FF02C081E0888B81
:104C500080915506898B423019F0443009F06FC0BD
:104C600080911306882309F46AC0F901F084EC816D
:104C7000FD815C806D807E808F80A884C984DA8409
:104C8000EB8440E049C011968D919C9112970817D2
:104C9000190709F03FC08C915817E1F51B968C91CC
:104CA0001B979816B9F51C968C911C97B81691F520
:104CB000523041F413968D919C911497E817F9079F
:104CC00049F53DC013968C911397851519F51496E7
:104CD0008C9114978615F1F415968C91159787157C
:104CE000C9F416968C9116978815A1F417968C9195
:104CF00017978A1579F418968C9118978C1551F49A
:104D000019968C9119978D1529F41A968C911A97EA
:104D10008E15A9F04F5F51964F1508F4B4CF59C0C6
:104D2000FD01DE01119681E10D9001928150E1F7C4
:104D3000D90118968C9118978F5F18968C93909143
:104D40005A0680915D06882321F4809113068823FA
:104D5000E1F5DB01ED91FC9187E1808380913D06D7
:104D600081839F012E5F3F4FAE014F5F5F4F81E117
:104D7000DA010D90AD01D9010D929D018150C1F76D
:104D800080915A06838B892F877059F4892F90E080
:104D90008077907024E0959587952A95E1F7882390
:104DA00031F080915B0690915C06958B848B8091AD
:104DB0005D06868B80915E0690915F06908F878B53
:104DC00084E696E00E94C30B09C0CB010E948E0BC3
:104DD00005C0E4E0EF1508F4B2CFA2CF61960FB69C
:104DE000F894DEBF0FBECDBFCF91DF911F910F9121
:104DF000FF90EF90DF90CF90BF90AF909F908F90FB
:104E00007F906F905F900895EF92FF920F931F93A2
:104E1000CF93DF93182FEB011092610680911B0650
:104E2000823021F48881873051F405C0833039F411
:104E30008881863021F4812F0E94732BA5C0888140
:104E4000843009F451C0853030F4813009F1833069
:104E500009F098C010C08B3009F446C08D3021F0A5
:104E6000853009F08FC087C089819A81612F4B817D
:104E70000E94791F87C089819A81612F0E94641ED8
:104E800080916006813009F07DC00E949E227AC028
:104E9000193E11F0113E41F489819A81612F4FEF43
:104EA0005FEF0E941B176EC08093120640912D0683
:104EB00050912E0660E070E094E0440F551F661F8D
:104EC000771F9A95D1F780E020E030E00CE617E1FB
:104ED000EE24FF240E947209882309F455C080E063
:104EE00090E00E946C1750C089819A810E948E0BBD
:104EF00080911206813009F447C088818430A1F482
:104F0000173881F0E0912106F0912206A081B1814D
:104F100083E28C9311961C9384E696E0BF010E9475
:104F2000C30B30C082E005C0193E61F1113E51F162
:104F300083E080931206409114065091150660E0BC
:104F400070E084E0440F551F661F771F8A95D1F7E4
:104F500080E020E030E006E415E2EE24FF240E9429
:104F6000720991E090936106882371F080E090E0EF
:104F70000E94462509C089819A810E948E0B8EEE7F
:104F80000E94CE2B0E94F021DF91CF911F910F91B3
:104F9000FF90EF900895EF92FF920F931F9310925E
:104FA0002506809106068823C9F48091620688232D
:104FB000A9F488E00E94FB16883071F082E040E896
:104FC00050E060E070E020E030E00BEC17E2EE240F
:104FD000FF240E94720902C00E94F0211F910F91CC
:104FE000FF90EF900895DF92EF92FF920F931F933F
:104FF000CF93DF93EC01E881F981E680F7800085AB
:105000001185E114F1040105110539F480E090E007
:105010000E94CB27E881F98147C08091120688233E
:10502000F1F580911B068823D1F50E94CB2186E003
:105030000E94FB16D82E81E08093250682E00E9414
:105040006107882319F082E00E94660884E0EE0C74
:10505000FF1C001F111F8A95D1F782E0B801A7013C
:1050600020E030E00BEC17E2EE24FF240E947209EE
:10507000882381F0E881F98181E2808388EE818351
:1050800084E696E0BE010E94C30B80E090E00E949F
:10509000CB2712C0E881F98186E0D81629F081E299
:1050A000808382EF818303C081E28083118284E662
:1050B00096E0BE010E94C30BDF91CF911F910F912B
:1050C000FF90EF90DF900895BC0184E696E00E9487
:1050D000C30B809110068093860584E066E875E036
:1050E0000E94F722809120068093850580E065E884
:1050F00075E00E94F72210921B060E94F02108958D
:10510000CF93DF93E0912F06F0913006C081D181DB
:10511000DE01A956BF4FFA83E983882339F087E07F
:1051200088838C934AE023E038E013C086E08883CC
:105130008C9318979D014BED55E088E0FA010190A2
:10514000AF01F90101929F018150C1F742E123E4CF
:1051500038ECFD018FEF9FEF92938293329791830A
:105160008083159780911D068C938F5F80931D0619
:105170003E932E93FD014293FF83EE83CE0162E0C6
:1051800070E040E00E941013882311F080E003C01B
:1051900081E080936106DF91CF910895EF92FF92B5
:1051A0000F931F93DF93CF930F92CDB7DEB79091FC
:1051B0001B06933009F443C0943041F0923009F05B
:1051C00050C0882309F048C081E03BC0882309F023
:1051D00043C086E00E94FB16863021F540EC53E088
:1051E00060E070E00090870504C0440F551F661F03
:1051F000771F0A94D2F740545C4F6F4F7F4F84E083
:10520000440F551F661F771F8A95D1F781E020E074
:1052100030E00BE51AE2EE24FF240E947209882395
:1052200001F113C0809185058F5F809385056091A2
:1052300021067091220682E00E94912912C08823E3
:1052400059F40E948028882361F481E08983CE018B
:1052500001960E945B2A05C0809185058F5F80932F
:1052600085050F90CF91DF911F910F91FF90EF90E7
:1052700008950F931F938C0180912F069091300613
:105280000E948E0B1092300610922F06A0912106DC
:10529000B0912206ED91FC9111978BE180831182F0
:1052A00083E082831482158216821782108684E638
:1052B00096E0BD010E94C30B10921B060E94F021D4
:1052C000C8010E948E0B80E567E576E00E94F72218
:1052D00080915C0690915D068F5F9F4F29F083E57A
:1052E0006CE576E00E94F7228091590690915A066B
:1052F00090932406809323068091390690913A0674
:1053000094FF05C084E06EE576E00E94F72280E01D
:105310006BE576E00E94F7220E94CE281F910F9144
:105320000895EF92FF921F93CF93DF93182F7B0185
:10533000FB01C081D18184E066E875E00E94F7221C
:1053400040911B06509113062091850555C04230AF
:1053500011F0443031F4552321F08885853008F070
:105360004EC0133021F48885882309F087C0322F7E
:105370003F5F8C819D81AE81BF81022E04C0B695B6
:10538000A795979587950A94D2F781709070892B8D
:1053900091F120938505113011F482E003C01230A1
:1053A00021F484E080931B0604C0133011F41093A1
:1053B0001B0680E065E875E00E94F722182F88231D
:1053C000B1F080912F06909130060E948E0B1092C2
:1053D000300610922F060E94F0218AEE89831886EB
:1053E00084E696E0B7010E94C30B10921B06812F42
:1053F0000E94CE285AC0232F2B3108F4A8CF209327
:105400008505123041F11330D9F1113009F04DC04A
:1054100080912F06909130060E948E0B10923006DC
:1054200010922F0680911306882339F088858530E5
:1054300010F08AEF05C0882311F0198202C08AEEAD
:10544000898380E566E276E00E94F722809121065A
:105450009091220628C0552339F08885853010F0B8
:105460008AEF05C0882311F0198202C08AEE898371
:1054700080E566E276E00E94F72214C0209385055D
:1054800080912F06909130060E948E0B109230066C
:1054900010922F068885882311F0198202C08AEEA7
:1054A00089831886C7010E946428DF91CF911F91DC
:1054B000FF90EF900895CF93DF93C0912106D09194
:1054C00022069881298180911B068250833020F525
:1054D000E92FF22F21E030E040E050E00090850518
:1054E00004C0220F331F441F551F0A94D2F7209582
:1054F00030954095509584819581A681B78182230E
:105500009323A423B52384839583A683B7838091B3
:105510008005BE010E949129DF91CF910895CF921D
:10552000DF92EF92FF920F931F93DF93CF9300D000
:10553000CDB7DEB7D82EC92E082F192FD801ED917F
:10554000FC918091F305809320068091E50580937E
:1055500010068681809387058181809380058281F2
:105560009381A481B5818093810590938205A09356
:105570008305B0938405278120938605D092210668
:10558000C09222068BE18083809180058283809186
:10559000810590918205A0918305B0918405848353
:1055A0009583A683B7832383108611868091120684
:1055B000882341F480911B06882321F48091800583
:1055C000882341F488EE818384E696E0B8010E9446
:1055D000C30B7EC00E94CB21F801E080F1808BE0FC
:1055E0008093850580918005813008F466C0833002
:1055F00020F0833009F061C04BC08FEF9FEF9A839A
:1056000089838091E6059091E70590932706809322
:10561000260680E5BE016F5F7F4F0E94F7228091D2
:105620008005813021F4D0922F06C09230068AE99D
:105630000E94960B90932206809321060097E9F131
:1056400080918005823019F4C8010E948E0B209150
:10565000210630912206D901ED91FC918BE18083E6
:105660008091800582838091860583838091810566
:1056700090918205A0918305B091840584839583E0
:10568000A683B7831086118680918005B90112C068
:105690008AE90E94960B9093300680932F0600971C
:1056A00021F488EEF70181830CC06091210670918E
:1056B000220683E00E9491290BC088EED701119643
:1056C0008C9384E696E0B8010E94C30B0E94F021FF
:1056D0000F900F90CF91DF911F910F91FF90EF905E
:1056E000DF90CF900895EF92FF920F931F93DF9377
:1056F000CF930F92CDB7DEB790911D069F5F909329
:105700001D068823B1F580911B06823091F440EC90
:1057100053E060E070E00090870504C0440F551F1F
:10572000661F771F0A94D2F740545C4F6F4F7F4F2C
:1057300007C080912D0690912E06AC0160E070E0CC
:1057400094E0440F551F661F771F9A95D1F781E0AB
:1057500020E030E00BE51AE2EE24FF240E947209FB
:105760008823A1F081E08983CE0101960E945B2A03
:105770000DC0809185058F5F80938505609121061E
:1057800070912206809180050E9491290F90CF91FF
:10579000DF911F910F91FF90EF9008952CE835E075
:1057A00030938905209388059DE190938C05809323
:1057B0008D0580911B06882379F0809126069091B3
:1057C000270690938F0580938E0580912006809305
:1057D0009005809110060EC08091E6059091E70536
:1057E00090938F0580938E058091F30580939005AB
:1057F0008091E5058093910584E696E068E875E080
:105800000E94C30B80916006823050F480911B0689
:10581000882331F480911206882311F40E94F0212C
:1058200010921C0608950F931F938C018FEE0E9417
:10583000CE2BC8010E948E0B80E567E576E00E94C2
:10584000F72280915C0690915D068F5F9F4F29F053
:1058500083E56CE576E00E94F722809159069091ED
:105860005A069093240680932306809139069091DE
:105870003A0694FF05C084E06EE576E00E94F722C8
:1058800080E06BE576E00E94F7221F910F9108956A
:10589000CF93DF93EC018AE90E94960BBC0100973D
:1058A00011F480E025C0DC01ED91FC918EE0808355
:1058B0008881818389819A819383828388819F01F2
:1058C0002C5F3F4FAE014D5F5F4F823029F48B81DB
:1058D0009C819583848307C0D901FA0188E00190F7
:1058E0000D928150E1F786E196E00E94C30B81E0C2
:1058F000DF91CF910895BF92CF92DF92EF92FF9206
:105900000F931F93182F6A017B01B22E8AE90E9420
:10591000960BDC01009711F480E012C0ED91FC9130
:1059200011978BE080831183C282D382E482F58257
:10593000B682078386E196E0BD010E94C30B81E039
:105940001F910F91FF90EF90DF90CF90BF9008953F
:105950007F928F929F92AF92BF92CF92DF92EF92FF
:10596000FF920F931F93782E6A017B014801590122
:105970008AE90E94960BDC01009711F480E014C0C4
:10598000ED91FC9111978AE080837182C282D3826B
:10599000E482F58286829782A086B18686E196E0CF
:1059A000BD010E94C30B81E01F910F91FF90EF900A
:1059B000DF90CF90BF90AF909F908F907F90089591
:1059C0001F93182F8AE90E94960BDC01009711F4AF
:1059D00080E00CC0ED91FC91119788E080831183E9
:1059E00086E196E0BD010E94C30B81E01F910895FE
:1059F0001F93182F8AE90E94960BDC01009711F47F
:105A000080E00CC0ED91FC91119789E080831183B7
:105A100086E196E0BD010E94C30B81E01F910895CD
:105A20000F931F93CF93DF93EC01162F042F8AE976
:105A30000E94960B9C01009711F480E01FC0DC01CE
:105A4000ED91FC9185E08083148788818183898131
:105A50009A8193838283AF014C5F5F4FDE0113967F
:105A600088E00D90EA010992AE018150D1F70587D7
:105A700086E196E0B9010E94C30B81E0DF91CF91EE
:105A80001F910F910895FF920F931F93CF93DF9370
:105A9000182FF62EEA01022F8AE90E94960B9C012C
:105AA000009711F480E020C0DC01ED91FC9181E0D1
:105AB000808311838881838389819A8195838483FC
:105AC000AF014A5F5F4FDE01139688E00D90EA0157
:105AD0000992AE018150D1F70687F28286E196E005
