:100000000C94D1000C94F0000C94F0000C94F000CF
:100010000C94F0000C94F0000C94820A0C94F00004
:100020000C94F0000C94F0000C94F0000C94F00090
:100030000C94F0000C94F0000C94F0000C94F00080
:100040000C94F0000C94F0000C94F0000C94F00070
:100050000C94F0000C94F0000C94F0000C94F00060
:100060000C94F0000C94F0000C94F0000C94F00050
:100070000C94F0000C94F0000C94F0000C94F00040
:100080000C94F0000C94F0000C94F0000C94F00030
:100090000C94F0000C94F0000C94F0000C94F00020
:1000A0000C94F0000C94F0000C94F0000C94F00010
:1000B0000C94F0000C94F0000C94F0000C94F00000
:1000C0000C94F0000C94F0000C94F0000C94F000F0
:1000D0000C94F0000C94F0000C94F0000C94F000E0
:1000E0000C94F0000C9483040C948D040C9479040B
:1000F0000C94F8030C9423040C9497040C94CD03F3
:100100000C944E040C9479090C94A2090C94F00000
:100110000C94F0000C94F0000C94AB040C94A1042B
:1001200004030302020100FFFEFDFCFBF9F7F4EFFC
:100130004116000000002F1800000000D11C000034
:10014000061BA01A701D0000000000000000000047
:10015000CD15731500000000000000000000000035
:10016000000000000000000000000000E4152A1656
:10017000FE15141600000000010401010102010136
:100180000101010101010101040108020101010154
:100190000201010201020101020102020101010149
:1001A000080011241FBECFEFD1E4DEBFCDBF13E0A6
:1001B000A0E0B2E0ECE9FAE400E00BBF02C0079077
:1001C0000D92A431B107D9F716E0A4E1B3E001C064
:1001D0001D92A134B107E1F70E94A4010C944C25B3
:1001E0000C940000EF920F93DF93CF93CDB7DEB75F
:1001F00067970FB6F894DEBF0FBECDBF81E090E0E9
:1002000060E00E94350A83E089838FEE9EEB9B833A
:100210008A83809118038C83809119038D83809148
:100220001A038E8380911B038F8380911C03888720
:1002300080911D03898780911E038A8780911F0307
:100240008B87E0E2F3E0DE011C9681918D9383E0E1
:10025000E832F807D1F70E94C4138C8B9D8B1E8A5D
:100260001F8A83E0BE016F5F7F4F4CE09E01245FD9
:100270003F4F00E0EE24E3940E94F01D67960FB616
:10028000F894DEBF0FBECDBFCF91DF910F91EF90FD
:10029000089580E090E00E946C0A91E0811190E066
:1002A000892F08958091160390911703813091054D
:1002B000D1F423E030E0309317032093160390939A
:1002C00015038093140380E090E060E00E94350AFB
:1002D00081E090E060E00E94350A82E090E061E019
:1002E0000E94350A089580E090E060E00E94350A9F
:1002F00080E593EC0E94860680E593EC0E948606DA
:1003000080E090E061E00E94350A80E593EC0E9475
:10031000860680E593EC0E9486060E9449018823A8
:1003200011F380E090E061E00E94350A81E090E006
:1003300061E00E94350A82E090E061E00E94350AA7
:1003400081E00E94741E08954F925F926F927F9297
:100350008F929F92AF92BF92CF92DF92EF920F93C4
:100360001F93DF93CF93CDB7DEB72C970FB6F894DA
:10037000DEBF0FBECDBF0E94D31D882311F00E94A7
:100380003E050E942E0A80E090E061E00E94350A5E
:1003900081E090E061E00E94350A82E090E061E057
:1003A0000E94350A78940E94690A0E9449018823B4
:1003B00039F081E090E0909317038093160304C016
:1003C000109217031092160381E00E94741E22E01F
:1003D000A22EB12C12E09FEE892E9EEB992E662460
:1003E0006A94762C82E0482E512C4C0E5D1E6E01D4
:1003F0000894C11CD11C0E94DA1D809114039091B5
:10040000150381309105B9F7809116039091170378
:10041000009789F30E944901882369F3B09215037C
:10042000A09214031A839C828B827E826D8283E069
:10043000B20141E0960100E0EE240E94F01DDBCF06
:10044000882321F480EF0E948B1E089581E00E9492
:10045000741E0895DF93CF930F92CDB7DEB7882334
:10046000A9F4603FB1F4A0E2B3E0842F952FFC0122
:1004700088E001900D928150E1F784E1898380E06A
:10048000BE016F5F7F4F0E94A21E03C081E00E94E9
:10049000741E0F90CF91DF9108950895EF92FF920F
:1004A0000F931F93DF93CF9300D0CDB7DEB7882390
:1004B00021F081E00E94741E5BC080911403909132
:1004C000150381309105B9F1662359F48FEE9EEB47
:1004D0009A83898380E5BE016F5F7F4F0E94A21ED1
:1004E00047C0603509F044C080911603909117030E
:1004F000009711F4198202C081E0898310921503DC
:100500001092140382E5BE016F5F7F4F0E94A21E0E
:1005100080E040E050E0BA010FEF1FEF2FEF30E036
:100520000E94D61E81E040E856E968E970E020E0CC
:1005300002E511E019C0809116039091170300970E
:10054000B9F46235A9F480E040E050E0BA0100E07F
:1005500010E098010E94D61E81E040E856E968E963
:1005600070E020E002EF10E0EE24FF240E94F30789
:100570000F900F90CF91DF911F910F91FF90EF900F
:100580000895EF92FF920F931F93DF93CF93CDB710
:10059000DEB72D970FB6F894DEBF0FBECDBF8C012E
:1005A000FB0179018091140390911503009709F0E4
:1005B00065C0D8018C91833009F09CC011968D9153
:1005C0009C911297BEEB8F3E9B0709F093C08081F0
:1005D000823009F08FC081819281EEEB8F3E9E07C1
:1005E00009F088C081E00E941A07D80113968C9107
:1005F00013978093180314968C9114978093190382
:1006000015968C91159780931A0316968C911697D0
:1006100080931B0317968C91179780931C03189651
:100620008C91189780931D0319968C91199780933C
:100630001E031A968C911A9780931F0381E090E015
:1006400090931503809314038091160390911703E0
:10065000009769F4198281E090E060E00E94350A19
:1006600082E5BE016F5F7F4F0E94A21E43C082E001
:1006700090E090931703809316033CC0809116037B
:10068000909117030097B1F182E090E062E04D870E
:100690000E94350A80911603909117034D85823090
:1006A000910541F583E08A838FEE9EEB9C838B83DB
:1006B000809118038D83809119038E8380911A0392
:1006C0008F8380911B03888780911C038987809189
:1006D0001D038A8780911E038B8780911F038C875F
:1006E00083E0BE016E5F7F4F970100E0EE24E3944C
:1006F0000E94F01D2D960FB6F894DEBF0FBECDBF41
:10070000CF91DF911F910F91FF90EF900895EF929D
:10071000FF920F931F9380911403909115038230E1
:10072000910559F481E090E09093150380931403B0
:1007300080E593EC0E94860617C080911603909185
:100740001703009789F481E040E856E968E970E012
:1007500020E002EF10E0EE24FF240E94F30781E086
:1007600090E061E00E94350A1F910F91FF90EF9099
:10077000089590932F0380932E03089590932D0353
:1007800080932C03089590932B0380932A0308955C
:10079000909329038093280308951F920F920FB618
:1007A0000F920BB60F9211242F933F934F935F93A9
:1007B0006F937F938F939F93AF93BF93EF93FF9329
:1007C000E0912E03F0912F030995FF91EF91BF91D6
:1007D000AF919F918F917F916F915F914F913F91D9
:1007E0002F910F900BBE0F900FBE0F901F9018957A
:1007F0001F920F920FB60F920BB60F9211242F93E8
:100800003F934F935F936F937F938F939F93AF9398
:10081000BF93EF93FF93E0912C03F0912D03099583
:10082000FF91EF91BF91AF919F918F917F916F91C8
:100830005F914F913F912F910F900BBE0F900FBE84
:100840000F901F9018951F920F920FB60F920BB634
:100850000F9211242F933F934F935F936F937F9346
:100860008F939F93AF93BF93EF93FF93E0912A03EE
:10087000F0912B030995FF91EF91BF91AF919F915B
:100880008F917F916F915F914F913F912F910F9039
:100890000BBE0F900FBE0F901F9018951F920F92D6
:1008A0000FB60F920BB60F9211242F933F934F93D5
:1008B0005F936F937F938F939F93AF93BF93EF93C8
:1008C000FF93E0912803F09129030995FF91EF919F
:1008D000BF91AF919F918F917F916F915F914F9158
:1008E0003F912F910F900BBE0F900FBE0F901F9056
:1008F00018951F920F920FB60F9211240F900FBEF2
:100900000F901F9018951F920F920FB60F921124FF
:100910000F900FBE0F901F9018951F920F920FB659
:100920000F9211240F900FBE0F901F9018951F92D9
:100930000F920FB60F9211240F900FBE0F901F90C1
:1009400018951F920F920FB60F9211240F900FBEA1
:100950000F901F9018951F920F920FB60F921124AF
:100960000F900FBE0F901F90189584B714BEA895D6
:1009700088E10FB6F89480936000109260000FBE7B
:100980000E9449050E9420060E94700A80E0089596
:100990000E943F090895CF92DF92EF92FF920F934A
:1009A0001F93CF93DF938B01EA01813031F4862FBF
:1009B000642FA9010E94B90921C08823E1F4CA016A
:1009C000860F971F40E181309407B8F4C22ED32ED2
:1009D000EE24FF240BC0C701800F911F0E94DA2470
:1009E000F60181936F010894E11CF11CEC16FD06E1
:1009F00090F380E003C088EE01C085E8DF91CF91DD
:100A00001F910F91FF90EF90DF90CF900895AF92DC
:100A1000BF92CF92DF92EF92FF920F931F93CF93EB
:100A2000DF93EC016B01CB018C0F9D1F20E1813026
:100A30009207C0F4E42EF52E00E010E00EC0CE01C7
:100A40000E94DA24F70161917F01861719F0CE0127
:100A50000E94E22421960F5F1F4F0C151D0578F3AD
:100A600080E001C085E8DF91CF911F910F91FF9049
:100A7000EF90DF90CF90BF90AF9008951EB88FEFAA
:100A80008DB98FEF9FEF0E9486068EB180958EB94B
:100A9000F8CF8FB7F894E0E0F0E099E0909357003A
:100AA000E4918FBFEF70E23011F48FE001C080E07D
:100AB00090E020E80FB6F8942093610080936100E5
:100AC0000FBE80E180933501809334018093330120
:100AD000809332010895AF92BF92CF92DF92EF924E
:100AE000FF920F931F9379018A01E626F7260827C4
:100AF0001927A12CB12CC12CE8EFDE2EEA20FB2017
:100B00000C211D21E114F1040105110539F4E1E086
:100B1000621773078407950750F008C097705770E5
:100B2000E1E0261737074807590708F0E0E08E2F65
:100B30001F910F91FF90EF90DF90CF90BF90AF90FB
:100B40000895AF92BF92CF92DF92EF92FF920F93F0
:100B50001F938091370390E0FC01A3E0EE0FFF1F8D
:100B6000AA95E1F7E80FF91FE655FA4FE080F1800A
:100B70000281138180913403882309F453C01093B8
:100B8000F8000093F700F092F600E092F5008091F3
:100B9000DF0080FD08C081E08093E0008091DF00ED
:100BA00081608093DF008091E100282F8091E20036
:100BB000382F8091E300482F8091E400582F2F5F59
:100BC0003F4F4F4F5F4FC801B7010E946B0588230D
:100BD00029F580915D01883050F580913003909126
:100BE0003103A0913203B09133030196A11DB11DD1
:100BF0008E159F05A007B107D1F42091E100A22E28
:100C00002091E200B22E2091E300C22E2091E40058
:100C1000D22EA816B906CA06DB0679F781E08093C2
:100C2000BC0505C08091DF008E7F8093DF001F919F
:100C30000F91FF90EF90DF90CF90BF90AF9008950D
:100C4000109234031092BC058FEF8093370380938A
:100C50003503809336038093B2051092AF0510924E
:100C6000AE058093BB051092B8051092B70590E2CF
:100C70009093B60098EA9093DC009FE09093F40084
:100C80008093F3008093F2008093F10082E08093E0
:100C9000E000EFEDF0E080818260808308950895A8
:100CA0002091DE0020FDFCCF6091E100262F6091B5
:100CB000E200362F6091E300462F6091E400562F4A
:100CC000B4E0220F331F441F551FBA95D1F7FC0122
:100CD000208331834283538308956091E900262F56
:100CE0006091EA00362F6091EB00462F6091EC0096
:100CF000562F64E0220F331F441F551F6A95D1F70A
:100D0000FC01208331834283538308958436910507
:100D100020F44FB7F89451E01CC040E050E019C0F7
:100D200097FF03C02FEF3FE701C09C01821B930B8D
:100D3000220F331F309521953F4F3093250120938B
:100D400024017ABB60932101D09BFECF1092210138
:100D500002C071E062E0009719F751114FBF08958A
:100D600090E0FC01A3E0EE0FFF1FAA95E1F7E80F6A
:100D7000F91FE655FA4F81E02481358121153105AF
:100D800009F480E008951F931FB7F8948091BC0583
:100D9000882309F44CC01092BC052091340322230F
:100DA00009F445C0809135038F3F59F48091360393
:100DB0008F3F39F480913703809336038093350356
:100DC00012C0309137038091360390E0FC0143E07C
:100DD000EE0FFF1F4A95E1F7E80FF91FE655FA4FAE
:100DE0003087309336038091370390E0FC0133E085
:100DF000EE0FFF1F3A95E1F7E80FF91FE655FA4F9E
:100E00008085809337038091360390E0FC01B3E046
:100E1000EE0FFF1FBA95E1F7E80FF91FE655FA4FFD
:100E20008FEF80872150209334030E94A1051FBFBC
:100E30001F9108950F931F93082F823008F0CDC0A3
:100E40001FB7F8940E94C30640913403442309F469
:100E50005BC050913703252F352F02C0232F382F29
:100E6000031709F041C0802F90E0051781F4FC01C1
:100E700063E0EE0FFF1F6A95E1F7E80FF91FE655F3
:100E8000FA4F8085809337030E94A10519C030E096
:100E9000F90153E0EE0FFF1F5A95E1F7E20FF31F40
:100EA000E655FA4FDC0143E0AA0FBB1F4A95E1F774
:100EB000A80FB91FA655BA4F18968C91189780871E
:100EC000802F90E0FC0133E0EE0FFF1F3A95E1F731
:100ED000E80FF91FE655FA4F8FEF808780913403B2
:100EE00081508093340365C0832F90E0FC0123E0A0
:100EF000EE0FFF1F2A95E1F7E80FF91FE655FA4FAD
:100F00008085415009F0AACF40913503342F242F1A
:100F10004BC00217D9F5209136030417B1F402171C
:100F200021F48FEF809336030DC0802F90E0FC01F9
:100F3000B3E0EE0FFF1FBA95E1F7E80FF91FE65592
:100F4000FA4F80858093350334C0832F90E0FC01F5
:100F5000A3E0EE0FFF1FAA95E1F7E80FF91FE65592
:100F6000FA4F802F90E0DC0173E0AA0FBB1F7A9547
:100F7000E1F7A80FB91FA655BA4F18968C9118978C
:100F800080870217B1F43093360313C0822F90E0AC
:100F9000FC0163E0EE0FFF1F6A95E1F7E80FF91F10
:100FA000E655FA4F322F20852F3F09F0B2CF80E06F
:100FB0000FC0802F90E0FC0153E0EE0FFF1F5A9509
:100FC000E1F7E80FF91FE655FA4F1582148281E028
:100FD0001FBF882321F080E003C08AE801C089E8B0
:100FE0001F910F9108953F924F925F926F927F925F
:100FF0008F929F92AF92BF92CF92DF92EF92FF9229
:101000000F931F93DF93CF9300D000D0CDB7DEB7FF
:10101000D82E2801FA82E982823008F0F6C0011544
:10102000110509F4F6C0082F10E01C830B83F801AA
:10103000A3E0EE0FFF1FAA95E1F7E00FF11FE655C1
:10104000FA4F84819581009709F0E1C0F4E076952C
:10105000679557954795FA95D1F7222321F02130CE
:1010600009F0D7C020C0DB01CA010897A109B10966
:10107000883F1FEF91071FEFA10717E0B10708F0A6
:10108000CAC08091E100682E8091E200782E8091A4
:10109000E300882E8091E400982E460D571D681DB0
:1010A000791D7F7021C02091E100822F2091E20004
:1010B000922F2091E300A22F2091E400B22F8A0109
:1010C0009B01081B190B2A0B3B0BD901C801BF70F0
:1010D0000897A109B109883F1FEF91071FEFA107EA
:1010E00017E0B10708F097C03FB6F894EFEF6E2E07
:1010F000EFEF7E2EEFEF8E2EEFE09E2E6422752214
:10110000862297220E94C306E09037032E2D2F3FA0
:1011100031F0A0903403BE2CFE2CCC2451C0D092D0
:101120003703EB81FC8133E0EE0FFF1F3A95E1F7C7
:101130008B819C81E80FF91FE655FA4FE08644C089
:101140009F2D9F3FE1F18F2D90E08C0123E0000F58
:10115000111F2A95E1F7080F191F06551A4FD801DC
:101160006D917D918D919C91A40193010E946B05DD
:10117000882321F0BF2CF801F08421C0EB81FC8191
:1011800003E0EE0FFF1F0A95E1F70B811C81E00FD2
:10119000F11FE655FA4FF086EF1419F4D092370399
:1011A00013C08B2D90E0FC0113E0EE0FFF1F1A958A
:1011B000E1F7E80FF91FE655FA4FD08605C0C39452
:1011C000CA1408F4BDCF3EC0EB81FC81B3E0EE0F42
:1011D000FF1FBA95E1F72B813C81E20FF31FE65523
:1011E000FA4F608271828282938255824482898121
:1011F0009A8197838683809134038F5F8093340331
:101200000E94A1053FBE80E007C08AE805C088E8CB
:1012100003C088EE01C08BE80F900F900F900F90E5
:10122000CF91DF911F910F91FF90EF90DF90CF90C2
:10123000BF90AF909F908F907F906F905F904F90F6
:101240003F9008958B2D90E0FC01A3E0EE0FFF1F6F
:10125000AA95E1F7E80FF91FE655FA4FD086EB8122
:10126000FC8173E0EE0FFF1F7A95E1F7AB81BC8143
:10127000EA0FFB1FE655FA4F8FEF8087A5CF1F932C
:101280000E94C3061FEF2FC03FB7F894809135032B
:1012900090E0DC0123E0AA0FBB1F2A95E1F7A80F1D
:1012A000B91FA655BA4F18962C9118971496ED9120
:1012B000FC91159716968D919C91179718961C93F3
:1012C000189715961C921E92149717961C921E92B0
:1012D0001697209335032F3F11F4109336033FBF29
:1012E000309709F00995809135038F3F69F61F917A
:1012F00008951F920F920FB60F9211242F933F93D0
:101300008F939F933091E1002091E2009091E30050
:101310008091E400309330032093310390933203A3
:101320008093330380913403882319F081E0809304
:10133000BC059F918F913F912F910F900FBE0F9001
:101340001F9018951F920F920FB60F9211248F9332
:101350008FEF8093E4008093E3008093E20080931A
:10136000E1008F910F900FBE0F901F90189581E0B4
:1013700008951F93DF93CF93CDB7DEB7C054D0400D
:101380000FB6F894DEBF0FBECDBF162F952F27E006
:1013900024B923E52CBDFE01319620E033E0A59869
:1013A000000000000000000000000000000000003D
:1013B000000000000000000000000000000000002D
:1013C0003EBD0DB407FEFDCF522F5F775EBD0DB45D
:1013D00007FEFDCF1EBC0DB407FEFDCF5EB5A59A7E
:1013E00051932F5F2034D9F61CBC2098DE01AF5BEF
:1013F000BF4F20E030E0FE01319651912527022EAB
:101400002295207F2025032E322F22952F70022631
:10141000269532272327220F220F220F2025EA1795
:10142000FB0759F72115310569F49E012F5F3F4FE6
:10143000280F311D842FB901412F50E00E94D12483
:1014400080E001C085E8C05CDF4F0FB6F894DEBFD6
:101450000FBECDBFCF91DF911F910895729A6A9A06
:10146000739A6B9A749A6C9A08958130910589F0F9
:1014700082309105F1F0613039F0613018F062305E
:1014800039F504C072980895729A08958EB194E067
:101490000DC0613039F0613018F06230C9F404C019
:1014A00073980895739A08958EB198E089278EB93C
:1014B0000895613039F0613018F0623049F404C0A9
:1014C00074980895749A08958EB190E189278EB921
:1014D0000895759A6D98089581E0659B80E0089560
:1014E000A59A9D9A089590E29CBBED9A93B7917F3F
:1014F000982B93BF83B7816083BF889583B78E7F16
:1015000083BF08951F920F920FB60F921124ED988A
:101510000F900FBE0F901F901895EF92FF920F93B0
:101520001F93CF93DF9388E393E00E94430B0DE377
:1015300013E095E9E92E95E0F92EC0E0D0E0F7013F
:1015400011830083BE01660F771F660F771F6B56EE
:101550007A4F88E393E00E944A0B21960A561F4F68
:1015600084E090E0E80EF91EC430D10541F7DF9128
:10157000CF911F910F91FF90EF90089588E393E032
:1015800060E070E00E94650B0895BC01009721F0B7
:1015900088E393E00E944A0B08956F927F928F92A6
:1015A0009F92BF92CF92DF92EF92FF920F931F9381
:1015B000CF93DF938C014B016A01BFB6F894DC0135
:1015C00014968C911497882309F44BC0CD91DC912B
:1015D000119741155105C1F07E0113C0F6016281DA
:1015E00073810190F081E02D88819981099588238C
:1015F00071F47E019A818B81692EE3013E01782E80
:10160000E301209759F72FC0209769F17E018114DB
:10161000910449F5D8012D913C9111978A819B81C4
:10162000C217D30721F411969C938E9303C0F70140
:1016300093838283D80112968D919C911397C8173A
:10164000D90721F41396FC92EE921297F801848147
:101650008150848380819181009729F413821282C2
:1016600002C0C0E0D0E0BFBECE01DF91CF911F919C
:101670000F91FF90EF90DF90CF90BF909F908F9051
:101680007F906F900895FC01118210821382128264
:1016900014820895FC019FB7F8948481882319F47B
:1016A0007183608306C0A281B38113967C936E938D
:1016B000129773836283DB0113961C921E9212971A
:1016C00084818F5F84839FBF0895AB0160E070E0E9
:1016D0000E94CD0A0895AB0161E070E00E94CD0A3E
:1016E0000895CF93DF93EC010BC0CE0160E070E072
:1016F0000E94650B009711F41C8205C00E94C50A68
:101700008C81882391F7DF91CF9108951F93809169
:1017100041018F71883091F481E080934F0189E01D
:101720008093420110E080914F0180FD07C08EE65A
:1017300090E00E9486061F5F1330A9F71F9108955D
:101740001F93182F8091DD058F3009F51092E60563
:101750008EEC92E10E94C8039FB7F8947894809130
:1017600039018D7F809339018091E6058823E1F36B
:101770009FBF8FEF80934F018CE480934E01183010
:1017800011F0133021F488E08093DD05B2C180911F
:1017900041018F718093DD05183009F44CC0193078
:1017A00050F4143009F494C0163009F49CC013307E
:1017B00009F098C156C01F3069F0103120F419307B
:1017C00009F090C164C0163109F4C3C0193109F0A1
:1017D00089C123C183E0809342010E94C124809388
:1017E0006D0180916E019770887F982B90936E01A8
:1017F0008FEF80934F0180E880934E01000000003E
:1018000000000000000000000000000000000000D8
:10181000000000000000000000000000809139017D
:1018200082608093390183E290E00E9486061093E3
:10183000DD058FE05EC1883009F454C11093420188
:101840000000000000000000000000000000000098
:101850000000000000000000000000000000000088
:1018600041C1883009F43EC11093420100000000DC
:101870000000000000000000000000000000000068
:101880000000000000000000000000002BC18830B4
:1018900021F1893020F4863009F024C105C0863159
:1018A00019F0893109F01EC189E0809342010000DE
:1018B0000000000000000000000000000000000028
:1018C00000000000000000000000000000000AC14D
:1018D000883019F0893021F405C10E94860B02C1BD
:1018E00010934201FFC0893059F08A3020F48830CB
:1018F00009F0F8C019C0863119F0893109F0F2C039
:1019000086E080934201000000000000000000001B
:1019100000000000000000000000000000000000C7
:10192000000000000000DEC00E94860B1093420100
:1019300000000000000000000000000000000000A7
:101940000000000000000000000000000000000097
:10195000C9C08830F9F0893020F4863009F0C2C05F
:101960002EC0893019F0893109F0BCC086E180931E
:101970004201000000000000000000000000000024
:101980000000000000000000000000000000000057
:101990000000A8C00E94860B1093420100000000C6
:1019A0000000000000000000000000000000000037
:1019B00000000000000000000000000093C089E06B
:1019C00080934201000000000000000000000000C1
:1019D0000000000000000000000000000000000007
:1019E00000000000809141018F718093DD058930F6
:1019F00009F07FC0109342010000000000000000C9
:101A000000000000000000000000000000000000D6
:101A1000000000000000000065C0883009F44EC0DE
:101A2000893020F4863009F05DC019C0893021F07A
:101A3000863109F057C013C0109342010000000026
:101A40000000000000000000000000000000000096
:101A500000000000000000000000000043C089E01A
:101A60008093420100000000000000000000000020
:101A70000000000000000000000000000000000066
:101A800000000000809141018F718093DD05893055
:101A900009F02FC089E1809342010000000000009E
:101AA0000000000000000000000000000000000036
:101AB0000000000000000000000014C00E94860B1F
:101AC0001093420100000000000000000000000030
:101AD0000000000000000000000000000000000006
:101AE00000000000809141018F718093DD058F31EE
:101AF000C9F31F9108958091CE058823E1F080916C
:101B0000E7058823C1F48091A5059091A60500976B
:101B100039F486E90E94BE0A9093A6058093A50534
:101B20008091A5059091A605009729F01092CE0509
:101B300086E10E94A00B8091D305882351F08FECA1
:101B400095E060E070E00E94650B009711F00E9444
:101B50001D0E8091E705823011F40E94580E089501
:101B6000AF92BF92CF92DF92EF92FF920F931F93AB
:101B7000DF93CF930F92CDB7DEB7E091A505F0913B
:101B8000A605309709F44DC0E080F180C090470170
:101B9000D0907B01D7FC45C08D2D8E5F06E910E00B
:101BA000081B11090E0D1F1DAD2CBB2495012F5FC5
:101BB0003F4FC80160E871E0A9010E94D124F801FB
:101BC000D292D7011796FC93EE931697EA0DFB1D60
:101BD000C28280914C018F7780934C0182E090E02B
:101BE0000E94860680914C01806880934C01609130
:101BF000A5057091A6058FEC95E00E944A0B86E939
:101C00000E94BE0A9093A6058093A505009731F423
:101C100089E00E94A00B81E08093CE0580E4809350
:101C20004F010F90CF91DF911F910F91FF90EF9097
:101C3000DF90CF90BF90AF900895CF93DF939C013A
:101C4000FC01C081D181AE81BF81EC91E093DF05C1
:101C5000F0E03196EA0FFB1F608141814D3318F4AB
:101C6000442319F003C04CE301C041E0629566953E
:101C7000669563708FEF689FB001112450E0649FF8
:101C8000C001659F900D749F900D112464EB70E06E
:101C90000E9415246F3F710511F008F06FEF60830B
:101CA0003A832983CE010E94D517DF91CF91089501
:101CB0001092E705E091A705E83028F4F0E0E05045
:101CC000FE4F808101C085E86091D9057091DA05E9
:101CD0000E942C1D0895EF92FF920F931F93CF93B4
:101CE000DF93EC018B01442349F090916C018091CA
:101CF000DC058295807F9F70892B03C080916C01E9
:101D00008F7080936C010230110598F4442369F0C0
:101D100090916C018091D405880F8E70917F892BF2
:101D200080936C0110926F0117C080916C018E60DE
:101D300011C08091D8058295807F9091DB05892B19
:101D400080936F0190916C018091D405880F8E7003
:101D5000917F892B80936C0189E10E94A00B8931CE
:101D6000D9F70130110551F48091DF05833118F066
:101D700080E492E005C080E890E002C089E090E055
:101D80000E9486060FB7F894809139018260809393
:101D90003901809139018D7F80933901288130E0AC
:101DA0002150304080E891E0BE01A9010E94D12479
:101DB00081E08093E7050FBFDF91CF911F910F91D5
:101DC000FF90EF9008952091E705222389F49093E6
:101DD000DA058093D905FC01868197819093E1050E
:101DE0008093E005009731F00E946B0E80E008952B
:101DF00086E8089588EE08951F931091E705113045
:101E0000C9F4809142018295869587708093A705D9
:101E100082E08093E7058091A5059091A605009743
:101E200031F489E00E94A00B1093CE0503C086E137
:101E30000E94A00B1F91089585FD03C0982F9F73EA
:101E400004C0982F91959F719195E0E2F1E0249163
:101E5000291744F4203EB4F02032B4F427FF10C018
:101E6000822F0BC03F96E4919E178CF4E03E54F015
:101E7000E03254F4E7FF0AC08E2F8F71806207C0F2
:101E8000822F05C080E203C08FE101C08E2F8068E1
:101E9000089585FD03C0982F9F7304C0982F9195D6
:101EA0009F71919520E030E0822FF901E05EFE4FB6
:101EB000E4919E1724F0E91744F4815008952F5FB0
:101EC0003F4F2031310581F780E0089584E0809311
:101ED000D40523E02093DB058FEF9FEF9093CA0595
:101EE0008093C9059093CD058093CC058BE08093BA
:101EF000D6051092C80580E098EFAFEFB7E0809369
:101F0000E2059093E305A093E405B093E5058AE02C
:101F100091E09093C7058093C6058AE08093DE0523
:101F200082E08093D50585E08093D8052093DC0579
:101F300084E80E941C0F8093BD0581E08093CB054F
:101F40001092D70508958091C90580936201809110
:101F5000CA0580936301AEEBB5E0E4E6F1E08D9154
:101F6000819381E0EC36F807D1F78091CC0580931E
:101F700060018091CD05809361019091480180912D
:101F8000CB058295880F80769F79892B80934801B5
:101F900090916F018091DB058F70907F892B8093EA
:101FA0006F0190916E018091D705880F880F880F7F
:101FB0008870977F892B80936E0190916F0180913B
:101FC000D8058295807F9F70892B80936F019091B7
:101FD00048018091D6058F71907E892B80934801AE
:101FE0008091BD050E94490F909145018F70907FAF
:101FF000892B809345010895CF93DF93EB018E34B5
:1020000031F0893541F488818093DC05DFC0888117
:102010008093D405DBC02091DD052F3009F4D8C0B2
:102020008B3009F4C6C08C3078F4823009F482C059
:10203000833018F48823B9F1CDC0833009F489C006
:10204000843009F0C7C060C0833511F1843530F4A5
:102050008F3459F0803509F0BDC00FC0873509F4C1
:102060005DC0803F09F0B6C081C088818093DB05E8
:1020700090916F018F70907F59C098818981909362
:10208000C9058093CA0590936201809363019EC045
:10209000988189819093CC058093CD0590936001C0
:1020A0008093610193C08091E705882309F094C073
:1020B00080E098EFAFEFB7E0088004C0B695A79531
:1020C000979587950A94D2F781709070009709F4DC
:1020D00085C0283039F088E00E94A00B8830D9F7FD
:1020E00026E101C028E088818093D60590914801BF
:1020F0008F71907E892B80934801283009F466C047
:1021000086E10E94A00B62C08091E705882309F058
:1021100063C08881882309F462C060C0888180938D
:10212000D80590916F018295807F9F70892B809355
:102130006F014CC088810E941C0F8093BD050E94D6
:10214000490F909145018F70907F892B80934501B5
:102150003DC088818093CB05909148018295880F7E
:1021600080769F79892B8093480130C08881809345
:10217000BE0589818093BF058A818093C0058B81CC
:102180008093C1058C818093C2058D818093C305A6
:102190008E818093C4058F818093C505AEEBB5E039
:1021A000E4E6F1E08D91819381E0EC36F807D1F718
:1021B0000DC088818093D70590916E01880F880F9C
:1021C000880F8870977F892B80936E0180E007C00D
:1021D00081E805C084EF03C086E801C088EEDF9186
:1021E000CF910895CF93DF9386E00E94A00B8630B5
:1021F000D9F7809155018F778093550110924E0148
:1022000028E0C0E0D0E080914601CC0FDD1FCC0F6C
:10221000DD1F90E08076907035E0969587953A9531
:10222000E1F7C82BD92B00000000000000000000DF
:10223000000000000000000000000000000000009E
:102240000000000000002150F1F683E00E94A00B86
:102250008FEF80934F018CE480934E01CE010E945A
:10226000C624DF91CF9108950F931F93DF93CF93EF
:102270000F92CDB7DEB7182F81E065E170E041E045
:1022800050E09E012F5F3F4F0E94CB0480913901A7
:102290008D7F8093390180EF90E00E9486068091C7
:1022A00039018E7F8093390181E090E00E9486069B
:1022B0008091390181608093390100E084E690E0EB
:1022C0000E948606809141010A30E1F08F718830CA
:1022D00011F00F5FF3CF8093DD0589818823C9F06A
:1022E000909152018F70907F892B8093520111C081
:1022F0000E94660F0E94A30F1092E7051092CE0570
:1023000080E001C085E80F90CF91DF911F910F9180
:1023100008950E94F2100E94C12480936D01809163
:102320006E019770887F982B90936E0180E00E94D9
:10233000D2120E94F21280916E01806280936E012F
:1023400080914C01806880934C018CE480934E0115
:10235000112381F2CDCF1F93182F0E9434118823AF
:1023600059F01FC08FEC95E060E070E00E94650BB3
:10237000009711F00E94C50A8091D305882391F738
:10238000812F0E945E1388E080934F0180E4809348
:102390004F0184E080934F0180E880934F0180E0FB
:1023A00001C085E81F9108951F93CF93DF930E948A
:1023B000B504882309F0CDC08091390181608093F4
:1023C0003901809139018D7F809339018CE791E04B
:1023D0000E948606809139018E7F8093390181E0C9
:1023E00090E00E94860680913901816080933901D6
:1023F00010E084E690E00E948606809141011A3048
:1024000009F4A7C08F71883011F01F5FF2CF80935D
:10241000DD0580915C01833809F09BC09FC0CEEB45
:10242000D5E00E94C124899385E0C63CD807C9F74E
:102430008091BE052091BF055091C0056091C105F6
:102440007091C205E091C305F091C405A091C50546
:10245000382F315041E0381708F040E0822F81508A
:1024600091E0821708F090E0480F21E0481708F04B
:1024700020E0922B252F215081E0251708F080E0E5
:10248000592F520F91E0521708F090E0892B262F18
:10249000215091E0261708F090E0682F620F81E04C
:1024A000621708F080E0982B272F215081E0271732
:1024B00008F080E0792F720F91E0721708F090E039
:1024C000892B2E2F215091E02E1708F090E0E82F55
:1024D000E20F81E0E21708F080E0982B2F2F2150C7
:1024E00081E02F1708F080E0920FF1E0921708F0DA
:1024F000F0E08F2BA195A81779F49F3F69F4EF3F87
:1025000059F47F3F49F46F3F39F45F3F29F44F3F5F
:1025100019F43E3F08F083CF8EEB92E10E94BE0398
:1025200086EC92E10E94B9038EEC92E10E94C8030E
:102530000E948D0A86E90E94BE0A9093A6058093A8
:10254000A5058FEC95E00E94430B0E94571380E095
:1025500001C085E8DF91CF911F91089581E060E08F
:1025600070E048E050E02EEB35E00E94CB0481E0C3
:102570000E943411882309F45BCFEBCF1F931FB760
:10258000F8940E94B00D1FBF1F9108951F931FB7AD
:10259000F8940E94FC0E1FBF1F91089581E0809364
:1025A000E60508958823B1F48091DD058F30A1F010
:1025B0008091E705882391F41092CE0588E00E946F
:1025C000A00B8830D9F78FE00E94A00B8F3041F428
:1025D00080E0089588EE089581E8089586E80895DA
:1025E00086E808958091DD058F3039F488E00E94F7
:1025F000A00B883021F480E0089582E8089585E8F2
:1026000008959091E7059923B9F4883031F40E9438
:10261000A00B1092CE0588E008958091A5059091B9
:10262000A605009721F086E10E94A00B03C081E07F
:102630008093CE0586E0089586E80895882331F4D6
:102640008091A805FB01808380E0089584EF0895C0
:10265000882329F5FB0180818093A805803D2CF01B
:102660008FEC8093A8056FE011C0873A2CF486EABE
:102670008093A80560E00AC0992787FD9095865A47
:102680009F4F63E070E00E9429246F5F80915501A5
:102690006F70807F682B6093550180E0089584EF10
:1026A000089580E068EA75E00E942813089586EA9C
:1026B0008093A8050E94511380E00895882319F0A3
:1026C00086EA8093A8050E945113089588E00E942D
:1026D000A00B8830D9F7809155018068809355010F
:1026E00086E00E94A00B8630D9F78091480180686F
:1026F0008093480180E990E00E9486068091410124
:1027000087FFFCCF88E00E94A00B8091410186FFEB
:1027100002C084E001C080E0909155019F779093C2
:10272000550108951F9386E00E94A00B8630D9F7CB
:10273000809155018068809355018FEF8093470108
:1027400080E890E00E94860680914F0184FFFCCFD4
:1027500080914701883350F49FEF899FC001112475
:1027600067E370E00E941524162F01C01FEF8091CF
:102770004F01809155018F778093550188E00E9429
:10278000A00B812F1F910895EF92FF920F931F933B
:10279000DF93CF9300D0CDB7DEB70091DD050F30CA
:1027A00019F488E00E94A00B10924E018091510113
:1027B0008F7E80935101809151018F6080935101F0
:1027C00085E090E00E9486068091510185FD0FC052
:1027D00080915101807F8093510182E090E00E94BE
:1027E00086068091510185FF17C020E065C0809169
:1027F0005101806180935101809151018F608093DC
:10280000510185E090E00E9486068091510185FF8C
:1028100052C04FEF5FEF2EC040E050E02BC09091D0
:102820005101812F8F70907F892B8093510182E01D
:1028300090E029830E94860680915101298185FDBF
:1028400004C0112339F0115006C01F5F103139F751
:102850001FE001C010E0222339F08BE4189FA00193
:1028600011244A50564F06C082E3189FA00111243C
:102870004C55594F80914F0188E080934F0180E47F
:1028800080934F0184E080934F018CE480934E014C
:102890000F3039F48FE049835A830E94A00B5A818C
:1028A0004981CA010F900F90CF91DF911F910F9135
:1028B000FF90EF90089521E010E0B1CFEF92FF92EA
:1028C0000F931F9380E880937A0088E080937B00C9
:1028D00089EC80937C0085ED80937A0080917A006A
:1028E00084FFFCCFE0E160E070E0CB01F5EDF09318
:1028F0007A0020917A0024FFFCCF2091780030915B
:10290000790040E050E0620F731F841F951FE15073
:1029100071F70E940C2220E030E040E85DE30E9465
:10292000B220F62E072F182FE92E80917A008F778C
:1029300080937A0010927B0088EC80937C00A0E169
:1029400060E070E0CB01B5EDE0E0F4E0B0937A0038
:1029500020917A0024FFFCCF2091780030917900FB
:1029600042E02030340758F0AF01421B530B9A016C
:1029700040E050E0621B730B840B950B06C040E0F7
:1029800050E0620F731F841F951FA150F9F620912C
:102990007A002F7720937A000E94AC2120E030E06B
:1029A00040E85DE30E94B2209B01AC016F2D702FC7
:1029B000812F9E2D0E94812027ED33EA40E95FE3BD
:1029C0000E94B22026E636E648E853E40E948120C1
:1029D0001F910F91FF90EF900895EF92FF920F9348
:1029E0001F93DF93CF93CDB7DEB7C258D0400FB659
:1029F000F894DEBF0FBECDBF909144019F7D9093B0
:102A0000440198E0909342019FE09093760193E017
:102A100090934C0197EA90934A01882351F481E006
:102A200089831A8289819A819093810180938001A0
:102A300035C08FE7898321E08E010F5F1F4FE22EA3
:102A4000FF246623D9F0CF57DF4F2883C158D040E9
:102A5000CE57DF4F6883C258D0400E94C124F8018E
:102A6000EE0DFF1D8083CF57DF4F2881C158D04026
:102A7000CE57DF4F6881C258D04004C0F801EE0D38
:102A8000FF1D10822F5F2038D1F6A0E8B1E0FE01D3
:102A9000319680E801900D928150E1F784E58093B2
:102AA0005C0186E480935C0189E00E94A00B809128
:102AB0003901826080933901809139018D7F809343
:102AC0003901CE57DF4F0FB6F894DEBF0FBECDBF32
:102AD000CF91DF911F910F91FF90EF90089580E0CB
:102AE0000E94AB110895CF92DF92EF920F93DF9384
:102AF000CF93CDB7DEB766970FB6F894DEBF0FBEA3
:102B0000CDBF6C01DC01ED91FC91818189838281D3
:102B100093819B838A8384818C8385818D83868145
:102B20008E8387818F838085888781858987828549
:102B30008A8783858B8784858C87858596859E8704
:102B40008D8787858F878089888B8189898B82890A
:102B50008A8B83898B8B84898C8B85898D8B8689E5
:102B60008E8B228D338DCE010196BE01645F7F4F27
:102B7000418D0789E08C0E94C102C6010E94C50AEE
:102B800066960FB6F894DEBF0FBECDBFCF91DF9132
:102B90000F91EF90DF90CF900895EF92FF92CF9337
:102BA000DF93E82EE7017E01F92EE701E881F98144
:102BB000818162810E948703C7010E94C50ADF915B
:102BC000CF91FF90EF900895EF92FF92CF93DF9314
:102BD000E82EE7017E01F92EE701E881F981AF01D6
:102BE0004D5F5F4F818162810E942A02C7010E946E
:102BF000C50ADF91CF91FF90EF900895EF92FF9279
:102C0000CF93DF93E82EE7017E01F92EE701E881FB
:102C1000F98181810E942002C7010E94C50ADF91CB
:102C2000CF91FF90EF900895EF92FF92CF93DF93B3
:102C3000E82EE7017E01F92EE701E881F981818123
:102C40000E944D02C7010E94C50ADF91CF91FF90FB
:102C5000EF900895EF92FF92CF93DF93E82EE70174
:102C60007E01F92EE701E881F981818162810E946C
:102C70004E02C7010E94C50ADF91CF91FF90EF90ED
:102C80000895CF92DF92FF920F931F93CF93DF931C
:102C9000BC01DC01ED91FC91A681B7818C91809300
:102CA0001506A80FB11D11968C9180932E06A68152
:102CB000B78111968D919C91129722E136E0909305
:102CC00013068093120613964C91139740931606A1
:102CD000AD014C5F5F4F092F029506950695037075
:102CE000192F16951695137009F441C01496ED919D
:102CF000FC911597F0931906E0931806FD0136969E
:102D00001230A9F4F9013896E9011886118212826D
:102D1000138214821582168217821696ED91FC9109
:102D20001797F987E887FD013896A4E024C013308F
:102D300009F5CC24DD246894C3F8C20ED31E169680
:102D4000FC901697E901F8862181E601298322810A
:102D50002A8323812B8324812C8325812D83268123
:102D60002E8327812F83FD013E96AAE004C0FA013D
:102D7000A0E001C0A2E0002309F447C086FD08C01E
:102D8000219131913093240620932306AE5F08C031
:102D900020911806309119063093240620932306BB
:102DA0000230C1F4109225061092260610922706D2
:102DB000109228061092290610922A0610922B06CD
:102DC00010922C062081318130932606209325060F
:102DD000AE5F1BC00330C9F42081209325062181FA
:102DE00020932606228120932706238120932806FC
:102DF000248120932906258120932A062681209369
:102E00002B06278120932C06A85FF0901506EBEF88
:102E1000FE0EFA1AF0922F06009322061093170660
:102E200083FDB2C0FA01EA0FF11D282F277020930D
:102E30001406233021F4208120932D065CC021301C
:102E400009F449C0213020F0233009F09DC053C05F
:102E50008081918190933106809330064281409326
:102E60003206477011F04C5F01C043E0DF01A40F50
:102E7000B11D8C91809333064F5F582F577090E0AF
:102E80008077907024E0959587952A95E1F75523F2
:102E900011F4882389F09F01240F311D30933506EA
:102EA00020933406552311F0550F450F882321F048
:102EB000880F880F880F480F4F1550F4F41AF092BE
:102EC0003606E40FF11DF0933806E093370660C034
:102ED000109236065DC0FF2059F02F2D263718F0CE
:102EE00086E780932F06F0933106E093300650C0BA
:102EF00010922F064DC020912D06273009F448C0AE
:102F0000283021F0243009F03FC042C021813281B5
:102F10003093310620933006238134813093330679
:102F20002093320625812093340626813781309301
:102F300036062093350694FF2BC080858093370694
:102F400027C080911406833059F480912D06843077
:102F500011F0873029F483E096E00E944A0B1DC0EF
:102F60008091F405882381F48091FB05882361F426
:102F700080913906882341F480911406813021F430
:102F8000CB010E941F1909C0CB010E94C50A05C0D0
:102F900080913A068823A9F6E3CFDF91CF911F9164
:102FA0000F91FF90DF90CF900895FC011082618116
:102FB00072816115710521F083E096E00E944A0B51
:102FC0000895DC01ED91FC911197E081E43270F4F9
:102FD000F0E0EE0FFF1FE05DFE4F25913491F90107
:102FE000309711F0099508950E94C50A08951F931E
:102FF00080913A06882381F48091FA05882361F054
:1030000086EF95E060E070E00E94650B009721F08C
:103010000E94E11711E001C010E0809107068823AB
:1030200059F083E096E060E070E00E94650B009745
:1030300019F00E94E11711E0812F1F910895FC0102
:10304000A081B18180E18C9311964C9311971296D7
:103050006C938CE396E0BF010E944A0B08956F9237
:103060007F928F929F92AF92BF92CF92DF92EF9218
:10307000FF920F931F93CF93DF93E82EE7017E011A
:10308000F92EE70108811981D80111967C911197D9
:103090001296BC91F80143815481C580D680878007
:1030A0009084A184B28473846484F584A785E684C3
:1030B000E2FC0BC08091F405882321F48091FB058C
:1030C000882319F0CE0161EE9CC08DE0F801808369
:1030D000F3826A2F6B5FE4E9F0E0EA1BF109E00F8D
:1030E000F11F723041F46E5F8091CC059091CD0557
:1030F000929382931DC07330D9F438976A2F635F1F
:103100008091BE0580838091BF0581838091C00539
:1031100082838091C10583838091C20584838091DD
:10312000C30585838091C40586838091C505878307
:103130008091C9059091CA058417950729F47723D2
:1031400041F0BB2359F402C0772319F06E5F9293CC
:103150008293BB23C9F020E030E002C020E430E0DD
:10316000B23021F46E5FD292C2920AC03897685F83
:10317000C082D18282829382A482B5827682678263
:103180006E5F5293429302C020E030E08091FD05D3
:1031900082938F5F8093FD05C9018160E0FE02C0CC
:1031A000C9018162A73608F090613B2F330F330FBE
:1031B00020E0572F5295550F550F507C40E0242B9F
:1031C000352BDF011297282B392B11963C932E9328
:1031D00067FD15C033976083D8011796FC93EE9373
:1031E00016970E94921AF801D283C183C80162E047
:1031F00070E041E00E94E30E882339F00AC0CE015E
:1032000065EE4F2D0E941F180BC081E080933A0697
:1032100007C0CE0161EE4F2D0E941F180E946C1A4C
:10322000DF91CF911F910F91FF90EF90DF90CF90A2
:10323000BF90AF909F908F907F906F900895BC014A
:10324000FC019081818120912F06222309F473C013
:10325000E92FF82F80911606808F20912206218376
:10326000809123069091240693838283822F82503B
:10327000823050F5148215821682178210861186CC
:1032800012861386223039F4809125069091260605
:103290009583848323C080912506848380912606AC
:1032A0008583809127068683809128068783809175
:1032B0002906808780912A06818780912B06828744
:1032C00080912C0683870AC0138212821482158291
:1032D000168217821086118612861386808D909131
:1032E000E805891761F524819091EB05291739F5D7
:1032F00025819091EC05291711F526819091ED0516
:103300002917E9F427819091EE052917C1F420854A
:103310009091EF05291799F421859091F0052917CF
:1033200071F422859091F105291749F42385909134
:10333000F205291721F4CB010E94C50A63C08093CE
:10334000E80584818093EB0585818093EC05868177
:103350008093ED0587818093EE0580858093EF054E
:1033600081858093F00582858093F1058385809324
:10337000F2052091170624871786108A118A128A6F
:10338000138A148A158A168A809118069091190654
:10339000968785872330C9F480911A0687878091A4
:1033A0001B06808B80911C06818B80911D06828B71
:1033B00080911E06838B80911F06848B809120064E
:1033C000858B80912106868B0BC0223039F4809149
:1033D0001A0690911B06908B878702C01686158669
:1033E00080912E06878B80912F06818F80913006E9
:1033F00090913106938F828F81E180838CE396E0F8
:103400000E944A0B0E946C1A08951F93182F109265
:103410003A061092390610923B061092FB05109264
:10342000FC051092F4051092E8058FEF8093EB05F0
:103430008093EC058093ED058093EE058093EF0576
:103440008093F0058093F1058093F20510920206B7
:1034500088E00E940113112351F180E098E79093D6
:103460000906809308061092F30581E08093F50524
:1034700086E08093EA0510920A0610920B061092DD
:103480000C0610920D0610920E0610920F06109266
:103490001006109211068FEF9FEF90930106809314
:1034A00000060E94C1248093FD051092E9051F913A
:1034B000089580913B06882371F40E944F0680E0B6
:1034C0000E94D212882321F481E080933B06089564
:1034D00081E00E944F0608958091E905882331F428
:1034E00080910206882311F40E94591A08950E94BF
:1034F000D411882399F40E94B709882389F081E0C8
:103500000E94051A0E946C1A86EF95E00E94430BF8
:1035100083E096E00E94430B80E0089585E80895DB
:1035200085E8089580913B06813049F40E94F212AB
:10353000853829F081E00E944F0610923B060895DD
:10354000EF92FF920F931F93CF93DF93E82EE70143
:103550007E01F92EE701088119810E94921AF80173
:10356000118180E00E944F0681E0112309F480E080
:103570000E94AB11082F81E00E944F06812F0E940C
:10358000051A0E946C1A86EF95E00E94710B83E089
:1035900096E00E94710B8CE396E00E94710BE8812B
:1035A000F981018380E280838CE396E0BE010E9472
:1035B0004A0BDF91CF911F910F91FF90EF900895EB
:1035C000DF93CF9300D000D0CDB7DEB70E94921A20
:1035D0008FEF9FEF9A8389839C838B8383E5BE0162
:1035E0006F5F7F4F0E94EF1C80E5BE016D5F7F4FD4
:1035F0000E94EF1C81E00E94051A0E946C1A0F9035
:103600000F900F900F90CF91DF910895BC01DC01D6
:10361000ED91FC91DF01139681818B3409F492C006
:103620008C3428F5843009F458C0853068F4813032
:1036300009F4CFC0813008F4C9C0823009F4D6C083
:10364000833009F0DBC0D5C0873009F451C0883021
:1036500038F4853009F444C0863009F0CFC045C045
:10366000823409F448C08A3409F0C8C047C08335A1
:1036700009F47EC0843598F48F3409F46EC0803527
:1036800038F48C3409F463C08E3409F0B7C062C0DA
:10369000803509F465C0823509F0B0C066C08A354E
:1036A000A1F08B3530F4873551F0893509F0A6C08B
:1036B00009C08D3579F0803F09F0A0C060C08091CD
:1036C000D80599C08091DC0596C08091080690913C
:1036D000090652C08091F3058EC08091C8058BC049
:1036E0008091C6059091C70547C08091DE0583C0D3
:1036F0008091D50580C08091F5057DC080910A0636
:10370000838380910B0611968C93119780910C0600
:1037100012968C93129780910D0613968C931397A3
:1037200080910E0614968C93149780910F0615962F
:103730008C9315978091100616968C93169780910E
:10374000110640C0809100069091010615C080913D
:10375000FD0551C08091D4054EC08091DB054BC062
:103760008091C9059091CA0507C08091E90543C0C1
:103770008091CC059091CD05948383833DC0809149
:10378000BE0583838091BF0511968C93119780911C
:10379000C00512968C9312978091C10513968C9355
:1037A00013978091C20514968C9314978091C3054A
:1037B00015968C9315978091C40516968C93169741
:1037C0008091C50517968C93179716C08091D605E2
:1037D00012C02091E2053091E3054091E40550913B
:1037E000E505238334834583568306C08091BD0558
:1037F00002C08091CB05838380E001C084EF91817A
:1038000092839EE1908381838CE396E00E944A0B31
:103810000895EF92FF920F931F93DF93CF930F9230
:10382000CDB7DEB7182F7B01042F8C3409F472C09A
:103830008D3408F5833409F486C0843468F4853007
:1038400038F4823008F07FC0882309F47CC08FC030
:10385000823409F08CC02DC0873409F474C08834D8
:1038600020F4843409F083C02EC08A3489F18B346B
:1038700009F07DC047C0853568F4833508F063C022
:103880008E3408F474C0813508F45DC0823509F0C7
:103890006EC045C0893509F456C08A3520F4873595
:1038A00009F065C050C08A3531F0803F09F05FC033
:1038B0004AC098EE5DC0FB0180819181909309061A
:1038C000809308063EC0FB0180818093EA0539C0E1
:1038D000FB01808180930A06818180930B0682819F
:1038E00080930C06838180930D06848180930E065D
:1038F000858180930F06868180931006878180934F
:1039000011061FC0FB018081918190930106809375
:10391000000617C0FB0180818093FD0512C081E085
:10392000FB019081992309F480E08093E9058823C5
:1039300031F00E94921A86E00E94011302C00E9498
:103940006C1A90E015C0812FB7010E94FC0F982FD0
:10395000813871F40E94F212812FB7010E94FC0F8E
:10396000982F882329F481E08093A90501C094EF62
:10397000002371F08091A905882351F08091E90519
:10398000882331F499830E94D2121092A90599815B
:10399000892F0F90CF91DF911F910F91FF90EF90A2
:1039A00008950F931F93CF93DF938C01FC01C08187
:1039B000D181BE016E5F7F4F898141E00E94091C69
:1039C00099819A839FE1988389838CE396E0B8017B
:1039D0000E944A0BDF91CF911F910F910895DF93C1
:1039E000CF9300D00F92CDB7DEB790913B069130C8
:1039F00079F469837A838B830E94921A8B8169811F
:103A00007A810E94FC0F8B830E946C1A8B8102C00A
:103A10000E94FC0F0F900F900F90CF91DF910895AF
:103A2000883030F4E82FF0E0E858FE4F8491089594
:103A3000982F9054903230F4E82FF0E0E05CFE4F85
:103A400084910895803F30F0E82FF0E0E055FF4F7B
:103A50008491089580E00895282FFB0110923A0682
:103A600080818D3031F481819281622F43810E9467
:103A70001F180E946C1A0895EF92FF920F931F93E4
:103A8000109202068091E9058823C1F480913B06DB
:103A90008823A1F488E00E940113883069F080E057
:103AA00040E850E060E070E020E00CE31DE1EE242F
:103AB000FF240E94F30702C00E946C1A1F910F910D
:103AC000FF90EF900895FC01A081B18181E28C9379
:103AD00011966C938CE396E0BF010E944A0B089507
:103AE000DF92EF92FF920F931F93CF93DF93E82E15
:103AF000E7017E01F92EE701E881F981E680F78090
:103B000000851185E114F1040105110529F480E017
:103B100090E00E943C1D3BC08091F4058823A1F5F4
:103B20008091FB05882381F50E94921A86E00E940D
:103B30000113D82E81E08093020680E00E94B00637
:103B4000882319F080E00E941A07B801A70184E0D9
:103B5000440F551F661F771F8A95D1F780E020E03C
:103B60000CE31DE1EE24FF240E94F307882349F0B3
:103B7000CE0168EE0E94631D80E090E00E943C1D33
:103B80000AC03D2D363019F0CE0162EF02C0CE01E1
:103B900060E00E94631DDF91CF911F910F91FF9014
:103BA000EF90DF9008958CE396E00E94430B0E9413
:103BB000771A08951F930E94F717182F8CE396E049
:103BC00060E070E00E94650B009719F00E94E11719
:103BD00011E00E947B0D0E94C804812F1F9108955F
:103BE000AF92BF92CF92DF92EF920F931F93DF932A
:103BF000CF9300D00F92CDB7DEB7182F6B014737A8
:103C000008F064C086E92A833B8349830E94BE0A88
:103C10005C012A813B814981009709F457C0FC016E
:103C2000A081B18183E08C9311961C931197F601CA
:103C3000508112965C9312978181928114969C9385
:103C40008E9313975250523030F515961C9215975B
:103C500016961C92169717961C92179718961C92F8
:103C6000189719961C9219971A961C921A971B96D8
:103C70001C921B971C961C921C97CD010596B601B1
:103C80006D5F7F4F58E0FB010190BF01FC01019285
:103C9000CF015150C1F71D960C931D971E96EC92C3
:103CA0001E971F964C931F97E4E9F0E0E41BF1097F
:103CB000EA0FFB1FCF01B90150E00E94D12486EF2B
:103CC00095E0B5010E944A0B81E001C080E00F90B1
:103CD0000F900F90CF91DF911F910F91EF90DF9098
:103CE000CF90BF90AF9008951F93182F86E90E9440
:103CF000BE0ABC01009761F0DC01ED91FC9189E006
:103D00008083118386EF95E00E944A0B81E001C019
:103D100080E01F9108951F93182F86E90E94BE0A24
:103D2000BC01009761F0DC01ED91FC9188E080839B
:103D3000118386EF95E00E944A0B81E001C080E08C
:103D40001F910895EF92FF921F93DF93CF9300D0BE
:103D5000CDB7DEB7182F86E969837A830E94BE0A41
:103D60007C010097D1F0812F0E94101D482FD701B0
:103D7000ED91FC9186E0808311839F012E5F3F4F80
:103D8000C90169817A8150E00E94D12486EF95E0D3
:103D9000B7010E944A0B81E001C080E00F900F90B4
:103DA000CF91DF911F91FF90EF9008959F92AF9276
:103DB000BF92CF92DF92EF92FF920F931F93982EB4
:103DC0005A016B017801890186E90E94BE0ABC0193
:103DD0000097A1F0DC01ED91FC918AE08083918253
:103DE000A282B382C482D582E682F78200871187DD
:103DF00086EF95E00E944A0B81E001C080E01F91B0
:103E00000F91FF90EF90DF90CF90BF90AF909F9079
:103E100008950895A0E0B0E0E0E1FFE10C944024B3
:103E2000FC01EA018081823008F438C1DB019C91F9
:103E3000923008F430C1843059F4943009F02EC126
:103E4000918111968C911197981709F021C126C183
:103E5000943009F420C19230B1F4823009F01EC1CF
:103E6000CA01AF0128E0DA010D90AD01DC010D922D
:103E7000CD012150C1F7DB0111968C9111979181F1
:103E8000892389830AC1823009F405C1C280D380A5
:103E9000DB0112966D907C901397248135814681C9
:103EA00057811496ED90FD900D911C911797C601C6
:103EB000861997095C0197FF04C0AA24BB24A81A9D
:103EC000B90AB0E2AB16B1040CF061C018161906BD
:103ED0006CF5370148010A2C04C0969487947794B6
:103EE00067940A94D2F781E090E0A0E0B0E00A2C59
:103EF00004C0880F991FAA1FBB1F0A94D2F701970D
:103F0000A109B1098E219F21A023B123EE24FF2412
:103F10008701E3940097A105B10519F4EE24FF246D
:103F20008701E628F728082919293CC00097D1F114
:103F3000CA0CDB1C39014A010A2C04C096948794F0
:103F4000779467940A94D2F781E090E0A0E0B0E023
:103F50000A2C04C0880F991FAA1FBB1F0A94D2F70E
:103F60000197A109B10982239323A423B52321E05A
:103F700030E040E050E00097A105B10519F420E0E1
:103F800030E0A90126293729482959290BC06C148A
:103F90007D0424F4EE24FF24870104C0630120E0A3
:103FA00030E0A9018181FB019181891709F445C0A5
:103FB000882349F0D801C701821B930BA40BB50BD2
:103FC0009C01AD0104C02E193F09400B510B57FD58
:103FD00004C01982DB82CA820BC081E08983DB8244
:103FE000CA8250954095309521953F4F4F4F5F4F76
:103FF0002C833D834E835F830DC0880F991FAA1FBA
:10400000BB1F8C839D83AE83BF838A819B81019775
:104010009B838A838C819D81AE81BF819C01AD0190
:1040200021503040404050402F3FEFEF3E07EFEF30
:104030004E07EFE35E0708F30BC08983DB82CA8279
:104040002E0D3F1D401F511F2C833D834E835F83E8
:1040500083E088832C813D814E815F8157FF1DC0A5
:10406000DA01C90181709070A070B07056954795C3
:1040700037952795822B932BA42BB52B8C839D836F
:10408000AE83BF838A819B8101969B838A8305C00F
:10409000E8E0F2E003C0FB0101C0FE01CF01CDB7B3
:1040A000DEB7EEE00C945C24A0E2B0E0EAE5F0E2DA
:1040B0000C94482469837A838B839C832D833E836D
:1040C0004F83588789E0E82EF12CEC0EFD1ECE01BF
:1040D0000196B7010E94AC238E010F5E1F4FCE01E7
:1040E0000596B8010E94AC23C701B801AE01475E36
:1040F0005F4F0E940A1F0E94DE22A096E6E00C9409
:104100006424A0E2B0E0E7E8F0E20C94482469837C
:104110007A838B839C832D833E834F8358878E01C4
:10412000075F1F4FCE010196B8010E94AC2391E1B9
:10413000E92EF12CEC0EFD1ECE010596B7010E9472
:10414000AC238A8991E089278A8BC801B701AE0127
:10415000475E5F4F0E940A1F0E94DE22A096E6E0A3
:104160000C946424A0E2B0E0E8EBF0E20C943C2470
:1041700069837A838B839C832D833E834F83588707
:10418000CE010196BE01675F7F4F0E94AC23CE0136
:104190000596BE016F5E7F4F0E94AC2399859230D9
:1041A00078F089898230C0F0943019F4823041F47B
:1041B000CBC0843019F4923079F4C6C0923051F4F7
:1041C00081E02A859A89291709F480E08A87CE013F
:1041D0000996BCC0823051F481E02A859A8929175A
:1041E00009F480E08A8BCE014196B0C06D847E8454
:1041F0008F849888ED88FE880F89188DE0E2F0E0C2
:1042000080E090E0DC01AA24BB24650120E030E0DE
:10421000A901B3016170707061157105D1F02E0DA7
:104220003F1D401F511F15012601280E391E4A1E31
:104230005B1E81E090E0A0E0B0E02E153F05400756
:10424000510718F080E090E0DC01820D931DA41D61
:10425000B51DAA0CBB1CCC1CDD1C17FF09C061E0FE
:10426000262E312C412C512CA228B328C428D52825
:10427000319749F0EE0CFF1C001F111F9694879494
:1042800077946794C6CF6B897C89EB85FC856E0F2C
:104290007F1F6E5F7F4F7C8F6B8F61E0EA857A892D
:1042A000E71709F460E06A8F6B8D7C8D10C0FC010C
:1042B000E170F070309729F056954795379527951E
:1042C0005068B695A795979587956F5F7F4FB7FD17
:1042D000EECF0CC0880F991FAA1FBB1F57FD81602E
:1042E000220F331F441F551F615070408030E0E0A3
:1042F0009E07E0E0AE07E0E4BE0760F36B8F7C8FC3
:104300006FE7E62EF12C012D112DE822F9220A2368
:104310001B2360E4E616F1040105110561F487FD35
:104320000AC0211531054105510529F0805C9F4FD8
:10433000AF4FBF4F80788D8F9E8FAF8FB8A383E034
:10434000898FCE01499602C088E092E00E94DE2269
:10435000A096E2E10C945824A8E0B0E0E2EBF1E290
:104360000C9448247B018C0183E08983D801C70128
:104370008827B7FD83959927AA27BB27282F8A83EB
:10438000E114F1040105110519F482E0898337C0B5
:104390008EE190E09C838B83222389F080E0E816F5
:1043A00080E0F80680E0080780E8180769F11095BA
:1043B0000095F094E094E11CF11C011D111DED82AB
:1043C000FE820F831887C801B7010E9484229C01D6
:1043D000215030401216130694F4022E04C0EE0C45
:1043E000FF1C001F111F0A94D2F7ED82FE820F837B
:1043F00018878EE190E0821B930B9C838B83CE0108
:1044000001960E94DE2204C060E070E080E09FEC34
:104410002896E6E00C946424A8E0B0E0E2E1F2E241
:104420000C9446247B018C011A826115710581056B
:10443000910519F482E089835FC083E089838EE16E
:10444000C82ED12CDC82CB82ED82FE820F831887AE
:10445000C801B7010E948422FC013197F7FF3AC0DE
:10446000AA27BB27AE1BBF0B21E030E040E050E0A5
:104470000A2E04C0220F331F441F551F0A94D2F77F
:1044800021503040404050402E213F2140235123B5
:1044900061E070E080E090E02115310541055105B3
:1044A00019F460E070E0CB0104C016950795F7940D
:1044B000E794AA95D2F7E62AF72A082B192BED8262
:1044C000FE820F8318878EE190E08E1B9F0B9C83EA
:1044D0008B8312C0309781F00E2E04C0EE0CFF1CAF
:1044E000001F111F0A94D2F7ED82FE820F831887F6
:1044F000CE1ADF0ADC82CB82CE0101960E94DE2238
:104500002896E8E00C946224AF92BF92CF92DF929B
:10451000EF92FF920F931F937B018C0180E0E816CE
:1045200080E0F80681E0080780E0180758F4EFEF14
:10453000EE16F1040105110509F090F480E090E019
:10454000DC0117C0F0E0EF16F0E0FF06F0E00F0727
:10455000F1E01F0750F480E190E0A0E0B0E009C076
:1045600088E090E0A0E0B0E004C088E190E0A0E046
:10457000B0E020E230E040E050E0281B390B4A0B6D
:104580005B0B5701680104C0D694C794B794A794F5
:104590008A95D2F7D601C501805F9D4FFC018081CD
:1045A000281B310941095109C9011F910F91FF9041
:1045B000EF90DF90CF90BF90AF900895EF92FF9271
:1045C0000F931F93CF93DF93FC01248135814681A4
:1045D000578161818081823020F44061EFEFF0E00B
:1045E000A3C0843009F49BC0823009F492C0211525
:1045F00031054105510509F48FC00280F381E02D9A
:104600008FEFE238F8070CF05AC0C2E8DFEFCE1B9C
:10461000DF0BCA31D1056CF579018A010C2E04C07B
:1046200016950795F794E7940A94D2F781E090E005
:10463000A0E0B0E00C2E04C0880F991FAA1FBB1F7A
:104640000A94D2F70197A109B10982239323A423E5
:10465000B52321E030E040E050E00097A105B1052E
:1046600019F420E030E0A9012E293F29402B512BDD
:1046700003C020E030E0A901DA01C9018F77907012
:10468000A070B07080349105A105B10539F427FF01
:1046900009C0205C3F4F4F4F5F4F04C0215C3F4F2C
:1046A0004F4F5F4FE1E0F0E0203080E0380780E0DE
:1046B000480780E4580728F5E0E0F0E022C0E03841
:1046C000F1056CF5E158FF4FDA01C9018F77907061
:1046D000A070B07080349105A105B10539F427FFB1
:1046E00009C0205C3F4F4F4F5F4F04C0215C3F4FDC
:1046F0004F4F5F4F57FF05C0569547953795279504
:10470000319687E056954795379527958A95D1F745
:104710000BC0E0E0F0E005C0E0E0F0E005C0EFEF46
:10472000F0E020E030E0A9018E2F8795882787955B
:10473000942F9F77679566276795E695E22EA92FB8
:10474000A82BFE2FF62B622F732F8A2F9F2FCDB70A
:10475000DEB7E6E00C946424DC01FB012C91119699
:104760003C91119712968C911297482F4F7750E0F9
:10477000982F991F9927991F13966C911397862F3D
:10478000880F892B90E0661F6627661F618300975C
:1047900039F5211531054105510511F482E029C093
:1047A00082E89FEF9383828367E0220F331F441FC9
:1047B000551F6A95D1F783E0808309C0220F331F0C
:1047C000441F551F828193810197938382832030F8
:1047D00080E0380780E0480780E4580778F320C07D
:1047E0008F3F910579F4211531054105510519F4E3
:1047F00084E08083089544FF03C081E0808310C07B
:1048000010820EC08F5790409383828383E0808311
:1048100087E0220F331F441F551F8A95D1F750643C
:1048200024833583468357830895AA1BBB1B51E11C
:1048300007C0AA1FBB1FA617B70710F0A61BB70B10
:10484000881F991F5A95A9F780959095BC01CD01B5
:10485000089597FB092E07260AD077FD04D0E5DFDF
:1048600006D000201AF4709561957F4F0895F6F7F1
:10487000909581959F4F08952F923F924F925F920E
:104880006F927F928F929F92AF92BF92CF92DF9260
:10489000EF92FF920F931F93CF93DF93CDB7DEB7C5
:1048A000CA1BDB0B0FB6F894DEBF0FBECDBF099459
:1048B0002A88398848885F846E847D848C849B84B0
:1048C000AA84B984C884DF80EE80FD800C811B81BE
:1048D000AA81B981CE0FD11D0FB6F894DEBF0FBEED
:1048E000CDBFED010895AF92BF92CF92DF92EF92CC
:1048F000FF920F931F93CF93DF93EC01688179812F
:104900008A819B81611571058105910521F464E21D
:1049100079ED8BE597E02DE133EF41E050E00E9427
:104920000F2579018A0127EA31E440E050E00E9436
:10493000F0245B016C01C801B7012CEE34EF4FEF9E
:104940005FEF0E94F0246A0D7B1D8C1D9D1D97FF5B
:1049500004C06150704080409048688379838A83A6
:104960009B837F77CB01DF91CF911F910F91FF90B8
:10497000EF90DF90CF90BF90AF9008950E94732486
:10498000089580E193E00E9473240895A0E0B0E0D0
:104990008093100390931103A0931203B093130319
:1049A0000895FB01DC0102C001900D92415050407E
:1049B000D8F70895F999FECF92BD81BDF89A99274D
:1049C00080B50895262FF999FECF1FBA92BD81BDFB
:1049D00020BD0FB6F894FA9AF99A0FBE0196089581
:1049E000629FD001739FF001829FE00DF11D649FD3
:1049F000E00DF11D929FF00D839FF00D749FF00D5F
:104A0000659FF00D9927729FB00DE11DF91F639FFF
:104A1000B00DE11DF91FBD01CF011124089597FBD1
:104A2000092E05260ED057FD04D014D00AD0001C44
:104A300038F450954095309521953F4F4F4F5F4F3B
:104A40000895F6F790958095709561957F4F8F4FFB
:104A50009F4F0895A1E21A2EAA1BBB1BFD010DC09A
:104A6000AA1FBB1FEE1FFF1FA217B307E407F5071E
:104A700020F0A21BB30BE40BF50B661F771F881FFA
:104A8000991F1A9469F760957095809590959B0190
:0C4A9000AC01BD01CF010895F894FFCFE8
:104A9C00008785E185E985850000000000000000A5
:104AAC0000010202030303030404040404040404C9
:104ABC00050505050505050505050505050505059A
:104ACC00060606060606060606060606060606067A
:104ADC00060606060606060606060606060606066A
:104AEC00070707070707070707070707070707074A
:104AFC00070707070707070707070707070707073A
:104B0C000707070707070707070707070707070729
:104B1C000707070707070707070707070707070719
:104B2C0008080808080808080808080808080808F9
:104B3C0008080808080808080808080808080808E9
:104B4C0008080808080808080808080808080808D9
:104B5C0008080808080808080808080808080808C9
:104B6C0008080808080808080808080808080808B9
:104B7C0008080808080808080808080808080808A9
:104B8C000808080808080808080808080808080899
:104B9C000808080808080808080808080808080889
:044BAC000100000004
:00000001FF
