:100000000C944E010C946F010C942B070C94560722
:100010000C946F010C946F010C946F010C946F01A0
:100020000C946F010C946F010C946F010C946F0190
:100030000C946F010C946F010C94B60B0C946F012F
:100040000C94E70B0C946F010C946F010C946F01EE
:100050000C946F010C946F010C946F010C946F0160
:100060000C946F010C946F010C946F010C946F0150
:100070000C946F010C946F010C946F010C946F0140
:100080000C946F010C946F010C946D0D0C946F0126
:100090000C946F010C946F010C946F010C946F0120
:1000A0000C946F010C946F010C946F010C946F0110
:1000B0000C946F010C946F010C946F010C946F0100
:1000C0000C946F010C946F010C946F010C946F01F0
:1000D0000C946F010C946F010C946F010C946F01E0
:1000E0000C946F010C946F010C946F010C946F01D0
:1000F0000C946F010C946F010C946F010C946F01C0
:100100000C946F010C946F010C946F010C946F01AF
:100110000C946F010C946F010C946F010C946F019F
:100120000C946F010C946F010C946F010C946F018F
:100130000C946F010C946F010C946F010C946F017F
:100140000C946F010C946F010C946F010C946F016F
:100150000C946F010C946F010C946F010C946F015F
:100160000C94CA050C946F010C94F6050C946F0165
:100170000C946F010C946F010C946F010C946F013F
:100180000C946F010C946F010C946F010C946F012F
:100190000C946F010C946F010C946F010C946F011F
:1001A0000C946F010C946F010C946F010C946F010F
:1001B0000C946F010C946F010C946F010C946F01FF
:1001C0000C946F010C946F010C946F010C946F01EF
:1001D0000C946F010C946F010C946F010C946F01DF
:1001E0000C946F010C946F01E7E7E7E7E7E7E8E9B4
:1001F000EACAAAAB4525030405060708090AE7E78A
:10020000E7E7E7E7E8E9EACBABACAD482706070844
:10021000090A0B0CC0A18182836061414222230242
:10022000030405060708090A0B0C80207B19A51A90
:10023000292A5F2B1926FB2F442D682DB82CE43377
:100240009F3600001A386E3000008C1D381DA31D2B
:10025000D21DBA1D931E5F1EF21D00000000CD1EB0
:100260002C1F131E831FB31E561F001F161F6D1F4A
:10027000EA1E010401010102010101010101010164
:100280000101040108020101010102010102010250
:1002900001010201020201010101080011241FBE37
:1002A000CFEFDFE5DEBFCDBF00E00CBF11E2A0E085
:1002B000B0E2E6EBF5E800E00BBF02C007900D925C
:1002C000A231B107D9F716E2A2E1B1E201C01D9255
:1002D000AF32B107E1F70E94F8010C94D9420C94B7
:1002E000000082E090E061E00E94160D0895EF9218
:1002F000FF920F931F9381E090E062E00E94160D41
:1003000085E040E251EA67E070E020E007E711E0B5
:10031000EE24FF240E945F0A1F910F91FF90EF903F
:100320000895EF92FF920F931F93DF93CF93CDB772
:10033000DEB7CB50D140CDBFDEBF82E08A838EEBEB
:100340009AEB8B839C8380912C2190912D218D831E
:100350009E830E94DE3D8983209136212F5F20936A
:10036000362100D000D0EDB7FEB731968E01035F85
:100370001F4FADB7BEB711960D931C93129780E037
:1003800090E282839383248315820E948B3E0F9098
:100390000F900F900F90EDB7FEB7018312830E946C
:1003A000423E0F900F9082E0BE016E5F7F4F41E0B2
:1003B0009E012F5F3F4F00913621EE24E3940E946F
:1003C000283A84E040E854E86EE170E020E001E97A
:1003D00011E0EE24FF240E945F0AC55FDE4FCDBF0F
:1003E000DEBFCF91DF911F910F91FF90EF900895A5
:1003F0000E940B3A882311F00E943D080E94100DC4
:1004000080E090E060E00E94160D81E090E061E005
:100410000E94160D82E090E061E00E94160D789433
:1004200080E00E942306882311F00E943D0884EAA0
:1004300094E06EEC74E00E94F73D80E090E00E9452
:10044000CE0484E190E20E94543E81E00E94013C8F
:100450000E94123AFDCFEF92FF920F931F938823D1
:10046000D1F485E290E20E94543E81E04EEF57E0E5
:1004700060E070E024E000E00E94973C85E040E20C
:1004800051EA67E070E020E007E711E0EE24FF2486
:100490000E945F0A03C081E00E94013C1F910F91FE
:1004A000FF90EF900895CF92DF92EF920F931F93FA
:1004B000DF93CF930F920F92CDB7DEB72091372104
:1004C0002F5F20933721882309F052C00C2D1D2D5A
:1004D00030E048C0F8018385813009F040C0848550
:1004E0008823E9F581819281FAEB8E3B9F07B9F56C
:1004F000F8018585968597FF32C08081823039F476
:100500008381948180932C2190932D211CC0833072
:1005100009F049C0F801838180932E218481809362
:100520002F2185818093302186818093312187819D
:10053000809332218085809333218185809334217B
:1005400082858093352187E390E20E94543EF80132
:1005500083856485A80120E80E94C23A27C00F5E07
:100560001F4F3F5F3E1508F4B5CF233098F404C009
:100570008A3EC9F4233050F481E04EEF57E060E04A
:1005800070E024E000E00E94973C10C085E490E217
:100590000E94543E19821A8283E5BE016F5F7F4F2D
:1005A0000E942F3C03C081E00E94013C0F900F90FD
:1005B000CF91DF911F910F91EF90DF90CF90089531
:1005C000AF92CF92EF92FF920F931F93DF93CF934F
:1005D0000F92CDB7DEB7882309F03FC0633521F411
:1005E00081E0898381E405C0613449F481E0898335
:1005F00082E5BE016F5F7F4F0E942F3C31C06235A4
:1006000069F48EEB9AEB61E040E02FE00FE0EE241E
:10061000E394CC24AA240E94CA3C22C06430E9F4AA
:1006200080911221909113218230910589F48FE5F8
:1006300090E20E94543E84E040E854E86EE170E0AD
:1006400020E001E911E0EE24FF240E945F0A08C0C7
:100650008CE790E20E94543E03C081E00E94013C7E
:100660000F90CF91DF911F910F91FF90EF90CF905E
:10067000AF900895882399F485E00E94860981E06F
:1006800090E060E00E94160D81E090E080931221DE
:10069000909313218EE990E20E94543E089581E0E8
:1006A0000E94013C0895EF920F931F93A09118218F
:1006B000B0911921109701F1E0911A21E217E1F4AC
:1006C000E0911B21E317C1F4E0911C21E417A1F490
:1006D000E0911D21E51781F4E0911E21E61761F4F8
:1006E000E0911F21E71741F4E0912021E81721F460
:1006F000E0912121E91749F1E0912221F091232194
:10070000309701F1009124210217E1F40091252195
:100710000317C1F4009126210417A1F400912721A9
:10072000051781F400912821061761F40091292111
:10073000071741F400912A21081721F400912B2179
:10074000091729F01097A9F418C0E0E001C0E1E012
:10075000AE2FB0E0FD01EE0FFF1F13E0AA0FBB1F8D
:100760001A95E1F7EA0FFB1FE85EFE4D008111814B
:1007700023C0309719F5E1E001C0E0E0F0E08F011F
:100780000F5F1F4FDF01AA0FBB1FEE0FFF1FEE0F02
:10079000FF1FEE0FFF1FAE0FBF1FA85EBE4DFD0176
:1007A0000193119312962C931297318342835383B2
:1007B0006483758386839783EE2404C00FEF1FEF55
:1007C000EE24E3940E940E3B1F910F91EF90089549
:1007D000DF93CF930F92CDB7DEB7442341F481E18D
:1007E000898384E0BE016F5F7F4F0E942F3C0F9092
:1007F000CF91DF910895EF92FF920F931F93DF93B4
:10080000CF93CDB7DEB7CF5FD040CDBFDEBF8091F5
:10081000142190911521A0911621B09117210196D4
:10082000A11DB11D8093142190931521A093162131
:10083000B09317212DB73EB7285030402DBF3EBF93
:100840004DB75EB74F5F5F4F8E010F5F1F4FEDB724
:10085000FEB70183128320EC30E2FA012283338356
:1008600084839583A683B7830E948B3E2DB73EB7C2
:100870002A5F3F4F2DBF3EBFEDB7FEB70183128306
:100880000E94423E0F900F9082E090E060E00E9454
:10089000160D85E040E251EA67E070E020E001E7F4
:1008A00011E0EE24FF240E945F0AC150DF4FCDBF4C
:1008B000DEBFCF91DF911F910F91FF90EF900895D0
:1008C000DF93CF930F92CDB7DEB76623D9F485E0DF
:1008D0000E94860981E090E060E00E94160D85ED9F
:1008E00090E20E94543E82E090E080931221909327
:1008F000132181E1898384E0BE016F5F7F4F0E94F5
:100900002F3C03C081E00E94013C0F90CF91DF910A
:100910000895EF92FF920F931F93662381F482E074
:1009200090E00E94160D85E040E251EA67E070E039
:1009300020E001E711E0EE24FF240E945F0A1F91EE
:100940000F91FF90EF9008950F931F93DF93CF9334
:100950000F92CDB7DEB789838A3071F48DE0898339
:100960008E010F5F1F4F80E0B80141E00E942F060B
:100970008823C9F38AE089838E010F5F1F4F80E0CF
:10098000B80141E00E942F068823C9F380E090E07F
:100990000F90CF91DF911F910F9108950F931F93A7
:1009A000DF93CF930F92CDB7DEB78E010F5F1F4F4E
:1009B00080E0B80141E00E9438068823C9F38981AC
:1009C00090E00F90CF91DF911F910F910895DF93E9
:1009D000CF930F92CDB7DEB780E0BE016F5F7F4F40
:1009E00041E00E943806813019F4298130E002C0CC
:1009F0002FEF3FEFC9010F90CF91DF9108950F9333
:100A00001F93CF93DF938C01EB010AC080E0B80104
:100A10004C2F0E942F0690E0C81BD90B080F191FFE
:100A20001C161D069CF3DF91CF911F910F91089525
:100A30009B01AC016050774F824C9F4FF2E0660FF4
:100A4000771F881F991FFA95D1F7E3E0220F331F14
:100A5000441F551FEA95D1F70E946E3D215030404A
:100A6000E0E6F6E088E0818384E08283E0EAF9E072
:100A7000378326838CE1848383E085838CE38383BF
:100A80000895CF93DF93282F8091A309837FE0EA15
:100A9000F9E08383E0911C2530911D253E1718F065
:100AA0008E2F875F02C08E2F8150831B681708F43A
:100AB000862F392FE901982F11C020911D253991DA
:100AC000A22FB0E0A85FBA4D3C93293019F41092E0
:100AD0001D2503C02F5F20931D259150992369F791
:100AE00090912025992349F4F0E0E85FFA4D908138
:100AF0009093A00991E0909320259091A3099C6088
:100B0000E0EAF9E09383DF91CF910895FC018091B1
:100B100021258823E9F19091A3099F7CA0EAB9E0FF
:100B200013969C9313978A3050F080911F258093E1
:100B30001E258AE0809321256A3028F405C0861797
:100B400018F4682F01C06AE0962F18C0A0911E25E6
:100B5000B0E0A85FBA4D1A968C911A978193809154
:100B60001E258F5F80931E252091212521502093E3
:100B7000212591508A3011F410921E25992331F7C6
:100B80008091A3098063E0EAF9E08383862F0895CA
:100B900080E008951F920F920FB60F920BB60F923E
:100BA00011248F939F93EF93FF9380911F25909132
:100BB00021259F5F909321259091A009E82FF0E0D7
:100BC000E85FFA4D9287893019F410921F2503C00F
:100BD0008F5F80931F25FF91EF919F918F910F90D1
:100BE0000BBE0F900FBE0F901F9018951F920F9283
:100BF0000FB60F920BB60F9211248F93EF93FF93C2
:100C000080911C25893019F410921C2503C08F5F38
:100C100080931C25E0911C2580911D25E81739F053
:100C2000F0E0E85FFA4D80818093A00902C0109245
:100C30002025FF91EF918F910F900BBE0F900FBE6B
:100C40000F901F901895882341F460E875E280E0CA
:100C500090E00E94180580E0089585E808958823B3
:100C600029F4CB01642F0E944105089580E0089586
:100C7000882329F4CB01642F0E948605089580E023
:100C8000089580E58093C00880E1E0E4F6E0858384
:100C90000895E0E4F6E020914906909149069C7F92
:100CA0009187806C90E19683E0ECF8E083838091FB
:100CB000C20887FFFCCFE0ECF8E063838091C208B4
:100CC00087FFFCCFE0E4F6E080E18583218708958B
:100CD000E0E4F6E020914906909149069C7F9187D7
:100CE000806890E19683E0ECF8E083838091C2080D
:100CF00087FFFCCFE0ECF8E013828091C20887FF09
:100D0000FCCF8091C308E0E4F6E090E19583218771
:100D1000089520E1E0E4F6E0268320E2E0ECF8E04C
:100D200023832091C20827FFFCCFE0ECF8E0138278
:100D30006130B9F0262FFC01A0ECB8E03091C20878
:100D400037FFFCCF3091C30813961C921397319351
:100D50002150223098F7625070E06F5F7F4F860F0E
:100D6000971F2091C20827FFFCCF2091C308FC01E8
:100D7000208380E1E0E4F6E085830895FC0180E1D2
:100D8000A0E4B6E016968C9380E6A0ECB8E013964B
:100D90008C9313978091C20887FFFCCFA0ECB8E03A
:100DA000819161509091C20897FFFCCF13968C936C
:100DB00013976623A9F78091C20887FFFCCF80E1D3
:100DC000E0E4F6E085830895DF93CF930F920F92CE
:100DD000CDB7DEB74A8369830E946806698186239E
:100DE00090E04A8102C0959587954A95E2F70F9069
:100DF0000F90CF91DF9108951F93DF93CF9300D091
:100E0000CDB7DEB7182F2B834A8369830E9468060B
:100E10002B8130E04A8102C0220F331F4A95E2F74E
:100E20006981262360956823622B812F0E944906E1
:100E30002396CDBFDEBFCF91DF911F9108958093A0
:100E4000382190933921E0E4F6E081E0828B94E050
:100E50009287848708951F920F920FB60F920BB658
:100E60000F9211242F933F934F935F936F937F9330
:100E70008F939F93AF93BF93EF93FF93E0913821AC
:100E8000F09139211995FF91EF91BF91AF919F9109
:100E90008F917F916F915F914F913F912F910F9023
:100EA0000BBE0F900FBE0F901F9018951F920F92C0
:100EB0000FB60F9211240F900FBE0F901F90189530
:100EC000EBECF1E021E030E088ED90E084BF20839E
:100ED00008958091CF0187FDFCCF08950F931F9354
:100EE000DF93CF930F920F92CDB7DEB789839A83AA
:100EF0000E94690700EC11E0F80112829A81918347
:100F00008981808386E082870E946007F80184815E
:100F10000F900F90CF91DF911F910F9108950E9434
:100F2000220C0E943D0C0E9441060E94C7080E94AC
:100F3000150C0E941C0C88ED84BF81E0809380001A
:100F400080E008950E94790B0895CF92DF92EF928E
:100F5000FF920F931F93CF93DF938B01EA018130B0
:100F600031F4862F642FA9010E94710C21C08823BF
:100F7000E1F4CA01860F971F40E181309407B8F46D
:100F8000C22ED32EEE24FF240BC0C701800F911F69
:100F90000E946E07F60181936F010894E11CF11C19
:100FA000EC16FD0690F380E003C088EE01C085E8F2
:100FB000DF91CF911F910F91FF90EF90DF90CF9035
:100FC00008955F926F927F928F929F92AF92BF929D
:100FD000CF92DF92EF92FF920F931F93CF93DF9305
:100FE000EC015B01CB018C0F9D1F20E1813092074A
:100FF00098F5C42ED52EEE24FF2400EC11E023E357
:10100000722E95E3892E86E3982E21C0CE010E9490
:101010006E07F60161906F018615A9F05C2E0E94A3
:1010200069078091CF0181FF04C0F80192860E9478
:101030006007F80172865092C001118212826482A8
:1010400082860E94600721960894E11CF11CEA1434
:10105000FB04E0F280E001C085E8DF91CF911F91B1
:101060000F91FF90EF90DF90CF90BF90AF909F9047
:101070008F907F906F905F9008951F93CF93DF9331
:10108000E0E2F6E014828FEF8183C0E2D6E01FEF4A
:101090008FEF9FEF0E94F7081F83FACF6091222500
:1010A000709123259B0140E050E0A90133272227BE
:1010B0008091200890912108A0E0B0E0282B392BE6
:1010C0004A2B5B2B80912225909123256817790765
:1010D00029F7B901CA0108951F93CF93DF931FB772
:1010E000F89480913C218F3F09F44CC0C82FD0E088
:1010F000FE0133E0EE0FFF1F3A95E1F7EC0FFD1F05
:10110000EC5DFA4D80819181A281B38120912225ED
:10111000309123252A173B0769F480932808909380
:10112000290880910C08806180930C088091070841
:10113000836003C0809107088C7F809307080E941A
:101140004E08FE0123E0EE0FFF1F2A95E1F7EC0F9A
:10115000FD1FEC5DFA4D2081318142815381621B7C
:10116000730B840B950B6F5F7F4F8F4F9F4F6F3FBC
:101170002FEF72072FEF82072FE7920718F481E015
:1011800080933B211FBFDF91CF911F910895109253
:101190003A2110923B2110922225109223258FEFA5
:1011A00080933C2180933D2180933E21E8E2F5E24B
:1011B000848310821182399695E2EE35F907C1F7E2
:1011C0000E945A0C0895882329F488E0809300082F
:1011D000809340080895CF93DF93EC010E944E085E
:1011E000688379838A839B83DF91CF9108954FB77A
:1011F000F8948630910518F120912008309121084B
:10120000280F391F80912008909121088217930799
:1012100040F4809120089091210882179307C8F329
:101220000EC0809120089091210828173907C8F333
:10123000809120089091210882179307C8F34FBF2F
:10124000089590E0FC0143E0EE0FFF1F4A95E1F79F
:10125000E80FF91FEC5DFA4D81E0248135812115FD
:10126000310509F480E0089580913B21882309F439
:101270004CC010923B2120913A21222309F445C011
:1012800080913D218F3F59F480913E218F3F39F469
:1012900080913C2180933E2180933D2112C030916A
:1012A0003C2180913E2190E0FC0173E0EE0FFF1F96
:1012B0007A95E1F7E80FF91FEC5DFA4D308730932E
:1012C0003E2180913C2190E0FC0163E0EE0FFF1F86
:1012D0006A95E1F7E80FF91FEC5DFA4D8085809380
:1012E0003C2180913E2190E0FC0153E0EE0FFF1F76
:1012F0005A95E1F7E80FF91FEC5DFA4D8FEF808703
:10130000215020933A210E946C0808950F931F9357
:10131000082F863008F0CDC01FB7F8940E9434091A
:1013200040913A21442309F45BC050913C21252F80
:10133000352F02C0232F382F031709F041C0802F0B
:1013400090E0051781F4FC0153E0EE0FFF1F5A9562
:10135000E1F7E80FF91FEC5DFA4D808580933C21A1
:101360000E946C0819C030E0F90143E0EE0FFF1F46
:101370004A95E1F7E20FF31FEC5DFA4DDC0123E043
:10138000AA0FBB1F2A95E1F7A80FB91FAC5DBA4D94
:1013900018968C9118978087802F90E0FC01A3E02D
:1013A000EE0FFF1FAA95E1F7E80FF91FEC5DFA4D6C
:1013B0008FEF808780913A21815080933A2165C0D8
:1013C000832F90E0FC0173E0EE0FFF1F7A95E1F7A9
:1013D000E80FF91FEC5DFA4D8085415009F0AACF66
:1013E00040913D21342F242F4BC00217D9F5209175
:1013F0003E210417B1F4021721F48FEF80933E21B0
:101400000DC0802F90E0FC0163E0EE0FFF1F6A9596
:10141000E1F7E80FF91FEC5DFA4D808580933D21DF
:1014200034C0832F90E0FC0153E0EE0FFF1F5A956C
:10143000E1F7E80FF91FEC5DFA4D802F90E0DC0139
:1014400043E0AA0FBB1F4A95E1F7A80FB91FAC5D97
:10145000BA4D18968C91189780870217B1F4309383
:101460003E2113C0822F90E0FC01B3E0EE0FFF1F7E
:10147000BA95E1F7E80FF91FEC5DFA4D322F2085A0
:101480002F3F09F0B2CF80E00FC0802F90E0FC0129
:10149000A3E0EE0FFF1FAA95E1F7E80FF91FEC5D3F
:1014A000FA4D1482158281E01FBF882321F080E06D
:1014B00003C08AE801C089E81F910F9108952F9217
:1014C0003F924F925F926F927F928F929F92AF92D4
:1014D000BF92CF92DF92EF92FF920F931F93CF9321
:1014E000DF93D82E4A015B01C22E3701863008F007
:1014F000CBC00115110509F4CBC0C82FD0E0FE0107
:1015000033E0EE0FFF1F3A95E1F7EC0FFD1FEC5DA6
:10151000FA4D84819581009709F0B8C00E944E0869
:101520009B01AC01CC2029F06C2D613009F0B0C0DA
:1015300014C0D501C40180589040A040B04080380C
:101540006FEF96076FEFA6076FE7B60708F0A2C028
:10155000820E931EA41EB51E13C0D501C40180586F
:101560009040A040B040821B930BA40BB50B803879
:101570002FEF92072FEFA2072FE7B20708F08AC0DC
:10158000CFB6F8940E94340950913C215F3F31F06E
:10159000F0903A21652F452F70E054C0D0923C2145
:1015A000FE0123E0EE0FFF1F2A95E1F7EC0FFD1F70
:1015B000EC5DFA4D508735C04F3F09F442C0242FEF
:1015C00030E0F90193E0EE0FFF1F9A95E1F7E20F8B
:1015D000F31FEC5DFA4D80819181A281B3811401EA
:1015E0002501281A390A4A0A5B0AD201C1018F3F34
:1015F0002FEF92072FEFA2072FE7B20718F4642FFF
:1016000040851FC0FE0183E0EE0FFF1F8A95E1F7C2
:10161000EC0FFD1FEC5DFA4D4087541721F4D0927A
:101620003C2181E013C0862F90E0FC01B3E0EE0F77
:10163000FF1FBA95E1F7E80FF91FEC5DFA4DD08670
:1016400056C07F5F7F1508F4B7CF38C0FE01A3E016
:10165000EE0FFF1FAA95E1F7EC0FFD1FEC5DFA4DB1
:1016600080829182A282B38204831583668277820C
:1016700090913A219F5F90933A21882311F00E9424
:101680006C08CFBE80E007C08AE805C088E803C0C8
:1016900088EE01C08BE8DF91CF911F910F91FF90F1
:1016A000EF90DF90CF90BF90AF909F908F907F9002
:1016B0006F905F904F903F902F900895862F90E00D
:1016C000FC0173E0EE0FFF1F7A95E1F7E80FF91FB9
:1016D000EC5DFA4DD086FE0163E0EE0FFF1F6A95C8
:1016E000E1F7EC0FFD1FEC5DFA4D8FEF808780E096
:1016F000ADCF1F931FB7F8940E9434091FBF1FEF8F
:101700002FC03FB7F89480913D2190E0DC0143E089
:10171000AA0FBB1F4A95E1F7A80FB91FAC5DBA4DE0
:1017200018962C9118971496ED91FC911597169692
:101730008D919C91179718961C93189714961D924B
:101740001C92159716961D921C92179720933D2177
:101750002F3F11F410933E213FBF309709F01995A8
:1017600080913D218F3F69F61F9108951F920F923E
:101770000FB60F920BB60F9211242F933F934F93F6
:101780005F936F937F938F939F93AF93BF93EF93E9
:10179000FF93809122259091232501968093222505
:1017A000909323250E946C08FF91EF91BF91AF9118
:1017B0009F918F917F916F915F914F913F912F9169
:1017C0000F900BBE0F900FBE0F901F9018951F9299
:1017D0000F920FB60F9211248F9380913A21882394
:1017E00019F081E080933B218F910F900FBE0F90F5
:1017F0001F901895FC01209122253091232560919E
:1018000068087091690840E050E0A9013327222759
:1018100080E090E0262B372B482B592B20833183F7
:1018200042835383089581E0089584E88093800182
:1018300081E6809381010895E0EAF0E0828184608E
:101840008283089582E0809350008091510081FF4F
:10185000FCCF88ED84BF94E0E0E4F0E0918384BFA6
:1018600081E08093400082E0E0E5F0E086838091B3
:1018700060008160809360000895E0E4F6E080817C
:1018800080618083808180688083808181608083A3
:1018900080818062808380818860808380818F7B6B
:1018A0008083E0E6F6E080ED818380E2828380E160
:1018B0008583089588E0809300088093400880EF36
:1018C00080930C0880E380934C0883E080930608A3
:1018D000E1E4F8E080818061808389E280934308BD
:1018E0000895AF92BF92CF92DF92EF92FF920F9343
:1018F0001F93DF93CF93CDB7DEB7C054D040CDBF99
:10190000DEBF9E012F5F3F4F90E0E0E4F6E0EE2463
:10191000E394B0E1FB2E00EC18E0A3E0DA2E70ECCB
:10192000A72E78E0B72EC0904906709149067C7FBB
:101930007187E682F68200000000000000000000CF
:101940000000000000000000000000000000000097
:10195000000000000000D8011396DC9213977091EC
:10196000C20877FFFCCF792F7F77D50113967C9340
:1019700013977091C20877FFFCCFD50113961C9284
:1019800013977091C20877FFFCCF7091C308F5825E
:10199000E582C186D9017D939D019F5F903409F056
:1019A000C2CFDE01AF5BBF4F20E030E0FE013196D9
:1019B00091912927022E2295207F2025032E322F58
:1019C00022952F700226269532272327220F220FD9
:1019D000220F2025EA17FB0759F72115310581F45D
:1019E000FA01DE011196A80FB11DCA01860F911DE3
:1019F00002C02D912193E817F907D9F780E001C0C3
:101A000085E8C05CDF4FCDBFDEBFCF91DF911F9176
:101A10000F91FF90EF90DF90CF90BF90AF9008951F
:101A2000E0E2F6E087E081838683089583309105C4
:101A300028F483509F4DFC01208101C020E06623E3
:101A400019F06130B9F40BC081E090E002C0880F5A
:101A5000991F2A95E2F7E0E2F6E08583089581E098
:101A600090E002C0880F991F2A95E2F7E0E2F6E0C5
:101A70008683089581E090E002C0880F991F2A951F
:101A8000E2F7E0E2F6E087830895E0E2F6E088E03E
:101A9000828388E1838B0895E0E2F6E0808590E020
:101AA00023E0959587952A95E1F7817008952FB7E2
:101AB000F89498E09093B000E0E2F6E08BE1838B3D
:101AC00081858C7F826081879287E0EAF0E0828165
:101AD0008260828378942FBF08951F920F920FB671
:101AE0000F920BB60F9211248F93EF93FF93E0E2C6
:101AF000F6E08285877F8287E8E4F0E080818E7F50
:101B00008083FF91EF918F910F900BBE0F900FBECE
:101B10000F901F9018950E94570DE8E4F0E0808127
:101B2000807F85608083789488950895EF92FF92F6
:101B30000F931F93CF93DF938FE391E20E944C0E9C
:101B400004E411E298ECE92E94E2F92EC0E0D0E032
:101B5000F70100831183BE01660F771F660F771FA1
:101B600068537B4D8FE391E20E94530E21960A56F3
:101B70001F4F84E090E0E80EF91EC630D10541F712
:101B8000DF91CF911F910F91FF90EF9008958FE318
:101B900091E260E070E00E946E0E0895BC01009733
:101BA00021F08FE391E20E94530E08956F927F928D
:101BB0008F929F92BF92CF92DF92EF92FF920F93FC
:101BC0001F93CF93DF938C014B016A01BFB6F8944A
:101BD000DC0114968C911497882309F44BC0CD91A5
:101BE000DC91119741155105C1F07E0113C0F6013A
:101BF000628173810190F081E02D8881998119952E
:101C0000882371F47E019A818B81692EE3013E0164
:101C1000782EE301209759F72FC0209769F17E01B4
:101C20008114910449F5D8012D913C9111978A8135
:101C30009B81C217D30721F48D939C93119703C006
:101C4000F70182839383D80112968D919C9113970B
:101C5000C817D90721F41296ED92FC921397F80158
:101C600084818150848380819181009729F412823C
:101C7000138202C0C0E0D0E0BFBECE01DF91CF91A1
:101C80001F910F91FF90EF90DF90CF90BF909F90AA
:101C90008F907F906F900895FC01108211821282C4
:101CA000138214820895FC019FB7F89484818823DD
:101CB00019F46083718306C0A281B38112966D937B
:101CC0007C93139762837383DB0112961D921C929F
:101CD000139784818F5F84839FBF0895AB0160E079
:101CE00070E00E94D60D0895AB0161E070E00E94A3
:101CF000D60D0895CF93DF93EC010BC0CE0160E0C9
:101D000070E00E946E0E009711F41C8205C00E94C4
:101D1000CE0D8C81882391F7DF91CF9108951F9389
:101D200081E06FE140E00E94E4068830A1F48FE09A
:101D30000E94680682E069E00E94490610E08FE098
:101D40000E94680680FD07C088EC90E00E94F708BA
:101D50001F5F1330A1F71F9108951F93DF93CF9357
:101D60000F92CDB7DEB7182F80917A258F3059F5B5
:101D70001092832584ED98E10E941F07E0E4F6E0CD
:101D800081E0848780914906836081878FB7F894CA
:101D9000789498E09683909183259923E1F38FBFFF
:101DA0008FE00E94680680EC98E10E941F078EE099
:101DB00068E00E944906183011F0133021F488E0E1
:101DC00080937A25D6C181E06FE140E00E94E4066D
:101DD00080937A25183009F452C0193050F4143029
:101DE00009F49FC0163009F4A9C0133009F0B8C136
:101DF0005EC01F3069F0103120F4193009F0B0C115
:101E00006EC0163109F4D3C0193109F0A9C13BC124
:101E100082E063E00E9449060E94DE3D682F8DE269
:101E200099830E9449068EE267E040E09981292F5C
:101E30000E94FC068FE00E9468068EE06FEF40E093
:101E400020E10E94FC0600000000000000000000ED
:101E50000000000000000000000000000000000082
:101E600000000000000088E0E0E4F6E0858383E203
:101E700090E00E94F70810937A258FE07AC18830AD
:101E800009F46EC182E068E00E944906000000008B
:101E90000000000000000000000000000000000042
:101EA00000000000000000000000000059C1883060
:101EB00009F456C182E063E00E9449060000000078
:101EC0000000000000000000000000000000000012
:101ED00000000000000000000000000041C1883048
:101EE00029F1893020F4863009F03AC105C08631E5
:101EF00019F0893109F034C182E069E00E94490695
:101F000000000000000000000000000000000000D1
:101F100000000000000000000000000000000000C1
:101F20001FC1883019F0893021F41AC10E948F0E28
:101F300017C182E064E00E94490612C1893059F05D
:101F40008A3020F4883009F00BC11AC0863119F0AC
:101F5000893109F005C182E066E00E94490600006F
:101F60000000000000000000000000000000000071
:101F70000000000000000000000000000000F0C0B1
:101F80000E948F0E82E066E00E9449060000000079
:101F90000000000000000000000000000000000041
:101FA000000000000000000000000000D9C08830E0
:101FB00001F1893020F4863009F0D2C031C0893077
:101FC00019F0893109F0CCC082E066E10E9449062F
:101FD0000000000000000000000000000000000001
:101FE00000000000000000000000000000000000F1
:101FF000B7C00E948F0E82E066E10E944906000091
:1020000000000000000000000000000000000000D0
:102010000000000000000000000000000000A0C060
:1020200082E069E00E944906000000000000000014
:1020300000000000000000000000000000000000A0
:10204000000000000000000081E06FE140E00E941D
:10205000E40680937A25893009F08BC082E066E13E
:102060000E9449060000000000000000000000007F
:102070000000000000000000000000000000000060
:10208000000000006DC0883009F454C0893020F48D
:10209000863009F065C01BC0893021F0863109F017
:1020A0005FC015C082E069E10E944906000000009F
:1020B0000000000000000000000000000000000020
:1020C00000000000000000000000000049C082E0A5
:1020D00069E00E94490600000000000000000000C6
:1020E00000000000000000000000000000000000F0
:1020F00000000000000081E06FE140E00E94E40683
:1021000080937A25893009F034C082E069E10E9429
:102110004906000000000000000000000000000070
:1021200000000000000000000000000000000000AF
:10213000000016C00E948F0E82E069E10E944906ED
:10214000000000000000000000000000000000008F
:10215000000000000000000000000000000000007F
:1021600081E06FE140E00E94E40680937A258F31A0
:10217000B9F30F90CF91DF911F91089580916B2556
:102180008823E1F0809184258823C1F48091E024A4
:102190009091E124009739F486E90E94C70D80935D
:1021A000E0249093E1248091E0249091E124009731
:1021B00029F010926B2586E10E94AD0E809170256A
:1021C000882351F08CE695E260E070E00E946E0E8C
:1021D000009711F00E94531180918425823019F0EC
:1021E000853031F403C00E949A1108950E941C1397
:1021F0000895DF92EF92FF920F931F93DF93CF9397
:102200000F920F92CDB7DEB7E091E024F091E12478
:10221000309731F4CE01029661E00E94890639C000
:10222000E080F18087E00E946806D82ECE010196FA
:1022300061E00E948906698167FD2BC0862F8D5F52
:1022400006E910E0081B11090E0D1F1D6E5FC80185
:102250000E948906F701078310878981F801E80F3A
:10226000F11DD2826091E0247091E1248CE695E228
:102270000E94530E86E90E94C70D8093E02490933C
:10228000E124009731F489E00E94AD0E81E0809353
:102290006B250F900F90CF91DF911F910F91FF90C1
:1022A000EF90DF900895CF93DF939C01FC01C081F4
:1022B000D181AF81B885EC91E0937C25F0E0319637
:1022C000EA0FFB1F6081418180916525882309F514
:1022D000493218F4442319F003C048E201C041E038
:1022E00062956695669563708FEF689FB0011124C3
:1022F00050E0649FC001659F900D749F900D112464
:1023000068E770E00E945A3D6F3F710509F040F4A4
:1023100008C0493228F4642F660F640F660F01C0AD
:102320006FEF608329833A83CE010E943B23DF91C4
:10233000CF91089510928425E091E224E83028F4AA
:10234000F0E0E050FF4D808101C085E86091762586
:10235000709177250E9461320895FF920F931F9329
:10236000CF93DF938C01EB01F42E442331F08CE208
:1023700060EF44E02091792504C08CE260EF44E0F6
:1023800020E00E94FC06C230D10598F4FF2061F0E5
:102390008CE26EE041E0209171250E94FC068FE204
:1023A00060E00E94490616C08CE26EE041E027E042
:1023B0000FC0609175256295607F80917825682BAC
:1023C0008FE20E9449068CE26EE041E02091712587
:1023D0000E94FC0689E10E94AD0E8931D9F78091F7
:1023E00049068C7FE0E4F6E08187C130D10579F5BC
:1023F00080917C25909165258331A0F08091732593
:10240000992329F4882341F487EA97E01EC08823A2
:1024100031F487E196E019C08FEB93E016C087E5B1
:1024200092E013C080917325992329F4882341F405
:102430008FE292E00AC0882331F487EB91E005C077
:1024400083E091E002C087E990E00E94F708C0E4D1
:10245000D6E088E08D83000000008E83C801F8017B
:1024600060810E94BE0681E08093842580914906A8
:1024700083608987DF91CF911F910F91FF9008951D
:1024800020918425222389F48093762590937725C3
:10249000FC018781908580937D2590937E25009710
:1024A00031F00E94AD1180E0089586E8089588EE2D
:1024B0000895882311F087E005C082E060EE45E0D2
:1024C0000E94E4068093E22482E080938425809138
:1024D000E0249091E124009739F489E00E94AD0E48
:1024E00081E080936B25089586E10E94AD0E0895EA
:1024F0008FE00E94680684FF28C087E00E9468067B
:102500009091E324981710F48093E3248091E424BD
:102510009091E524A091E624B091E7240197A109C8
:10252000B1098093E4249093E524A093E624B0932A
:10253000E7240097A105B10529F087E06FEF0E941D
:102540004906089585E08093842508951F93CF93CD
:10255000DF93182F80918425882339F080917A2584
:102560008F3009F064C081E863C0C0E4D6E0809198
:1025700049068C7F898784E00E94AD0E8FE00E941F
:10258000680685E160E847E021E00E94FC0688E7F4
:1025900092E10E941F078EE06FEF40E020E10E9471
:1025A000FC06809149068360898786E00E94AD0E13
:1025B0008630A1F085E160E847E020E00E94FC065B
:1025C00080EC98E10E941F078EE068E00E944906B7
:1025D000809149068360898785E82AC087E06FEF8C
:1025E0000E94490684E0809384251092E32420EC25
:1025F00033E040E050E004C0220F331F441F551F5A
:102600001A95D2F720543C4F4F4F5F4F83E05695B9
:102610004795379527958A95D1F72093E4243093F1
:10262000E5244093E6245093E72480E001C086E847
:10263000DF91CF911F91089585E160E847E020E0A8
:102640000E94FC0680EC98E10E941F078EE068E083
:102650000E944906809149068360E0E4F6E08187A4
:102660001092842586E10E94AD0E8091E3248F3381
:1026700020F08FEF8093E3240AC09FEF899FC00171
:1026800011246EE370E00E945A3D6093E324809130
:10269000E3240E948037089580915A2585FD02C069
:1026A0008F7305C081958F718195863FE4F190917C
:1026B00065259031F9F0913138F4923079F0953008
:1026C000A9F0992331F02AC09131E1F0943130F52D
:1026D0000DC090917325992329F408C0909173251A
:1026E0009923A1F08B30E4F08AE021C08630C4F059
:1026F00085E01DC090917325992341F0883084F0C6
:1027000087E015C090917325992321F4843044F01B
:1027100083E00DC0853024F084E009C080324CF4A1
:1027200087FF05C001C085EF8F71806A03C0806894
:1027300001C08FE980935A25089585FD02C08F73EB
:1027400003C081958F71819590916525953021F019
:10275000923111F0933149F4992787FD9095E2EF7A
:10276000F1E0E81BF90B84910895209173259927D6
:1027700087FD9095222331F4E8E0F2E0E81BF90BA5
:1027800084910895EEE1F2E0E81BF90B849108953D
:1027900090916525992329F048E050E022E030E04F
:1027A00004C040E250E028E030E0420F531F99237C
:1027B00019F420E034E002C020E031E0240F351F9E
:1027C0002093632530936425992319F038E022E0A3
:1027D00002C030E228E0230F20937B25992311F4D7
:1027E00098E001C092E090937225803109F46DC0A9
:1027F000813140F48230D9F0853009F443C0882318
:1028000059F010C1823109F4B5C0823108F46EC0AC
:10281000833109F007C1BFC08CE068E043E020E0ED
:102820000E94FC0686E163E040E023E010C08CE0FB
:1028300068E043E021E00E94FC0686E163E040E0BE
:1028400022E00E94FC068CE063E040E020E00E9471
:10285000FC0680917325882321F48CE064E042E03B
:1028600009C08CE064E042E021E00E94FC068CE0BC
:1028700060E144E020E00E94FC0687E164E042E081
:1028800020E05EC08CE068E043E021E00E94FC06AE
:1028900086E163E040E022E00E94FC068CE063E019
:1028A00040E020E00E94FC068CE060E144E021E092
:1028B0000E94FC068CE064E042E021E00E94FC06FD
:1028C00087E164E042E020E088C08CE068E043E01B
:1028D00021E00E94FC0686E163E040E022E00E94E5
:1028E000FC068CE063E040E021E010C08CE068E092
:1028F00043E021E00E94FC0686E163E040E022E044
:102900000E94FC068CE063E040E022E00E94FC06AE
:1029100080917325882321F48CE064E042E009C0B3
:102920008CE064E042E021E00E94FC068CE060E183
:1029300044E020E00E94FC0687E164E042E021E000
:102940000E94FC068FEF97E0A0E0B0E080937F2527
:1029500090938025A0938125B093822584E167E040
:1029600040E020E00E94FC0688E06FE140E020911A
:10297000732554C08CE068E043E021E00E94FC062F
:1029800086E163E040E022E00E94FC068CE063E028
:1029900040E021E010C08CE068E043E021E00E94CC
:1029A000FC0686E163E040E022E00E94FC068CE049
:1029B00063E040E022E00E94FC068CE060E144E03D
:1029C00021E00E94FC068CE064E042E021E00E94ED
:1029D000FC0687E164E042E021E00E94FC068FE013
:1029E00090E0A0E0B0E080937F2590938025A093B5
:1029F0008125B093822580917325843010F0109248
:102A0000732584E167E040E024E00E94FC06209109
:102A10007325220F255F83E16FEF40E00E94FC06E3
:102A200081E0089580E008951F9384E080937125EC
:102A300023E0209378258FEF9FEF80936625909376
:102A400067258093692590936A2511E0109373257B
:102A50001092652588E294E0809363259093642525
:102A600088E280937B2588E08093722585E08093BF
:102A70007525209379258AE880935A250E944C1366
:102A800010936825109274251F9108951F93CF937A
:102A9000DF9382E2609166250E94490683E260919D
:102AA00067250E944906CBE5D5E214E2812F6991A2
:102AB0000E9449061F5F1C32C9F780E260916925B8
:102AC0000E94490681E260916A250E94490688E0D9
:102AD00060E645E0209168250E94FC068FE26FE0E9
:102AE00040E0209178250E94FC068EE268E043E0F9
:102AF000209174250E94FC068FE260EF44E0209153
:102B000075250E94FC06809165250E94C81380915E
:102B10005A250E949D13682F85E00E944906DF9187
:102B2000CF911F910895FF920F931F93CF93DF933F
:102B3000EB0190918425943009F414C18E3431F066
:102B4000893541F488818093792506C188818093F5
:102B5000712502C120917A252F3009F4FFC08B30F6
:102B600009F4F2C08C3078F4823009F4B5C08330B7
:102B700018F48823E1F1F4C0833009F4BBC0843039
:102B800009F0EEC085C0833521F1843530F48F34EF
:102B900059F0803509F0E4C00EC0873509F495C0BE
:102BA000803F09F0DDC0ADC02881209378258FE2F9
:102BB0006FE040E0CFC088819981682F80936625BF
:102BC0009093672582E20E94490683E2609167251F
:102BD0008EC088819981682F8093692590936A259A
:102BE00080E20E94490681E260916A2580C09923B3
:102BF00009F0B8C0809165253881853029F48FE0CF
:102C000090E0A0E0B0E004C08FEF97E0A0E0B0E07B
:102C100004C0B695A795979587953A95D2F780FF0A
:102C2000A3C000917325888180937325283039F0E3
:102C300088E00E94AD0E8830D9F716E101C018E097
:102C40008091652520917325853029F4220F255F19
:102C500083E16FEF06C0222341F0002331F088E0CA
:102C60006FE140E00E94FC060CC00E94C8130E9465
:102C70004C1380915A250E949D13682F85E00E9475
:102C80004906183009F468C086E10E94AD0E64C0A0
:102C9000992309F067C0283039F088E00E94AD0E12
:102CA0008830D9F706E101C008E01881812F0E9421
:102CB000C813F82E083019F086E10E94AD0EFF20EF
:102CC00009F452C0109365250AC028812093752508
:102CD0008FE260EF44E03EC0888180935A250E94D5
:102CE0004C1380915A250E949D13682F85E00E9405
:102CF000490632C028812093682588E060E645E0D7
:102D000029C0888180935B25898180935C258A8195
:102D100080935D258B8180935E258C8180935F25D8
:102D20008D81809360258E81809361258F81809332
:102D30006225CBE5D5E214E2812F69910E94490614
:102D40001F5F1C32C9F708C02881209374258EE2CA
:102D500068E043E00E94FC0680E007C081E805C00F
:102D600084EF03C086E801C088EEDF91CF911F9108
:102D70000F91FF9008950F931F93CF93DF9386E0F9
:102D80000E94AD0E8630D9F785E160E847E020E08B
:102D90000E94FC0600914906809149068C7FE0E480
:102DA000F6E0818718E0C0E0D0E086E060E645E02C
:102DB0000E94E4069E01220F331F220F331FC82FEB
:102DC000D0E0C22BD32B0000000000000000000068
:102DD00000000000000000000000000000000000F3
:102DE000000000000000115001F783E00E94AD0ECA
:102DF0008FE00E946806E0E4F6E081E084870187C6
:102E0000CE010E94E33DDF91CF911F910F91089574
:102E1000EF92FF920F931F93DF93CF930F920F9236
:102E2000CDB7DEB7F82E81E065E170E041E050E01B
:102E30009E012F5F3F4F0E94A50700E416E088E047
:102E4000F80186838CE791E00E94F708EE24E39472
:102E5000F801E68281E090E00E94F708F801E5823F
:102E600000E084E690E00E94F70881E06FE140E036
:102E70000E94E4060A30C9F0883011F00F5FF1CFEC
:102E800080937A2529812223D1F082E16FE040E00E
:102E90000E94FC0614C00E9414150E944615109250
:102EA000842510926B2580E001C085E80F900F907B
:102EB000CF91DF911F910F91FF90EF90089583E0E4
:102EC00060E344E020E00E94FC0683E068E043E029
:102ED00020E00E94FC0683E067E040E021E00E94E1
:102EE000FC060E94DE3D682F8DE29A830E9449060F
:102EF0008EE267E040E09A81292F0E94FC0680E084
:102F00000E94DD180E9400198EE260E245E021E097
:102F10000E94FC068CE060E847E021E00E94FC068D
:102F200084E062E041E021E00E94FC068EE068E07F
:102F30000E94490689E06FE040E025E00E94FC061F
:102F40000E94BB16FF2009F4A8CFA5CF0E94081746
:102F5000882359F01CC08CE695E260E070E00E9486
:102F60006E0E009711F00E94CE0D8091702588237F
:102F700091F780EC98E10E941F07E0E4F6E081E021
:102F80008487809149068360818780E0089585E881
:102F90000895FF920F931F93CF93DF930E948F07A3
:102FA000882309F0E6C0E0E4F6E081E0858388E06C
:102FB00086838AE491E00E94F70810E0C0E4D6E03E
:102FC000FF24F39401E00E8381E090E00E94F70873
:102FD000FD821A3009F4CDC084E690E00E94F70823
:102FE0008CE10E946806873011F01F5FECCF83E010
:102FF00067E040E021E00E94FC0682E063E00E947E
:10300000490610E084E690E00E94F70881E06FE155
:1030100040E00E94E4061A3009F4ABC0883011F099
:103020001F5FF0CF80937A2581E060E070E048E098
:1030300050E02BE535E20E94A50781E00E940817C9
:10304000882351F096C0CBE5D5E20E94DE3D8993FE
:1030500085E2C336D807C9F780915B2520915C25AE
:1030600050915D2560915E2570915F25E09160250E
:10307000F0916125A0916225382F315041E0381739
:1030800008F040E0822F815091E0821708F090E034
:10309000480F21E0481708F020E0922B252F2150FF
:1030A00081E0251708F080E0592F520F91E0521768
:1030B00008F090E0892B262F215091E0261708F088
:1030C00090E0682F620F81E0621708F080E0982B93
:1030D000272F215081E0271708F080E0792F720F09
:1030E00091E0721708F090E0892B2E2F215091E08B
:1030F0002E1708F090E0E82FE20F81E0E21708F0C9
:1031000080E0982B2F2F215081E02F1708F080E0CE
:10311000920FF1E0921708F0F0E08F2BA195A8171D
:1031200079F49F3F69F4EF3F59F47F3F49F46F3FD3
:1031300039F45F3F29F44F3F19F43E3F08F083CF45
:1031400080EC98E10E941F07809149068360E0E4CB
:10315000F6E081870E94960D86E90E94C70D809354
:10316000E0249093E1248CE695E20E944C0E80E0EE
:1031700001C085E8DF91CF911F910F91FF900895D5
:103180008FE00E94680683FF0EC0209184252130C5
:1031900041F486FF02C081E001C080E00E94591224
:1031A00008950E94F91008958FE00E94680684FF38
:1031B00003C081E08093832508958823C9F480911A
:1031C0007A258F30B9F0809184258823A9F4109254
:1031D0006B2588E00E94AD0E8830D9F780E00E9410
:1031E000E3088FE00E94AD0E8F3041F480E0089537
:1031F00088EE089581E8089586E8089586E80895A0
:1032000080917A258F3051F488E00E94AD0E88308D
:1032100039F481E00E94E30880E0089582E808958F
:1032200085E80895909184259923B9F4883031F484
:103230000E94AD0E10926B2588E008958091E024E5
:103240009091E124009721F086E10E94AD0E03C029
:1032500081E080936B2586E0089586E80895FC015F
:10326000A081B18184E18C9313966C93139711968E
:103270004D935C93129780E296E2BF010E94530E39
:1032800008950F931F93DF93CF930F920F92CDB7B3
:10329000DEB78091A9259091AA256BEE4FEF5FEFE5
:1032A0000E942F19109298250FEF1FEF09831A83A0
:1032B00080E5BE016F5F7F4F0E9419300093DF25CC
:1032C0001093E0251092ED251092EE251092EF2537
:1032D0001092F0251092F1251092F2251092F3250C
:1032E0001092F4250E94802C0F900F90CF91DF91C7
:1032F0001F910F910895DF92EF92FF920F931F930A
:10330000DF93CF93CDB7DEB72F97CDBFDEBF7C0164
:10331000DE011196FC0150814181252F342FF901E6
:103320002FE001900D922150E1F78093A925909311
:10333000AA258C81823019F48F8198851AC08F81DB
:103340008093ED2588858093EE2589858093EF25F0
:103350008A858093F0258B858093F1258C858093D9
:10336000F2258D858093F3258E858093F4258EEF4D
:103370009FEF8093DF259093E02580E5BE016B5F92
:103380007F4F0E9419300E94AA2CD7010D911C91E9
:1033900081E0F8018083E182F282EE56FF4F808364
:1033A0008F858183DF01189780915B258C938091B5
:1033B0005C2511968C93119780915D2512968C93C4
:1033C000129780915E2513968C93139780915F25B9
:1033D00014968C9314978091602515968C9315976D
:1033E0008091612516968C93169780916225179689
:1033F0008C93DF011A978FEF9FEF8D939C9311971A
:103400008C81823059F43C978091DF259091E025A2
:103410008083918383E298EC45E11CC07297809190
:10342000ED2580838091EE2581838091EF25828335
:103430008091F02583838091F12584838091F2250A
:1034400085838091F32586838091F425878383E2A9
:103450009CEC4BE1DF0112972091662530916725A6
:103460002D933C93DF0113972091A4252C932F5F7C
:103470002093A425DF0115978D939C933697408365
:10348000D8011796ED93FC93189784E0BE016D5F09
:103490007F4F0E941930D82E80E0BE016E5F7F4FB3
:1034A0000E941930DD2071F4882361F4C80162E0C4
:1034B00070E041E00E944012882321F481E0809373
:1034C0001D2608C0C70161EE4FEF5FEF0E942F1964
:1034D0000E94802C2F96CDBFDEBFCF91DF911F9130
:1034E0000F91FF90EF90DF900895BC01FC01908157
:1034F000818120918525222321F4CB010E94CE0DCC
:103500000895E92FF82F809108268183809109265C
:10351000828380910A26838380910B268483809105
:103520000C26858380910D26868380910E268783C5
:1035300080910F26808780911326818783E1808385
:1035400080E296E20E94530E0895CF92DF92EF92AE
:10355000FF920F931F93CF93DF93BC01FC01C081B7
:10356000D181D980EA80FB800C811D815E814F81F1
:10357000388589859A85CB8420911C26225022305B
:1035800020F0CB010E94CE0D5CC022E02883DE013A
:10359000A057BF4FFD01219311968D939C931297D5
:1035A000C282FD01389780915B25808380915C25E4
:1035B000818380915D25828380915E2583838091C4
:1035C0005F25848380916025858380916125868332
:1035D0008091622587833897D082E182F2820383CB
:1035E0001483558346833783FD0172978091662546
:1035F0009091672580839183FD0173978091A42525
:1036000080838F5F8093A425FD01759783E69CECF2
:103610008083918356978BE18C93AF83B8871E820A
:1036200087E895E20E94530E8091A6259091A725E8
:103630008C839D8381E00E942109882311F40E94DC
:10364000A829DF91CF911F910F91FF90EF90DF900C
:10365000CF900895FF920F931F93DF93CF930F9214
:103660000F92CDB7DEB7F09015260E94CE0DFF2049
:10367000B1F583E563E176E20E94193040911326AB
:1036800050911426809108268093ED25809109267B
:103690008093EE2580910A268093EF2580910B265A
:1036A0008093F02580910C268093F12580910D2642
:1036B0008093F22580910E268093F32580910F262A
:1036C0008093F42581E080931C26109298258091A8
:1036D000A325833031F582E08093A32522C0109288
:1036E00098250FEF1FEF09831A8380E5BE016F5FF6
:1036F0007F4F0E9419300093DF251093E025109230
:10370000ED251092EE251092EF251092F0251092E3
:10371000F1251092F2251092F3251092F4254FEF27
:103720005FEF8091A9259091AA256F2D0E942F19F6
:103730000E94802C0F900F90CF91DF911F910F91DD
:10374000FF900895CF92DF92EF92FF920F931F9315
:1037500090916525809173259923C1F46091E925A5
:103760007091EA25882339F480E090E022E330E08C
:1037700040E050E006C080E090E029E130E040E029
:1037800050E00E943B3D6B017C0117C06091E92530
:103790007091EA25882339F480E090E028E230E057
:1037A00040E050E0EECF6B01EE24FF2484E0CC0C2F
:1037B000DD1CEE1CFF1C8A95D1F780E061E040E043
:1037C00020E030E000E010E00E94AA23882351F4BA
:1037D0008091A9259091AA2561EE4FEF5FEF0E949D
:1037E0002F1910C080E0B701A60120E001E419E123
:1037F000EE24FF240E945F0A882321F080E090E0FD
:103800000E9441191F910F91FF90EF90DF90CF9090
:1038100008952091EA242730E8F4FC01A781B085BF
:1038200012968C911297869586958370823091F4CA
:10383000E091E824F091E9243297E093E824F093B2
:10384000E92416968D919C911797808391832F5F21
:103850002093EA2480E008952091EA242730F0F4B0
:10386000DC011796ED91FC911897828186958695DB
:103870008370833099F48091E8249091E92408972B
:103880008093E8249093E924DC01369688E0019047
:103890000D928150E1F72F5F2093EA2480E0089594
:1038A000BF92CF92DF92EF92FF920F931F93DF931D
:1038B000CF93CDB7DEB72597CDBFDEBFDB01ED904F
:1038C000FC901197F701618372838AE080838701FE
:1038D0000C561F4F4091A525442371F0041B11097C
:1038E000242F235FEBEAF5E2C801BF0150E02D83EE
:1038F0000E94EE3D2D8101C02DE080918B25882313
:1039000009F443C00093E8241093E9241092EA24B8
:103910008CE29CE189839A8387E895E26E010894A2
:10392000C11CD11CB6012D830E94740EB090EA24F4
:103930001092EA2489E09CE189839A8387E895E2E2
:10394000B6010E94740E3091EA24A091E824B0914F
:10395000E9241197EB2DF0E0CF0124E0880F991FA7
:103960002A95E1F7832B8C93EE0FFF1FEE0FFF1FBD
:10397000E30FF11DEE0FE093EA242D812E0FF0E00E
:10398000E095F095E00FF11F02C0F801129212923B
:1039900080911C26833019F08FEF9FE002C08FEFDB
:1039A0009FE43091852531119068DF019E938E93BD
:1039B0008091692590916A253FEF8E3F9307E9F446
:1039C0003A972A5F80915B25808380915C25818373
:1039D00080915D25828380915E25838380915F2520
:1039E0008483809160258583809161258683809181
:1039F0006225878380E090EC05C0FD01929382935D
:103A000080E090E8DF01129740916625509167258C
:103A10004D935C93DF0113973091A2253C933F5F58
:103A20003093A225DF0115978D939C9336972083C1
:103A3000D7011796ED93FC931897C70162E070E0E9
:103A400040E00E94401281E080931D262596CDBF64
:103A5000DEBFCF91DF911F910F91FF90EF90DF902C
:103A6000CF90BF900895BC0180E00E94501C089543
:103A7000CF92DF92EF920F93DF93CF93CDB7DEB764
:103A80006697CDBFDEBF6C01DC01ED91FC918181B9
:103A90008983828193818A839B8384818C838581BE
:103AA0008D8386818E8387818F83808588878185BA
:103AB000898782858A8783858B8784858C8785859E
:103AC00096858D879E8787858F878089888B81895A
:103AD000898B82898A8B83898B8B84898C8B85895E
:103AE0008D8B86898E8B228D338DCE010196BE0102
:103AF000645F7F4F418D0789E08C0E94FB03C60104
:103B00000E94CE0D6696CDBFDEBFCF91DF910F91A3
:103B1000EF90DF90CF900895EF92FF92CF93DF93D5
:103B2000E82EE7017E01F92EE701E881F981818124
:103B300062810E948904C7010E94CE0DDF91CF915E
:103B4000FF90EF900895EF92FF92CF93DF93E82ECE
:103B5000E7017E01F92EE701E881F9818181628127
:103B60000E94323DC7010E94CE0DDF91CF91FF90A0
:103B7000EF900895EF92FF92CF93DF93E82EE70145
:103B80007E01F92EE701E881F981818192816381CB
:103B90000E946004C7010E94CE0DDF91CF91FF907B
:103BA000EF900895EF92FF920F93CF93DF93E82E5B
:103BB000E7017E01F92EE701E881F9812181328157
:103BC00043815481658176818781908501850E943A
:103BD0005303C7010E94CE0DDF91CF910F91FF904B
:103BE000EF900895EF92FF920F93CF93DF93E82E1B
:103BF000E7017E01F92EE701E881F981BF016E5FDF
:103C00007F4F24893589E788F08C81814389068933
:103C10000E94333DCE010E94CE0DDF91CF910F91D6
:103C2000FF90EF9008950F931F93DF93CF93CDB73D
:103C3000DEB76697CDBFDEBF8C01DC01ED91FC9154
:103C4000818192818A839B838381898384818C8310
:103C500085818D8386818E8387818F838085888708
:103C60008185898782858A8783858B8781819281F7
:103C70008D879E8784858C8785858F878685888BB1
:103C80008785898B80898A8B81898B8B82898C8BB4
:103C900083898D8B84898E8BCE010196BE01645FF2
:103CA0007F4F45890E94E803C8010E94CE0D6696A9
:103CB000CDBFDEBFCF91DF911F910F9108950F937C
:103CC0001F93DF93CF93CDB7DEB72B97CDBFDEBF6A
:103CD0008C01DC01ED91FC91828189838381948147
:103CE0008A839B8385818C8386818D8387818E8364
:103CF00080858F83818588878285898783858A8768
:103D000084858B878181BE016F5F7F4F0E94343D28
:103D1000C8010E94CE0D2B96CDBFDEBFCF91DF91A3
:103D20001F910F910895EF92FF920F93CF93DF931E
:103D3000E82EE7017E01F92EE701E881F981218172
:103D400032814381548165817681878190850185A7
:103D50000E94353DC7010E94CE0DDF91CF910F919A
:103D6000FF90EF900895EF92FF92CF93DF93E82EAC
:103D7000E7017E01F92EE701E881F981AF014D5F8E
:103D80005F4F818162810E94363DC7010E94CE0D46
:103D9000DF91CF91FF90EF900895EF92FF92CF9334
:103DA000DF93E82EE7017E01F92EE701E881F98132
:103DB000218132814381548165817681878190851B
:103DC0000E94373DC7010E94CE0DDF91CF91FF9039
:103DD000EF900895EF92FF92CF93DF93E82EE701E3
:103DE0007E01F92EE701E881F98181810E94383D49
:103DF000C7010E94CE0DDF91CF91FF90EF90089503
:103E0000EF92FF92CF93DF93E82EE7017E01F92E28
:103E1000E701E881F98181810E942B02C7010E949C
:103E2000CE0DDF91CF91FF90EF900895EF92FF922A
:103E3000CF93DF93E82EE7017E01F92EE701E881B9
:103E4000F98181810E94393DC7010E94CE0DDF9129
:103E5000CF91FF90EF900895CF92DF92EF92FF9273
:103E60000F931F93CF93DF93E82EE7017E01F92E86
:103E7000E701E881F981048115812681378189E094
:103E8000C82ED12CCE0EDF1E818162814381E08459
:103E90000E945302CE010E94CE0DDF91CF911F915F
:103EA0000F91FF90EF90DF90CF900895EF92FF92E7
:103EB000CF93DF93E82EE7017E01F92EE701E88139
:103EC000F981818162810E94E002C7010E94CE0DCA
:103ED000DF91CF91FF90EF900895EF92FF92CF93F3
:103EE000DF93E82EE7017E01F92EE701E881F981F1
:103EF00081810E943A03C7010E94CE0DDF91CF91CC
:103F0000FF90EF900895DC01ED91FC916281738147
:103F10008181448125810E943A3D08952091132694
:103F20003091142636FF1BC0882359F420910626B1
:103F300030910726809166259091672528173907CB
:103F400059F020910626309107268091E225909124
:103F5000E3252817390719F48EEE0E94C938089511
:103F6000CF93DF93209113263091142636FFC5C0DE
:103F7000882359F4209106263091072680916625E2
:103F8000909167252817390761F020910626309116
:103F900007268091E2259091E3252817390709F03B
:103FA000ACC020910826309109268091DF259091A0
:103FB000E0252817390709F4A0C0909108268091C0
:103FC000ED25981759F5909109268091EE259817BF
:103FD00029F590910A268091EF259817F9F4909190
:103FE0000B268091F0259817C9F490910C268091AA
:103FF000F125981799F490910D268091F225981744
:1040000069F490910E268091F325981739F49091D8
:104010000F268091F425981709F46FC086E90E9455
:10402000C70DEC01009709F468C08881998125E0EB
:10403000FC012083C183D283DC01AD56BF4F2C939A
:10404000FD01389720915B25208320915C252183F9
:1040500020915D25228320915E25238320915F2579
:10406000248320916025258320916125268320913A
:104070006225278338972091ED2520832091EE2516
:1040800021832091EF2522832091F0252383209105
:10409000F12524832091F22525832091F325268381
:1040A0002091F4252783FD01729720916625309198
:1040B000672520833183FD0173972091A4252083F8
:1040C0002F5F2093A425FD01759723E63CEC208308
:1040D0003183569728E12C93FC01A783B08762E0D7
:1040E00070E041E00E944012882321F481E0809337
:1040F0001D2603C0CE010E94CE0DDF91CF91089501
:10410000CF92DF92EF92FF920F931F93CF93DF93A3
:10411000E82EE7017E01F92EE701E881F981A78108
:10412000B0858C918093F825A80FB11D11968C91C4
:1041300080931126C780D084D60111968D919C91D1
:10414000129745EF55E28093F5259093F625139647
:104150002C9113972093F925B6016C5F7F4F092F9F
:104160000295069506950370192F169516951370EE
:1041700009F45BC014962D913C9115972093FB2573
:104180003093FC25F6013696123019F5DA011896AF
:10419000FA01108611961C92119712961C92129792
:1041A00013961C92139714961C92149715961C92B2
:1041B000159716961C92169717961C92D60116966E
:1041C0002D913C91179720873187F601389644E06E
:1041D00030C0133069F59A01285F3F4FD60116961B
:1041E000FC90DA011896FC924181D90111964C930A
:1041F0001197428112964C931297438113964C93D8
:104200001397448114964C931497458115964C93BB
:104210001597468116964C931697478117964C939F
:104220001797F6013E964AE004C0FB0140E001C04A
:1042300042E0002309F447C086FD08C02191319176
:1042400020930626309307264E5F08C02091FB2559
:104250003091FC2520930626309307260230C1F4C6
:10426000109208261092092610920A2610920B2608
:1042700010920C2610920D2610920E2610920F26E8
:104280002081318120930826309309264E5F1BC080
:104290000330C9F420812093082621812093092628
:1042A000228120930A26238120930B2624812093A8
:1042B0000C26258120930D26268120930E2627810A
:1042C00020930F26485F5091F8255550541B50936A
:1042D0001226009305261093FA2583FDB9C1FB0130
:1042E000E40FF11D282F27702093F725233021F4A8
:1042F0002081209310265BC0213009F449C0213071
:1043000020F0233009F0A4C152C0808191818093B4
:10431000132690931426428140931526477011F07E
:104320004C5F01C043E0DF01A40FB11D8C9180936D
:1043300016264F5F682F677090E08077907024E0BA
:10434000959587952A95E1F7662311F4882389F0DE
:104350009F01240F311D20931726309318266623C2
:1043600011F0660F460F882321F0880F880F880F01
:10437000480F451750F4541B50931926E40FF11DB4
:10438000E0931A26F0931B2667C11092192664C188
:10439000552351F0563718F086E780931226E093A4
:1043A0001326F093142658C11092122655C120915D
:1043B00010262330C9F0243030F42130A9F0223007
:1043C00009F046C107C0283008F446C1283009F07A
:1043D0003FC10EC081819281809313269093142651
:1043E00083818093152638C181818093132634C13F
:1043F0002181328120931326309314262381348126
:104400002093152630931626258120931726268182
:104410003781209318263093192694FF1DC180857B
:1044200080931A2619C18091F725833061F4809119
:104430001026843011F0873031F484EE95E2BE010D
:104440000E94530E0FC180919825813009F4EBC072
:10445000813020F0843008F0FBC0A3C08091A125FA
:10446000882309F06AC090911C26933080F1933024
:1044700009F0EEC08091F725813009F4E5C0813064
:1044800010F1833009F0E4C080911026843009F4E3
:10449000AFC0853038F4813009F4A0C0833009F012
:1044A000D7C009C0863009F4AEC0863040F08730EE
:1044B00009F0CEC0B0C0CE010E942527D3C08EEE39
:1044C0000E94C938C5C080E00E948E1FC1C0809183
:1044D000F725813009F4B8C0813020F0833009F02D
:1044E000B7C00CC080911F26882309F4B1C099235E
:1044F00009F4AEC080E00E94B01FAAC080911026CF
:10450000843009F475C0853038F4813009F466C010
:10451000833009F09DC004C0873009F05AC009C03B
:10452000CE010E94252780911C26813009F09AC077
:104530005CC0923009F08CC06EC0833009F18430C9
:1045400019F0823009F084C08091F725882309F0A2
:104550007FC080911C26833019F481E00E948E1F59
:1045600080911F26882341F080911C268150823043
:1045700018F481E00E94B01FCE010E94003172C089
:104580008091F725833009F063C080911026883030
:1045900009F05EC082E00E948609CE010E94B53714
:1045A00061C00E94DF308091F725813009F44CC052
:1045B000833009F04DC0809110268430C9F08530D9
:1045C00030F4813059F0833009F042C00BC087309D
:1045D000F1F0883021F18630D9F515C0CE010E9466
:1045E000751A40C0CE010E9425270E94FC2C3AC0BB
:1045F00080918B25882321F0CE010E94662532C050
:104600000E94B12425C0CE010E94212D2BC0809193
:104610001C268230E9F4CE010E94331D23C0CE0156
:104620000E9406391FC08091F725833059F480918C
:104630001026823069F480E00E948609CE010E9433
:104640002A1B10C0813021F4CE010E9465280AC0C7
:10465000CE010E94CE0D06C080911D26882309F050
:10466000E2CEF1CEDF91CF911F910F91FF90EF90AD
:10467000DF90CF900895FC011082618172816115F5
:10468000710521F084EE95E20E94530E0895FC011D
:104690008681882399F40780F085E02D82818695B4
:1046A00086958370823061F481E0DB014D915C91ED
:1046B0001197268137814217530719F080E008953A
:1046C00080E00895FB01DC0116968C9116978823F3
:1046D000E9F517960D90BC91A02D12968C9112972A
:1046E000869586958370833099F581E020811696B2
:1046F0009C911697291751F5218117969C91179730
:10470000291721F5228118969C9118972917F1F401
:10471000238119969C9119972917C1F424811A961F
:104720009C911A97291791F425811B969C911B97B0
:10473000291761F426811C969C911C97291731F446
:1047400027811D969C911D97291719F080E00895E7
:1047500080E008958F929F92AF92BF92DF92EF9286
:10476000FF920F931F93DF93CF930F920F92CDB7CA
:10477000DEB7D82E790186E94A8369830E94C70D86
:104780004C014A816981009709F4DCC0FC01A080DA
:10479000B180DD2011F084E001C08BE0F501808361
:1047A000F50181829282D501AD56BF4F84E08C9392
:1047B0008091692590916A259C012E5F3F4F2230A0
:1047C000310510F0662359F1189780915B258C9381
:1047D00080915C2511968C93119780915D2512969E
:1047E0008C93129780915E2513968C9313978091EA
:1047F0005F2514968C9314978091602515968C9361
:1048000015978091612516968C9316978091622555
:1048100017968C93179783E290EC52E105C09E9314
:104820008E9383E290E85CE0442361F0209166255A
:10483000309167250217130729F05E5F3E932E9390
:1048400060E002C0806461E0423029F49860F701C2
:104850002081318119C0433071F49C6018975A5FF0
:104860009D0148E0F70101907F01F90101929F014C
:104870004150C1F735C02091DF253091E025FFEF91
:104880002E3F3F0721F098603E932E9329C09C60F5
:1048900018975A5F2091ED252C932091EE251196C3
:1048A0002C9311972091EF2512962C93129720911B
:1048B000F02513962C9313972091F12514962C93A1
:1048C00014972091F22515962C9315972091F32596
:1048D00016962C9316972091F42517962C931797DC
:1048E0001297662341F020916625309167252D931C
:1048F0003C93119703C00D931C9311979D01215078
:1049000030404091A425F90140834F5F4093A42596
:104910009D0123503040F9018083918314975C936B
:10492000F501A783B087C50162E070E041E00E9415
:104930004012882321F481E080931D2604C0C40125
:104940000E94CE0D80E00F900F90CF91DF911F91CC
:104950000F91FF90EF90DF90BF90AF909F908F905E
:1049600008950F931F93CF93DF9386E90E94C70D9D
:10497000EC01009709F4A5C0088119818CE0D801E9
:104980008C931196CD93DC93129716961C921697E2
:10499000F801EC56FF4F8091692590916A259C01A2
:1049A0002E5F3F4F22303105E8F4389780915B2528
:1049B000808380915C25818380915D2582838091B5
:1049C0005E25838380915F25848380916025858324
:1049D00080916125868380916225878380E090ECB9
:1049E00061E105C09293829380E090E86BE02091B2
:1049F0006625309167254091062650910726241799
:104A0000350711F4806403C06E5F329322932091C6
:104A100005262330E9F438976A5F20910826208321
:104A200020910926218320910A26228320910B269A
:104A3000238320910C26248320910D262583209109
:104A40000E26268320910F26278381609C6008C054
:104A50002091082630910926329322938160986034
:104A60009F01225030404091062650910726D901DF
:104A70004D935C939F01235030404091A425D90170
:104A80004C934F5F4093A4259F0125503040D9019E
:104A90008D939C9336976083D8011796ED93FC9382
:104AA00018978881998161E070E040E00E9440128F
:104AB000882321F481E080931D2603C0CE010E944B
:104AC000CE0DDF91CF911F910F910895EF92FF923C
:104AD0000F931F93DF93CF9300D00F92CDB7DEB724
:104AE0000E94CE0D80911C26823008F453C0809124
:104AF0000526823019F487E493E205C0833009F07B
:104B000049C082E693E289839A8388E096E28B83A8
:104B10009C8387E895E27E010894E11CF11CB701B3
:104B20000E94740E009789F0DC010D911C91D80150
:104B30001796ED91FC911897409106265091072603
:104B4000248135814217530719F00E94B12422C0F5
:104B500021E0F80126838183928387E895E2B701FB
:104B60000E94740E009741F0D8011796ED91FC91C8
:104B70001897818180618183C80161E070E040E025
:104B80000E944012882321F481E080931D2602C0F8
:104B9000F80116822496CDBFDEBFCF91DF911F9121
:104BA0000F91FF90EF9008950F931F93CF93DF9392
:104BB000FC01E801A081B18186E18C9311966C9390
:104BC000119712964C93129713962D933C9314972A
:104BD0004230F9F415961C92159716961C9216976A
:104BE00017961C92179718961C92189719961C9254
:104BF00019971A961C921A971B961C921B971C9633
:104C00001C921C978881998115968D939C93169779
:104C100006C0159688E009900D928150E1F780E278
:104C200096E2BF010E94530EDF91CF911F910F9129
:104C30000895EF92FF920F931F93DF93CF93CDB719
:104C4000DEB72E97CDBFDEBF7C01DC010D911C913C
:104C5000DE011196F8018EE001900D928150E1F78E
:104C6000F801E182F28283E08083D801AE56BF4F23
:104C70008C938D8511968C931197FD0138978091B7
:104C80005B25808380915C25818380915D25828373
:104C900080915E25838380915F2584838091602548
:104CA00085838091612586838091622587838A81AF
:104CB000823041F4FD013A978D819E8180839183FA
:104CC00023E112C038978D8180838E8181838F810B
:104CD000828388858383898584838A8585838B8580
:104CE00086838C85878329E1DF0112978091662571
:104CF000909167258D939C93DF0113978091A42554
:104D00008C938F5F8093A425DF0115973A81932FB1
:104D1000990F990F80E08366906C8D939C933697E2
:104D20002083D8011796ED93FC93189716961C9242
:104D3000169780911C268250823008F060C08E85C4
:104D4000882309F45CC08A818230D1F48D818B3450
:104D500009F041C08E818823F1F58F818823D9F530
:104D600088858823C1F589858823A9F58A858823C4
:104D700091F58B85882379F58C85882361F55BC057
:104D8000833009F058C09D818091ED25981719F561
:104D90009E818091EE259817F1F49F818091EF25F7
:104DA0009817C9F498858091F0259817A1F49985F2
:104DB0008091F125981779F49A858091F2259817BA
:104DC00051F49B858091F325981729F49C85809157
:104DD000F425981781F187E895E2B7010E94530EF8
:104DE0008091A6259091A725F8018483958381E081
:104DF0000E9421098823F9F40E94A8291CC00E945E
:104E0000AA2CD7018D919C9162E070E041E00E9454
:104E10004012882321F481E080931D260CC02B8151
:104E20003C81C70161EE4A818E010B5F1F4F0E94DA
:104E3000D4250E94802C2E96CDBFDEBFCF91DF916E
:104E40001F910F91FF90EF900895BC01DC01ED914F
:104E5000FC9185E1808380910826818380910926D9
:104E6000828380910A26838380910B26848380919C
:104E70000C26858380910D26868380910E2687835C
:104E800080910F26808780911326818780E296E2A9
:104E90000E94530E1092ED251092EE251092EF25F0
:104EA0001092F0251092F1251092F2251092F32520
:104EB0001092F4258FEF9FEF8093DF259093E025EC
:104EC00008950F931F93DF93CF93CDB7DEB7289745
:104ED000CDBFDEBFDC01ED91FC91119719821A82E2
:104EE0001B821C821D821E821F8218860780F0850D
:104EF000E02D4281469546954370242F2250223062
:104F000080F42681298327812A8320852B8321858C
:104F10002C8322852D8323852E8324852F8325852D
:104F2000288720911C262330D1F1223009F03FC080
:104F3000423059F40680F781E02D2091DF25309131
:104F4000E025E217F30759F532C0433041F53681C9
:104F50002091ED25321719F537812091EE25321772
:104F6000F1F430852091EF253217C9F43185209175
:104F7000F0253217A1F432852091F125321779F40A
:104F800033852091F225321751F434852091F32591
:104F9000321729F435852091F425321741F02091FC
:104FA0006625309167258E010F5F1F4F14C0409119
:104FB000692550916A254E5F5F4F2091662530919B
:104FC00067254230510520F443E00BE515E203C0AC
:104FD00042E009E615E20E94D4252896CDBFDEBF47
:104FE000CF91DF911F910F910895DC01ED91FC911C
:104FF0001197E081E43270F4F0E0EE0FFF1FE65D00
:10500000FD4F25913491F901309711F019950895CC
:105010000E94CE0D08951F9380911D26882381F450
:105020008091A025882361F08CE995E260E070E032
:105030000E946E0E009721F00E94F52711E001C03A
:1050400010E08091E825882359F084EE95E260E035
:1050500070E00E946E0E009719F00E94F52711E093
:10506000812F1F910895FC018681882329F4848172
:10507000958101978483958380E00895FC01868162
:10508000882341F481E0248135812115310519F00F
:1050900080E0089580E0089521E0FC019381FB0108
:1050A0008081981320E0822F0895FC01A081B181B6
:1050B00080E18C9311964C93119712966C9380E239
:1050C00096E2BF010E94530E08950F931F93DF9342
:1050D000CF93CDB7DEB72897CDBFDEBFBC01FC01B3
:1050E0009081818120911226222321F4CB010E94FC
:1050F000CE0D24C1E92FF82F8091F925808F2091C2
:10510000052621838091062690910726828393832A
:10511000822F8250823050F51482158216821782B7
:105120001086118612861386223039F48091082663
:10513000909109268483958323C0809108268483D7
:1051400080910926858380910A26868380910B268B
:10515000878380910C26808780910D26818780919E
:105160000E26828780910F2683870AC012821382BF
:105170001482158216821782108611861286138673
:10518000808D90918625891761F5248190918E25D7
:10519000291739F5258190918F25291711F5268139
:1051A000909190252917E9F427819091912529174D
:1051B000C1F4208590919225291799F42185909129
:1051C0009325291771F4228590919425291749F484
:1051D000238590919525291721F4CB010E94CE0DAE
:1051E00063C080938625848180938E2585818093FA
:1051F0008F25868180939025878180939125808556
:105200008093922581858093932582858093942530
:105210008385809395252091FA2524871786108A07
:10522000118A128A138A148A158A168A8091FB259C
:105230009091FC25858796872330C9F48091FD25C0
:1052400087878091FE25808B8091FF25818B8091BF
:105250000026828B80910126838B80910226848B8D
:1052600080910326858B80910426868B0BC022308B
:1052700039F48091FD259091FE258787908B02C09F
:105280001586168680911126878B80911226818F34
:105290008091132690911426828F938F81E18083D1
:1052A00080E296E20E94530E8091F52584FF46C06D
:1052B00080911C26833009F443C0809105268230FA
:1052C00071F4809108269091092689839A83009130
:1052D00006261091072680E060E042E021C083307E
:1052E00019F5809108268983809109268A83809107
:1052F0000A268B8380910B268C8380910C268D83CC
:1053000080910D268E8380910E268F8380910F26AB
:105310008887009106261091072680E060E043E030
:105320009E012F5F3F4F07C080E060E040E020E03B
:1053300030E000E010E00E94AA2302C00E94802C0E
:105340002896CDBFDEBFCF91DF911F910F910895B9
:10535000EF92FF920F931F93909165258091732593
:10536000992339F4882361F440E05CED65E070E056
:1053700010C0882351F440E050EB64E070E009C0B5
:1053800040E05EEE62E070E004C040E050EE61E0BC
:1053900070E081E020E00CED19E2EE24FF240E9491
:1053A0005F0A882321F080E090E00E94DC291F91B1
:1053B0000F91FF90EF900895FF920F931F93DF934B
:1053C000CF9300D00F92CDB7DEB783E398E2898305
:1053D0009A8387E895E28E010F5F1F4FB8010E9404
:1053E000740E8EE398E289839A83F02E012F87E86A
:1053F00095E26F2D702F0E946E0EBC010097D1F0C8
:10540000DC01ED91FC9111978081833041F08D306A
:1054100059F0823061F780EF0E94142CE8CFCB0165
:1054200060EF0E946127E3CFCB0160EF43810E94D0
:105430005528DDCF80918B25882311F00E94A82963
:105440002496CDBFDEBFCF91DF911F910F91FF90CA
:1054500008952F923F924F925F926F927F928F9218
:105460009F92AF92BF92CF92DF92EF92FF920F93F3
:105470001F93DF93CF9300D0CDB7DEB78C01DC0153
:105480002D903C90F1016180E28043815481C58080
:10549000D680A780B084F185FB83D1011A969C90B9
:1054A0001A971B968C901B971C967C901C971D96A8
:1054B000FC901D971F96BC91BA83F101268530E0C0
:1054C00084E0482E512C4222532222FD0BC08091B1
:1054D0009825882321F48091A125882319F0C801FB
:1054E00061EEA0C08DE0D1018C931396FC921397CE
:1054F00016961C926A816B5FE4E9F0E0BA81EB1BBF
:10550000F109E20DF31D762D723049F46B2F695FBE
:105510008091692590916A25929382931EC0862D71
:105520008330D9F438976A81635F80915B258083EB
:1055300080915C25818380915D25828380915E25A9
:10554000838380915F25848380916025858380910A
:10555000612586838091622587838091662590915D
:1055600067258417950729F4662041F0EE2059F449
:1055700002C0662019F06E5F92938293EE20F1F0E4
:1055800080E090E002C080E490E0AE2DA23029F4EB
:105590006E5F6983D292C2920CC03897685F69834C
:1055A000C082D182A282B382BB81B483958286827B
:1055B000778269816E5F5293429302C080E090E0EF
:1055C0004091A42542934F5F4093A425AC014160D4
:1055D00020FF02C0AC0141627A81773608F0506149
:1055E0009E2D990F990F80E0362D3295330F330F92
:1055F000307C20E0822B932BDF011297842B952B9C
:105600008D939C93119767FD0BC033976083D101F5
:105610001796ED93FC9318974114510439F41FC069
:10562000C80165EE4F2D0E94552833C080911C267D
:1056300082508230A0F487E895E2B8010E94530EB0
:105640008091A6259091A725F1018483958381E01F
:105650000E9421098823E9F40E94A8291AC00E9407
:10566000AA2CD10111960D931C931297C10162E0EF
:1056700070E041E00E944012882321F481E0809391
:105680001D2607C0C80161EE4F2D0E9455280E94BB
:10569000802C2396CDBFDEBFCF91DF911F910F915C
:1056A000FF90EF90DF90CF90BF90AF909F908F9042
:1056B0007F906F905F904F903F902F900895EF9262
:1056C000FF920F931F93DF93CF93CDB7DEB725974C
:1056D000CDBFDEBF7C01FC0100811181F801818119
:1056E00092E1908389838CE498E28A839B83CE0144
:1056F00001968C839D8387E895E2BE016E5F7F4FA4
:105700000E946E0E009729F00E94CE0DF8011282C1
:1057100003C087EEF801828380E296E2B7010E941F
:10572000530E2596CDBFDEBFCF91DF911F910F9114
:10573000FF90EF900895FF920F931F93082F109200
:105740001D2610921C2610921E261092A125109242
:10575000A32510929825109286258FEF80938E2591
:1057600080938F2580939025809391258093922517
:105770008093932580939425809395251092E1251D
:1057800088E00E941219FFB6F89410E0812F0E9461
:1057900086091F5F1430D1F7FFBE002309F440C013
:1057A00010921F2680EE9AE080939A2590939B2575
:1057B00080E098E78093E9259093EA251092972559
:1057C000109285251092A5250E94DE3D8093A2258A
:1057D00084EF91E08093A6259093A72581E08093A4
:1057E000992586E080938D251092ED251092EE2567
:1057F0001092EF251092F0251092F1251092F225CB
:105800001092F3251092F4258FEF9FEF8093DF2500
:105810009093E0250E94DE3D8093A42510928C2574
:105820001F910F91FF900895CF92DF92EF92FF9218
:105830000F931F93DB01ED91FC91A781B085169624
:10584000CC9016971796DC9017971896EC901897AF
:105850001996FC9019971A960C911A971B961C9101
:105860001B971C965C911C971D964C919CE1908314
:1058700020916625309167252183328393E09383BD
:1058800020915B25248320915C25258320915D2533
:10589000268320915E25278320915F2520872091F4
:1058A0006025218720916125228720916225238709
:1058B0009487C586D686E786F08A018B128B538B38
:1058C000448B858B80E296E20E94530E1F910F91CC
:1058D000FF90EF90DF90CF90089580911E2688234F
:1058E00071F40E94E30880E00E94DD18882321F40F
:1058F00081E080931E26089581E00E94E3080895C8
:1059000080918C25882331F48091E125882311F43E
:105910000E946D2C08950E94C9178823B9F40E9433
:10592000130C8823A9F081E00E949B2B0E94802CFD
:105930008CE995E20E944C0E84EE95E20E944C0E9A
:1059400087E895E20E944C0E80E0089585E808956E
:1059500085E8089580911E26813049F40E9400193F
:10596000853829F081E00E94E30810921E260895F0
:10597000EF92FF920F931F93CF93DF93E82EE701EF
:105980007E01F92EE701088119810E94AA2CF801F5
:10599000118180E00E94E30881E0112309F480E096
:1059A0000E94A617082F81E00E94E308812F0E9421
:1059B0009B2B0E94802C8CE995E20E947A0E84EE4B
:1059C00095E20E947A0E80E296E20E947A0E87E8C3
:1059D00095E20E947A0EE881F981018380E280835A
:1059E00080E296E2BE010E94530EDF91CF911F919B
:1059F0000F91FF90EF900895DF93CF9300D00F9217
:105A0000CDB7DEB70E94AA2C8FEF9FEF89839A83D0
:105A10008B839C8383E5BE016F5F7F4F0E941930AB
:105A200080E5BE016D5F7F4F0E94193081E00E94CA
:105A30009B2B0E94802C2496CDBFDEBFCF91DF919F
:105A40000895BC01DC01ED91FC918AE18083809195
:105A50000826818380910926828380910A26838388
:105A600080910B26848380910C26858380910D265E
:105A7000868380910E26878380910F26808780E21F
:105A800096E20E94530E08950F931F93DF93CF93D6
:105A90000F92CDB7DEB7182F40916625509167253C
:105AA00089E0612F792F20917325009165259983D5
:105AB0000E943C399981882329F481EE612F792F46
:105AC0000E94142C0F90CF91DF911F910F91089598
:105AD0000F931F93CF93DF938C01FC01C081D18181
