:100000000C9498000C94B7000C94B7000C94B700B3
:100010000C94B7000C94B7000C94B7000C94B70084
:100020000C94B7000C94B7000C94B7000C94B70074
:100030000C94B7000C94B7000C94B7000C94B70064
:100040000C94B7000C94B7000C94B7000C94B70054
:100050000C94B7000C94B7000C94B7000C94B70044
:100060000C94B7000C94B7000C94B7000C94B70034
:100070000C94B7000C94B7000C94B7000C94B70024
:100080000C94B7000C94B7000C94B7000C94B70014
:100090000C94B7000C94B7000C94B7000C94B70004
:1000A0000C94B7000C94B7000C94B7000C94B700F4
:1000B0000C94B7000C94B7000C94B7000C94B700E4
:1000C0000C94B7000C94B7000C94B7000C94B700D4
:1000D0000C94B7000C94B7000C94B7000C94B700C4
:1000E0000C94B7000C94AE060C94B8060C94A406BD
:1000F0000C9423060C944E060C94C2060C94F8053E
:100100000C9479060C94280B0C94510B0C94B700AA
:100110000C94B7000C94B7000C94D6060C94CC0643
:1001200003020201010000FFFEFDFCFBF9F7F4EF02
:1001300011241FBECFEFD1E4DEBFCDBF13E0A0E09E
:10014000B2E0E2E3FCE300E00BBF02C007900D92D7
:10015000A034B107D9F716E0A0E4B3E001C01D92C6
:10016000A23AB107E1F70E9441020C94171E0C94C9
:100170000000109241030895CF93DF93CAE0D0E0CE
:100180000AC08FEF9FEF0E94F30781E090E062E0EA
:1001900070E00E946F0B21978FEFCF3FD80789F750
:1001A00080911203882329F081E090E060E070E004
:1001B00004C081E090E061E070E00E946F0BDF918D
:1001C000CF910895882391F480911203882319F028
:1001D00080E092E002C08BE192E00E94781982E018
:1001E00090E062E070E00E946F0B02C00E94BC00D1
:1001F0001092400308954F925F926F927F928F9278
:100200009F92AF92BF92CF92EF920F931F93DF9383
:10021000CF93CDB7DEB7CF5FD0400FB6F894DEBF37
:100220000FBECDBF2C01DC0116966D907C90179708
:10023000F301C080F5EFCF0E8301065F1F4F809161
:100240001203882309F4C3C000D089E392E0ADB75C
:10025000BEB712969C938E9311970E945F190F90D0
:100260000F90B3E2CB1621F4F30182858E3229F090
:100270000E94BC0087E492E0BFC0AEE0B4E0F301AE
:100280003F9688E001900D928150E1F78EE28093D5
:100290001A0488249924540144E064E070E0415039
:1002A000242F30E0FB01E21BF30BE00FF11F8081F4
:1002B00090E053E0220F331F5A95E1F702C0880FF8
:1002C000991F2A95E2F7AA2797FDA095BA2F882AA9
:1002D000992AAA2ABB2A442311F7F8018181928125
:1002E000A381B4818093160490931704A0931804FB
:1002F000B09319044091130350911403C8016DE0A9
:1003000074E02EE00DE036E0E32ECC24C3940E948E
:10031000810D882349F500D089E692E0ADB7BEB7DC
:1003200012969C938E9311970E945F1983010F90F0
:100330000F908DE0A82EB12CA60CB71CF801808D73
:1003400060E070E00E9437040F5F1F4F0A151B0525
:10035000A9F78AE090E00E94711982E090E062E0E3
:1003600070E00E946F0B2EC00E94BC008DB79EB73C
:1003700008970FB6F8949EBF0FBE8DBFEDB7FEB7BE
:1003800031968E010F5F1F4FADB7BEB712961C930B
:100390000E93119782E892E0938382838482958200
:1003A000A682B7820E94AD19EDB7FEB736960FB69A
:1003B000F894FEBF0FBEEDBF128301830E945F1948
:1003C0000F900F9010921403109213033DC000D0B1
:1003D00088E992E0ADB7BEB712969C938E931197C1
:1003E0000E945F190F900F90F30182858E3239F4CD
:1003F0000E94BC0087EA92E00E94781925C000D0D4
:1004000086EC92E0ADB7BEB712969C938E9311978F
:100410000E945F198301EE240F900F9007C0F8012E
:10042000818560E070E00E943704E3940F5F1F4F06
:10043000EC14A8F38AE090E00E94711982E090E049
:1004400062E070E00E946F0BD20111968D919C9139
:1004500012970E94CA0BC150DF4F0FB6F894DEBF4F
:100460000FBECDBFCF91DF911F910F91EF90CF9035
:10047000BF90AF909F908F907F906F905F904F90C4
:1004800008952F923F924F925F926F927F928F9238
:100490009F92AF92BF92CF92DF92EF92FF920F9313
:1004A0001F93DF93CF9300D00F92CDB7DEB70E949A
:1004B000A716882311F00E94E0060E94680B80E0D6
:1004C00090E060E070E00E946F0B81E090E061E0FE
:1004D00070E00E946F0B82E090E061E070E00E94AB
:1004E0006F0B789482E00E94DC05882311F00E9453
:1004F000E00687E394E06BE174E00E9413190E9428
:10050000B10B80E090E00E94B60B892B19F4109299
:10051000120303C081E08093120380E090E00E9408
:100520001B0480911203882391F081E090E060E049
:1005300070E00E946F0B00D085ED92E0EDB7FEB742
:10054000928381830E945F190F900F9004C084EF03
:1005500092E00E9478190E94920E8AEB9BEA9B839C
:100560008A838E010E5F1F4F80E5B8010E94F5144B
:1005700081E090E09B838A8383E5B8010E94F514B3
:1005800084E1898380E0BE016F5F7F4F0E94F51494
:100590000E94E61880931D0486E493E09093E103A3
:1005A0008093E00386E00E94D71772EE872E73E0F7
:1005B000972E61E0A62EB12C58E0252E312C4CE070
:1005C000442E512C34E0632E712C0E945E070E9451
:1005D000D811809140038823C1F78091410388237B
:1005E000A1F78091150390911603019709F0FBC0C4
:1005F00080E090E00E94B60B892B39F780911203BE
:10060000882309F492C0A0EFB3E0E7E1F3E08DE0C6
:1006100001900D928150E1F7EDE0F4E020E1C22E6F
:100620001192CA94E9F798E0C92ECA940C2D10E0F3
:100630007101E01AF10A8DE094E0E80EF91E83E002
:10064000000F111F8A95E1F720916E0630916F0619
:100650004091700650917106609172067091730618
:1006600080917406909175060E94F817F701208317
:10067000CC20D9F6FEE2F0931A04F093E203A7EE41
:10068000B3E0EEE0F4E088E001900D928150E1F7F4
:100690001092EF0314E01150212F30E0C901B3E0B4
:1006A000880F991FBA95E1F7F201E21BF30BE35FA4
:1006B000FB4F40914203509143036091440370917A
:1006C00045036A017B0104C0F694E794D794C7946C
:1006D0008A95D2F7C082F301E21BF30BEE51FC4F77
:1006E000C0821123C1F64F5F5F4F6F4F7F4F409322
:1006F0004203509343036093440370934503409136
:1007000013035091140382EE93E06DE074E02EE049
:100710000DE0A6E0EA2ECC240E94810D1092140375
:1007200010921303F3E2FF2E0BC0A2EEB3E0E7E159
:10073000F3E08DE001900D928150E1F7EDE0FE2EA7
:100740004F2D50E088E990E0841B950B0091E00369
:100750001091E103080F191FC801B40150E00E9475
:100760000319F801B292A292B292A29232978AEB46
:100770009BEA918380830750104080911D04F8010B
:1007800080838F5F80931D0471E6C72E78E8D72E93
:10079000D292C2926BE0D62EFD0CF2928F01E091C4
:1007A000E003F091E10317830683CC24C394C09245
:1007B0004003CF0162E070E041E00E944C13C09220
:1007C000410380E040E45DE063E070E020E030E081
:1007D00009EB10E0EE24FF240E94EC0910921603AE
:1007E00010921503F2CE80E090E00E94B60B8130AB
:1007F000910509F0EACE9093160380931503E5CE98
:10080000DF93CF930F92CDB7DEB70E945E0782E0F1
:10081000BE016F5F7F4F41E00E94CA05813019F031
:100820002FEF3FEF03C08981282F30E0C9010F90DF
:10083000CF91DF9108950F931F93DF93CF930F9282
:10084000CDB7DEB78E010F5F1F4F02C00E945E075B
:1008500082E0B80141E00E94CA058823B9F389818A
:1008600090E00F90CF91DF911F910F9108950F931A
:100870001F93DF93CF930F92CDB7DEB789838E019D
:100880000F5F1F4F02C00E945E0782E0B80141E087
:100890000E94D3058823B9F380E090E00F90CF91B8
:1008A000DF911F910F9108955A9A529A5B9A539A29
:1008B0006A9825982098829855989A986E982498C6
:1008C0006F98269802C05A985A9A629BFCCF089556
:1008D000DC0180911E04882339F5909134048091C5
:1008E0003304981710F0875F01C08150891B282FAF
:1008F000681708F4262F80913704820F80933704FD
:10090000322F0DC0E92FF0E0E15EFB4F8C91808328
:10091000993011F490E001C09F5F3150119633235C
:1009200089F790933404622F862F0895DC0190910B
:100930003804992311F480E008959A3058F080919A
:100940003604809335048AE0809338046A3020F0BE
:100950009AE003C0961708F0962F40913804209132
:100960003504392F0CC0E22FF0E0E75DFB4F8081AA
:100970008C932F5F2A3009F420E0119631503323F5
:1009800091F7491B4093380420933504892F08952B
:10099000DF93CF9300D000D0CDB7DEB7629933C0DC
:1009A0002CB51CBC809138048F5F8093380420984C
:1009B000829855989A986E9824986F9826985A9885
:1009C000000000009091360483B181707A998260B2
:1009D0004D99846092998860669980611C998062C3
:1009E000679980641E998068E92FF0E0E75DFB4F0E
:1009F00080835A9A993019F41092360403C09F5F8D
:100A0000909336042CBD50913704552309F08CC0C7
:100A1000BAC01D9952C0442329F080E090E0A0E0C4
:100A2000B0E040E07CB51CBC209A829A559A9A9A14
:100A30006E9A249A6F9A269AE32FF0E0E15EFB4FBC
:100A4000E0812E2FE0FF02C0289A01C0289821FFE4
:100A500002C08A9A01C08A9822FF02C05D9A01C032
:100A60005D9823FF02C0A29A01C0A29824FF02C091
:100A7000769A01C0769825FF02C02C9A01C02C9866
:100A800026FF02C0779A01C07798E7FF02C02E9A2E
:100A900001C02E985B985B9A2098829855989A98F6
:100AA0006E9824986F982698393011F430E001C080
:100AB0003F5F7CBD6150515044C080933904909396
:100AC0003A04A0933B04B0933C0440931E0430933B
:100AD000330450933704442309F055C00097A1050F
:100AE000B10529F489E394E00E94BD074CC0CE0112
:100AF00001960E94BD0789819A81AB81BC812091BA
:100B0000390430913A0440913B0450913C04821BDB
:100B1000930BA40BB50B89589341A040B04098F1BA
:100B200081E080931E042FC08091390490913A0493
:100B3000A0913B04B0913C0440911E0430913304D9
:100B40006FEF552379F48093390490933A04A0937E
:100B50003B04B0933C0440931E0430933304109242
:100B6000370411C0662309F054CF80933904909361
:100B70003A04A0933B04B0933C0440931E0430938A
:100B80003304509337040F900F900F900F90CF9134
:100B9000DF910895823011F080E00895CB01642F39
:100BA0000E9496040895823011F080E00895CB01F0
:100BB000642F0E9468040895823011F085E808953A
:100BC0000E94540480E0089590933E0480933D0475
:100BD00008959093400480933F04089590934204B5
:100BE00080934104089590934404809343040895AE
:100BF0001F920F920FB60F920BB60F9211242F93E4
:100C00003F934F935F936F937F938F939F93AF9394
:100C1000BF93EF93FF93E0913D04F0913E0409955B
:100C2000FF91EF91BF91AF919F918F917F916F91C4
:100C30005F914F913F912F910F900BBE0F900FBE80
:100C40000F901F9018951F920F920FB60F920BB630
:100C50000F9211242F933F934F935F936F937F9342
:100C60008F939F93AF93BF93EF93FF93E0913F04D4
:100C7000F09140040995FF91EF91BF91AF919F9141
:100C80008F917F916F915F914F913F912F910F9035
:100C90000BBE0F900FBE0F901F9018951F920F92D2
:100CA0000FB60F920BB60F9211242F933F934F93D1
:100CB0005F936F937F938F939F93AF93BF93EF93C4
:100CC000FF93E0914104F09142040995FF91EF9167
:100CD000BF91AF919F918F917F916F915F914F9154
:100CE0003F912F910F900BBE0F900FBE0F901F9052
:100CF00018951F920F920FB60F920BB60F921124F8
:100D00002F933F934F935F936F937F938F939F9313
:100D1000AF93BF93EF93FF93E0914304F0914404AA
:100D20000995FF91EF91BF91AF919F918F917F9125
:100D30006F915F914F913F912F910F900BBE0F904C
:100D40000FBE0F901F9018951F920F920FB60F9223
:100D500011240F900FBE0F901F9018951F920F92A5
:100D60000FB60F9211240F900FBE0F901F90189581
:100D70001F920F920FB60F9211240F900FBE0F907B
:100D80001F9018951F920F920FB60F9211240F907B
:100D90000FBE0F901F9018951F920F920FB60F92D3
:100DA00011240F900FBE0F901F9018951F920F9255
:100DB0000FB60F9211240F900FBE0F901F90189531
:100DC000FF920F931F939D9A6B9A6C9AA59A739AB0
:100DD000749A80E2F82E08E010E18FEF9FEF0E94F6
:100DE000F30784B38F2584BB8EB180278EB98EB173
:100DF00081278EB9F2CFCF92DF92EF92FF920F93BD
:100E00001F93CF93DF937B018A016901892B11F036
:100E100088EE19C0CA01860F971F8150904110F0CB
:100E200085E811C0C0E0D0E00AC0CE018E0D9F1D44
:100E30000E94E41BF601EC0FFD1F80832196C01772
:100E4000D10798F380E0DF91CF911F910F91FF9030
:100E5000EF90DF90CF900895CF92DF92EF92FF92C4
:100E60000F931F93CF93DF938C017B016A01CB011A
:100E7000800F911F8150904110F085E816C0C0E0AE
:100E8000D0E00FC0C8010E94E41BF601EC0FFD1F6B
:100E90006081861719F0C8010E94EC1B0F5F1F4F7D
:100EA0002196CE15DF0570F380E0DF91CF911F9181
:100EB0000F91FF90EF90DF90CF9008950E94B609B8
:100EC0000E94C80408950E9472070E949307A89583
:100ED00088E10FB6F89480936000109260000FBE16
:100EE00080E008959FB7F894E0E0F0E089E0809317
:100EF000570084919FBF8F70823011F090E001C045
:100F00009FE080E80FB6F8948093610090936100B1
:100F10000FBE80E1809335018093340180933301CB
:100F20008093320108951092450410926C069FEF51
:100F300090934604909347049093480490936B06D3
:100F4000109268061092670680E28093B60088EAE5
:100F50008093DC008FE08093F4009093F3009093F3
:100F6000F2009093F10082E08093E000EFEDF0E07A
:100F700080818260808308950895FC018091DE0065
:100F800080FDFCCF2091E100822F2091E200922F82
:100F90002091E300A22F2091E400B22F24E0880FDB
:100FA000991FAA1FBB1F2A95D1F780839183A28323
:100FB000B3830895FC012091E900822F2091EA007B
:100FC000922F2091EB00A22F2091EC00B22F34E061
:100FD000880F991FAA1FBB1F3A95D1F78083918371
:100FE000A283B3830895AC018436910518F060E0C4
:100FF00070E01EC07FB7F89461E01AC057FD02C0D0
:101000009A0102C02FEF3FE7C901880F991F909501
:1010100081959F4F9093250180932401FABBE09323
:101020002101D09BFECF421B530B1092210102C025
:10103000F1E0E2E04115510509F761117FBF089524
:1010400020E090E0FC01B3E0EE0FFF1FBA95E1F75E
:10105000E80FF91FED59F94F84819581892B09F02B
:1010600021E0822F0895AF92BF92CF92DF92EF924C
:10107000FF920F931F938091460490E0FC0113E0D0
:10108000EE0FFF1F1A95E1F7E80FF91FED59F94F21
:10109000A080B180C280D38080914504882309F468
:1010A0006BC0D092F800C092F700B092F600A09208
:1010B000F5008091DF0080FD08C081E08093E000B2
:1010C0008091DF0081608093DF002091E100822F1A
:1010D0002091E200922F2091E300A22F2091E400C2
:1010E000B22F9C01AD012F5F3F4F4F4F5F4FDA0191
:1010F000C9018A259B25AC25BD2580709070A07004
:10110000B87F0097A105B10531F4A216B306C40655
:10111000D506C0F109C0D601C501B77057702817B0
:1011200039074A075B0770F180915D01883068F5E7
:10113000E0904904F0904A0400914B0410914C0453
:101140000894E11CF11C011D111DEA14FB040C059F
:101150001D05D9F48091E100282F8091E200382FFD
:101160008091E300482F8091E400582F2E153F0511
:101170004007510779F706C08091DF008E7F80938A
:10118000DF0003C081E080936C061F910F91FF90F8
:10119000EF90DF90CF90BF90AF9008951F931FB74F
:1011A000F89480916C06882309F44CC010926C0668
:1011B00030914504332309F445C0809147048F3FA3
:1011C00059F4809148048F3F39F48091460480930C
:1011D00048048093470412C020914604809148043B
:1011E00090E0FC0153E0EE0FFF1F5A95E1F7E80F86
:1011F000F91FED59F94F2087209348048091460448
:1012000090E0FC0143E0EE0FFF1F4A95E1F7E80F85
:10121000F91FED59F94F8085809346048091480469
:1012200090E0FC0123E0EE0FFF1F2A95E1F7E80FA5
:10123000F91FED59F94F8FEF8087315030934504F6
:101240000E9433081FBF1F9108950F931F93882397
:1012500011F08AE883C00FB7F8940E94CE0810916D
:101260004504112309F47DC040914604242F842FA6
:10127000312F2223F1F4442339F480916B068093BB
:1012800046040E9433080EC090E0FC01B3E0EE0F6C
:10129000FF1FBA95E1F7E80FF91FED59F94F80915B
:1012A0006B0680878FEF80936B0611501093450477
:1012B0004AC0822F90E0FC01A3E0EE0FFF1FAA9529
:1012C000E1F7E80FF91FED59F94F50853150822FA2
:1012D00009F447C0252FCDCF222319F520914804CA
:1012E000332359F4222321F48FEF8093480402C062
:1012F00080916B068093470426C0842F90E0FC0108
:1013000073E0EE0FFF1F7A95E1F7E80FF91FED5933
:10131000F94F80916B0680872223A9F440934804FB
:1013200012C0822F90E0FC0163E0EE0FFF1F6A9570
:10133000E1F7E80FF91FED59F94F422F20852F3FB4
:1013400059F680E005C0109268061092670681E0A9
:101350000FBF882311F489E801C080E01F910F912D
:10136000089530914704232F432FE9CF1F930E9404
:10137000CE081FEF25C06FB7F894822F90E0FC01D4
:1013800023E0EE0FFF1F2A95E1F7E80FF91FED5953
:10139000F94F208544815581868197811087158278
:1013A0001482178216822F3F09F43FEF6FBF411559
:1013B000510551F03093480420934704FA010995F0
:1013C00030914804209147042F3FA9F630934804F8
:1013D000209347041F9108952F923F924F925F925E
:1013E0006F927F928F929F92AF92BF92CF92DF9235
:1013F000EF92FF920F931F93CF93DF93E8011701B2
:10140000882311F08AE8F4C00115110509F4EDC034
:101410008091670690916806892B11F088E8E8C0F2
:1014200014E076956795579547951A95D1F721154C
:10143000310529F02130310509F0D7C026C0DB0184
:10144000CA010897A109B109885F9F4FAF4FB74004
:1014500008F0CDC02091E100822F2091E200922F70
:101460002091E300A22F2091E400B22F7A018B019A
:10147000E80EF91E0A1F1B1F8FEF9FEFAFEFBFE0B3
:10148000E822F9220A231B2320C02091E100822FA9
:101490002091E200922F2091E300A22F2091E400FE
:1014A000B22F8A019B01081B190B2A0B3B0BD90198
:1014B000C801BF700897A109B109885F9F4FAF4F5E
:1014C000B74008F094C07A018B014FB6F894BFEF93
:1014D0008B2EBFEF9B2EBFEFAB2EBFE0BB2E8E201F
:1014E0009F20A022B1220E94CE08709046042FEFC8
:1014F000721671F050904504D72CC72C66248FEFDC
:101500009FEFAFEFB7E0E822F9220A231B234FC079
:101510001092460470926B064EC09FEFD91609F4E4
:1015200041C06D2D70E0FB01A3E0EE0FFF1FAA95F7
:10153000E1F7E60FF71FED59F94F20813181428124
:101540005381D501C40182279327A427B527807032
:101550009070A070B87F0097A105B10539F42815E7
:1015600039054A055B0508F456C007C05770E216F6
:10157000F3060407150708F44EC0D0926B067D14DD
:1015800019F41092460417C08C2D90E0FC0153E032
:10159000EE0FFF1F5A95E1F7E80FF91FED59F94FCC
:1015A000108609C08FEFDC2C6394CD2CD82E6514E7
:1015B00008F4B3CF3CC08092630690926406A09278
:1015C0006506B0926606D0936806C09367063092AF
:1015D0006A0620926906809145048F5F80934504D6
:1015E0000E9433084FBE80E003C088EE01C08BE844
:1015F000DF91CF911F910F91FF90EF90DF90CF90EF
:10160000BF90AF909F908F907F906F905F904F9022
:101610003F902F900895FB0143E0EE0FFF1F4A9586
:10162000E1F7E60FF71FED59F94F8085BDCF8C2DFF
:1016300090E0FC0133E0EE0FFF1F3A95E1F7E80F71
:10164000F91FED59F94F10868FEF80936B06B3CFDA
:101650001F920F920FB60F9211242F933F938F93E7
:101660009F938091E1009091E2002091E3003091FE
:10167000E4008093490490934A0420934B043093F0
:101680004C0480914504882319F081E080936C0616
:101690009F918F913F912F910F900FBE0F901F90B0
:1016A00018951F920F920FB60F9211248F938FEF00
:1016B0008093E4008093E3008093E2008093E10054
:1016C0008F910F900FBE0F901F90189581E0089595
:1016D0009D9A6B9A6C9AA59A739A749A0895813020
:1016E0009105C9F08130910518F00297C9F526C01F
:1016F0006130710549F06130710520F0623071058B
:1017000079F504C0A5980895A59A089584B390E248
:10171000892784BB08956130710549F061307105F6
:1017200020F062307105E1F404C073980895739A53
:1017300008958EB198E089278EB9089561307105BA
:1017400049F06130710520F06230710549F404C040
:1017500074980895749A08958EB190E189278EB98E
:101760000895279857982F9A5F9A0895009729F01F
:10177000019729F021E030E00BC083B101C089B1AD
:10178000282F332727FD30952227330F221F332799
:10179000C9010895BC01009721F087E296E00E94FC
:1017A000FF0B089587E296E060E070E00E94940CE1
:1017B00008950F931F93CF93DF9387E296E00E94E3
:1017C000F80BCBE1D6E00DE414E01983088387E23F
:1017D00096E0BE010E94FF0B249606561F4F86E03E
:1017E000C732D80791F7DF91CF911F910F910895DC
:1017F000FC01118210821382128214820895CF9309
:10180000DF93DC01EB019FB7F89414968C91149749
:10181000882321F411967C936E9306C01296ED9165
:10182000FC911397738362831396DC93CE93129784
:101830001B821A8214968C9114978F5F14968C9346
:101840009FBFDF91CF9108959F92AF92BF92CF92A9
:10185000DF92EF92FF920F931F93CF93DF938C0150
:101860005B016A019FB6F894DC0114968C91882381
:1018700019F4C0E0D0E04AC0F801C081D18141151F
:101880005105B1F07E0111C0D60112966D917C9187
:101890001397ED91FC91888199810995882359F4DA
:1018A0007E018A819B819C01E901209769F72EC006
:1018B000209761F17E01AB2849F5F8018081918183
:1018C0002A813B81C817D90719F43183208305C0C9
:1018D000D70113963C932E931297F801828193813E
:1018E000C817D90711F4F382E282D80114968C91BB
:1018F0001497815014968C9314978D919C91119705
:10190000892B21F413961C921E9212979FBECE0132
:10191000DF91CF911F910F91FF90EF90DF90CF90CB
:10192000BF90AF909F900895AB0160E070E00E947F
:10193000240C0895AB0161E070E00E94240C08952E
:10194000CF93DF93EC010BC0CE0160E070E00E940A
:10195000940C009711F41C8205C00E94CA0B8C8164
:10196000882391F7DF91CF9108950895FC0190E0CD
:10197000819180933E019F5F9031D1F780912D0638
:10198000806880933C0180913D0180FFFCCF0895E9
:10199000FC0190E080913E0181939F5F9031D1F7EF
:1019A000089580914E068F3019F480E00E94B71799
:1019B000089580918D0680934E068F3011F40E9419
:1019C000A81780913403882319F0EEE3F6E002C0F3
:1019D000EEE2F6E090E0819180933F019F5F9031CD
:1019E000D1F780912D0680933C0108950F931F93AA
:1019F000DF93CF93CDB7DEB760970FB6F894DEBF15
:101A00000FBECDBFDC01162F042F0097F1F010920E
:101A10002C0682E0809334032EE236E0AD0180E1B3
:101A2000FA010190AF01F90101929F018150C1F7C4
:101A300020E030E0FD01E20FF31F808180933F0141
:101A40002F5F3F4F20313105A9F7002321F00130EE
:101A500009F047C00EC080913403813079F5EEE281
:101A6000F6E0819180933F0186E0EE33F807C9F7F5
:101A700025C0809134038130A1F180912C06882308
:101A8000A1F410922D0610923C01CE0101960E9405
:101A9000B60CEEE3F6E080913F01819386E0EE34F0
:101AA000F807C9F781E080932C06EEE3F6E0819118
:101AB00080933F0186E0EE34F807C9F700933403C2
:101AC000123078F4802F880F880F880F8870129555
:101AD000110F1072812B80932D0680933C0181E0C1
:101AE00001C080E060960FB6F894DEBF0FBECDBF98
:101AF000CF91DF911F910F91089581E080934F0660
:101B000008953F924F925F926F927F928F929F9231
:101B1000AF92BF92CF92DF92EF92FF920F931F93FB
:101B2000DF93CF93CDB7DEB762970FB6F894DEBFE1
:101B30000FBECDBF4C015B013A01322ED02EFE2CE0
:101B400080914F06882321F00E94D90C10924F06F5
:101B50004F2D50E09A01237030702115310511F49A
:101B6000EE240AC02F5F3F4F81E090E002C0880F53
:101B7000991F2A95E2F7E82E487F452BA1F481149E
:101B8000910489F0A114B10471F0432C5524820111
:101B90000D0D111D8E2D90E09A8B898B800F911F5A
:101BA0008038910520F00E94D10C81E0A3C0809183
:101BB0003503882339F06114710409F50E94D10CB2
:101BC00082E098C061147104D1F040E130E04150EE
:101BD000E42FF0E0D301AE0FBF1FE05BF94F8C9113
:101BE0002081822790E0232F30E0822B932B30E05E
:101BF000892B09F031E0442351F73093350380916C
:101C00003503882379F0C30160E040E00E94F60CC0
:101C1000A0E5B6E0F30180E101900D928150E1F77B
:101C20001092350381E0F5018083EE2061F08E2D66
:101C300090E002979595879523E0880F991F2A9544
:101C4000E1F781608083332021F0F5018081806499
:101C5000808384E0782E7F20F50160801686CC207A
:101C6000D1F4EE2051F0D786080D191DC401B8013A
:101C7000A501232D0D2D0E947B0F7720C1F181E05E
:101C8000F5018083C401840D951DB5014E2D2D2DC8
:101C90000E94950E2CC0772059F081E0F5018083D9
:101CA000C401840D951DB5014E2D2D2D0E94950E5C
:101CB000EE20E9F0F5016082D786C4017E01089428
:101CC000E11CF11CB701A501232D0D2D0E947B0FF6
:101CD000832D90E08D0D911D880D991DB7014989C7
:101CE0005A890E94F618009711F083E003C00E9401
:101CF000D10C80E062960FB6F894DEBF0FBECDBF68
:101D0000CF91DF911F910F91FF90EF90DF90CF90D7
:101D1000BF90AF909F908F907F906F905F904F900B
:101D20003F9008950E94B50C08954F925F926F9274
:101D30007F928F929F92AF92BF92CF92DF92EF925B
:101D4000FF920F931F93DF93CF93CDB7DEB76097CA
:101D50000FB6F894DEBF0FBECDBF5C016B01642EE1
:101D6000122F80E090E060E040E00E94F60C7724C3
:101D7000EE24FF24412E55244E010894811C911C11
:101D800025C07394D6011F967C92C6010E94B60CA2
:101D9000C4010E94C80CC8010131110514F080E192
:101DA00090E0D501F401282F30E0A401420F531F29
:101DB00004C08C91919189278D93E417F507C9F799
:101DC000A20EB31EE0EFFFEFEE0EFF1E8701040D23
:101DD000151D10161106ACF26620E9F0D6011F960B
:101DE0001C92C6010E94B60C8E010F5F1F4FC801E6
:101DF0000E94C80C20E030E00CC0F801E20FF31F95
:101E0000D5018C9190818927F50181935F012F5F26
:101E10003F4F621691F760960FB6F894DEBF0FBE83
:101E2000CDBFCF91DF911F910F91FF90EF90DF9089
:101E3000CF90BF90AF909F908F907F906F905F906A
:101E40004F900895CF92DF92EF92FF920F931F93DE
:101E5000DF93CF93CDB7DEB760970FB6F894DEBFB0
:101E60000FBECDBF6C01F62E8C01E62E07C0C80157
:101E70000E94B60C005F1F4F80EFE80E8FE08E15BA
:101E8000B0F30F2D0F70F2949FE0F9222F2D30E068
:101E900084E0220F331F8A95E1F72C0D3D1D0023AE
:101EA000D9F010E07E010894E11CF11CC701B901D2
:101EB000402F50E00E940319E0E1F0E0E01BF10B3D
:101EC0009701200F311FC90160E070E0AF010E944F
:101ED0000C19C7010E94B60C60960FB6F894DEBFCD
:101EE0000FBECDBFCF91DF911F910F91FF90EF906B
:101EF000DF90CF9008959F92AF92BF92CF92DF92E2
:101F0000EF92FF920F931F93DF93CF93CDB7DEB77E
:101F100060970FB6F894DEBF0FBECDBF6C015B01BA
:101F20007A01122F902EFA01078780E090E060E09E
:101F300040E00E94F60CC7010E94B60C80E090E0E1
:101F400061E040E00E94F60C112301F1012F1F30E7
:101F500008F00EE019821A83E02EFF249E012D5F07
:101F60003F4FC901B601402F50E00E940319602F76
:101F70006E5FCE0101960E94220F011738F4612F87
:101F8000601BC6018E0D9F1D0E94220FC601810F8E
:101F9000911D692D0E94220FC5010E94C80C6096F8
:101FA0000FB6F894DEBF0FBECDBFCF91DF911F916A
:101FB0000F91FF90EF90DF90CF90BF90AF909F90E8
:101FC0000895809141018F718830F1F481E0809310
:101FD0004F0189E08093420180914F0180FD14C040
:101FE0008EE690E00E94F30780914F0180FD0CC0C7
:101FF0008EE690E00E94F30780914F0180FD04C0BF
:102000008EE690E00E94F30708951F93182F8091A9
:102010008D068F30D1F49FB7F89478948091390170
:102020008D7F80933901809196068823E1F39FBFCD
:102030001092960680914F018CE480934E011830E7
:1020400011F0133011F488E0AFC1809141018F711C
:1020500080938D06183009F44BC0193050F41430B9
:1020600009F493C0163009F49BC0133009F097C1EE
:1020700055C01F3069F0103120F4193009F08FC1BC
:1020800063C0163109F4C2C0193109F088C122C1F8
:1020900083E0809342010E94E61880936D01809155
:1020A0006E019770887F982B90936E0180914F01FD
:1020B00080E880934E010000000000000000000056
:1020C0000000000000000000000000000000000010
:1020D0000000000000008091390182608093390186
:1020E00083E290E00E94F30710938D068FE05EC1BB
:1020F000883009F454C11093420100000000000030
:1021000000000000000000000000000000000000CF
:102110000000000000000000000041C1883009F408
:102120003EC11093420100000000000000000000CA
:10213000000000000000000000000000000000009F
:102140000000000000002BC1883021F1893020F40C
:10215000863009F024C105C0863119F0893109F0B3
:102160001EC189E0809342010000000000000000D1
:10217000000000000000000000000000000000005F
:1021800000000000000000000AC1883019F089300A
:1021900021F405C10E94E10F02C110934201FFC06A
:1021A000893059F08A3020F4883009F0F8C019C01D
:1021B000863119F0893109F0F2C086E0809342013E
:1021C000000000000000000000000000000000000F
:1021D00000000000000000000000000000000000FF
:1021E000DEC00E94E10F10934201000000000000D9
:1021F00000000000000000000000000000000000DF
:1022000000000000000000000000C9C08830F9F0A4
:10221000893020F4863009F0C2C02EC0893019F010
:10222000893109F0BCC086E18093420100000000C2
:10223000000000000000000000000000000000009E
:10224000000000000000000000000000A8C00E9484
:10225000E10F1093420100000000000000000000A8
:10226000000000000000000000000000000000006E
:1022700000000000000093C089E08093420100004C
:10228000000000000000000000000000000000004E
:10229000000000000000000000000000000080912D
:1022A00041018F7180938D06893009F07FC01093B2
:1022B00042010000000000000000000000000000DB
:1022C000000000000000000000000000000000000E
:1022D000000065C0883009F44EC0893020F4863093
:1022E00009F05DC019C0893021F0863109F057C06E
:1022F00013C0109342010000000000000000000025
:1023000000000000000000000000000000000000CD
:1023100000000000000043C089E0809342010000FB
:1023200000000000000000000000000000000000AD
:10233000000000000000000000000000000080918C
:1023400041018F7180938D06893009F02FC089E19A
:102350008093420100000000000000000000000027
:10236000000000000000000000000000000000006D
:102370000000000014C00E94E10F10934201000011
:10238000000000000000000000000000000000004D
:10239000000000000000000000000000000080912C
:1023A00041018F718F31D9F380938D061F9108956C
:1023B00080917E068823E1F0809197068823C1F4FE
:1023C0008091600690916106892B39F48AE90E9418
:1023D000D20B909361068093600680916006909185
:1023E0006106892B29F010927E0686E10E94051075
:1023F00080918306882351F08FE796E060E070E0DB
:102400000E94940C009711F00E940D128091970683
:10241000823011F40E9465130895EF92FF920F939A
:102420001F93CF93DF937C01DC010D911C91D801A8
:102430001696ED91FC911797808180938F06C82F97
:10244000D0E02196CE0FDF1F988129812D3310F027
:102450002CE303C0222309F421E0929596959695EA
:1024600093708FEF989FC001112430E0FC01E29F30
:10247000C001E39F900DF29F900D112464EB70E07A
:102480000E9477186F3F710511F008F06FEF6883B5
:10249000D8011296FC92EE921197C8010E94FB009F
:1024A000DF91CF911F910F91FF90EF900895CF9200
:1024B000DF92EF92FF920F931F93CF93DF93E09100
:1024C0006006F0916106309709F449C0C081D1815E
:1024D000C0904701D0907B01D7FC41C082E0D80E6C
:1024E0000AE910E00D191109EEEFDE0E0C0F1D1FA9
:1024F000ED2CFF2497012F5F3F4FC80160E871E08A
:10250000A9010E940319F801D292FF83EE83EE0E17
:10251000FF1EF701C28280914C018F7780934C019E
:1025200080914C01806880934C01609160067091AD
:1025300061068FE796E00E94FF0B8AE90E94D20BAA
:102540009093610680936006892B31F489E00E94A4
:10255000051081E080937E0680E480934F01DF9137
:10256000CF911F910F91FF90EF90DF90CF90089542
:102570001F93109197061130C9F480914201829502
:10258000869587708093620682E08093970680919B
:10259000600690916106892B31F489E00E94051054
:1025A00010937E0603C086E10E9405101F910895D6
:1025B0000F931F93CF93DF93EC018B01442349F0DA
:1025C00090916C0180918C068295807F9F70892B01
:1025D00003C080916C018F7080936C0102301105F3
:1025E00098F4442369F090916C0180918406880FDF
:1025F0008E70917F892B80936C0110926F0117C0B0
:1026000080916C018E6011C0809188068295807FD8
:1026100090918B06892B80936F0190916C01809132
:102620008406880F8E70917F892B80936C0189E1DD
:102630000E9405108931D9F70130110551F48091BC
:102640008F06833118F080E492E005C080E890E0C6
:1026500002C089E090E00E94F3071FB7F8948091D0
:102660003901826080933901809139018D7F809397
:102670003901288130E02150304080E891E0BE01EE
:10268000A9010E94031981E0809397061FBFDF9183
:10269000CF911F910F910895FC0180919706882397
:1026A00011F086E80895F0938A06E0938906868102
:1026B00097819093910680939006009711F488EE8D
:1026C00008950E94D81280E0089510929706809194
:1026D00062068330B1F0843028F4882331F08130F1
:1026E000E1F409C08530C9F412C060918906709187
:1026F0008A0680E017C06091890670918A0687E893
:1027000011C06091890670918A0681EE0BC06091BC
:10271000890670918A0689EE05C0609189067091DC
:102720008A0685E80E94E2000895FB01873009F4DB
:102730005EC0883090F4833009F44CC0843030F4AB
:102740008130C1F1823008F042C031C0853009F4D7
:1027500047C0863008F04EC040C08035F1F081356A
:1027600038F48E34A1F08F34A8F48B3071F466C045
:10277000873509F442C0883518F4833531F412C026
:102780008935F1F1803F09F43FC084EF08958091CD
:10279000840638C080918B0635C08091790690916F
:1027A0007A0622C080917C0690917D061DC08091A2
:1027B000860628C08091920690919306A091940677
:1027C000B091950680839183A283B38335C08091B5
:1027D0006D0618C080917B0615C08091780612C0E6
:1027E00080917606909177069183808325C08091B1
:1027F000850608C080918E0605C08091880602C0BB
:1028000080918C06808318C080916E0680838091B1
:102810006F06818380917006828380917106838325
:1028200080917206848380917306858380917406FB
:10283000868380917506878380E00895809187065E
:10284000808380E00895282F85FD03C0982F9F7313
:1028500004C0982F91959F719195E0E2F1E08491E9
:10286000891734F03F968491981714F0822F0CC08A
:10287000803E3CF080323CF487FF06C08F7180625E
:1028800003C080E201C08FE18068089584E08093F6
:10289000840623E020938B068FEF9FEF90937A06B8
:1028A0008093790690937D0680937C068BE08093DD
:1028B00086061092780680E098EFAFEFB7E080933D
:1028C000920690939306A0939406B09395068AE09F
:1028D00091E090937706809376068AE080938E0647
:1028E00082E08093850685E08093880620938C069D
:1028F00083E80E94231480936D0681E080937B0619
:1029000010928706089585FD03C0982F9F7304C019
:10291000982F91959F719195E0E2F1E080E02491EC
:10292000921724F029173CF4815008958F5F319657
:102930008031A9F780E008958091790690917A0618
:102940008093620190936301EEE6F6E0A4E6B1E0C5
:1029500081918D9386E0E637F807D1F780917C0668
:1029600090917D0680936001909361019091480160
:1029700080917B068295880F80769F79892B809342
:10298000480190916F0180918B068F70907F892B09
:1029900080936F0190916E0180918706880F880F58
:1029A000880F8870977F892B80936E0190916F01BB
:1029B000809188068295807F9F70892B80936F011C
:1029C00090914801809186068F71907E892B80932B
:1029D000480180916D060E948314909145018F708B
:1029E000907F892B809345010895CF93DF93EB016E
:1029F0008E3431F0893541F4888180938C06F6C09D
:102A0000888180938406F2C020918D062F3011F4C6
:102A100081E8EDC08B3009F4D7C08C3078F4823077
:102A200009F491C0833020F4882309F441C015C013
:102A3000833009F499C0843081F469C0833569F129
:102A4000843528F48F3459F0803539F41BC087352C
:102A500009F467C0803F09F494C084EFC8C088813E
:102A600080938B0620918806281710F420938B06FC
:102A700090916F0180918B068F70907F892B80934E
:102A80006F01B4C0888199818093790690937A060A
:102A90008093620190936301A9C08881998180939A
:102AA0007C0690937D0680936001909361019EC0A7
:102AB00080919706882309F095C080E098EFAFEFEA
:102AC000B7E0088004C0B695A795979587950A94B6
:102AD000D2F781709070892B09F486C0283031F0CC
:102AE00088E00E9405108830D9F726E198819093FC
:102AF0008606809148019F71807E982B90934801B3
:102B0000283009F473C086E10E9405106FC08091DF
:102B10009706882309F066C08881882309F466C077
:102B200063C068816093880680918B06681710F4F3
:102B300060938B0680916F016295607F8F70682B28
:102B400060936F0153C0888180936D060E942314A7
:102B500080936D060E948314909145018F70907F41
:102B6000892B8093450142C0888180937B06909198
:102B700048018295880F80769F79892B8093480140
:102B800035C0888180936E06898180936F068A8123
:102B9000809370068B81809371068C81809372067E
:102BA0008D81809373068E81809374068F818093CC
:102BB0007506EEE6F6E0A4E6B1E081918D9386E03D
:102BC000E637F807D1F712C0888180938706909185
:102BD0006E01880F880F880F8870977F892B8093EC
:102BE0006E0104C086E803C088EE01C080E0DF917A
:102BF000CF9108950F931F93CF93DF93082F809168
:102C000039018D7F8093390180EF90E00E94F307B6
:102C1000809139018E7F8093390181E090E00E949C
:102C2000F3078091390181608093390110E084E6D7
:102C300090E00E94F307809141011A3011F485E879
:102C40004DC08F71883011F01F5FF1CF80938D06DA
:102C500080916E01806280936E0180914C0180684A
:102C600080934C018CE480934E0186E00E94051015
:102C700010924E01C0E0D0E010E080914601CC0FF0
:102C8000DD1FCC0FDD1F90E08076907025E09695DB
:102C900087952A95E1F7C82BD92B1F5F183069F764
:102CA00083E00E94051080914F0110934F0180E452
:102CB00080934F0180E880934F018CE480934E0114
:102CC000CE010E94EB18002311F00E9446140E94CE
:102CD0009C141092970610927E0680E0DF91CF91AF
:102CE0001F910F9108950E94FA15882361F085E8DD
:102CF00008958FE796E060E070E00E94940C0097E2
:102D000011F00E94CA0B80918306882391F788E016
:102D100080934F0180E480934F0184E080934F01C2
:102D200080E880934F010E94E61880936D018091A6
:102D30006E019770887F982B90936E0180E00E94BF
:102D4000B7170E94A8170E947D0D80E008950F9389
:102D50001F93CF93DF930E946307882309F0CDC0B0
:102D600080913901816080933901809139018D7F93
:102D7000809339018CE791E00E94F307809139013B
:102D80008E7F8093390181E090E00E94F30780916B
:102D9000390181608093390110E084E690E00E945F
:102DA000F307809141011A3009F4A7C08F71883070
:102DB00011F01F5FF2CF80938D0680915C01833804
:102DC00009F09BC0A0C0CEE6D6E00E94E618899329
:102DD00086E0C637D807C9F780916E0630916F0636
:102DE000409170066091710670917206F0917306C1
:102DF000B091740650917506082F015091E00817A4
:102E000008F090E0832F815021E0831708F020E044
:102E1000192F180F91E0181708F090E0292B842F34
:102E2000815031E0841708F030E0A22FA80F91E024
:102E3000A81708F090E0392B862F815021E08617E3
:102E400008F020E0E32FE80F91E0E81708F090E0A9
:102E5000292B872F815031E0871708F030E0622F4F
:102E6000680F91E0681708F090E0392B8F2F8150A0
:102E700021E08F1708F020E0432F480F91E048171A
:102E800008F090E0292B8B2F815091E08B1708F0F0
:102E900090E0322F380F21E0381708F020E0922B15
:102EA0005195591779F43F3F69F44F3F59F46F3FFB
:102EB00049F4EF3F39F4AF3F29F41F3F19F40E3FB7
:102EC00008F081CF80EA97E10E94E90588E997E15F
:102ED0000E94E40584E997E10E94F3050E94D90B62
:102EE0008AE90E94D20B90936106809360068FE777
:102EF00096E00E94F80B80E001C085E8DF91CF9159
:102F00001F910F91089580E090E060E070E048E04C
:102F100050E02EE636E00E94FB0681E00E94FA15A2
:102F2000882309F459CFE9CF81E08093960608956C
:102F30001F931FB7F8940E94B8121FBF1F910895E6
:102F40001F931FB7F8940E9457121FBF1F91089537
:102F500080918D068F3011F082E8089588E00E94FC
:102F60000510883011F085E8089580E008958823E1
:102F700011F088EE089580918D068F3011F481E86C
:102F8000089580919706882381F410927E0688E048
:102F90000E9405108830D9F78FE00E9405108F300D
:102FA00021F40E947D0D80E0089586E80895982F11
:102FB00080919706882311F086E80895983039F4B7
:102FC00088E00E94051010927E0688E008958091A6
:102FD000600690916106892B29F086E10E94051018
:102FE00086E0089581E080937E0686E00895089546
:102FF000EF92FF920F93DF93CF93CDB7DEB7609739
:103000000FB6F894DEBF0FBECDBFA82F002309F482
:1030100061C07E010894E11CF11C88E0F701119267
:103020008A95E9F729833A834B835C836D837E839A
:10303000AF83988780E2801BE82FFF27E7FDF0959C
:103040004D815E816F817885181684F01D861E86FD
:103050001F86188A882799278E1B9F0B04C0769598
:103060006795579547958A95D2F728C0202F332723
:1030700027FD3095DB01CA01022E04C0B695A79545
:10308000979587950A94D2F78D879E87AF87B88BDF
:1030900004C0440F551F661F771FEA95D2F7898138
:1030A0009A81AB81BC8104C0B695A7959795879509
:1030B0002A95D2F7482B592B6A2B7B2B49875A87A5
:1030C0006B877C8729853A854B855C856D857E85F8
:1030D000AF8598898A2F60960FB6F894DEBF0FBE31
:1030E000CDBFCF91DF910F91FF90EF900895AA1B74
:1030F000BB1B51E107C0AA1FBB1FA617B70710F0E3
:10310000A61BB70B881F991F5A95A9F78095909514
:10311000BC01CD010895AF92BF92CF92DF92EF92A2
:10312000FF920F931F93CF93DF93EC01A880B98098
:10313000CA80DB80A114B104C104D10441F484E24B
:10314000A82E89EDB82E8BE5C82E87E0D82EC601B3
:10315000B5012DE133EF41E050E00E94DA1D27EA8E
:1031600031E440E050E00E94BB1D7B018C01C601B0
:10317000B5012DE133EF41E050E00E94DA1DCA01B4
:10318000B9012CEE34EF4FEF5FEF0E94BB1D6E0DC7
:103190007F1D801F911F97FF04C0615070408040C9
:1031A0009048688379838A839B839B013F77C90119
:1031B000DF91CF911F910F91FF90EF90DF90CF9013
:1031C000BF90AF9008950E948B18089586E393E016
:1031D0000E948B180895A0E0B0E08093360390938E
:1031E0003703A0933803B09339030895FB01DC0142
:1031F00004C08D910190801921F441505040C8F7CE
:10320000881B990B0895FB01DC0102C001900D920F
:1032100041505040D8F70895DC0101C06D934150F2
:103220005040E0F708950F931F93CF93DF938C01E5
:10323000EB01009731F46115710519F420E030E0DD
:1032400038C081E090E06EE070E00E94FA1BFC0163
:103250009C01009771F180E88383209771F0D387F8
:10326000C28781E883838091980690919906892B83
:1032700021F4F0939906E093980601151105C9F021
:103280001187008783818260838380919A06909161
:103290009B06892B71F4F0939B06E0939A0680912C
:1032A0009C0690919D06892B21F4F0939D06E09356
:1032B0009C06C901DF91CF911F910F910895DF9373
:1032C000CF93CDB7DEB7FE013596619171918091B4
:1032D0009A0690919B06AF010E94DE19CF91DF9173
:1032E000089560919A0670919B060E94311D089581
:1032F0000F931F93CF93DF938C01E0919A06F09187
:103300009B06838181FF21C0C0E0D0E00DC0E09129
:103310009A06F0919B0620853185BF01F901099538
:10332000892B11F0CFEFDFEFF80181918F01882316
:1033300071F7E0919A06F0919B06208531858AE02D
:10334000BF01F9010995892B11F0CFEFDFEFCE0115
:10335000DF91CF911F910F9108950F931F93DF93EA
:10336000CF93CDB7DEB72E970FB6F894DEBF0FBE62
:10337000CDBF0D891E8986E08C831A8309838FEF68
:103380009FE79E838D839E01275E3F4FCE0101966E
:103390006F89788DA9010E94DE192F813885020F6F
:1033A000131FF80110822E960FB6F894DEBF0FBEE1
:1033B000CDBFCF91DF911F910F9108952F923F9232
:1033C0004F925F926F927F928F929F92AF92BF9235
:1033D000CF92DF92EF92FF920F931F93DF93CF93E1
:1033E000CDB7DEB72B970FB6F894DEBF0FBECDBFBB
:1033F0003C012B015A01FC0117821682838181FD59
:1034000003C06FEF7FEFC6C19AE0892E1E010894BA
:10341000211C311CF3012381F20123FD859123FF3F
:1034200081912F01882309F4B2C1853239F423FD3B
:10343000859123FF81912F01853229F490E0B3011A
:103440000E94311DE7CF982FFF24EE249924FFE13D
:10345000FF15D0F09B3269F09C3228F4903259F07D
:10346000933291F40EC09D3249F0903369F441E0FB
:1034700024C052E0F52A84E0F82A28C098E0F92A0E
:1034800025C0E0E1FE2A22C0F7FC29C0892F805325
:103490008A3070F4F6FE05C0989C902C1124980E8A
:1034A00015C0E89CE02C1124E80EF0E2FF2A0EC0C3
:1034B0009E3229F4F6FC6BC140E4F42A07C09C3626
:1034C00019F450E8F52A02C0983649F4F20123FDB8
:1034D000959123FF91912F01992309F0B8CF892F5E
:1034E0008554833018F08052833038F444E050E043
:1034F000A40EB51E5FE359830FC0933631F09337A6
:1035000079F0933509F056C020C0F5018081898398
:1035100042E050E0A40EB51E610101E010E012C0CF
:10352000F501C080D180F6FC03C06FEF7FEF02C0D1
:10353000692D70E042E050E0A40EB51EC6010E9465
:10354000261D8C015FE7F52214C0F501C080D180F3
:10355000F6FC03C06FEF7FEF02C0692D70E042E020
:1035600050E0A40EB51EC6010E941B1D8C0150E840
:10357000F52AF3FE07C01AC080E290E0B3010E9472
:10358000311DEA948E2D90E008171907A8F30EC09C
:10359000F601F7FC8591F7FE81916F0190E0B30190
:1035A0000E94311DE110EA940150104001151105EF
:1035B00079F7EAC0943611F0993669F5F7FE08C03C
:1035C000F501208131814281538184E090E00AC07D
:1035D000F501808191819C01442737FD4095542F4E
:1035E00082E090E0A80EB91E9FE6F92257FF09C0BD
:1035F00050954095309521953F4F4F4F5F4FE0E8F4
:10360000FE2ACA01B901A1012AE030E00E945D1D35
:10361000D82ED21840C0953729F41F2D1F7E2AE0DE
:1036200030E01DC01F2D197F9F3661F0903720F4C8
:10363000983509F0ACC00FC0903739F0983709F0D1
:10364000A6C004C028E030E00AC0106114FD146078
:1036500020E130E004C014FD166020E132E017FFE5
:1036600008C0F501608171818281938144E050E05E
:1036700008C0F50180819181BC0180E090E042E0CA
:1036800050E0A40EB51EA1010E945D1DD82ED218D7
:103690008FE7F82EF122F6FE0BC05EEFF522D9146B
:1036A00038F4F4FE07C0F2FC05C08FEEF82202C029
:1036B0001D2D01C0192DF4FE0DC0FE01ED0DF11DF3
:1036C0008081803319F499EEF92208C01F5FF2FE61
:1036D00005C003C08F2D867809F01F5F0F2DF3FC06
:1036E00014C0F0FE0FC01E1510F09D2C0BC09D2CB9
:1036F0009E0C911A1E2D06C080E290E0B3010E943C
:10370000311D1F5F1E15C0F304C01E1510F4E11A11
:1037100001C0EE2404FF0FC080E390E0B3010E94DB
:10372000311D02FF1DC001FD03C088E790E00EC0FF
:1037300088E590E00BC0802F867891F001FF02C0F1
:103740008BE201C080E2F7FC8DE290E0B3010E94C1
:10375000311D06C080E390E0B3010E94311D9A94B0
:10376000D914C0F3DA94F101ED0DF11D808190E0E0
:10377000B3010E94311DDD20A9F706C080E290E070
:10378000B3010E94311DEA94EE20C1F743CEF3014C
:1037900066817781CB012B960FB6F894DEBF0FBE02
:1037A000CDBFCF91DF911F910F91FF90EF90DF90F0
:1037B000CF90BF90AF909F908F907F906F905F90D1
:1037C0004F903F902F900895F999FECF92BD81BD03
:1037D000F89A992780B50895262FF999FECF1FBA38
:1037E00092BD81BD20BD0FB6F894FA9AF99A0FBE2A
:1037F000019608950F931F93CF93DF93689F8001E5
:10380000699F100D789F100D1124C8010E94161C8D
:10381000EC01009729F060E070E0A8010E940C190B
:10382000CE01DF91CF911F910F910895CF93DF9338
:10383000BC018230910510F462E070E0A091A00616
:10384000B091A106ED01E0E0F0E040E050E021C0E1
:10385000888199818617970769F48A819B813097BF
:1038600019F09383828304C09093A1068093A006ED
:10387000FE0134C06817790738F44115510519F075
:103880008417950708F4AC01FE018A819B819C0195
:10389000E9012097E9F641155105A9F1CA01861BF6
:1038A000970B049708F4BA01E0E0F0E02AC08D918C
:1038B0009C91119784179507F9F46417750781F4A3
:1038C00012968D919C911397309719F09383828370
:1038D00004C09093A1068093A006FD0132964FC0CC
:1038E000CA01861B970BFD01E80FF91F61937193C5
:1038F00002978D939C9343C0FD01828193819C012B
:10390000D9011097A1F680919E0690919F06892B70
:1039100041F480913C0390913D0390939F068093E6
:103920009E0640913E0350913F034115510541F4DD
:103930004DB75EB780913A0390913B03481B590BFA
:1039400020919E0630919F0624173507B0F4CA01D6
:10395000821B930B8617970780F0AB014E5F5F4F7A
:103960008417950750F0420F531F50939F064093C2
:103970009E06F9016193719302C0E0E0F0E0CF018F
:10398000DF91CF910895CF93DF93009709F450C052
:10399000EC0122971B821A82A091A006B091A10689
:1039A000109709F140E050E0AC17BD0708F1BB8368
:1039B000AA83FE0121913191E20FF31FAE17BF07D9
:1039C00079F48D919C911197280F391F2E5F3F4FED
:1039D0003983288312968D919C9113979B838A83B8
:1039E0004115510571F4D093A106C093A00620C0E3
:1039F00012968D919C911397AD01009711F0DC0107
:103A0000D3CFFA01D383C28321913191E20FF31F07
:103A1000CE17DF0769F488819981280F391F2E5F3F
:103A20003F4FFA01318320838A819B819383828374
:103A3000DF91CF910895FC01059061507040011015
:103A4000D8F7809590958E0F9F1F0895FC016150C7
:103A5000704001900110D8F7809590958E0F9F1FB0
:103A600008950F931F93CF93DF938C01EB018B810C
:103A700081FF1BC082FF0DC02E813F818C819D8103
:103A80002817390764F4E881F9810193F983E88301
:103A900006C0E885F985802F0995892B31F48E8140
:103AA0009F8101969F838E8302C00FEF1FEFC80195
:103AB000DF91CF911F910F910895FA01AA27283025
:103AC00051F1203181F1E8946F936E7F6E5F7F4FEB
:103AD0008F4F9F4FAF4FB1E03ED0B4E03CD0670F67
:103AE000781F891F9A1FA11D680F791F8A1F911DBA
:103AF000A11D6A0F711D811D911DA11D20D009F40A
:103B000068943F912AE0269F11243019305D31934B
:103B1000DEF6CF010895462F4770405D4193B3E034
:103B20000FD0C9F7F6CF462F4F70405D4A3318F0DB
:103B3000495D31FD4052419302D0A9F7EACFB4E08C
:103B4000A6959795879577956795BA95C9F7009744
:103B50006105710508959B01AC010A2E06945795E5
:103B6000479537952795BA95C9F7620F731F841F3C
:103B7000951FA01D0895629FD001739FF001829F41
:103B8000E00DF11D649FE00DF11D929FF00D839FEC
:103B9000F00D749FF00D659FF00D9927729FB00D89
:103BA000E11DF91F639FB00DE11DF91FBD01CF019C
:103BB0001124089597FB092E05260ED057FD04D039
:103BC00014D00AD0001C38F45095409530952195BA
:103BD0003F4F4F4F5F4F0895F6F790958095709542
:103BE00061957F4F8F4F9F4F0895A1E21A2EAA1B18
:103BF000BB1BFD010DC0AA1FBB1FEE1FFF1FA2179D
:103C0000B307E407F50720F0A21BB30BE40BF50B99
:103C1000661F771F881F991F1A9469F76095709522
:103C2000809590959B01AC01BD01CF010895F8945A
:023C3000FFCFC4
:103C32005365637572697479206F6E3A20547820E7
:103C420073656375726564206F6B0053656375728B
:103C5200697479206F66663A20547820706C6169C5
:103C62006E74657874206F6B005365637572697446
:103C720079206F6E3A2000527820756E6B6E6F77E6
:103C82006E206672616D6520776974686F75742045
:103C92007365637572697479005278207365637510
:103CA2007265642C20646563727970797465643A14
:103CB20020004672616D6520256C753A204D49439E
:103CC2002077726F6E670A00536563757269747943
:103CD200206F66663A2000527820756E6B6E6F77A1
:103CE2006E206672616D6520776974682073656302
:103CF200757269747900527820706C61696E7465AE
:103D020078743A2000417070207374617274656433
:103D12002077697468207365637572697479206F9E
:103D22006E0A0D00417070207374617274656420B4
:103D320077697468207365637572697479206F6638
:103D420066000124030100546F67676C65206C698B
:103D520067687421A1A3A5A73C5E70B2015293C407
:103D6200844820100201010000002000A206000089
:00000001FF
