:020000021000EC
:10F0000011241FBECFEFD1E4DEBFCDBF12E0A0E0E0
:10F01000B2E0E2E4FBEF01E00BBF02C007900D920B
:10F02000A032B107D9F712E0A0E2B2E001C01D9210
:10F03000AE3AB107E1F70E9410FB0E945BF80E9414
:10F040006CF881E090E008953BB740E10C9439F80A
:10F050003BB70B0144270C9439F83BB78BBFCB016E
:10F0600042E00C9439F83BB78BBFCB0144E00C94E1
:10F0700039F8FC01416040935700E89511243BBFEB
:10F0800008959BB78BBFFB0186919BBF089580E0DD
:10F0900090E08093B2005091B6005B71E1F7019669
:10F0A0005091B2005456DAF30895869586958A9564
:10F0B0008823E9F708950E948BF9882339F084E0CA
:10F0C00090E060E072E00E9429FA08950E9438FA08
:10F0D000E0E0F0E0099508956F927F928F929F9201
:10F0E000AF92BF92CF92DF92EF92FF920F931F9356
:10F0F000DF93CF9300D0CDB7DEB747E2642E42E076
:10F10000742E4E010894811C911C32E0A32EB12C68
:10F11000AC0EBD1E87E292E061E00E940DFA809184
:10F1200027028335B9F710922702F301818387E222
:10F1300092E061E00E940DFA8091270290912802EE
:10F14000F3E583339F0749F103E58433900748F4DF
:10F1500013E58033910708F4B5C082539345D0F08E
:10F1600016C063E587339607C1F0E3E588339E0751
:10F1700028F48553934509F0A5C00CC003E58833F6
:10F18000900729F08953934509F09CC003C023E000
:10F19000D22E05C092E0D92E02C084E0D82EC40140
:10F1A00061E00E940DFAC9802C2D30E08D2D90E099
:10F1B0008F579F4F821793070CF484C08C2D81507A
:10F1C0008D198093AD02FD2CEE24FA940F2D10E0E2
:10F1D000075D1D4FC80161E00E940DFAF8018081B2
:10F1E000E80EFF2091F7FE2CFC0C89818D19898394
:10F1F0000DE212E008C0C80161E00E940DFAF801BA
:10F2000081918F01F80E898181508983882399F734
:10F21000C50161E00E940DFA8A81F80EFFEFFF162A
:10F2200009F050C06EC003E58533900709F462C051
:10F2300087539345039788F40E9497FA0E9474FAC3
:10F2400084E090E064E072E00E9429FA0E9438FABB
:10F25000E0912902F0912A0209952091290230912A
:10F260002A0240912B0250912C0280910802909129
:10F270000902A0910A02B0910B0282179307A4071A
:10F28000B50709F437C02093080230930902409370
:10F290000A0250930B028091AD0279018A01E80EB7
:10F2A000F11C011D111DD801C7018050904FA140D4
:10F2B000B04018F40E949EFA0AC0205030404148E5
:10F2C000504028F484E090E06CE072E017C0809138
:10F2D000290290912A02A0912B02B0912C02805019
:10F2E0009040A148B04080509041A040B04010F400
:10F2F0000E9449FA84E090E064E072E00E9429FAFA
:10F3000009CF809127029091280263E58033960708
:10F3100009F089CFEFCF9F92AF92BF92CF92DF9249
:10F32000EF92FF920F931F93DF93CF9300D000D003
:10F33000CDB7DEB782E084BD84EB87BDE2E0DE2E90
:10F3400072E0972E65E0C62E54E0A52EB12CAC0ECF
:10F35000BD1EDA940D2D10E0F80143E0EE0FFF1F03
:10F360004A95E1F7E05FFD4F0190F081E02D0995AE
:10F3700016BC95BAC5BC780133E0EE0CFF1C3A957B
:10F38000E1F784E192E0E80EF91E1CC0D701ED918F
:10F39000FC91C5010995282F8823A1F089819A81C4
:10F3A000AB81BC81823B35EA930735E6A3073BE49A
:10F3B000B307B1F0892F9A2FAB2FBB2789839A838C
:10F3C000AB83BC83A99BE2CF83E0000F111F8A951A
:10F3D000E1F70E5E1D4FD801ED91FC91099520E0FB
:10F3E000D092200215BCDD2019F0222309F4B1CF00
:10F3F00014BC17BC16BC15BA822F0F900F900F903B
:10F400000F90CF91DF911F910F91FF90EF90DF90C0
:10F41000CF90BF90AF909F9008951F93CF93DF93AD
:10F42000EC01162FE0912002F0E0A3E0EE0FFF1FA9
:10F43000AA95E1F7EC5EFD4F0190F081E02DCE0141
:10F440000995882311F4112369F7DF91CF911F915A
:10F450000895E0912002F0E0B3E0EE0FFF1FBA95AF
:10F46000E1F7E05FFD4F0680F781E02D09950895F3
:10F47000E0912002F0E083E0EE0FFF1F8A95E1F7B4
:10F48000EE5EFD4F0190F081E02D09950E940BFB8F
:10F4900008952091290230912A0240912B02509127
:10F4A0002C0240705070EDE2F2E064E010C0808108
:10F4B00032BD21BD80BD6FBBF99AF999FECF31965F
:10F4C00091509093AD022F5F3F4F4F4F5F4F909100
:10F4D000AD02992361F72093290230932A024093C9
:10F4E0002B0250932C0208950895EF92FF920F93F0
:10F4F0001F93A0E0B0E0EE24F82E092F1A2FC801C8
:10F50000B7010E942DF807B600FCFDCFC801B70176
:10F510000E9433F807B600FCFDCF0E9424F807B61E
:10F5200000FCFDCF1F910F91FF90EF900895809107
:10F530002102909122020E9475FA0895EF92FF92A3
:10F540000F931F93CF93DF939091AD02E92FF0E0DB
:10F5500090FF07C0E95DFD4F8FEF86839F5F90931B
:10F56000AD02CDE2D2E04BC08091290290912A02F7
:10F57000A0912B02B0912C02E92EFA2E0B2F11270D
:10F5800080912102909122028E159F0531F00E94F8
:10F5900075FAF0922202E092210280912902909164
:10F5A0002A02AC015070288180FF0EC020932402F3
:10F5B0006091230270912402CA0101970E9428F8E9
:10F5C00007B600FCFDCF02C0209323022196809154
:10F5D000290290912A02A0912B02B0912C0201964F
:10F5E000A11DB11D8093290290932A02A0932B02A2
:10F5F000B0932C028091AD0281508093AD02809136
:10F60000AD02882309F0B0CFDF91CF911F910F9108
:10F61000FF90EF90089580912502809366000895F1
:10F620006F927F928F929F92AF92BF92CF92DF9212
:10F63000EF92FF920F931F93CF93DF93A895809142
:10F64000600088618093600089E28093600080910F
:10F65000B60080628093B60081E08093B100C0E084
:10F66000D0E088EC0E9455F8219683E1C838D8078D
:10F67000C1F7809166008093250200E8C1E9D1E0DE
:10F6800010E091E9C92E91E0D92EE12CF12C81E90D
:10F69000A82E81E0B82E0E9447F8BC0181E06239B3
:10F6A000780718F19E0140E050E0CB01A0E0B0E007
:10F6B00081599140A040B040281739074A075B079D
:10F6C0004CF4123039F480916600815080936600CA
:10F6D000000036C080916600815080936600000073
:10F6E000EB01C159D14011E028C081E061397807B0
:10F6F00039F1CE01A0E0B0E09B0140E050E03601DE
:10F700004701621A730A840A950A86159705A805A7
:10F71000B9054CF4113039F4809166008F5F809305
:10F72000660000000DC0809166008F5F80936600C8
:10F730000000E501C61BD70B12E0015009F0ABCF6A
:10F740001092B10087B3876087BBDF91CF911F9183
:10F750000F91FF90EF90DF90CF90BF90AF909F9070
:10F760008F907F906F900895DC0180912602E82FA2
:10F77000F0E0808187FD02C080E0089586818C934F
:10F7800081E00895CF93DF939C01DB01A8958091E0
:10F790002602E82FF0E0EF0126960BC08C918883BB
:10F7A000808186FFFDCF1196808180648083215007
:10F7B00030402115310591F7DF91CF91089580EC0C
:10F7C0008093260290E29DB91EB880E484B915B8F2
:10F7D0009EB91EB882E08093C4008093C00086E08A
:10F7E0008093C20088E18093C10008951DB814B8C9
:10F7F000E0912602F0E014821082128211820895B4
:10F80000569A579A5E985F98759A749A6D9A6C9A00
:10F810006E9876986F98779814B8089556985E9871
:10F8200057985F986D9875986C9874980895FC0136
:10F83000679B02C080E008957598000083B18083C3
:10F84000759A81E008959C01FB01A8958FEF84B91A
:10F8500008C06699FECF819185B97498749A215039
:10F86000304021153105A9F714B808950F931F935F
:10F87000CF93DF93EC010881198111C0EC81FD81E8
:10F8800060817181C8010E9428F807B600FCFDCF95
:10F890000E5F1F4F8C819D8102969D838C83888192
:10F8A00099812A813B81820F931F0817190730F332
:10F8B000DF91CF911F910F9108951F93CF93DF9305
:10F8C000EC011FB7F894F999FECF688179818A819C
:10F8D0009B810E942DF807B600FCFDCF68817981DD
:10F8E0008A819B810E9433F807B600FCFDCF0E94FD
:10F8F00024F807B600FCFDCF1FBFDF91CF911F9109
:10F9000008952F923F924F925F926F927F928F92C3
:10F910009F92AF92BF92CF92DF92EF92FF920F939E
:10F920001F93DF93CF93CDB7DEB72A970FB6F89426
:10F93000DEBF0FBECDBF8AB5382F20E08EB3C82EF4
:10F94000DD24C22AD32AD6018C918230C9F08330BB
:10F9500030F4882359F0813009F0DAC00CC08330CC
:10F9600009F4ACC0843009F0D3C0BEC0C601019612
:10F970000E9436FCCDC0C60101960E945DFCC8C045
:10F98000F60181819281A381B481F894F999FECF27
:10F99000892F9A2FAB2FBB279C01AA24BB2463E09D
:10F9A000662E712C6C0E7D1E52E0252E312C2E0100
:10F9B0000894411C511C5FC0F60181819281A38192
:10F9C000B481892F9A2FAB2FBB274C018217930745
:10F9D00089F0C501A0E0B0E0BA2FA92F982F8827A1
:10F9E0008B839C83AD83BE83C3010E945DFC08941E
:10F9F000A11CB11CD6011196ED90FD900D911C91AA
:10FA00001497C801B7010E9441F88983F60161810A
:10FA10007281838194816F5F7F4F8F4F9F4F0E94D0
:10FA200041F88A838FEF90E0A0E0B0E0E822F9226D
:10FA30000A231B23FC82EB823E822D8258864F8252
:10FA4000C3010E9436FCF60181819281A381B481B9
:10FA50000296A11DB11D81839283A383B483858106
:10FA60009681A781B0850297A109B1098583968304
:10FA7000A783B0879401F60185819681A781B0851F
:10FA80000097A105B10509F097CFC501A0E0B0E04E
:10FA9000BA2FA92F982F88278B839C83AD83BE8391
:10FAA000CE0103960E945DFCA8958091600088615C
:10FAB0008093600088E080936000FFCFEFB6F894F9
:10FAC000F999FECFD60111966D917D918D919C9102
:10FAD00014970E942DF807B600FCFDCF0E9424F871
:10FAE00007B600FCFDCF13C0EFB6F894F999FECF2E
:10FAF000F60161817281838194810E9433F807B697
:10FB000000FCFDCF0E9424F807B600FCFDCFEFBE3D
:10FB10002A960FB6F894DEBF0FBECDBFCF91DF910E
:10FB20001F910F91FF90EF90DF90CF90BF90AF901B
:10FB30009F908F907F906F905F904F903F902F900D
:02FB4000089526
:10FB420069D3D2264D5A9AB4FFFFFFFF2D595AB2FC
:10FB5200DFFBF6FBB4FBC2FB00FC0EFC17FC23FC34
:02FFFE0081FC84
:040000031000F000F9
:00000001FF
