:100000000C9435010C9456010C948B050C94B60598
:100010000C9456010C9456010C9456010C94560104
:100020000C9456010C9456010C9456010C945601F4
:100030000C9456010C9456010C94500A0C945601E1
:100040000C94810A0C9456010C9456010C945601A0
:100050000C9456010C9456010C9456010C945601C4
:100060000C9456010C9456010C9456010C945601B4
:100070000C9456010C9456010C9456010C945601A4
:100080000C9456010C9456010C94070C0C945601D8
:100090000C9456010C9456010C9456010C94560184
:1000A0000C9456010C9456010C9456010C94560174
:1000B0000C9456010C9456010C9456010C94560164
:1000C0000C9456010C9456010C9456010C94560154
:1000D0000C9456010C9456010C9456010C94560144
:1000E0000C9456010C9456010C9456010C94560134
:1000F0000C9456010C9456010C9456010C94560124
:100100000C9456010C9456010C9456010C94560113
:100110000C9456010C9456010C9456010C94560103
:100120000C9456010C9456010C9456010C945601F3
:100130000C9456010C9456010C9456010C945601E3
:100140000C9456010C9456010C9456010C945601D3
:100150000C9456010C9456010C9456010C945601C3
:100160000C94FC040C9456010C9428050C94560134
:100170000C9456010C9456010C9456010C945601A3
:100180000C9456010C9456010C9456010C94560193
:100190000C9456010C9456010C9456010C94560183
:1001A0000C9456010C9456010C9456010C94560173
:1001B0000C9456010C9456010C9456010C94560163
:1001C0000C9456010C9456010C9456010C94560153
:1001D0000C9456010C9456010C9456010C94560143
:1001E0000C9456010C94560103020201010000FF19
:1001F000FEFDFCFBF9F7F4EFA81A6D160000E51FF1
:1002000000007E1E8B2500005323EE22EB28B02B2E
:1002100000000000F92500008818281800000000E0
:10022000A3181019DC18BB180000000000008C197E
:100230000000CD193019B6196019761900004A1955
:10024000010401010102010101010101010101019A
:100250000401080201010101020101020102010180
:100260000201020201010101080011241FBECFEFAB
:10027000DFE5DEBFCDBF00E00CBF11E2A0E0B0E2E1
:10028000E2EFFAE600E00BBF02C007900D92A23C3D
:10029000B107D9F715E2A2ECB1E201C01D92A23775
:1002A000B107E1F70E9458010C9477350C940000D7
:1002B0000E94642D882311F00E94C3060E94AA0B9D
:1002C000789480E00E945505882311F00E94C306AF
:1002D00086ED93E060E074E00E94763080E090E08C
:1002E0000E94000481E00E94992E80E090E20E942A
:1002F000D3300F920F9282E490E2EDB7FEB7818384
:1003000092830E94C13086E690E2EDB7FEB781830A
:1003100092830E94C13080E790E2EDB7FEB78183FF
:1003200092830E94C13084E790E2EDB7FEB78183EB
:1003300092830E94C1300F900F9081E890E20E945A
:10034000D3300E946B2DFDCF882321F484E00E94DE
:10035000B02E089581E00E94992E0895DF93CF93E7
:100360000F92CDB7DEB7882309F04EC06430D9F4C0
:1003700000D00F92EDB7FEB7319684E890E2ADB7AA
:10038000BEB711968D939C9312978091E921828339
:1003900013820E94C1300F900F900F900F9080E059
:1003A0000E94B02E4BC06623D9F400D00F92EDB757
:1003B000FEB7319681EA90E2ADB7BEB711968D9344
:1003C0009C9312978091EA21828313820E94C1300C
:1003D00081E089830F900F900F900F9082E509C004
:1003E000623569F489EB90E20E94D33081E0898321
:1003F00081E5BE016F5F7F4F0E94C72E1FC0613530
:1004000019F48DEC90E218C00F920F9289EE90E2F1
:10041000EDB7FEB7818392830E94C1308BE091E2F9
:10042000ADB7BEB711968D939C9312970E94C130C1
:100430000F900F9085E291E20E94D3300F90CF9100
:10044000DF910895EF92FF920F931F93DF93CF9365
:1004500000D0CDB7DEB7882309F04AC0643031F44C
:100460001092E92184E069EE71E240C0662309F050
:100470003FC000D00F92EDB7FEB7319681EA90E20F
:10048000ADB7BEB711968D939C931297DA018C91FC
:10049000828313820E94C13019821A821B820F90BC
:1004A0000F900F900F9080E491E20E94D3308E0164
:1004B0000F5F1F4F84E0E82EF12CEC0EFD1E80E054
:1004C00090E00E940004982F90539A3030F4F80185
:1004D00081938F01EE15FF0591F7CE0101960E94E1
:1004E00031306093EA2180E06AEE71E20E94C72E0B
:1004F0002396CDBFDEBFCF91DF911F910F91FF906B
:10050000EF9008957F928F929F92AF92BF92CF9279
:10051000DF92EF92FF920F931F93DF93CF93CDB7AC
:10052000DEB72597CDBFDEBF742E49018091C22171
:100530009091C321A091C421B091C5210196A11D24
:10054000B11D8093C2219093C321A093C421B09385
:10055000C521D9018C9111963C9111978093C621A8
:100560003093C72187708093C8214093C921232FDE
:100570002695269523702093CB2132953695369576
:1005800033703093D621F40132962223B1F11296C2
:100590008D919C9113978093CC219093CD2132968D
:1005A000223039F4819191918093CE219093CF2183
:1005B00024C0233011F5AEECB1E280818093CE21CE
:1005C000818111968C931197828112968C93129748
:1005D000838113968C931397848114968C9314972C
:1005E000858115968C931597868116968C93169710
:1005F000878117968C9317973896332399F18091BA
:10060000C62186FD03C08191919104C08091CC21C7
:100610009091CD218093D7219093D821323039F415
:10062000819191918093D9219093DA211BC033302D
:10063000C9F480818093D92181818093DA218281DC
:100640008093DB2183818093DC2184818093DD2171
:1006500085818093DE2186818093DF21878180934D
:10066000E0213896E092CA21872D880D8E1B809359
:10067000E6210093E121A092E221B092E321C09211
:10068000E421D092E521E093E721F093E82100D026
:1006900000D08EE691E2EDB7FEB781839283809120
:1006A000C2219091C321A091C421B091C52183831F
:1006B0009483A583B6830E94C1308DB79EB70696FA
:1006C0008DBF9EBF8091C8218130F9F0813028F024
:1006D000823001F1833061F522C00F920F9288E7DA
:1006E00091E2ADB7BEB711968D939C9312970E947D
:1006F000C1300F900F9084017E010894E11CF11C21
:1007000094EAC92E91E2D92E38C00F920F9281E857
:1007100091E209C00F920F9288E891E2E2CF0F9226
:100720000F928EE891E2EDB7FEB781839283DFCF1F
:100730000F920F9284E991E2D4CF00D000D0EDB7B0
:10074000FEB73196ADB7BEB71196ED92FC921297F7
:10075000C282D382D8018D918D01848315820E943B
:100760000A310F900F900F900F90EDB7FEB7E18216
:10077000F2820E94C1300F900F90802F8819871548
:10078000E0F28AEA91E20E94D3302596CDBFDEBF27
:10079000CF91DF911F910F91FF90EF90DF90CF905D
:1007A000BF90AF909F908F907F9008950F931F936D
:1007B000DF93CF930F92CDB7DEB789838A3071F480
:1007C0008DE089838E010F5F1F4F80E0B80141E00B
:1007D0000E9461058823C9F38AE089838E010F5F37
:1007E0001F4F80E0B80141E00E9461058823C9F3F2
:1007F00080E090E00F90CF91DF911F910F910895CD
:100800000F931F93DF93CF930F92CDB7DEB78E0177
:100810000F5F1F4F80E0B80141E00E946A05882306
:10082000C9F3898190E00F90CF91DF911F910F91D3
:100830000895DF93CF930F92CDB7DEB780E0BE016E
:100840006F5F7F4F41E00E946A05813019F4298172
:1008500030E002C02FEF3FEFC9010F90CF91DF9141
:1008600008950F931F93CF93DF938C01EB010AC080
:1008700080E0B8014C2F0E94610590E0C81BD90BA5
:10088000080F191F1C161D069CF3DF91CF911F91B5
:100890000F9108959B01AC016050774F824C9F4FA0
:1008A000F2E0660F771F881F991FFA95D1F7E3E0F2
:1008B000220F331F441F551FEA95D1F70E94B12F15
:1008C00021503040E0E6F6E088E0818384E08283D6
:1008D000E0EAF9E0378326838CE1848383E0858333
:1008E0008CE383830895CF93DF93282F8091A3090E
:1008F000837FE0EAF9E08383E0919B2430919C249C
:100900003E1718F08E2F875F02C08E2F8150831BF9
:10091000681708F4862F392FE901982F11C020910C
:100920009C243991A22FB0E0A957BB4D3C932930AC
:1009300019F410929C2403C02F5F20939C249150A3
:10094000992369F790919F24992349F4F0E0E9579E
:10095000FB4D90819093A00991E090939F249091FA
:10096000A3099C60E0EAF9E09383DF91CF910895B9
:10097000FC018091A0248823E9F19091A3099F7C38
:10098000A0EAB9E013969C9313978A3050F08091B7
:100990009E2480939D248AE08093A0246A3028F4CA
:1009A00005C0861718F4682F01C06AE0962F18C09A
:1009B000A0919D24B0E0A957BB4D1A968C911A972F
:1009C000819380919D248F5F80939D242091A0240A
:1009D00021502093A02491508A3011F410929D242C
:1009E000992331F78091A3098063E0EAF9E08383DA
:1009F000862F089580E008951F920F920FB60F92F0
:100A00000BB60F9211248F939F93EF93FF938091D6
:100A10009E249091A0249F5F9093A0249091A00980
:100A2000E82FF0E0E957FB4D9287893019F41092D6
:100A30009E2403C08F5F80939E24FF91EF919F912E
:100A40008F910F900BBE0F900FBE0F901F901895B7
:100A50001F920F920FB60F920BB60F9211248F9325
:100A6000EF93FF9380919B24893019F410929B247B
:100A700003C08F5F80939B24E0919B2480919C24F2
:100A8000E81739F0F0E0E957FB4D80818093A00929
:100A900002C010929F24FF91EF918F910F900BBE97
:100AA0000F900FBE0F901F901895882341F460E8B7
:100AB00075E280E090E00E944A0480E0089585E8B5
:100AC0000895882329F4CB01642F0E9473040895AC
:100AD00080E00895882329F4CB01642F0E94B80494
:100AE000089580E008958093ED219093EE21E0E455
:100AF000F6E081E0828B94E092878487089580936A
:100B0000EB219093EC21E0E4F6E081E0818B82E040
:100B10008387848708951F920F920FB60F920BB6AA
:100B20000F9211242F933F934F935F936F937F9373
:100B30008F939F93AF93BF93EF93FF93E091ED213A
:100B4000F091EE211995FF91EF91BF91AF919F9197
:100B50008F917F916F915F914F913F912F910F9066
:100B60000BBE0F900FBE0F901F9018951F920F9203
:100B70000FB60F920BB60F9211242F933F934F9302
:100B80005F936F937F938F939F93AF93BF93EF93F5
:100B9000FF93ECE4F8E0808180618083E091EB21B9
:100BA000F091EC211995FF91EF91BF91AF919F9139
:100BB0008F917F916F915F914F913F912F910F9006
:100BC0000BBE0F900FBE0F901F901895EBECF1E04D
:100BD00021E030E088ED90E084BF2083089580918B
:100BE000CF0187FDFCCF08950F931F93DF93CF9321
:100BF0000F920F92CDB7DEB789839A830E94EF05DB
:100C000000EC11E0F80112829A819183898180833E
:100C100086E082870E94E605F80184810F900F909C
:100C2000CF91DF911F910F9108950E94BC0A0E94FD
:100C3000D70A0E94300C0E944D070E94AF0A0E9402
:100C4000B60A88ED84BF81E08093800080E008953B
:100C50000E94130A0895CF92DF92EF92FF920F93B2
:100C60001F93CF93DF938B01EA01813031F4862FFC
:100C7000642FA9010E940B0B21C08823E1F4CA0153
:100C8000860F971F40E181309407B8F4C22ED32E0F
:100C9000EE24FF240BC0C701800F911F0E94F405B2
:100CA000F60181936F010894E11CF11CEC16FD061E
:100CB00090F380E003C088EE01C085E8DF91CF911A
:100CC0001F910F91FF90EF90DF90CF9008955F926A
:100CD0006F927F928F929F92AF92BF92CF92DF924C
:100CE000EF92FF920F931F93CF93DF93EC015B0181
:100CF000CB018C0F9D1F20E18130920798F5C42E07
:100D0000D52EEE24FF2400EC11E023E3722E95E3B0
:100D1000892E86E3982E21C0CE010E94F405F601AB
:100D200061906F018615A9F05C2E0E94EF058091FD
:100D3000CF0181FF04C0F80192860E94E605F80108
:100D400072865092C00111821282648282860E9451
:100D5000E60521960894E11CF11CEA14FB04E0F27C
:100D600080E001C085E8DF91CF911F910F91FF9046
:100D7000EF90DF90CF90BF90AF909F908F907F903B
:100D80006F905F9008951F93CF93DF93E0E2F6E0BA
:100D900014828FEF8183C0E2D6E01FEF8FEF9FEFC9
:100DA0000E9491071F83FACF6091A1247091A22421
:100DB0009B0140E050E0A9013327222780912008C1
:100DC00090912108A0E0B0E0282B392B4A2B5B2B17
:100DD0008091A1249091A2246817790729F7B9017D
:100DE000CA0108951F93CF93DF931FB7F8948091A2
:100DF000F1218F3F09F44CC0C82FD0E0FE0133E051
:100E0000EE0FFF1F3A95E1F7EC0FFD1FED55FB4D7F
:100E100080819181A281B3812091A1243091A2246B
:100E20002A173B0769F4809328089093290880913A
:100E30000C08806180930C0880910708836003C0D0
:100E4000809107088C7F809307080E94D406FE01DA
:100E500023E0EE0FFF1F2A95E1F7EC0FFD1FED5584
:100E6000FB4D2081318142815381621B730B840BC6
:100E7000950B6F5F7F4F8F4F9F4F6F3F2FEF720725
:100E80002FEF82072FE7920718F481E08093F0217B
:100E90001FBFDF91CF911F9108951092EF21109203
:100EA000F0211092A1241092A2248FEF8093F121BF
:100EB0008093F2218093F3218093AB241092A72496
:100EC0001092A8248093B4241092B0241092B124DC
:100ED0008093BD241092B9241092BA248093C62422
:100EE0001092C2241092C3248093CF241092CB245A
:100EF0001092CC240E94F40A0895882329F488E0F3
:100F000080930008809340080895CF93DF93EC010D
:100F10000E94D406688379838A839B83DF91CF9173
:100F200008954FB7F8948630910518F12091200864
:100F300030912108280F391F8091200890912108B5
:100F40008217930740F4809120089091210882171E
:100F50009307C8F30EC080912008909121082817AC
:100F60003907C8F3809120089091210882179307D0
:100F7000C8F34FBF089590E0FC0143E0EE0FFF1F60
:100F80004A95E1F7E80FF91FED55FB4D81E024810B
:100F900035812115310509F480E008958091F02113
:100FA000882309F44CC01092F0212091EF212223D4
:100FB00009F445C08091F2218F3F59F48091F321CB
:100FC0008F3F39F48091F1218093F3218093F221B6
:100FD00012C03091F1218091F32190E0FC0173E087
:100FE000EE0FFF1F7A95E1F7E80FF91FED55FB4D66
:100FF00030873093F3218091F12190E0FC0163E090
:10100000EE0FFF1F6A95E1F7E80FF91FED55FB4D55
:1010100080858093F1218091F32190E0FC0153E0E1
:10102000EE0FFF1F5A95E1F7E80FF91FED55FB4D45
:101030008FEF808721502093EF210E94F2060895C0
:101040000F931F93082F853008F0CDC01FB7F89479
:101050000E94CE074091EF21442309F45BC05091D8
:10106000F121252F352F02C0232F382F031709F028
:1010700041C0802F90E0051781F4FC0153E0EE0F92
:10108000FF1F5A95E1F7E80FF91FED55FB4D8085DD
:101090008093F1210E94F20619C030E0F90143E08B
:1010A000EE0FFF1F4A95E1F7E20FF31FED55FB4DE1
:1010B000DC0123E0AA0FBB1F2A95E1F7A80FB91F97
:1010C000AD55BB4D18968C9118978087802F90E076
:1010D000FC01A3E0EE0FFF1FAA95E1F7E80FF91F4F
:1010E000ED55FB4D8FEF80878091EF2181508093EC
:1010F000EF2165C0832F90E0FC0173E0EE0FFF1F2E
:101100007A95E1F7E80FF91FED55FB4D80854150C9
:1011100009F0AACF4091F221342F242F4BC002179F
:10112000D9F52091F3210417B1F4021721F48FEFC0
:101130008093F3210DC0802F90E0FC0163E0EE0F5F
:10114000FF1F6A95E1F7E80FF91FED55FB4D80850C
:101150008093F22134C0832F90E0FC0153E0EE0F26
:10116000FF1F5A95E1F7E80FF91FED55FB4D802F52
:1011700090E0DC0143E0AA0FBB1F4A95E1F7A80FFE
:10118000B91FAD55BB4D18968C91189780870217E3
:10119000B1F43093F32113C0822F90E0FC01B3E04F
:1011A000EE0FFF1FBA95E1F7E80FF91FED55FB4D64
:1011B000322F20852F3F09F0B2CF80E00FC0802F63
:1011C00090E0FC01A3E0EE0FFF1FAA95E1F7E80F06
:1011D000F91FED55FB4D1482158281E01FBF882356
:1011E00021F080E003C08AE801C089E81F910F91D7
:1011F00008952F923F924F925F926F927F928F92BB
:101200009F92AF92BF92CF92DF92EF92FF920F9395
:101210001F93CF93DF93D82E4A015B01C22E370173
:10122000853008F0CBC00115110509F4CBC0C82FDB
:10123000D0E0FE0133E0EE0FFF1F3A95E1F7EC0F2F
:10124000FD1FED55FB4D84819581009709F0B8C0D5
:101250000E94D4069B01AC01CC2029F06C2D61309A
:1012600009F0B0C014C0D501C40180589040A0401E
:10127000B04080386FEF96076FEFA6076FE7B607AD
:1012800008F0A2C0820E931EA41EB51E13C0D50185
:10129000C40180589040A040B040821B930BA40B27
:1012A000B50B80382FEF92072FEFA2072FE7B20779
:1012B00008F08AC0CFB6F8940E94CE075091F12171
:1012C0005F3F31F0F090EF21652F452F70E054C063
:1012D000D092F121FE0123E0EE0FFF1F2A95E1F7E6
:1012E000EC0FFD1FED55FB4D508735C04F3F09F406
:1012F00042C0242F30E0F90193E0EE0FFF1F9A95D2
:10130000E1F7E20FF31FED55FB4D80819181A28142
:10131000B38114012501281A390A4A0A5B0AD2014D
:10132000C1018F3F2FEF92072FEFA2072FE7B207E0
:1013300018F4642F40851FC0FE0183E0EE0FFF1FED
:101340008A95E1F7EC0FFD1FED55FB4D40875417D3
:1013500021F4D092F12181E013C0862F90E0FC01AE
:10136000B3E0EE0FFF1FBA95E1F7E80FF91FED5557
:10137000FB4DD08656C07F5F7F1508F4B7CF38C0CD
:10138000FE01A3E0EE0FFF1FAA95E1F7EC0FFD1F92
:10139000ED55FB4D80829182A282B3820483158336
:1013A000668277829091EF219F5F9093EF2188234F
:1013B00011F00E94F206CFBE80E007C08AE805C0A7
:1013C00088E803C088EE01C08BE8DF91CF911F91C0
:1013D0000F91FF90EF90DF90CF90BF90AF909F90D4
:1013E0008F907F906F905F904F903F902F900895D7
:1013F000862F90E0FC0173E0EE0FFF1F7A95E1F776
:10140000E80FF91FED55FB4DD086FE0163E0EE0FAE
:10141000FF1F6A95E1F7EC0FFD1FED55FB4D8FEFB8
:10142000808780E0ADCF1F931FB7F8940E94CE074E
:101430001FBF1FEF2FC03FB7F8948091F22190E0BB
:10144000DC0143E0AA0FBB1F4A95E1F7A80FB91FC3
:10145000AD55BB4D18962C9118971496ED91FC91B3
:10146000159716968D919C91179718961C9318971F
:1014700014961D921C92159716961D921C92179702
:101480002093F2212F3F11F41093F3213FBF3097A7
:1014900009F019958091F2218F3F69F61F91089507
:1014A0001F920F920FB60F920BB60F9211242F932B
:1014B0003F934F935F936F937F938F939F93AF93DC
:1014C000BF93EF93FF938091A1249091A224019662
:1014D0008093A1249093A2240E94F206FF91EF91A1
:1014E000BF91AF919F918F917F916F915F914F913C
:1014F0003F912F910F900BBE0F900FBE0F901F903A
:1015000018951F920F920FB60F9211248F9380910E
:10151000EF21882319F081E08093F0218F910F90C3
:101520000FBE0F901F901895FC012091A1243091BF
:10153000A224609168087091690840E050E0A90118
:101540003327222780E090E0262B372B482B592B7E
:101550002083318342835383089581E0089584E892
:101560008093800181E6809381010895E0EAF0E0B4
:10157000828184608283089582E08093500080910C
:10158000510081FFFCCF88ED84BF94E0E0E4F0E0FF
:10159000918384BF81E08093400082E0E0E5F0E049
:1015A0008683809160008160809360000895E0E40C
:1015B000F6E0808180618083808180688083808183
:1015C0008160808380818062808380818860808365
:1015D00080818F7B8083E0E6F6E080ED818380E28E
:1015E000828380E18583089588E08093000880935A
:1015F000400880EF80930C0880E380934C0883E0E0
:1016000080930608E1E4F8E080818061808389E2CC
:10161000809343080895AF92BF92CF92DF92EF92EA
:10162000FF920F931F93DF93CF93CDB7DEB7C054D4
:10163000D040CDBFDEBF9E012F5F3F4F90E0E0E482
:10164000F6E0EE24E394B0E1FB2E00EC18E0A3E01A
:10165000DA2E70ECA72E78E0B72EC0904906709174
:1016600049067C7F7187E682F68200000000000058
:10167000000000000000000000000000000000006A
:1016800000000000000000000000D8011396DC926A
:1016900013977091C20877FFFCCF792F7F77D50120
:1016A00013967C9313977091C20877FFFCCFD501F6
:1016B00013961C9213977091C20877FFFCCF70911C
:1016C000C308F582E582C186D9017D939D019F5FA4
:1016D000903409F0C2CFDE01AF5BBF4F20E030E0B5
:1016E000FE01319691912927022E2295207F2025F7
:1016F000032E322F22952F7002262695322723277C
:10170000220F220F220F2025EA17FB0759F7211578
:10171000310581F4FA01DE011196A80FB11DCA014D
:10172000860F911D02C02D912193E817F907D9F773
:1017300080E001C085E8C05CDF4FCDBFDEBFCF9148
:10174000DF911F910F91FF90EF90DF90CF90BF90AE
:10175000AF900895E0E2F6E087E081838683089504
:10176000833030F4E82FF0E0E455FE4D208101C0D5
:1017700020E0662319F06130B9F40BC081E090E0FD
:1017800002C0880F991F2A95E2F7E0E2F6E0858310
:10179000089581E090E002C0880F991F2A95E2F732
:1017A000E0E2F6E08683089581E090E002C0880FD1
:1017B000991F2A95E2F7E0E2F6E087830895E0E2D8
:1017C000F6E088E0828388E1838B0895E0E2F6E02A
:1017D000808590E023E0959587952A95E1F78170C3
:1017E00008952FB7F89498E09093B000E0E2F6E007
:1017F0008BE1838B81858C7F826081879287E0EA91
:10180000F0E082818260828378942FBF08951F92D6
:101810000F920FB60F920BB60F9211248F93EF9386
:10182000FF93E0E2F6E08285877F8287E8E4F0E0DC
:1018300080818E7F8083FF91EF918F910F900BBEFF
:101840000F900FBE0F901F9018950E94F10BE8E4C7
:10185000F0E08081807F856080837894889508950A
:1018600080E58093C00880E1E0E4F6E08583089598
:10187000E0E4F6E020914906909149069C7F91872B
:10188000806C90E19683E0ECF8E083838091C2085D
:1018900087FFFCCFE0ECF8E063838091C20887FF0C
:1018A000FCCFE0E4F6E080E1858321870895E0E461
:1018B000F6E020914906909149069C7F91878068C7
:1018C00090E19683E0ECF8E083838091C20887FF83
:1018D000FCCFE0ECF8E013828091C20887FFFCCFD8
:1018E0008091C308E0E4F6E090E1958321870895B4
:1018F00020E1E0E4F6E0268320E2E0ECF8E0238358
:101900002091C20827FFFCCFE0ECF8E013826130A1
:10191000B9F0262FFC01A0ECB8E03091C20837FFE7
:10192000FCCF3091C30813961C921397319321502A
:10193000223098F7625070E06F5F7F4F860F971FDD
:101940002091C20827FFFCCF2091C308FC0120830F
:1019500080E1E0E4F6E085830895FC0180E1A0E405
:10196000B6E016968C9380E6A0ECB8E013968C93C4
:1019700013978091C20887FFFCCFA0ECB8E081915B
:1019800061509091C20897FFFCCF13968C931397E8
:101990006623A9F78091C20887FFFCCF80E1E0E4CD
:1019A000F6E085830895DF93CF930F920F92CDB722
:1019B000DEB74A8369830E94570C6981862390E0D1
:1019C0004A8102C0959587954A95E2F70F900F904E
:1019D000CF91DF9108951F93DF93CF9300D0CDB7C0
:1019E000DEB7182F2B834A8369830E94570C2B8103
:1019F00030E04A8102C0220F331F4A95E2F7698125
:101A0000262360956823622B812F0E94380C239631
:101A1000CDBFDEBFCF91DF911F910895EF92FF926E
:101A20000F931F93CF93DF9384EF91E20E94C40D35
:101A300009EF11E291E6E92E94E2F92EC0E0D0E040
:101A4000F70100831183BE01660F771F660F771FB2
:101A50006F597B4D84EF91E20E94CB0D2196065683
:101A60001F4F84E090E0E80EF91EC430D10541F725
:101A7000DF91CF911F910F91FF90EF90089584EF28
:101A800091E260E070E00E94E60D0895BC010097CD
:101A900021F084EF91E20E94CB0D08956F927F9226
:101AA0008F929F92BF92CF92DF92EF92FF920F930D
:101AB0001F93CF93DF938C014B016A01BFB6F8945B
:101AC000DC0114968C911497882309F44BC0CD91B6
:101AD000DC91119741155105C1F07E0113C0F6014B
:101AE000628173810190F081E02D8881998119953F
:101AF000882371F47E019A818B81692EE3013E0176
:101B0000782EE301209759F72FC0209769F17E01C5
:101B10008114910449F5D8012D913C9111978A8146
:101B20009B81C217D30721F48D939C93119703C017
:101B3000F70182839383D80112968D919C9113971C
:101B4000C817D90721F41296ED92FC921397F80169
:101B500084818150848380819181009729F412824D
:101B6000138202C0C0E0D0E0BFBECE01DF91CF91B2
:101B70001F910F91FF90EF90DF90CF90BF909F90BB
:101B80008F907F906F900895FC01108211821282D5
:101B9000138214820895FC019FB7F89484818823EE
:101BA00019F46083718306C0A281B38112966D938C
:101BB0007C93139762837383DB0112961D921C92B0
:101BC000139784818F5F84839FBF0895AB0160E08A
:101BD00070E00E944E0D0895AB0161E070E00E943C
:101BE0004E0D0895CF93DF93EC010BC0CE0160E062
:101BF00070E00E94E60D009711F41C8205C00E945F
:101C0000460D8C81882391F7DF91CF910895AF9293
:101C1000BF92CF92DF92EF92FF920F931F93DF93C9
:101C2000CF93CDB7DEB72897CDBFDEBF81E06FE1A0
:101C300040E00E94D30C883009F05CC08FE00E9425
:101C4000570C8EE00E94570CA82E8EE061E00E9497
:101C5000380CD0904906809149068C7FE0E4F6E08C
:101C6000818782E069E00E94380C7E010894E11CC3
:101C7000F11CC7010E9485078E010B5F1F4FBE2C10
:101C8000CF2C25C0C8010E9485072D813E814F8140
:101C9000588589819A81AB81BC81281B390B4A0BFD
:101CA0005B0B2B3F31054105510588F08AE10E940D
:101CB000570C80FF03C0682F6E7F02C0682F6160E1
:101CC0008AE10E94380C8B2D9C2D0E94850780E4B0
:101CD000E82E86E0F82E8091480682FFD3CF8FE071
:101CE0000E94570C81E0F7018487D1868EE06A2D2F
:101CF0000E94380C2896CDBFDEBFCF91DF911F9197
:101D00000F91FF90EF90DF90CF90BF90AF9008952C
:101D10001F93182F8091F5248F3059F51092FE24CF
:101D200084EC95E10E947305E0E4F6E081E08487AD
:101D300080914906836081878FB7F894789498E002
:101D400096839091FE249923E1F38FBF8FE00E9448
:101D5000570C8BEA95E10E9473058EE068E00E94C3
:101D6000380C183011F0133021F488E08093F524FA
:101D700060C181E06FE140E00E94D30C8093F524C4
:101D8000183009F444C0193050F4143009F491C0EB
:101D9000163009F49BC0133009F042C150C01F3007
:101DA00069F0103120F4193009F03AC160C01631E1
:101DB00009F4C5C0193109F033C1FAC082E063E00B
:101DC0000E94380C8FE00E94570C8EE06FEF40E0CD
:101DD00020E10E94EB0C0000000000000000000069
:101DE00000000000000000000000000000000000F3
:101DF00000000000000088E0E0E4F6E0858383E274
:101E000090E00E9491071093F5248FE012C1883072
:101E100009F406C182E068E00E94380C000000006E
:101E200000000000000000000000000000000000B2
:101E3000000000000000000000000000F1C0883039
:101E400009F4EEC082E063E00E94380C000000005C
:101E50000000000000000000000000000000000082
:101E6000000000000000000000000000D9C0883021
:101E700029F1893020F4863009F0D2C005C08631BE
:101E800019F0893109F0CCC082E069E00E94380C79
:101E90000000000000000000000000000000000042
:101EA0000000000000000000000000000000000032
:101EB000B7C0883019F0893021F4B2C00E94070EF3
:101EC000AFC082E064E00E94380CAAC0893059F0AB
:101ED0008A3020F4883009F0A3C01AC0863119F086
:101EE000893109F09DC082E066E00E94380C000054
:101EF00000000000000000000000000000000000E2
:101F0000000000000000000000000000000088C089
:101F10000E94070E82E066E00E94380C000000007C
:101F200000000000000000000000000000000000B1
:101F300000000000000000000000000071C08830B8
:101F400001F1893020F4863009F06AC005C089307B
:101F500019F0893109F064C082E066E10E94380C12
:101F60000000000000000000000000000000000071
:101F70000000000000000000000000000000000061
:101F80004FC00E94070E82E066E10E94380C0000FC
:101F90000000000000000000000000000000000041
:101FA000000000000000000000000000000038C039
:101FB000883001F1893020F4863009F031C005C045
:101FC000893019F0863109F02BC082E069E10E9466
:101FD000380C0000000000000000000000000000BD
:101FE00000000000000000000000000000000000F1
:101FF000000016C00E94070E82E069E10E94380CC2
:1020000000000000000000000000000000000000D0
:1020100000000000000000000000000000000000C0
:1020200081E06FE140E00E94D30C8093F5248F3172
:10203000B9F31F9108958091E524882311F18091CF
:10204000FF248823F1F480917124909172240097E9
:1020500039F48AE90E943F0D809371249093722491
:102060008091712490917224009759F01092E52488
:102070008091F424882311F086E001C086E10E945B
:10208000880E8091EA24882351F086EE94E260E085
:1020900070E00E94E60D009711F00E94DE10809122
:1020A000FF24823011F40E9405110895603218F463
:1020B000662319F003C06FE101C061E08295869547
:1020C000869583709FEF899F9001112470E0269F71
:1020D000C001279F900D369F900D11246DE570E093
:1020E0000E949D2F6F3F710509F010F4862F08950F
:1020F0008FEF0895EF92FF920F931F93DF93CF938B
:102100000F920F92CDB7DEB7E0917124F091722457
:10211000309731F4CE01029661E00E94780C45C000
:10212000E080F1808091F424882339F086E060E833
:1021300047E00E94D30C8823C1F1CE01019661E0F3
:102140000E94780C698167FD30C06D5F0AE910E07C
:10215000061B11090E0D1F1DC8010E94780CF70106
:10216000028713878091D1249091D224A091D32407
:10217000B091D42486839783A087B187609171241E
:102180007091722486EE94E20E94CB0D8AE90E943F
:102190003F0D8093712490937224009731F489E06D
:1021A0000E94880E81E08093E5240F900F90CF91DC
:1021B000DF911F910F91FF90EF900895EF92FF92A2
:1021C0000F931F93CF93DF937C01FC01C081D181DA
:1021D000EA85FB8500810093F72410E00F5F1F4F15
:1021E0000E0F1F1FF801808161810E945610F801B7
:1021F0008083E982FA82CE010E94261DDF91CF9171
:102200001F910F91FF90EF9008951092FF24E0919D
:102210007324E83028F4F0E0E155FE4D808101C0E0
:1022200085E86091F0247091F1240E94DF270895E1
:102230000F931F93CF93DF938C01EB01442331F075
:102240008CE260EF44E02091F32404C08CE260EF64
:1022500044E020E00E94EB0CC230D10528F48CE26F
:102260006EE041E027E005C08CE26EE041E02091A5
:10227000EB240E94EB0C89E10E94880E8931D9F78A
:10228000809149068C7FE0E4F6E08187C130D1057A
:1022900059F48091F724833118F087E592E002C069
:1022A00087E990E00E949107C0E4D6E088E08D8342
:1022B000000000008E83F80160816150C8010E9417
:1022C000AD0C81E08093FF2480914906836089876B
:1022D000DF91CF911F910F9108952091FF24222328
:1022E00089F48093F0249093F124FC0182859385F6
:1022F0008093F8249093F924009731F00E941811EC
:1023000080E0089586E8089588EE0895E091F0242D
:10231000F091F1242091D1243091D2244091D32402
:102320005091D4242683378340875187882311F026
:1023300087E005C082E060EE45E00E94D30C809308
:10234000732482E08093FF24809171249091722401
:10235000009739F489E00E94880E81E08093E5249B
:10236000089586E10E94880E089585FD03C0982F88
:102370009F7304C0982F91959F719195E8EEF1E0BD
:102380002491291744F4203EB4F02032B4F427FFFE
:1023900010C0822F0BC03F96E4919E178CF4E03E54
:1023A00054F0E03254F4E7FF0AC08E2F8F71806240
:1023B00007C0822F05C080E203C08FE101C08E2FCD
:1023C0008068089585FD03C0982F9F7304C0982FDF
:1023D00091959F71919520E030E0822FF901E851AD
:1023E000FE4FE4919E1724F0E91744F481500895BC
:1023F0002F5F3F4F2031310581F780E0089584E061
:102400008093EB2423E02093F2248FEF9FEF8093BF
:10241000E0249093E1248093E3249093E4248BE0E0
:102420008093ED2480E098EFAFEFB7E08093FA243B
:102430009093FB24A093FC24B093FD241092DF24FE
:102440008AE091E08093DD249093DE248AE08093FB
:10245000F62482E08093EC2485E08093EF2420939F
:10246000F32483E80E94B5118093D02481E0809307
:10247000E2241092EE241092F42408951F93CF9337
:10248000DF9382E26091E0240E94380C83E2609145
:10249000E1240E94380CC5EDD4E214E2812F699149
:1024A0000E94380C1F5F1C32C9F780E26091E32460
:1024B0000E94380C81E26091E4240E94380C88E08C
:1024C00060E645E02091E2240E94EB0C8FE26FE091
:1024D00040E02091F2240E94EB0C8EE268E043E0A1
:1024E0002091EE240E94EB0C8FE260EF44E02091FB
:1024F000EF240E94EB0C88E06FE140E02091ED2496
:102500000E94EB0C8091D0240E94E211282F85E0DC
:102510006FE040E00E94EB0C8091F424882319F0D6
:1025200086E00E94880EDF91CF911F9108951F933E
:10253000CF93DF93EB01813569F0893519F08E3443
:1025400049F504C088818093F32400C18881809379
:10255000EB24FCC081E09881992309F480E080930A
:10256000F424882389F00E94EC15809171249091C5
:102570007224009739F489E00E94880E81E08093EC
:10258000E524E4C086E08AC088E00E94880E1092AC
:10259000E524DCC02091F5242F3009F4D9C08B301C
:1025A00009F4CCC08C3080F4823009F491C08330BF
:1025B00020F4882309F446C0CDC0833009F494C0C8
:1025C000843009F0C7C06DC0833561F1843530F4C3
:1025D0008F3459F0803509F0BDC016C0873509F435
:1025E0006AC0803F09F0B6C086C098819093F224FB
:1025F0008091EF24891710F48093F2248FE26FE02A
:1026000040E02091F224A0C088819981682F8093B6
:10261000E0249093E12482E20E94380C83E26091EE
:10262000E1240DC088819981682F8093E3249093E1
:10263000E42480E20E94380C81E26091E4240E944C
:10264000380C84C08091FF24882309F085C080E085
:1026500098EFAFEFB7E0088004C0B695A7959795BF
:1026600087950A94D2F781709070009709F476C02C
:10267000283039F088E00E94880E8830D9F716E1BA
:1026800001C018E028812093ED2488E06FE140E04C
:102690000E94EB0C183009F459C086E10E94880EA4
:1026A00055C08091FF24882309F056C08881882373
:1026B00009F455C053C028812093EF248091F2245F
:1026C000281710F42093F2248FE260EF44E03CC01E
:1026D00088810E94B5118093D0240E94E211282F96
:1026E00085E06FE040E030C028812093E22488E05C
:1026F00060E645E029C088818093D5248981809354
:10270000D6248A818093D7248B818093D8248C818E
:102710008093D9248D818093DA248E818093DB2469
:102720008F818093DC24C5EDD4E214E2812F69917E
:102730000E94380C1F5F1C32C9F708C02881209303
:10274000EE248EE268E043E00E94EB0C80E007C0DC
:1027500081E805C084EF03C086E801C088EEDF9100
:10276000CF911F9108950F931F93CF93DF931091F3
:102770004906809149068C7FE0E4F6E0818786E097
:102780000E94880E8630D9F785E160E847E020E0B6
:102790000E94EB0C08E0C0E0D0E086E060E645E097
:1027A0000E94D30C9E01220F331F220F331FC82F0C
:1027B000D0E0C22BD32B000000000000000000007E
:1027C0000000000000000000000000000000000009
:1027D000000000000000015001F783E00E94880E15
:1027E0008FE00E94570CE0E4F6E081E084871187D7
:1027F000CE010E942630DF91CF911F910F91089555
:10280000EF92FF920F931F93DF93CF930F920F924C
:10281000CDB7DEB7F82E81E065E170E041E050E031
:102820009E012F5F3F4F0E942B0600E416E088E0D8
:10283000F801868382ED90E00E949107EE24E394F4
:10284000F801E68281E090E00E949107F801E582BC
:1028500000E084E690E00E94910781E06FE140E0B3
:102860000E94D30C0A30C9F0883011F00F5FF1CF0D
:102870008093F52429812223D1F082E16FE040E0AA
:102880000E94EB0C14C00E94FF110E943E12109295
:10289000FF241092E52480E001C085E80F900F909E
:1028A000CF91DF911F910F91FF90EF9008950E94BB
:1028B000B31383E068E043E020E00E94EB0C83E088
:1028C00067E040E021E00E94EB0C0E942130682F7D
:1028D0008DE29A830E94380C8EE267E040E09A8194
:1028E000292F0E94EB0C8EE260EC46E021E00E9472
:1028F000EB0C8EE260E245E021E00E94EB0C8CE004
:1029000060E847E021E00E94EB0C8EE068E00E9466
:10291000380C84E060E446E021E00E94EB0C87E1A3
:1029200060E847E021E00E94EB0CFF2009F4ADCF06
:10293000AACF0E940014882359F01CC086EE94E2AE
:1029400060E070E00E94E60D009711F00E94460DD5
:102950008091EA24882391F78BEA95E10E94730520
:10296000E0E4F6E081E08487809149068360818716
:1029700080E0089585E808951F93CF93DF930E9428
:102980001506882309F0E2C0C0E4D6E011E01D83FB
:1029900088E08E838AE491E00E9491071E8381E0A3
:1029A00090E00E9491071D831AE003C0115009F4C2
:1029B000CDC084E690E00E9491078CE10E94570C04
:1029C0008A30A1F782E068E00E94380C10E084E6CB
:1029D00090E00E94910781E06FE140E00E94D30CFB
:1029E0001A3009F4B3C0883011F01F5FF0CF809324
:1029F000F52481E060E070E048E050E025ED34E24D
:102A00000E942B0681E00E940014882351F09EC092
:102A1000C5EDD4E20E942130899384E2CD3DD807F0
:102A2000C9F78091D5242091D6245091D724609164
:102A3000D8247091D924E091DA24F091DB24A0917C
:102A4000DC24382F315041E0381708F040E0822F65
:102A5000815091E0821708F090E0480F21E048177C
:102A600008F020E0922B252F215081E0251708F057
:102A700080E0592F520F91E0521708F090E0892B17
:102A8000262F215091E0261708F090E0682F620F62
:102A900081E0621708F080E0982B272F215081E019
:102AA000271708F080E0792F720F91E0721708F075
:102AB00090E0892B2E2F215091E02E1708F090E006
:102AC000E82FE20F81E0E21708F080E0982B2F2F2B
:102AD000215081E02F1708F080E0920FF1E092176B
:102AE00008F0F0E08F2BA195A81779F49F3F69F4C7
:102AF000EF3F59F47F3F49F46F3F39F45F3F29F4CA
:102B00004F3F19F43E3F08F083CF8BEA95E10E94D6
:102B10007305C0E4D6E080914906836089878FEB16
:102B200095E10E947F05809149068C6089870E940B
:102B30000E0D8AE90E943F0D8093712490937224B8
:102B400086EE94E20E94C40D80E001C085E8DF912A
:102B5000CF911F9108958FE00E94570C83FF0EC004
:102B60002091FF24213041F486FF02C081E001C0A2
:102B700080E00E94861108950E947A10089581EDE8
:102B800094E20E94940A08958FE00E94570C84FFFB
:102B900003C081E08093FE2408958091F5248F3056
:102BA000A9F08091FF24882399F41092E52488E00D
:102BB0000E94880E8830D9F780E00E947D078FE060
:102BC0000E94880E8F3031F480E0089581E80895E6
:102BD00086E8089586E808958091F5248F3051F4B1
:102BE00088E00E94880E883039F481E00E947D07D9
:102BF00080E0089582E8089585E808959091FF2483
:102C00009923E9F4883031F40E94880E1092E5246B
:102C100088E008958091712490917224009751F07A
:102C20008091F424882311F086E001C086E10E949F
:102C3000880E03C081E08093E52486E0089586E84D
:102C40000895FC01A081B18184E18C9313966C936B
:102C5000139711964D935C93129783E695E2BF010B
:102C60000E94CB0D08950F931F93DF93CF930F9284
:102C70000F92CDB7DEB780911C2590911D256BEE8C
:102C80004FEF5FEF0E94211610920D250FEF1FEFFF
:102C900009831A8380E5BE016F5F7F4F0E94A925DB
:102CA00000931E2510931F2510922C2510922D2580
:102CB00010922E2510922F2510923025109231253A
:102CC00010923225109233250E94BA220F900F9055
:102CD000CF91DF911F910F910895DF92EF92FF92B4
:102CE0000F931F93DF93CF93CDB7DEB72F97CDBF51
:102CF000DEBF8C01DE011196FC0150814181252F40
:102D0000342FF9012FE001900D922150E1F78093CB
:102D10001C2590931D258C81982F9250923038F06D
:102D2000C80168EE4FEF5FEF0E942116D0C08230DD
:102D300019F48F8198851AC08F8180932C258885FE
:102D400080932D25898580932E258A8580932F2534
:102D50008B85809330258C85809331258D8580935C
:102D600032258E85809333258EEF9FEF80931E252D
:102D700090931F2580E5BE016B5F7F4F0E94A925C0
:102D80000E94E022D801ED90FC9081E0F701808361
:102D900001831283EA56FF4F80838F858183DF0191
:102DA00018978091D5248C938091D62411968C937A
:102DB00011978091D72412968C9312978091D824E2
:102DC00013968C9313978091D92414968C9314970F
:102DD0008091DA2415968C9315978091DB241696B2
:102DE0008C9316978091DC2417968C93DF011A97A9
:102DF0008FEF9FEF8D939C9311978C81823059F4C4
:102E00003C9780911E2590911F258083918383E2BA
:102E100098EC45E11CC0729780912C2580838091AD
:102E20002D25818380912E25828380912F25838378
:102E3000809130258483809131258583809132254E
:102E4000868380913325878383E29CEC4BE1DF010D
:102E500012972091E0243091E1242D933C93DF01DF
:102E60001397209118252C932F5F20931825DF01AD
:102E700015978D939C9336974083D7011A96ED93BF
:102E8000FC931B9784E0BE016D5F7F4F0E94A925D4
:102E9000D82E80E0BE016E5F7F4F0E94A925DD2005
:102EA00071F4882361F4C70162E070E041E00E94A0
:102EB0006D11882321F481E08093602508C0C8014A
:102EC00061EE4FEF5FEF0E9421160E94BA222F960B
:102ED000CDBFDEBFCF91DF911F910F91FF90EF909B
:102EE000DF900895FF920F931F93DF93CF930F927C
:102EF0000F92CDB7DEB7F09058250E94460DFF2007
:102F0000B1F583E566E575E20E94A9254091562555
:102F1000509157258091472580932C2580914825F5
:102F200080932D258091492580932E2580914A25D7
:102F300080932F2580914B258093302580914C25BF
:102F40008093312580914D258093322580914E25A7
:102F50008093332581E080935F2510920D25809129
:102F60001725833031F582E08093172522C0109217
:102F70000D250FEF1FEF09831A8380E5BE016F5FF8
:102F80007F4F0E94A92500931E2510931F251092A4
:102F90002C2510922D2510922E2510922F2510925F
:102FA00030251092312510923225109233254FEFA3
:102FB0005FEF80911C2590911D256F2D0E94211699
:102FC0000E94BA220F900F90CF91DF911F910F9125
:102FD000FF900895EF92FF920F931F93CF93DF938B
:102FE000C0912825D091292580E061E040E020E0D3
:102FF00030E000E010E00E94321D882351F48091FF
:103000001C2590911D2561EE4FEF5FEF0E94211668
:1030100018C0AE0160E070E084E0440F551F661FE9
:10302000771F8A95D1F780E020E003E316E1EE24D4
:10303000FF240E94F908882321F080E090E00E949C
:103040003316DF91CF911F910F91FF90EF9008956C
:103050008F929F92AF92BF92CF92DF92EF920F9397
:10306000DF93CF93CDB7DEB76697CDBFDEBF4C0100
:10307000DC01ED91FC9181818983828193818A8336
:103080009B8384818C8385818D8386818E838781D8
:103090008F83808588878185898782858A878385D4
:1030A0008B8784858C87858596858D879E87878588
:1030B0008F878089888B8189898B82898A8B838994
:1030C0008B8B84898C8B85898D8B86898E8B268DC5
:1030D000378DA18CB28CC38CD48CCE010196BE01ED
:1030E000645F7F4F458D0789E08C0E948202C40196
:1030F0000E94460D6696CDBFDEBFCF91DF910F9146
:10310000EF90DF90CF90BF90AF909F908F900895F9
:10311000EF92FF92CF93DF93E82EE7017E01F92E25
:10312000E701E881F98123813481458156818181DC
:1031300062810E94902FC7010E94460DDF91CF91BE
:10314000FF90EF900895EF92FF92CF93DF93E82ED8
:10315000E7017E01F92EE701E881F9818181928101
:1031600063810E94912FC7010E94460DDF91CF918C
:10317000FF90EF900895EF92FF920F93CF93DF931C
:10318000E82EE7017E01F92EE701E881F981BF0110
:103190006E5F7F4F208D318DE38CF48C8181478968
:1031A000028D0E94932FCE010E94460DDF91CF9198
:1031B0000F91FF90EF9008950F931F93DF93CF939C
:1031C000CDB7DEB72B97CDBFDEBF8C01DC01ED9113
:1031D000FC9182818983838194818A839B83858109
:1031E0008C8386818D8387818E8380858F83818583
:1031F00088878285898783858A8784858B87818173
:10320000BE016F5F7F4F0E94952FC8010E94460D3F
:103210002B96CDBFDEBFCF91DF911F910F91089507
:10322000EF92FF920F93CF93DF93E82EE7017E0199
:10323000F92EE701E881F9812181328143815481AE
:10324000658176818781908501850E94962FC701CF
:103250000E94460DDF91CF910F91FF90EF9008955E
:10326000EF92FF92CF93DF93E82EE7017E01F92ED4
:10327000E701E881F981AF014D5F5F4F8181628194
:103280000E942202C7010E94460DDF91CF91FF905C
:10329000EF900895EF92FF92CF93DF93E82EE7012E
:1032A0007E01F92EE701E881F98181810E94982F42
:1032B000C7010E94460DDF91CF91FF90EF900895D6
:1032C000EF92FF92CF93DF93E82EE7017E01F92E74
:1032D000E701E881F98181810E94A401C7010E9470
:1032E000460DDF91CF91FF90EF900895EF92FF92FE
:1032F000CF93DF93E82EE7017E01F92EE701E88105
:10330000F98181810E94992FC7010E94460DDF91AA
:10331000CF91FF90EF900895CF92DF92EF92FF92BE
:103320000F931F93CF93DF93E82EE7017E01F92ED1
:10333000E701E881F981048115812681378189E0DF
:10334000C82ED12CCE0EDF1E818162814381E084A4
:103350000E949A2FCE010E94460DDF91CF911F91BE
:103360000F91FF90EF90DF90CF900895EF92FF9232
:10337000CF93DF93E82EE7017E01F92EE701E88184
:10338000F981818162810E94AE01C7010E94460DD0
:10339000DF91CF91FF90EF900895DC01ED91FC91CA
:1033A000628173818181448125810E949C2F0895CF
:1033B000CF93DF93209156253091572536FFC5C016
:1033C000882359F420914525309146258091E024A9
:1033D0009091E1242817390761F02091452530911B
:1033E000462580912125909122252817390709F03B
:1033F000ACC0209147253091482580911E259091A1
:103400001F252817390709F4A0C0909147258091FE
:103410002C25981759F59091482580912D259817BE
:1034200029F59091492580912E259817F9F49091CE
:103430004A2580912F259817C9F490914B258091AA
:103440003025981799F490914C2580913125981743
:1034500069F490914D2580913225981739F4909117
:103460004E2580913325981709F46FC08AE90E9490
:103470003F0DEC01009709F468C08881998125E02F
:10348000FC012083C183D283DC01A956BF4F2C935A
:10349000FD0138972091D52420832091D6242183C3
:1034A0002091D72422832091D82423832091D924CA
:1034B00024832091DA2425832091DB242683209104
:1034C000DC242783389720912C25208320912D25DB
:1034D000218320912E25228320912F252383209143
:1034E0003025248320913125258320913225268380
:1034F000209133252783FD0172972091E02430919C
:10350000E12420833183FD017397209118252083C6
:103510002F5F20931825FD01759723E63CEC20834F
:103520003183569728E12C93FC01A287B38762E090
:1035300070E041E00E946D11882321F481E08093C6
:10354000602503C0CE010E94460DDF91CF91089502
:10355000CF92DF92EF92FF920F931F93CF93DF935F
:10356000E82EE7017E01F92EE70188819981DC01CF
:103570001A96ED91FC911B97208120933725E20F3D
:10358000F11D2181209350252091F4241A96CD908D
:10359000DC901B972223A1F1E881F98196012F5F2E
:1035A0003F4F268F378FD6012C91258F108EDC014F
:1035B00016962D913D914D915C911997218F328FE7
:1035C000438F548F118212821382148215821682C5
:1035D0001782108611861286138614861586168623
:1035E0001786108A118A128A138A148A158A168AF3
:1035F00080915025878B81E1808383E695E27DC1B0
:10360000F6018181928144E355E2809334259093C1
:103610003525238120933825B6016C5F7F4F092F14
:103620000295069506950370192F16951695137039
:1036300009F458C02481358120933A2530933B25E5
:103640003696123019F5DA011896FA01108611969D
:103650001C92119712961C92129713961C92139714
:1036600014961C92149715961C92159716961C92F8
:10367000169717961C92D60116962D913C91179786
:1036800020873187F601389644E030C0133069F561
:103690009A01285F3F4FD6011696FC90DA011896E2
:1036A000FC924181D90111964C9311974281129657
:1036B0004C931297438113964C931397448114961D
:1036C0004C931497458115964C9315974681169601
:1036D0004C931697478117964C931797F6013E9691
:1036E0004AE004C0FB0140E001C042E0002309F4CD
:1036F00047C086FD08C02191319120934525309324
:1037000046254E5F08C020913A2530913B252093F5
:103710004525309346250230C1F41092472510927A
:1037200048251092492510924A2510924B25109257
:103730004C2510924D2510924E25208131812093E9
:103740004725309348254E5F1BC00330C9F42081C4
:1037500020934725218120934825228120934925C4
:10376000238120934A25248120934B252581209372
:103770004C25268120934D25278120934E25485F97
:10378000509137255550541B50935525009344258F
:103790001093392583FD47C1FB01E40FF11D282F4C
:1037A000277020933625233021F4208120934F2544
:1037B0005BC0213009F449C0213020F0233009F0EA
:1037C00032C152C0808191818093562590935725B4
:1037D000428140935825477011F04C5F01C043E08F
:1037E000DF01A40FB11D8C91809359254F5F682F85
:1037F000677090E08077907024E0959587952A9582
:10380000E1F7662311F4882389F09F01240F311D0D
:1038100020935A2530935B25662311F0660F460FDF
:10382000882321F0880F880F880F480F451750F420
:10383000541B50935C25E40FF11DE0935D25F0933C
:103840005E25F5C010925C25F2C0552351F0563725
:1038500018F086E780935525E0935625F093572579
:10386000E6C010925525E3C020914F25243009F47D
:10387000DEC0253030F4223059F0233009F0D3C0B7
:1038800011C0273009F4D3C0283009F0CCC00EC0D5
:1038900081819281809356259093572583818093CF
:1038A0005825C5C0818180935625C1C021813281B0
:1038B0002093562530935725238134812093582512
:1038C00030935925258120935A25268137812093CD
:1038D0005B2530935C2594FFAAC0808580935D258D
:1038E000A6C080913625833061F480914F258430C5
:1038F00011F0873031F483E295E2BE010E94CB0DD6
:103900009CC080910D25813009F478C0813020F071
:10391000843008F088C059C080911625882351F55D
:1039200090915F25923008F07EC0809136258130DD
:1039300009F475C0813020F0833009F074C00CC0E8
:1039400080916225882309F46EC0992309F46BC025
:1039500080E00E94D81967C080914F25833009F01C
:1039600040C0CE010E94351F80915F25813009F053
:1039700064C03DC08330D1F0843019F0823009F04A
:1039800052C080913625882309F04DC08091622570
:10399000882341F080915F258150823018F481E0C6
:1039A0000E94D819CE010E94862647C080913625F4
:1039B0008330C9F580914F258830A9F581E00E94B8
:1039C0002008CE010E94992C38C00E946526809163
:1039D0003625813021F1833031F580914F258330B8
:1039E00019F0883001F506C0CE010E94351F0E94F3
:1039F0002E2323C0CE010E942E2D1FC0809136257C
:103A0000833059F480914F25823069F480E00E9420
:103A10002008CE010E94721710C0813021F4CE011F
:103A20000E94F3200AC0CE010E94460D06C080917C
:103A30006025882309F055CF64CFDF91CF911F9186
:103A40000F91FF90EF90DF90CF900895FC011082CE
:103A5000618172816115710521F083E295E20E9416
:103A6000CB0D08958F929F92AF92BF92DF92EF920B
:103A7000FF920F931F93DF93CF930F920F92CDB7C7
:103A8000DEB7D82E79018AE94A8369830E943F0D07
:103A90004C014A816981009709F4DCC0FC01A080D7
:103AA000B180DD2011F084E001C08BE0F50180835E
:103AB000F50181829282D501A956BF4F84E08C9393
:103AC0008091E3249091E4249C012E5F3F4F2230AB
:103AD000310510F0662359F118978091D5248C9305
:103AE0008091D62411968C9311978091D7241296A9
:103AF0008C9312978091D82413968C93139780916E
:103B0000D92414968C9314978091DA2415968C936B
:103B100015978091DB2416968C9316978091DC2460
:103B200017968C93179783E290EC52E105C09E9311
:103B30008E9383E290E85CE0442361F02091E024DE
:103B40003091E1240217130729F05E5F3E932E9314
:103B500060E002C0806461E0423029F49860F701BF
:103B60002081318119C0433071F49C6018975A5FED
:103B70009D0148E0F70101907F01F90101929F0149
:103B80004150C1F735C020911E2530911F25FFEF10
:103B90002E3F3F0721F098603E932E9329C09C60F2
:103BA00018975A5F20912C252C9320912D25119642
:103BB0002C93119720912E2512962C9312972091D9
:103BC0002F2513962C9313972091302514962C9320
:103BD00014972091312515962C9315972091322515
:103BE00016962C9316972091332517962C9317979A
:103BF0001297662341F02091E0243091E1242D9327
:103C00003C93119703C00D931C9311979D01215074
:103C1000304040911825F90140834F5F40931825AB
:103C20009D0123503040F9018083918314975C9368
:103C3000F501A287B387C50162E070E041E00E9410
:103C40006D11882321F481E08093602504C0C401B4
:103C50000E94460D80E00F900F90CF91DF911F9151
:103C60000F91FF90EF90DF90BF90AF909F908F905B
:103C700008950F931F93CF93DF93FC01E801A08178
:103C8000B18186E18C9311966C93119712964C93A7
:103C9000129713962D933C9314974230F9F415968E
:103CA0001C92159716961C92169717961C921797AA
:103CB00018961C92189719961C9219971A961C928E
:103CC0001A971B961C921B971C961C921C97888116
:103CD000998115968D939C93169706C0159688E04A
:103CE00009900D928150E1F783E695E2BF010E94B1
:103CF000CB0DDF91CF911F910F9108950F931F93DB
:103D0000DF93CF93CDB7DEB72E97CDBFDEBF8C014B
:103D1000DC016D917C91CE010196DB012EE00D90CE
:103D2000FC010192CF012150D1F72B813C81809180
:103D3000E0249091E1242817390749F0C80168EE82
:103D40004A818E010B5F1F4F0E94391E86C0DB0126
:103D500011960D931C93129723E02C93CB018A5656
:103D60009F4FFC0120832D85218338972091D524F6
:103D700020832091D62421832091D724228320914F
:103D8000D82423832091D92424832091DA242583E5
:103D90002091DB2426832091DC2427832A81223072
:103DA00041F4FC013A978D819E818083918343E1A8
:103DB00012C038978D8180838E8181838F81828329
:103DC00088858383898584838A8585838B8586839B
:103DD0008C85878349E1CF0102972091E0243091BF
:103DE000E124DC012D933C93CF010397209118250A
:103DF000DC012C932F5F209318259F012550304024
:103E00005A81952F990F990F80E08366906CD901A4
:103E10008D939C9336974083DB011A96ED93FC9328
:103E20001B970E94E022F8018081918162E070E09E
:103E300041E00E946D11882321F481E08093602588
:103E40000CC02B813C81C80161EE4A818E010B5F61
:103E50001F4F0E94391E0E94BA222E96CDBFDEBF90
:103E6000CF91DF911F910F910895BC01DC01ED917D
:103E7000FC9185E18083809147258183809148254D
:103E8000828380914925838380914A258483809110
:103E90004B25858380914C25868380914D25878392
:103EA00080914E25808780915625818783E695E213
:103EB0000E94CB0D10922C2510922D2510922E25AC
:103EC00010922F2510923025109231251092322514
:103ED000109233258FEF9FEF80931E2590931F251F
:103EE00008950F931F934091E3245091E4244E5F73
:103EF0005F4F2091E0243091E1244230510520F4BD
:103F000043E005ED14E203C042E003EE14E20E9438
:103F1000391E1F910F910895DC01ED91FC911197CD
:103F2000E081E43270F4F0E0EE0FFF1FE850FE4F46
:103F300025913491F901309711F0199508950E9457
:103F4000460D08951F9380916025882381F4809108
:103F50001525882361F081E195E260E070E00E9420
:103F6000E60D009721F00E948C1F11E001C010E0C7
:103F700080912725882359F083E295E260E070E084
:103F80000E94E60D009719F00E948C1F11E0812F0E
:103F90001F9108950F931F93FC01A081B18180E1CF
:103FA0008C9311964C93119712966C9312971396CB
:103FB0000D931D932D933C93169783E695E2BF01D5
:103FC0000E94CB0D1F910F910895EF92FF920F93D6
:103FD0001F93DF93CF93CDB7DEB76297CDBFDEBF20
:103FE0008C01DC01ED90FC90DE011196F70182E17D
:103FF00001900D928150E1F72F8522FD0BC0809139
:104000000D25882321F480911625882319F0C801F5
:1040100061EECAC08E819F8120FF07C02B812230B4
:1040200021F4BFEF8F3F9B0771F04A81442331F4A5
:104030008B81882329F4C80165EFB6C0413019F09F
:104040005B81513019F4C80168EEAEC08DE0F70114
:1040500080838E8583838889682F6B5FE8E9F0E031
:10406000E81BF109EE0DFF1D423041F46E5F8091B7
:10407000E3249091E424929382931DC04330D9F4B9
:104080003897682F635F8091D52480838091D624F0
:1040900081838091D72482838091D82483838091E7
:1040A000D92484838091DA2485838091DB248683DC
:1040B0008091DC2487838091E0249091E1242C81FD
:1040C0003D818217930729F4442361F0552339F485
:1040D00002C0442339F06E5F9293829303C080E460
:1040E00090E002C080E090E07B817723F9F07230AD
:1040F00031F46E5F2E813F813293229312C0389744
:10410000685F2E8120832F81218328852283298542
:1041100023832A8524832B8525832C8526832D853F
:1041200027836E5F2C813D81329322932091182545
:1041300022932F5F209318259C0121604F8540FF1B
:1041400002C09C0121628889873608F03061572FB0
:10415000550F550F40E07A81972F9295990F990F3F
:10416000907C80E0842B952BDF011297822B932B80
:104170008D939C93119767FD15C033976083D7018A
:104180001A96ED93FC931B970E94E022F70101839E
:104190001283C70162E070E041E00E946D11882344
:1041A00051F00DC0C80165EE4E8500E010E09801A9
:1041B0000E94CA1F0EC081E0809360250AC0C8011A
:1041C00061EE4E8500E010E098010E94CA1F0E9437
:1041D000BA226296CDBFDEBFCF91DF911F910F91C2
:1041E000FF90EF9008950F931F93DF93CF93CDB778
:1041F000DEB72897CDBFDEBFBC01FC019081818175
:1042000020915525222321F4CB010E94460D2BC17C
:10421000E92FF82F80913825808F8091512590913A
:104220005225A0915325B0915425818F928FA38F51
:10423000B48F209144252183809145259091462576
:1042400082839383822F8250823050F514821582AC
:10425000168217821086118612861386223039F450
:1042600080914725909148258483958323C0809130
:1042700047258483809148258583809149258683BD
:1042800080914A25878380914B25808780914C259A
:10429000818780914D25828780914E2583870AC032
:1042A000128213821482158216821782108611865A
:1042B00012861386808D90910025891761F52481DF
:1042C00090910325291739F5258190910425291707
:1042D00011F52681909105252917E9F42781909100
:1042E00006252917C1F4208590910725291799F4EF
:1042F000218590910825291771F42285909109252F
:10430000291749F4238590910A25291721F4CB0117
:104310000E94460D63C0809300258481809303250D
:1043200085818093042586818093052587818093EC
:1043300006258085809307258185809308258285C1
:1043400080930925838580930A2520913925248728
:104350001786108A118A128A138A148A158A168A75
:1043600080913A2590913B25858796872330C9F423
:1043700080913C25878780913D25808B80913E25CB
:10438000818B80913F25828B80914025838B80910A
:104390004125848B80914225858B80914325868B96
:1043A0000BC0223039F480913C2590913D258787C0
:1043B000908B02C01586168680915025878B809140
:1043C0005525858F8091562590915725868F978FFB
:1043D00081E1808383E695E20E94CB0D80913425B4
:1043E00084FF41C080914425823071F4809147253B
:1043F0009091482589839A830091452510914625FF
:1044000080E060E042E021C0833019F580914725CB
:104410008983809148258A83809149258B83809167
:104420004A258C8380914B258D8380914C258E83EA
:1044300080914D258F8380914E2588870091452559
:104440001091462580E060E043E09E012F5F3F4FE2
:1044500007C080E060E040E020E030E000E010E0F5
:104460000E94321D02C00E94BA222896CDBFDEBF34
:10447000CF91DF911F910F9108950F931F93182FE4
:104480001092602510925F251092612510921625DA
:104490001092172510920D25109200258FEF809312
:1044A000032580930425809305258093062580931A
:1044B0000725809308258093092580930A2510926B
:1044C000202588E00E94FE150FB7F89480E00E9436
:1044D000200881E00E94200882E00E9420080FBF8F
:1044E000112391F11092622582EC97E080930F25C1
:1044F0009093102580E098E78093282590932925B4
:1045000010920C2581E080930E2586E08093022591
:1045100010922C2510922D2510922E2510922F25C9
:1045200010923025109231251092322510923325A9
:104530008FEF9FEF80931E2590931F250E942130BF
:1045400080931825109201251F910F910895809155
:104550006125882371F40E947D0780E00E94CD15BB
:10456000882321F481E080936125089581E00E94F1
:104570007D07089580910125882331F480912025BD
:10458000882311F40E94A72208950E94BC14882356
:1045900099F40E94AD0A882389F081E00E943D22AF
:1045A0000E94BA2281E195E20E94C40D83E295E265
:1045B0000E94C40D80E0089585E8089585E8089577
:1045C00080916125813049F40E94EC15853829F0ED
:1045D00081E00E947D07109261250895EF92FF927D
:1045E0000F931F93CF93DF93E82EE7017E01F92EFF
:1045F000E701088119810E94E022F801118180E021
:104600000E947D0781E0112309F480E00E94991443
:10461000082F81E00E947D07812F0E943D220E9489
:10462000BA2281E195E20E94F20D83E295E20E94B6
:10463000F20D83E695E20E94F20DE881F981018393
:1046400080E2808383E695E2BE010E94CB0DDF917C
:10465000CF911F910F91FF90EF900895DF93CF932B
:1046600000D00F92CDB7DEB70E94E0228FEF9FEF10
:1046700089839A838B839C8383E5BE016F5F7F4F21
:104680000E94A92580E5BE016D5F7F4F0E94A9258C
:1046900081E00E943D220E94BA222496CDBFDEBF57
:1046A000CF91DF910895BC01DC01ED91FC91DF0118
:1046B000139681818E3409F4B0C08F3470F5853043
:1046C00009F46EC0863098F4823009F4F2C0833069
:1046D00038F4882309F4DDC0813009F0F2C0DCC071
:1046E000833009F4E9C0843009F0EBC056C082344D
:1046F00009F461C0833438F4863009F456C0873039
:1047000009F0DFC055C08B3409F47FC08C3409F444
:1047100081C08A3409F0D5C054C0863541F187354F
:1047200098F4813509F44AC0823538F48F3409F49D
:1047300077C0803509F0C5C076C0823509F478C0ED
:10474000833509F0BEC077C08935E1F08A3530F491
:10475000873581F0883509F0B4C00FC08D35D1F0B0
:10476000803F09F46FC08A3509F0ABC00EC080915C
:104770006225A4C08091EF24A1C080910F25909163
:1047800010255DC08091F32499C0809128259091D7
:10479000292555C080910C2591C08091DF248EC0C1
:1047A0008091DD249091DE244AC08091F62486C059
:1047B0008091EC2483C080910E2580C08091F424E8
:1047C0007DC080912C25838380912D2511968C931B
:1047D000119780912E2512968C93129780912F25F8
:1047E00013968C9313978091302514968C9314977D
:1047F0008091312515968C931597809132251696C8
:104800008C9316978091332540C080911E259091FE
:104810001F2515C08091182551C08091EB244EC0F2
:104820008091F2244BC08091E0249091E12407C054
:104830008091012543C08091E3249091E4248383F7
:1048400094833DC08091D52483838091D624119692
:104850008C9311978091D72412968C931297809104
:10486000D82413968C9313978091D92414968C9303
:1048700014978091DA2415968C9315978091DB24F8
:1048800016968C9316978091DC2417968C93179725
:1048900016C08091ED2412C02091FA243091FB249F
:1048A0004091FC245091FD24238334834583568317
:1048B00006C08091D02402C08091E224838380E0EE
:1048C00001C084EF918192839EE19083818383E68E
:1048D00095E20E94CB0D0895EF92FF920F931F93E4
:1048E000DF93CF930F92CDB7DEB7082F7B01142F44
:1048F000823538F58E3408F093C0833409F490C0C3
:10490000843468F4853038F4823008F089C0882314
:1049100009F486C0E6C0823409F0E3C03DC08A34A1
:1049200009F444C08B3430F48434D9F1873409F06D
:10493000D8C076C08B3409F453C08C3409F0D1C090
:1049400057C0873509F46CC0883550F4853520F49C
:10495000833508F065C051C0863509F0C2C00BC070
:10496000893509F45DC0893558F08A3569F0803F92
:1049700009F0B7C055C0FB01808180936225AFC0AC
:10498000FB0180819181A7C0FB018081918180938F
:10499000282590932925A3C0FB01808180930E25B3
:1049A0009EC0FB0180818093022599C0FB0180811C
:1049B00080932C25818180932D25828180932E25C3
:1049C000838180932F2584818093302585818093F6
:1049D00031258681809332258781809333257FC05E
:1049E000FB018081918180931E2590931F2577C0C4
:1049F000FB0180818093182572C081E0FB019081CA
:104A0000992309F480E080930125882331F00E94E6
:104A1000E02286E00E94FE1562C00E94BA225FC0BA
:104A2000802FB7010E949712982F813871F40E944D
:104A3000EC15802FB7010E949712982F882309F058
:104A400051C081E08093742403C0882309F04AC0D8
:104A50009091EF24292F30E08091F2244091EB24B3
:104A6000642F70E0281B31092617370714F4492FEB
:104A7000481B50E0FB01E41BF50B21E030E002C0D5
:104A8000220F331F9A95E2F721503040E29FB00188
:104A9000E39F700DF29F700D112490E0480F591F95
:104AA00021E030E00AC0F901082E02C0EE0FFF1F1E
:104AB0000A94E2F76E0F7F1F01968417950799F706
:104AC00024E130E0629FC001639F900D729F900DC2
:104AD0001124865F9E4F80930F259093102590E0C0
:104AE00001C094EF112371F080917424882351F058
:104AF00080910125882331F499830E94CD1510926D
:104B000074249981892F0F90CF91DF911F910F917C
:104B1000FF90EF9008950F931F93CF93DF938C0135
:104B2000FC01C081D181BE016E5F7F4F898141E070
:104B30000E946C2499819A839FE19883898383E6FC
:104B400095E2B8010E94CB0DDF91CF911F910F919B
:104B50000895DF93CF9300D0CDB7DEB79091612554
:104B6000913079F469837A838B830E94E0228B8170
:104B700069817A810E9497128B830E94BA228B816D
:104B800002C00E9497122396CDBFDEBFCF91DF9166
:104B90000895883030F4E82FF0E0E05CFD4F849118
:104BA0000895982F9054903230F4E82FF0E0E85FA9
:104BB000FD4F84910895803F30F0E82FF0E0E858F1
:104BC000FE4F8491089580E00895CF93DF93EC0128
:104BD000E881F98183E280836183662311F00E947A
:104BE000BA2283E695E2BE010E94CB0DDF91CF9100
:104BF0000895DF92EF92FF920F931F93DF93CF936D
:104C0000CDB7DEB72997CDBFDEBFD82E80910D2559
:104C10008823E1F5809116258823C1F599870E94A4
:104C2000E022ED2C9985F92ED701ED91FC91119799
:104C30008181823031F42481358129833A8342E0B5
:104C400011C08481898385818A8386818B83878152
:104C50008C8380858D8381858E8382858F838385F8
:104C6000888743E00281138181E060E09E012F5F2D
:104C70003F4F99870E94321D9985882329F0D09251
:104C80001C2590931D2506C0C70101C08D2D61EE26
:104C90000E94E5252996CDBFDEBFCF91DF911F9100
:104CA0000F91FF90EF90DF90089580910D25823055
:104CB00039F480911C2590911D256BEE0E94E5250D
:104CC00010920D2510926025089580913625882335
:104CD000E1F080E00E94200880913625813021F4A7
:104CE00080915525882311F46BEE01C060E080911E
:104CF0000D25823031F480911C2590911D250E9454
:104D0000E5251092602510920D2508952F923F926F
:104D10004F925F926F927F928F929F92AF92BF92CB
:104D2000CF92DF92EF92FF920F931F93DF93CF9377
:104D3000CDB7DEB76A97CDBFDEBFBC014091162567
:104D4000423011F0443069F480910E25882349F0F7
:104D5000E0911C25F0911D25A081B181FD013996BE
:104D600004C0A0E0B0E0E0E0F0E0109144258091C4
:104D7000452590914625123069F41E821F821886BF
:104D800019861A861B8620914725309148252C8349
:104D90003D8318C0209147252C83209148252D83E1
:104DA000209149252E8320914A252F8320914B2540
:104DB000288720914C25298720914D252A872091ED
:104DC0004E252B870091ED24F090DF24809056250E
:104DD0009090572520915825E22EEE1CEE24EE1CD3
:104DE00070905025A0905125B0905225C090532529
:104DF000D0905425423019F0443009F077C020910A
:104E00000E25222309F472C018965C9018974C81E5
:104E10005D814C803D802E802F812E8B38853F8B8D
:104E20002985288F3A85398F2B852A8F662435C0AE
:104E3000218132818217930771F52081121759F56C
:104E40002385021741F52485F21629F5123031F435
:104E50002381348142175307F1F448C0238124157C
:104E6000D1F424812315B9F425812215A1F42681DA
:104E70003E89231781F427813F89231761F4208518
:104E8000388D231741F42185398D231721F422858C
:104E90003A8D231759F163947596651448F274C0DE
:104EA000AF019E012F5F3F4F0F2EF5E16F2EF02DCA
:104EB0002F01F90101909F01FA010192AF016A945B
:104EC000C1F7F2011083818392830387F48685867C
:104ED0009686E786708AA18AB28AC38AD48A18968F
:104EE0002C9118972F5F18962C931897509159254D
:104EF00020915C25222329F420910E25222309F0FC
:104F00003FC0DB01ED91FC9127E120832091382502
:104F100021839F012E5F3F4FDE01119645E12F0156
:104F20000D90F90101929F014150D1F7F2011283D6
:104F3000838394830587F6868786908AE18A728ABE
:104F4000A38AB48AC58AD68A80915925878B852FF2
:104F5000877011F4507731F080915A2590915B253C
:104F6000808F918F80915C25828F80915D259091BB
:104F70005E25838F948F83E695E20E94CB0D09C056
:104F8000CB010E94460D05C0252D253008F488CFA1
:104F9000ADCF6A96CDBFDEBFCF91DF911F910F914C
:104FA000FF90EF90DF90CF90BF90AF909F908F9049
:104FB0007F906F905F904F903F902F900895EF9269
:104FC000FF920F931F93DF93CF930F92CDB7DEB76E
:104FD000482F7B011092602580911625823029F49C
:104FE000FB018081873059F406C0833041F4FB0116
:104FF0008081863021F4842F0E94572BB0C0F701A6
:105000008081843009F457C0853030F4813039F123
:10501000833009F0A2C015C08B3009F44CC08D302C
:1050200021F0853009F099C090C0F7010681178101
:105030002085318581819281642F43810E94CA1F1E
:105040008CC0F70181819281642F0E94711F809131
:105050005F25813009F081C00E942E237EC0493E29
:1050600011F0413E49F4F70181819281642F4FEFA5
:105070005FEF0E94211671C080930D254091282575
:105080005091292560E070E094E0440F551F661FA1
:10509000771F9A95D1F780E020E00AEE17E1EE2421
:1050A000FF240E94F908882309F459C080E090E0A9
:1050B0000E94EA1754C0F7018181928149830E94BE
:1050C000460D80910D254981813009F448C0F701D2
:1050D00080818430A1F4473881F0E0911C25F09163
:1050E0001D25A081B18183E28C9311964C9383E6B8
:1050F00095E2BF010E94CB0D30C082E005C0493E61
:1051000061F1413E51F183E080930D2540910F25DF
:105110005091102560E070E084E0440F551F661F39
:10512000771F8A95D1F780E020E005E516E2EE24AE
:10513000FF240E94F90891E090936025882379F07C
:1051400080E090E00E9455260AC0F701818192819B
:105150000E94460D8EEE0E94F12C0E94BA220F9002
:10516000CF91DF911F910F91FF90EF900895EF92F3
:10517000FF920F931F931092202580910125882381
:10518000C1F4809161258823A1F488E00E94FE1576
:10519000883069F082E040E850E060E070E020E0B4
:1051A00007EB18E2EE24FF240E94F90802C00E94D7
:1051B000BA221F910F91FF90EF900895FC01A081FA
:1051C000B18181E28C9311966C9383E695E2BF01E5
:1051D0000E94CB0D0895DF92EF92FF920F931F93E1
:1051E000CF93DF93E82EE7017E01F92EE701E881F6
:1051F000F981E680F78000851185E114F10401054D
:10520000110529F480E090E00E94B7283BC080910E
:105210000D258823A1F580911625882381F50E940C
:10522000E02286E00E94FE15D82E81E080932025A2
:1052300082E00E94BB07882319F082E00E942008C8
:10524000B801A70184E0440F551F661F771F8A9598
:10525000D1F782E020E007EB18E2EE24FF240E9461
:10526000F908882349F0CE0168EE0E94DE2880E02C
:1052700090E00E94B7280AC03D2D363019F0CE01CB
:1052800062EF02C0CE0160E00E94DE28DF91CF9184
:105290001F910F91FF90EF90DF900895BC0183E67E
:1052A00095E20E94CB0D80910B258093772484E0BA
:1052B00067E774E20E94A92580911B2580937524DD
:1052C00080E065E774E20E94A925109216250E94ED
:1052D000BA220895CF93DF93C0912A25D0912B2530
:1052E000A881B981FD01E956FF4F1196CD93DC935A
:1052F0001297882339F087E08C93808383E098E0CD
:105300004AE01FC086E08C93808338978091D52433
:1053100080838091D62481838091D7248283809159
:10532000D82483838091D92484838091DA2485834F
:105330008091DB2486838091DC24878383E498EC4E
:1053400042E1EF012FEF3FEF3A932A932297288310
:105350003983EF0125972091182528832F5F20930B
:105360001825EF01279788839983389740831A96E9
:10537000ED93FC931B97CD0162E070E040E00E944A
:105380006D11882321F481E08093602501C080E0C5
:10539000DF91CF910895EF92FF920F931F93DF93C8
:1053A000CF930F92CDB7DEB790911625933009F4C5
:1053B00042C0943041F0923009F04FC0882309F088
:1053C00047C081E03AC0882309F042C086E00E94CD
:1053D000FE15863019F540EC53E060E070E0009077
:1053E000762404C0440F551F661F771F0A94D2F716
:1053F00040545C4F6F4F7F4F84E0440F551F661F32
:10540000771F8A95D1F781E020E007E21BE2EE24C6
:10541000FF240E94F908882301F113C080917524AC
:105420008F5F8093752460911C2570911D2582E00B
:105430000E94352A12C0882359F40E946A298823C1
:1054400061F481E08983CE0101960E94272B05C07B
:10545000809175248F5F809375240F90CF91DF9199
:105460001F910F91FF90EF900895CF92DF92FF92DE
:105470000F931F93DF93CF930F92CDB7DEB7982F83
:105480008B01DB01CD90DC9084E067E774E29983C7
:105490000E94A9256091162570910E258091752492
:1054A00099815EC0623011F0643039F4772329F0BD
:1054B000F6012085253008F056C0933039F4D60126
:1054C00018962C911897222309F099C0E82FEF5FC6
:1054D000D60114962D913D914D915C911797082E10
:1054E00004C056954795379527950A94D2F72170B1
:1054F00030702115310599F180937524913011F4A4
:1055000082E003C0923021F484E08093162504C029
:10551000933011F49093162580E065E774E20E94C1
:10552000A925F82E8823B9F080912A2590912B2562
:105530000E94460D10922A2510922B250E94BA2215
:105540008AEEF6018183108683E695E2B8010E9417
:10555000CB0D109216258F2D0E94CB296FC08E2F58
:105560008B3108F49FCF80937524923071F1933082
:1055700009F447C0913009F061C080912A259091CB
:105580002B250E94460D10922A2510922B258091E2
:105590000E25882341F0F6018085853010F08AEFD2
:1055A00009C0882329F0D60111961C92119703C0D7
:1055B0008AEEF601818380E561E275E20E94A92509
:1055C00080911C2590911D2537C080910E25882340
:1055D00041F0F6018085853010F08AEF09C08823FC
:1055E00029F0D60111961C92119703C08AEEF6019C
:1055F000818380E561E275E20E94A9251CC0809349
:10560000752480912A2590912B250E94460D109299
:105610002A2510922B25D60118968C91189788234D
:1056200021F011961C92119703C08AEEF601818336
:10563000D60118961C92C8010E944E290F90CF9156
:10564000DF911F910F91FF90DF90CF9008956091AF
:105650001C2570911D25FB012081918180911625CB
:105660008250833018F5E22FF92F81E090E0A0E01E
:10567000B0E00090752404C0880F991FAA1FBB1FBB
:105680000A94D2F780959095A095B09524813581A4
:1056900046815781282339234A235B23248335837A
:1056A00046835783809178240E94352A0895EF928B
:1056B000FF920F931F93DF93CF930F92CDB7DEB777
:1056C000909118259F5F909318258823A1F58091CC
:1056D0001625823091F440EC53E060E070E00090D9
:1056E000762404C0440F551F661F771F0A94D2F713
:1056F00040545C4F6F4F7F4F06C04091282550911A
:10570000292560E070E094E0440F551F661F771F65
:105710009A95D1F781E020E007E21BE2EE24FF2416
:105720000E94F9088823A1F081E08983CE010196C7
:105730000E94272B0DC0809175248F5F8093752464
:1057400060911C2570911D25809178240E94352A36
:105750000F90CF91DF911F910F91FF90EF900895DF
:10576000CF92DF92EF92FF920F931F93DF93CF932D
:105770000F920F92CDB7DEB7D82EC92E082F192F52
:10578000D801ED91FC9111978091ED2480931B2518
:105790008091DF2480930B259681909376248181DC
:1057A0008093782422813381448155812093792408
:1057B00030937A2440937B2450937C2467816093B8
:1057C0007724D0921C25C0921D256BE160838283D3
:1057D00024833583468357836091772463831086BF
:1057E000118660910D256623A9F460911625662324
:1057F00089F4211531054105510561F0377040707C
:10580000587F211531054105510521F49F3010F4D1
:10581000882341F488EE818383E695E2B8010E94F3
:10582000CB0D7CC00E94E022F801E080F1808BE08B
:105830008093752480917824813008F464C083308B
:1058400020F0833009F05FC049C08FEF9FEF89835C
:105850009A838091E0249091E12480932125909374
:10586000222580E5BE016F5F7F4F0E94A9258091B0
:105870007824813021F4D0922A25C0922B258AE900
:105880000E943F0D80931C2590931D250097D9F110
:1058900080917824823019F4C8010E94460D6091ED
:1058A0001C2570911D25DB01ED91FC9111978BE179
:1058B00080838091782482839091772493832091B0
:1058C000792430917A2440917B2450917C24248344
:1058D0003583468357831086118612C08AE90E9459
:1058E0003F0D80932A2590932B25009721F488EE75
:1058F000F70181830CC060911C2570911D2583E008
:105900000E94352A0BC088EED70111968C9383E64E
:1059100095E2B8010E94CB0D0E94BA220F900F9021
:10592000CF91DF911F910F91FF90EF90DF90CF907B
:105930000895CF93DF93EC0180912A2590912B2538
:105940000E94460D10922A2510922B2560911C254D
:1059500070911D25DB01ED91FC918BE1808311821B
:1059600083E082831482158216821782108683E672
:1059700095E20E94CB0D109216250E94BA22CE010C
:105980000E94460D80E566E575E20E94A92580919A
:105990005B2590915C25BFEF8F3F9B0729F083E546
:1059A0006BE575E20E94A9258091582590915925B3
:1059B00080931E2590931F25809134259091352545
:1059C00094FF05C084E06DE575E20E94A92580E0A2
:1059D0006AE575E20E94A9250E94CB29DF91CF914B
:1059E0000895E1E8F4E2E0937D24F0937E249DE1C4
:1059F00090938124818380911625882361F0809182
:105A00002125909122258283938380911B25848375
:105A100080910B250BC08091E0249091E12482833A
:105A200093838091ED2484838091DF24858383E6B2
:105A300095E26DE774E20E94CB0D80915F25823084
:105A400050F480911625882331F480910D25882308
:105A500011F40E94BA22109217250895CF93DF9374
:105A6000EC018FEE0E94F12CCE010E94460D80E5E4
:105A700066E575E20E94A92580915B2590915C25E1
:105A80002FEF8F3F920729F083E56BE575E20E94C7
:105A9000A925809158259091592580931E25909392
:105AA0001F25809134259091352594FF05C084E011
:105AB0006DE575E20E94A92580E06AE575E20E9425
:105AC000A925DF91CF91089583E695E20E94C40D48
:105AD0000E94C52208951F930E94A21F182F83E6DB
