:100000000C94C0000C9441030C94DF000C94DF00AE
:100010000C94DF000C94DF000C94DF000C94DF00E4
:100020000C94DF000C94DF000C94DF000C94DF00D4
:100030000C94DF000C94DF000C94DF000C94DF00C4
:100040000C946C030C94A5070C94DF000C94DF0057
:100050000C9474070C94DF000C94DF000C94DF0008
:100060000C94DF000C94DF000C94DF000C94DF0094
:100070000C94DF000C94DF000C94DF000C94DF0084
:100080000C94DF000C94DF000C94DF000C94DF0074
:100090000C94DF000C94DF000C94DF000C94DF0064
:1000A0000C94DF000C94DF000C94DF000C94DF0054
:1000B0000C94DF000C94DF000C94DF000C94DF0044
:1000C0000C94DF000C94DF000C94DF00E7E7E7E717
:1000D000E7E7E8E9EACAAAAB4525030405060708ED
:1000E000090AE7E7E7E7E7E7E8E9EACBABACAD48C1
:1000F00027060708090A0B0CC0A1818283606141B1
:1001000042222302030405060708090A0B0C491BB7
:100110002B145B1505253C26E220DB2A24284828E1
:100120009727D22E8D31000007334F2B000049183E
:10013000EF1760188F1877185C192219AF18000094
:1001400000009619F519D0184C1A7C191F1AC919F4
:10015000DF19361AB319010401010102010101017D
:100160000101010101010401080201010101020173
:100170000102010201010201020201010101080064
:1001800011241FBECFEFD1E2DEBFCDBF12E0A0E051
:10019000B2E0E0E3F2E700E00BBF02C007900D928F
:1001A000AC30B107D9F717E0ACE0B2E001C01D9266
:1001B000A030B107E1F70E9448010C9416390C9465
:1001C000000081E090E061E00E94D5080895EF9280
:1001D000FF920F931F9380E090E062E00E94D508A9
:1001E00085E040E251EA67E070E020E007EE10E0D1
:1001F000EE24FF240E941D061F910F91FF90EF90A7
:100200000895EF92FF920F931F93DF93CF93CDB793
:10021000DEB72C970FB6F894DEBF0FBECDBF82E0DD
:100220008A838EEB9AEB9C838B8380910C02909156
:100230000D029E838D830E94AA3889830091160245
:100240000F5F0093160282E0BE016E5F7F4F41E0B8
:100250009E012F5F3F4FEE24E3940E94153584E00A
:1002600040E854E86EE170E020E001E011E0EE24A7
:10027000FF240E941D062C960FB6F894DEBF0FBE19
:10028000CDBFCF91DF911F910F91FF90EF90089517
:100290000E94F834882311F00E94FE030E94CE08C9
:1002A00080E090E060E00E94D50880E090E061E0AE
:1002B0000E94D50881E090E061E00E94D508789422
:1002C00081E00E94F1360E94FF34FDCFEF92FF9251
:1002D0000F931F938823B1F481E04EEF57E060E065
:1002E00070E024E000E00E94863785E040E251EAB9
:1002F00067E070E020E007EE10E0EE24FF240E94AB
:100300001D0603C081E00E94F1361F910F91FF90FE
:10031000EF900895CF92DF92EF920F93DF93CF93F8
:1003200000D0CDB7DEB720912B022F5F20932B0298
:10033000882309F044C0EC2DFD2D30E03DC08385BD
:100340008130C1F584858823A9F5818192814AEBAA
:100350008E3B940779F58585968597FF2BC0808124
:10036000823039F48381948190930D0280930C0242
:100370001AC08330D9F5838180930E0284818093E3
:100380000F028581809310028681809311028781FC
:1003900080931202808580931302818580931402DA
:1003A00082858093150281E060E0AF0120E80E9421
:1003B000B0351FC071963F5F3E1508F202C08A3EFD
:1003C000A9F4233050F481E04EEF57E060E070E094
:1003D00024E000E00E9486370CC019821A8283E56F
:1003E000BE016F5F7F4F0E941F3703C081E00E94F4
:1003F000F1360F900F90CF91DF910F91EF90DF903A
:10040000CF900895AF92CF92EF920F93DF93CF9357
:100410000F92CDB7DEB7882301F5633521F481E073
:10042000898381E405C0613449F481E0898382E5F0
:10043000BE016F5F7F4F0E941F3712C0623569F4A3
:100440008EEB9AEB61E040E02FE00FE0EE24E394C6
:10045000CC24AA240E94B93703C081E00E94F1365F
:100460000F90CF91DF910F91EF90CF90AF900895C3
:10047000882349F485E00E94440580E090E060E034
:100480000E94D508089581E00E94F1360895EF9208
:100490000F931F93A0911702B0911802109701F1CA
:1004A000E0911902E217E1F4E0911A02E317C1F4B6
:1004B000E0911B02E417A1F4E0911C02E51781F41E
:1004C000E0911D02E61761F4E0911E02E71741F486
:1004D000E0911F02E81721F4E0912002E91749F1A9
:1004E000E0912102F0912202309701F10091230264
:1004F0000217E1F4009124020317C1F400912502D0
:100500000417A1F400912602051781F40091270237
:10051000061761F400912802071741F4009129029F
:10052000081721F400912A02091729F01097A9F45D
:1005300018C0E0E001C0E1E0AE2FB0E0FD01EE0F39
:10054000FF1F13E0AA0FBB1F1A95E1F7EA0FFB1F6D
:10055000E95EFD4F0081118123C0309719F5E1E07C
:1005600001C0E0E0F0E08F010F5F1F4FDF01AA0F35
:10057000BB1FEE0FFF1FEE0FFF1FEE0FFF1FAE0F93
:10058000BF1FA95EBD4FFD010193119312962C93DD
:100590001297318342835383648375838683978361
:1005A000EE2404C00FEF1FEFEE24E3940E94FB350E
:1005B0001F910F91EF9008950895EF92FF920F937E
:1005C0001F9381E090E060E00E94D50885E040E262
:1005D00051EA67E070E020E001EE10E0EE24FF2435
:1005E0000E941D061F910F91FF90EF900895EF92CA
:1005F000FF920F931F936623A9F485E00E944405A0
:1006000080E090E060E00E94D50884E040E854E893
:100610006EE170E020E001E011E0EE24FF240E9492
:100620001D0603C081E00E94F1361F910F91FF90DB
:10063000EF900895EF92FF920F931F93662381F43A
:1006400081E090E00E94D50885E040E251EA67E051
:1006500070E020E001EE10E0EE24FF240E941D0671
:100660001F910F91FF90EF90089590932D0280932A
:100670002C02E9E6F0E080818360808381E08CBB1E
:1006800008951F920F920FB60F920BB60F9211247E
:100690002F933F934F935F936F937F938F939F938A
:1006A000AF93BF93EF93FF93E0912C02F0912D0253
:1006B0000995FF91EF91BF91AF919F918F917F919C
:1006C0006F915F914F913F912F910F900BBE0F90C3
:1006D0000FBE0F901F9018951F920F920FB60F929A
:1006E00011240F900FBE0F901F90189580E090E09E
:1006F00020E80FB6F89420936100809361000FBE4C
:100700000E944D080E942D090E94850480E00895F2
:100710000E9437070895CF92DF92EF92FF920F93D6
:100720001F93CF93DF938B01EA01813031F4862F41
:10073000642FA9010E94630821C08823E1F4CA0143
:10074000860F971F40E181309407B8F4C22ED32E54
:10075000EE24FF240BC0C701800F911F0E94C338F5
:10076000F60181936F010894E11CF11CEC16FD0663
:1007700090F380E003C088EE01C085E8DF91CF915F
:100780001F910F91FF90EF90DF90CF900895AF925F
:10079000BF92CF92DF92EF92FF920F931F93CF936E
:1007A000DF93EC016B01CB018C0F9D1F20E18130A9
:1007B0009207C0F4E42EF52E00E010E00EC0CE014A
:1007C0000E94C338F70161917F01861719F0CE01AD
:1007D0000E94CB3821960F5F1F4F0C151D0578F333
:1007E00080E001C085E8DF91CF911F910F91FF90CC
:1007F000EF90DF90CF90BF90AF9008950E94CE0809
:100800008FEF9FEF0E94B50480E090E062E00E94CD
:10081000D50881E090E062E00E94D508F1CF6091B8
:10082000FD057091FE059B0140E050E0A9013327D2
:1008300022278091840090918500A0E0B0E0282BD1
:10084000392B4A2B5B2B8091FD059091FE05681793
:10085000790729F7B901CA0108951F93CF93DF9350
:100860001FB7F894809130028F3F09F449C0C82F18
:10087000D0E0FE0133E0EE0FFF1F3A95E1F7EC0FF9
:10088000FD1FE150FA4F80819181A281B3812091B7
:10089000FD053091FE052A173B0751F4909389001E
:1008A0008093880082E086BB80916F00826003C0E5
:1008B00080916F008D7F80936F000E940F04FE0176
:1008C00023E0EE0FFF1F2A95E1F7EC0FFD1FE1502B
:1008D000FA4F2081318142815381621B730B840B5B
:1008E000950B6F5F7F4F8F4F9F4F6F3F2FEF7207BB
:1008F0002FEF82072FE7920718F481E080932F02F1
:100900001FBFDF91CF911F91089510922E02109278
:100910002F021092FE051092FD058FEF809330029A
:100920008093310280933202E3E0F6E08483118207
:100930001082399696E0E933F907C1F70E9454080E
:100940000895882311F482E401C087E48093810034
:100950000895CF93DF93EC010E940F04688379839D
:100960008A839B83DF91CF9108954FB7F8948630A7
:10097000910518F12091840030918500280F391FCE
:1009800080918400909185008217930740F48091B4
:1009900084009091850082179307C8F30EC0809160
:1009A00084009091850028173907C8F3809184004E
:1009B0009091850082179307C8F34FBF089590E088
:1009C000FC0143E0EE0FFF1F4A95E1F7E80FF91F26
:1009D000E150FA4F81E0248135812115310509F478
:1009E00080E0089580912F02882309F44CC0109272
:1009F0002F0220912E02222309F445C0809131025A
:100A00008F3F59F4809132028F3F39F48091300248
:100A1000809332028093310212C030913002809173
:100A2000320290E0FC0173E0EE0FFF1F7A95E1F7D0
:100A3000E80FF91FE150FA4F30873093320280916E
:100A4000300290E0FC0163E0EE0FFF1F6A95E1F7D2
:100A5000E80FF91FE150FA4F8085809330028091B2
:100A6000320290E0FC0153E0EE0FFF1F5A95E1F7D0
:100A7000E80FF91FE150FA4F8FEF80872150209344
:100A80002E020E942D0408950F931F93082F863085
:100A900008F0CDC01FB7F8940E94F20440912E02D6
:100AA000442309F45BC050913002252F352F02C03A
:100AB000232F382F031709F041C0802F90E005172E
:100AC00081F4FC0153E0EE0FFF1F5A95E1F7E80FA8
:100AD000F91FE150FA4F8085809330020E942D0467
:100AE00019C030E0F90143E0EE0FFF1F4A95E1F72E
:100AF000E20FF31FE150FA4FDC0123E0AA0FBB1F06
:100B00002A95E1F7A80FB91FA150BA4F18968C91FA
:100B100018978087802F90E0FC01A3E0EE0FFF1F65
:100B2000AA95E1F7E80FF91FE150FA4F8FEF8087A0
:100B300080912E02815080932E0265C0832F90E019
:100B4000FC0173E0EE0FFF1F7A95E1F7E80FF91F44
:100B5000E150FA4F8085415009F0AACF409131020F
:100B6000342F242F4BC00217D9F5209132020417DD
:100B7000B1F4021721F48FEF809332020DC0802F61
:100B800090E0FC0163E0EE0FFF1F6A95E1F7E80FCC
:100B9000F91FE150FA4F80858093310234C0832FD2
:100BA00090E0FC0153E0EE0FFF1F5A95E1F7E80FCC
:100BB000F91FE150FA4F802F90E0DC0143E0AA0FCB
:100BC000BB1F4A95E1F7A80FB91FA150BA4F18965D
:100BD0008C91189780870217B1F43093320213C0BA
:100BE000822F90E0FC01B3E0EE0FFF1FBA95E1F712
:100BF000E80FF91FE150FA4F322F20852F3F09F0FF
:100C0000B2CF80E00FC0802F90E0FC01A3E0EE0F98
:100C1000FF1FAA95E1F7E80FF91FE150FA4F15827F
:100C2000148281E01FBF882321F080E003C08AE89E
:100C300001C089E81F910F9108952F923F924F9222
:100C40005F926F927F928F929F92AF92BF92CF925C
:100C5000DF92EF92FF920F931F93CF93DF93D82EE3
:100C60004A015B01C22E3701863008F0CBC0011566
:100C7000110509F4CBC0C82FD0E0FE0133E0EE0F20
:100C8000FF1F3A95E1F7EC0FFD1FE150FA4F848109
:100C90009581009709F0B8C00E940F049B01AC0138
:100CA000CC2029F06C2D613009F0B0C014C0D50102
:100CB000C40180589040A040B04080386FEF960744
:100CC0006FEFA6076FE7B60708F0A2C0820E931E6B
:100CD000A41EB51E13C0D501C40180589040A04089
:100CE000B040821B930BA40BB50B80382FEF9207FB
:100CF0002FEFA2072FE7B20708F08AC0CFB6F8940B
:100D00000E94F204509130025F3F31F0F0902E02C9
:100D1000652F452F70E054C0D0923002FE0123E0D1
:100D2000EE0FFF1F2A95E1F7EC0FFD1FE150FA4F80
:100D3000508735C04F3F09F442C0242F30E0F901FD
:100D400093E0EE0FFF1F9A95E1F7E20FF31FE150DA
:100D5000FA4F80819181A281B38114012501281A63
:100D6000390A4A0A5B0AD201C1018F3F2FEF92076D
:100D70002FEFA2072FE7B20718F4642F40851FC09A
:100D8000FE0183E0EE0FFF1F8A95E1F7EC0FFD1FD8
:100D9000E150FA4F4087541721F4D092300281E09D
:100DA00013C0862F90E0FC01B3E0EE0FFF1FBA9551
:100DB000E1F7E80FF91FE150FA4FD08656C07F5F88
:100DC0007F1508F4B7CF38C0FE01A3E0EE0FFF1F78
:100DD000AA95E1F7EC0FFD1FE150FA4F8082918256
:100DE000A282B382158304837782668290912E0259
:100DF0009F5F90932E02882311F00E942D04CFBE96
:100E000080E007C08AE805C088E803C088EE01C01A
:100E10008BE8DF91CF911F910F91FF90EF90DF90C2
:100E2000CF90BF90AF909F908F907F906F905F908A
:100E30004F903F902F900895862F90E0FC0173E033
:100E4000EE0FFF1F7A95E1F7E80FF91FE150FA4F17
:100E5000D086FE0163E0EE0FFF1F6A95E1F7EC0F0D
:100E6000FD1FE150FA4F8FEF808780E0ADCF1F93D9
:100E70001FB7F8940E94F2041FBF1FEF2FC03FB7A7
:100E8000F8948091310290E0DC0143E0AA0FBB1F8F
:100E90004A95E1F7A80FB91FA150BA4F18962C91A7
:100EA00018971496ED91FC91159716968D919C913B
:100EB000179718961C93189715961C921E921497C4
:100EC00017961C921E921697209331022F3F11F411
:100ED000109332023FBF309709F00995809131029B
:100EE0008F3F69F61F9108951F920F920FB60F92D0
:100EF0000BB60F9211242F933F934F935F936F93F1
:100F00007F938F939F93AF93BF93EF93FF938091C2
:100F1000FD059091FE0501969093FE058093FD05D9
:100F20000E942D04FF91EF91BF91AF919F918F91FE
:100F30007F916F915F914F913F912F910F900BBED9
:100F40000F900FBE0F901F9018951F920F920FB623
:100F50000F9211248F9380912E02882319F081E043
:100F600080932F028F910F900FBE0F901F901895B6
:100F7000469A3E9A47983F9A989AA098A09A46987F
:100F80003E9A47983F9A81B18C7F81B90895FC01C0
:100F90002091FD053091FE056091860070918700DB
:100FA00040E050E0A9013327222780E090E0262B83
:100FB000372B482B592B2083318342835383089549
:100FC000CF92DF92EF92FF920F931F930FB7F89497
:100FD000D090B100E0908100F09080001092B100BC
:100FE000109281001092800024E630E06FEF7FEFD6
:100FF000A0E01FEFB1E090E2C92EE4E2F4EF16BBEF
:1010000017BB1092B2001092850010928400B0932A
:101010008100B093B100C092B600B89BFECF109291
:1010200081001092B100809184009091850000971A
:1010300019F144EF8532940720F4AF01481B590B96
:1010400003C0AC014452544F4617570718F4A091FF
:101050006600BA0144EF8532940720F4809166005F
:101060008F5F03C08091660081508093660021509D
:10107000304029F681E001C080E0D092B100E092DA
:101080008100F09280000FBFA09366001F910F9126
:10109000FF90EF90DF90CF900895209A219A259AA3
:1010A000229A249A2398089582E48093810082E012
:1010B00086BB84E086BB88E086BBEFE6F0E08081FB
:1010C000816080830895DF93CF93CDB7DEB7C0549E
:1010D000D0400FB6F894DEBF0FBECDBFFE013196F3
:1010E00090E023E07DB3E8982D9828980000000058
:1010F0000000000000000000000000002EBD0DB444
:1011000007FEFDCF392F3F773EBD0DB407FEFDCF63
:101110001EBC0DB407FEFDCF3EB5289A2D9A7DBBAF
:1011200031939F5F9034F1F6DE01AF5BBF4F20E05B
:1011300030E0FE01319691912927022E2295207FE1
:101140002025032E322F22952F7002262695322736
:101150002327220F220F220F2025EA17FB0759F71A
:101160002115310581F4FA01DE011196A80FB11D98
:10117000CA01860F911D02C02D912193E817F9072E
:10118000D9F780E001C085E8C05CDF4F0FB6F89466
:10119000DEBF0FBECDBFCF91DF9108951092330215
:1011A000109A119A0E94B807089552B15C7F089A6C
:1011B000099A41E08130910509F040E0662329F069
:1011C00070913302613061F415C081E090E002C09B
:1011D000880F991F4A95E2F720913302282B13C0FC
:1011E000272F30E0042E02C0359527950A94E2F7A8
:1011F00020FF0CC021E030E002C0220F331F4A95CF
:10120000E2F720952723209333020AC081E090E083
:1012100002C0880F991F4A95E2F7872B809333020B
:101220008091330280958370852B82B90E94B80724
:1012300008950895469A3E9A47983F9AA198999A98
:10124000109A089890B1A19A089A46983E9A4798A1
:101250003F9A81E090FD80E0089580E58CBD81E0BB
:101260008DBD8CB58C7F8CBD289A08959DB3E89870
:10127000806C28988EBD0DB407FEFDCF6EBD0DB4F9
:1012800007FEFDCF289A9DBB08959DB3E89880681E
:1012900028988EBD0DB407FEFDCF1EBC0DB407FE11
:1012A000FDCF8EB5289A9DBB0895289820E22EBDCB
:1012B0000DB407FEFDCF1EBC613089F0262FFC0166
:1012C0000DB407FEFDCF3EB51EBC31932150223038
:1012D000B8F7625070E06F5F7F4F860F971F0DB4B5
:1012E00007FEFDCF2EB5FC012083289A0895FC014E
:1012F000289880E68EBD0DB407FEFDCF8191615028
:101300000DB407FEFDCF8EBD6623C1F70DB407FEF9
:10131000FDCF289A0895DF93CF9300D0CDB7DEB7E5
:101320004A8369830E9445096981862390E04A8146
:1013300002C0959587954A95E2F70F900F90CF914F
:10134000DF9108951F93DF93CF9300D00F92CDB715
:10135000DEB7182F2B834A8369830E9445092B81AE
:1013600030E04A8102C0220F331F4A95E2F76981BB
:10137000262360956823622B812F0E9436090F90E7
:101380000F900F90CF91DF911F910895EF92FF92F0
:101390000F931F93CF93DF9384E392E00E947C0A24
:1013A00009E312E09DEBE92E95E0F92EC0E0D0E0D4
:1013B000F70111830083BE01660F771F660F771F49
:1013C00063547A4F84E392E00E94830A21960A567E
:1013D0001F4F84E090E0E80EF91EC630D10541F7BA
:1013E000DF91CF911F910F91FF90EF90089584E3CB
:1013F00092E060E070E00E949E0A0895BC010097B0
:1014000021F084E392E00E94830A08956F927F9214
:101410008F929F92BF92CF92DF92EF92FF920F93A3
:101420001F93CF93DF938C014B016A01BFB6F894F1
:10143000DC0114968C911497882309F44BC0CD914C
:10144000DC91119741155105C1F07E0113C0F601E1
:10145000628173810190F081E02D888199810995E5
:10146000882371F47E019A818B81692EE3013E010C
:10147000782EE301209759F72FC0209769F17E015C
:101480008114910449F5D8012D913C9111978A81DD
:101490009B81C217D30721F411969C938E9303C0AE
:1014A000F70193838283D80112968D919C911397B3
:1014B000C817D90721F41396FC92EE921297F801FF
:1014C00084818150848380819181009729F41382E3
:1014D000128202C0C0E0D0E0BFBECE01DF91CF914A
:1014E0001F910F91FF90EF90DF90CF90BF909F9052
:1014F0008F907F906F900895FC011182108213826B
:10150000128214820895FC019FB7F8948481882385
:1015100019F47183608306C0A281B38113967C9312
:101520006E93129773836283DB0113961C921E9253
:10153000129784818F5F84839FBF0895AB0160E021
:1015400070E00E94060A0895AB0161E070E00E941D
:10155000060A0895CF93DF93EC010BC0CE0160E043
:1015600070E00E949E0A009711F41C8205C00E9440
:10157000FE098C81882391F7DF91CF9108951F9305
:1015800081E06FE140E00E948B098830A1F48FE098
:101590000E94450982E069E00E94360910E08FE070
:1015A0000E94450980FD07C088EC90E00E94B504C8
:1015B0001F5F1330A1F71F9108951F93DF93CF93FF
:1015C0000F92CDB7DEB7182F809155068F3029F5D1
:1015D00010925E0685E893E10E94350381E08CBBA2
:1015E000E89A8FB7F89478942C9890915E06992396
:1015F000E1F38FBF8FE00E94450981E793E10E94EC
:1016000035038EE068E00E943609183011F013307F
:1016100021F488E08093550662C181E06FE140E0EB
:101620000E948B0980935506183009F447C0193081
:1016300050F4143009F47CC0163009F486C013301D
:1016400009F044C14BC01F3069F0103120F419304B
:1016500009F03CC153C0163109F4A0C0193109F09A
:1016600035C1E8C082E063E00E9436090E94AA38D2
:10167000682F8DE299830E9436098EE267E040E090
:101680009981292F0E94A2098FE00E9445098EE0CE
:101690006FEF40E020E10E94A2090000000000007E
:1016A000000000000000000000002C9A83E290E09F
:1016B0000E94B504109355068FE011C1883009F4DB
:1016C00005C182E068E00E943609000000000000C9
:1016D00000000000000000000000F8C0883009F49D
:1016E000F5C082E063E00E943609000000000000BF
:1016F00000000000000000000000E8C08830E9F0B1
:10170000893020F4863009F0E1C005C0863119F037
:10171000893109F0DBC082E069E00E9436090000EF
:101720000000000000000000000000000000CEC02B
:10173000883019F0893021F4C9C00E94BF0AC6C0A0
:1017400082E064E00E943609C1C0893059F08A30D5
:1017500020F4883009F0BAC012C0863119F08931FE
:1017600009F0B4C082E066E00E9436090000000083
:10177000000000000000000000000000A7C00E9460
:10178000BF0A82E066E00E94360900000000000007
:101790000000000000000000000098C08830C1F088
:1017A000893020F4863009F091C021C0893019F0C9
:1017B000893109F08BC082E066E10E9436090000A1
:1017C00000000000000000000000000000007EC0DB
:1017D0000E94BF0A82E066E10E9436090000000014
:1017E0000000000000000000000000006FC082E068
:1017F00069E00E94360900000000000000000000BF
:1018000000000000000081E06FE140E00E948B09D1
:1018100080935506893009F062C082E066E10E943B
:101820003609000000000000000000000000000079
:1018300000004CC0883009F43BC0893020F4863069
:1018400009F044C013C0893021F0863109F03EC050
:101850000DC082E069E10E9436090000000000002E
:101860000000000000000000000030C082E069E0DD
:101870000E94360900000000000000000000000087
:101880000000000081E06FE140E00E948B0980933E
:101890005506893021F582E069E10E943609000091
:1018A00000000000000000000000000000000EC06A
:1018B0000E94BF0A82E069E10E9436090000000030
:1018C00000000000000000000000000081E06FE167
:1018D00040E00E948B09809355068F31B9F30F9039
:1018E000CF91DF911F910895809146068823E1F002
:1018F00080915F068823C1F48091D5059091D6052B
:10190000009739F486E90E94F7099093D6058093F1
:10191000D5058091D5059091D605009729F01092B4
:10192000460686E10E94DD0A80914B06882351F02D
:1019300087E496E060E070E00E949E0A009711F054
:101940000E94080D80915F06823019F0853031F4D5
:1019500003C00E94430D08950E94A90E0895DF92CE
:10196000EF92FF920F931F93DF93CF9300D0CDB7E9
:10197000DEB7E091D505F091D605309731F4CE0170
:10198000029661E00E94550939C0E080F18087E04D
:101990000E944509D82ECE01019661E00E945509AA
:1019A000698167FD2BC0862F8D5F06E910E0081B5B
:1019B00011090E0D1F1D6E5FC8010E945509F70128
:1019C000108707838981F801E80FF11DD2826091A9
:1019D000D5057091D60587E496E00E94830A86E9D2
:1019E0000E94F7099093D6058093D505009731F4AE
:1019F00089E00E94DD0A81E0809346060F900F90F7
:101A0000CF91DF911F910F91FF90EF90DF9008959C
:101A1000CF93DF939C01FC01C081D181AF81B88558
:101A2000EC91E0935706F0E03196EA0FFB1F6081DE
:101A30004181493218F4442319F003C048E201C03F
:101A400041E062956695669563708FEF689FB0017F
:101A5000112450E0649FC001659F900D749F900D0C
:101A6000112468E770E00E9448386F3F710511F05B
:101A700008F06FEF60833A832983CE010E94041E31
:101A8000DF91CF91089510925F06E091D705E8307D
:101A900028F4F0E0E050FE4F808101C085E86091BD
:101AA0005106709152060E944F2D0895FF920F9398
:101AB0001F93CF93DF938C01EB01F42E442331F07D
:101AC0008CE260EF44E02091540604C08CE260EFA9
:101AD00044E020E00E94A209C230D10598F4FF2022
:101AE00061F08CE26EE041E020914C060E94A20978
:101AF0008FE260E00E94360916C08CE26EE041E0A1
:101B000027E00FC0609150066295607F8091530678
:101B1000682B8FE20E9436098CE26EE041E0209152
:101B20004C060E94A20989E10E94DD0A8931D9F799
:101B3000E898C130D10579F580915706909140061B
:101B40008331A0F080914E06992329F4882341F433
:101B500087EA97E01EC0882331F487E196E019C038
:101B60008FEB93E016C087E592E013C080914E069C
:101B7000992329F4882341F48FE292E00AC0882354
:101B800031F487EB91E005C083E091E002C087E982
:101B900090E00E94B5042C9A2C98C801F80160814D
:101BA0000E94770981E080935F06E89ADF91CF91E8
:101BB0001F910F91FF90089520915F06222389F4D1
:101BC0009093520680935106FC01878190859093F3
:101BD000590680935806009731F00E94560D80E018
:101BE000089586E8089588EE0895882311F087E027
:101BF00005C082E060EE45E00E948B098093D70526
:101C000082E080935F068091D5059091D60500977C
:101C100039F489E00E94DD0A81E080934606089548
:101C200086E10E94DD0A08958FE00E94450984FF45
:101C300028C087E00E9445099091D805981710F4B4
:101C40008093D8058091D9059091DA05A091DB05A4
:101C5000B091DC050197A109B1098093D905909352
:101C6000DA05A093DB05B093DC050097A105B1056B
:101C700029F087E06FEF0E943609089585E0809390
:101C80005F0608951F93182F80915F06882339F00F
:101C9000809155068F3009F059C081E858C0E89806
:101CA00084E00E94DD0A8FE00E94450985E160E83A
:101CB00047E021E00E94A20984E19EE00E943503F2
:101CC0008EE06FEF40E020E10E94A209E89A86E0F2
:101CD0000E94DD0A863089F085E160E847E020E077
:101CE0000E94A20981E793E10E9435038EE068E03B
:101CF0000E943609E89A85E82AC087E06FEF0E94C3
:101D0000360984E080935F061092D80520EC33E01A
:101D100040E050E004C0220F331F441F551F1A95A6
:101D2000D2F720543C4F4F4F5F4F83E05695479575
:101D3000379527958A95D1F72093D9053093DA0501
:101D40004093DB055093DC0580E001C086E81F91DD
:101D5000089585E160E847E020E00E94A20981E75C
:101D600093E10E9435038EE068E00E943609E89A0C
:101D700010925F0686E10E94DD0A8091D8058F33BC
:101D800020F08FEF8093D8050AC09FEF899FC00194
:101D900011246EE370E00E9448386093D80580916A
:101DA000D8050E946D3208958091350685FD02C0E8
:101DB0008F7305C081958F718195863F14F1909145
:101DC0004006923049F0953099F09923A9F490910A
:101DD0004E06992349F40CC090914E06992321F4A4
:101DE000843064F083E011C08B3044F08AE00DC091
:101DF000863024F085E009C080324CF487FF05C0AE
:101E000001C085EF8F71806A03C0806801C08FE9CF
:101E100080933506089585FD02C08F7303C08195B8
:101E20008F71819590914006953049F4992787FDEF
:101E30009095E6EDF0E0E81BF90B84910895209170
:101E40004E06992787FD9095222331F4ECEEF0E0C1
:101E5000E81BF90B84910895E2E0F1E0E81BF90B2F
:101E60008491089590914006992329F048E050E02C
:101E700022E030E004C040E250E028E030E0420FD1
:101E8000531F992319F420E034E002C020E031E030
:101E9000240F351F30933F0620933E06992319F0F7
:101EA00038E022E002C030E228E0230F20935606FB
:101EB000992311F498E001C092E090934D0682308E
:101EC00089F0853009F452C0882309F096C08CE06F
:101ED00068E043E020E00E94A20986E163E040E080
:101EE00023E010C08CE068E043E021E00E94A209FA
:101EF00086E163E040E022E00E94A2098CE063E01A
:101F000040E020E00E94A20980914E06882321F43F
:101F10008CE064E042E009C08CE064E042E021E053
:101F20000E94A2098CE060E144E020E00E94A20946
:101F300087E164E042E020E00E94A2098FEF97E091
:101F4000A0E0B0E080935A0690935B06A0935C06F5
:101F5000B0935D0684E167E040E020E00E94A209C2
:101F600088E06FE140E020914E0643C08CE068E0DD
:101F700043E021E00E94A20986E163E040E022E024
:101F80000E94A2098CE063E040E020E00E94A209E8
:101F90008CE060E144E021E00E94A2098CE064E072
:101FA00042E021E00E94A20987E164E042E020E0F3
:101FB0000E94A2098FE090E0A0E0B0E080935A0672
:101FC00090935B06A0935C06B0935D0680914E06ED
:101FD000843010F010924E0684E167E040E024E087
:101FE0000E94A20920914E06220F255F83E16FEF28
:101FF00040E00E94A20981E0089580E008951F93C7
:1020000084E080934C0623E0209353068FEF9FEFEC
:102010009093420680934106909345068093440630
:1020200011E010934E061092400688E294E09093DF
:102030003F0680933E0688E28093560688E08093B0
:102040004D0685E080935006209354068AE88093DD
:1020500035060E94D40E1093430610924F061F912E
:1020600008951F93CF93DF9382E2609141060E940F
:10207000360983E2609142060E943609C6E3D6E043
:1020800014E2812F69910E9436091F5F1C32C9F743
:1020900080E2609144060E94360981E26091450623
:1020A0000E94360988E060E645E0209143060E94E0
:1020B000A2098FE26FE040E0209153060E94A2093E
:1020C0008EE268E043E020914F060E94A2098FE271
:1020D00060EF44E0209150060E94A20980914006E2
:1020E0000E94320F809135060E940B0F682F85E009
:1020F0000E943609DF91CF911F910895FF920F93AF
:102100001F93CF93DF93EB0190915F06943009F416
:1021100014C18E3431F0893541F48881809354069E
:1021200006C1888180934C0602C1209155062F304C
:1021300009F4FFC08B3009F4F2C08C3078F482309F
:1021400009F4B5C0833018F48823E1F1F4C083307A
:1021500009F4BBC0843009F0EEC085C0833521F19D
:10216000843530F48F3459F0803509F0E4C00EC066
:10217000873509F495C0803F09F0DDC0ADC02881E6
:10218000209353068FE26FE040E0CFC088819981B1
:10219000682F809341069093420682E20E9436099E
:1021A00083E2609142068EC088819981682F809376
:1021B00044069093450680E20E94360981E26091D0
:1021C000450680C0992309F0B8C080914006388147
:1021D000853029F48FE090E0A0E0B0E004C08FEFFC
:1021E00097E0A0E0B0E004C0B695A79597958795D5
:1021F0003A95D2F780FFA3C000914E068881809364
:102200004E06283039F088E00E94DD0A8830D9F780
:1022100016E101C018E08091400620914E068530FD
:1022200029F4220F255F83E16FEF06C0222341F0DE
:10223000002331F088E06FE140E00E94A2090CC069
:102240000E94320F0E94D40E809135060E940B0F1F
:10225000682F85E00E943609183009F468C086E1CD
:102260000E94DD0A64C0992309F067C0283039F064
:1022700088E00E94DD0A8830D9F706E101C008E055
:102280001881812F0E94320FF82E083019F086E154
:102290000E94DD0AFF2009F452C0109340060AC0D4
:1022A0002881209350068FE260EF44E03EC0888191
:1022B000809335060E94D40E809135060E940B0F44
:1022C000682F85E00E94360932C02881209343069A
:1022D00088E060E645E029C08881809336068981E0
:1022E000809337068A81809338068B8180933906E4
:1022F0008C8180933A068D8180933B068E818093FA
:102300003C068F8180933D06C6E3D6E014E2812F20
:1023100069910E9436091F5F1C32C9F708C02881E5
:1023200020934F068EE268E043E00E94A20980E01D
:1023300007C081E805C084EF03C086E801C088EECD
:10234000DF91CF911F910F91FF9008950F931F93ED
:10235000CF93DF9386E00E94DD0A8630D9F785E1CE
:1023600060E847E020E00E94A2090DB3E89818E079
:10237000C0E0D0E086E060E645E00E948B099E0167
:10238000220F331F220F331FC82FD0E0C22BD32BB5
:10239000000000000000000000000000000000003D
:1023A000115041F783E00E94DD0A8FE00E94450949
:1023B00081E08CBB0DBBCE010E94AF38DF91CF9185
:1023C0001F910F9108950F931F93DF93CF9300D028
:1023D000CDB7DEB7182F81E065E170E041E050E055
:1023E0009E012F5F3F4F0E948B032C988CE791E05A
:1023F0000E94B5042D9881E090E00E94B5042D9ACA
:1024000000E084E690E00E94B50481E06FE140E0E6
:102410000E948B090A30C9F0883011F00F5FF1CFAC
:102420008093550629812223C1F082E16FE040E0CC
:102430000E94A20912C00E94FF0F0E943110109248
:102440005F061092460680E001C085E80F900F906D
:10245000CF91DF911F910F91089583E060E344E0F5
:1024600020E00E94A20983E068E043E020E00E94AF
:10247000A20983E067E040E021E00E94A2090E94F7
:10248000AA38682F8DE29A830E9436098EE267E0AF
:1024900040E09A81292F0E94A20980E00E948E13B9
:1024A0000E94B1138EE260E245E021E00E94A209A1
:1024B0008CE060E847E021E00E94A20984E062E04D
:1024C00041E021E00E94A2098EE068E00E94360906
:1024D0000E94A611112309F4B0CFADCF0E94E311E1
:1024E000882359F017C087E496E060E070E00E940E
:1024F0009E0A009711F00E94FE0980914B068823E6
:1025000091F781E793E10E94350381E08CBBE89A63
:1025100080E0089585E808951F93CF93DF930E948C
:102520007603882309F0D8C02D9A2C988AE491E08C
:102530000E94B50410E02D9881E090E00E94B5045F
:102540002D9A1A3009F4C8C084E690E00E94B504C0
:102550008CE10E944509873011F01F5FECCF83E0CA
:1025600067E040E021E00E94A20982E063E00E946F
:10257000360910E084E690E00E94B50481E06FE146
:1025800040E00E948B091A3009F4A6C0883011F08F
:102590001F5FF0CF8093550681E060E070E048E077
:1025A00050E026E336E00E948B0381E00E94E311B5
:1025B000882351F091C0C6E3D6E00E94AA388993DF
:1025C00086E0CE33D807C9F78091360620913706CA
:1025D000509138066091390670913A06E0913B06B9
:1025E000F0913C06A0913D06382F315041E038175C
:1025F00008F040E0822F815091E0821708F090E0CF
:10260000480F21E0481708F020E0922B252F215099
:1026100081E0251708F080E0592F520F91E0521702
:1026200008F090E0892B262F215091E0261708F022
:1026300090E0682F620F81E0621708F080E0982B2D
:10264000272F215081E0271708F080E0792F720FA3
:1026500091E0721708F090E0892B2E2F215091E025
:102660002E1708F090E0E82FE20F81E0E21708F063
:1026700080E0982B2F2F215081E02F1708F080E069
:10268000920FF1E0921708F0F0E08F2BA195A817B8
:1026900079F49F3F69F4EF3F59F47F3F49F46F3F6E
:1026A00039F45F3F29F44F3F19F43E3F08F083CFE0
:1026B00081E793E10E943503E89A0E94C60986E902
:1026C0000E94F7099093D6058093D50587E496E09C
:1026D0000E947C0A80E001C085E8DF91CF911F91C4
:1026E00008958FE00E94450983FF0EC020915F0688
:1026F000213041F486FF02C081E001C080E00E94E9
:10270000F50D08950E94AF0C08958FE00E944509D1
:1027100084FF03C081E080935E0608958823C9F496
:10272000809155068F30B9F080915F068823A9F417
:102730001092460688E00E94DD0A8830D9F780E0D2
:102740000E94A1048FE00E94DD0A8F3041F480E0F6
:10275000089588EE089581E8089586E8089586E84A
:102760000895809155068F3051F488E00E94DD0A6B
:10277000883039F481E00E94A10480E0089582E865
:10278000089585E8089590915F069923B9F48830FB
:1027900031F40E94DD0A1092460688E00895809187
:1027A000D5059091D605009721F086E10E94DD0ABB
:1027B00003C081E08093460686E0089586E8089588
:1027C000FC01A081B18184E18C9313966C931397E3
:1027D00012965C934E9311978BEF96E0BF010E9487
:1027E000830A08950F931F93DF93CF9300D0CDB743
:1027F000DEB780918406909185066BEE4FEF5FEF18
:102800000E94E013109273060FEF1FEF1A830983E3
:1028100080E5BE016F5F7F4F0E94F92A1093BB06CF
:102820000093BA061092C8061092C9061092CA0602
:102830001092CB061092CC061092CD061092CE06C6
:102840001092CF060E945F270F900F90CF91DF91DB
:102850001F910F910895DF92EF92FF920F931F93B4
:10286000DF93CF93CDB7DEB72F970FB6F894DEBFC7
:102870000FBECDBF7C01DE011196FC01508141816C
:10288000252F342FF9012FE001900D922150E1F70F
:1028900080938406909385068C81823019F48F8111
:1028A00098851AC08F818093C80688858093C90651
:1028B00089858093CA068A858093CB068B85809311
:1028C000CC068C858093CD068D858093CE068E8533
:1028D0008093CF068EEF9FEF9093BB068093BA064E
:1028E00080E5BE016B5F7F4F0E94F92A0E94892715
:1028F000D7010D911C9181E0F8018083F282E18281
:10290000EE56FF4F80838F858183DF01189780917A
:1029100036068C938091370611968C93119780918F
:10292000380612968C9312978091390613968C93E1
:10293000139780913A0614968C93149780913B06D6
:1029400015968C93159780913C0616968C93169746
:1029500080913D0617968C93DF011A978FEF9FEFBA
:1029600011969C938E938C81823059F43C97809180
:10297000BA069091BB069183808383E298EC45E18F
:102980001CC072978091C80680838091C90681839C
:102990008091CA0682838091CB0683838091CC0686
:1029A00084838091CD0685838091CE068683809135
:1029B000CF06878383E29CEC4BE1DF0112972091E5
:1029C0004106309142062D933C93DF0113972091ED
:1029D0007F062C932F5F20937F06DF0115978D9341
:1029E0009C9336974083D8011896FC93EE931797E3
:1029F00084E0BE016D5F7F4F0E94F92AD82E80E0EF
:102A0000BE016E5F7F4F0E94F92ADD2071F488239A
:102A100061F4C80162E070E041E00E94DC0D8823AF
:102A200021F481E08093F80608C0C70161EE4FEF02
:102A30005FEF0E94E0130E945F272F960FB6F89475
:102A4000DEBF0FBECDBFCF91DF911F910F91FF90E1
:102A5000EF90DF900895BC01FC019081818120916D
:102A60006006222321F4CB010E94FE090895E92F7C
:102A7000F82F8091E30681838091E4068283809120
:102A8000E50683838091E60684838091E70685834B
:102A90008091E80686838091E90687838091EA0623
:102AA00080878091EE06818783E180838BEF96E0BB
:102AB0000E94830A0895CF92DF92EF92FF920F93C4
:102AC0001F93CF93DF93BC01FC01C081D181D980DA
:102AD000EA80FB800C811D815E814F81388589856C
:102AE0009A85CB842091F7062250223020F0CB012A
:102AF0000E94FE095CC022E02883DE01A057BF4F80
:102B0000FD01219312969C938E931197C282FD0131
:102B10003897809136068083809137068183809133
:102B20003806828380913906838380913A068483B4
:102B300080913B06858380913C06868380913D068B
:102B400087833897D082E182F2820383148355838E
:102B500046833783FD01729780914106909142062A
:102B600091838083FD01739780917F0680838F5FBF
:102B700080937F06FD01759783E69CEC91838083AB
:102B800056978BE18C93B887AF831E8282E696E0DE
:102B90000E94830A80918106909182069D838C8396
:102BA00081E00E94DF04882311F40E948324DF91D6
:102BB000CF911F910F91FF90EF90DF90CF900895EC
:102BC000FF920F931F93DF93CF9300D0CDB7DEB763
:102BD000F090F0060E94FE09FF20B1F583E56EEE4D
:102BE00076E00E94F92A4091EE065091EF0680911E
:102BF000E3068093C8068091E4068093C90680911D
:102C0000E5068093CA068091E6068093CB06809104
:102C1000E7068093CC068091E8068093CD068091EC
:102C2000E9068093CE068091EA068093CF0681E084
:102C30008093F7061092730680917E06833031F5FB
:102C400082E080937E0622C0109273060FEF1FEF82
:102C50001A83098380E5BE016F5F7F4F0E94F92AC6
:102C60001093BB060093BA061092C8061092C906CC
:102C70001092CA061092CB061092CC061092CD0686
:102C80001092CE061092CF064FEF5FEF8091840630
:102C9000909185066F2D0E94E0130E945F270F9090
:102CA0000F90CF91DF911F910F91FF900895CF92D8
:102CB000DF92EF92FF920F931F93909140068091C5
:102CC0004E069923C1F46091C4067091C50688230D
:102CD00039F480E090E022E330E040E050E006C0CC
:102CE00080E090E029E130E040E050E00E942938A7
:102CF0006B017C0117C06091C4067091C5068823E2
:102D000039F480E090E028E230E040E050E0EECF9F
:102D10006B01EE24FF2484E0CC0CDD1CEE1CFF1CB8
:102D20008A95D1F780E061E040E020E030E000E00B
:102D300010E00E94731E882351F4809184069091C4
:102D4000850661EE4FEF5FEF0E94E01310C080E058
:102D5000B701A60120E002EF13E1EE24FF240E9458
:102D60001D06882321F080E090E00E94F2131F915D
:102D70000F91FF90EF90DF90CF9008952091DF05A5
:102D80002730E8F4FC01A781B08512968C91129748
:102D9000869586958370823091F4E091DD05F091FF
:102DA000DE053297F093DE05E093DD0516968D91F2
:102DB0009C911797918380832F5F2093DF0580E09C
:102DC00008952091DF052730F0F4DC011796ED918E
:102DD000FC9118978281869586958370833099F44B
:102DE0008091DD059091DE0508979093DE05809334
:102DF000DD05DC01369688E001900D928150E1F707
:102E00002F5F2093DF0580E00895BF92CF92DF927D
:102E1000EF92FF920F931F93DF93CF9300D000D0D8
:102E20000F92CDB7DEB7DB01ED90FC901197F70163
:102E3000728361838AE0808387010C561F4F409123
:102E40008006442371F0041B1109242F235FE6E858
:102E5000F6E0C801BF0150E02D830E94BA382D81F1
:102E600001C02DE080916606882309F443C01093C9
:102E7000DE050093DD051092DF0581EE96E19A8371
:102E8000898382E696E06E010894C11CD11CB601CC
:102E90002D830E94A40AB090DF051092DF058EEB0F
:102EA00096E19A83898382E696E0B6010E94A40A9D
:102EB0003091DF05A091DD05B091DE051197EB2D76
:102EC000F0E0CF0124E0880F991F2A95E1F7832BCA
:102ED0008C93EE0FFF1FEE0FFF1FE30FF11DEE0FA0
:102EE000E093DF052D812E0FF0E0E095F095E00FE7
:102EF000F11F02C0F801129212928091F7068330FE
:102F000019F08FEF9FE002C08FEF9FE430916006D1
:102F100031119068DF019E938E93809144069091C9
:102F200045063FEF8E3F9307E9F43A972A5F809179
:102F300036068083809137068183809138068283AC
:102F400080913906838380913A06848380913B0681
:102F5000858380913C06868380913D06878380E04F
:102F600090EC05C0FD019293829380E090E8DF0130
:102F7000129740914106509142064D935C93DF01B8
:102F8000139730917D063C933F5F30937D06DF01C0
:102F900015978D939C9336972083D7011896FC93B1
:102FA000EE931797C70162E070E040E00E94DC0DED
:102FB00081E08093F8060F900F900F900F900F9084
:102FC000CF91DF911F910F91FF90EF90DF90CF9005
:102FD000BF900895BC0180E00E9405170895CF922C
:102FE000DF92EF920F93DF93CF93CDB7DEB7669763
:102FF0000FB6F894DEBF0FBECDBF6C01DC01ED91C2
:10300000FC9181818983828193819B838A838481DE
:103010008C8385818D8386818E8387818F83808554
:1030200088878185898782858A8783858B87848540
:103030008C87858596859E878D8787858F878089F4
:10304000888B8189898B82898A8B83898B8B848900
:103050008C8B85898D8B86898E8B228D338DCE01CD
:103060000196BE01645F7F4F418D0789E08C0E940D
:10307000DD02C6010E94FE0966960FB6F894DEBF17
:103080000FBECDBFCF91DF910F91EF90DF90CF902A
:103090000895EF92FF92CF93DF93E82EE7017E0130
:1030A000F92EE701E881F981818162810E941A038A
:1030B000C7010E94FE09DF91CF91FF90EF90089524
:1030C000EF92FF92CF93DF93E82EE7017E01F92E76
:1030D000E701E881F981818162810E942038C7017E
:1030E0000E94FE09DF91CF91FF90EF900895EF923B
:1030F000FF92CF93DF93E82EE7017E01F92EE701DF
:10310000E881F9818181928163810E94F702C70180
:103110000E94FE09DF91CF91FF90EF900895EF920A
:10312000FF920F93CF93DF93E82EE7017E01F92EF4
:10313000E701E881F98121813281438154816581F0
:1031400076818781908501850E944702C7010E9490
:10315000FE09DF91CF910F91FF90EF900895EF92CC
:10316000FF920F93CF93DF93E82EE7017E01F92EB4
:10317000E701E881F981BF016E5F7F4F24893589BE
:10318000E788F08C8181438906890E942138CE012D
:103190000E94FE09DF91CF910F91FF90EF9008956B
:1031A0000F931F93DF93CF93CDB7DEB766970FB61C
:1031B000F894DEBF0FBECDBF8C01DC01ED91FC9118
:1031C000818192819B838A838381898384818C839B
:1031D00085818D8386818E8387818F838085888793
:1031E0008185898782858A8783858B878181928182
:1031F0009E878D8784858C8785858F878685888B3C
:103200008785898B80898A8B81898B8B82898C8B3E
:1032100083898D8B84898E8BCE010196BE01645F7C
:103220007F4F45890E94DC02C8010E94FE09669614
:103230000FB6F894DEBF0FBECDBFCF91DF911F91C7
:103240000F9108950F931F93DF93CF93CDB7DEB700
:103250002B970FB6F894DEBF0FBECDBF8C01DC01FB
:10326000ED91FC9182818983838194819B838A8300
:1032700085818C8386818D8387818E8380858F83F2
:10328000818588878285898783858A8784858B87DE
:103290008181BE016F5F7F4F0E942238C8010E946A
:1032A000FE092B960FB6F894DEBF0FBECDBFCF91AF
:1032B000DF911F910F910895EF92FF920F93CF939B
:1032C000DF93E82EE7017E01F92EE701E881F9811D
:1032D0002181328143815481658176818781908506
:1032E00001850E942338C7010E94FE09DF91CF911A
:1032F0000F91FF90EF900895EF92FF92CF93DF939D
:10330000E82EE7017E01F92EE701E881F981AF019E
:103310004D5F5F4F818162810E942438C7010E9406
:10332000FE09DF91CF91FF90EF900895EF92FF9209
:10333000CF93DF93E82EE7017E01F92EE701E881C4
:10334000F981218132814381548165817681878130
:1033500090850E942538C7010E94FE09DF91CF9118
:10336000FF90EF900895EF92FF92CF93DF93E82EB6
:10337000E7017E01F92EE701E881F98181810E9450
:103380002638C7010E94FE09DF91CF91FF90EF9090
:103390000895EF92FF92CF93DF93E82EE7017E012D
:1033A000F92EE701E881F98181810E946601C70158
:1033B0000E94FE09DF91CF91FF90EF900895EF9268
:1033C000FF92CF93DF93E82EE7017E01F92EE7010C
:1033D000E881F98181810E942738C7010E94FE0996
:1033E000DF91CF91FF90EF900895CF92DF92EF920F
:1033F000FF920F931F93CF93DF93E82EE7017E0197
:10340000F92EE701E881F981048115812681378150
:1034100089E0C82ED12CCE0EDF1E818162814381CE
:10342000E0840E948A01CE010E94FE09DF91CF91C3
:103430001F910F91FF90EF90DF90CF900895EF9242
:10344000FF92CF93DF93E82EE7017E01F92EE7018B
:10345000E881F981818162810E940202C7010E9494
:10346000FE09DF91CF91FF90EF900895EF92FF92C8
:10347000CF93DF93E82EE7017E01F92EE701E88183
:10348000F98181810E943802C7010E94FE09DF9103
:10349000CF91FF90EF900895DC01ED91FC91628156
:1034A00073818181448125810E942838089520916B
:1034B000EE063091EF0636FF1BC0882359F42091A9
:1034C000E1063091E206809141069091420628176C
:1034D000390759F02091E1063091E2068091BD064E
:1034E0009091BE062817390719F48EEE0E94B63364
:1034F0000895CF93DF932091EE063091EF0636FFCB
:10350000C5C0882359F42091E1063091E2068091EC
:103510004106909142062817390761F02091E10693
:103520003091E2068091BD069091BE0628173907BA
:1035300009F0ACC02091E3063091E4068091BA0610
:103540009091BB062817390709F4A0C09091E306B3
:103550008091C806981759F59091E4068091C906A4
:10356000981729F59091E5068091CA069817F9F405
:103570009091E6068091CB069817C9F49091E706E2
:103580008091CC06981799F49091E8068091CD0629
:10359000981769F49091E9068091CE06981739F44E
:1035A0009091EA068091CF06981709F46FC086E9DA
:1035B0000E94F709EC01009709F468C0888199819D
:1035C00025E0FC012083D283C183DC01AD56BF4FCF
:1035D0002C93FD01389720913606208320913706E1
:1035E000218320913806228320913906238320915C
:1035F0003A06248320913B06258320913C062683AE
:1036000020913D06278338972091C806208320917A
:10361000C90621832091CA0622832091CB062383E9
:103620002091CC0624832091CD0625832091CE06BF
:1036300026832091CF062783FD01729720914106B2
:103640003091420631832083FD01739720917F06DC
:1036500020832F5F20937F06FD01759723E63CECC6
:1036600031832083569728E12C93FC01B087A783F0
:1036700062E070E041E00E94DC0D882321F481E0EB
:103680008093F80603C0CE010E94FE09DF91CF911E
:103690000895CF92DF92EF92FF920F931F93CF93F3
:1036A000DF93E82EE7017E01F92EE701E881F98139
:1036B000A781B0858C918093D306A80FB11D119678
:1036C0008C918093EC06C780D084D60111968D91A1
:1036D0009C91129740ED56E09093D1068093D006CE
:1036E00013962C9113972093D406B6016C5F7F4FED
:1036F000092F0295069506950370192F16951695B4
:10370000137009F45BC014962D913C91159730937A
:10371000D7062093D606F6013696123019F5DA014F
:103720001896FA01108611961C92119712961C9207
:10373000129713961C92139714961C921497159631
:103740001C92159716961C92169717961C92D601E6
:1037500016962D913C91179731872087F601389660
:1037600044E030C0133069F59A01285F3F4FD6011D
:103770001696FC90DA011896FC924181D9011196B7
:103780004C931197428112964C9312974381139652
:103790004C931397448114964C9314974581159636
:1037A0004C931597468116964C931697478117961A
:1037B0004C931797F6013E964AE004C0FB0140E0A7
:1037C00001C042E0002309F447C086FD08C02191F2
:1037D00031913093E2062093E1064E5F08C02091BC
:1037E000D6063091D7063093E2062093E1060230E8
:1037F000C1F41092E3061092E4061092E5061092CE
:10380000E6061092E7061092E8061092E90610927A
:10381000EA06208131813093E4062093E3064E5F6F
:103820001BC00330C9F420812093E306218120933B
:10383000E40622812093E50623812093E606248175
:103840002093E70625812093E80626812093E90648
:1038500027812093EA06485F5091D3065550541BA8
:103860005093ED060093E0061093D50683FDB9C191
:10387000FB01E40FF11D282F27702093D20623307F
:1038800021F420812093EB065BC0213009F449C06C
:10389000213020F0233009F0A4C152C080819181F1
:1038A0009093EF068093EE0642814093F0064770B6
:1038B00011F04C5F01C043E0DF01A40FB11D8C91FA
:1038C0008093F1064F5F682F677090E0807790706B
:1038D00024E0959587952A95E1F7662311F48823CE
:1038E00089F09F01240F311D3093F3062093F206D7
:1038F000662311F0660F460F882321F0880F880F8A
:10390000880F480F451750F4541B5093F406E40FEA
:10391000F11DF093F606E093F50667C11092F406E8
:1039200064C1552351F0563718F086E78093ED06B1
:10393000F093EF06E093EE0658C11092ED0655C1E4
:103940002091EB062330C9F0243030F42130A9F067
:10395000223009F046C107C0283008F446C128309B
:1039600009F03FC10EC0818192819093EF06809350
:10397000EE0683818093F00638C181818093EE0644
:1039800034C1218132813093EF062093EE062381EA
:1039900034813093F1062093F00625812093F206BE
:1039A000268137813093F4062093F30694FF1DC1DE
:1039B00080858093F50619C18091D206833061F429
:1039C0008091EB06843011F0873031F48FEB96E074
:1039D000BE010E94830A0FC180917306813009F4F1
:1039E000EBC0813020F0843008F0FBC0A3C0809190
:1039F0007C06882309F06AC09091F706933080F125
:103A0000933009F0EEC08091D206813009F4E5C010
:103A1000813010F1833009F0E4C08091EB068430EE
:103A200009F4AFC0853038F4813009F4A0C0833088
:103A300009F0D7C009C0863009F4AEC0863040F026
:103A4000873009F0CEC0B0C0CE010E94F421D3C0AF
:103A50008EEE0E94B633C5C080E00E94571AC1C0E6
:103A60008091D206813009F4B8C0813020F08330D3
:103A700009F0B7C00CC08091FA06882309F4B1C0E0
:103A8000992309F4AEC080E00E94791AAAC08091FF
:103A9000EB06843009F475C0853038F4813009F4C0
:103AA00066C0833009F09DC004C0873009F05AC059
:103AB00009C0CE010E94F4218091F706813009F0FF
:103AC0009AC05CC0923009F08CC06EC0833009F19E
:103AD000843019F0823009F084C08091D2068823A6
:103AE00009F07FC08091F706833019F481E00E94CD
:103AF000571A8091FA06882341F08091F706815089
:103B0000823018F481E00E94791ACE010E94E72BDE
:103B100072C08091D206833009F063C08091EB06B9
:103B2000883009F05EC082E00E944405CE010E9408
:103B3000A23261C00E94C62B8091D206813009F466
:103B40004CC0833009F04DC08091EB068430C9F041
:103B5000853030F4813059F0833009F042C00BC019
:103B60008730F1F0883021F18630D9F515C0CE01CB
:103B70000E942B1540C0CE010E94F4210E94DB2739
:103B80003AC080916606882321F0CE010E942E2043
:103B900032C00E94791F25C0CE010E9401282BC08F
:103BA0008091F7068230E9F4CE010E94EA1723C023
:103BB000CE010E94F3331FC08091D206833059F4A6
:103BC0008091EB06823069F480E00E944405CE01CA
:103BD0000E94E01510C0813021F4CE010E943A23EA
:103BE0000AC0CE010E94FE0906C08091F806882313
:103BF00009F0E2CEF1CEDF91CF911F910F91FF90AE
:103C0000EF90DF90CF900895FC0110826181728166
:103C10006115710521F08FEB96E00E94830A0895EB
:103C2000FC018681882399F40780F085E02D82814C
:103C3000869586958370823061F481E0DB014D9139
:103C40005C911197268137814217530719F080E064
:103C5000089580E00895FB01DC0116968C9116977B
:103C60008823E9F517960D90BC91A02D12968C91A2
:103C70001297869586958370833099F581E020812F
:103C800016969C911697291751F5218117969C91AC
:103C90001797291721F5228118969C9118972917B3
:103CA000F1F4238119969C9119972917C1F4248165
:103CB0001A969C911A97291791F425811B969C912D
:103CC0001B97291761F426811C969C911C97291734
:103CD00031F427811D969C911D97291719F080E0DA
:103CE000089580E008958F929F92AF92BF92DF92E5
:103CF000EF92FF920F931F93DF93CF9300D0CDB736
:103D0000DEB7D82E790186E94A8369830E94F709D4
:103D10004C014A816981009709F4DCC0FC01A08054
:103D2000B180DD2011F084E001C08BE0F5018083DB
:103D3000F50192828182D501AD56BF4F84E08C930C
:103D400080914406909145069C012E5F3F4F2230A2
:103D5000310510F0662359F11897809136068C933F
:103D60008091370611968C931197809138061296A0
:103D70008C9312978091390613968C9313978091A8
:103D80003A0614968C93149780913B0615968C9363
:103D9000159780913C0616968C93169780913D0658
:103DA00017968C93179783E290EC52E105C09E938F
:103DB0008E9383E290E85CE0442361F02091410619
:103DC000309142060217130729F05E5F3E932E934F
:103DD00060E002C0806461E0423029F49860F7013D
:103DE0002081318119C0433071F49C6018975A5F6B
:103DF0009D0148E0F70101907F01F90101929F01C7
:103E00004150C1F735C02091BA063091BB06FFEF93
:103E10002E3F3F0721F098603E932E9329C09C606F
:103E200018975A5F2091C8062C932091C9061196C5
:103E30002C9311972091CA0612962C9312972091D9
:103E4000CB0613962C9313972091CC0614962C93A3
:103E500014972091CD0615962C9315972091CE0698
:103E600016962C9316972091CF0617962C9317979A
:103E70001297662341F02091410630914206119637
:103E80003C932E9303C011961C930E939D012150D9
:103E9000304040917F06F90140834F5F40937F0699
:103EA0009D0123503040F9019183808314975C93E6
:103EB000F501B087A783C50162E070E041E00E9490
:103EC000DC0D882321F481E08093F80604C0C4014E
:103ED0000E94FE0980E00F900F90CF91DF911F911B
:103EE0000F91FF90EF90DF90BF90AF909F908F90D9
:103EF00008950F931F93CF93DF9386E90E94F709EC
:103F0000EC01009709F4A5C0088119818CE0D80163
:103F10008C931296DC93CE93119716961C9216975B
:103F2000F801EC56FF4F80914406909145069C01A4
:103F30002E5F3F4F22303105E8F4389780913606E6
:103F400080838091370681838091380682838091B7
:103F50003906838380913A06848380913B0685836A
:103F600080913C06868380913D06878380E090ECBB
:103F700061E105C09293829380E090E86BE020912C
:103F80004106309142064091E1065091E206241725
:103F9000350711F4806403C06E5F32932293209141
:103FA000E0062330E9F438976A5F2091E306208326
:103FB0002091E40621832091E50622832091E606E4
:103FC00023832091E70624832091E806258320910E
:103FD000E90626832091EA06278381609C6008C059
:103FE0002091E3063091E406329322938160986039
:103FF0009F01225030404091E1065091E206D901E4
:104000004D935C939F012350304040917F06D9012E
:104010004C934F5F40937F069F0125503040D9015C
:104020008D939C9336976083D8011896FC93EE93FA
:1040300017978881998161E070E040E00E94DC0D73
:10404000882321F481E08093F80603C0CE010E940A
:10405000FE09DF91CF911F910F910895EF92FF928A
:104060000F931F93DF93CF9300D000D0CDB7DEB76F
:104070000E94FE098091F706823008F453C08091B7
:10408000E006823019F480E19EE105C0833009F03A
:1040900049C08BE29EE19A83898383EE96E09C83FC
:1040A0008B8382E696E07E010894E11CF11CB70147
:1040B0000E94A40A009789F0DC010D911C91D8019F
:1040C0001796ED91FC9118974091E1065091E20608
:1040D000248135814217530719F00E94791F22C0AD
:1040E00021E0F80126839283818382E696E0B7017E
:1040F0000E94A40A009741F0D8011796ED91FC9117
:104100001897818180618183C80161E070E040E09F
:104110000E94DC0D882321F481E08093F80602C020
:10412000F80116820F900F900F900F90CF91DF91B2
:104130001F910F91FF90EF9008950F931F93CF93CE
:10414000DF93FC01E801A081B18186E18C93119697
:104150006C93119712964C93129714963C932E934E
:1041600013974230F9F415961C92159716961C92E7
:10417000169717961C92179718961C9218971996CF
:104180001C9219971A961C921A971B961C921B97B1
:104190001C961C921C978881998116969C938E93ED
:1041A000159706C0159688E009900D928150E1F7A9
:1041B0008BEF96E0BF010E94830ADF91CF911F91A0
:1041C0000F910895EF92FF920F931F93DF93CF9378
:1041D000CDB7DEB72E970FB6F894DEBF0FBECDBFBA
:1041E0007C01DC010D911C91DE011196F8018EE03D
:1041F00001900D928150E1F7F801F282E18283E0B3
:104200008083D801AE56BF4F8C938D8511968C93C9
:104210001197FD013897809136068083809137068B
:1042200081838091380682838091390683838091CF
:104230003A06848380913B06858380913C06868381
:1042400080913D0687838A81823041F4FD013A974F
:104250008D819E819183808323E112C038978D8167
:1042600080838E8181838F81828388858383898502
:1042700084838A8585838B8586838C85878329E1E2
:10428000DF01129780914106909142068D939C9395
:10429000DF01139780917F068C938F5F80937F0659
:1042A000DF0115973A81932F990F990F80E083666C
:1042B000906C8D939C9336972083D8011896FC932D
:1042C000EE93179716961C9216978091F7068250D8
:1042D000823008F060C08E85882309F45CC08A8132
:1042E0008230D1F48D818B3409F041C08E818823D6
:1042F000F1F58F818823D9F588858823C1F58985D3
:104300008823A9F58A85882391F58B85882379F5FB
:104310008C85882361F55BC0833009F058C09D818E
:104320008091C806981719F59E818091C906981743
:10433000F1F49F818091CA069817C9F498858091FD
:10434000CB069817A1F499858091CC06981779F43B
:104350009A858091CD06981751F49B858091CE0661
:10436000981729F49C858091CF06981781F182E6F1
:1043700096E0B7010E94830A80918106909182069F
:10438000F8019583848381E00E94DF048823F9F497
:104390000E9483241CC00E948927D7018D919C9183
:1043A00062E070E041E00E94DC0D882321F481E0AE
:1043B0008093F8060CC02B813C81C70161EE4A81D5
:1043C0008E010B5F1F4F0E949D200E945F272E963B
:1043D0000FB6F894DEBF0FBECDBFCF91DF911F9116
:1043E0000F91FF90EF900895BC01DC01ED91FC91DD
:1043F00085E180838091E30681838091E406828356
:104400008091E50683838091E60684838091E706A8
:1044100085838091E80686838091E9068783809171
:10442000EA0680878091EE0681878BEF96E00E94F6
:10443000830A1092C8061092C9061092CA061092FA
:10444000CB061092CC061092CD061092CE0610929A
:10445000CF068FEF9FEF9093BB068093BA06089527
:104460000F931F93DF93CF93CDB7DEB728970FB687
:10447000F894DEBF0FBECDBFDC01ED91FC9111972A
:1044800019821A821B821C821D821E821F8218863C
:104490000780F085E02D4281469546954370242F94
:1044A0002250223080F42681298327812A83208587
:1044B0002B8321852C8322852D8323852E832485A0
:1044C0002F83258528872091F7062330D1F12230CC
:1044D00009F03FC0423059F40680F781E02D209169
:1044E000BA063091BB06E217F30759F532C04330E4
:1044F00041F536812091C806321719F53781209190
:10450000C9063217F1F430852091CA063217C9F472
:1045100031852091CB063217A1F432852091CC064B
:10452000321779F433852091CD06321751F4348552
:104530002091CE06321729F435852091CF06321707
:1045400041F020914106309142068E010F5F1F4FCE
:1045500014C040914406509145064E5F5F4F209134
:104560004106309142064230510520F443E006E313
:1045700016E003C042E004E416E00E949D20289665
:104580000FB6F894DEBF0FBECDBFCF91DF911F9164
:104590000F910895DC01ED91FC911197E081E432D7
:1045A00070F4F0E0EE0FFF1FE25FFE4F25913491B3
:1045B000F901309711F0099508950E94FE090895B8
:1045C0001F938091F806882381F480917B068823CD
:1045D00061F087E796E060E070E00E949E0A009735
:1045E00021F00E94CA2211E001C010E08091C306B0
:1045F000882359F08FEB96E060E070E00E949E0AFD
:10460000009719F00E94CA2211E0812F1F9108958E
:10461000FC018681882329F4848195810197958303
:10462000848380E00895FC018681882341F481E041
:10463000248135812115310519F080E0089580E04D
:10464000089521E0FC019381FB018081981320E013
:10465000822F0895FC01A081B18180E18C93119695
:104660004C93119712966C938BEF96E0BF010E94CA
:10467000830A08950F931F93DF93CF93CDB7DEB7CF
:1046800028970FB6F894DEBF0FBECDBFBC01FC016A
:10469000908181812091ED06222321F4CB010E949B
:1046A000FE0924C1E92FF82F8091D406808F209134
:1046B000E00621838091E1069091E2069383828354
:1046C000822F8250823050F5148215821682178212
:1046D0001086118612861386223039F48091E30603
:1046E0009091E4069583848323C08091E3068483BC
:1046F0008091E40685838091E50686838091E606B5
:1047000087838091E70680878091E8068187809182
:10471000E90682878091EA0683870AC013821282A3
:1047200014821582168217821086118612861386CD
:10473000808D90916106891761F5248190916906B9
:10474000291739F5258190916A06291711F52681D7
:1047500090916B062917E9F4278190916C0629172F
:10476000C1F4208590916D06291799F421859091C7
:104770006E06291771F4228590916F06291749F466
:10478000238590917006291721F4CB010E94FE0920
:1047900063C08093610684818093690685818093DC
:1047A0006A06868180936B06878180936C0680857C
:1047B00080936D06818580936E06828580936F0657
:1047C0008385809370062091D50624871786108AEA
:1047D000118A128A138A148A158A168A8091D6063B
:1047E0009091D706968785872330C9F48091D806A3
:1047F00087878091D906808B8091DA06818B8091A2
:10480000DB06828B8091DC06838B8091DD06848BB6
:104810008091DE06858B8091DF06868B0BC022306F
:1048200039F48091D8069091D906908B878702C081
:10483000168615868091EC06878B8091ED06818F18
:104840008091EE069091EF06938F828F81E18083B5
:104850008BEF96E00E94830A8091D00684FF46C0C9
:104860008091F706833009F443C08091E0068230DE
:1048700071F48091E3069091E4069A838983009114
:10488000E1061091E20680E060E042E021C0833062
:1048900019F58091E30689838091E4068A838091EB
:1048A000E5068B838091E6068C838091E7068D83F5
:1048B0008091E8068E838091E9068F838091EA06D5
:1048C00088870091E1061091E20680E060E043E015
:1048D0009E012F5F3F4F07C080E060E040E020E096
:1048E00030E000E010E00E94731E02C00E945F27CB
:1048F00028960FB6F894DEBF0FBECDBFCF91DF91E3
:104900001F910F910895EF92FF920F931F93909133
:10491000400680914E06992339F4882361F440E0E3
:104920005CED65E070E010C0882351F440E050EB8E
:1049300064E070E009C040E05EEE62E070E004C058
:1049400040E050EE61E070E081E020E007EB14E22F
:10495000EE24FF240E941D06882321F080E090E0D1
:104960000E94B7241F910F91FF90EF900895FF923E
:104970000F931F93DF93CF9300D000D0CDB7DEB756
:1049800088E093E29A83898382E696E08E010F5F46
:104990001F4FB8010E94A40A83E193E29A8389839E
:1049A000F02E012F82E696E06F2D702F0E949E0A56
:1049B000BC010097D1F0DC01ED91FC911197808151
:1049C000833041F08D3059F0823061F780EF0E94E2
:1049D000F326E8CFCB0160EF0E943022E3CFCB017A
:1049E00060EF43810E942A23DDCF809166068823F1
:1049F00011F00E9483240F900F900F900F90CF9191
:104A0000DF911F910F91FF9008952F923F924F9247
:104A10005F926F927F928F929F92AF92BF92CF924E
:104A2000DF92EF92FF920F931F93DF93CF9300D00B
:104A30000F92CDB7DEB78C01DC012D903C90F101D7
:104A40006180E28043815481C580D680A780B08494
:104A5000F185FB83D1011A969C901A971B968C9036
:104A60001B971C967C901C971D96FC901D971F967B
:104A7000BC91BA83F101268530E084E0482E512CA8
:104A80004222532222FD0BC080917306882321F419
:104A900080917C06882319F0C80161EEA0C08DE0EA
:104AA000D1018C931396FC92139716961C926A81EF
:104AB0006B5FE4E9F0E0BA81EB1BF109E20DF31D55
:104AC000762D723049F46B2F695F80914406909186
:104AD0004506929382931EC0862D8330D9F4389771
:104AE0006A81635F80913606808380913706818377
:104AF00080913806828380913906838380913A06BB
:104B0000848380913B06858380913C0686838091D7
:104B10003D06878380914106909142068417950750
:104B200029F4662041F0EE2059F402C0662019F005
:104B30006E5F92938293EE20F1F080E090E002C0ED
:104B400080E490E0AE2DA23029F46E5F6983D292AA
:104B5000C2920CC03897685F6983C082D182A282FA
:104B6000B382BB81B48395828682778269816E5FCE
:104B70005293429302C080E090E040917F064293BE
:104B80004F5F40937F06AC01416020FF02C0AC0143
:104B900041627A81773608F050619E2D990F990F06
:104BA00080E0362D3295330F330F307C20E0822B9E
:104BB000932BDF011297842B952B11969C938E9348
:104BC00067FD0BC033976083D1011896FC93EE9379
:104BD00017974114510439F41FC0C80165EE4F2DD9
:104BE0000E942A2333C08091F70682508230A0F4BD
:104BF00082E696E0B8010E94830A80918106909136
:104C00008206F1019583848381E00E94DF0488237A
:104C1000E9F40E9483241AC00E948927D1011296C8
:104C20001C930E931197C10162E070E041E00E9475
:104C3000DC0D882321F481E08093F80607C0C801C9
:104C400061EE4F2D0E942A230E945F270F900F9044
:104C50000F90CF91DF911F910F91FF90EF90DF9018
:104C6000CF90BF90AF909F908F907F906F905F900C
:104C70004F903F902F900895EF92FF920F931F93C4
:104C8000DF93CF9300D000D00F92CDB7DEB77C0179
:104C9000FC0100811181F801818192E19083898377
:104CA00081E293E29B838A83CE0101969D838C836C
:104CB00082E696E0BE016E5F7F4F0E949E0A0097DB
:104CC00029F00E94FE09F801128203C087EEF80164
:104CD00082838BEF96E0B7010E94830A0F900F90BA
:104CE0000F900F900F90CF91DF911F910F91FF9038
:104CF000EF900895FF920F931F93082F1092F806DC
:104D00001092F7061092F90610927C0610927E0619
:104D100010927306109261068FEF8093690680935C
:104D20006A0680936B0680936C0680936D06809371
:104D30006E0680936F06809370061092BC0688E022
:104D40000E94C313FFB6F89410E0812F0E9444051F
:104D50001F5F1430D1F7FFBE002309F440C010924A
:104D6000FA0680EE9AE0909376068093750680E0CE
:104D700098E79093C5068093C4061092720610922D
:104D80006006109280060E94AA3880937D0684EF08
:104D900091E0909382068093810681E0809374066F
:104DA00086E0809368061092C8061092C906109299
:104DB000CA061092CB061092CC061092CD06109225
:104DC000CE061092CF068FEF9FEF9093BB06809395
:104DD000BA060E94AA3880937F06109267061F9138
:104DE0000F91FF900895CF92DF92EF92FF920F9371
:104DF0001F93DB01ED91FC91A781B0851696CC90B5
:104E000016971796DC9017971896EC9018971996A6
:104E1000FC9019971A960C911A971B961C911B9748
:104E20001C965C911C971D964C919CE1908320915F
:104E30004106309142063283218393E0938320918F
:104E40003606248320913706258320913806268351
:104E500020913906278320913A06208720913B062E
:104E6000218720913C06228720913D062387948745
:104E7000C586D686E786F08A018B128B538B448BCE
:104E8000858B8BEF96E00E94830A1F910F91FF9014
:104E9000EF90DF90CF9008958091F906882371F408
:104EA0000E94A10480E00E948E13882321F481E0F7
:104EB0008093F906089581E00E94A10408958091ED
:104EC0006706882331F48091BC06882311F40E9480
:104ED0004C2708950E948C128823B9F40E94E007A1
:104EE0008823A9F081E00E947A260E945F2787E745
:104EF00096E00E947C0A8FEB96E00E947C0A82E694
:104F000096E00E947C0A80E0089585E8089585E88F
:104F100008958091F906813049F40E94B1138538D3
:104F200029F081E00E94A1041092F9060895EF9201
:104F3000FF920F931F93CF93DF93E82EE7017E013B
:104F4000F92EE701088119810E948927F801118152
:104F500080E00E94A10481E0112309F480E00E9416
:104F60006E12082F81E00E94A104812F0E947A26F0
:104F70000E945F2787E796E00E94AA0A8FEB96E0DF
:104F80000E94AA0A8BEF96E00E94AA0A82E696E0A7
:104F90000E94AA0AE881F981018380E280838BEF75
:104FA00096E0BE010E94830ADF91CF911F910F917D
:104FB000FF90EF900895DF93CF9300D000D0CDB74E
:104FC000DEB70E9489278FEF9FEF9A8389839C83A6
:104FD0008B8383E5BE016F5F7F4F0E94F92A80E5D6
:104FE000BE016D5F7F4F0E94F92A81E00E947A2600
:104FF0000E945F270F900F900F900F90CF91DF913D
:105000000895BC01DC01ED91FC918AE180838091DF
:10501000E30681838091E40682838091E5068383A1
:105020008091E60684838091E70685838091E80677
:1050300086838091E90687838091EA0680878BEFDB
:1050400096E00E94830A08950F931F93DF93CF93F6
:105050000F92CDB7DEB7182F40914106509142060E
:1050600089E0612F792F20914E06009140069983A7
:105070000E9429349981882329F481EE612F792FA8
:105080000E94F3260F90CF91DF911F910F91089509
:105090000F931F93CF93DF938C01FC01C081D181CB
:1050A000FE01339689818B3409F4B7C08C3488F5BE
:1050B000863009F479C0873098F4823009F4F3C05F
:1050C000833038F4882309F4DEC0813009F0F3C05E
:1050D000DDC0843009F460C0853008F060C0E6C0EF
:1050E000853409F46DC0863450F4813409F465C008
:1050F000823409F45FC0873009F0DDC058C08934BC
:1051000009F46BC08A3408F070C0863409F0D3C04B
:1051100061C0853509F464C08635B0F48F3409F474
:1051200087C0803538F48C3409F47CC08E3409F0A3
:10513000C2C07BC0823509F483C0833509F483C0C3
:10514000803509F0B8C077C08935D9F08A3528F4A0
:10515000873579F0883580F409C08D35D1F0803FEE
:1051600009F478C08A3509F0A6C00EC08091FA060D
:105170009FC0809150069CC08091750690917606E4
:1051800066C08091540694C08091C4069091C50673
:105190005EC0809172068CC08091400689C080916B
:1051A0003E0690913F0653C08091560681C0809183
:1051B0004D067EC0809174067BC08091600678C0E9
:1051C0004091800626E836E0CF01B90150E00E9408
:1051D000BA386FC0809180066BC080917D0668C030
:1051E000809181069091820632C08091C8068B839F
:1051F0008091C90681838091CA0682838091CB0603
:1052000083838091CC0684838091CD0685838091B1
:10521000CE0686838091CF0634C08091BA069091E5
:10522000BB0615C080917F0643C080914C0640C0EC
:10523000809153063DC0809141069091420607C07F
:105240008091670635C080914406909145069C8305
:105250008B832FC0809136068B83809137068183A4
:1052600080913806828380913906838380913A0643
:10527000848380913B06858380913C068683809160
:105280003D06878316C080914E0612C080915A0653
:1052900090915B06A0915C06B0915D068B839C8328
:1052A000AD83BE8306C08091350602C0809143065F
:1052B0008B8380E001C084EF99819A839EE198837B
:1052C00089838BEF96E0B8010E94830ADF91CF912A
:1052D0001F910F910895CF92DF92EF92FF920F935B
:1052E0001F93DF93CF930F92CDB7DEB7082F6B01DB
:1052F000142F8B3409F4AAC08C3458F5833409F484
:10530000C5C0843480F4853038F4823008F0BEC0E3
:10531000882309F4BBC033C1813409F45DC08234F1
:1053200009F02DC14FC0863409F464C0873438F4C5
:10533000843409F44CC0853409F021C152C0893449
:1053400009F45DC08A3408F067C0873409F017C1DA
:105350009DC0853509F458C0863580F4813538F410
:105360008E3408F093C08C3409F009C177C08235BF
:1053700009F479C0823508F402C188C08835B1F0DB
:10538000893530F4863569F0873509F0F8C07EC07C
:105390008A3581F08A3508F479C0803F09F0EFC082
:1053A00075C0FB0180818093FA06E7C0FB01808114
:1053B0009181DFC0FB01808191819093C50680932C
:1053C000C406DBC0FB01808180937406D6C0FB015C
:1053D000808180936806D1C0FB0180818093600644
:1053E000CCC026E836E040918006C90150E00E941A
:1053F000BA38C3C0FB01808180938006BEC0FB0128
:10540000808180937D06B9C0FB018081918190935A
:10541000820680938106B1C0FB0180818093C8061B
:1054200081818093C90682818093CA06838180939B
:10543000CB0684818093CC0685818093CD068681BE
:105440008093CE0687818093CF0697C0FB01808131
:1054500091819093BB068093BA068FC0FB01808137
:1054600080937F068AC081E0FB019081992309F433
:1054700080E080936706882331F00E94892786E0C8
:105480000E94C3137AC00E945F2777C0802FB601A5
:105490000E947E10982F813871F40E94B113802FE2
:1054A000B6010E947E10982F882309F069C081E020
:1054B0008093E00503C0882309F062C090915006F4
:1054C000292F30E08091530660914C06462F50E022
:1054D000281B31092417350714F4692F681B70E065
:1054E000FA01E61BF70B21E030E002C0220F331F68
:1054F0009A95E2F721503040E29FA001E39F500DC2
:10550000F29F500D112490E0680F791F21E030E0E8
:105510000AC0F901082E02C0EE0FFF1F0A94E2F73D
:105520004E0F5F1F01968617970799F784E190E069
:10553000489FB001499F700D589F700D11244091F4
:105540004006442329F088E090E022E030E004C0E7
:1055500080E290E028E030E0820F931F442319F4AA
:1055600020E034E002C020E031E0820F931F860F7C
:10557000971F909376068093750690E001C094EF94
:10558000112371F08091E005882351F08091670626
:10559000882331F499830E948E131092E00599813B
:1055A000892F0F90CF91DF911F910F91FF90EF9076
:1055B000DF90CF9008950F931F93CF93DF938C01CB
:1055C000FC01C081D181BE016E5F7F4F898141E0C6
:1055D0000E946B2999819A839FE1988389838BEF3D
:1055E00096E0B8010E94830ADF91CF911F910F913D
:1055F0000895DF93CF9300D00F92CDB7DEB790918F
:10560000F906913079F469837A838B830E94892724
:105610008B8169817A810E947E108B830E945F2733
:105620008B8102C00E947E100F900F900F90CF913F
:10563000DF910895853419F48091800608958830AB
:1056400030F4E82FF0E0EA5AFE4F84910895982F45
:105650009054903230F4E82FF0E0E25EFE4F8491F7
:105660000895803F30F0E82FF0E0E257FF4F84913B
:10567000089580E00895CF93DF93EC01E881F981EC
:1056800083E280836183662311F00E945F278BEFA2
:1056900096E0BE010E94830ADF91CF910895DF92C8
:1056A000EF92FF920F931F93DF93CF93CDB7DEB7A7
:1056B00029970FB6F894DEBF0FBECDBFD82E8091CC
:1056C0007306882309F040C08091F7068330E1F12A
:1056D00080917C068823C1F599870E948927ED2C4B
:1056E0009985F92ED701ED91FC9111978181823036
:1056F00031F4248135813A83298342E011C08481C9
:10570000898385818A8386818B8387818C83808549
:105710008D8381858E8382858F838385888743E00F
:105720000281138181E060E09E012F5F3F4F9987E6
:105730000E94731E9985882329F0D0928406909345
:10574000850606C0C70101C08D2D61EE0E943B2B6E
:1057500029960FB6F894DEBF0FBECDBFCF91DF9173
:105760001F910F91FF90EF90DF9008958091730645
:10577000823039F480918406909185066BEE0E9408
:105780003B2B109273061092F80608958091D20672
:105790008823E1F080E00E9444058091D2068130A8
:1057A00021F48091ED06882311F46BEE01C060E0D6
:1057B00080917306823031F4809184069091850641
:1057C0000E943B2B1092F8061092730608952F92B8
:1057D0003F924F925F926F927F928F929F92AF9281
:1057E000BF92CF92DF92EF92FF920F931F93DF93BE
:1057F000CF93CDB7DEB764970FB6F894DEBF0FBE78
:10580000CDBFBC0140917C06423011F0443079F4A8
:1058100080917406882359F0E0918406F091850602
:10582000808191819C8B8B8BFC01399604C01C8AF2
:105830001B8AE0E0F0E01091E0068091E106909193
:10584000E206123069F41E821F82188619861A86B3
:105850001B862091E3063091E4063D832C8318C01B
:105860002091E3062C832091E4062D832091E50608
:105870002E832091E6062F832091E706288720912A
:10588000E80629872091E9062A872091EA062B87D6
:1058900000914E06F0904006C090EE06D090EF06C4
:1058A0002091F006E22EEE1CEE24EE1CB090EC06E9
:1058B000423019F0443009F064C02091740622236C
:1058C00009F45FC0AB89BC8918969C902C813D81FE
:1058D0004C805D806E807F80888439842A84AB858B
:1058E000AA2430C0418152818417950749F540812F
:1058F000141731F54385041719F54485F41601F59D
:10590000123031F44381548124173507C9F439C06A
:1059100043814415A9F44481451591F44581461508
:1059200079F44681471561F44781481549F440856B
:10593000431531F44185421519F442854A1709F19E
:10594000A3947196A91470F268C0AF019E012F5FF5
:105950003F4FA1E1AA2ED9010D909D01DA010D92D0
:10596000AD01AA94C1F71083928381830387F486E3
:10597000D686C586E786B08AEB89FC8920852F5FAD
:1059800020875091F1062091F406222329F42091DA
:105990007406222309F03DC0DB01ED91FC9127E163
:1059A00020832091D40621839F012E5F3F4F4E011B
:1059B0000894811C911C41E1D4010D904D01D90145
:1059C0000D929D014150C1F7128394838383058713
:1059D000F686D08AC786E18AB28A8091F106838BE7
:1059E000852F877011F4507731F08091F2069091F5
:1059F000F306958B848B8091F406868B8091F50657
:105A00009091F606908F878B8BEF96E00E94830A29
:105A100009C0CB010E94FE0905C0B92DB53008F4BC
:105A200094CFAFCF64960FB6F894DEBF0FBECDBF54
:105A3000CF91DF911F910F91FF90EF90DF90CF906A
:105A4000BF90AF909F908F907F906F905F904F909E
:105A50003F902F90089541E0FB012081318128176C
:105A6000390709F040E0842F0895DF93CF9300D0E9
:105A700000D0CDB7DEB72BE23DE23A8329839C8389
:105A80008B8382E696E0BE016F5F7F4F0E949E0A85
:105A90000F900F900F900F90CF91DF910895EF929C
:105AA000FF920F931F93CF93DF93182FEB01109268
:105AB000F80680917C06823021F48881873051F489
:105AC00005C0833039F48881863021F4812F0E940B
:105AD00014312DC18881883009F41CC1893090F4BB
