:100000000C9466000C94F9020C9485000C94850005
:100010000C9485000C9485000C9485000C9485004C
:100020000C9485000C9485000C9485000C9485003C
:100030000C9485000C9485000C9485000C9485002C
:100040000C942C030C942C050C9485000C948500C6
:100050000C940F050C9485000C9485000C9485007D
:100060000C9485000C9485000C9485000C948500FC
:100070000C9485000C9485000C9485000C948500EC
:100080000C9485000C9485000C9485000C948500DC
:100090000C9485000C9485000C9485000C948500CC
:1000A0000C9485000C9485000C9485000C948500BC
:1000B0000C9485000C9485000C9485000C948500AC
:1000C0000C9485000C9485000C94850011241FBEAF
:1000D000CFEFD1E2DEBFCDBF13E0A0E0B2E0E8ECAD
:1000E000F1E200E00BBF02C007900D92AE31B10704
:1000F000D9F714E0AEE1B3E001C01D92AD33B10712
:10010000E1F70E945E020C94E2100C940000DF9371
:10011000CF93CDB7DEB7A4E6B0E0E4E6F0E08081AF
:100120008E7F8C93EAE7F0E087E08083EBE7F0E0F6
:100130001082EEE7F0E083E08083E0E5F0E080E825
:100140008083ECE7F0E083E48083EAE7F0E080E896
:100150008083CF91DF9108956F927F928F929F92CB
:10016000AF92BF92CF92DF92EF92FF920F931F93C5
:10017000DF93CF93CDB7DEB727970FB6F894DEBFE6
:100180000FBECDBF9F838E83A4E7B0E0E4E7F0E02D
:10019000808180688C93E5E7F0E080E88083E091DF
:1001A0000002F091010283E08083AAE7B0E0EAE771
:1001B000F0E0808180648C93EAE7F0E08081882F12
:1001C00090E0807490700097B9F7E8E7F0E08081E4
:1001D0009181CC01A0E0B0E089839A83AB83BC839A
:1001E00089819A81AB81BC8127E93CE040E050E005
:1001F000BC01CD010E942A0CDC01CB0189839A83CA
:10020000AB83BC8381E08D839AC08D81882F90E081
:10021000880F991F0196880F991F880F991FFC015D
:10022000EE5FFD4F80819181A281B3819C01AD0180
:1002300089819A81AB81BC8182179307A407B50796
:1002400008F07AC08D8181508D838D81882F90E058
:10025000880F991F880F991F880F991FFC01EE5F67
:10026000FD4F80819181A281B3815C016D018D81FF
:10027000882F90E0880F991F0196880F991F880F8B
:10028000991FFC01EE5FFD4F80819181A281B381B6
:100290009C01AD0189819A81AB81BC81821B930B4A
:1002A000A40BB50B28E833E140E050E0BC01CD01E0
:1002B0000E942A0C7B018C018D81882F90E0019691
:1002C000880F991F0196880F991F880F991FFC01AD
:1002D000EE5FFD4F20813181428153818D81882FD6
:1002E00090E0880F991F0196880F991F880F991F1A
:1002F000FC01EE5FFD4F80819181A281B3813901C4
:100300004A01681A790A8A0A9B0AD401C3019C012E
:10031000AD01C801B7010E94490CDA01C9018A0D7B
:100320009B1DAC1DBD1D80931E0390931F03A093C6
:100330002003B093210307C08D818F5F8D838D8152
:10034000873108F462CFEE81FF81108280911E0315
:1003500090911F03A0912003B091210328EE33E078
:1003600040E050E0BC01CD010E94490CDA01C90116
:10037000EE81FF81818380911E0390911F03A091E4
:100380002003B091210328EE33E040E050E0BC01AF
:10039000CD010E94490CDC01CB012AE030E040E0B5
:1003A00050E0BC01CD010E94490CDA01C901EE8187
:1003B000FF81828327960FB6F894DEBF0FBECDBFB4
:1003C000CF91DF911F910F91FF90EF90DF90CF9031
:1003D000BF90AF909F908F907F906F900895DF9324
:1003E000CF93CDB7DEB70E943C030E9493090E94D1
:1003F000600A89E692E02AE832E0B9010E946B0CBB
:100400000E94870082E00E94F406882311F00E9477
:10041000110482EC92E00E94C90CCF91DF91089503
:10042000DF93CF9300D0CDB7DEB780E090E00E949D
:100430008A0282E293E00E94AC008091220388232A
:1004400029F08DE290E09A83898304C08BE290E0EA
:100450009A83898380912303282F30E0809124039D
:10046000482F50E08DB79EB708970FB6F8949EBFFF
:100470000FBE8DBFEDB7FEB7319689EF92E0918345
:10048000808389819A8193838283358324835783F0
:1004900046830E94B70C8DB79EB708960FB6F894A6
:1004A0009EBF0FBE8DBF80E090E062E070E00E94D2
:1004B000B0090F900F90CF91DF910895DF93CF9304
:1004C000CDB7DEB70E94EF010E9410020E944C03DC
:1004D000FBCFDF93CF9300D000D0CDB7DEB78A83B8
:1004E0007C836B838A81898302C00E944C0382E0F3
:1004F0009E012F5F3F4FB90141E00E940C07882306
:10050000A1F380E090E00F900F900F900F90CF91AB
:10051000DF910895DF93CF9300D00F92CDB7DEB770
:100520009B838A8302C00E944C0382E09E012F5F5E
:100530003F4FB90141E00E942E078823A1F3898132
:10054000882F90E00F900F900F90CF91DF9108953A
:10055000DF93CF93CDB7DEB727970FB6F894DEBF02
:100560000FBECDBF9D838C830E944C039E012D5FE7
:100570003F4F82E0B90141E00E942E07882F90E0B2
:100580009A83898389819A818130910531F48B81A5
:10059000282F30E03F832E8304C08FEF9FEF9F838F
:1005A0008E838E819F8127960FB6F894DEBF0FBE93
:1005B000CDBFCF91DF910895DF93CF9300D0CDB71A
:1005C000DEB79A83898389819A81909326038093E9
:1005D0002503A9E6B0E0E9E6F0E0808183608C9332
:1005E000ECE3F0E081E080830F900F90CF91DF91FA
:1005F00008951F920F920FB60F9200905B000F921A
:1006000011242F933F934F935F936F937F938F9317
:100610009F93AF93BF93EF93FF93DF93CF93CDB7A8
:10062000DEB7E0912503F09126030995CF91DF9184
:10063000FF91EF91BF91AF919F918F917F916F91BA
:100640005F914F913F912F910F9000925B000F901F
:100650000FBE0F901F9018951F920F920FB60F921A
:100660001124DF93CF93CDB7DEB7CF91DF910F90F9
:100670000FBE0F901F901895DF93CF93CDB7DEB7C5
:100680000E9428040E9422080E94950A0E943D04AC
:1006900080E0CF91DF910895DF93CF93CDB7DEB7A0
:1006A0000E946D06CF91DF910895DF93CF93CDB770
:1006B000DEB72D970FB6F894DEBF0FBECDBF9E8379
:1006C0008D8378876F835A8749873C872B878D81F5
:1006D0009E818130910551F48F8199852B853C85D0
:1006E000692FA9010E94D1088D8739C08D819E8113
:1006F000009799F58F81988529853A85820F931FF8
:1007000020E18130920718F085E88D8728C08B851D
:100710009C859A8389831C821B8216C08F81988551
:100720000E94040FE981FA8180838F819885019668
:1007300098878F8389819A8101969A8389838B8197
:100740009C8101969C838B832B813C8189859A8532
:100750002817390718F31D8602C028EE2D878D85CE
:100760002D960FB6F894DEBF0FBECDBFCF91DF91AF
:100770000895DF93CF93CDB7DEB72C970FB6F894DB
:10078000DEBF0FBECDBF9F838E83798768875B876F
:100790004A878E819F8128853985820F931F20E1AA
:1007A0008130920718F085E88C8731C08A859B8557
:1007B0009D838C831B821A8222C08E819F810E941E
:1007C000040F8983EC81FD8190818981981741F024
:1007D0008E819F81EC81FD812081622F0E940C0F10
:1007E0008C819D8101969D838C838E819F81019652
:1007F0009F838E838A819B8101969B838A832A8132
:100800003B818885998528173907B8F21C868C8525
:100810002C960FB6F894DEBF0FBECDBFCF91DF91FF
:100820000895DF93CF93CDB7DEB70E9493098FEF82
:100830009FEF0E94750480E090E062E070E00E940B
:10084000B00981E090E062E070E00E94B009EFCF73
:10085000DF93CF930F92CDB7DEB780E889832981EC
:1008600080E090E00FB6F8942093610080936100DF
:100870000FBE0F90CF91DF910895DF93CF93CDB747
:10088000DEB70E945308CF91DF910895DF93CF9395
:1008900000D0CDB7DEB79A83898389819A8100978A
:1008A00029F4E1E8F0E082E4808304C0E1E8F0E0CC
:1008B00087E480830F900F90CF91DF910895DF93AD
:1008C000CF9300D0CDB7DEB79A8389830E94C3044B
:1008D000DC01CB01E981FA8180839183A283B38318
:1008E0000F900F90CF91DF910895DF93CF9300D0B9
:1008F00000D00F92CDB7DEB79D838C83EFE5F0E09B
:1009000080818B83F8948C819D818630910578F16C
:10091000E4E8F0E0208131818C819D81820F931F7A
:100920009A838983E4E8F0E02081318189819A818A
:100930002817390750F4E4E8F0E0208131818981FB
:100940009A8128173907B8F312C0E4E8F0E0208153
:10095000318189819A8182179307B8F3E4E8F0E046
:100960002081318189819A8128173907B8F3EFE511
:10097000F0E08B8180830F900F900F900F900F907D
:10098000CF91DF910895DF93CF9300D000D000D0B6
:10099000CDB7DEB780913303909134039E838D836E
:1009A0008D819E81CC01A0E0B0E089839A83AB83E6
:1009B000BC8389819A81AB81BC81DC01992788271E
:1009C00089839A83AB83BC83E4E8F0E080819181E2
:1009D0009C0140E050E089819A81AB81BC81822BEF
:1009E000932BA42BB52B89839A83AB83BC83209153
:1009F0003303309134038D819E818217930751F622
:100A000089819A81AB81BC81BC01CD0126960FB64C
:100A1000F894DEBF0FBECDBFCF91DF9108951F9236
:100A20000F920FB60F9211248F939F93DF93CF9362
:100A3000CDB7DEB780913303909134030196909344
:100A4000340380933303CF91DF919F918F910F9067
:100A50000FBE0F901F9018951F920F920FB60F9216
:100A60001124DF93CF93CDB7DEB7CF91DF910F90F5
:100A70000FBE0F901F901895DF93CF93CDB7DEB7C1
:100A8000A4E7B0E0E4E7F0E0808180688C93E5E7DC
:100A9000F0E080E88083ADE2B0E0EDE2F0E080815C
:100AA0008F738C93CF91DF910895DF93CF93CDB760
:100AB000DEB727970FB6F894DEBF0FBECDBF9D837C
:100AC0008C836E8380912703882311F01F824FC08F
:100AD0009091290380912803981750F09091280352
:100AE00080912903292F281B822F82588A8309C0CD
:100AF0009091280380912903292F281B822F815050
:100B00008A839A818E81981718F48A818B8302C018
:100B10008E818B838B81898390912C038B81890FAC
:100B200080932C031FC080912903882F90E0EC81D3
:100B3000FD812081FC01EB5CFC4F20838091290327
:100B40008E3719F41092290305C0809129038F5F15
:100B5000809329038B8181508B838C819D810196A9
:100B60009D838C838B818823F1F689818F838F818C
:100B700027960FB6F894DEBF0FBECDBFCF91DF91A1
:100B80000895DF93CF93CDB7DEB780912C038823F0
:100B9000E1F080912C03815080932C03A0E0B2E21D
:100BA00080912803882F90E0FC01EB5CFC4F808152
:100BB0008C93809128038E3719F41092280305C076
:100BC000809128038F5F80932803CF91DF91089550
:100BD000DF93CF9300D000D00F92CDB7DEB79B83C9
:100BE0008A836C83198280912D03882311F41D82DE
:100BF00044C080912D038F3768F080912B03809340
:100C00002A038FE780932D038C818F3758F08FE76D
:100C10008C8308C090912D038C81981718F48091D3
:100C20002D038C838C81898323C080912A03882F94
:100C300090E0FC01EC54FC4F8081EA81FB818083D1
:100C400080912A038F5F80932A0380912A038F3734
:100C500011F410922A0380912D03815080932D036B
:100C60008A819B8101969B838A838C8181508C83AE
:100C70008C818823D1F689818D838D810F900F908F
:100C80000F900F900F90CF91DF910895DF93CF9346
:100C9000CDB7DEB780912D038F37E0F480912D031F
:100CA0008F5F80932D0380912B03882F90E0E0E0ED
:100CB000F2E22081FC01EC54FC4F208380912B0355
:100CC0008E3719F410922B0305C080912B038F5F90
:100CD00080932B03CF91DF910895EF92FF920F93B2
:100CE0001F93DF93CF9300D000D000D0CDB7DEB7F5
:100CF000ECE2F0E080818A838A81882314F00E94EC
:100D0000460680912C03882309F461C08FEF898304
:100D100056C08A81882F90E0807490700097A1F46B
:100D200080912703882351F01092270310922E03FD
:100D300010922F0310923003109231030E94C105CC
:100D40008981815089833BC08091270391E0892765
:100D50008823E9F180912E0390912F03A091300315
:100D6000B09131030097A105B10529F48EE293E01B
:100D70000E945F042CC0CE0103960E945F042B8169
:100D80003C814D815E8180912E0390912F03A09133
:100D90003003B091310379018A01E81AF90A0A0B8C
:100DA0001B0BD801C701893803E1900700E0A007B9
:100DB00000E0B00760F081E08093270308C08091D5
:100DC0002C03882321F08981882309F0A2CF26965D
:100DD0000FB6F894DEBF0FBECDBFCF91DF911F914C
:100DE0000F91FF90EF900895DF93CF9300D0CDB790
:100DF000DEB78A8319828A81882F90E0823091053C
:100E000019F40E943C0502C085E8898389810F900E
:100E10000F90CF91DF910895DF93CF9300D000D052
:100E20000F92CDB7DEB78A837C836B834D838A8133
:100E3000882F90E08230910539F48B819C816D81FF
:100E40000E945505898301C0198289810F900F90F6
:100E50000F900F900F90CF91DF910895DF93CF9374
:100E600000D000D00F92CDB7DEB78A837C836B832E
:100E70004D838A81882F90E08230910539F48B81EF
:100E80009C816D810E94E805898301C01982898156
:100E90000F900F900F900F900F90CF91DF910895CA
:100EA000DF93CF9300D0CDB7DEB79A8389830F90BD
:100EB0000F90CF91DF910895DF93CF93CDB7DEB739
:100EC0002E970FB6F894DEBF0FBECDBF1E861D86CF
:100ED0001C868FEF9FEF9B878A871986188681E093
:100EE0008A83EFE5F0E080818983F894E1EBF0E01C
:100EF00080818D83E1E8F0E080818C83E0E8F0E0A0
:100F000080818B83E1EBF0E01082E1E8F0E0108279
:100F1000E0E8F0E010821F821E8270C0E6E3F0E09D
:100F20008FEF8083E7E3F0E08FEF8083E2EBF0E088
:100F30001082E4E8F0E011821082E1E8F0E081E064
:100F40008083E1EBF0E081E08083E6EBF0E080E29B
:100F50008083E7E3F0E08081882F90E081709070DB
:100F60000097B9F3E1E8F0E01082E1EBF0E01082E5
:100F7000E4E8F0E0808191819E878D878D859E8554
:100F8000009711F41A8240C08D859E8524EF85322A
:100F9000920748F484E294EF2D853E85821B930BE3
:100FA0009987888706C08D859E858452944F99873E
:100FB0008887288539858A859B852817390740F4D5
:100FC000888599859B878A87E6E6F0E080818C8713
:100FD0008D859E8524EF8532920730F4E6E6F0E0B9
:100FE00080818F5F808305C0E6E6F0E080818150DC
:100FF00080838E819F8101969F838E838E819F81C6
:101000008436910508F48ACFE1EBF0E08D8180838E
:10101000E1E8F0E08C818083E0E8F0E08B81808380
:10102000EFE5F0E089818083E6E6F0E08C8580835F
:101030008A812E960FB6F894DEBF0FBECDBFCF913A
:10104000DF910895DF93CF93CDB7DEB7A4E2B0E090
:10105000E4E2F0E0808181608C93A4E2B0E0E4E21D
:10106000F0E0808182608C93A4E2B0E0E4E2F0E002
:10107000808180628C93A4E2B0E0E4E2F0E08081C1
:1010800084608C93A4E2B0E0E4E2F0E080818061CF
:101090008C93A4E2B0E0E4E2F0E08081877F8C935F
:1010A000CF91DF910895DF93CF93CDB7DEB7E1E81D
:1010B000F0E082E48083E6E3F0E082E08083E6E330
:1010C000F0E084E08083E6E3F0E088E08083AFE650
:1010D000B0E0EFE6F0E0808181608C93CF91DF910A
:1010E0000895DF93CF9300D00F92CDB7DEB78B83F7
:1010F000EDE3F0E080818983ADE3B0E0EDE3F0E083
:1011000080818E7F8C93A5E2B0E0E5E2F0E0808103
:101110008F7D8C93A5E2B0E0E5E2F0E080818E7FE8
:101120008C930000000000000000000000000000A0
:101130000000EEE4F0E083E08083EDE4F0E0808105
:101140008823DCF7EEE4F0E08B818F778083EDE499
:10115000F0E080818823DCF7EEE4F0E01082EDE43B
:10116000F0E080818823DCF7EEE4F0E080818A8380
:10117000A5E2B0E0E5E2F0E0808181608C93A5E239
:10118000B0E0E5E2F0E0808180628C93EDE3F0E096
:10119000898180838A810F900F900F90CF91DF918A
:1011A0000895DF93CF93CDB7DEB7CE54D0400FB6BE
:1011B000F894DEBF0FBECDBFFE01E65BFF4F80831C
:1011C000FE01E55BFF4F6083FE01E45BFF4F51834F
:1011D00040831986CE010A9698878F830EC0898531
:1011E0000E947108EF81F885808389858F5F8987E8
:1011F0008F819885019698878F838985803478F3CD
:1012000019861E821D82CE010A9698878F8312C08E
:10121000EF81F88520818D819E81622F0E9469096E
:101220009E838D8389858F5F89878F8198850196BD
:1012300098878F838985803458F38D819E810097AC
:1012400029F085E82F968FAF2F9736C0CE010A96EA
:101250009C838B83FE01E65BFF4F8081282F30E06B
:101260008B819C81820F931F9C838B83FE01E45BA7
:10127000FF4F808191819A838983198613C0EB8106
:10128000FC818081E981FA81808389819A8101963C
:101290009A8389838B819C8101969C838B8389852A
:1012A0008F5F8987FE01E55BFF4F998580819817E5
:1012B00030F32F961FAE2F972F968FAD2F97C25BCF
:1012C000DF4F0FB6F894DEBF0FBECDBFCF91DF91D9
:1012D0000895DF93CF9300D000D00F92CDB7DEB743
:1012E0009C838B836D832D818B819C818227082E2B
:1012F0008295807F8025092E982F82958F700826F1
:10130000869598278927880F880F880F80259A83CC
:10131000898389819A810F900F900F900F900F9081
:10132000CF91DF910895DF93CF93CDB7DEB7A4E7D8
:10133000B0E0E4E7F0E0808180688C93E5E7F0E0DE
:1013400080E8808310923203E0911403F09115033A
:101350008091320380958C6F8083CF91DF910895C7
:10136000DF93CF93CDB7DEB729970FB6F894DEBFE2
:101370000FBECDBF9B838A837D836C834A815B8153
:101380005F834E838E819F81009731F04E815F8114
:101390004130510519F005C0198204C081E08983EC
:1013A00001C019828C819D819987888748855985DC
:1013B0004115510531F08885998581309105E1F01D
:1013C00037C08981282F30E081E090E0022E02C0F2
:1013D000880F991F0A94E2F7982F80913203892B86
:1013E00080933203E0911403F0911503809132034E
:1013F00080958C6F80835BC08981282F30E081E0ED
:1014000090E0022E02C0880F991F0A94E2F7982FED
:10141000909580913203892380933203E0911403E5
:10142000F09115038091320380958C6F80833FC0CB
:1014300080913203282F30E08981882F90E0A90124
:1014400002C0559547958A95E2F7CA018170907060
:10145000882399F08981282F30E081E090E0022EE6
:1014600002C0880F991F0A94E2F7982F90958091F7
:10147000320389238093320311C08981282F30E001
:1014800081E090E0022E02C0880F991F0A94E2F7D3
:10149000982F80913203892B80933203E0911403BB
:1014A000F09115038091320380958C6F808329968B
:1014B0000FB6F894DEBF0FBECDBFCF91DF91089578
:1014C000DF93CF93CDB7DEB7A4E7B0E0E4E7F0E079
:1014D000808180688C93E5E7F0E080E88083CF919D
:1014E000DF910895DF93CF9300D000D0CDB7DEB762
:1014F0009A838983E0911603F09117038081882FE6
:1015000090E081709070882319F01C821B8204C0C7
:1015100081E090E09C838B838B819C810F900F9066
:101520000F900F90CF91DF910895DF93CF93CDB7B8
:10153000DEB7ECE4F0E080E58083EDE4F0E081E00C
:101540008083ACE4B0E0ECE4F0E080818C7F8C93AD
:10155000A5E2B0E0E5E2F0E0808181608C93CF917C
:10156000DF910895DF93CF9300D00F92CDB7DEB710
:101570008A836B83EDE3F0E080818983ADE3B0E0A3
:10158000EDE3F0E080818E7F8C938A81806C8A838A
:10159000A5E2B0E0E5E2F0E080818E7F8C93EEE49E
:1015A000F0E08A818083EDE4F0E080818823DCF73D
:1015B000EEE4F0E08B818083EDE4F0E0808188232D
:1015C000DCF7A5E2B0E0E5E2F0E0808181608C9399
:1015D000EDE3F0E0898180830F900F900F90CF9121
:1015E000DF910895DF93CF9300D00F92CDB7DEB790
:1015F0008B83EDE3F0E080818983ADE3B0E0EDE340
:10160000F0E080818E7F8C938B8180688B83A5E254
:10161000B0E0E5E2F0E080818E7F8C93EEE4F0E0D4
:101620008B818083EDE4F0E080818823DCF7EEE4B9
:10163000F0E01082EDE4F0E080818823DCF7EEE456
:10164000F0E080818A83A5E2B0E0E5E2F0E080810D
:1016500081608C93EDE3F0E0898180838A810F9033
:101660000F900F90CF91DF910895DF93CF9300D02B
:1016700000D0CDB7DEB79B838A836C83A5E2B0E050
:10168000E5E2F0E080818E7F8C93EEE4F0E080E292
:101690008083EDE4F0E080818823DCF7EEE4F0E085
:1016A00010828C818130D9F0EDE4F0E080818823D4
:1016B000DCF7EEE4F0E080818983EEE4F0E0108274
:1016C000EA81FB81898180838A819B8101969B834A
:1016D0008A838C8181508C838C81823028F7EDE461
:1016E000F0E080818823DCF7EEE4F0E08081EA819D
:1016F000FB818083A5E2B0E0E5E2F0E080818160DB
:101700008C930F900F900F900F90CF91DF910895D1
:10171000DF93CF9300D000D0CDB7DEB79B838A8311
:101720006C83A5E2B0E0E5E2F0E080818E7F8C93EF
:10173000EEE4F0E080E68083EDE4F0E08081882351
:10174000DCF7EA81FB81808189838A819B81019614
:101750009B838A838C8181508C83EDE4F0E08081CF
:101760008823DCF7EEE4F0E0898180838C81882394
:1017700041F7EDE4F0E080818823DCF7A5E2B0E0FA
:10178000E5E2F0E0808181608C930F900F900F90E4
:101790000F90CF91DF910895DF93CF9300D000D0C9
:1017A000CDB7DEB78A836B834C838A810E94F20AAD
:1017B000898399818B81892389838981282F30E0CE
:1017C0008C81882F90E0A90102C0559547958A9594
:1017D000E2F7CA01898389810F900F900F900F90D3
:1017E000CF91DF910895DF93CF9300D000D00F9277
:1017F000CDB7DEB78A836B834C832D838A810E94A9
:10180000F20A89838B81982F909589818923898316
:101810008D81282F30E08C81882F90E0A90102C0B3
:10182000440F551F8A95E2F7CA018D839D818B81F4
:1018300089238D839D818981892B8D838A816D8107
:101840000E94B20A0F900F900F900F900F90CF91BF
:10185000DF910895629FD001739FF001829FE00D98
:10186000F11D649FE00DF11D929FF00D839FF00D1F
:10187000749FF00D659FF00D9927729FB00DE11DCB
:10188000F91F639FB00DE11DF91FBD01CF011124A8
:101890000895A1E21A2EAA1BBB1BFD010DC0AA1FB1
:1018A000BB1FEE1FFF1FA217B307E407F50720F0C9
:1018B000A21BB30BE40BF50B661F771F881F991F44
:1018C0001A9469F760957095809590959B01AC018D
:1018D000BD01CF0108950F931F93CF93DF938C0128
:1018E000EB01009731F46115710519F420E030E047
:1018F00038C081E090E06EE070E00E941A0FFC01B9
:101900009C01009771F180E88383209771F0D38761
:10191000C28781E883838091330490913404892BBA
:1019200021F4F0933404E093330401151105C9F058
:101930001187008783818260838380913504909131
:101940003604892B71F4F0933604E09335048091CA
:10195000370490913804892B21F4F0933804E093F4
:101960003704C901DF91CF911F910F910895DF9343
:10197000CF93CDB7DEB7FE0135966191719180911D
:10198000350490913604AF010E94FE0CCF91DF9197
:1019900008950F931F93CF93DF938C01E09135044B
:1019A000F0913604838181FF21C0C0E0D0E00DC0FA
:1019B000E0913504F091360420853185BF01F901AD
:1019C0000995892B11F0CFEFDFEFF80181918F019D
:1019D000882371F7E0913504F09136042085318534
:1019E0008AE0BF01F9010995892B11F0CFEFDFEFF4
:1019F000CE01DF91CF911F910F9108952F923F92C9
:101A00004F925F926F927F928F929F92AF92BF920E
:101A1000CF92DF92EF92FF920F931F93DF93CF93BA
:101A2000CDB7DEB72B970FB6F894DEBF0FBECDBF94
:101A30003C012B015A01FC0117821682838181FD32
:101A400003C06FEF7FEFC6C19AE0892E1E01089494
:101A5000211C311CF3012381F20123FD859123FF19
:101A600081912F01882309F4B2C1853239F423FD15
:101A7000859123FF81912F01853229F490E0B301F4
:101A80000E945810E7CF982FFF24EE249924FFE1FD
:101A9000FF15D0F09B3269F09C3228F4903259F057
:101AA000933291F40EC09D3249F0903369F441E0D5
:101AB00024C052E0F52A84E0F82A28C098E0F92AE8
:101AC00025C0E0E1FE2A22C0F7FC29C0892F8053FF
:101AD0008A3070F4F6FE05C0989C902C1124980E64
:101AE00015C0E89CE02C1124E80EF0E2FF2A0EC09D
:101AF0009E3229F4F6FC6BC140E4F42A07C09C3600
:101B000019F450E8F52A02C0983649F4F20123FD91
:101B1000959123FF91912F01992309F0B8CF892F37
:101B20008554833018F08052833038F444E050E01C
:101B3000A40EB51E5FE359830FC0933631F093377F
:101B400079F0933509F056C020C0F5018081898372
:101B500042E050E0A40EB51E610101E010E012C0A9
:101B6000F501C080D180F6FC03C06FEF7FEF02C0AB
:101B7000692D70E042E050E0A40EB51EC6010E943F
:101B80004D108C015FE7F52214C0F501C080D180B3
:101B9000F6FC03C06FEF7FEF02C0692D70E042E0FA
:101BA00050E0A40EB51EC6010E943B108C0150E807
:101BB000F52AF3FE07C01AC080E290E0B3010E944C
:101BC0005810EA948E2D90E008171907A8F30EC05C
:101BD000F601F7FC8591F7FE81916F0190E0B3016A
:101BE0000E945810E110EA940150104001151105AF
:101BF00079F7EAC0943611F0993669F5F7FE08C016
:101C0000F501208131814281538184E090E00AC056
:101C1000F501808191819C01442737FD4095542F27
:101C200082E090E0A80EB91E9FE6F92257FF09C096
:101C300050954095309521953F4F4F4F5F4FE0E8CD
:101C4000FE2ACA01B901A1012AE030E00E948410F5
:101C5000D82ED21840C0953729F41F2D1F7E2AE0B8
:101C600030E01DC01F2D197F9F3661F0903720F4A2
:101C7000983509F0ACC00FC0903739F0983709F0AB
:101C8000A6C004C028E030E00AC0106114FD146052
:101C900020E130E004C014FD166020E132E017FFBF
:101CA00008C0F501608171818281938144E050E038
:101CB00008C0F50180819181BC0180E090E042E0A4
:101CC00050E0A40EB51EA1010E948410D82ED21897
:101CD0008FE7F82EF122F6FE0BC05EEFF522D91445
:101CE00038F4F4FE07C0F2FC05C08FEEF82202C003
:101CF0001D2D01C0192DF4FE0DC0FE01ED0DF11DCD
:101D00008081803319F499EEF92208C01F5FF2FE3A
:101D100005C003C08F2D867809F01F5F0F2DF3FCDF
:101D200014C0F0FE0FC01E1510F09D2C0BC09D2C92
:101D30009E0C911A1E2D06C080E290E0B3010E9415
:101D400058101F5F1E15C0F304C01E1510F4E11AD1
:101D500001C0EE2404FF0FC080E390E0B3010E94B5
:101D6000581002FF1DC001FD03C088E790E00EC0BF
:101D700088E590E00BC0802F867891F001FF02C0CB
:101D80008BE201C080E2F7FC8DE290E0B3010E949B
:101D9000581006C080E390E0B3010E9458109A9456
:101DA000D914C0F3DA94F101ED0DF11D808190E0BA
:101DB000B3010E945810DD20A9F706C080E290E030
:101DC000B3010E945810EA94EE20C1F743CEF3010C
:101DD00066817781CB012B960FB6F894DEBF0FBEDC
:101DE000CDBFCF91DF911F910F91FF90EF90DF90CA
:101DF000CF90BF90AF909F908F907F906F905F90AB
:101E00004F903F902F900895F999FECF92BD81BDDC
:101E1000F89A992780B50895262FF999FECF1FBA11
:101E200092BD81BD20BD0FB6F894FA9AF99A0FBE03
:101E3000019608950F931F93CF93DF93689F8001BE
:101E4000699F100D789F100D1124C8010E94360F54
:101E5000EC01009729F060E070E0A8010E944610B4
:101E6000CE01DF91CF911F910F910895CF93DF9312
:101E7000BC018230910510F462E070E0A0913B0457
:101E8000B0913C04ED01E0E0F0E040E050E021C022
:101E9000888199818617970769F48A819B81309799
:101EA00019F09383828304C090933C0480933B0495
:101EB000FE0134C06817790738F44115510519F04F
:101EC0008417950708F4AC01FE018A819B819C016F
:101ED000E9012097E9F641155105A9F1CA01861BD0
:101EE000970B049708F4BA01E0E0F0E02AC08D9166
:101EF0009C91119784179507F9F46417750781F47D
:101F000012968D919C911397309719F09383828349
:101F100004C090933C0480933B04FD0132964FC073
:101F2000CA01861B970BFD01E80FF91F619371939E
:101F300002978D939C9343C0FD01828193819C0104
:101F4000D9011097A1F68091390490913A04892B18
:101F500041F480911A0390911B0390933A0480936B
:101F6000390440911C0350911D034115510541F462
:101F70004DB75EB78091180390911903481B590B18
:101F80002091390430913A0424173507B0F4CA017E
:101F9000821B930B8617970780F0AB014E5F5F4F54
:101FA0008417950750F0420F531F50933A04409303
:101FB0003904F9016193719302C0E0E0F0E0CF01D0
:101FC000DF91CF910895CF93DF93009709F450C02C
:101FD000EC0122971B821A82A0913B04B0913C0431
:101FE000109709F140E050E0AC17BD0708F1BB8342
:101FF000AA83FE0121913191E20FF31FAE17BF07B3
:1020000079F48D919C911197280F391F2E5F3F4FC6
:102010003983288312968D919C9113979B838A8391
:102020004115510571F4D0933C04C0933B0420C08A
:1020300012968D919C911397AD01009711F0DC01E0
:10204000D3CFFA01D383C28321913191E20FF31FE1
:10205000CE17DF0769F488819981280F391F2E5F19
:102060003F4FFA01318320838A819B81938382834E
:10207000DF91CF910895FC010590615070400110EF
:10208000D8F7809590958E0F9F1F0895DC0101C0B1
:102090006D9341505040E0F70895FC01615070404D
:1020A00001900110D8F7809590958E0F9F1F08958D
:1020B0000F931F93CF93DF938C01EB018B8181FFF3
:1020C0001BC082FF0DC02E813F818C819D8128170E
:1020D000390764F4E881F9810193F983E88306C044
:1020E000E885F985802F0995892B31F48E819F81B0
:1020F00001969F838E8302C00FEF1FEFC801DF910F
:10210000CF911F910F910895FA01AA27283051F11C
:10211000203181F1E8946F936E7F6E5F7F4F8F4F18
:102120009F4FAF4FB1E03ED0B4E03CD0670F781F77
:10213000891F9A1FA11D680F791F8A1F911DA11D5C
:102140006A0F711D811D911DA11D20D009F4689495
:102150003F912AE0269F11243019305D3193DEF63D
:10216000CF010895462F4770405D4193B3E00FD0F3
:10217000C9F7F6CF462F4F70405D4A3318F0495DDE
:1021800031FD4052419302D0A9F7EACFB4E0A695C1
:102190009795879577956795BA95C9F700976105E3
:1021A000710508959B01AC010A2E06945795479539
:1021B00037952795BA95C9F7620F731F841F951F2E
:0821C000A01D0895F894FFCF63
:1021C8000040C063FFFFF04F01004877FFFFC0D415
:1021D8000100D08AFFFFA0800200589EFFFF485FE1
:1021E8000300E0B1FFFFA074040068C5FFFF60CCE6
:1021F8000500F0D8FFFF586E070078ECFFFFA056E7
:1022080009000000000020890B008813000020FA54
:102218000D0010270000B8A51000983A0000907033
:102228001300204E0000F04E1600A8610000502D4B
:1022380019003075000040F41B00B8880000F09BBE
:102248001E00409C0000F00C2100C8AF0000284B85
:10225800230050C30000C84E2500D8D60000D01770
:10226800270060EA000028AA2800E8FD0000D00541
:102278002A0070110100B02E2B00F82401006834E8
:102288002C002D2D20507265737320616E206172B1
:1022980062697472617279206368617261637465DE
:1022A8007220746F206765742074656D7065726143
:1022B80074757265202D2D0D0054656D7065726101
:1022C800747572653A20256325642E2530326420A2
:0E22D800B0430A000040004020003D0400001A
:00000001FF
