:100000000C943C010C945D010C9494050C94BF0578
:100010000C945D010C945D010C945D010C945D01E8
:100020000C945D010C945D010C945D010C945D01D8
:100030000C945D010C945D010C94FB0A0C945D0121
:100040000C942C0B0C945D010C945D010C945D01DF
:100050000C945D010C945D010C945D010C945D01A8
:100060000C945D010C945D010C945D010C945D0198
:100070000C945D010C945D010C945D010C945D0188
:100080000C945D010C945D010C948D0C0C945D013D
:100090000C945D010C945D010C945D010C945D0168
:1000A0000C945D010C945D010C945D010C945D0158
:1000B0000C945D010C945D010C945D010C945D0148
:1000C0000C945D010C945D010C945D010C945D0138
:1000D0000C945D010C945D010C945D010C945D0128
:1000E0000C945D010C945D010C945D010C945D0118
:1000F0000C945D010C945D010C945D010C945D0108
:100100000C945D010C945D010C945D010C945D01F7
:100110000C945D010C945D010C945D010C945D01E7
:100120000C945D010C945D010C945D010C945D01D7
:100130000C945D010C945D010C945D010C945D01C7
:100140000C945D010C945D010C945D010C945D01B7
:100150000C945D010C945D010C945D010C945D01A7
:100160000C9411050C945D010C943D050C945D01FB
:100170000C945D010C945D010C945D010C945D0187
:100180000C945D010C945D010C945D010C945D0177
:100190000C945D010C945D010C945D010C945D0167
:1001A0000C945D010C945D010C945D010C945D0157
:1001B0000C945D010C945D010C945D010C945D0147
:1001C0000C945D010C945D010C945D010C945D0137
:1001D0000C945D010C945D010C945D010C945D0127
:1001E0000C945D010C945D0103020201010000FF0B
:1001F000FEFDFCFBF9F7F4EFAC20C519EF1AF32A6A
:100200005D2CEE26B532502E742EC42D6F36E53897
:100210000000CB3D37330000B61D591DCD1DFC1D20
:10022000E41DBD1E891E1C1E00000000F81E571F85
:100230003D1EAF1FDD1E811F2B1F411F991F151F64
:10024000010401010102010101010101010101019A
:100250000401080201010101020101020102010180
:100260000201020201010101220111010401040144
:10027000010101080202080011241FBECFEFDFE5D3
:10028000DEBFCDBF00E00CBF10E2A0E0B0E2ECE7C3
:10029000F8E800E00BBF02C007900D92A432B1074E
:1002A000D9F716E2A4E2B0E201C01D92AA39B10763
:1002B000E1F70E9465010C943C440C94000082E03C
:1002C00090E061E00E94360C08950E94BC3F8823B4
:1002D00011F00E94A60681E08093A2241092A3242C
:1002E0001092A4241092A5241092A62488E480934E
:1002F000A7248EED8093A8248CEA8093A9240E94E1
:10030000300C80E090E060E00E94360C81E090E0EC
:1003100061E00E94360C82E090E061E00E94360CC1
:10032000789481E00E94A1410E94C33FFDCFDF93FA
:10033000CF930F920F92CDB7DEB7882361F482E29C
:10034000898381E18A8383E560E0AE014F5F5F4F7F
:100350000E94DD4103C081E00E94A1410F900F90F7
:10036000CF91DF9108959F92AF92BF92CF92DF928B
:10037000EF92FF920F931F93DF93CF93CDB7DEB72A
:10038000A797CDBFDEBF882309F023C1623709F4E8
:1003900048C0633780F4623551F1633530F461341D
:1003A00011F16C3409F015C104C16335C1F0613736
:1003B00009F00FC111C1653781F1663738F4633731
:1003C00009F4F0C0643709F004C170C0673709F45C
:1003D00003C16737D0F06C3709F0FBC012C081E071
:1003E000898381E4E1C081E0898382E5DDC081E029
:1003F00040E050E060E170E024E000E00E94404214
:10040000EBC081E0898386E7CFC081E08E831F82C5
:1004100095E09887898785E7C0C081E0898382E776
:10042000C3C060910120509102204091032030917F
:100430000420209105209091062080910720709142
:1004400000207E836F83588749873A872B879C8754
:100450008D8781E08E878F87888B198A1A8A1B8AFD
:100460008C8B8D8B1E8A8F8B80EC888F81EC898F93
:1004700082EC8A8F83EC8B8F84EC8C8F85EC8D8F54
:1004800086EC8E8F87EC8F8F88EC88A389EC89A30C
:100490008AEC8AA38BEC8BA38CEC8CA38DEC8DA3C4
:1004A0008EEC8EA38FEC8FA381E777C03091AD24C3
:1004B0002091AE2490912420809125201091262017
:1004C000F0902720E0902820D0902920C0902A206A
:1004D000B0902B20A0902C2090902D203E832F8335
:1004E000988789871A87212F3F2D4E2D5D2D6C2DE2
:1004F0007B2D8A2D992D08E00E94E6422B87212F23
:100500003F2D4E2D5D2D6C2D7B2D8A2D992D00E1DB
:100510000E94E6422C87212F3F2D4E2D5D2D6C2D04
:100520007B2D8A2D992D08E10E94E6422D87212FEF
:100530003F2D4E2D5D2D6C2D7B2D8A2D992D00E2AA
:100540000E94E6422E87212F3F2D4E2D5D2D6C2DD2
:100550007B2D8A2D992D08E20E94E6422F87212FBC
:100560003F2D4E2D5D2D6C2D7B2D8A2D992D00E379
:100570000E94E642288B212F3F2D4E2D5D2D6C2DA4
:100580007B2D8A2D992D08E30E94E642298B1A8A39
:100590001B8A1C8A1D8A1E8A83E760E0AE014A5FBF
:1005A0005F4F14C019828CE460E0AE014F5F5F4F73
:1005B0000DC081E090E0A0E0B0E08A839B83AC8333
:1005C000BD8387E760E0AE014E5F5F4F0E94DD4173
:1005D00003C081E00E94A141A796CDBFDEBFCF91AD
:1005E000DF911F910F91FF90EF90DF90CF90BF9020
:1005F000AF909F900895AF92CF92EF920F938AEAB7
:100600009AE164E140E02FE00FE0EE24E394CC2493
:10061000AA240E9473420F91EF90CF90AF9008955B
:10062000882361F481E090E060E00E94360C8CE762
:1006300060E040E050E20E94DD41089581E00E94C8
:10064000A1410895EF920F931F93A0912420B091A0
:100650002520109701F1E0912620E217E1F4E091C6
:100660002720E317C1F4E0912820E417A1F4E091DA
:100670002920E51781F4E0912A20E61761F4E09142
:100680002B20E71741F4E0912C20E81721F4E091AA
:100690002D20E91749F1E0912E20F0912F2030977D
:1006A00001F1009130200217E1F40091312003178D
:1006B000C1F4009132200417A1F4009133200517F2
:1006C00081F400913420061761F40091352007175A
:1006D00041F400913620081721F4009137200917C2
:1006E00029F01097A9F418C0E0E001C0E1E0AE2FB6
:1006F000B0E0FD01EE0FFF1F13E0AA0FBB1F1A951C
:10070000E1F7EA0FFB1FEC5DFF4D0081118123C073
:10071000309719F5E1E001C0E0E0F0E08F010C5BFB
:100720001C4CDF01AA0FBB1FEE0FFF1FEE0FFF1FB8
:10073000EE0FFF1FAE0FBF1FAC5DBF4DFD0101935C
:10074000119312962C9312973183428353836483BF
:10075000758386839783EE2404C00FEF1FEFEE248A
:10076000E3940E94AE401F910F91EF900895DF93A4
:10077000CF930F92CDB7DEB7442349F481E089834C
:1007800084E760E0AE014F5F5F4F0E94DD410F9054
:10079000CF91DF910895EF92FF920F931F93DF9314
:1007A000CF93CDB7DEB782E090E060E00E94360CD8
:1007B00085E040E251EA67E070E020E00FE511E0FB
:1007C000EE24FF240E94A409CF91DF911F910F9185
:1007D000FF90EF9008950F931F93DF93CF930F92A5
:1007E000CDB7DEB789838A3071F48DE089838E01BD
:1007F0000F5F1F4F80E0B80141E00E94760588231B
:10080000C9F38AE089838E010F5F1F4F80E0B80132
:1008100041E00E9476058823C9F380E090E00F90C4
:10082000CF91DF911F910F9108950F931F93DF9345
:10083000CF930F92CDB7DEB78E010F5F1F4F80E0D1
:10084000B80141E00E947F058823C9F3898190E0C7
:100850000F90CF91DF911F910F910895DF93CF9368
:100860000F92CDB7DEB780E0BE016F5F7F4F41E0F2
:100870000E947F05813019F4298130E002C02FEFFA
:100880003FEFC9010F90CF91DF9108950F931F9310
:10089000CF93DF938C01EB010AC080E0B8014C2FAD
:1008A0000E94760590E0C81BD90B080F191F1C1673
:1008B0001D069CF3DF91CF911F910F9108959B012D
:1008C000AC016050774F824C9F4FF2E0660F771F6C
:1008D000881F991FFA95D1F7E3E0220F331F441FB9
:1008E000551FEA95D1F70E94654321503040E0E65C
:1008F000F6E088E0818384E08283E0EAF9E03783F0
:1009000026838CE1848383E085838CE3838308954D
:10091000CF93DF93282F8091A309837FE0EAF9E04A
:100920008383E0916324309164243E1718F08E2F66
:10093000875F02C08E2F8150831B681708F4862FB3
:10094000392FE901982F11C0209164243991A22FE9
:10095000B0E0A15BBB4D3C93293019F410926424A4
:1009600003C02F5F209364249150992369F79091DD
:100970006724992349F4F0E0E15BFB4D908190936B
:10098000A00991E0909367249091A3099C60E0EA0C
:10099000F9E09383DF91CF910895FC018091682461
:1009A0008823E9F19091A3099F7CA0EAB9E013960E
:1009B0009C9313978A3050F080916624809365242D
:1009C0008AE0809368246A3028F405C0861718F4FA
:1009D000682F01C06AE0962F18C0A0916524B0E08E
:1009E000A15BBB4D1A968C911A97819380916524D7
:1009F0008F5F809365242091682421502093682480
:100A000091508A3011F410926524992331F7809126
:100A1000A3098063E0EAF9E08383862F089580E0EC
:100A200008951F920F920FB60F920BB60F921124DA
:100A30008F939F93EF93FF93809166249091682406
:100A40009F5F909368249091A009E82FF0E0E15B0C
:100A5000FB4D9287893019F41092662403C08F5F92
:100A600080936624FF91EF919F918F910F900BBE21
:100A70000F900FBE0F901F9018951F920F920FB6F8
:100A80000F920BB60F9211248F93EF93FF938091E7
:100A90006324893019F41092632403C08F5F80931C
:100AA0006324E091632480916424E81739F0F0E036
:100AB000E15BFB4D80818093A00902C01092672406
:100AC000FF91EF918F910F900BBE0F900FBE0F9083
:100AD0001F901895882341F460E875E280E090E06B
:100AE0000E945F0480E0089585E80895882329F432
:100AF000CB01642F0E948804089580E00895882324
:100B000029F4CB01642F0E94CD04089580E008955C
:100B10008093382090933920E0E4F6E081E0828BE6
:100B200094E09287848708951F920F920FB60F92D8
:100B30000BB60F9211242F933F934F935F936F93B4
:100B40007F938F939F93AF93BF93EF93FF93E09126
:100B50003820F09139201995FF91EF91BF91AF9115
:100B60009F918F917F916F915F914F913F912F91C5
:100B70000F900BBE0F900FBE0F901F9018951F92F5
:100B80000F920FB60F9211240F900FBE0F901F906F
:100B90001895EBECF1E021E030E088ED90E084BFC7
:100BA000208308958091CF0187FDFCCF08950F9396
:100BB0001F93DF93CF930F920F92CDB7DEB7898348
:100BC0009A830E94D20500EC11E0F80112829A810A
:100BD00091838981808386E082870E94C905F8011C
:100BE00084810F900F90CF91DF911F910F91089505
:100BF0000E944C0B0E94670B0E94B7060E940E08D1
:100C00000E94420B0E94460B88ED84BF81E08093D6
:100C1000800080E008950E94BE0A0895CF92DF927E
:100C2000EF92FF920F931F93CF93DF938B01EA0113
:100C3000813031F4862F642FA9010E94910B21C0CD
:100C40008823E1F4CA01860F971F40E181309407A1
:100C5000B8F4C22ED32EEE24FF240BC0C701800FA0
:100C6000911F0E94D705F60181936F010894E11C42
:100C7000F11CEC16FD0690F380E003C088EE01C085
:100C800085E8DF91CF911F910F91FF90EF90DF905A
:100C9000CF9008955F926F927F928F929F92AF92C2
:100CA000BF92CF92DF92EF92FF920F931F93CF9359
:100CB000DF93EC015B01CB018C0F9D1F20E18130A4
:100CC000920798F5C42ED52EEE24FF2400EC11E0F7
:100CD00023E3722E95E3892E86E3982E21C0CE0160
:100CE0000E94D705F60161906F018615A9F05C2E70
:100CF0000E94D2058091CF0181FF04C0F801928645
:100D00000E94C905F80172865092C00111821282B8
:100D1000648282860E94C90521960894E11CF11C18
:100D2000EA14FB04E0F280E001C085E8DF91CF9196
:100D30001F910F91FF90EF90DF90CF90BF90AF90F9
:100D40009F908F907F906F905F9008951F93CF93A7
:100D5000DF93E0E2F6E014828FEF8183C0E2D6E019
:100D60001FEF8FEF9FEF0E943C081F83FACF80E5B3
:100D70008093C00880E1E0E4F6E085830895E0E434
:100D8000F6E020914906909149069C7F9187806CFE
:100D900090E19683E0ECF8E083838091C20887FFBE
:100DA000FCCFE0ECF8E063838091C20887FFFCCFC2
:100DB000E0E4F6E080E1858321870895E0E4F6E051
:100DC00020914906909149069C7F9187806890E127
:100DD0009683E0ECF8E083838091C20887FFFCCF24
:100DE000E0ECF8E013828091C20887FFFCCF80918D
:100DF000C308E0E4F6E090E195832187089520E1BF
:100E0000E0E4F6E0268320E2E0ECF8E023832091A2
:100E1000C20827FFFCCFE0ECF8E013826130B9F0A4
:100E2000262FFC01A0ECB8E03091C20837FFFCCFC0
:100E30003091C30813961C9213973193215022309E
:100E400098F7625070E06F5F7F4F860F971F209179
:100E5000C20827FFFCCF2091C308FC01208380E15A
:100E6000E0E4F6E085830895FC0180E1A0E4B6E0CB
:100E700016968C9380E6A0ECB8E013968C931397AB
:100E80008091C20887FFFCCFA0ECB8E0819161504F
:100E90009091C20897FFFCCF13968C93139766230B
:100EA000A9F78091C20887FFFCCF80E1E0E4F6E07B
:100EB00085830895DF93CF930F920F92CDB7DEB75E
:100EC0004A8369830E94DE066981862390E04A8115
:100ED00002C0959587954A95E2F70F900F90CF91B4
:100EE000DF9108951F93DF93CF9300D0CDB7DEB786
:100EF000182F2B834A8369830E94DE062B8130E002
:100F00004A8102C0220F331F4A95E2F769812623E6
:100F100060956823622B812F0E94BF062396CDBF68
:100F2000DEBFCF91DF911F91089560916924709188
:100F30006A249B0140E050E0A901332722278091D9
:100F4000200890912108A0E0B0E0282B392B4A2BF3
:100F50005B2B8091692490916A246817790729F79F
:100F6000B901CA0108951F93CF93DF931FB7F89477
:100F700080913C208F3F09F44CC0C82FD0E0FE0187
:100F800033E0EE0FFF1F3A95E1F7EC0FFD1FE55937
:100F9000FB4D80819181A281B381209169243091A0
:100FA0006A242A173B0769F480932808909329083C
:100FB00080910C08806180930C0880910708836001
:100FC00003C0809107088C7F809307080E949507D3
:100FD000FE0123E0EE0FFF1F2A95E1F7EC0FFD1F46
:100FE000E559FB4D2081318142815381621B730B96
:100FF000840B950B6F5F7F4F8F4F9F4F6F3F2FEF8E
:1010000072072FEF82072FE7920718F481E0809391
:101010003B201FBFDF91CF911F91089510923A207E
:1010200010923B201092692410926A248FEF8093D3
:101030003C2080933D2080933E20EFE6F4E28483C1
:1010400010821182399694E2E53AF907C1F70E94BD
:10105000840B0895882319F488E08093000808958C
:10106000CF93DF93EC010E949507688379838A838D
:101070009B83DF91CF9108954FB7F8948630910507
:1010800018F12091200830912108280F391F8091F4
:101090002008909121088217930740F4809120083E
:1010A0009091210882179307C8F30EC08091200801
:1010B0009091210828173907C8F380912008909152
:1010C000210882179307C8F34FBF089590E0FC01F1
:1010D00043E0EE0FFF1F4A95E1F7E80FF91FE559CE
:1010E000FB4D81E0248135812115310509F480E033
:1010F000089580913B20882309F44CC010923B2036
:1011000020913A20222309F445C080913D208F3F51
:1011100059F480913E208F3F39F480913C20809398
:101120003E2080933D2012C030913C2080913E2093
:1011300090E0FC0173E0EE0FFF1F7A95E1F7E80FF6
:10114000F91FE559FB4D308730933E2080913C20BC
:1011500090E0FC0163E0EE0FFF1F6A95E1F7E80FF6
:10116000F91FE559FB4D808580933C2080913E20FE
:1011700090E0FC0153E0EE0FFF1F5A95E1F7E80FF6
:10118000F91FE559FB4D8FEF8087215020933A20BE
:101190000E94B30708950F931F93082F863008F01D
:1011A000CDC01FB7F8940E94790840913A2044239B
:1011B00009F45BC050913C20252F352F02C0232F0E
:1011C000382F031709F041C0802F90E0051781F4F4
:1011D000FC0153E0EE0FFF1F5A95E1F7E80FF91FEE
:1011E000E559FB4D808580933C200E94B30719C0D0
:1011F00030E0F90143E0EE0FFF1F4A95E1F7E20FFF
:10120000F31FE559FB4DDC0123E0AA0FBB1F2A9514
:10121000E1F7A80FB91FA559BB4D18968C911897E7
:101220008087802F90E0FC01A3E0EE0FFF1FAA95BE
:10123000E1F7E80FF91FE559FB4D8FEF80878091AB
:101240003A20815080933A2065C0832F90E0FC01C2
:1012500073E0EE0FFF1F7A95E1F7E80FF91FE559EC
:10126000FB4D8085415009F0AACF40913D20342F9D
:10127000242F4BC00217D9F520913E200417B1F45A
:10128000021721F48FEF80933E200DC0802F90E055
:10129000FC0163E0EE0FFF1F6A95E1F7E80FF91F0D
:1012A000E559FB4D808580933D2034C0832F90E02D
:1012B000FC0153E0EE0FFF1F5A95E1F7E80FF91F0D
:1012C000E559FB4D802F90E0DC0143E0AA0FBB1FE6
:1012D0004A95E1F7A80FB91FA559BB4D18968C91F7
:1012E000189780870217B1F430933E2013C0822FE5
:1012F00090E0FC01B3E0EE0FFF1FBA95E1F7E80FB5
:10130000F91FE559FB4D322F20852F3F09F0B2CF51
:1013100080E00FC0802F90E0FC01A3E0EE0FFF1FE4
:10132000AA95E1F7E80FF91FE559FB4D14821582E4
:1013300081E01FBF882321F080E003C08AE801C05C
:1013400089E81F910F9108952F923F924F925F92DB
:101350006F927F928F929F92AF92BF92CF92DF92C5
:10136000EF92FF920F931F93CF93DF93D82E4A01F2
:101370005B01C22E3701863008F0CBC00115110584
:1013800009F4CBC0C82FD0E0FE0133E0EE0FFF1F01
:101390003A95E1F7EC0FFD1FE559FB4D84819581EE
:1013A000009709F0B8C00E9495079B01AC01CC20C2
:1013B00029F06C2D613009F0B0C014C0D501C40112
:1013C00080589040A040B04080386FEF96076FEF94
:1013D000A6076FE7B60708F0A2C0820E931EA41EF0
:1013E000B51E13C0D501C40180589040A040B04044
:1013F000821B930BA40BB50B80382FEF92072FEFB6
:10140000A2072FE7B20708F08AC0CFB6F8940E946F
:10141000790850913C205F3F31F0F0903A20652FE1
:10142000452F70E054C0D0923C20FE0123E0EE0F27
:10143000FF1F2A95E1F7EC0FFD1FE559FB4D508783
:1014400035C04F3F09F442C0242F30E0F90193E04A
:10145000EE0FFF1F9A95E1F7E20FF31FE559FB4DE1
:1014600080819181A281B38114012501281A390A52
:101470004A0A5B0AD201C1018F3F2FEF92072FEF7B
:10148000A2072FE7B20718F4642F40851FC0FE01A2
:1014900083E0EE0FFF1F8A95E1F7EC0FFD1FE55982
:1014A000FB4D4087541721F4D0923C2081E013C0BB
:1014B000862F90E0FC01B3E0EE0FFF1FBA95E1F735
:1014C000E80FF91FE559FB4DD08656C07F5F7F15A9
:1014D00008F4B7CF38C0FE01A3E0EE0FFF1FAA95B6
:1014E000E1F7EC0FFD1FE559FB4D80829182A2824E
:1014F000B382048315836682778290913A209F5F3E
:1015000090933A20882311F00E94B307CFBE80E069
:1015100007C08AE805C088E803C088EE01C08BE8F0
:10152000DF91CF911F910F91FF90EF90DF90CF90BF
:10153000BF90AF909F908F907F906F905F904F90F3
:101540003F902F900895862F90E0FC0173E0EE0FFE
:10155000FF1F7A95E1F7E80FF91FE559FB4DD0869B
:10156000FE0163E0EE0FFF1F6A95E1F7EC0FFD1F30
:10157000E559FB4D8FEF808780E0ADCF1F931FB7FC
:10158000F8940E9479081FBF1FEF2FC03FB7F8944F
:1015900080913D2090E0DC0143E0AA0FBB1F4A95FB
:1015A000E1F7A80FB91FA559BB4D18962C911897B4
:1015B0001496ED91FC91159716968D919C91179725
:1015C00018961C93189714961D921C9215971696B0
:1015D0001D921C92179720933D202F3F11F41093DA
:1015E0003E203FBF309709F0199580913D208F3FF5
:1015F00069F61F9108951F920F920FB60F920BB6C6
:101600000F9211242F933F934F935F936F937F9388
:101610008F939F93AF93BF93EF93FF938091692430
:1016200090916A2401968093692490936A240E9481
:10163000B307FF91EF91BF91AF919F918F917F91F0
:101640006F915F914F913F912F910F900BBE0F9033
:101650000FBE0F901F9018951F920F920FB60F920A
:1016600011248F9380913A20882319F081E0809390
:101670003B208F910F900FBE0F901F9018950895EB
:1016800081E0089584E8809380010895E0EAF0E025
:10169000828184608283089582E0809350008091EB
:1016A000510081FFFCCF88ED84BF94E0E0E4F0E0DE
:1016B000918384BF81E08093400082E0E0E5F0E028
:1016C0008683809160008160809360000895E0E4EB
:1016D000F6E0808180618083808180688083808162
:1016E0008160808380818062808380818860808344
:1016F00080818F7B8083E0E6F6E080ED818380E26D
:10170000828380E18583089588E08093000880EFDC
:1017100080930C0880E380934C0883E08093060854
:101720000895AF92BF92CF92DF92EF92FF920F9304
:101730001F93DF93CF93CDB7DEB7C054D040CDBF5A
:10174000DEBF9E012F5F3F4F90E0E0E4F6E0EE2425
:10175000E394B0E1FB2E00EC18E0A3E0DA2E70EC8D
:10176000A72E78E0B72EC0904906709149067C7F7D
:101770007187E682F6820000000000000000000091
:101780000000000000000000000000000000000059
:10179000000000000000D8011396DC9213977091AE
:1017A000C20877FFFCCF792F7F77D50113967C9302
:1017B00013977091C20877FFFCCFD50113961C9246
:1017C00013977091C20877FFFCCF7091C308F58220
:1017D000E582C186D9017D939D019F5F903409F018
:1017E000C2CFDE01AF5BBF4F20E030E0FE0131969B
:1017F00091912927022E2295207F2025032E322F1A
:1018000022952F700226269532272327220F220F9A
:10181000220F2025EA17FB0759F72115310581F41E
:10182000FA01DE011196A80FB11DCA01860F911DA4
:1018300002C02D912193E817F907D9F780E001C084
:1018400085E8C05CDF4FCDBFDEBFCF91DF911F9138
:101850000F91FF90EF90DF90CF90BF90AF900895E1
:10186000E0E2F6E087E08183868308958330910586
:1018700028F4885F9F4DFC01208101C020E0662391
:1018800019F06130B9F40BC081E090E002C0880F1C
:10189000991F2A95E2F7E0E2F6E08583089581E05A
:1018A00090E002C0880F991F2A95E2F7E0E2F6E087
:1018B0008683089581E090E002C0880F991F2A95E1
:1018C000E2F7E0E2F6E087830895E0E2F6E088E000
:1018D000828388E1838B0895E0E2F6E0808590E0E2
:1018E00023E0959587952A95E1F7817008952FB7A4
:1018F000F89498E09093B000E0E2F6E08BE1838BFF
:1019000081858C7F826081879287E0EAF0E0828126
:101910008260828378942FBF08951F920F920FB632
:101920000F920BB60F9211248F93EF93FF93E0E287
:10193000F6E08285877F8287E8E4F0E080818E7F11
:101940008083FF91EF918F910F900BBE0F900FBE90
:101950000F901F9018950E94770CE8E4F0E08081CA
:10196000807F85608083789488950895EF92FF92B8
:101970000F931F93CF93DF938FE390E20E946C0D40
:1019800004E410E29AEDE92E93E2F92EC0E0D0E0F3
:10199000F70100831183BE01660F771F660F771F63
:1019A00066527C4D8FE390E20E94730D219607569C
:1019B0001F4F84E090E0E80EF91EC630D10541F7D4
:1019C000DF91CF911F910F91FF90EF9008958FE3DA
:1019D00090E260E070E00E948E0D0895BC010097D7
:1019E00021F08FE390E20E94730D08956F927F9231
:1019F0008F929F92BF92CF92DF92EF92FF920F93BE
:101A00001F93CF93DF938C014B016A01BFB6F8940B
:101A1000DC0114968C911497882309F44BC0CD9166
:101A2000DC91119741155105C1F07E0113C0F601FB
:101A3000628173810190F081E02D888199811995EF
:101A4000882371F47E019A818B81692EE3013E0126
:101A5000782EE301209759F72FC0209769F17E0176
:101A60008114910449F5D8012D913C9111978A81F7
:101A70009B81C217D30721F48D939C93119703C0C8
:101A8000F70182839383D80112968D919C911397CD
:101A9000C817D90721F41296ED92FC921397F8011A
:101AA00084818150848380819181009729F41282FE
:101AB000138202C0C0E0D0E0BFBECE01DF91CF9163
:101AC0001F910F91FF90EF90DF90CF90BF909F906C
:101AD0008F907F906F900895FC0110821182128286
:101AE000138214820895FC019FB7F894848188239F
:101AF00019F46083718306C0A281B38112966D933D
:101B00007C93139762837383DB0112961D921C9260
:101B1000139784818F5F84839FBF0895AB0160E03A
:101B200070E00E94F60C0895AB0161E070E00E9445
:101B3000F60C0895CF93DF93EC010BC0CE0160E06B
:101B400070E00E948E0D009711F41C8205C00E9467
:101B5000EE0C8C81882391F7DF91CF91089580E27C
:101B60008093C00008950895FC01A091F223B091E4
:101B7000F32380E19D919093C3008150D9F780E1D8
:101B800091919093C2008150D9F78091C1008178E2
:101B9000E1F381E08093C1000895DF93CF93CDB747
:101BA000DEB76297CDBFDEBF21E42093F423009718
:101BB00099F01092F52322E020930B20A6EFB3E2D8
:101BC000FC0180E101900D928150E1F786EF93E2F4
:101BD0008093F2239093F323442321F0413009F0C2
:101BE0005CC007C080910B20813071F586EF93E2D5
:101BF00027C080910B20813039F18091F523882313
:101C0000E9F481E48093C00086EF93E28093F223AD
:101C10009093F323CE0101964A8B698B0E94B40DF9
:101C2000E6E0F4E269894A898091C300819384E205
:101C3000E631F807C9F781E08093F52386E094E266
:101C40008093F2239093F32340930B20662311F0AB
:101C5000623019F581E090E0623011F080E090E0B0
:101C6000880F991F880F991F582F54708091F42363
:101C7000582B81E090E0413011F080E090E09C0131
:101C800084E0220F331F8A95E1F72071252B2093E2
:101C9000F4232093C00081E001C080E06296CDBFB4
:101CA000DEBFCF91DF910895FC0180E19091C200E9
:101CB00091938150D9F708950E94AF0D089581E066
:101CC0008093162408952F923F924F925F926F92C5
:101CD0007F928F929F92AF92BF92CF92DF92EF92BC
:101CE000FF920F931F93DF93CF93CDB7DEB7629729
:101CF000CDBFDEBF4C015B013A01D22E102F809187
:101D00001624882321F00E94B30D109216242E2D44
:101D100030E0A901437050704115510559F04F5FF3
:101D20005F4F81E090E002C0880F991F4A95E2F76B
:101D3000F82E01C0FF24287F2115310509F0B3C01A
:101D40008114910409F4AFC0A114B10409F4ABC02B
:101D50004D2C55241201210E311C8F2D90E0898BC2
:101D60009A8B820D931D8038910508F09CC080915C
:101D70000C20882321F061147104F1F496C06114E1
:101D80007104D1F020E040E14150842F90E0F30154
:101D9000E80FF91FDC01A95EBB4D80819C9189276A
:101DA00090E030E0822B932B21E0009709F420E0B3
:101DB000442351F720930C2080910C20882379F044
:101DC000C30160E040E00E94CD0DE7E1F4E2D30101
:101DD00080E10D9001928150E1F710920C2081E09A
:101DE000F5018083FF2061F08F2D90E0029795959B
:101DF000879523E0880F991F2A95E1F781608083FA
:101E0000DD2021F0F50180818064808384E0682EEC
:101E10006E20F501E0801686CC20D1F4FF2051F031
:101E20001787B401620D731DC401A5012D2D012F6B
:101E30000E94BE0F6620D9F181E0F5018083C401C4
:101E4000840D951DB5014F2D212F0E941E102FC00E
:101E5000662059F081E0F5018083C401840D951D51
:101E6000B5014F2D212F0E941E10FF2001F1F50119
:101E7000E0821787C4013E010894611C711CB30104
:101E8000A5012D2D012F0E94BE0F8D2D90E0810FF9
:101E9000911D880D991DB30149895A890E94E54316
:101EA000009729F006C081E005C082E003C080E011
:101EB00001C083E06296CDBFDEBFCF91DF911F915D
:101EC0000F91FF90EF90DF90CF90BF90AF909F90D9
:101ED0008F907F906F905F904F903F902F900895DC
:101EE000EF92FF920F931F93DF93CF93CDB7DEB79F
:101EF0006297CDBFDEBF8C01262F7C010CC0C701CD
:101F0000298B6A8B0E94B40D80E190E0E80EF91EE7
:101F1000298920516A89203190F7262F22952F7028
:101F200030E084E0220F331F8A95E1F7200F311F44
:101F3000462F4F70C9F0E42EFF248E010F5F1F4F14
:101F4000C801B90150E00E94F24320E130E02E19AF
:101F50003F09E00EF11EC70160E070E0A9010E9498
:101F6000FB43C8010E94B40D6296CDBFDEBFCF9186
:101F7000DF911F910F91FF90EF9008958F929F92A4
:101F8000BF92CF92DF92EF92FF920F931F93DF9356
:101F9000CF93CDB7DEB76097CDBFDEBF7C014B01DD
:101FA0006A01122FFA01078780E090E060E040E0CC
:101FB0000E94CD0DC6010E94B40D80E090E062E069
:101FC00040E00E94CD0D112309F1B12E1F3010F019
:101FD0009EE0B92E19821A83CB2CDD249E012D5F41
:101FE0003F4FC901B7014B2D50E00E94F2436B2DCA
:101FF0006E5FCE0101960E94700FB11638F4612F0A
:102000006B19C7018C0D9D1D0E94700FC701810FB8
:10201000911D602F0E94700FC4010E94540E6096A3
:10202000CDBFDEBFCF91DF911F910F91FF90EF9059
:10203000DF90CF90BF909F908F9008958F929F9246
:10204000AF92BF92CF92DF92EF92FF920F931F93C6
:10205000DF93CF93CDB7DEB76097CDBFDEBF7C01F6
:102060005B01942E022F10E080E090E060E040E001
:102070000E94CD0D88246E010894C11CD11C22C081
:102080008394D5011F968C92C5010E94B40DC601A0
:102090000E94540ED601C8010131110514F080E1EF
:1020A00090E090E09601280F391FF70104C05D9180
:1020B000408145274193A217B307C9F7E80EF91EDF
:1020C0000051104010161106DCF29920A1F0F50124
:1020D0001786C5010E94B40D8E010F5F1F4FC80106
:1020E0000E94540EF8019191D7018C9189278D930C
:1020F0007D019A94C1F76096CDBFDEBFCF91DF918D
:102100001F910F91FF90EF90DF90CF90BF90AF9015
:102110009F908F9008951F9381E06FE140E00E94AF
:102120005A078830A1F48FE00E94DE0682E069E061
:102130000E94BF0610E08FE00E94DE0680FD07C00F
:102140008EE690E00E943C081F5F1330A1F71F91BC
:1021500008951F93DF93CF930F92CDB7DEB7182F5B
:102160008091C1248F3089F51092CA248EE199E1C3
:102170000E948805E0E4F6E081E0848780914906CA
:10218000836081878FB7F894789498E096839091D4
:10219000CA249923E1F38FBF8FE00E94DE0683EF0C
:1021A00098E10E9488058EE06CE00E94BF068DE0F9
:1021B00064E042E021E00E947207183011F0133011
:1021C00021F488E08093C124DCC181E06FE140E02C
:1021D0000E945A078093C124183009F458C019305E
:1021E00050F4143009F4A5C0163009F4AFC0133010
:1021F00009F0BEC164C01F3069F0103120F41930FD
:1022000009F0B6C174C0163109F4D9C0193109F00A
:10221000AFC141C182E063E00E94BF068DE064E08F
:1022200042E020E00E9472070E94D543682F8DE2B1
:1022300099830E94BF068EE267E040E09981292FD2
:102240000E9472078FE00E94DE068EE06FEF40E092
:1022500020E10E9472070000000000000000000062
:10226000000000000000000000000000000000006E
:1022700000000000000088E0E0E4F6E0858383E2EF
:1022800090E00E943C081093C1248FE07AC188300E
:1022900009F46EC182E068E00E94BF060000000001
:1022A000000000000000000000000000000000002E
:1022B00000000000000000000000000059C188304C
:1022C00009F456C182E063E00E94BF0600000000EE
:1022D00000000000000000000000000000000000FE
:1022E00000000000000000000000000041C1883034
:1022F00029F1893020F4863009F03AC105C08631D1
:1023000019F0893109F034C182E069E00E94BF060A
:1023100000000000000000000000000000000000BD
:1023200000000000000000000000000000000000AD
:102330001FC1883019F0893021F41AC10E948B1016
:1023400017C182E064E00E94BF0612C1893059F0D3
:102350008A3020F4883009F00BC11AC0863119F098
:10236000893109F005C182E066E00E94BF060000E5
:10237000000000000000000000000000000000005D
:102380000000000000000000000000000000F0C09D
:102390000E948B1082E066E00E94BF0600000000F1
:1023A000000000000000000000000000000000002D
:1023B000000000000000000000000000D9C08830CC
:1023C00001F1893020F4863009F0D2C031C0893063
:1023D00019F0893109F0CCC082E066E10E94BF06A5
:1023E00000000000000000000000000000000000ED
:1023F00000000000000000000000000000000000DD
:10240000B7C00E948B1082E066E10E94BF06000008
:1024100000000000000000000000000000000000BC
:102420000000000000000000000000000000A0C04C
:1024300082E069E00E94BF0600000000000000008A
:10244000000000000000000000000000000000008C
:10245000000000000000000081E06FE140E00E9409
:102460005A078093C124893009F08BC082E066E16D
:102470000E94BF06000000000000000000000000F5
:10248000000000000000000000000000000000004C
:10249000000000006DC0883009F454C0893020F479
:1024A000863009F065C01BC0893021F0863109F003
:1024B0005FC015C082E069E10E94BF060000000015
:1024C000000000000000000000000000000000000C
:1024D00000000000000000000000000049C082E091
:1024E00069E00E94BF06000000000000000000003C
:1024F00000000000000000000000000000000000DC
:1025000000000000000081E06FE140E00E945A07F7
:102510008093C124893009F034C082E069E10E94CF
:10252000BF060000000000000000000000000000E6
:10253000000000000000000000000000000000009B
:10254000000016C00E948B1082E069E10E94BF0665
:10255000000000000000000000000000000000007B
:10256000000000000000000000000000000000006B
:1025700081E06FE140E00E945A078093C1248F31CF
:10258000B9F30F90CF91DF911F9108958091B224FC
:102590008823E1F08091CB248823C1F48091272403
:1025A00090912824009739F489E90E94E70C8093E0
:1025B0002724909328248091272490912824009701
:1025C00029F01092B22486E10E94A9108091B724CC
:1025D000882351F083EB94E260E070E00E948E0D5E
:1025E000009711F00E945B138091CB24823019F088
:1025F000853031F403C00E94961308950E94F514AB
:102600000895DF92EF92FF920F931F93DF93CF9382
:102610000F920F92CDB7DEB7E0912724F0912824D6
:10262000309731F4CE01029661E00E94FF0639C076
:10263000E080F18087E00E94DE06D82ECE01019670
:1026400061E00E94FF06698167FD2BC0862F8D5FC8
:1026500009E910E0081B11090E0D1F1D6E5FC8016E
:102660000E94FF06F701078310878981F801E80FB0
:10267000F11DD282609127247091282483EB94E28B
:102680000E94730D89E90E94E70C809327249093A0
:102690002824009731F489E00E94A91081E08093FA
:1026A000B2240F900F90CF91DF911F910F91FF9067
:1026B000EF90DF900895CF93DF939C01FC01C081E0
:1026C000D181AF81B885EC91E093C324F0E03196DD
:1026D000EA0FFB1F608141814F3118F4442319F048
:1026E00003C04EE101C041E0629566956695637056
:1026F0008FEF689FB001112450E0649FC001659F77
:10270000900D749F900D11246AE570E00E94514372
:102710006F3F710511F008F06FEF608329833A83F2
:10272000CE010E941024DF91CF9108951092CB2406
:10273000E0912924E83028F4F0E0E35FFF4D808148
:1027400001C085E86091BD247091BE240E942A35A5
:102750000895FF920F931F93CF93DF938C01EB01AA
:10276000F42E442331F08CE260EF44E02091C02449
:1027700004C08CE260EF44E020E00E947207C230A7
:10278000D10598F4FF2061F08CE26EE041E02091E9
:10279000B8240E9472078FE260E00E94BF0616C054
:1027A0008CE26EE041E027E00FC06091BC246295AE
:1027B000607F8091BF24682B8FE20E94BF068CE26D
:1027C0006EE041E02091B8240E94720789E10E94E6
:1027D000A9108931D9F7809149068C7FE0E4F6E0B1
:1027E0008187C130D10559F48091C324833118F019
:1027F00080E492E002C080E890E00E943C08C0E4DF
:10280000D6E088E08D83000000008E83F8016081AF
:102810006150C8010E94340781E08093CB248091ED
:10282000490683608987DF91CF911F910F91FF90B7
:1028300008952091CB24222389F48093BD24909382
:10284000BE24FC01878190858093C4249093C52485
:10285000009731F00E94A91380E0089586E808955A
:1028600088EE0895882311F087E005C082E060EECD
:1028700045E00E945A078093292482E08093CB246C
:102880008091272490912824009739F489E00E94B0
:10289000A91081E08093B224089586E10E94A910D6
:1028A00008958FE00E94DE0684FF28C087E00E9422
:1028B000DE0690912A24981710F480932A248091A0
:1028C0002B2490912C24A0912D24B0912E2401979B
:1028D000A109B10980932B2490932C24A0932D243B
:1028E000B0932E240097A105B10529F087E06FEF82
:1028F0000E94BF06089585E08093CB2408951F931E
:10290000CF93DF93182F8091CB24882339F08091C7
:10291000C1248F3009F064C081E863C0C0E4D6E010
:10292000809149068C7F898784E00E94A9108FE0FE
:102930000E94DE0685E160E847E021E00E94720720
:1029400081E594E10E9488058EE06FEF40E020E190
:102950000E947207809149068360898786E00E9401
:10296000A9108630A1F085E160E847E020E00E94F0
:10297000720783EF98E10E9488058EE06CE00E9468
:10298000BF06809149068360898785E82AC087E071
:102990006FEF0E94BF0684E08093CB2410922A241C
:1029A00020EC33E040E050E004C0220F331F441F0E
:1029B000551F1A95D2F720543C4F4F4F5F4F83E07D
:1029C00056954795379527958A95D1F720932B24CF
:1029D00030932C2440932D2450932E2480E001C06A
:1029E00086E8DF91CF911F91089585E160E847E087
:1029F00020E00E94720783EF98E10E9488058EE034
:102A00006CE00E94BF06809149068360E0E4F6E036
:102A100081871092CB2486E10E94A91080912A24FC
:102A2000893320F08FEF80932A240AC09FEF899F7B
:102A3000C001112468E370E00E94514360932A248E
:102A400080912A240E94C739089585FD03C0982FDC
:102A50009F7304C0982F91959F719195E8EEF1E0D6
:102A60002491291744F4203EB4F02032B4F427FF17
:102A700010C0822F0BC03F96E4919E178CF4E03E6D
:102A800054F0E03254F4E7FF0AC08E2F8F71806259
:102A900007C0822F05C080E203C08FE101C08E2FE6
:102AA0008068089585FD03C0982F9F7304C0982FF8
:102AB00091959F71919520E030E0822FF901E851C6
:102AC000FE4FE4919E1724F0E91744F481500895D5
:102AD0002F5F3F4F2031310581F780E0089584E07A
:102AE0008093B82423E02093BF248FEF9FEF80933F
:102AF000AD249093AE248093B0249093B1248BE0C6
:102B00008093BA2480E098EFAFEFB7E08093C624BB
:102B10009093C724A093C824B093C9241092AC24E6
:102B20008AE091E08093AA249093AB248AE080937A
:102B3000C22482E08093B92485E08093BC24209352
:102B4000C02483E80E9425158093A12481E080930E
:102B5000AF241092BB2408951F93CF93DF9382E29A
:102B60006091AD240E94BF0683E26091AE240E9472
:102B7000BF06C2EAD4E214E2812F69910E94BF0627
:102B80001F5F1C32C9F780E26091B0240E94BF062B
:102B900081E26091B1240E94BF0688E060E645E0D2
:102BA0002091AF240E9472078FE26FE040E02091F5
:102BB000BF240E9472078EE268E043E02091BB24AC
:102BC0000E9472078FE260EF44E02091BC240E94D3
:102BD000720788E06FE140E02091BA240E947207FA
:102BE0008091A1240E945215282F85E06FE040E0DB
:102BF0000E947207DF91CF911F9108951F93CF9389
:102C0000DF93EB019091CB24943009F4D9C08E343A
:102C100031F0893541F488818093C024CBC088810C
:102C20008093B824C7C02091C1242F3009F4C4C0B8
:102C30008B3009F4B7C08C3078F4823009F47CC052
:102C4000833018F48823E1F1B9C0833009F480C0DF
:102C5000843009F0B3C061C0833511F1843530F49C
:102C60008F3459F0803509F0A9C00CC0873509F4BC
:102C70005CC0803F09F0A2C072C028812093BF24AD
:102C80008FE263C088819981682F8093AD249093EF
:102C9000AE2482E20E94BF0683E26091AE240DC0A2
:102CA00088819981682F8093B0249093B12480E229
:102CB0000E94BF0681E26091B1240E94BF067AC0E3
:102CC000992309F07DC080E098EFAFEFB7E008806E
:102CD00004C0B695A795979587950A94D2F7817009
:102CE0009070009709F46EC0283039F088E00E9497
:102CF000A9108830D9F716E101C018E02881209387
:102D0000BA2488E06FE140E00E947207183009F4AD
:102D100051C086E10E94A9104DC0992309F050C00E
:102D20008881882309F44FC04DC028812093BC249A
:102D30008FE260EF44E03CC088810E9425158093BB
:102D4000A1240E945215282F85E06FE040E030C09A
:102D500028812093AF2488E060E645E029C088817F
:102D60008093A22489818093A3248A818093A424C0
:102D70008B818093A5248C818093A6248D81809360
:102D8000A7248E818093A8248F818093A924C2EAEE
:102D9000D4E214E2812F69910E94BF061F5F1C32AA
:102DA000C9F708C028812093BB248EE268E043E085
:102DB0000E94720780E007C081E805C084EF03C06D
:102DC00086E801C088EEDF91CF911F9108950F939F
:102DD0001F93CF93DF9386E00E94A9108630D9F726
:102DE00085E160E847E020E00E9472070091490613
:102DF000809149068C7FE0E4F6E0818718E0C0E02E
:102E0000D0E086E060E645E00E945A079E01220F6E
:102E1000331F220F331FC82FD0E0C22BD32B00004B
:102E200000000000000000000000000000000000A2
:102E30000000000000000000000000000000115031
:102E400001F783E00E94A9108FE00E94DE06E0E413
:102E5000F6E081E084870187CE010E94DA43DF91AA
:102E6000CF911F910F910895EF92FF920F931F93AF
:102E7000DF93CF930F920F92CDB7DEB7F82E81E09C
:102E800065E170E041E050E09E012F5F3F4F0E94FE
:102E90000E0600E416E088E0F80186838CE791E0F6
:102EA0000E943C08EE24E394F801E68281E090E081
:102EB0000E943C08F801E58200E084E690E00E9470
:102EC0003C0881E06FE140E00E945A070A30C9F0F7
:102ED000883011F00F5FF1CF8093C1242981222324
:102EE000D1F082E16FE040E00E94720714C00E94BE
:102EF0006F150E94AC151092CB241092B22480E082
:102F000001C085E80F900F90CF91DF911F910F9135
:102F1000FF90EF9008950E94E71683E060E344E09D
:102F200020E00E94720783E068E043E020E00E9416
:102F3000720783E067E040E021E00E9472070E9490
:102F4000D543682F8DE29A830E94BF068EE267E028
:102F500040E09A81292F0E94720780E00E94271981
:102F60000E944A198EE260E245E021E00E94720769
:102F70008CE060E847E021E00E94720784E062E0B4
:102F800041E021E00E9472078EE06CE00E94BF06E3
:102F90008DE063E040E021E00E9472078AE06FE08C
:102FA00040E023E00E9472078DE068E043E021E00A
:102FB0000E9472078DE064E042E021E00E94720707
:102FC000FF2009F496CF93CF0E943417882359F03D
:102FD0001CC083EB94E260E070E00E948E0D0097CD
:102FE00011F00E94EE0C8091B724882391F783EFB3
:102FF00098E10E948805E0E4F6E081E08487809112
:1030000049068360818780E0089585E808951F93CD
:10301000CF93DF930E94F805882309F0DFC0C0E456
:10302000D6E011E01D8388E08E838AE491E00E945F
:103030003C081E8381E090E00E943C081D831AE05A
:1030400003C0115009F4CAC084E690E00E943C0815
:103050008DE10E94DE068230A1F78CE10E94DE063F
:10306000833079F782E068E00E94BF0610E084E6D2
:1030700090E00E943C0881E06FE140E00E945A0726
:103080001A3009F4ABC0883011F01F5FF0CF809385
:10309000C12481E060E070E048E050E022EA34E2E0
:1030A0000E940E0681E00E943417882351F096C0DA
:1030B000C2EAD4E20E94D543899384E2CA3AD8078F
:1030C000C9F78091A2242091A3245091A424609157
:1030D000A5247091A624E091A724F091A824A091A2
:1030E000A924382F315041E0381708F040E0822FF2
:1030F000815091E0821708F090E0480F21E04817D6
:1031000008F020E0922B252F215081E0251708F0B0
:1031100080E0592F520F91E0521708F090E0892B70
:10312000262F215091E0261708F090E0682F620FBB
:1031300081E0621708F080E0982B272F215081E072
:10314000271708F080E0792F720F91E0721708F0CE
:1031500090E0892B2E2F215091E02E1708F090E05F
:10316000E82FE20F81E0E21708F080E0982B2F2F84
:10317000215081E02F1708F080E0920FF1E09217C4
:1031800008F0F0E08F2BA195A81779F49F3F69F420
:10319000EF3F59F47F3F49F46F3F39F45F3F29F423
:1031A0004F3F19F43E3F08F083CF83EF98E10E9430
:1031B0008805809149068360E0E4F6E081870E94FB
:1031C000B60C89E90E94E70C809327249093282469
:1031D00083EB94E20E946C0D80E001C085E8DF91F2
:1031E000CF911F9108958FE00E94DE0683FF0FC0EC
:1031F0002091CB24213041F486FF02C081E001C040
:1032000080E00E94321408950E940113089582FF05
:1032100014C08DE060E847E00E945A07882339F423
:103220008DE063E040E021E00E94720708958DE0A8
:1032300063E040E022E00E94720708958FE00E9460
:10324000DE0684FF03C081E08093CA2408958823AA
:10325000C9F48091C1248F30B9F08091CB248823A8
:10326000A9F41092B22488E00E94A9108830D9F7FE
:1032700080E00E942A088FE00E94A9108F3041F45C
:1032800080E0089588EE089581E8089586E808951D
:1032900086E808958091C1248F3051F488E00E941F
:1032A000A910883039F481E00E942A0880E008954E
:1032B00082E8089585E808959091CB249923B9F484
:1032C000883031F40E94A9101092B22488E0089549
:1032D0008091272490912824009721F086E10E9474
:1032E000A91003C081E08093B22486E0089586E8A7
:1032F0000895FC01A081B18184E18C9313966C93B5
:10330000139711964D935C93129785E996E2BF014E
:103310000E94730D08950F931F93DF93CF930F9225
:103320000F92CDB7DEB78091F0249091F1246BEE2F
:103330004FEF5FEF0E9479191092DF240FEF1FEF1C
:1033400009831A8380E5BE016F5F7F4F0E94D832E8
:1033500000932625109327251092342510923525A9
:103360001092362510923725109238251092392563
:1033700010923A2510923B250E948C2D0F900F90B1
:10338000CF91DF911F910F910895DF92EF92FF92FD
:103390000F931F93DF93CF93CDB7DEB72F97CDBF9A
:1033A000DEBF7C01DE011196FC0150814181252F99
:1033B000342FF9012FE001900D922150E1F7809315
:1033C000F0249093F1248C81823019F48F819885B8
:1033D0001AC08F818093342588858093352589850F
:1033E000809336258A85809337258B858093382571
:1033F0008C85809339258D8580933A258E858093A1
:103400003B258EEF9FEF809326259093272580E51F
:10341000BE016B5F7F4F0E94D8320E94B62DD7014C
:103420000D911C9181E0F8018083E182F282EB56DC
:10343000FF4F80838F858183DF0118978091A224BD
:103440008C938091A32411968C9311978091A4243E
:1034500012968C9312978091A52413968C931397B0
:103460008091A62414968C9314978091A724159686
:103470008C9315978091A82416968C93169780911B
:10348000A92417968C93DF011A978FEF9FEF8D93E6
:103490009C9311978C81823059F43C97809126251A
:1034A000909127258083918383E298EC45E11CC0AD
:1034B0007297809134258083809135258183809116
:1034C00036258283809137258383809138258483B4
:1034D00080913925858380913A25868380913B258B
:1034E000878383E29CEC4BE1DF0112972091AD24AE
:1034F0003091AE242D933C93DF0113972091EB2460
:103500002C932F5F2093EB24DF0115978D939C93D1
:1035100036974083D8011796ED93FC93189784E073
:10352000BE016D5F7F4F0E94D832D82E80E0BE0171
:103530006E5F7F4F0E94D832DD2071F4882361F4E2
:10354000C80162E070E041E00E941914882321F470
:1035500081E080936B2508C0C70161EE4FEF5FEFFC
:103560000E9479190E948C2D2F96CDBFDEBFCF917E
:10357000DF911F910F91FF90EF90DF900895BC01B4
:10358000FC01908181812091CC24222321F4CB0164
:103590000E94EE0C0895E92FF82F80914F2581832A
:1035A000809150258283809151258383809152257B
:1035B00084838091532585838091542586838091CF
:1035C0005525878380915625808780916125818745
:1035D00083E1808385E996E20E94730D0895CF927E
:1035E000DF92EF92FF920F931F93CF93DF93BC0173
:1035F000FC01C081D181D980EA80FB800C811D81D2
:103600005E814F81388589859A85CB8420916A2592
:103610002250223020F0CB010E94EE0C5CC022E050
:103620002883DE01AD56BF4FFD01219311968D9386
:103630009C931297C282FD0138978091A2248083C7
:103640008091A32481838091A42482838091A524E6
:1036500083838091A62484838091A724858380918D
:10366000A82486838091A92487833897D082E18219
:10367000F28203831483558346833783FD01729757
:103680008091AD249091AE2480839183FD01739746
:103690008091EB2480838F5F8093EB24FD017597ED
:1036A00083E69CEC8083918356978BE18C93AF8368
:1036B000B8871E828EEC94E20E94730D8091ED24F7
:1036C0009091EE248C839D8381E00E94660888237C
:1036D00011F40E948B2ADF91CF911F910F91FF90DF
:1036E000EF90DF90CF900895FF920F931F93DF9399
:1036F000CF930F920F92CDB7DEB7F09063250E9463
:10370000EE0CFF20B1F583E561E675E20E94D83248
:10371000409161255091622580914F2580933425F9
:1037200080915025809335258091512580933625B1
:103730008091522580933725809153258093382599
:1037400080915425809339258091552580933A2581
:103750008091562580933B2581E080936A251092C5
:10376000DF248091EA24833031F582E08093EA24DB
:1037700022C01092DF240FEF1FEF09831A8380E528
:10378000BE016F5F7F4F0E94D832009326251093B1
:103790002725109234251092352510923625109247
:1037A0003725109238251092392510923A2510921B
:1037B0003B254FEF5FEF8091F0249091F1246F2D26
:1037C0000E9479190E948C2D0F900F90CF91DF915C
:1037D0001F910F91FF900895EF92FF920F931F9307
:1037E000CF93DF93C0913025D091312580E061E007
:1037F00040E020E030E000E010E00E947F248823D9
:1038000051F48091F0249091F12461EE4FEF5FEF3D
:103810000E94791918C0AE0160E070E084E0440FA6
:10382000551F661F771F8A95D1F780E020E00BE8CF
:1038300019E1EE24FF240E94A409882321F080E0EE
:1038400090E00E948B19DF91CF911F910F91FF9013
:10385000EF900895209131242730E8F4FC01A781EE
:10386000B08512968C9112978695869583708230DA
:1038700091F4E0912F24F09130243297E0932F249B
:10388000F093302416968D919C91179780839183A5
:103890002F5F2093312480E0089520913124273038
:1038A000F0F4DC011796ED91FC91189782818695D2
:1038B00086958370833099F480912F2490913024E1
:1038C000089780932F2490933024DC01369688E06B
:1038D00001900D928150E1F72F5F2093312480E019
:1038E0000895BF92CF92DF92EF92FF920F931F93B2
:1038F000DF93CF93CDB7DEB72597CDBFDEBFDB011A
:10390000ED90FC901197F701618372838AE08083C8
:10391000870109561F4F4091EC24442371F0041B8A
:103920001109242F235FE2EFF4E2C801BF0150E048
:103930002D830E94F2432D8101C02DE08091D2247D
:10394000882309F443C000932F241093302410924D
:1039500031248DE49CE189839A838EEC94E26E019C
:103960000894C11CD11CB6012D830E94940DB09007
:103970003124109231248AE29CE189839A838EEC6F
:1039800094E2B6010E94940D30913124A0912F242D
:10399000B09130241197EB2DF0E0CF0124E0880F97
:1039A000991F2A95E1F7832B8C93EE0FFF1FEE0FE3
:1039B000FF1FE30FF11DEE0FE09331242D812E0F39
:1039C000F0E0E095F095E00FF11F02C0F8011292CF
:1039D000129280916A25833019F08FEF9FE002C028
:1039E0008FEF9FE43091CC2431119068DF019E93DA
:1039F0008E938091B0249091B1243FEF8E3F930736
:103A0000E9F43A972A5F8091A22480838091A324CD
:103A100081838091A42482838091A52483838091D3
:103A2000A62484838091A72485838091A8248683FB
:103A30008091A924878380E090EC05C0FD019293DA
:103A4000829380E090E8DF0112974091AD2450917D
:103A5000AE244D935C93DF0113973091E9243C939E
:103A60003F5F3093E924DF0115978D939C93369740
:103A70002083D7011796ED93FC931897C70162E056
:103A800070E040E00E94191481E080936B25259638
:103A9000CDBFDEBFCF91DF911F910F91FF90EF90CF
:103AA000DF90CF90BF900895BC0180E00E94711C10
:103AB00008956F927F928F92AF92CF92EF920F9371
:103AC000DF93CF93CDB7DEB76697CDBFDEBF3C01A6
:103AD000DC01ED91FC9181818983828193818A83CC
:103AE0009B8384818C8385818D8386818E8387816E
:103AF0008F83808588878185898782858A8783856A
:103B00008B8784858C87858596858D879E8787851D
:103B10008F878089888B8189898B82898A8B838929
:103B20008B8B84898C8B85898D8B86898E8B258D5B
:103B3000368DCE010196BE01645F7F4F448D0789AB
:103B4000E08CC18CA28C838C0E94CB03C3010E94A9
:103B5000EE0C6696CDBFDEBFCF91DF910F91EF9057
:103B6000CF90AF908F907F906F900895EF92FF92DB
:103B7000CF93DF93E82EE7017E01F92EE701E8817C
:103B8000F981818162810E94DB42C7010E94EE0CB3
:103B9000DF91CF91FF90EF900895EF92FF92CF9336
:103BA000DF93E82EE7017E01F92EE701E881F98134
:103BB000818162810E94DC42C7010E94EE0CDF918C
:103BC000CF91FF90EF900895EF92FF92CF93DF9304
:103BD000E82EE7017E01F92EE701E881F981818174
:103BE000928163810E94DD42C7010E94EE0CDF9149
:103BF000CF91FF90EF900895EF92FF920F93CF93A4
:103C0000DF93E82EE7017E01F92EE701E881F981D3
:103C100021813281438154816581768187819085BC
:103C200001850E942203C7010E94EE0CDF91CF9113
:103C30000F91FF90EF900895EF92FF920F93CF9323
:103C4000DF93E82EE7017E01F92EE701E881F98193
:103C5000BF016E5F7F4F24893589E788F08C8181B1
:103C6000438906890E94DE42CE010E94EE0CDF915C
:103C7000CF910F91FF90EF9008950F931F93DF93D3
:103C8000CF93CDB7DEB76697CDBFDEBF8C01DC0129
:103C9000ED91FC91818192818A839B8383818983C9
:103CA00084818C8385818D8386818E8387818F83B8
:103CB000808588878185898782858A8783858B87A8
:103CC000818192818D879E8784858C8785858F876A
:103CD0008685888B8785898B80898A8B81898B8B68
:103CE00082898C8B83898D8B84898E8BCE01019602
:103CF000BE01645F7F4F45890E94B703C8010E94DF
:103D0000EE0C6696CDBFDEBFCF91DF911F910F9174
:103D100008950F931F93DF93CF93CDB7DEB72B9703
:103D2000CDBFDEBF8C01DC01ED91FC9182818983E6
:103D3000838194818A839B8385818C8386818D8313
:103D400087818E8380858F83818588878285898717
:103D500083858A8784858B878181BE016F5F7F4FD2
:103D60000E94DF42C8010E94EE0C2B96CDBFDEBF41
:103D7000CF91DF911F910F910895EF92FF920F93D2
:103D8000CF93DF93E82EE7017E01F92EE701E8816A
:103D9000F9812181328143815481658176818781D6
:103DA000908501850E94E042C7010E94EE0CDF91E0
:103DB000CF910F91FF90EF900895EF92FF92CF93E4
:103DC000DF93E82EE7017E01F92EE701E881F98112
:103DD0009F012C5F3F4F8181628143810E94E142BC
:103DE000C7010E94EE0CDF91CF91FF90EF900895F4
:103DF000EF92FF92CF93DF93E82EE7017E01F92E39
:103E0000E701E881F9812181328143815481658113
:103E10007681878190850E94E242C7010E94EE0C64
:103E2000DF91CF91FF90EF900895EF92FF92CF93A3
:103E3000DF93E82EE7017E01F92EE701E881F981A1
:103E400081810E94E342C7010E94EE0CDF91CF9175
:103E5000FF90EF900895EF92FF92CF93DF93E82EBB
:103E6000E7017E01F92EE701E881F98181810E9455
:103E70009701C7010E94EE0CDF91CF91FF90EF9068
:103E80000895EF92FF92CF93DF93E82EE7017E0132
:103E9000F92EE701E881F98181810E94E442C7019E
:103EA0000E94EE0CDF91CF91FF90EF900895CF929A
:103EB000DF92EF92FF920F931F93CF93DF93E82E41
:103EC000E7017E01F92EE701E881F981048115817E
:103ED0002681378189E0C82ED12CCE0EDF1E81814C
:103EE00062814381E0840E94FB02CE010E94EE0CBD
:103EF000DF91CF911F910F91FF90EF90DF90CF90C6
:103F00000895EF92FF92CF93DF93E82EE7017E01B1
:103F1000F92EE701E881F9818181628143810E9464
:103F2000B301C7010E94EE0CDF91CF91FF90EF909B
:103F30000895EF92FF92CF93DF93E82EE7017E0181
:103F4000F92EE701E881F98181810E941003C70100
:103F50000E94EE0CDF91CF91FF90EF900895DC016D
:103F6000ED91FC91628173818181448125810E9460
:103F7000E5420895209161253091622536FF1BC0EE
:103F8000882359F420914D2530914E258091AD2400
:103F90009091AE242817390759F020914D25309182
:103FA0004E258091292590912A252817390719F443
:103FB0008EEE0E947A3E0895CF93DF932091612583
:103FC0003091622536FFC5C0882359F420914D25D4
:103FD00030914E258091AD249091AE242817390759
:103FE00061F020914D2530914E25809129259091A9
:103FF0002A252817390709F0ACC020914F253091A8
:10400000502580912625909127252817390709F4F6
:10401000A0C090914F2580913425981759F5909123
:10402000502580913525981729F59091512580913B
:1040300036259817F9F490915225809137259817D5
:10404000C9F49091532580913825981799F490914F
:10405000542580913925981769F4909155258091C0
:104060003A25981739F49091562580913B25981759
:1040700009F46FC089E90E94E70CEC01009709F48C
:1040800068C08881998125E0FC012083C183D283A7
:10409000DC01AA56BF4F2C93FD0138972091A22432
:1040A00020832091A32421832091A4242283209182
:1040B000A52423832091A62424832091A72425834B
:1040C0002091A82426832091A92427833897209122
:1040D0003425208320913525218320913625228384
:1040E0002091372523832091382524832091392559
:1040F000258320913A25268320913B252783FD01A6
:1041000072972091AD243091AE2420833183FD013C
:1041100073972091EB2420832F5F2093EB24FD01E4
:10412000759723E63CEC20833183569728E12C9346
:10413000FC01A783B08762E070E041E00E9419149F
:10414000882321F481E080936B2503C0CE010E9477
:10415000EE0CDF91CF9108958F929F92BF92CF92F4
:10416000DF92EF92FF920F931F93DF93CF930F9203
:10417000CDB7DEB78C01DC014D915C91DA01179669
:10418000ED91FC911897808180933F25E80FF11DF8
:10419000818180935F2517968D909C901897F401EC
:1041A000C180D2802CE335E2C0923C25D0923D25DF
:1041B000838180934025B4016C5F7F4FFD2CF29486
:1041C000F694F694E3E0FE22ED2CE694E694F3E018
:1041D000EF2209F45DC0D40114968D919C9115973E
:1041E0008093422590934325F4013696BE2DB2303C
:1041F00019F5D9011896F901108611961C9211979C
:1042000012961C92129713961C92139714961C9256
:10421000149715961C92159716961C92169717963A
:104220001C92D40116968D919C9117978087918747
:10423000F401389624E030C0BE2DB33061F5C901D9
:104240000896D4011696BC90D9011896BC9221818B
:10425000DC0111962C931197228112962C931297C0
:10426000238113962C931397248114962C931497DF
:10427000258115962C931597268116962C931697C3
:10428000278117962C931797F4013E962AE004C0D5
:10429000FB0120E001C022E0FF2009F449C0C6FC78
:1042A00008C08191919180934D2590934E252E5F6A
:1042B00008C0809142259091432580934D2590938D
:1042C0004E25BF2DB230C1F410924F2510925025CB
:1042D0001092512510925225109253251092542578
:1042E00010925525109256258081918180934F25FB
:1042F000909350252E5F1CC08F2D8330C9F4808190
:1043000080934F2581818093502582818093512510
:104310008381809352258481809353258581809366
:104320005425868180935525878180935625285F63
:1043300080913F258550821B80936025F0924C250B
:10434000E09241257B01E20EF11C8C2D8770809359
:104350003E25833021F4D7018C9180935E2519820C
:10436000C3FE5FC0FA01678170856F5F7F4F8CE38A
:1043700095E2A7019E012F5F3F4F0E944F3CB82E50
:10438000882309F453C089E90E94E70CBC01009717
:1043900009F42FC2DC01ED91FC918CE18083209126
:1043A000AD243091AE242183328380914C258383C8
:1043B00080914F258483809150258583809151255C
:1043C00086838091522587838091532580878091B1
:1043D0005425818780915525828780915625838732
:1043E000809141258487809144258587809145254A
:1043F000868780914625878780914725808B80918D
:104400004825818B80914925828B80914A25838B19
:1044100080914B25848BB58A85E996E20E94730DC5
:10442000E8C180915725887F8093572530913E259C
:10443000313009F45FC0313020F0333009F0D9C198
:104440006DC02981F701E20FF11D80819181809378
:10445000612590936225822F8E5F8983F701E80F93
:10446000F11D808180936325922F9D5F99838770D2
:1044700019F02C5F280F29834981F701E40FF11D02
:104480008081809364254F5F4983582F577090E057
:104490008077907024E0959587952A95E1F75523CC
:1044A00011F48823A9F09701240F311D209365256D
:1044B00030936625552321F0952F990F940F9983FA
:1044C000882331F0880F880F880F9981980F99837E
:1044D000909160258981891750F4981B90936725E6
:1044E000E80EF11CE0926825F092692586C11092D1
:1044F000672583C180916025882369F0863718F08D
:1045000086E7809360258981E80EF11CE0926125A1
:10451000F092622572C1109260256FC181E089839B
:1045200020915E252330F9F0243030F42130D9F089
:10453000223009F05EC107C0283008F45EC128307F
:1045400009F057C115C0D70111968D919C91129712
:104550008093612590936225398313968C911397EC
:10456000809363254AC1F70181818093612545C10C
:10457000D70111968D919C9112978093612590930C
:104580006225398313968D919C91149780936325AE
:104590009093642585E0898315968C911597809377
:1045A000652586E0898316968D919C911797809357
:1045B0006625909367252983D4FE1FC118968C9198
:1045C00018978093682519C180913E25833061F446
:1045D00080915E25843011F0873031F48BE295E2D2
:1045E000B8010E94730D0FC18091DF24813009F45E
:1045F000EBC0813020F0843008F0FBC0A3C0809174
:10460000E824882309F06AC090916A25933080F1EC
:10461000933009F0EEC080913E25813009F4E5C069
:10462000813010F1833009F0E4C080915E25843040
:1046300009F4AFC0853038F4813009F4A0C083306C
:1046400009F0D7C009C0863009F4AEC0863040F00A
:10465000873009F0CEC0B0C0C8010E94FA27D3C08D
:104660008EEE0E947A3EC5C080E00E94BA1FC1C093
:1046700080913E25813009F4B8C0813020F083302C
:1046800009F0B7C00CC080919426882309F4B1C00A
:10469000992309F4AEC080E00E94DC1FAAC080917B
:1046A0005E25843009F475C0853038F4813009F412
:1046B00066C0833009F09DC004C0873009F05AC03D
:1046C00009C0C8010E94FA2780916A25813009F04B
:1046D0009AC05CC0923009F08CC06EC0833009F182
:1046E000843019F0823009F084C080913E258823FF
:1046F00009F07FC080916A25833019F481E00E941F
:10470000BA1F80919426882341F080916A258150B8
:10471000823018F481E00E94DC1FC8010E94C93376
:1047200072C080913E25833009F063C080915E2580
:10473000883009F05EC082E00E94CB08C8010E9468
:10474000FC3961C00E94A83380913E25813009F474
:104750004CC0833009F04DC080915E258430C9F093
:10476000853030F4813059F0833009F042C00BC0FD
:104770008730F1F0883021F18630D9F515C0C801B5
:104780000E94BF1A40C0C8010E94FA270E94082E4A
:104790003AC08091D224882321F0C8010E943B2690
:1047A00032C00E94862525C0C8010E942D2E2BC034
:1047B00080916A258230E9F4C8010E94541D23C00B
:1047C000C8010E94B73E1FC080913E25833059F436
:1047D00080915E25823069F480E00E94CB08C80198
:1047E0000E94741B10C0813021F4C8010E943A2934
:1047F0000AC0C8010E94EE0C06C080916B25882378
:1048000009F0E2CEF1CE0F90CF91DF911F910F9181
:10481000FF90EF90DF90CF90BF909F908F90089582
:10482000FC011082618172816115710521F08BE2BA
:1048300095E20E94730D0895FC018681882399F406
:104840000780F085E02D8281869586958370823081
:1048500061F481E0DB014D915C91119726813781F4
:104860004217530719F080E0089580E00895FB0196
:10487000DC0116968C9116978823E9F517960D9012
:10488000BC91A02D12968C91129786958695837077
:10489000833099F581E0208116969C91169729170F
:1048A00051F5218117969C911797291721F522819F
:1048B00018969C9118972917F1F4238119969C91C9
:1048C00019972917C1F424811A969C911A972917D0
:1048D00091F425811B969C911B97291761F42681E1
:1048E0001C969C911C97291731F427811D969C9149
:1048F0001D97291719F080E0089580E008958F92A0
:104900009F92AF92BF92DF92EF92FF920F931F930D
:10491000DF93CF930F920F92CDB7DEB7D82E7901E8
:1049200089E94A8369830E94E70C4C014A816981C5
:10493000009709F4DCC0FC01A080B180DD2011F0FB
:1049400084E001C08BE0F5018083F50181829282D1
:10495000D501AA56BF4F84E08C938091B0249091EA
:10496000B1249C012E5F3F4F2230310510F06623A9
:1049700059F118978091A2248C938091A3241196C9
:104980008C9311978091A42412968C931297809106
:10499000A52413968C9313978091A62414968C9338
:1049A00014978091A72415968C9315978091A8242D
:1049B00016968C9316978091A92417968C93179727
:1049C00083E290EC52E105C09E938E9383E290E8DF
:1049D0005CE0442361F02091AD243091AE240217B5
:1049E000130729F05E5F3E932E9360E002C080645F
:1049F00061E0423029F49860F7012081318119C0CB
:104A0000433071F49C6018975A5F9D0148E0F701AC
:104A100001907F01F90101929F014150C1F735C01A
:104A20002091262530912725FFEF2E3F3F0721F0CB
:104A300098603E932E9329C09C6018975A5F2091EE
:104A400034252C932091352511962C931197209184
:104A5000362512962C9312972091372513962C9376
:104A600013972091382514962C931497209139256B
:104A700015962C93159720913A2516962C931697F8
:104A800020913B2517962C9317971297662341F098
:104A90002091AD243091AE242D933C93119703C007
:104AA0000D931C9311979D01215030404091EB24B0
:104AB000F90140834F5F4093EB249D012350304028
:104AC000F9018083918314975C93F501A783B087E4
:104AD000C50162E070E041E00E941914882321F4CE
:104AE00081E080936B2504C0C4010E94EE0C80E03D
:104AF0000F900F90CF91DF911F910F91FF90EF904A
:104B0000DF90BF90AF909F908F9008950F931F9369
:104B1000CF93DF9389E90E94E70CEC01009709F439
:104B2000A5C0088119818CE0D8018C931196CD9392
:104B3000DC93129716961C921697F801E956FF4FD0
:104B40008091B0249091B1249C012E5F3F4F223080
:104B50003105E8F438978091A22480838091A324C2
:104B600081838091A42482838091A5248383809172
:104B7000A62484838091A72485838091A82486839A
:104B80008091A924878380E090EC61E105C0929335
:104B9000829380E090E86BE02091AD243091AE24C8
:104BA00040914D2550914E252417350711F480640E
:104BB00003C06E5F3293229320914C252330E9F499
:104BC00038976A5F20914F252083209150252183BB
:104BD0002091512522832091522523832091532512
:104BE00024832091542525832091552526832091C7
:104BF0005625278381609C6008C020914F25309105
:104C0000502532932293816098609F01225030405A
:104C100040914D2550914E25D9014D935C939F01B4
:104C2000235030404091EB24D9014C934F5F409387
:104C3000EB249F0125503040D9018D939C933697EA
:104C40006083D8011796ED93FC931897888199811A
:104C500061E070E040E00E941914882321F481E0B3
:104C600080936B2503C0CE010E94EE0CDF91CF91A3
:104C70001F910F910895EF92FF920F931F93DF936F
:104C8000CF9300D00F92CDB7DEB70E94EE0C80918B
:104C90006A25823008F453C080914C25823019F483
:104CA0008CE194E205C0833009F049C087E394E2C7
:104CB00089839A838FE495E28B839C838EEC94E2C4
:104CC0007E010894E11CF11CB7010E94940D00972D
:104CD00089F0DC010D911C91D8011796ED91FC91A2
:104CE000189740914D2550914E25248135814217CA
:104CF000530719F00E94862522C021E0F80126837F
:104D0000818392838EEC94E2B7010E94940D009708
:104D100041F0D8011796ED91FC911897818180613F
:104D20008183C80161E070E040E00E94191488238B
:104D300021F481E080936B2502C0F801168224964D
:104D4000CDBFDEBFCF91DF911F910F91FF90EF900C
:104D500008950F931F93CF93DF93FC01E801A08187
:104D6000B18186E18C9311966C93119712964C93B6
:104D7000129713962D933C9314974230F9F415969D
:104D80001C92159716961C92169717961C921797B9
:104D900018961C92189719961C9219971A961C929D
:104DA0001A971B961C921B971C961C921C97888125
:104DB000998115968D939C93169706C0159688E059
:104DC00009900D928150E1F785E996E2BF010E94BA
:104DD000730DDF91CF911F910F910895EF92FF9284
:104DE0000F931F93DF93CF93CDB7DEB72E97CDBF31
:104DF000DEBF7C01DC010D911C91DE011196F801F2
:104E00008EE001900D928150E1F7F801E182F2828B
:104E100083E08083D801AB56BF4F8C938D8511966C
:104E20008C931197FD0138978091A2248083809103
:104E3000A32481838091A42482838091A5248383E9
:104E40008091A62484838091A72485838091A824BF
:104E500086838091A92487838A81823041F4FD0171
:104E60003A978D819E818083918323E112C0389788
:104E70008D8180838E8181838F81828388858383E6
:104E8000898584838A8585838B8586838C858783C2
:104E900029E1DF0112978091AD249091AE248D938A
:104EA0009C93DF0113978091EB248C938F5F809309
:104EB000EB24DF0115973A81932F990F990F80E02A
:104EC0008366906C8D939C9336972083D8011796B8
:104ED000ED93FC93189716961C92169780916A256D
:104EE0008250823008F060C08E85882309F45CC04F
:104EF0008A818230D1F48D818B3409F041C08E815A
:104F00008823F1F58F818823D9F588858823C1F519
:104F100089858823A9F58A85882391F58B8588233F
:104F200079F58C85882361F55BC0833009F058C022
:104F30009D8180913425981719F59E8180913525A2
:104F40009817F1F49F81809136259817C9F49885B8
:104F5000809137259817A1F4998580913825981765
:104F600079F49A8580913925981751F49B85809121
:104F70003A25981729F49C8580913B25981781F153
:104F80008EEC94E2B7010E94730D8091ED24909114
:104F9000EE24F8018483958381E00E9466088823CB
:104FA000F9F40E948B2A1CC00E94B62DD7018D9166
:104FB0009C9162E070E041E00E941914882321F482
:104FC00081E080936B250CC02B813C81C70161EE91
:104FD0004A818E010B5F1F4F0E94A9260E948C2DD3
:104FE0002E96CDBFDEBFCF91DF911F910F91FF9025
:104FF000EF900895BC01DC01ED91FC9185E1808387
:1050000080914F2581838091502582838091512505
:105010008383809152258483809153258583809159
:1050200054258683809155258783809156258087D6
:1050300080916125818785E996E20E94730D109227
:10504000342510923525109236251092372510926E
:1050500038251092392510923A2510923B258FEF72
:105060009FEF809326259093272508950F931F93F4
:10507000DF93CF93CDB7DEB72897CDBFDEBFDC017E
:10508000ED91FC91119719821A821B821C821D825C
:105090001E821F8218860780F085E02D428146958A
:1050A00046954370242F2250223080F42681298394
:1050B00027812A8320852B8321852C8322852D839C
:1050C00023852E8324852F832585288720916A2593
:1050D0002330D1F1223009F03FC0423059F406802C
:1050E000F781E02D2091262530912725E217F3073F
:1050F00059F532C0433041F53681209134253217BD
:1051000019F53781209135253217F1F4308520913A
:1051100036253217C9F43185209137253217A1F48D
:10512000328520913825321779F43385209139253D
:10513000321751F4348520913A25321729F43585F8
:1051400020913B25321741F02091AD243091AE24BF
:105150008E010F5F1F4F14C04091B0245091B124B5
:105160004E5F5F4F2091AD243091AE244230510507
:1051700020F443E002EA14E203C042E000EB14E250
:105180000E94A9262896CDBFDEBFCF91DF911F9147
:105190000F910895DC01ED91FC911197E081E432CB
:1051A00070F4F0E0EE0FFF1FE850FE4F25913491B0
:1051B000F901309711F0199508950E94EE0C0895A9
:1051C0001F9380916B25882381F48091E7248823A5
:1051D00061F083EE94E260E070E00E948E0D009733
:1051E00021F00E94CA2811E001C010E080912F2513
:1051F000882359F08BE295E260E070E00E948E0D0A
:10520000009719F00E94CA2811E0812F1F9108957C
:10521000FC018681882329F4848195810197848308
:10522000958380E00895FC018681882341F481E024
:10523000248135812115310519F080E0089580E041
:10524000089521E0FC019381FB018081981320E007
:10525000822F0895FC01A081B18180E18C93119689
:105260004C93119712966C9385E996E2BF010E94C8
:10527000730D08950F931F93DF93CF93CDB7DEB7D0
:105280002897CDBFDEBFBC01FC01908181812091B8
:105290006025222321F4CB010E94EE0C32C1E92FBC
:1052A000F82F80914025808F20914C25218380917B
:1052B0004D2590914E2582839383822F8250823098
:1052C00050F5148215821682178210861186128676
:1052D0001386223039F480914F2590915025848394
:1052E000958323C080914F258483809150258583A9
:1052F0008091512586838091522587838091532503
:10530000808780915425818780915525828780915F
:10531000562583870AC01282138214821582168250
:1053200017821086118612861386808D9091CD2467
:10533000891761F524819091D524291739F52581A4
:105340009091D624291711F526819091D7242917F9
:10535000E9F427819091D8242917C1F420859091F0
:10536000D924291799F421859091DA24291771F409
:1053700022859091DB24291749F423859091DC2420
:10538000291721F4CB010E94EE0C71C08093CD242B
:1053900084818093D52485818093D62486818093CF
:1053A000D72487818093D82480858093D9248185D0
:1053B0008093DA2482858093DB2483858093DC24A8
:1053C0002091412524871786108A118A128A138A10
:1053D000148A158A168A80914225909143258587E3
:1053E00096872330C9F4809144258787809145258D
:1053F000808B80914625818B80914725828B80917F
:105400004825838B80914925848B80914A25858B03
:1054100080914B25868B0BC0223039F48091442536
:10542000909145258787908B02C0158616868091BE
:105430005F25878B809157258770818F80915725B5
:105440008695869586958370828F80915D25838F62
:1054500080916025848F8091612590916225858F50
:10546000968F81E1808385E996E20E94730D809199
:105470003C2584FF46C080916A25833009F443C0EF
:1054800080914C25823071F480914F259091502568
:1054900089839A8300914D2510914E2580E060E02C
:1054A00042E021C0833019F580914F258983809196
:1054B00050258A83809151258B83809152258C833E
:1054C000809153258D83809154258E83809155251D
:1054D0008F8380915625888700914D2510914E2508
:1054E00080E060E043E09E012F5F3F4F07C080E017
:1054F00060E040E020E030E000E010E00E947F2427
:1055000002C00E948C2D2896CDBFDEBFCF91DF91C7
:105510001F910F910895EF92FF920F931F9381E0D7
:1055200040E050EE61E070E020E006EA1AE2EE248E
:10553000FF240E94A409882321F080E090E00E94CB
:10554000A62A1F910F91FF90EF900895FF920F935D
:105550001F93DF93CF9300D00F92CDB7DEB788E0D3
:1055600099E289839A838EEC94E28E010F5F1F4F3C
:10557000B8010E94940D83E199E289839A83F02E09
:10558000012F8EEC94E26F2D702F0E948E0DBC01C6
:105590000097D1F0DC01ED91FC911197808183306F
:1055A00041F08D3059F0823061F780EF0E94202D5C
:1055B000E8CFCB0160EF0E943628E3CFCB0160EF4C
:1055C00043810E942A29DDCF8091D224882311F0C3
:1055D0000E948B2A2496CDBFDEBFCF91DF911F9111
:1055E0000F91FF900895CF92DF92EF92FF920F9369
:1055F0001F93DF93CF93CDB7DEB76897CDBFDEBFE4
:105600006C01FC0100811181DE011496F80185E135
:1056100001900D928150E1F78A8982FD0BC0809143
:10562000DF24882321F48091E824882319F0C6011F
:1056300061EEFDC08DE0F801808389898383168245
:105640008E89982F9B5F998397E9E92EF12CE81AB0
:10565000F108E00EF11EEA82FB828B89882371F04B
:10566000CE010296BE016C5F7F4FAE014F5F5F4F70
:105670000E94763A682F882309F0D8C08D81823045
:1056800079F4EA81FB813297EA83FB8389818E5F1B
:1056900089838091B0249091B1248083918322C02A
:1056A000833001F5EA81FB813897EA83FB838981A6
:1056B000885F89838091A22480838091A324818341
:1056C0008091A42482838091A52483838091A62441
:1056D00084838091A72485838091A82486838091E8
:1056E000A92487838091AD249091AE242F813885A1
:1056F0008217930731F42D81222319F02E81222362
:1057000071F42D81222371F0EA81FB813297EA83C3
:10571000FB8329812E5F29838083918303C020E44A
:1057200030E002C020E030E09E81992381F1EA81DF
:10573000FB818981923051F43297EA83FB838E5F3B
:10574000898389859A858083918315C03897EA83F8
:10575000FB83885F8983898580838A8581838B85A4
:1057600082838C8583838D8584838E8585838F85D5
:10577000868388898783EA81FB813297EA83FB836A
:1057800089818E5F89838F81988580839183EA8167
:10579000FB813197EA83FB838091EB2480838F5FC9
:1057A0008093EB24C90181604B89442319F0C9011E
:1057B000896090612A8920FD80622E89273608F051
:1057C00090612E81522F550F550F40E06D81362F7D
:1057D0003295330F330F307C20E0242B352BEA81B8
:1057E000FB81DF011297AA83BB83282B392B2D93D2
:1057F0003C931197898187FD18C03397EA83FB8317
:1058000080838A819B81F801878390878B89882395
:1058100009F443C0C801B701AE014C5F5F4F0E945D
:10582000E13A682F882311F438C065EEC601498932
:105830000E942A2936C080916A2582508230A0F4C5
:105840008EEC94E2B6010E94730D8091ED2490914C
:10585000EE24F8018483958381E00E946608882302
:1058600001F50E948B2A1DC00E94B62DF801C1824D
:10587000D282C80162E070E041E00E9419148823DE
:1058800021F481E080936B250CC0C60161EE49894B
:105890000E942A290E948C2D04C08A8982FDCBCFC8
:1058A000E3CF6896CDBFDEBFCF91DF911F910F91FF
:1058B000FF90EF90DF90CF900895EF92FF920F93BB
:1058C0001F93DF93CF93CDB7DEB72597CDBFDEBF54
:1058D0007C01FC0100811181F801818192E19083BA
:1058E000898381E299E28A839B83CE0101968C832E
:1058F0009D838EEC94E2BE016E5F7F4F0E948E0D01
:10590000009729F00E94EE0CF801128203C087EE86
:10591000F801828385E996E2B7010E94730D25960E
:10592000CDBFDEBFCF91DF911F910F91FF90EF9020
:105930000895FF920F931F93082F10926B251092DA
:105940006A25109293261092E8241092EA2410926D
:10595000DF241092CD248FEF8093D5248093D6241A
:105960008093D7248093D8248093D9248093DA24F9
:105970008093DB248093DC241092282588E00E9409
:105980005C19FFB6F89410E0812F0E94CB081F5FCE
:105990001430D1F7FFBE002309F44EC010929426B4
:1059A00082EC97E08093E1249093E22480E098E7F2
:1059B000809330259093312511E01093DE241092CE
:1059C000CC241092EC240E94D5438093E92484EFE8
:1059D00091E08093ED249093EE241093E02486E0F0
:1059E0008093D424109234251092352510923625B8
:1059F00010923725109238251092392510923A25A9
:105A000010923B258FEF9FEF8093262590932725BB
:105A10000E94D5438093EB241092D3241092D22578
:105A200010927D2610928626109287261092882644
:105A30001092892610928A261F910F91FF90089547
:105A4000CF92DF92EF92FF920F931F93DB01ED91C4
:105A5000FC91A781B0851696CC9016971796DC908E
:105A600017971896EC9018971996FC9019971A9614
:105A70000C911A971B961C911B971C965C911C9776
:105A80001D964C919CE190832091AD243091AE24E1
:105A90002183328393E093832091A2242483209155
:105AA000A32425832091A42426832091A524278341
:105AB0002091A62420872091A72421872091A82423
:105AC00022872091A92423879487C586D686E786D6
:105AD000F08A018B128B538B448B858B85E996E280
