:100000000C94D1000C94F0000C94F0000C94F000CF
:100010000C94F0000C94F0000C94F0000C94F000A0
:100020000C94F0000C94F0000C94F0000C94F00090
:100030000C94F0000C94F0000C94F0000C94F00080
:100040000C94F0000C94F0000C94F0000C94F00070
:100050000C94F0000C94F0000C94F0000C94F00060
:100060000C94F0000C94F0000C94F0000C94F00050
:100070000C94F0000C94F0000C94F0000C94F00040
:100080000C94F0000C94F0000C94F0000C94F00030
:100090000C942A050C94F0000C9456050C94F00076
:1000A0000C94F0000C94F0000C94F0000C94F00010
:1000B0000C94F0000C94F0000C94F0000C94F00000
:1000C0000C94F0000C94F0000C94F0000C94F000F0
:1000D0000C94F0000C94F0000C94F0000C94F000E0
:1000E0000C94F0000C946B060C9475060C9461064D
:1000F0000C94E0050C940B060C947F060C94B5054B
:100100000C9436060C94620B0C948B0B0C94F00040
:100110000C94F0000C94F0000C9493060C94890657
:1001200003020201010000FFFEFDFCFBF9F7F4EF02
:100130002D1C4517BF161B252F23C921782AD72729
:1001400045285727192EA23000001332DD2A00005F
:10015000E31AF31AD31AA91AC21AE919021A8B1A46
:1001600000000000C11972193B1A4719D71962190A
:10017000A31994195319B2190104010101020101D3
:100180000101010101010101040108020101010154
:100190000201010201020101020102020101010149
:1001A000080011241FBECFEFD1E4DEBFCDBF13E0A6
:1001B000A0E0B2E0E0E3F8E700E00BBF02C0079088
:1001C0000D92A830B107D9F718E0A8E0B3E001C05C
:1001D0001D92A534B107E1F70E94F8030C94163C78
:1001E0000C94000082E090E061E070E00E94A90BB6
:1001F0000895EF92FF920F931F93662399F482E084
:1002000090E060E070E00E94A90B85E040E251EAD6
:1002100067E070E020E030E002EF10E0EE24FF2421
:100220000E94E1091F910F91FF90EF900895EF92C6
:10023000FF920F931F9381E090E062E070E00E94D4
:10024000A90B85E040E251EA67E070E020E030E091
:1002500007E111E0EE24FF240E94E1091F910F91B4
:10026000FF90EF900895DF93CF930F92CDB7DEB755
:10027000442341F481E1898384E0BE016F5F7F4FB5
:100280000E9438360F90CF91DF910895DF93CF937E
:100290000F92CDB7DEB76623E1F485E00E94D50862
:1002A00081E090E060E070E00E94A90B80E092E0C5
:1002B0000E94923782E090E09093090380930803B4
:1002C00081E1898384E0BE016F5F7F4F0E943836F1
:1002D00003C081E00E94C1340F90CF91DF91089557
:1002E0008823A1F485E00E94D50881E090E060E0D9
:1002F00070E00E94A90B81E090E090930903809345
:10030000080388E292E00E949237089581E00E94FB
:10031000C1340895EF92FF920F931F93DF93CF9311
:10032000CDB7DEB7CF5FD0400FB6F894DEBF0FBEBB
:10033000CDBF80912A0390912B03A0912C03B09103
:100340002D030196A11DB11D80932A0390932B03C9
:10035000A0932C03B0932D032DB73EB72850304007
:100360000FB6F8943EBF0FBE2DBF4DB75EB74F5FBF
:100370005F4F8E010F5F1F4FEDB7FEB712830183F2
:100380002AE432E0FA013383228384839583A683AF
:10039000B7830E94C7372DB73EB72A5F3F4F0FB6CE
:1003A000F8943EBF0FBE2DBFEDB7FEB71283018399
:1003B0000E9480370F900F9082E090E060E070E044
:1003C0000E94A90B85E040E251EA67E070E020E07E
:1003D00030E002EF10E0EE24FF240E94E109C1505A
:1003E000DF4F0FB6F894DEBF0FBECDBFCF91DF91C8
:1003F0001F910F91FF90EF900895EF92FF920F934E
:100400001F937C01E0911603F0911703309709F1D7
:10041000809118038217E9F4809119038317C9F4B6
:1004200080911A038417A9F480911B03851789F41E
:1004300080911C03861769F480911D03871749F486
:1004400080911E038E1529F480911F038F1509F4E6
:100450005DC000912003109121030115110501F1E8
:10046000809122038217E1F4809123038317C1F462
:10047000809124038417A1F480912503851781F4CA
:1004800080912603861761F480912703871741F432
:10049000809128038E1521F4809129038F15B9F1DD
:1004A000EF2B19F4A0E0B0E004C0012B49F5A1E066
:1004B000B0E08D010F5F1F4FFD01EE0FFF1FCD015B
:1004C000880F991F880F991F880F991FE80FF91F30
:1004D000EA5EFC4F11830083FD01EE0FFF1FEE0F5C
:1004E000FF1FEA0FFB1FEE0FFF1FE85EFC4F20838C
:1004F00031834283538364837583E682F78207C026
:10050000C7010FEF1FEFEE24E39403C08F01C70173
:10051000EE240E9449351F910F91FF90EF900895AE
:10052000AF92CF92EF92FF920F931F93DF93CF93EF
:100530000F92CDB7DEB7882309F03FC0633521F4B1
:1005400081E0898381E405C0613449F481E08983D5
:1005500082E5BE016F5F7F4F0E94383631C0623541
:1005600069F48EEB9AEB64E140E02FE00FE0EE24BB
:10057000E394CC24AA240E94113422C06430E9F40C
:100580008091080390910903029791F48FE592E01E
:100590000E94923784E040E854E86EE170E020E089
:1005A00030E00AEE12E0EE24FF240E94E10908C0C8
:1005B0008CE792E00E94923703C081E00E94C13430
:1005C0000F90CF91DF911F910F91FF90EF90CF90FF
:1005D000AF900895EF92FF920F931F93DF93CF9305
:1005E000CDB7DEB7CB50D1400FB6F894DEBF0FBE0B
:1005F000CDBF82E08A838EEB9AEB9C838B838091C4
:100600000B0390910C039E838D830E941B3789837B
:1006100020910A032F5F20930A0300D000D000D05E
:10062000EDB7FEB731968E01035F1F4FADB7BEB772
:1006300012961C930E9311978EE992E09383828316
:10064000248315820E94C7370F900F900F900F9050
:10065000EDB7FEB7128301830E9480370F900F9091
:1006600082E0BE016E5F7F4F41E09E012F5F3F4FF2
:1006700000910A03EE24E3940E94D53584E040E81B
:1006800054E86EE170E020E030E00AEE12E0EE2483
:10069000FF240E94E109C55FDE4F0FB6F894DEBF6C
:1006A0000FBECDBFCF91DF911F910F91FF90EF90C3
:1006B0000895CF92DF92EF920F93DF93CF9300D004
:1006C000CDB7DEB7409115034F5F409315038823E4
:1006D00009F03EC020E037C0F6018385843171F512
:1006E0008485882359F5818192818E5B9A4B31F5FF
:1006F000F6018585968597FF21C08081823039F487
:100700008381948190930C0380930B030BC08330FF
:10071000D1F5ADE0B3E0F601339688E001900D929B
:100720008150E1F782EB92E00E949237F6018385D7
:100730006485A60120E80E94863528C081E190E00A
:10074000C80ED91E2F5F2E1538F2433098F404C01E
:100750008A3EC9F4433050F481E040E050E060E16B
:1007600070E024E000E00E94443410C080EC92E08D
:100770000E94923719821A8283E5BE016F5F7F4F14
:100780000E94383603C081E00E94C1340F900F9060
:10079000CF91DF910F91EF90DF90CF900895EF927E
:1007A000FF920F931F938823D9F48AED92E00E9461
:1007B000923781E040E050E060E170E024E000E04A
:1007C0000E94443485E040E251EA67E070E020E0B6
:1007D00030E007E111E0EE24FF240E94E10903C0AC
:1007E00081E00E94C1341F910F91FF90EF90089516
:1007F0000E947A36882311F00E949D060E94A20B67
:1008000080E090E060E070E00E94A90B81E090E061
:1008100061E070E00E94A90B82E090E061E070E08E
:100820000E94A90B789481E00E949505882311F01D
:100830000E949D0680E694E067E474E00E943437ED
:1008400080E090E00E9447048CEE92E00E94923794
:1008500081E00E94C1340E946436FDCFDF93CF93C4
:100860000F92CDB7DEB781E0BE016F5F7F4F41E0F1
:100870000E948305813019F02FEF3FEF03C089817B
:10088000282F30E0C9010F90CF91DF9108950F9389
:100890001F93DF93CF930F92CDB7DEB78E010F5F1B
:1008A0001F4F81E0B80141E00E9483058823C9F30E
:1008B000898190E00F90CF91DF911F910F91089562
:1008C0000F931F93DF93CF930F92CDB7DEB789833A
:1008D0008E010F5F1F4F81E0B80141E00E948C053F
:1008E0008823C9F380E090E00F90CF91DF911F91B2
:1008F0000F9108959B01AC016050774F824C9F4F40
:10090000F2E0660F771F881F991FFA95D1F7E3E091
:10091000220F331F441F551FEA95D1F70E949E36C0
:10092000215030403093CD002093CC0082E0809362
:10093000C800EAECF0E096E0908388ED8093C9006F
:1009400080ED8AB980EC8BB990830895DC018091A9
:10095000C9008F7B8093C9002091330780913407B1
:10096000821730F0275F922F981B892F295005C0DE
:100970002150922F981B892F2F5F482F681708F45A
:10098000462F342F12C090913407E92FF0E0E15E3A
:10099000F84F8C918083993019F41092340703C07A
:1009A0009F5F9093340731501196332361F7809104
:1009B0003707882351F4E22FF0E0E15EF84F8081A1
:1009C0008093CE0081E0809337078091C9008064D6
:1009D0008093C900842F0895DC01209138072223D9
:1009E00011F480E008958091C9008F778093C90049
:1009F0002A3058F080913607809335078AE080933B
:100A000038076A3020F02AE003C0261708F0262FA6
:100A1000322F17C0E0913507F0E0E15EF84F828594
:100A20008C93909135079F5F90933507809138079D
:100A30008150809338079A3011F41092350711963F
:100A40003150332339F78091C90080688093C90001
:100A5000822F08951F920F920FB60F920BB60F922E
:100A600011248F939F93EF93FF939091360780917A
:100A700038078F5F809338078091CE00E92FF0E030
:100A8000E15EF84F8287993019F41092360703C05F
:100A90009F5F90933607FF91EF919F918F910F90F9
:100AA0000BBE0F900FBE0F901F9018951F920F92C4
:100AB0000FB60F920BB60F9211248F93EF93FF9303
:100AC00080913307893019F41092330703C08F5F88
:100AD00080933307E091330780913407E81739F0AA
:100AE000F0E0E15EF84F80818093CE0002C010926A
:100AF0003707FF91EF918F910F900BBE0F900FBEB4
:100B00000F901F901895813011F080E00895CB016F
:100B1000642F0E94EC040895813011F080E0089564
:100B2000CB01642F0E94A6040895813011F085E85E
:100B3000089560E875E280E090E00E947A0480E029
:100B4000089590932F0380932E030895909331037B
:100B50008093300308959093330380933203089574
:100B6000909335038093340308951F920F920FB62C
:100B70000F920BB60F9211242F933F934F935F93D5
:100B80006F937F938F939F93AF93BF93EF93FF9355
:100B9000E0912E03F0912F030995FF91EF91BF9102
:100BA000AF919F918F917F916F915F914F913F9105
:100BB0002F910F900BBE0F900FBE0F901F901895A6
:100BC0001F920F920FB60F920BB60F9211242F9314
:100BD0003F934F935F936F937F938F939F93AF93C5
:100BE000BF93EF93FF93E0913003F09131030995A8
:100BF000FF91EF91BF91AF919F918F917F916F91F5
:100C00005F914F913F912F910F900BBE0F900FBEB0
:100C10000F901F9018951F920F920FB60F920BB660
:100C20000F9211242F933F934F935F936F937F9372
:100C30008F939F93AF93BF93EF93FF93E091320312
:100C4000F09133030995FF91EF91BF91AF919F917F
:100C50008F917F916F915F914F913F912F910F9065
:100C60000BBE0F900FBE0F901F9018951F920F9202
:100C70000FB60F920BB60F9211242F933F934F9301
:100C80005F936F937F938F939F93AF93BF93EF93F4
:100C9000FF93E0913403F09135030995FF91EF91B3
:100CA000BF91AF919F918F917F916F915F914F9184
:100CB0003F912F910F900BBE0F900FBE0F901F9082
:100CC00018951F920F920FB60F9211240F900FBE1E
:100CD0000F901F9018951F920F920FB60F9211242C
:100CE0000F900FBE0F901F9018951F920F920FB686
:100CF0000F9211240F900FBE0F901F9018951F9206
:100D00000F920FB60F9211240F900FBE0F901F90ED
:100D100018951F920F920FB60F9211240F900FBECD
:100D20000F901F9018951F920F920FB60F921124DB
:100D30000F900FBE0F901F9018951EB88FEF8DB9B2
:100D40008FEF9FEF0E94A3078EB180958EB9F8CFE9
:100D5000CF92DF92EF92FF920F931F93CF93DF9387
:100D60007B018A016901892B11F088EE19C0CA0143
:100D7000860F971F8150904110F085E811C0C0E0A8
:100D8000D0E00AC0CE018E0D9F1D0E94FE39F601F3
:100D9000EC0FFD1F80832196C017D10798F380E0E8
:100DA000DF91CF911F910F91FF90EF90DF90CF9047
:100DB0000895CF92DF92EF92FF920F931F93CF93FC
:100DC000DF938C017B016A01CB01800F911F815061
:100DD000904110F085E816C0C0E0D0E00FC0C80117
:100DE0000E94FE39F601EC0FFD1F6081861719F095
:100DF000C8010E94063A0F5F1F4F2196CE15DF05EE
:100E000070F380E0DF91CF911F910F91FF90EF90F1
:100E1000DF90CF9008950E94AB0908950E941D07AE
:100E20000E943E07A89588E10FB6F8948093600071
:100E3000109260000FBE80E008959FB7F894E0E044
:100E4000F0E089E08093570084919FBF8F708230DB
:100E500011F090E001C09FE080E80FB6F894809315
:100E60006100909361000FBE80E180933501809313
:100E70003401809333018093320108951092360338
:100E800010926F078FEF809337038093380380931E
:100E90003903EDE3F7E09FEF9483118210823996D6
:100EA00087E0E337F807C1F780E28093B60088EA6D
:100EB0008093DC008FE08093F4009093F300909394
:100EC000F2009093F10082E08093E0008091DF00D7
:100ED00082608093DF0008950895FC018091DE0018
:100EE00080FDFCCF2091E100822F2091E200922F23
:100EF0002091E300A22F2091E400B22F24E0880F7C
:100F0000991FAA1FBB1F2A95D1F780839183A283C3
:100F1000B3830895FC012091E900822F2091EA001B
:100F2000922F2091EB00A22F2091EC00B22F34E001
:100F3000880F991FAA1FBB1F3A95D1F78083918311
:100F4000A283B3830895AC018436910518F060E064
:100F500070E01EC07FB7F89461E01AC057FD02C070
:100F60009A0102C02FEF3FE7C901880F991F9095A2
:100F700081959F4F9093250180932401FABBE093C4
:100F80002101D09BFECF421B530B1092210102C0C6
:100F9000F1E0E2E04115510509F761117FBF0895C5
:100FA00020E090E0FC01B3E0EE0FFF1FBA95E1F7FF
:100FB000E80FF91FE75CF84F84819581892B09F0D0
:100FC00021E0822F0895AF92BF92CF92DF92EF92ED
:100FD000FF920F931F938091370390E0FC0113E081
:100FE000EE0FFF1F1A95E1F7E80FF91FE75CF84FC6
:100FF000A080B180C280D38080913603882309F419
:101000006BC0D092F800C092F700B092F600A092A8
:10101000F5008091DF0080FD08C081E08093E00052
:101020008091DF0081608093DF002091E100822FBA
:101030002091E200922F2091E300A22F2091E40062
:10104000B22F9C01AD012F5F3F4F4F4F5F4FDA0131
:10105000C9018A259B25AC25BD2580709070A070A4
:10106000B87F0097A105B10531F4A216B306C406F6
:10107000D506C0F109C0D601C501B7705770281751
:1010800039074A075B0770F180915D01883068F588
:10109000E0903A03F0903B0300913C0310913D0334
:1010A0000894E11CF11C011D111DEA14FB040C0540
:1010B0001D05D9F48091E100282F8091E200382F9E
:1010C0008091E300482F8091E400582F2E153F05B2
:1010D0004007510779F706C08091DF008E7F80932B
:1010E000DF0003C081E080936F071F910F91FF9095
:1010F000EF90DF90CF90BF90AF9008951F931FB7F0
:10110000F89480916F07882309F44CC010926F0700
:1011100030913603332309F445C0809138038F3F63
:1011200059F4809139038F3F39F4809137038093CC
:1011300039038093380312C020913703809139031B
:1011400090E0FC0153E0EE0FFF1F5A95E1F7E80F26
:10115000F91FE75CF84F208720933903809137030C
:1011600090E0FC0143E0EE0FFF1F4A95E1F7E80F26
:10117000F91FE75CF84F808580933703809139032E
:1011800090E0FC0123E0EE0FFF1F2A95E1F7E80F46
:10119000F91FE75CF84F8FEF8087315030933603AB
:1011A0000E94E3071FBF1F910895FF920F931F93A3
:1011B000182F863010F08AE8C5C0FFB6F8940E9458
:1011C0007E0800913603002309F4C0C04091370324
:1011D000242F842F302F1217F1F5212F30E0141710
:1011E00081F4F901A3E0EE0FFF1FAA95E1F7E20FEA
:1011F000F31FE75CF84F8085809337030E94E30775
:1012000018C090E0DC01E3E0AA0FBB1FEA95E1F70C
:10121000A80FB91FA75CB84FF90173E0EE0FFF1FCD
:101220007A95E1F7E20FF31FE75CF84F8085189697
:101230008C93812F90E0FC0163E0EE0FFF1F6A9515
:10124000E1F7E80FF91FE75CF84F8FEF8087015057
:101250000093360362C0822F90E0FC0153E0EE0F52
:10126000FF1F5A95E1F7E80FF91FE75CF84F50852B
:101270003150822F09F46AC0252FADCF1217D1F556
:10128000209139031317B1F4121721F48FEF8093D3
:1012900039030DC0812F90E0FC0143E0EE0FFF1FEA
:1012A0004A95E1F7E80FF91FE75CF84F80858093D6
:1012B000380333C0842F90E0DC0133E0AA0FBB1F5A
:1012C0003A95E1F7A80FB91FA75CB84F812F90E0BE
:1012D000FC0103E0EE0FFF1F0A95E1F7E80FF91F8D
:1012E000E75CF84F808518968C931217B1F4409301
:1012F000390313C0822F90E0FC0173E0EE0FFF1F53
:101300007A95E1F7E80FF91FE75CF84F422F208547
:101310002F3F09F0B3CF80E00FC0812F90E0FC0198
:1013200063E0EE0FFF1F6A95E1F7E80FF91FE75C36
:10133000F84F1582148281E0FFBE882311F489E8FA
:1013400001C080E01F910F91FF9008953091380304
:10135000232F432FDDCF1F930E947E081FEF25C050
:101360006FB7F894822F90E0FC01B3E0EE0FFF1FFF
:10137000BA95E1F7E80FF91FE75CF84F2085448143
:101380005581868197811087158214821782168273
:101390002F3F09F43FEF6FBF4115510551F03093D6
:1013A000390320933803FA010995309139032091CC
:1013B00038032F3FA9F630933903209338031F9148
:1013C00008952F923F924F925F926F927F928F92E9
:1013D0009F92AF92BF92CF92DF92EF92FF920F93C4
:1013E0001F93DF93CF9300D000D00F92CDB7DEB71D
:1013F000582E1801FB82EA8205E0081710F48AE8EB
:1014000020C12114310409F419C190E09D838C831B
:10141000FC01A3E0EE0FFF1FAA95E1F7E80FF91F0B
:10142000E75CF84F84819581892B11F088E809C128
:10143000E4E07695679557954795EA95D1F721159C
:10144000310529F02130310509F0F8C026C0DB0153
:10145000CA010897A109B109885F9F4FAF4FB740F4
:1014600008F0EEC02091E100822F2091E200922F3F
:101470002091E300A22F2091E400B22F7A018B018A
:10148000E80EF91E0A1F1B1F8FEF9FEFAFEFBFE0A3
:10149000E822F9220A231B2320C02091E100822F99
:1014A0002091E200922F2091E300A22F2091E400EE
:1014B000B22F8A019B01081B190B2A0B3B0BD90188
:1014C000C801BF700897A109B109885F9F4FAF4F4E
:1014D000B74008F0B5C07A018B012FB72983F89483
:1014E0006FEF862E6FEF962E6FEFA62E6FE0B62E63
:1014F0008E209F20A022B1220E947E086090370398
:101500003FEF631671F040903603C62CD62C77243B
:101510008FEF9FEFAFEFB7E0E822F9220A231B23FA
:1015200067C050923703EC81FD8153E0EE0FFF1F3F
:101530005A95E1F7AC81BD81EA0FFB1FE75CF84FDC
:1015400060865AC0BFEFDB1609F44DC06D2D70E008
:10155000FB0143E0EE0FFF1F4A95E1F7E60FF71F8F
:10156000E75CF84F2081318142815381D501C4016C
:1015700082279327A427B52780709070A070B87F2A
:101580000097A105B10539F4281539054A055B0511
:1015900008F46FC007C05770E216F306040715077A
:1015A00008F467C0EC81FD8133E0EE0FFF1F3A9530
:1015B000E1F70C811D81E00FF11FE75CF84FD08649
:1015C0006D1419F45092370317C08C2D90E0FC0174
:1015D00023E0EE0FFF1F2A95E1F7E80FF91FE75C04
:1015E000F84F508609C08FEFDC2C7394CD2CD82E89
:1015F000741408F4A7CF49C0EC81FD8193E0EE0F8D
:10160000FF1F9A95E1F72C813D81E20FF31FE75C04
:10161000F84F80829182A282B382358224828A81AD
:101620009B8197838683809136038F5F80933603F7
:101630000E94E30799819FBF80E003C088EE01C04C
:101640008BE80F900F900F900F900F90CF91DF913C
:101650001F910F91FF90EF90DF90CF90BF90AF90D0
:101660009F908F907F906F905F904F903F902F90C2
:101670000895FB0183E0EE0FFF1F8A95E1F7E60F67
:10168000F71FE75CF84F8085B0CF8C2D90E0FC0110
:1016900003E0EE0FFF1F0A95E1F7E80FF91FE75C83
:1016A000F84F5086EC81FD8113E0EE0FFF1F1A9575
:1016B000E1F7AC81BD81EA0FFB1FE75CF84F8FEFCC
:1016C00080879ACF1F920F920FB60F9211242F93FB
:1016D0003F938F939F938091E1009091E20020913E
:1016E000E3003091E40080933A0390933B0320930E
:1016F0003C0330933D0380913603882319F081E049
:1017000080936F079F918F913F912F910F900FBE04
:101710000F901F9018951F920F920FB60F921124E1
:101720008F938FEF8093E4008093E3008093E20037
:101730008093E1008F910F900FBE0F901F9018952E
:1017400081E00895729A6A9A739A6B9A749A6C9A65
:10175000089581309105B9F08130910518F0029714
:10176000B9F524C06130710549F06130710520F090
:101770006230710569F504C072980895729A0895EF
:101780008EB194E010C06130710549F0613071058F
:1017900020F062307105E1F404C073980895739AE3
:1017A00008958EB198E089278EB90895613071054A
:1017B00049F06130710520F06230710549F404C0D0
:1017C00074980895749A08958EB190E189278EB91E
:1017D00008956D9875980895892B19F021E030E0EF
:1017E0000AC08CB1282F30E085E0369527958A9580
:1017F000E1F721703070C9010895BC01009721F014
:1018000082EF96E00E94320C089582EF96E060E04D
:1018100070E00E94C70C08950F931F93CF93DF933E
:1018200082EF96E00E942B0CCAEDD6E00EE313E0A7
:101830001983088382EF96E0BE010E94320C249641
:1018400006561F4F86E0C23FD80791F7DF91CF9130
:101850001F910F910895FC01118210821382128250
:1018600014820895CF93DF93DC01EB019FB7F894C6
:1018700014968C911497882321F411967C936E937F
:1018800006C01296ED91FC911397738362831396B1
:10189000DC93CE9312971B821A8214968C91149724
:1018A0008F5F14968C939FBFDF91CF9108959F9285
:1018B000AF92BF92CF92DF92EF92FF920F931F935E
:1018C000CF93DF938C015B016A019FB6F894DC0132
:1018D00014968C91882319F4C0E0D0E04AC0F80136
:1018E000C081D18141155105B1F07E0111C0D601F1
:1018F00012966D917C911397ED91FC91888199815D
:101900000995882359F47E018A819B819C01E90114
:10191000209769F72EC0209761F17E01AB2849F529
:10192000F801808191812A813B81C817D90719F478
:101930003183208305C0D70113963C932E931297D1
:10194000F80182819381C817D90711F4F382E282EA
:10195000D80114968C911497815014968C931497F7
:101960008D919C911197892B21F413961C921E92B4
:1019700012979FBECE01DF91CF911F910F91FF90E3
:10198000EF90DF90CF90BF90AF909F900895AB0104
:1019900060E070E00E94570C0895AB0161E070E0D8
:1019A0000E94570C0895CF93DF93EC010BC0CE013A
:1019B00060E070E00E94C70C009711F41C8205C023
:1019C0000E94FD0B8C81882391F7DF91CF910895C0
:1019D000809141018F718830F1F481E080934F0153
:1019E00089E08093420180914F0180FD14C08EE612
:1019F00090E00E94A30780914F0180FD0CC08EE60D
:101A000090E00E94A30780914F0180FD04C08EE604
:101A100090E00E94A30708951F93182F80919007CC
:101A20008F30D1F49FB7F8947894809139018D7FED
:101A300080933901809199078823E1F39FBF109229
:101A4000990780914F018CE480934E01183011F07A
:101A5000133011F488E0AFC1809141018F71809300
:101A60009007183009F44BC0193050F4143009F4C1
:101A700093C0163009F49BC0133009F097C155C0CC
:101A80001F3069F0103120F4193009F08FC163C0A4
:101A9000163109F4C2C0193109F088C122C183E0AE
:101AA000809342010E941B3780936D0180916E01EB
:101AB0009770887F982B90936E0180914F0180E8FA
:101AC00080934E01000000000000000000000000B4
:101AD0000000000000000000000000000000000006
:101AE000000000008091390182608093390183E217
:101AF00090E00E94A307109390078FE05EC18830AA
:101B000009F454C1109342010000000000000000DD
:101B100000000000000000000000000000000000C5
:101B2000000000000000000041C1883009F43EC1FF
:101B300010934201000000000000000000000000BF
:101B40000000000000000000000000000000000095
:101B5000000000002BC1883021F1893020F486304C
:101B600009F024C105C0863119F0893109F01EC180
:101B700089E08093420100000000000000000000A6
:101B80000000000000000000000000000000000055
:101B90000000000000000AC1883019F0893021F4EB
:101BA00005C10E94E80C02C110934201FFC08930B8
:101BB00059F08A3020F4883009F0F8C019C0863115
:101BC00019F0893109F0F2C086E0809342010000EB
:101BD0000000000000000000000000000000000005
:101BE0000000000000000000000000000000DEC057
:101BF0000E94E80C10934201000000000000000069
:101C000000000000000000000000000000000000D4
:101C10000000000000000000C9C08830F9F08930E1
:101C200020F4863009F0C2C02EC0893019F0893105
:101C300009F0BCC086E18093420100000000000072
:101C40000000000000000000000000000000000094
:101C500000000000000000000000A8C00E94E80C86
:101C6000109342010000000000000000000000008E
:101C70000000000000000000000000000000000064
:101C80000000000093C089E0809342010000000042
:101C90000000000000000000000000000000000044
:101CA00000000000000000000000000080914101E1
:101CB0008F7180939007893009F07FC010934201A3
:101CC0000000000000000000000000000000000014
:101CD0000000000000000000000000000000000004
:101CE00065C0883009F44EC0893020F4863009F090
:101CF0005DC019C0893021F0863109F057C013C08A
:101D000010934201000000000000000000000000ED
:101D100000000000000000000000000000000000C3
:101D20000000000043C089E08093420100000000F1
:101D300000000000000000000000000000000000A3
:101D40000000000000000000000000008091410140
:101D50008F7180939007893009F02FC089E18093BB
:101D60004201000000000000000000000000000030
:101D70000000000000000000000000000000000063
:101D8000000014C00E94E80C109342010000000003
:101D90000000000000000000000000000000000043
:101DA00000000000000000000000000080914101E0
:101DB0008F718F31D9F3809390071F91089580918F
:101DC00081078823E1F080919A078823C1F48091EC
:101DD000F7069091F806892B39F48AE90E94050CE0
:101DE0009093F8068093F7068091F7069091F80695
:101DF000892B29F01092810786E10E940C0D8091B9
:101E00008607882351F082E897E060E070E00E9446
:101E1000C70C009711F00E941A0F80919A07823028
:101E200019F0853031F403C00E947D1008950E949E
:101E3000D4100895EF92FF920F931F93CF93DF93E7
:101E40007C01DC010D911C91D8011796ED91FC915C
:101E50001897808180939207C82FD0E02196CE0FEB
:101E6000DF1F9881298180917B07882311F52D330D
:101E700010F02CE303C0222309F421E092959695FB
:101E8000969593708FEF989FC001112430E0FC016C
:101E9000E29FC001E39F900DF29F900D112464EB2F
:101EA00070E00E948A366F3F710509F038F4262FE2
:101EB00006C02D3318F4220F220F01C02FEF288304
:101EC000D8011296FC92EE921197C8010E944B1B0A
:101ED000DF91CF911F910F91FF90EF900895CF92D6
:101EE000DF92EF92FF920F931F93CF93DF93E091D6
:101EF000F706F091F806309709F449C0C081D18106
:101F0000C0904701D0907B01D7FC41C082E0D80E41
:101F10000AE910E00D191109EEEFDE0E0C0F1D1F7E
:101F2000ED2CFF2497012F5F3F4FC80160E871E05F
:101F3000A9010E942B37F801D292F887EF83EE0EA9
:101F4000FF1EF701C28280914C018F7780934C0174
:101F500080914C01806880934C016091F7067091EC
:101F6000F80682E897E00E94320C8AE90E94050C8C
:101F70009093F8068093F706892B31F489E00E944C
:101F80000C0D81E08093810780E480934F01DF9105
:101F9000CF911F910F91FF90EF90DF90CF90089518
:101FA0001F9310919A071130C9F4809142018295D4
:101FB000869587708093F90682E080939A078091D6
:101FC000F7069091F806892B31F489E00E940C0DF8
:101FD0001093810703C086E10E940C0D1F910895A4
:101FE0000F931F93CF93DF93EC018B01442349F0B0
:101FF00090916C0180918F078295807F9F70892BD3
:1020000003C080916C018F7080936C0102301105C8
:1020100098F4442369F090916C0180918707880FB0
:102020008E70917F892B80936C0110926F0117C085
:1020300080916C018E6011C080918B078295807FAA
:1020400090918E07892B80936F0190916C01809104
:102050008707880F8E70917F892B80936C0189E1AF
:102060000E940C0D8931D9F70130110551F480918E
:102070009207833118F080E492E005C080E890E098
:1020800002C089E090E00E94A3071FB7F8948091F6
:102090003901826080933901809139018D7F80936D
:1020A0003901288130E02150304080E891E0BE01C4
:1020B000A9010E942B3781E080939A071FBFDF910F
:1020C000CF911F910F910895FC0180919A07882369
:1020D00011F086E80895F0938D07E0938C078781CF
:1020E00090859093940780939307009711F488EE5E
:1020F00008950E94F00F80E0089510929A07809151
:10210000F9068330B1F0843028F4882331F081302F
:10211000E1F409C08530C9F412C060918C07709158
:102120008D0780E017C060918C0770918D0787E85C
:1021300011C060918C0770918D0781EE0BC060918A
:102140008C0770918D0789EE05C060918C077091A6
:102150008D0785E80E94992C089590914701809100
:10216000FA06891710F49093FA068091FB06909175
:10217000FC06A091FD06B091FE060197A109B109E8
:102180008093FB069093FC06A093FD06B093FE0699
:102190000097A105B10521F08FEF809347010895C5
:1021A00085E080939A070895809155018F778093F9
:1021B00055018CE480934E0110929A0786E10E94AB
:1021C0000C0D9091FA06983320F08FEF8093FA0669
:1021D0000AC08FEF989FC001112467E370E00E944E
:1021E0008A366093FA068091FA060E946C30089550
:1021F0000F931F93082F80919A07882341F08091B5
:1022000090078F3011F086E846C081E844C0809185
:10221000550180688093550110E110934F018DEABC
:1022200090E10E94AB0510934E0186E00E940C0DD8
:10223000863051F0809155018F77809355018CE461
:1022400080934E0185E827C084E080939A0710921E
:10225000FA0680EC93E0A0E0B0E004C0880F991F7C
:10226000AA1FBB1F0A95D2F780549C4FAF4FBF4F98
:1022700023E0B695A795979587952A95D1F78093F2
:10228000FB069093FC06A093FD06B093FE068FEF2D
:102290008093470180E01F910F910895282F85FDBD
:1022A00003C0982F9F7304C0982F91959F719195AB
:1022B000E0E2F1E08491891734F03F968491981719
:1022C00014F0822F0CC0803E3CF080323CF487FF3B
:1022D00006C08F71806203C080E201C08FE1806818
:1022E000089584E08093870723E020938E078FEF83
:1022F0009FEF90937D0780937C0790938007809356
:102300007F078BE08093890710927B0780E098EF2E
:10231000AFEFB7E08093950790939607A093970748
:10232000B09398078AE091E090937A0780937907B9
:102330008AE08093910782E08093880785E080930C
:102340008B0720938F0783E80E944E1180937007BC
:1023500081E080937E0710928A07089585FD03C06F
:10236000982F9F7304C0982F91959F719195E0E2EB
:10237000F1E080E02491921724F029173CF4815079
:1023800008958F5F31968031A9F780E00895282F56
:102390008AE091E090937A07809379078AE08093AE
:1023A000910782E0809388072230A1F0233018F44F
:1023B000222339F004C0203191F0213111F180E065
:1023C000089580914C018C7F80934C01809157013E
:1023D0008B7F0EC080914C018C7F816004C0809106
:1023E0004C018C7F826080934C0180915701846006
:1023F0008093570180915501807F8093550181E042
:10240000089580914C01836080934C018091570125
:1024100084608093570180915501807F8160809313
:10242000550181E0089580917C0790917D0780930C
:10243000620190936301E1E7F7E0A4E6B1E08191E6
:102440008D9387E0E937F807D1F780917F07909166
:102450008007809360019093610190914801809181
:102460007E078295880F80769F79892B809348011B
:1024700090916F0180918E078F70907F892B809350
:102480006F0190916E0180918A07880F880F880FE5
:102490008870977F892B80936E0190916F01809156
:1024A0008B078295807F9F70892B80936F0180912D
:1024B0007B070E94C71190914801809189078F7115
:1024C000907E892B80934801809170070E94AE1105
:1024D000909145018F70907F892B809345010895DD
:1024E000FF920F931F93CF93DF93EB0190919A0785
:1024F000943009F4F9C08E3431F0893541F4888183
:1025000080938F07F5C0888180938707F1C0209161
:1025100090072F3011F481E8ECC08B3009F4D6C05D
:102520008C3070F4823009F490C0833018F4882322
:10253000B1F115C0833009F499C0843081F45CC0D6
:10254000833511F1843528F48F3459F0803539F40E
:1025500010C0873509F46DC0803F09F494C084EF42
:10256000C8C0988190938E0780916F019F70807F83
:1025700068C08881998180937C0790937D078093C0
:10258000620190936301B4C08881998180937F0731
:10259000909380078093600190936101A9C0992373
:1025A00009F0A2C080E098EFAFEFB7E0088004C068
:1025B000B695A795979587950A94D2F781709070F4
:1025C000892B09F493C0283031F088E00E940C0D6B
:1025D0008830D9F726E19881909389078091480146
:1025E0009F71807E982B90934801283009F480C019
:1025F00086E10E940C0D7CC0992309F075C028303B
:1026000011F418E006C088E00E940C0D8830D9F75C
:1026100016E1F8808F2D0E94C711082F183019F08D
:1026200086E10E940C0D002309F460C0F0927B0744
:102630005FC0988190938B0780916F019295907FF6
:102640008F70982B90936F0153C08881809370078F
:102650000E944E11809370070E94AE119091450127
:102660008F70907F892B8093450142C08881809331
:102670007E07909148018295880F80769F79892BFB
:102680008093480135C08881809371078981809348
:1026900072078A81809373078B81809374078C8182
:1026A000809375078D81809376078E81809377075D
:1026B0008F8180937807E1E7F7E0A4E6B1E08191AC
:1026C0008D9387E0E937F807D1F712C088818093AE
:1026D0008A0790916E01880F880F880F8870977F06
:1026E000892B80936E0104C086E803C088EE01C088
:1026F00080E0DF91CF911F910F91FF9008950F938C
:102700001F93CF93DF93082F809139018D7F8093A2
:10271000390180EF90E00E94A307809139018E7FFC
:102720008093390181E090E00E94A30780913901F4
:1027300081608093390110E084E690E00E94A30755
:10274000809141011A3011F485E84DC08F718830B5
:1027500011F01F5FF1CF8093900780916E0180622E
:1027600080936E0180914C01806880934C018CE4D1
:1027700080934E0186E00E940C0D10924E01C0E045
:10278000D0E010E080914601CC0FDD1FCC0FDD1FA3
:1027900090E08076907025E0969587952A95E1F7F0
:1027A000C82BD92B1F5F183069F783E00E940C0DEE
:1027B00080914F0110934F0180E480934F0180E896
:1027C00080934F018CE480934E01CE010E9420370C
:1027D000002311F00E9471110E94131210929A07A7
:1027E0001092810780E0DF91CF911F910F910895A2
:1027F0000E947F13882361F085E8089582E897E0BE
:1028000060E070E00E94C70C009711F00E94FD0B81
:1028100080918607882391F788E080934F0180E4B8
:1028200080934F0184E080934F0180E880934F01B3
:102830000E941B3780936D0180916E019770887F95
:10284000982B90936E0180E00E943A150E942B1500
:1028500080E008950F931F93CF93DF930E940E079C
:10286000882309F0CDC080913901816080933901BE
:10287000809139018D7F809339018CE791E00E942E
:10288000A307809139018E7F8093390181E090E028
:102890000E94A3078091390181608093390110E083
:1028A00084E690E00E94A307809141011A3009F468
:1028B000A7C08F71883011F01F5FF2CF809390070F
:1028C00080915C01833809F09BC0A0C0C1E7D7E0CC
:1028D0000E941B37899387E0C937D807C9F78091D1
:1028E000710730917207409173076091740770917E
:1028F0007507F0917607B091770750917807082F08
:10290000015091E0081708F090E0832F815021E0FA
:10291000831708F020E0192F180F91E0181708F01E
:1029200090E0292B842F815031E0841708F030E0AB
:10293000A22FA80F91E0A81708F090E0392B862F5E
:10294000815021E0861708F020E0E32FE80F91E0A6
:10295000E81708F090E0292B872F815031E0871786
:1029600008F030E0622F680F91E0681708F090E0FF
:10297000392B8F2F815021E08F1708F020E0432F53
:10298000480F91E0481708F090E0292B8B2F8150D9
:1029900091E08B1708F090E0322F380F21E03817C4
:1029A00008F020E0922B5195591779F43F3F69F4D4
:1029B0004F3F59F46F3F49F4EF3F39F4AF3F29F4EB
:1029C0001F3F19F40E3F08F081CF83E295E10E948A
:1029D000A6058BE195E10E94A10587E195E10E94A2
:1029E000B0050E940C0C8AE90E94050C9093F80631
:1029F0008093F70682E897E00E942B0C80E001C0EC
:102A000085E8DF91CF911F910F91089580E090E0CC
:102A100060E070E048E050E021E737E00E94A8065F
:102A200081E00E947F13882309F459CFE9CF81E028
:102A30008093990708951F931FB7F8940E94D00FB1
:102A40001FBF1F9108951F931FB7F8940E946F0F27
:102A50001FBF1F910895809190078F3011F082E879
:102A6000089588E00E940C0D883011F085E80895E3
:102A700080E00895882311F088EE089580919007F2
:102A80008F3011F481E8089580919A07882371F4BA
:102A90001092810788E00E940C0D8830D9F78FE0F2
:102AA0000E940C0D8F3011F480E0089586E808959F
:102AB000982F80919A07882311F086E8089598301E
:102AC00039F488E00E940C0D1092810788E0089587
:102AD0008091F7069091F806892B29F086E10E94F3
:102AE0000C0D86E0089581E08093810786E00895CB
:102AF000CF93DF93DC019C9111962C9111978091DB
:102B00009B07882321F4CD010E94FD0B1AC0E92FF9
:102B1000F22F9F012F5F3F4F4EE158E088E0EA011E
:102B20000990AE01E90109929E018150C1F780919F
:102B30002908818783E1808386E398E0BD010E94B4
:102B4000320CDF91CF910895DC01ED91FC9111974A
:102B500084E1808363835283418386E398E0BD01EF
:102B60000E94320C08950F931F93DF93CF9300D0F0
:102B7000CDB7DEB7A091BF07B091C007ED91FC9132
:102B8000119784E180838BEE83830FEF1FEF128315
:102B9000018386E398E0BD010E94320C1092AE07DB
:102BA0001A83098380E5BE016F5F7F4F0E94292849
:102BB0001093F6070093F50710920308109204088B
:102BC0001092050810920608109207081092080843
:102BD0001092090810920A080E9471260F900F9017
:102BE000CF91DF911F910F910895EF92FF920F9374
:102BF0001F93E090FF07F090000880E061E040E064
:102C000020E030E000E010E00E948E1F8823A9F44D
:102C1000A091BF07B091C007ED91FC91119784E19D
:102C2000808381EE83838FEF9FEF9283818386E39E
:102C300098E0BD010E94320C19C0A70160E070E06D
:102C400084E0440F551F661F771F8A95D1F780E0F7
:102C500020E030E003EB15E1EE24FF240E94E109BF
:102C6000882321F080E090E00E94B3151F910F911E
:102C7000FF90EF900895FF920F931F93DF93CF93F0
:102C800000D0CDB7DEB7F0902B080E94FD0BFF20DF
:102C9000B1F583E569E278E00E94292820912908AE
:102CA00030912A0880911E088093030880911F08A4
:102CB0008093040880912008809305088091210862
:102CC000809306088091220880930708809123084A
:102CD0008093080880912408809309088091250832
:102CE00080930A0881E0809332081092AE078091A9
:102CF000B907833031F582E08093B90722C0109282
:102D0000AE070FEF1FEF1A83098380E5BE016F5FE7
:102D10007F4F0E9429281093F6070093F507109221
:102D200003081092040810920508109206081092E9
:102D30000708109208081092090810920A082FEF4D
:102D40003FEFE091BF07F091C007A081B18184E11E
:102D50008C931396FC92139712963C932E93119793
:102D600086E398E0BF010E94320C0E9471260F900A
:102D70000F90CF91DF911F910F91FF9008950F93C6
:102D80001F93DF93CF93CDB7DEB72C970FB6F89490
:102D9000DEBF0FBECDBFAC01DE011196FC0180810C
:102DA00091819C01F9018CE001900D928150E1F735
:102DB000DA010D911C91809132088250823020F00E
:102DC000CA010E94FD0B56C082E0F8018083D80141
:102DD000AC56BF4FFD0181938A859B8512969C93CB
:102DE0008E9311978C8582839D0128503040D901A4
:102DF000E1E7F7E088E001900D928150E1F7F901F9
:102E000038979F01BE016E5F7F4F88E0DB010D9018
:102E1000BD01D9010D929D018150C1F780917C07C0
:102E200090917D07929382938091BA0782938F5FEE
:102E30008093BA0783E69CEC929382938BE1829312
:102E4000D8011896FC93EE93179716961C928DE96D
:102E500097E0BA010E94320C8091BC079091BD07A7
:102E6000F8019583848381E00E94D007882311F4C0
:102E70000E94C6232C960FB6F894DEBF0FBECDBFBE
:102E8000CF91DF911F910F910895CF92DF92EF9232
:102E9000FF921F93DF93CF93CDB7DEB72F970FB677
:102EA000F894DEBF0FBECDBFAC017C01DE011196F0
:102EB000FC01808191819C01F9018FE001900D92CC
:102EC0008150E1F74093BF075093C0078C81823057
:102ED00019F48F8198851AC08F81809303088885A3
:102EE000809304088985809305088A858093060865
:102EF0008B85809307088C85809308088D85809347
:102F000009088E8580930A088EEF9FEF9093F6074D
:102F10008093F50780E5BE016B5F7F4F0E942928F3
:102F20000E944C26D701CD90DC9081E0F601808391
:102F3000F282E182EA56FF4F80838F8581839F0171
:102F400028503040D901E1E7F7E088E001900D9288
:102F50008150E1F7F9018FEF9FEF929382938C817B
:102F6000823051F48091F5079091F6079293829305
:102F700045E123E238EC11C0F9013A979F0143E0A3
:102F800058E088E0DA010D90AD01D9010D929D0164
:102F90008150C1F74BE123E23CEC80917C0790919A
:102FA0007D07929382938091BA0782938F5F80937B
:102FB000BA07329322934293D6011896FC93EE936C
:102FC000179784E0BE016D5F7F4F0E942928182F5C
:102FD00080E0BE016E5F7F4F0E942928112371F4AB
:102FE000882361F4C60162E070E041E00E94641051
:102FF000882321F481E08093330812C0D701ED913A
:10300000FC9184E1808381EE83838FEF9FEF928335
:10301000818386E398E0B7010E94320C0E947126FA
:103020002F960FB6F894DEBF0FBECDBFCF91DF91C4
:103030001F91FF90EF90DF90CF900895FC01809159
:1030400001078730F0F4A781B08512968C91129712
:103050008695869583708230A1F4E091FF06F09109
:1030600000073297F0930007E093FF0616968D91C4
:103070009C91179791838083809101078F5F809344
:10308000010780E00895FC01809101078730F0F48A
:103090000780F085E02D8281869586958370833048
:1030A000A9F48091FF06909100070897909300077C
:1030B0008093FF06DC01369688E001900D928150E6
:1030C000E1F7809101078F5F8093010780E0089509
:1030D0009F92AF92BF92CF92DF92EF92FF920F93A7
:1030E0001F93DF93CF9300D000D0CDB7DEB7FB01A5
:1030F000A080B180D50112967C936E9311978AE0DF
:103100008C9378E9C72ED12CCA0CDB1C8091BB07AD
:10311000882319F46DE0962E0EC0482F50E0C41A93
:10312000D50A5DE0952E980E21EC37E0C601B90175
:1031300050E00E942B378091A107882309F442C0F8
:10314000D0920007C092FF061092010783E498E135
:103150009A8389838DE997E07E010894E11CF11C34
:10316000B7010E94CD0C00910107109201078EE17A
:1031700098E19A8389838DE997E0B7010E94CD0C8D
:1031800020910107E091FF06F0910007319710E0D0
:10319000C80134E0880F991F3A95E1F7822B8083AC
:1031A000000F111F000F111F020F111D000F111F23
:1031B00000930107900EE02FF0E0E095F095EC0D04
:1031C000FD1D02C0F6011292DF011E9280913208AD
:1031D000833019F42FEF3FE402C02FEF3FE08091DE
:1031E0009B0781113068FD013293229380917F0704
:1031F000909180072FEF8E3F920799F4FD013A9747
:1032000086E0980E9F0141E757E088E0DA010D90D3
:10321000AD01D9010D929D018150C1F720E030EC44
:1032200004C09293829320E030E880917C079091D3
:103230007D07929382938091B80782938F5F8093EA
:10324000B807329322939292D5011896FC93EE938D
:103250001797C50162E070E040E00E94641081E0D1
:10326000809333080F900F900F900F90CF91DF91C4
:103270001F910F91FF90EF90DF90CF90BF90AF9094
:103280009F900895BC0180E00E9468180895FC0199
:103290000190F081E02D62817381818144812581DB
:1032A0000E94893608950F931F938C01DC01ED91E4
:1032B000FC9181810E947001C8010E94FD0B1F9149
:1032C0000F9108950F931F938C01DC01ED91FC91F8
:1032D000818162810E949002C8010E94FD0B1F91B2
:1032E0000F910895AF92BF92CF92DF92EF920F931A
:1032F0001F935C01DC01ED91FC9104811581268115
:103300003781818162814381E08439966F010E9417
:103310005903C5010E94FD0B1F910F91EF90DF90A3
:10332000CF90BF90AF9008950F931F938C01DC0155
:10333000ED91FC9181810E948836C8010E94FD0BAD
:103340001F910F9108950F931F938C01DC01ED9154
:10335000FC9181810E94CF03C8010E94FD0B1F9147
:103360000F9108950F931F938C01DC01ED91FC9157
:1033700081810E948736C8010E94FD0B1F910F9129
:1033800008950F931F938C01DC01ED91FC91218135
:1033900032814381548165817681878190850E9445
:1033A0008636C8010E94FD0B1F910F9108950F935F
:1033B0001F938C01DC01ED91FC9181816281339638
:1033C000AF010E948536C8010E94FD0B1F910F912D
:1033D0000895EF92FF920F937C01DC01ED91FC9137
:1033E00021813281438154816581768187819085F5
:1033F00001850E948436C7010E94FD0B0F91FF904A
:10340000EF9008950F931F93DF93CF93CDB7DEB75F
:103410002B970FB6F894DEBF0FBECDBF8C01DC0139
:10342000ED91FC9182818983838194819B838A833E
:103430009E012C5F3F4FAF014B5F5F4F88E0DA0189
:103440000D90AD01D9010D929D018150C1F781818F
:10345000BE016F5F7F4F0E948336C8010E94FD0B43
:103460002B960FB6F894DEBF0FBECDBFCF91DF9184
:103470001F910F9108950F931F93DF93CF93CDB7B3
:10348000DEB766970FB6F894DEBF0FBECDBF8C01D6
:10349000DC01ED91FC91818192819B838A83838100
:1034A00089839E012C5F3F4FAF014C5F5F4F88E0E7
:1034B000DA010D90AD01D9010D929D018150C1F746
:1034C000818192819E878D8784858C879E01215F73
:1034D0003F4FAF01435F5F4F88E0DA010D90AD01D0
:1034E000D9010D929D018150C1F7CE010196BE0117
:1034F000645F7F4F45890E943301C8010E94FD0B24
:1035000066960FB6F894DEBF0FBECDBFCF91DF91A8
:103510001F910F910895CF92DF92EF92FF920F9338
:103520006C01DC01ED91FC91BF016E5F7F4F24893E
:103530003589E788F08C8181438906890E9482362B
:10354000C6010E94FD0B0F91FF90EF90DF90CF908E
:103550000895EF92FF920F937C01DC01ED91FC91B5
:103560002181328143815481658176818781908573
:1035700001850E94FD01C7010E94FD0B0F91FF9084
:10358000EF9008950F931F938C01DC01ED91FC9156
:103590008181928163810E944601C8010E94FD0BD6
:1035A0001F910F9108950F931F938C01DC01ED91F2
:1035B000FC91818162810E948136C8010E94FD0BCD
:1035C0001F910F9108950F931F938C01DC01ED91D2
:1035D000FC91818162810E94F900C8010E94FD0B6B
:1035E0001F910F910895CF92DF92EF920F93DF9387
:1035F000CF93CDB7DEB766970FB6F894DEBF0FBE98
:10360000CDBF6C01DC01ED91FC91818189838281C8
:1036100093819B838A839E012C5F3F4FAF014C5F58
:103620005F4F88E0DA010D90AD01D9010D929D0147
:103630008150C1F784858C87858596859E878D8787
:103640009E01215F3F4FAF01415F5F4F88E0DA018C
:103650000D90AD01D9010D929D018150C1F7228DD0
:10366000338DCE010196BE01645F7F4F418D078986
:10367000E08C0E948A01C6010E94FD0B66960FB67F
:10368000F894DEBF0FBECDBFCF91DF910F91EF90C9
:10369000DF90CF900895FC011082618172816115E5
:1036A000710521F08AEF97E00E94320C0895282FCF
:1036B0008091290890912A0896FF1BC0222359F473
:1036C00020911C0830911D0880917C0790917D0706
:1036D0002817390759F020911C0830911D08809156
:1036E000F8079091F9072817390719F48EEE0E9410
:1036F000AE3208950F931F93CF93DF93282F8091BD
:10370000290890912A0896FFA3C0222359F42091FA
:103710001C0830911D0880917C0790917D07281727
:10372000390761F020911C0830911D088091F8073D
:103730009091F9072817390709F08AC020911E08CF
:1037400030911F088091F5079091F60728173907E7
:1037500009F47EC090911E0880910308981759F5CE
:1037600090911F0880910408981729F590912008DE
:10377000809105089817F9F4909121088091060826
:103780009817C9F49091220880910708981799F426
:103790009091230880910808981769F49091240863
:1037A00080910908981739F49091250880910A08AA
:1037B000981709F44DC08AE90E94050C8C01009706
:1037C00009F446C0DC012D913C9185E0F90180832C
:1037D00012830183E956FF4F8083AF014850504068
:1037E000FA01A1E7B7E088E00D9001928150E1F77E
:1037F000FA013897EF01A3E0B8E088E00D90099254
:103800008150E1F780917C0790917D07929382939C
:103810008091BA0782938F5F8093BA0783E69CEC0E
:103820009293829388E18293D9011896FC93EE9348
:103830001797C90162E070E041E00E94641088239C
:1038400021F481E08093330803C0C8010E94FD0B7E
:10385000DF91CF911F910F9108950F931F93CF93F5
:10386000DF93EC01E881F981A781B0857C917093A9
:103870000E08FD01E70FF11D818180932708119645
:103880004D915C91129750930C0840930B0813963E
:103890008C91139780930F088D010C5F1F4F652F3C
:1038A0006295669566956370352F369536953370BB
:1038B00019F4F80120E049C014968D919C91159758
:1038C0009093120880931108FD0136963230E1F48E
:1038D00010921308109214081092150810921608EE
:1038E00010921708109218081092190810921A08CE
:1038F00016968D919C9117979093140880931308B6
:10390000FD01389624E021C0333011F022E01DC0C3
:1039100016968C91169780931308818180931408D2
:103920008281809315088381809316088481809317
:1039300017088581809318088681809319088781EC
:1039400080931A08FD013E962AE0662309F447C0D9
:1039500046FD08C08191919190931D0880931C08A9
:103960002E5F08C0809111089091120890931D0855
:1039700080931C086230C1F410921E0810921F0838
:103980001092200810922108109222081092230809
:1039900010922408109225088081918190931F082D
:1039A00080931E082E5F1BC06330C9F48081809312
:1039B0001E08818180931F08828180932008838163
:1039C0008093210884818093220885818093230835
:1039D000868180932408878180932508285F972F0C
:1039E0009550921B9093280860931B083093100801
:1039F00043FDCEC1D801A20FB11D842F87708093E3
:103A00000D08833021F48C918093260863C08130A7
:103A100009F451C0813020F0833009F0B9C15AC097
:103A20008D919C91119790932A0880932908129662
:103A30008C91129780932B08877011F493E002C049
:103A4000982F9C5FFD01E90FF11D808180932C0868
:103A5000292F2F5F382F377090E08077907044E0E7
:103A6000959587954A95E1F7482F332311F48823DC
:103A700089F0CD01820F911D90932E0880932D081F
:103A8000332311F0330F230F442321F0440F440F4D
:103A9000440F240F80912808281750F4821B80932C
:103AA0002F08A20FB11DB0933108A093300874C144
:103AB00010922F0871C1992351F0963718F086E7BC
:103AC00080932808B0932A08A093290865C1109212
:103AD000280862C1809126088330E1F0843030F4F8
:103AE0008130C1F0823009F053C107C0883008F43A
:103AF00053C1883009F04CC112C011968D919C9130
:103B0000129790932A088093290813968C9180939A
:103B10002B0842C111968C91809329083DC11196C2
:103B20008D919C91129790932A088093290813965F
:103B30008D919C91149790932C0880932B08159647
:103B40008C91159780932D0816968D919C911797BF
:103B500090932F0880932E0854FF1EC118968C91C5
:103B60008093300819C180910D08833061F48091F1
:103B70002608843011F0873031F48AEF97E0BE01D7
:103B80000E94320C0FC18091AE07813009F4EBC066
:103B9000813020F0843008F0FBC0A3C08091B707CB
:103BA000882309F06AC090913208933080F19330F5
:103BB00009F0EEC080910D08813009F4E5C0813034
:103BC00010F1833009F0E4C080912608843009F4B4
:103BD000AFC0853038F4813009F4A0C0833009F0DB
:103BE000D7C009C0863009F4AEC0863040F08730B7
:103BF00009F0CEC0B0C0CE010E949821D3C08EEE95
:103C00000E94AE32C5C080E00E94571BC1C08091A7
:103C10000D08813009F4B8C0813020F0833009F0FC
:103C2000B7C00CC080913508882309F4B1C099232E
:103C300009F4AEC080E00E947A1BAAC080912608D9
:103C4000843009F475C0853038F4813009F466C0D9
:103C5000833009F09DC004C0873009F05AC009C004
:103C6000CE010E94982180913208813009F09AC0DB
:103C70005CC0923009F08CC06EC0833009F1843092
:103C800019F0823009F084C080910D08882309F072
:103C90007FC080913208833019F481E00E94571B65
:103CA00080913508882341F080913208815082301C
:103CB00018F481E00E947A1BCE010E94412B72C051
:103CC00080910D08833009F063C080912608883008
:103CD00009F05EC082E00E94D508CE010E942B2F21
:103CE00061C00E94AC2A80910D08813009F44CC05B
:103CF000833009F04DC0809126088430C9F08530AA
:103D000030F4813059F0833009F042C00BC0873065
:103D1000F1F0883021F18630D9F515C0CE010E942E
:103D2000781540C0CE010E9498210E9494273AC085
:103D30008091A107882321F0CE010E94512032C03A
:103D40000E94331F25C0CE010E94F4272BC0809112
:103D500032088230E9F4CE010E94421923C0CE011C
:103D60000E94F3321FC080910D08833059F4809176
:103D70002608823069F480E00E94D508CE010E94B6
:103D80003B1610C0813021F4CE010E94E2230AC00C
:103D9000CE010E94FD0B06C080913308882309F0F4
:103DA000E2CEF1CEDF91CF911F910F910895DB010B
:103DB000FC018681882399F40780F085E02D8281BB
:103DC000869586958370823051F440E02D913C9128
:103DD000868197812817390719F441E001C040E036
:103DE000842F0895DB01FC0186818823C9F50780B3
:103DF000F085E02D8281869586958370833081F5EC
:103E000020E09C918681981761F511969C911197FD
:103E10008781981731F512969C9112978085981793
:103E200001F513969C91139781859817D1F41496F8
:103E30009C91149782859817A1F415969C911597DB
:103E40008385981771F416969C9116978485981718
:103E500041F417969C918585981719F421E001C0CB
:103E600020E0822F08950F931F93CF93DF938AE969
:103E70000E94050C8C01009709F44BC0DC01CD9128
:103E8000DC918CE088831A8309831E82FE01E85648
:103E9000FF4F80911B08833089F438979F014EE1D2
:103EA00058E088E0DA010D90AD01D9010D929D0135
:103EB0008150C1F721E03CE04FE009C080911E082D
:103EC00090911F089293829321E038E049E080911D
:103ED0001C0890911D08929382938091BA07829357
:103EE0008F5F8093BA07329322934293F887EF83D0
:103EF000F8018081918161E070E040E00E946410EF
:103F0000882321F481E08093330803C0C8010E9414
:103F1000FD0BDF91CF911F910F9108956F927F92CA
:103F20009F92AF92BF92CF92DF92EF92FF920F9348
:103F30001F93CF93DF93D82E962EC42E59013801AC
:103F40008AE90E94050C7C01009709F49BC0DC0102
:103F50000D911C91DD2021F084E0F801808303C0E5
:103F60008BE0D8018C93F801F282E182E956FF4F91
:103F700084E0808320917F0730918007C9010296F9
:103F8000029710F0992069F03897EF01A1E7B7E0A8
:103F900088E00D9009928150E1F762E183E290ECB4
:103FA00005C0329322936CE083E290E8CC2061F06C
:103FB00020917C0730917D076216730629F06E5FB1
:103FC0003293229370E002C0806471E022E0C21656
:103FD00041F4AC015860D5018D919C9192938293EC
:103FE00028C0B3E0CB1661F4AC015C6038976A5F1F
:103FF000EF01D50188E00D9009928150E1F719C0D9
:104000002091F5073091F6074FEF2E3F340729F046
:10401000AC015860329322930CC0AC015C603897BD
:104020006A5FEF01A3E0B8E088E00D90099281504B
:10403000E1F73297772339F080917C0790917D07E3
:104040009183808302C0718260828091BA078293DB
:104050008F5F8093BA07529342936293D801189668
:10406000FC93EE931797C80162E070E041E00E9474
:104070006410882321F481E08093330804C0C701D1
:104080000E94FD0B80E0DF91CF911F910F91FF9077
:10409000EF90DF90CF90BF90AF909F907F906F9008
:1040A0000895EF92FF920F931F93DF93CF9300D069
:1040B00000D0CDB7DEB70E94FD0B80913208823070
:1040C00008F453C080911B08823019F487ED9EE1FB
:1040D00005C0833009F049C082EF9EE19A8389834D
:1040E0008EE198E09C838B838DE997E07E010894B4
:1040F000E11CF11CB7010E94CD0CDC01009781F09E
:104100000D911C911197F8018781908520911C08D1
:1041100030911D08FC01848195812817390719F019
:104120000E94331F22C081E0F8018683B283A183FD
:104130008DE997E0B7010E94CD0C892B41F0D801A1
:104140001796ED91FC911897818180618183C80158
:1041500061E070E040E00E946410882321F481E077
:104160008093330802C0F80116820F900F900F90D1
:104170000F90CF91DF911F910F91FF90EF900895D5
:10418000EF92FF920F931F93CF93DF937C01E8018F
:10419000DC01ED91FC9186E180836183428334836D
:1041A0002383CF010596423069F415821682178267
:1041B00010861186128613861486888199819683CB
:1041C000858307C0DC01F80188E001900D928150E1
:1041D000E1F786E398E0B7010E94320CDF91CF91BE
:1041E0001F910F91FF90EF9008950F931F93DF930E
:1041F000CF93CDB7DEB728970FB6F894DEBF0FBECA
:10420000CDBFDC01ED91FC91119719821A821B82BE
:104210001C821D821E821F8218860780F085E02D79
:104220004281469546954370842F8250823080F4B7
:104230008681898387818A8380858B8381858C832E
:1042400082858D8383858E8384858F83858588870A
:1042500080913208833049F420917C0730917D07AA
:104260008E010F5F1F4FCD0156C0823009F03FC055
:10427000423051F4268137818091F5079091F607FD
:104280002817390759F533C0433041F5968180919D
:104290000308981719F59781809104089817F1F48D
:1042A0009085809105089817C9F49185809106083A
:1042B0009817A1F4928580910708981779F493854F
:1042C00080910808981751F49485809109089817EF
:1042D00029F4958580910A08981749F020917C0768
:1042E00030917D07CD018E010F5F1F4F14C080916B
:1042F0007F0790918007029620917C0730917D077F
:10430000029728F4CD0143E001E717E004C0CD0196
:1043100042E00FE717E00E94C02028960FB6F894FD
:10432000DEBF0FBECDBFCF91DF911F910F910895DA
:10433000CF93DF939C01FC01C081D181FE0185E117
:104340008193AEE1B8E088E00D9001928150E1F7F1
:1043500080912908898786E398E0B9010E94320C90
:104360001092030810920408109205081092060893
:1043700010920708109208081092090810920A0873
:104380008FEF9FEF9093F6078093F507DF91CF9122
:104390000895EF92FF920F931F93DF93CF93CDB7C2
:1043A000DEB72E970FB6F894DEBF0FBECDBF8C01DF
:1043B000DC01ED90FC90DE011196F7018EE001909A
:1043C0000D928150E1F7F7011283018383E080832E
:1043D000EA56FF4F80838D85818338979F0141E79F
:1043E00057E088E0DA010D90AD01D9010D929D01F1
:1043F0008150C1F78A81823031F48D819E81929300
:10440000829333E10FC038979F01AE014B5F5F4F3E
:1044100088E0DA010D90AD01D9010D929D01815026
:10442000C1F739E180917C0790917D079293829347
:104430008091BA0782938F5F8093BA072A81922F67
:10444000990F990F80E08366906C929382933293D8
:10445000D7011896FC93EE93179716961C928091AD
:1044600032088250823008F060C08E85882309F4BB
:104470005CC08A818230D1F48D818B3409F041C0D7
:104480008E818823F1F58F818823D9F5888588234B
:10449000C1F589858823A9F58A85882391F58B85BF
:1044A000882379F58C85882361F55BC0833009F01A
:1044B00058C09D8180910308981719F59E818091BD
:1044C00004089817F1F49F81809105089817C9F4A2
:1044D0009885809106089817A1F49985809107081E
:1044E000981779F49A8580910808981751F49B855C
:1044F00080910908981729F49C8580910A089817DB
:1045000081F18DE997E0B8010E94320C8091BC07DF
:104510009091BD07F7019583848381E00E94D007C5
:104520008823F9F40E94C6231CC00E944C26D8019F
:104530008D919C9162E070E041E00E9464108823BC
:1045400021F481E0809333080CC02B813C81C801A9
:1045500061EE4A818E010B5F1F4F0E94C0200E94B6
:1045600071262E960FB6F894DEBF0FBECDBFCF9149
:10457000DF911F910F91FF90EF900895DC01ED9175
:10458000FC911197E081E43278F4F0E0EE0FFF1F28
:10459000E05DFE4F259134912115310519F0F901A7
:1045A000099508950E94FD0B08951F93809133088B
:1045B000882381F48091B607882361F082EB97E02D
:1045C00060E070E00E94C70C009721F00E94BE22BC
:1045D00011E001C010E08091FE07882359F08AEFB6
:1045E00097E060E070E00E94C70C009719F00E940D
:1045F000BE2211E0812F1F910895FC01868188233E
:1046000029F48481958101979583848380E00895BE
:10461000FC018681882311F020E006C020E084811F
:104620009581892B09F421E0822F0895FB0120E078
:10463000DC0113969C918081981709F421E0822F68
:104640000895DC01ED91FC91119780E18083418315
:10465000628386E398E0BD010E94320C0895EF92D8
:10466000FF920F931F93DF93CF9300D000D00F9250
:10467000CDB7DEB77C01FC0100811181F801918189
:1046800082E18083998386E193E29B838A83CE01D2
:1046900001969D838C838DE997E0BE016E5F7F4F0D
:1046A0000E94C70C009729F00E94FD0BF8011282AE
:1046B00003C087EEF801828386E398E0B7010E9489
:1046C000320C0F900F900F900F900F90CF91DF91C1
:1046D0001F910F91FF90EF900895FF920F931F93FA
:1046E000DF93CF9300D000D0CDB7DEB78DEF92E24D
:1046F0009A8389838DE997E08E010F5F1F4FB80180
:104700000E94CD0C88E093E29A838983F02E012FDA
:1047100010E18DE997E06F2D702F0E94C70CDC012E
:10472000009721F19C9111962C911197E92FF22F6E
:104730008081833049F08D3061F0823051F780EF15
:10474000BD010E947C26E5CFCD0160EF0E94F520DF
:10475000E0CF8381E92FF22F1083818380EF828362
:1047600086E398E0BD010E94320CD3CF8091A1076F
:10477000882311F00E94C6230F900F900F900F9086
:10478000CF91DF911F910F91FF900895EF92FF92CB
:104790000F931F9381E040E050EE61E070E020E075
:1047A00030E00DE613E2EE24FF240E94E1098823A5
:1047B00021F080E090E00E946D231F910F91FF9007
:1047C000EF9008950F931F93DF93CF93CDB7DEB78C
:1047D00028970FB6F894DEBF0FBECDBFAC01DC0149
:1047E0009C9111962C9180912808882321F4CA016C
:1047F0000E94FD0B13C1E92FF22F80910F08808FCB
:1048000020911B08218380911C0890911D0893839F
:104810008283822F8250823010F514821582168294
:1048200017821086118612861386223039F4809101
:104830001E0890911F08958384831BC02330C9F400
:104840009F012C5F3F4F6EE178E088E0DB010D9027
:10485000BD01D9010D929D018150C1F70AC013829B
:104860001282148215821682178210861186128691
:104870001386208D80919C07281761F59481809183
:10488000A407981739F595818091A507981711F518
:1048900096818091A6079817E9F497818091A707E0
:1048A0009817C1F490858091A807981799F491857D
:1048B0008091A907981771F492858091AA0798179B
:1048C00049F493858091AB07981721F4CA010E949F
:1048D000FD0B5AC020939C0784818093A407858197
:1048E0008093A50786818093A60787818093A70779
:1048F00080858093A80781858093A907828580930E
:10490000AA0783858093AB07209110082487178618
:10491000108A118A128A138A148A158A168A80913B
:1049200011089091120896878587233079F49F01AA
:10493000215F3F4F63E178E088E0DB010D90BD012E
:10494000D9010D929D018150C1F70BC0223039F47D
:104950008091130890911408908B878702C0168667
:10496000158680912708878B80912808818F8091F8
:10497000290890912A08938F828F81E1808386E3B2
:1049800098E0BA010E94320C80910B0884FF46C067
:1049900080913208833009F443C080911B08823033
:1049A00071F480911E0890911F089A838983009169
:1049B0001C0810911D0880E060E042E021C08330B7
:1049C00019F580911E08898380911F088A83809140
:1049D00020088B83809121088C83809122088D830D
:1049E000809123088E83809124088F8380912508ED
:1049F000888700911C0810911D0880E060E043E06A
:104A00009E012F5F3F4F07C080E060E040E020E064
:104A100030E000E010E00E948E1F02C00E9471266C
:104A200028960FB6F894DEBF0FBECDBFCF91DF91B1
:104A30001F910F910895CF92DF92EF92FF920F9303
:104A40001F93DF93CF93CDB7DEB762970FB6F8947D
:104A5000DEBF0FBECDBF8C01DE011196FC0180814F
:104A600091819C01F90182E101900D928150E1F761
:104A70008F8582FD11C08091AE07882321F480913B
:104A8000B707882349F09E85D801ED91FC9180E11C
:104A90008083918381EEAEC0F801E080F1808DE0EB
:104AA000D7018C938E8513968C93139716961C9230
:104AB000888945E0D42ED80EE8E9F0E0E81BF1093A
:104AC000EE0DFF1D9A81923051F437E0D32ED80EAF
:104AD00080917F07909180079293829312C09330C8
:104AE00081F438972DE0D22ED80E9F0141E757E090
:104AF00088E0DA010D90AD01D9010D929D01815040
:104B0000C1F720917C0730917D078C819D8128170A
:104B1000390749F48A81882331F08B81882319F081
:104B200040E450E009C08A81882321F0B2E0DB0E26
:104B30003293229340E050E08B81882311F1823040
:104B400039F46D2D6E5F8E819F819293829312C096
:104B500038976D2D685F9F0196E0C92ED12CCC0E41
:104B6000DD1E88E0D6010D906D01D9010D929D01E9
:104B70008150C1F782E0D82ED60E8C819D81929310
:104B800082938091BA0782938F5F8093BA07BA01AC
:104B900061608F8580FF02C0BA01616288898736B3
:104BA00008F070618B81382F330F330F20E04A817A
:104BB000942F9295990F990F907C80E0282B392B98
:104BC000262B372B329322933296D7FC0BC0339788
:104BD000D082D7011896FC93EE9317978F8582FDAC
:104BE00010C028C09E85D801ED91FC9180E18083A2
:104BF000918385EE828386E398E0B8010E94320CAF
:104C00003CC08091320882508230A0F48DE997E058
:104C1000B8010E94320C8091BC079091BD07F7014A
:104C20009583848381E00E94D007882331F50E9418
:104C3000C62323C00E944C26D70112961C930E93C4
:104C40001197C70162E070E041E00E946410882380
:104C500021F481E08093330810C09E85D801ED9146
:104C6000FC9180E18083918381EE828386E398E0EA
:104C7000B8010E94320C0E94712662960FB6F89419
:104C8000DEBF0FBECDBFCF91DF911F910F91FF907F
:104C9000EF90DF90CF90089580913408813051F4E7
:104CA0000E942B15853831F081E090E00E946C075E
:104CB00010923408089580913408882389F480E0A4
:104CC00090E00E946C0780E00E943A15882321F44E
:104CD00081E080933408089581E090E00E946C07A1
:104CE00008958091A207882331F48091F7078823E3
:104CF00011F40E945B260895DF93CF93CDB7DEB702
:104D000028970FB6F894DEBF0FBECDBF482F9B018A
:104D1000DB01ED91FC910780F085E02DDE0111961D
:104D2000369688E001900D928150E1F7D901ED911E
:104D3000FC918CE1808380917C0790917D07928328
:104D4000818393E0938380917107848380917207BC
:104D50008583809173078683809174078783809110
:104D60007507808780917607818780917707828792
:104D70008091780783879487898185878A81868750
:104D80008B8187878C81808B8D81818B8E81828BBB
:104D90008F81838B8885848B458B86E398E0B9016E
:104DA0000E94320C28960FB6F894DEBF0FBECDBF1E
:104DB000CF91DF9108950F931F93182F109233080E
:104DC00010923208109234081092B7071092B90767
:104DD0001092AE0710929C078FEF8093A4078093E8
:104DE000A5078093A6078093A7078093A8078093C1
:104DF000A9078093AA078093AB071092F70788E072
:104E00000E9458150FB7F89480E00E94D50881E001
:104E10000E94D50882E00E94D50883E00E94D50850
:104E20000FBF112309F440C01092350882EC97E0BF
:104E30009093B1078093B00780E098E790930008C3
:104E40008093FF071092AD0710929B071092BB074B
:104E50000E941B378093B80784EF91E09093BD07C1
:104E60008093BC0781E08093AF0786E08093A3071F
:104E70001092030810920408109205081092060878
:104E800010920708109208081092090810920A0858
:104E90008FEF9FEF9093F6078093F5070E941B37E3
:104EA0008093BA071092A2071F910F9108950F9354
:104EB0001F93CF93DF93EC01088119810E944C2648
:104EC000F801018180E090E00E946C0780E0011110
:104ED00081E00E94F813182F81E090E00E946C0797
:104EE000802F0E94DB260E94712682EB97E00E94B1
:104EF000D30C8AEF97E00E94D30C86E398E00E94DF
:104F0000D30C8DE997E00E94D30CE881F9811183DD
:104F100080E2808386E398E0BE010E94320CDF913C
:104F2000CF911F910F910895DF93CF9300D000D0C0
:104F3000CDB7DEB70E944C268FEF9FEF9A8389830F
:104F40009C838B8383E5BE016F5F7F4F0E9429287E
:104F500080E5BE016D5F7F4F0E94292881E00E949D
:104F6000DB260E9471260F900F900F900F90CF912B
:104F7000DF9108950E942A148823B9F40E94A00B9F
:104F8000882399F081E00E94DB260E94712682EB43
:104F900097E00E942B0C8AEF97E00E942B0C8DE982
:104FA00097E00E942B0C80E0089585E80895FF9219
:104FB0000F931F93182FF92E40917C0750917D0776
:104FC00089E0612F792F2091890700917B070E944A
:104FD0002833882329F481EE612F7F2D0E947C26BF
:104FE0001F910F91FF900895CF93DF93EC01E8811B
:104FF000F9818AE18193AEE1B8E088E00D900192F9
:105000008150E1F786E398E0BE010E94320CDF9107
:10501000CF910895E82F853419F48091BB07089546
:10502000883030F4E82FF0E0E858FE4F849108957E
:105030008054803228F4F0E0E05CFE4F84910895C3
:10504000E03F10F480E00895F0E0E055FF4F8491D8
:1050500008951F93CF93DF93182FEB0180913408AD
:10506000813051F40E944C26812FBE010E947012A3
:10507000182F0E94712604C0812F0E947012182FD1
:10508000812FDF91CF911F9108950F931F93CF939D
:10509000DF938C01FC01C081D181BE016D5F7F4F28
:1050A00089818B3409F4A4C08C3478F5863009F4F6
:1050B00075C0873098F4823009F4D0C0833038F45A
:1050C000882309F4BBC0813009F048C0BAC08430DD
:1050D00009F45CC0853008F05CC0C3C0853409F4B5
:1050E00069C0863448F4813409F461C0823409F41B
:1050F0005BC0873099F555C0893409F468C08A349B
:1051000008F06DC0863451F55FC0853509F462C082
:105110008635A0F48F3409F476C0803530F48C34B1
:1051200009F46BC08E34D1F46BC0823509F473C0BE
:10513000833509F473C0803589F468C08935D9F0A6
:105140008A3528F4873579F0883580F409C08D35A3
:10515000D1F0803F09F469C08A3581F094EF85C0B1
:105160008091350880C080918B077DC08091B00709
:105170009091B10757C080918F0775C08091FF074C
:10518000909100084FC08091AD076DC080917B0762
:105190006AC08091790790917A0744C08091910705
:1051A00062C0809188075FC08091AF075CC080912A
:1051B0009B0759C04091BB0721EC37E0CB01B901F7
:1051C00050E00E942B3750C08091BB074CC08091AB
:1051D000B80749C08091BC079091BD0723C0DB018F
:1051E000E3E0F8E088E001900D928150E1F73CC0E7
:1051F0008091F5079091F60715C08091BA0733C0EA
:105200008091870730C080918E072DC080917C07E8
:1052100090917D0707C08091A20725C080917F07EC
:10522000909180079C838B831FC0DB01E1E7F7E04F
:1052300088E001900D928150E1F716C080918907B6
:1052400012C08091950790919607A0919707B09111
:1052500098078B839C83AD83BE8306C080917007C3
:1052600002C080917E078B8390E089818A838EE1E2
:105270008883998386E398E0B8010E94320CDF911D
:10528000CF911F910F910895FF920F931F93CF938A
:10529000DF93182FEB01F42E8B3409F49BC08C3470
:1052A00040F5833409F4B1C0843478F4853038F49F
:1052B000823008F0AAC0882309F4A7C03EC0813418
:1052C00009F453C08234C9F548C0863409F45AC081
:1052D000873430F4843409F444C0853471F549C00E
:1052E000893409F453C08A3408F05BC0873429F547
:1052F0008CC0853509F44EC0863570F4813530F4A4
:105300008E3408F082C08C34C1F46BC0823509F44D
:105310006CC0823590F079C08835A9F0893528F4C1
:10532000863569F0873549F470C08A3579F08A3559
:1053300008F46BC0803F09F468C004EFC7C08881DF
:1053400080933508C2C088819981BBC088819981CA
:10535000909300088093FF07B8C088818093AF07BF
:10536000B4C088818093A307B0C0888180939B07D5
:10537000ACC021EC37E04091BB07C90150E00E946E
:105380002B37A3C088818093BB079FC088818093FF
:10539000B8079BC0888199819093BD078093BC0713
:1053A00094C08881809303088981809304088A814E
:1053B000809305088B81809306088C818093070871
:1053C0008D81809308088E81809309088F81809356
:1053D0000A087BC0888199819093F6078093F5072E
:1053E00074C088818093BA0770C06881611161E0E0
:1053F0006093A207662331F00E944C2686E00E944B
:10540000581563C00E94712660C0812FBE010E94A2
:105410007012082F813871F40E942B15812FBE0164
:105420000E947012082F882309F050C081E08093F9
:10543000020703C0882309F049C080918707282FFD
:1054400030E080918B07482F50E060918E07CA01B1
:10545000861B9109281739070CF4C901A82F281BAE
:10546000310981E090E002C0880F991F4A95E2F768
:105470000197289FA001299F500D389F500D11249E
:1054800020E030E070E0E1E0F0E00DC0C901860FFF
:10549000971FEF0102C0CC0FDD1F8A95E2F74C0F7A
:1054A0005D1F2F5F3F4F2A1788F384E190E09C0136
:1054B000429FC001439F900D529F900D1124865F23
:1054C0009E4F9093B1078093B00700E0FF2049F012
:1054D00080910207882329F080E00E943A151092FB
:1054E0000207802FDF91CF911F910F91FF900895B8
:1054F000EF92FF920F931F937C01FC0100811181B9
:10550000B8016E5F7F4FF801818141E00E9444291C
:10551000F801918192839FE19083818386E398E0F3
:10552000B7010E94320C1F910F91FF90EF900895E8
:10553000CF93DF93EC01E881F98183E2808361837B
:10554000662311F00E94712686E398E0BE010E9456
:10555000320CDF91CF91089580910D088823E1F0FE
:1055600080E00E94D50880910D08813031F480914F
:105570002808882311F060E001C06BEE8091AE072F
:10558000823031F48091BF079091C0070E94982A21
:10559000109233081092AE0708958091AE078230C2
:1055A00039F48091BF079091C0076BEE0E94982A52
:1055B0001092AE07109233080895CF92DF92EF92C7
:1055C000FF920F931F93DF93CF93CDB7DEB728974A
:1055D0000FB6F894DEBF0FBECDBFD82EC92E809176
:1055E000AE078823D1F5809132088330B1F18091E4
:1055F000B707882391F50E944C26ED2CFC2CD7018F
:10560000ED91FC9181819F012C5F3F4F823031F4FD
:10561000848195819A83898342E00DC0AE014F5FFA
:105620005F4F88E0D9010D909D01DA010D92AD0127
:105630008150C1F743E00281138181E060E09E0167
:105640002F5F3F4F0E948E1F882329F0D092BF0703
:10565000C092C00707C0C70102C08D2D9C2D61EE0E
:105660000E94982A28960FB6F894DEBF0FBECDBFD1
:10567000CF91DF911F910F91FF90EF90DF90CF902E
:1056800008955F926F927F928F929F92AF92BF9296
:10569000CF92DF92EF92FF920F931F93DF93CF93FE
:1056A000CDB7DEB761970FB6F894DEBF0FBECDBFA2
:1056B000BC014091B707423011F0443069F4809149
:1056C000AF07882349F0E091BF07F091C007208120
:1056D0003181D901199604C0A0E0B0E020E030E0AB
:1056E00050911B08598300911C0810911D081B83C1
:1056F0000A83523069F41E821F82188619861A8620
:105700001B8680911E0890911F089D838C8318C072
:1057100080911E088C8380911F088D8380912008C2
:105720008E83809121088F838091220888878091C1
:1057300023088987809124088A87809125088B8790
:10574000909089079C86B0907B07BD868091290840
:1057500090912A089F878E87188A80912B0887FF4F
:1057600002C081E0888B80912708898B423019F034
:10577000443009F06FC08091AF07882309F46AC0F4
:10578000F901F084EC81FD815C806D807E808F80EA
:10579000A884C984DA84EB8440E049C011968D91D5
:1057A0009C9112970817190709F03FC08C91581760
:1057B000E1F51B968C911B979816B9F51C968C9168
:1057C0001C97B81691F5523041F413968D919C9127
:1057D0001497E817F90749F53DC013968C91139774
:1057E000851519F514968C9114978615F1F4159674
:1057F0008C9115978715C9F416968C911697881574
:10580000A1F417968C9117978A1579F418968C91B4
:1058100018978C1551F419968C9119978D1529F4B8
:105820001A968C911A978E15A9F04F5F51964F15C5
:1058300008F4B4CF59C0FD01DE01119681E10D904D
:1058400001928150E1F7D90118968C9118978F5FDA
:1058500018968C9390912C0880912F08882321F41E
:105860008091AF078823E1F5DB01ED91FC9187E1A1
:10587000808380910F0881839F012E5F3F4FAE018F
:105880004F5F5F4F81E1DA010D90AD01D9010D92BB
:105890009D018150C1F780912C08838B892F8770DF
:1058A00059F4892F90E08077907024E09595879542
:1058B0002A95E1F7882331F080912D0890912E08E8
:1058C000958B848B80912F08868B809130089091E6
:1058D0003108908F878B86E398E00E94320C09C0D4
:1058E000CB010E94FD0B05C0E4E0EF1508F4B2CF38
:1058F000A2CF61960FB6F894DEBF0FBECDBFCF9199
:10590000DF911F910F91FF90EF90DF90CF90BF90AC
:10591000AF909F908F907F906F905F900895FB0164
:1059200040E0208131812817390709F441E0842FB4
:105930000895EF92FF920F931F93DF93CF9300D0C0
:1059400000D0CDB7DEB7F82E8B01109233088091CE
:10595000B707823029F4FB018081873059F406C0F3
:10596000833041F4FB018081863021F48F2D0E9429
:105970008B312CC1F8018081883009F419C189303C
:1059800098F4833009F445C0843038F4813009F448
:1059900068C0823009F018C1E4C0843009F490C0B6
:1059A000853009F011C1FBC08B3009F489C08C30FF
:1059B00038F4893009F4ECC08A3009F005C1FFC021
:1059C0008C3009F4FCC08D3009F0FEC0F8018681EE
:1059D0008823B9F01682FF2021F0F7E8FF1609F0BE
:1059E000F3C08FE89CE29A838983F80181819281D8
:1059F0009C838B838DE997E0BE016F5F7F4F0E9490
:105A0000C70CF801818192816F2D43810E9421236F
:105A1000DBC0F80186818823B1F01682FF2019F0DF
:105A2000F7E8FF16B1F48FE89CE29A838983F801C6
:105A3000818192819C838B838DE997E0BE016F5FAA
:105A40007F4F0E94C70CF801818192816F2D0E94C7
:105A5000F52080913208813009F0B6C00E94942769
:105A6000B3C0F9EEFF1619F091EEF91649F4F801FA
:105A7000818192816F2D4FEF5FEF0E94A415A4C02A
:105A80008093AE074091FF075091000860E070E0FE
:105A900094E0440F551F661F771F9A95D1F780E059
:105AA00020E030E005EF15E1EE24FF240E94E1093B
:105AB000882309F48BC080E090E00E94F51586C031
:105AC000F801818192810E94FD0B8091AE078130A7
:105AD00009F47CC0F80180818430C1F4F7E8FF1636
