:100000000C94D1000C94F0000C94F0000C94F000CF
:100010000C94F0000C94F0000C94F0000C94F000A0
:100020000C94F0000C94F0000C94F0000C94F00090
:100030000C94F0000C94F0000C94F0000C94F00080
:100040000C94F0000C94F0000C94F0000C94F00070
:100050000C94F0000C94F0000C94F0000C94F00060
:100060000C94F0000C94F0000C94F0000C94F00050
:100070000C94F0000C94F0000C94F0000C94F00040
:100080000C94F0000C94F0000C94F0000C94F00030
:100090000C94F0000C94F0000C94F0000C94F00020
:1000A0000C94F0000C94F0000C94F0000C94F00010
:1000B0000C94F0000C94F0000C94F0000C94F00000
:1000C0000C94F0000C94F0000C94F0000C94F000F0
:1000D0000C94F0000C94F0000C94F0000C94F000E0
:1000E0000C94F0000C94FB020C9405030C94F102A8
:1000F0000C9470020C949B020C940F030C94450218
:100100000C94C6020C94FA070C9423080C94F0008B
:100110000C94F0000C94F0000C9423030C9419033D
:1001200003020201010000FFFEFDFCFBF9F7F4EF02
:100130006E18861300135C21701F0A1EB92618243E
:10014000862498235A2AE32C0000542E1E270000F0
:10015000241734171417EA1603172A164316CC1659
:10016000000000000216B3157C1688151816A3159A
:10017000E415D5159415F3150104010101020101DF
:100180000101010101010101040108020101010154
:100190000201010201020101020102020101010149
:1001A000080011241FBECFEFD1E4DEBFCDBF12E0A7
:1001B000A0E0B2E0E2E9F7E600E00BBF02C0079082
:1001C0000D92A430B107D9F717E0A4E0B2E001C066
:1001D0001D92A330B107E1F70E9410020C94C733BF
:1001E0000C940000089581E090E061E070E00E94CE
:1001F00046080895EF92FF920F931F9381E090E0DD
:1002000060E070E00E94460884E040E251EA67E066
:1002100070E020E030E003EF10E0EE24FF240E94C5
:1002200079061F910F91FF90EF900895EF92FF9242
:100230000F931F937C01E0910402F0910502309727
:1002400009F1809106028217E9F480910702831771
:10025000C9F4809108028417A9F4809109028517D6
:1002600089F480910A02861769F480910B0287173E
:1002700049F480910C028E1529F480910D028F159E
:1002800009F45DC000910E0210910F0201151105D5
:1002900001F1809110028217E1F48091110283171D
:1002A000C1F4809112028417A1F480911302851782
:1002B00081F480911402861761F4809115028717EA
:1002C00041F4809116028E1521F4809117028F154A
:1002D000B9F1EF2B19F4A0E0B0E004C0012B49F50F
:1002E000A1E0B0E08D010F5F1F4FFD01EE0FFF1F7A
:1002F000CD01880F991F880F991F880F991FE80F4C
:10030000F91FEC5FFD4F11830083FD01EE0FFF1F0E
:10031000EE0FFF1FEA0FFB1FEE0FFF1FEA5FFD4FFF
:10032000208331834283538364837583E682F7821B
:1003300007C0C7010FEF1FEFEE24E39403C08F0146
:10034000C701EE240E948A311F910F91FF90EF9018
:100350000895882339F480E090E060E070E00E9426
:100360004608089581E00E9402310895AF92CF922D
:10037000EF920F938EEB9AEB64E140E02FE00FE0F9
:10038000EE24E394CC24AA240E9452300F91EF90E3
:10039000CF90AF900895DF93CF9300D0CDB7DEB765
:1003A000882349F419821A8283E5BE016F5F7F4F6B
:1003B0000E94793203C081E00E9402310F900F90B9
:1003C000CF91DF9108950F93DF93CF930F92CDB725
:1003D000DEB78823E9F4633521F481E0898381E481
:1003E00005C0613449F481E0898382E5BE016F5F15
:1003F0007F4F0E9479320FC0623551F481E040E0B6
:1004000058EF6FEF77E021E000E00E94853003C0F5
:1004100081E00E9402310F90CF91DF910F910895FA
:100420000E94BB32882311F00E942D030E94940881
:1004300080E090E060E070E00E94460880E090E09C
:1004400061E070E00E94460881E090E061E070E0C9
:100450000E944608789481E00E9402310E94A532F1
:10046000FDCF9093190280931802089590931B0278
:1004700080931A02089590931D0280931C020895A0
:1004800090931F0280931E0208951F920F920FB641
:100490000F920BB60F9211242F933F934F935F93BC
:1004A0006F937F938F939F93AF93BF93EF93FF933C
:1004B000E0911802F09119020995FF91EF91BF9117
:1004C000AF919F918F917F916F915F914F913F91EC
:1004D0002F910F900BBE0F900FBE0F901F9018958D
:1004E0001F920F920FB60F920BB60F9211242F93FB
:1004F0003F934F935F936F937F938F939F93AF93AC
:10050000BF93EF93FF93E0911A02F0911B020995BC
:10051000FF91EF91BF91AF919F918F917F916F91DB
:100520005F914F913F912F910F900BBE0F900FBE97
:100530000F901F9018951F920F920FB60F920BB647
:100540000F9211242F933F934F935F936F937F9359
:100550008F939F93AF93BF93EF93FF93E0911C0210
:10056000F0911D020995FF91EF91BF91AF919F917D
:100570008F917F916F915F914F913F912F910F904C
:100580000BBE0F900FBE0F901F9018951F920F92E9
:100590000FB60F920BB60F9211242F933F934F93E8
:1005A0005F936F937F938F939F93AF93BF93EF93DB
:1005B000FF93E0911E02F0911F020995FF91EF91C8
:1005C000BF91AF919F918F917F916F915F914F916B
:1005D0003F912F910F900BBE0F900FBE0F901F9069
:1005E00018951F920F920FB60F9211240F900FBE05
:1005F0000F901F9018951F920F920FB60F92112413
:100600000F900FBE0F901F9018951F920F920FB66C
:100610000F9211240F900FBE0F901F9018951F92EC
:100620000F920FB60F9211240F900FBE0F901F90D4
:1006300018951F920F920FB60F9211240F900FBEB4
:100640000F901F9018951F920F920FB60F921124C2
:100650000F900FBE0F901F9018950E9494088FEF77
:100660009FEF0E943B0480E090E062E070E00E9417
:10067000460881E090E062E070E00E944608EFCF1B
:10068000CF92DF92EF92FF920F931F93CF93DF935E
:100690007B018A016901892B11F088EE19C0CA011A
:1006A000860F971F8150904110F085E811C0C0E07F
:1006B000D0E00AC0CE018E0D9F1D0E945533F60179
:1006C000EC0FFD1F80832196C017D10798F380E0BF
:1006D000DF91CF911F910F91FF90EF90DF90CF901E
:1006E0000895CF92DF92EF92FF920F931F93CF93D3
:1006F000DF938C017B016A01CB01800F911F815038
:10070000904110F085E816C0C0E0D0E00FC0C801ED
:100710000E945533F601EC0FFD1F6081861719F01A
:10072000C8010E945D330F5F1F4F2196CE15DF0574
:1007300070F380E0DF91CF911F910F91FF90EF90C8
:10074000DF90CF9008950E94430608950E94B5035C
:100750000E94D603A89588E10FB6F89480936000B4
:10076000109260000FBE80E008959FB7F894E0E01B
:10077000F0E089E08093570084919FBF8F708230B2
:1007800011F090E001C09FE080E80FB6F8948093EC
:100790006100909361000FBE80E1809335018093EA
:1007A0003401809333018093320108951092200226
:1007B000109237068FEF809321028093220280935C
:1007C0002302EEE0F6E09FEF9483118210823996C7
:1007D00086E0EB33F807C1F780E28093B60088EA41
:1007E0008093DC008FE08093F4009093F30090936B
:1007F000F2009093F10082E08093E0008091DF00AE
:1008000082608093DF0008950895FC018091DE00EE
:1008100080FDFCCF2091E100822F2091E200922FF9
:100820002091E300A22F2091E400B22F24E0880F52
:10083000991FAA1FBB1F2A95D1F780839183A2839A
:10084000B3830895FC012091E900822F2091EA00F2
:10085000922F2091EB00A22F2091EC00B22F34E0D8
:10086000880F991FAA1FBB1F3A95D1F780839183E8
:10087000A283B3830895AC018436910518F060E03B
:1008800070E01EC07FB7F89461E01AC057FD02C047
:100890009A0102C02FEF3FE7C901880F991F909579
:1008A00081959F4F9093250180932401FABBE0939B
:1008B0002101D09BFECF421B530B1092210102C09D
:1008C000F1E0E2E04115510509F761117FBF08959C
:1008D00020E090E0FC01B3E0EE0FFF1FBA95E1F7D6
:1008E000E80FF91FE65FF94F84819581892B09F0A4
:1008F00021E0822F0895AF92BF92CF92DF92EF92C4
:10090000FF920F931F938091210290E0FC0113E06E
:10091000EE0FFF1F1A95E1F7E80FF91FE65FF94F99
:10092000A080B180C280D38080912002882309F406
:100930006BC0D092F800C092F700B092F600A0927F
:10094000F5008091DF0080FD08C081E08093E00029
:100950008091DF0081608093DF002091E100822F91
:100960002091E200922F2091E300A22F2091E40039
:10097000B22F9C01AD012F5F3F4F4F4F5F4FDA0108
:10098000C9018A259B25AC25BD2580709070A0707B
:10099000B87F0097A105B10531F4A216B306C406CD
:1009A000D506C0F109C0D601C501B7705770281728
:1009B00039074A075B0770F180915D01883068F55F
:1009C000E0902402F0902502009126021091270267
:1009D0000894E11CF11C011D111DEA14FB040C0517
:1009E0001D05D9F48091E100282F8091E200382F75
:1009F0008091E300482F8091E400582F2E153F0589
:100A00004007510779F706C08091DF008E7F809301
:100A1000DF0003C081E0809337061F910F91FF90A4
:100A2000EF90DF90CF90BF90AF9008951F931FB7C6
:100A3000F89480913706882309F44CC01092370649
:100A400030912002332309F445C0809122028F3F68
:100A500059F4809123028F3F39F4809121028093D1
:100A600023028093220212C020912102809123024E
:100A700090E0FC0153E0EE0FFF1F5A95E1F7E80FFD
:100A8000F91FE65FF94F208720932302809121020E
:100A900090E0FC0143E0EE0FFF1F4A95E1F7E80FFD
:100AA000F91FE65FF94F8085809321028091230230
:100AB00090E0FC0123E0EE0FFF1F2A95E1F7E80F1D
:100AC000F91FE65FF94F8FEF808731503093200296
:100AD0000E947B041FBF1F910895FF920F931F93E5
:100AE000182F853010F08AE8C5C0FFB6F8940E9430
:100AF000160500912002002309F4C0C04091210294
:100B0000242F842F302F1217F1F5212F30E01417E6
:100B100081F4F901A3E0EE0FFF1FAA95E1F7E20FC0
:100B2000F31FE65FF94F8085809321020E947B04CA
:100B300018C090E0DC01E3E0AA0FBB1FEA95E1F7E3
:100B4000A80FB91FA65FB94FF90173E0EE0FFF1FA1
:100B50007A95E1F7E20FF31FE65FF94F808518966B
:100B60008C93812F90E0FC0163E0EE0FFF1F6A95EC
:100B7000E1F7E80FF91FE65FF94F8FEF808701502B
:100B80000093200262C0822F90E0FC0153E0EE0F40
:100B9000FF1F5A95E1F7E80FF91FE65FF94F5085FF
:100BA0003150822F09F46AC0252FADCF1217D1F52D
:100BB000209123021317B1F4121721F48FEF8093C1
:100BC00023020DC0812F90E0FC0143E0EE0FFF1FD8
:100BD0004A95E1F7E80FF91FE65FF94F80858093AA
:100BE000220233C0842F90E0DC0133E0AA0FBB1F48
:100BF0003A95E1F7A80FB91FA65FB94F812F90E092
:100C0000FC0103E0EE0FFF1F0A95E1F7E80FF91F63
:100C1000E65FF94F808518968C931217B1F44093D4
:100C2000230213C0822F90E0FC0173E0EE0FFF1F40
:100C30007A95E1F7E80FF91FE65FF94F422F20851B
:100C40002F3F09F0B3CF80E00FC0812F90E0FC016F
:100C500063E0EE0FFF1F6A95E1F7E80FF91FE65F0B
:100C6000F94F1582148281E0FFBE882311F489E8D0
:100C700001C080E01F910F91FF90089530912202F2
:100C8000232F432FDDCF1F930E9416051FEF25C092
:100C90006FB7F894822F90E0FC01B3E0EE0FFF1FD6
:100CA000BA95E1F7E80FF91FE65FF94F2085448117
:100CB000558186819781108715821482178216824A
:100CC0002F3F09F43FEF6FBF4115510551F03093AD
:100CD000230220932202FA010995309123022091E8
:100CE00022022F3FA9F630932302209322021F9164
:100CF00008952F923F924F925F926F927F928F92C0
:100D00009F92AF92BF92CF92DF92EF92FF920F939A
:100D10001F93DF93CF9300D000D00F92CDB7DEB7F3
:100D2000582E1801FB82EA8204E0081710F48AE8C2
:100D300020C12114310409F419C190E09D838C83F2
:100D4000FC01A3E0EE0FFF1FAA95E1F7E80FF91FE2
:100D5000E65FF94F84819581892B11F088E809C1FC
:100D6000E4E07695679557954795EA95D1F7211573
:100D7000310529F02130310509F0F8C026C0DB012A
:100D8000CA010897A109B109885F9F4FAF4FB740CB
:100D900008F0EEC02091E100822F2091E200922F16
:100DA0002091E300A22F2091E400B22F7A018B0161
:100DB000E80EF91E0A1F1B1F8FEF9FEFAFEFBFE07A
:100DC000E822F9220A231B2320C02091E100822F70
:100DD0002091E200922F2091E300A22F2091E400C5
:100DE000B22F8A019B01081B190B2A0B3B0BD9015F
:100DF000C801BF700897A109B109885F9F4FAF4F25
:100E0000B74008F0B5C07A018B012FB72983F89459
:100E10006FEF862E6FEF962E6FEFA62E6FE0B62E39
:100E20008E209F20A022B1220E94160560902102F0
:100E30003FEF631671F040902002D62CC62C772429
:100E40008FEF9FEFAFEFB7E0E822F9220A231B23D1
:100E500067C050922102EC81FD8153E0EE0FFF1F2D
:100E60005A95E1F7AC81BD81EA0FFB1FE65FF94FB0
:100E700060865AC0BFEFDB1609F44DC06D2D70E0DF
:100E8000FB0143E0EE0FFF1F4A95E1F7E60FF71F66
:100E9000E65FF94F2081318142815381D501C40140
:100EA00082279327A427B52780709070A070B87F01
:100EB0000097A105B10539F4281539054A055B05E8
:100EC00008F46FC007C05770E216F3060407150751
:100ED00008F467C0EC81FD8133E0EE0FFF1F3A9507
:100EE000E1F70C811D81E00FF11FE65FF94FD0861D
:100EF0006D1419F45092210217C08C2D90E0FC0162
:100F000023E0EE0FFF1F2A95E1F7E80FF91FE65FD8
:100F1000F94F508609C08FEFDC2C7394CD2CD82E5E
:100F2000741408F4A7CF49C0EC81FD8193E0EE0F63
:100F3000FF1F9A95E1F72C813D81E20FF31FE65FD9
:100F4000F94F80829182A282B382358224828A8183
:100F50009B8197838683809120028F5F80932002FC
:100F60000E947B0499819FBF80E003C088EE01C08E
:100F70008BE80F900F900F900F900F90CF91DF9113
:100F80001F910F91FF90EF90DF90CF90BF90AF90A7
:100F90009F908F907F906F905F904F903F902F9099
:100FA0000895FB0183E0EE0FFF1F8A95E1F7E60F3E
:100FB000F71FE65FF94F8085B0CF8C2D90E0FC01E4
:100FC00003E0EE0FFF1F0A95E1F7E80FF91FE65F58
:100FD000F94F5086EC81FD8113E0EE0FFF1F1A954B
:100FE000E1F7AC81BD81EA0FFB1FE65FF94F8FEFA0
:100FF00080879ACF1F920F920FB60F9211242F93D2
:101000003F938F939F938091E1009091E200209114
:10101000E3003091E4008093240290932502209312
:1010200026023093270280912002882319F081E064
:10103000809337069F918F913F912F910F900FBE14
:101040000F901F9018951F920F920FB60F921124B8
:101050008F938FEF8093E4008093E3008093E2000E
:101060008093E1008F910F900FBE0F901F90189505
:1010700081E008955E9A569A5F98579A6C9A749890
:10108000749A5E98569A5F98579A089545B1209A37
:10109000219A019711F431E001C030E0611571052A
:1010A00031F02091280261307105A1F40AC081E07D
:1010B00090E002C0880F991F3A95E2F7209128022C
:1010C00026C002C0660F771F3A95E2F7862F8095FB
:1010D00028231EC0822F90E0032E02C0959587958D
:1010E0000A94E2F780FF0CC081E090E002C0880F14
:1010F000991F3A95E2F780958223809328020AC0CF
:1011000081E090E002C0880F991F3A95E2F7282B02
:101110002093280280912802809583704C7F842B35
:1011200085B90E943A08089510922802209A219ABF
:10113000289A299A0E943A08089508955E9A569A24
:101140005F98579A75986D9A289A209823B1759A46
:10115000209A5E98569A5F98579A30E0209530957D
:1011600021703070C9010895BC01009721F08DED08
:1011700095E00E94E90808958DED95E060E070E04B
:101180000E947E0908950F931F93CF93DF938DEDF7
:1011900095E00E94E208C5ECD5E009E212E019836F
:1011A00008838DED95E0BE010E94E908249606565D
:1011B0001F4F85E0CD3DD80791F7DF91CF911F916B
:1011C0000F910895FC011182108213821282148201
:1011D0000895CF93DF93DC01EB019FB7F894149649
:1011E0008C911497882321F411967C936E9306C0FA
:1011F0001296ED91FC911397738362831396DC939F
:10120000CE9312971B821A8214968C9114978F5F3B
:1012100014968C939FBFDF91CF9108959F92AF92C8
:10122000BF92CF92DF92EF92FF920F931F93CF93D3
:10123000DF938C015B016A019FB6F894DC01149680
:101240008C91882319F4C0E0D0E04AC0F801C08135
:10125000D18141155105B1F07E0111C0D601129620
:101260006D917C911397ED91FC91888199810995FD
:10127000882359F47E018A819B819C01E901209792
:1012800069F72EC0209761F17E01AB2849F5F8017E
:10129000808191812A813B81C817D90719F4318354
:1012A000208305C0D70113963C932E931297F80123
:1012B00082819381C817D90711F4F382E282D801A1
:1012C00014968C911497815014968C9314978D9149
:1012D0009C911197892B21F413961C921E921297C0
:1012E0009FBECE01DF91CF911F910F91FF90EF90A4
:1012F000DF90CF90BF90AF909F900895AB0160E0DA
:1013000070E00E940E090895AB0161E070E00E9458
:101310000E090895CF93DF93EC010BC0CE0160E07E
:1013200070E00E947E09009711F41C8205C00E94A3
:10133000B4088C81882391F7DF91CF910895809133
:1013400041018F718830F1F481E080934F0189E091
:101350008093420180914F0180FD14C08EE690E0A1
:101360000E943B0480914F0180FD0CC08EE690E00E
:101370000E943B0480914F0180FD04C08EE690E006
:101380000E943B0408951F93182F809158068F30B8
:10139000D1F49FB7F8947894809139018D7F809330
:1013A0003901809161068823E1F39FBF10926106A5
:1013B00080914F018CE480934E01183011F013306E
:1013C00011F488E0AFC1809141018F71809358067C
:1013D000183009F44BC0193050F4143009F493C09C
:1013E000163009F49BC0133009F097C155C01F3067
:1013F00069F0103120F4193009F08FC163C0163143
:1014000009F4C2C0193109F088C122C183E0809378
:1014100042010E943C3380936D0180916E01977070
:10142000887F982B90936E0180914F0180E8809384
:101430004E0100000000000000000000000000005D
:10144000000000000000000000000000000000009C
:1014500000008091390182608093390183E290E03D
:101460000E943B04109358068FE05EC1883009F457
:1014700054C1109342010000000000000000000071
:10148000000000000000000000000000000000005C
:1014900000000000000041C1883009F43EC11093F3
:1014A00042010000000000000000000000000000F9
:1014B000000000000000000000000000000000002C
:1014C00000002BC1883021F1893020F4863009F0EA
:1014D00024C105C0863119F0893109F01EC189E0A7
:1014E00080934201000000000000000000000000A6
:1014F00000000000000000000000000000000000EC
:10150000000000000AC1883019F0893021F405C1BB
:101510000E949F0902C110934201FFC0893059F017
:101520008A3020F4883009F0F8C019C0863119F0EB
:10153000893109F0F2C086E080934201000000008A
:10154000000000000000000000000000000000009B
:10155000000000000000000000000000DEC00E944B
:101560009F091093420100000000000000000000ED
:10157000000000000000000000000000000000006B
:10158000000000000000C9C08830F9F0893020F464
:10159000863009F0C2C02EC0893019F0893109F0B7
:1015A000BCC086E180934201000000000000000002
:1015B000000000000000000000000000000000002B
:1015C0000000000000000000A8C00E949F091093C6
:1015D00042010000000000000000000000000000C8
:1015E00000000000000000000000000000000000FB
:1015F000000093C089E080934201000000000000D9
:1016000000000000000000000000000000000000DA
:1016100000000000000000000000809141018F7177
:1016200080935806893009F07FC010934201000072
:1016300000000000000000000000000000000000AA
:10164000000000000000000000000000000065C075
:10165000883009F44EC0893020F4863009F05DC02E
:1016600019C0893021F0863109F057C013C010939A
:101670004201000000000000000000000000000027
:10168000000000000000000000000000000000005A
:10169000000043C089E08093420100000000000088
:1016A000000000000000000000000000000000003A
:1016B00000000000000000000000809141018F71D7
:1016C00080935806893009F02FC089E18093420148
:1016D000000000000000000000000000000000000A
:1016E00000000000000000000000000000000000FA
:1016F00014C00E949F0910934201000000000000E6
:1017000000000000000000000000000000000000D9
:1017100000000000000000000000809141018F7176
:101720008F31D9F3809358061F910895809149060F
:101730008823E1F0809162068823C1F48091E2055C
:101740009091E305892B39F48AE90E94BC089093B3
:10175000E3058093E2058091E2059091E305892BF2
:1017600029F01092490686E10E94C30980914E0635
:10177000882351F08AE496E060E070E00E947E09E0
:10178000009711F00E94D10B80916206823019F00F
:10179000853031F403C00E94290D08950E94800D08
:1017A0000895EF92FF920F931F93CF93DF937C01E5
:1017B000DC010D911C91D8011796ED91FC911897C1
:1017C000808180935A06C82FD0E02196CE0FDF1F6C
:1017D000988129812D3310F02CE303C0222309F4D2
:1017E00021E092959695969593708FEF989FC00102
:1017F000112430E0FC01E29FC001E39F900DF29FB5
:10180000900D112464EB70E00E94CD326F3F7105A2
:1018100011F008F06FEF6883D8011296FC92EE92F7
:101820001197C8010E948C17DF91CF911F910F91E2
:10183000FF90EF900895CF92DF92EF92FF920F9377
:101840001F93CF93DF93E091E205F091E30530978A
:1018500009F449C0C081D181C0904701D0907B017B
:10186000D7FC41C082E0D80E0AE910E00D19110939
:10187000EEEFDE0E0C0F1D1FED2CFF2497012F5FE6
:101880003F4FC80160E871E0A9010E944C33F801A4
:10189000D292F887EF83EE0EFF1EF701C28280918D
:1018A0004C018F7780934C0180914C01806880932C
:1018B0004C016091E2057091E3058AE496E00E9494
:1018C000E9088AE90E94BC089093E3058093E20549
:1018D000892B31F489E00E94C30981E08093490695
:1018E00080E480934F01DF91CF911F910F91FF9082
:1018F000EF90DF90CF9008951F9310916206113002
:10190000C9F4809142018295869587708093E405A1
:1019100082E0809362068091E2059091E305892B35
:1019200031F489E00E94C3091093490603C086E19F
:101930000E94C3091F9108950F931F93CF93DF93C4
:10194000EC018B01442349F090916C018091570682
:101950008295807F9F70892B03C080916C018F706E
:1019600080936C010230110598F4442369F0909142
:101970006C0180914F06880F8E70917F892B809328
:101980006C0110926F0117C080916C018E6011C0C4
:10199000809153068295807F90915606892B809383
:1019A0006F0190916C0180914F06880F8E70917F2E
:1019B000892B80936C0189E10E94C3098931D9F791
:1019C0000130110551F480915A06833118F080E4FA
:1019D00092E005C080E890E002C089E090E00E94BB
:1019E0003B041FB7F89480913901826080933901DC
:1019F000809139018D7F80933901288130E0215019
:101A0000304080E891E0BE01A9010E944C3381E0A2
:101A1000809362061FBFDF91CF911F910F910895B0
:101A2000FC0180916206882311F086E80895F09306
:101A30005506E09354068781908590935C068093C9
:101A40005B06009711F488EE08950E949C0C80E0DC
:101A50000895109262068091E4058330B1F08430DD
:101A600028F4882331F08130E1F409C08530C9F4CD
:101A700012C0609154067091550680E017C06091C5
:101A800054067091550687E811C060915406709114
:101A9000550681EE0BC0609154067091550689EE93
:101AA00005C0609154067091550685E80E94DA28B9
:101AB0000895909147018091E505891710F490935E
:101AC000E5058091E6059091E705A091E805B091C4
:101AD000E9050197A109B1098093E6059093E7050F
:101AE000A093E805B093E9050097A105B10521F0A1
:101AF0008FEF80934701089585E0809362060895F3
:101B0000809155018F77809355018CE480934E012D
:101B10001092620686E10E94C3099091E505983310
:101B200020F08FEF8093E5050AC08FEF989FC001EA
:101B3000112467E370E00E94CD326093E505809147
:101B4000E5050E94AD2C08950F931F93082F8091F7
:101B50006206882341F0809158068F3011F086E8A4
:101B600046C081E844C0809155018068809355014A
:101B700010E110934F0189E59DE00E943B02109314
:101B80004E0186E00E94C309863051F080915501D4
:101B90008F77809355018CE480934E0185E827C0B0
:101BA00084E0809362061092E50580EC93E0A0E06B
:101BB000B0E004C0880F991FAA1FBB1F0A95D2F777
:101BC00080549C4FAF4FBF4F23E0B695A795979594
:101BD00087952A95D1F78093E6059093E705A09322
:101BE000E805B093E9058FEF8093470180E01F91EE
:101BF0000F910895282F85FD03C0982F9F7304C06F
:101C0000982F91959F719195E0E2F1E08491891769
:101C100034F03F968491981714F0822F0CC0803EC8
:101C20003CF080323CF487FF06C08F71806203C0B5
:101C300080E201C08FE18068089584E080934F06C0
:101C400023E0209356068FEF9FEF909345068093F5
:101C5000440690934806809347068BE08093510694
:101C60001092430680E098EFAFEFB7E080935D06F7
:101C700090935E06A0935F06B09360068AE091E0C1
:101C800090934206809341068AE08093590682E051
:101C90008093500685E0809353062093570683E88F
:101CA0000E94FA0D8093380681E0809346061092D8
:101CB0005206089585FD03C0982F9F7304C0982F86
:101CC00091959F719195E0E2F1E080E02491921767
:101CD00024F029173CF4815008958F5F31968031AC
:101CE000A9F780E00895809144069091450680937D
:101CF000620190936301E9E3F6E0A4E6B1E081912B
:101D00008D9386E0E134F807D1F7809147069091F2
:101D10004806809360019093610190914801809101
:101D200046068295880F80769F79892B809348019B
:101D300090916F01809156068F70907F892B8093D0
:101D40006F0190916E0180915206880F880F880F65
:101D50008870977F892B80936E0190916F0180919D
:101D600053068295807F9F70892B80936F0190919D
:101D70004801809151068F71907E892B8093480194
:101D8000809138060E945A0E909145018F70907F85
:101D9000892B809345010895CF93DF93EB019091B8
:101DA0006206943009F4E4C08E3431F0893541F490
:101DB000888180935706E0C0888180934F06DCC0FD
:101DC000209158062F3011F481E8D7C08B3009F4E8
:101DD000C1C08C3070F4823009F47BC0833018F4B9
:101DE0008823B1F115C0833009F484C0843081F4B4
:101DF0005CC0833511F1843528F48F3459F0803577
:101E000039F410C0873509F458C0803F09F47FC009
:101E100084EFB3C098819093560680916F019F70B4
:101E2000807F53C0888199818093440690934506B2
:101E300080936201909363019FC088819981809310
:101E4000470690934806809360019093610194C087
:101E5000992309F08DC080E098EFAFEFB7E00880DC
:101E600004C0B695A795979587950A94D2F7817087
:101E70009070892B09F47EC0283031F088E00E94F0
:101E8000C3098830D9F726E1988190935106809153
:101E900048019F71807E982B90934801283009F467
:101EA0006BC086E10E94C30967C0992309F060C036
:101EB0008881882309F460C05DC09881909353069F
:101EC00080916F019295907F8F70982B90936F0106
:101ED00053C08881809338060E94FA0D809338069B
:101EE0000E945A0E909145018F70907F892B8093AC
:101EF000450142C0888180934606909148018295B1
:101F0000880F80769F79892B8093480135C088811E
:101F100080933906898180933A068A8180933B06B3
:101F20008B8180933C068C8180933D068D818093CC
:101F30003E068E8180933F068F8180934006E9E3C1
:101F4000F6E0A4E6B1E081918D9386E0E134F807F4
:101F5000D1F712C088818093520690916E01880F4C
:101F6000880F880F8870977F892B80936E0104C03B
:101F700086E803C088EE01C080E0DF91CF9108952C
:101F80000F931F93CF93DF93082F809139018D7F9B
:101F90008093390180EF90E00E943B0480913901E9
:101FA0008E7F8093390181E090E00E943B04809114
:101FB000390181608093390110E084E690E00E944D
:101FC0003B04809141011A3011F485E84DC08F71B6
:101FD000883011F01F5FF1CF8093580680916E0119
:101FE000806280936E0180914C01806880934C01E7
:101FF0008CE480934E0186E00E94C30910924E014A
:10200000C0E0D0E010E080914601CC0FDD1FCC0F86
:10201000DD1F90E08076907025E0969587952A9553
:10202000E1F7C82BD92B1F5F183069F783E00E94B6
:10203000C30980914F0110934F0180E480934F01B9
:1020400080E880934F018CE480934E01CE010E9482
:102050004133002311F00E941D0E0E94730E109256
:1020600062061092490680E0DF91CF911F910F9197
:1020700008950E94C00F882361F085E808958AE4DE
:1020800096E060E070E00E947E09009711F00E94E7
:10209000B40880914E06882391F788E080934F0121
:1020A00080E480934F0184E080934F0180E8809327
:1020B0004F010E943C3380936D0180916E019770B7
:1020C000887F982B90936E0180E00E947B110E9484
:1020D0006C1180E008950F931F93CF93DF930E94BC
:1020E000A603882309F0CDC08091390181608093D7
:1020F0003901809139018D7F809339018CE791E01E
:102100000E943B04809139018E7F8093390181E0E8
:1021100090E00E943B0480913901816080933901F5
:1021200010E084E690E00E943B04809141011A3067
:1021300009F4A7C08F71883011F01F5FF2CF809330
:10214000580680915C01833809F09BC0A0C0C9E3A8
:10215000D6E00E943C33899386E0C134D807C9F7A2
:102160008091390630913A0640913B0660913C06D9
:1021700070913D06F0913E06B0913F0650914006A9
:10218000082F015091E0081708F090E0832F81504C
:1021900021E0831708F020E0192F180F91E018179D
:1021A00008F090E0292B842F815031E0841708F04B
:1021B00030E0A22FA80F91E0A81708F090E0392B8B
:1021C000862F815021E0861708F020E0E32FE80FEA
:1021D00091E0E81708F090E0292B872F815031E03B
:1021E000871708F030E0622F680F91E0681708F059
:1021F00090E0392B8F2F815021E08F1708F020E0DD
:10220000432F480F91E0481708F090E0292B8B2FBF
:10221000815091E08B1708F090E0322F380F21E0C9
:10222000381708F020E0922B5195591779F43F3F69
:1022300069F44F3F59F46F3F49F4EF3F39F4AF3F32
:1022400029F41F3F19F40E3F08F081CF84E691E195
:102250000E9436028CE591E10E94310288E591E10D
:102260000E9440020E94C3088AE90E94BC08909321
:10227000E3058093E2058AE496E00E94E20880E0AC
:1022800001C085E8DF91CF911F910F91089580E003
:1022900090E060E070E048E050E029E336E00E9422
:1022A000400381E00E94C00F882309F459CFE9CF91
:1022B00081E08093610608951F931FB7F8940E94F0
:1022C0007C0C1FBF1F9108951F931FB7F8940E94A5
:1022D0001B0C1FBF1F910895809158068F3011F07D
:1022E00082E8089588E00E94C309883011F085E8EB
:1022F000089580E00895882311F088EE0895809174
:1023000058068F3011F481E8089580916206882381
:1023100071F41092490688E00E94C3098830D9F709
:102320008FE00E94C3098F3011F480E0089586E8A1
:102330000895982F80916206882311F086E8089509
:10234000983039F488E00E94C3091092490688E069
:1023500008958091E2059091E305892B29F086E1AB
:102360000E94C30986E0089581E08093490686E0D3
:102370000895CF93DF93DC019C9111962C911197D6
:1023800080916306882321F4CD010E94B4081AC00D
:10239000E92FF22F9F012F5F3F4F46EE56E088E076
:1023A000EA010990AE01E90109929E018150C1F74D
:1023B0008091F106818783E180838EEF96E0BD01F5
:1023C0000E94E908DF91CF910895DC01ED91FC9125
:1023D000119784E180836383528341838EEF96E07B
:1023E000BD010E94E90808950F931F93DF93CF93D7
:1023F00000D0CDB7DEB7A0918706B0918806ED91E9
:10240000FC91119784E180838BEE83830FEF1FEFA4
:10241000128301838EEF96E0BD010E94E9081092BD
:1024200076061A83098380E5BE016F5F7F4F0E94A5
:102430006A241093BE060093BD061092CB0610923C
:10244000CC061092CD061092CE061092CF061092B6
:10245000D0061092D1061092D2060E94B2220F909E
:102460000F90CF91DF911F910F910895EF92FF92FE
:102470000F931F93E090C706F090C80680E061E0DC
:1024800040E020E030E000E010E00E94CF1B882315
:10249000A9F4A0918706B0918806ED91FC9111975F
:1024A00084E1808381EE83838FEF9FEF928381832A
:1024B0008EEF96E0BD010E94E90819C0A70160E017
:1024C00070E084E0440F551F661F771F8A95D1F78F
:1024D00080E020E030E004EF11E1EE24FF240E94D0
:1024E0007906882321F080E090E00E94F4111F918A
:1024F0000F91FF90EF900895FF920F931F93DF933A
:10250000CF9300D0CDB7DEB7F090F3060E94B408A9
:10251000FF20B1F583E561EF76E00E946A24209107
:10252000F1063091F2068091E6068093CB06809109
:10253000E7068093CC068091E8068093CD068091D3
:10254000E9068093CE068091EA068093CF068091BB
:10255000EB068093D0068091EC068093D1068091A3
:10256000ED068093D20681E08093FA0610927606FB
:1025700080918106833031F582E08093810622C00C
:10258000109276060FEF1FEF1A83098380E5BE01D4
:102590006F5F7F4F0E946A241093BE060093BD06B2
:1025A0001092CB061092CC061092CD061092CE0659
:1025B0001092CF061092D0061092D1061092D20639
:1025C0002FEF3FEFE0918706F0918806A081B1815F
:1025D00084E18C931396FC92139712963C932E935E
:1025E00011978EEF96E0BF010E94E9080E94B22287
:1025F0000F900F90CF91DF911F910F91FF90089551
:102600000F931F93DF93CF93CDB7DEB72C970FB601
:10261000F894DEBF0FBECDBFAC01DE011196FC0108
:10262000808191819C01F9018CE001900D92815093
:10263000E1F7DA010D911C918091FA068250823007
:1026400020F0CA010E94B40856C082E0F8018083DD
:10265000D801AC56BF4FFD0181938A859B851296A8
:102660009C938E9311978C8582839D0128503040D6
:10267000D901E9E3F6E088E001900D928150E1F79D
:10268000F90138979F01BE016E5F7F4F88E0DB0143
:102690000D90BD01D9010D929D018150C1F780912E
:1026A000440690914506929382938091820682938C
:1026B0008F5F8093820683E69CEC929382938BE1FA
:1026C0008293D8011896FC93EE93179716961C9256
:1026D00085E696E0BA010E94E9088091840690910F
:1026E0008506F8019583848381E00E94680488232D
:1026F00011F40E9407202C960FB6F894DEBF0FBE8F
:10270000CDBFCF91DF911F910F910895CF92DF92AE
:10271000EF92FF921F93DF93CF93CDB7DEB72F9742
:102720000FB6F894DEBF0FBECDBFAC017C01DE0159
:102730001196FC01808191819C01F9018FE001904B
:102740000D928150E1F740938706509388068C8163
:10275000823019F48F8198851AC08F818093CB06BF
:1027600088858093CC0689858093CD068A85809361
:10277000CE068B858093CF068C858093D0068D8581
:102780008093D1068E858093D2068EEF9FEF909333
:10279000BE068093BD0680E5BE016B5F7F4F0E9441
:1027A0006A240E948D22D701CD90DC9081E0F60151
:1027B0008083F282E182EA56FF4F80838F85818396
:1027C0009F0128503040D901E9E3F6E088E001900C
:1027D0000D928150E1F7F9018FEF9FEF9293829371
:1027E0008C81823051F48091BD069091BE06929307
:1027F000829345E123E238EC11C0F9013A979F0139
:102800004BEC56E088E0DA010D90AD01D9010D9254
:102810009D018150C1F74BE123E23CEC80914406DD
:1028200090914506929382938091820682938F5F66
:1028300080938206329322934293D6011896FC939A
:10284000EE93179784E0BE016D5F7F4F0E946A246C
:10285000182F80E0BE016E5F7F4F0E946A24112313
:1028600071F4882361F4C60162E070E041E00E94E7
:10287000100D882321F481E08093FB0612C0D7015C
:10288000ED91FC9184E1808381EE83838FEF9FEF54
:10289000928381838EEF96E0B7010E94E9080E943F
:1028A000B2222F960FB6F894DEBF0FBECDBFCF91E8
:1028B000DF911F91FF90EF90DF90CF900895FC0182
:1028C0008091EC058730F0F4A781B08512968C9149
:1028D00012978695869583708230A1F4E091EA057F
:1028E000F091EB053297F093EB05E093EA0516962D
:1028F0008D919C911797918380838091EC058F5FD8
:102900008093EC0580E00895FC018091EC05873010
:10291000F0F40780F085E02D82818695869583709E
:102920008330A9F48091EA059091EB050897909384
:10293000EB058093EA05DC01369688E001900D9264
:102940008150E1F78091EC058F5F8093EC0580E08A
:1029500008959F92AF92BF92CF92DF92EF92FF9233
:102960000F931F93DF93CF9300D000D0CDB7DEB786
:10297000FB01A080B180D50112967C936E931197D4
:102980008AE08C9378E9C72ED12CCA0CDB1C80918D
:102990008306882319F46DE0962E0EC0482F50E070
:1029A000C41AD50A5DE0952E980E29E836E0C601D6
:1029B000B90150E00E944C3380916906882309F4E4
:1029C00042C0D092EB05C092EA051092EC0584E873
:1029D00094E19A83898385E696E07E010894E11C60
:1029E000F11CB7010E9484090091EC051092EC05DE
:1029F0008FE594E19A83898385E696E0B7010E948A
:102A000084092091EC05E091EA05F091EB053197FE
:102A100010E0C80134E0880F991F3A95E1F7822B46
:102A20008083000F111F000F111F020F111D000FD7
:102A3000111F0093EC05900EE02FF0E0E095F0956B
:102A4000EC0DFD1D02C0F6011292DF011E92809175
:102A5000FA06833019F42FEF3FE402C02FEF3FE076
:102A60008091630681113068FD0132932293809139
:102A70004706909148062FEF8E3F920799F4FD018B
:102A80003A9786E0980E9F0149E356E088E0DA0124
:102A90000D90AD01D9010D929D018150C1F720E04B
:102AA00030EC04C09293829320E030E88091440699
:102AB00090914506929382938091800682938F5FD6
:102AC00080938006329322939292D5011896FC93BC
:102AD000EE931797C50162E070E040E00E94100D90
:102AE00081E08093FB060F900F900F900F90CF9195
:102AF000DF911F910F91FF90EF90DF90CF90BF90EB
:102B0000AF909F900895BC0180E00E94A9140895A1
:102B1000FC010190F081E02D62817381818144810B
:102B200025810E94CC3208950F931F938C01DC0104
:102B3000ED91FC9181810E94A901C8010E94B40815
:102B40001F910F9108950F931F938C01DC01ED915C
:102B5000FC91818162810E94E301C8010E94B40856
:102B60001F910F910895AF92BF92CF92DF92EF9293
:102B70000F931F935C01DC01ED91FC9104811581A1
:102B800026813781818162814381E08439966F019A
:102B90000E94B601C5010E94B4081F910F91EF90E9
:102BA000DF90CF90BF90AF9008950F931F938C014B
:102BB000DC01ED91FC9181810E94CB32C8010E9421
:102BC000B4081F910F9108950F931F938C01DC019E
:102BD000ED91FC9181810E94CB01C8010E94B40853
:102BE0001F910F9108950F931F938C01DC01ED91BC
:102BF000FC9181810E94CA32C8010E94B4081F91D1
:102C00000F9108950F931F938C01DC01ED91FC91BE
:102C100021813281438154816581768187819085CC
:102C20000E94C932C8010E94B4081F910F910895F3
:102C30000F931F938C01DC01ED91FC9181816281E6
:102C40003396AF010E94C832C8010E94B4081F9198
:102C50000F910895EF92FF920F937C01DC01ED91AB
:102C6000FC91218132814381548165817681878104
:102C7000908501850E94C732C7010E94B4080F9158
:102C8000FF90EF9008950F931F93DF93CF93CDB7ED
:102C9000DEB72B970FB6F894DEBF0FBECDBF8C0109
:102CA000DC01ED91FC9182818983838194819B83F6
:102CB0008A839E012C5F3F4FAF014B5F5F4F88E0DF
:102CC000DA010D90AD01D9010D929D018150C1F73E
:102CD0008181BE016F5F7F4F0E94C632C8010E9492
:102CE000B4082B960FB6F894DEBF0FBECDBFCF91C0
:102CF000DF911F910F9108950F931F93DF93CF934F
:102D0000CDB7DEB766970FB6F894DEBF0FBECDBF66
:102D10008C01DC01ED91FC91818192819B838A83FE
:102D2000838189839E012C5F3F4FAF014C5F5F4FD2
:102D300088E0DA010D90AD01D9010D929D0181501D
:102D4000C1F7818192819E878D8784858C879E01C2
:102D5000215F3F4FAF01435F5F4F88E0DA010D9085
:102D6000AD01D9010D929D018150C1F7CE010196AF
:102D7000BE01645F7F4F45890E94F200C8010E9436
:102D8000B40866960FB6F894DEBF0FBECDBFCF91E4
:102D9000DF911F910F910895CF92DF92EF92FF92F2
:102DA0000F936C01DC01ED91FC91BF016E5F7F4FD1
:102DB00024893589E788F08C8181438906890E94BE
:102DC000C532C6010E94B4080F91FF90EF90DF90CA
:102DD000CF900895EF92FF920F937C01DC01ED916B
:102DE000FC91218132814381548165817681878183
:102DF000908501850E941601C7010E94B4080F91B9
:102E0000FF90EF9008950F931F938C01DC01ED91DB
:102E1000FC918181928163810E94C432C8010E9429
:102E2000B4081F910F9108950F931F938C01DC013B
:102E3000ED91FC91818162810E94C332C8010E94A0
:102E4000B4081F910F9108950F931F938C01DC011B
:102E5000ED91FC91818162810E94C232C8010E9481
:102E6000B4081F910F910895CF92DF92EF920F93C4
:102E7000DF93CF93CDB7DEB766970FB6F894DEBF7A
:102E80000FBECDBF6C01DC01ED91FC918181898386
:102E9000828193819B838A839E012C5F3F4FAF0188
:102EA0004C5F5F4F88E0DA010D90AD01D9010D92C2
:102EB0009D018150C1F784858C87858596859E8785
:102EC0008D879E01215F3F4FAF01415F5F4F88E0DB
:102ED000DA010D90AD01D9010D929D018150C1F72C
:102EE000228D338DCE010196BE01645F7F4F418DEF
:102EF0000789E08C0E94FA00C6010E94B408669619
:102F00000FB6F894DEBF0FBECDBFCF91DF910F910A
:102F1000EF90DF90CF900895FC0110826181728163
:102F20006115710521F082EC96E00E94E908089590
:102F3000282F8091F1069091F20696FF1BC0222364
:102F400059F42091E4063091E50680914406909171
:102F500045062817390759F02091E4063091E50617
:102F60008091C0069091C1062817390719F48EEE9A
:102F70000E94EF2E08950F931F93CF93DF93282F76
:102F80008091F1069091F20696FFA3C0222359F496
:102F90002091E4063091E506809144069091450623
:102FA0002817390761F02091E4063091E5068091F9
:102FB000C0069091C1062817390709F08AC02091F0
:102FC000E6063091E7068091BD069091BE0628176F
:102FD000390709F47EC09091E6068091CB069817D8
:102FE00059F59091E7068091CC06981729F59091B4
:102FF000E8068091CD069817F9F49091E906809142
:10300000CE069817C9F49091EA068091CF069817DA
:1030100099F49091EB068091D006981769F49091FD
:10302000EC068091D106981739F49091ED068091C5
:10303000D206981709F44DC08AE90E94BC088C0199
:10304000009709F446C0DC012D913C9185E0F9011F
:10305000808312830183E956FF4F8083AF0148507C
:103060005040FA01A9E3B6E088E00D90019281504A
:10307000E1F7FA013897EF01ABECB6E088E00D908C
:1030800009928150E1F78091440690914506929310
:1030900082938091820682938F5F8093820683E67B
:1030A0009CEC9293829388E18293D9011896FC93C9
:1030B000EE931797C90162E070E041E00E94100DA5
:1030C000882321F481E08093FB0603C0C8010E949D
:1030D000B408DF91CF911F910F9108950F931F9323
:1030E000CF93DF93EC01E881F981A781B0857C91D2
:1030F0007093D606FD01E70FF11D81818093EF06E5
:1031000011964D915C9112975093D4064093D3063B
:1031100013968C9113978093D7068D010C5F1F4FE8
:10312000652F6295669566956370352F3695369551
:10313000337019F4F80120E049C014968D919C91E8
:1031400015979093DA068093D906FD0136963230B2
:10315000E1F41092DB061092DC061092DD0610926C
:10316000DE061092DF061092E0061092E106109241
:10317000E20616968D919C9117979093DC068093AA
:10318000DB06FD01389624E021C0333011F022E047
:103190001DC016968C9116978093DB0681818093D3
:1031A000DC0682818093DD0683818093DE06848144
:1031B0008093DF0685818093E00686818093E10617
:1031C00087818093E206FD013E962AE0662309F49A
:1031D00047C046FD08C0819191919093E506809388
:1031E000E4062E5F08C08091D9069091DA0690938C
:1031F000E5068093E4066230C1F41092E606109270
:10320000E7061092E8061092E9061092EA0610927C
:10321000EB061092EC061092ED068081918190935E
:10322000E7068093E6062E5F1BC06330C9F48081F9
:103230008093E60681818093E70682818093E80689
:1032400083818093E90684818093EA068581809357
:10325000EB0686818093EC0687818093ED06285FDC
:10326000972F9550921B9093F0066093E30630934E
:10327000D80643FDCEC1D801A20FB11D842F87709F
:103280008093D506833021F48C918093EE0663C041
:10329000813009F451C0813020F0833009F0B9C188
:1032A0005AC08D919C9111979093F2068093F106EC
:1032B00012968C9112978093F306877011F493E025
:1032C00002C0982F9C5FFD01E90FF11D8081809362
:1032D000F406292F2F5F382F377090E08077907099
:1032E00044E0959587954A95E1F7482F332311F4EB
:1032F000882389F0CD01820F911D9093F60680936B
:10330000F506332311F0330F230F442321F0440F2C
:10331000440F440F240F8091F006281750F4821BAD
:103320008093F706A20FB11DB093F906A093F8069B
:1033300074C11092F70671C1992351F0963718F0B5
:1033400086E78093F006B093F206A093F10665C17C
:103350001092F00662C18091EE068330E1F0843075
:1033600030F48130C1F0823009F053C107C0883099
:1033700008F453C1883009F04CC112C011968D91E8
:103380009C9112979093F2068093F10613968C917C
:103390008093F30642C111968C918093F1063DC152
:1033A00011968D919C9112979093F2068093F1065D
:1033B00013968D919C9114979093F4068093F30645
:1033C00015968C9115978093F50616968D919C9184
:1033D00017979093F7068093F60654FF1EC1189630
:1033E0008C918093F80619C18091D506833061F4E1
:1033F0008091EE06843011F0873031F482EC96E053
:10340000BE010E94E9080FC180917606813009F45F
:10341000EBC0813020F0843008F0FBC0A3C0809165
:103420007F06882309F06AC09091FA06933080F1F4
:10343000933009F0EEC08091D506813009F4E5C0E3
:10344000813010F1833009F0E4C08091EE068430C1
:1034500009F4AFC0853038F4813009F4A0C083305E
:1034600009F0D7C009C0863009F4AEC0863040F0FC
:10347000873009F0CEC0B0C0CE010E94D91DD3C0A4
:103480008EEE0E94EF2EC5C080E00E949817C1C04A
:103490008091D506813009F4B8C0813020F08330A6
:1034A00009F0B7C00CC08091FD06882309F4B1C0B3
:1034B000992309F4AEC080E00E94BB17AAC0809196
:1034C000EE06843009F475C0853038F4813009F493
:1034D00066C0833009F09DC004C0873009F05AC02F
:1034E00009C0CE010E94D91D8091FA06813009F0F1
:1034F0009AC05CC0923009F08CC06EC0833009F174
:10350000843019F0823009F084C08091D506882378
:1035100009F07FC08091FA06833019F481E00E949F
:1035200098178091FD06882341F08091FA0681501A
:10353000823018F481E00E94BB17CE010E948227DE
:1035400072C08091D506833009F063C08091EE0689
:10355000883009F05EC082E00E946D05CE010E94B5
:103560006C2B61C00E94ED268091D506813009F454
:103570004CC0833009F04DC08091EE068430C9F014
:10358000853030F4813059F0833009F042C00BC0EF
:103590008730F1F0883021F18630D9F515C0CE01A1
:1035A0000E94B91140C0CE010E94D91D0E94D523AE
:1035B0003AC080916906882321F0CE010E94921CB6
:1035C00032C00E94741B25C0CE010E9435242BC03E
:1035D0008091FA068230E9F4CE010E94831523C05F
:1035E000CE010E94342F1FC08091D506833059F43C
:1035F0008091EE06823069F480E00E946D05CE0174
:103600000E947C1210C0813021F4CE010E94232040
:103610000AC0CE010E94B40806C08091FB06882330
:1036200009F0E2CEF1CEDF91CF911F910F91089575
:10363000DB01FC018681882399F40780F085E02D69
:103640008281869586958370823051F440E02D9179
:103650003C91868197812817390719F441E001C010
:1036600040E0842F0895DB01FC0186818823C9F5A1
:103670000780F085E02D8281869586958370833062
:1036800081F520E09C918681981761F511969C91B7
:1036900011978781981731F512969C911297808522
:1036A000981701F513969C91139781859817D1F47B
:1036B00014969C91149782859817A1F415969C9165
:1036C00015978385981771F416969C9116978485A3
:1036D000981741F417969C918585981719F421E065
:1036E00001C020E0822F08950F931F93CF93DF93A3
:1036F0008AE90E94BC088C01009709F44BC0DC01E8
:10370000CD91DC918CE088831A8309831E82FE01AF
:10371000E856FF4F8091E306833089F438979F0184
:1037200046EE56E088E0DA010D90AD01D9010D9228
:103730009D018150C1F721E03CE04FE009C080913C
:10374000E6069091E7069293829321E038E049E003
:103750008091E4069091E50692938293809182068F
:1037600082938F5F80938206329322934293F887ED
:10377000EF83F8018081918161E070E040E00E9478
:10378000100D882321F481E08093FB0603C0C8015B
:103790000E94B408DF91CF911F910F9108956F920D
:1037A0007F929F92AF92BF92CF92DF92EF92FF9261
:1037B0000F931F93CF93DF93D82E962EC42E5901CB
:1037C00038018AE90E94BC087C01009709F49BC07B
:1037D000DC010D911C91DD2021F084E0F801808353
:1037E00003C08BE0D8018C93F801F282E182E956A4
:1037F000FF4F84E080832091470630914806C9013D
:103800000296029710F0992069F03897EF01A9E32A
:10381000B6E088E00D9009928150E1F762E183E221
:1038200090EC05C0329322936CE083E290E8CC20C8
:1038300061F020914406309145066216730629F026
:103840006E5F3293229370E002C0806471E022E0E8
:10385000C21641F4AC015860D5018D919C919293B0
:10386000829328C0B3E0CB1661F4AC015C6038975A
:103870006A5FEF01D50188E00D9009928150E1F770
:1038800019C02091BD063091BE064FEF2E3F340780
:1038900029F0AC015860329322930CC0AC015C60FB
:1038A00038976A5FEF01ABECB6E088E00D900992C3
:1038B0008150E1F73297772339F080914406909157
:1038C00045069183808302C0718260828091820666
:1038D00082938F5F80938206529342936293D801C2
:1038E0001896FC93EE931797C80162E070E041E0F0
:1038F0000E94100D882321F481E08093FB0604C010
:10390000C7010E94B40880E0DF91CF911F910F9111
:10391000FF90EF90DF90CF90BF90AF909F907F90FF
:103920006F900895EF92FF920F931F93DF93CF93C1
:1039300000D000D0CDB7DEB70E94B4088091FA065F
:10394000823008F453C08091E306823019F488E194
:103950009BE105C0833009F049C083E39BE19A8372
:10396000898386EE96E09C838B8385E696E07E01D4
:103970000894E11CF11CB7010E948409DC01009746
:1039800081F00D911C911197F8018781908520910C
:10399000E4063091E506FC018481958128173907FA
:1039A00019F00E94741B22C081E0F8018683B28363
:1039B000A18385E696E0B7010E948409892B41F036
:1039C000D8011796ED91FC911897818180618183D0
:1039D000C80161E070E040E00E94100D882321F4EE
:1039E00081E08093FB0602C0F80116820F900F90D1
:1039F0000F900F90CF91DF911F910F91FF90EF905B
:103A00000895EF92FF920F931F93CF93DF937C0162
:103A1000E801DC01ED91FC9186E1808361834283C2
:103A200034832383CF010596423069F415821682D0
:103A300017821086118612861386148688819981D2
:103A40009683858307C0DC01F80188E001900D9220
:103A50008150E1F78EEF96E0B7010E94E908DF910F
:103A6000CF911F910F91FF90EF9008950F931F93A7
:103A7000DF93CF93CDB7DEB728970FB6F894DEBFAC
:103A80000FBECDBFDC01ED91FC91119719821A8216
:103A90001B821C821D821E821F8218860780F08571
:103AA000E02D4281469546954370842F82508230A6
:103AB00080F48681898387818A8380858B83818551
:103AC0008C8382858D8383858E8384858F83858592
:103AD00088878091FA06833049F42091440630911A
:103AE00045068E010F5F1F4FCD0156C0823009F091
:103AF0003FC0423051F4268137818091BD069091BC
:103B0000BE062817390759F533C0433041F5968171
:103B10008091CB06981719F597818091CC0698175C
:103B2000F1F490858091CD069817C9F49185809124
:103B3000CE069817A1F492858091CF06981779F454
:103B400093858091D006981751F494858091D10681
:103B5000981729F495858091D206981749F02091FD
:103B6000440630914506CD018E010F5F1F4F14C0F2
:103B70008091470690914806029620914406309124
:103B80004506029728F4CD0143E009E316E004C09E
:103B9000CD0142E007E416E00E94011D28960FB611
:103BA000F894DEBF0FBECDBFCF91DF911F910F9173
:103BB0000895CF93DF939C01FC01C081D181FE0168
:103BC00085E18193A6EEB6E088E00D9001928150E8
:103BD000E1F78091F10689878EEF96E0B9010E94A6
:103BE000E9081092CB061092CC061092CD061092E6
:103BF000CE061092CF061092D0061092D1061092E7
:103C0000D2068FEF9FEF9093BE068093BD06DF91A3
:103C1000CF910895EF92FF920F931F93DF93CF936D
:103C2000CDB7DEB72E970FB6F894DEBF0FBECDBF6F
:103C30008C01DC01ED90FC90DE011196F7018EE025
:103C400001900D928150E1F7F7011283018383E027
:103C50008083EA56FF4F80838D85818338979F014B
:103C600049E356E088E0DA010D90AD01D9010D92EB
:103C70009D018150C1F78A81823031F48D819E810E
:103C80009293829333E10FC038979F01AE014B5F4F
:103C90005F4F88E0DA010D90AD01D9010D929D01D1
:103CA0008150C1F739E18091440690914506929385
:103CB00082938091820682938F5F809382062A810D
:103CC000922F990F990F80E08366906C9293829364
:103CD0003293D7011896FC93EE93179716961C9281
:103CE0008091FA068250823008F060C08E85882369
:103CF00009F45CC08A818230D1F48D818B3409F063
:103D000041C08E818823F1F58F818823D9F588857C
:103D10008823C1F589858823A9F58A85882391F5AB
:103D20008B85882379F58C85882361F55BC083308A
:103D300009F058C09D818091CB06981719F59E8196
:103D40008091CC069817F1F49F818091CD06981749
:103D5000C9F498858091CE069817A1F49985809131
:103D6000CF06981779F49A858091D006981751F468
:103D70009B858091D106981729F49C858091D20665
:103D8000981781F185E696E0B8010E94E9088091D4
:103D9000840690918506F7019583848381E00E94D3
:103DA00068048823F9F40E9407201CC00E948D2219
:103DB000D8018D919C9162E070E041E00E94100D6D
:103DC000882321F481E08093FB060CC02B813C8189
:103DD000C80161EE4A818E010B5F1F4F0E94011DD9
:103DE0000E94B2222E960FB6F894DEBF0FBECDBF52
:103DF000CF91DF911F910F91FF90EF900895DC011B
:103E0000ED91FC911197E081E43278F4F0E0EE0F4F
:103E1000FF1FE05DFE4F259134912115310519F00A
:103E2000F901099508950E94B40808951F9380919F
:103E3000FB06882381F480917E06882361F08AE75F
:103E400096E060E070E00E947E09009721F00E94F9
:103E5000FF1E11E001C010E08091C606882359F0D2
:103E600082EC96E060E070E00E947E09009719F015
:103E70000E94FF1E11E0812F1F910895FC01868191
:103E8000882329F48481958101979583848380E038
:103E90000895FC018681882311F020E006C020E00F
:103EA00084819581892B09F421E0822F0895FB01FB
:103EB00020E0DC0113969C918081981709F421E0A1
:103EC000822F0895DC01ED91FC91119780E18083B0
:103ED000418362838EEF96E0BD010E94E908089558
:103EE000EF92FF920F931F93DF93CF9300D000D0F8
:103EF0000F92CDB7DEB77C01FC0100811181F80182
:103F0000918182E18083998387E59FE19B838A8306
:103F1000CE0101969D838C8385E696E0BE016E5F9F
:103F20007F4F0E947E09009729F00E94B408F80193
:103F3000128203C087EEF80182838EEF96E0B7010C
:103F40000E94E9080F900F900F900F900F90CF9163
:103F5000DF911F910F91FF90EF900895FF920F93C3
:103F60001F93DF93CF9300D000D0CDB7DEB78EE3A1
:103F70009FE19A83898385E696E08E010F5F1F4F4C
:103F8000B8010E94840989E49FE19A838983F02E15
:103F9000012F10E185E696E06F2D702F0E947E09BB
:103FA000DC01009721F19C9111962C911197E92F3A
:103FB000F22F8081833049F08D3061F0823051F7EB
:103FC00080EFBD010E94BD22E5CFCD0160EF0E94D0
:103FD000361DE0CF8381E92FF22F1083818380EF9C
:103FE00082838EEF96E0BD010E94E908D3CF8091D5
:103FF0006906882311F00E9407200F900F900F9000
:104000000F90CF91DF911F910F91FF900895EF9244
:10401000FF920F931F9381E040E050EE61E070E06B
:1040200020E030E00EEA1FE1EE24FF240E94790632
:10403000882321F080E090E00E94AE1F1F910F9135
:10404000FF90EF9008950F931F93DF93CF93CDB719
:10405000DEB728970FB6F894DEBF0FBECDBFAC0118
:10406000DC019C9111962C918091F006882321F41B
:10407000CA010E94B40813C1E92FF22F8091D7061C
:10408000808F2091E30621838091E4069091E506DC
:1040900093838283822F8250823010F5148215829E
:1040A000168217821086118612861386223039F402
:1040B0008091E6069091E706958384831BC02330A8
:1040C000C9F49F012C5F3F4F66EE76E088E0DB018C
:1040D0000D90BD01D9010D929D018150C1F70AC01B
:1040E000138212821482158216821782108611861C
:1040F00012861386208D80916406281761F59481BD
:1041000080916C06981739F5958180916D06981706
:1041100011F5968180916E069817E9F49781809148
:104120006F069817C1F4908580917006981799F4DE
:10413000918580917106981771F49285809172062D
:10414000981749F4938580917306981721F4CA0152
:104150000E94B4085AC020936406848180936C0640
:10416000858180936D06868180936E06878180931A
:104170006F068085809370068185809371068285A5
:10418000809372068385809373062091D8062487D6
:104190001786108A118A128A138A148A158A168A37
:1041A0008091D9069091DA0696878587233079F435
:1041B0009F01215F3F4F6BED76E088E0DB010D90C2
:1041C000BD01D9010D929D018150C1F70BC0223074
:1041D00039F48091DB069091DC06908B878702C0D2
:1041E000168615868091EF06878B8091F006818F69
:1041F0008091F1069091F206938F828F81E1808306
:104200008EEF96E0BA010E94E9088091D30684FF00
:1042100046C08091FA06833009F443C08091E306DA
:10422000823071F48091E6069091E7069A83898343
:104230000091E4061091E50680E060E042E021C0D4
:10424000833019F58091E60689838091E7068A8399
:104250008091E8068B838091E9068C838091EA0641
:104260008D838091EB068E838091EC068F83809105
:10427000ED0688870091E4061091E50680E060E095
:1042800043E09E012F5F3F4F07C080E060E040E0C9
:1042900020E030E000E010E00E94CF1B02C00E944E
:1042A000B22228960FB6F894DEBF0FBECDBFCF91D5
:1042B000DF911F910F910895CF92DF92EF92FF92BD
:1042C0000F931F93DF93CF93CDB7DEB762970FB6EF
:1042D000F894DEBF0FBECDBF8C01DE011196FC014C
:1042E000808191819C01F90182E101900D928150C0
:1042F000E1F78F8582FD11C080917606882321F435
:1043000080917F06882349F09E85D801ED91FC912C
:1043100080E18083918381EEAEC0F801E080F1807E
:104320008DE0D7018C938E8513968C9313971696F8
:104330001C92888945E0D42ED80EE8E9F0E0E81B0D
:10434000F109EE0DFF1D9A81923051F437E0D32E22
:10435000D80E80914706909148069293829312C09E
:10436000933081F438972DE0D22ED80E9F0149E387
:1043700056E088E0DA010D90AD01D9010D929D0162
:104380008150C1F720914406309145068C819D8172
:104390002817390749F48A81882331F08B818823D3
:1043A00019F040E450E009C08A81882321F0B2E08E
:1043B000DB0E3293229340E050E08B81882311F191
:1043C000823039F46D2D6E5F8E819F81929382933E
:1043D00012C038976D2D685F9F0196E0C92ED12CD1
:1043E000CC0EDD1E88E0D6010D906D01D9010D9235
:1043F0009D018150C1F782E0D82ED60E8C819D811F
:10440000929382938091820682938F5F809382063B
:10441000BA0161608F8580FF02C0BA01616288893C
:10442000873608F070618B81382F330F330F20E00F
:104430004A81942F9295990F990F907C80E0282BB8
:10444000392B262B372B329322933296D7FC0BC075
:104450003397D082D7011896FC93EE9317978F85E8
:1044600082FD10C028C09E85D801ED91FC9180E1AD
:104470008083918385EE82838EEF96E0B8010E945F
:10448000E9083CC08091FA0682508230A0F485E6AB
:1044900096E0B8010E94E908809184069091850613
:1044A000F7019583848381E00E946804882331F5B5
:1044B0000E94072023C00E948D22D70112961C93D0
:1044C0000E931197C70162E070E041E00E94100D69
:1044D000882321F481E08093FB0610C09E85D801DB
:1044E000ED91FC9180E18083918381EE82838EEF58
:1044F00096E0B8010E94E9080E94B22262960FB6C7
:10450000F894DEBF0FBECDBFCF91DF911F910F9109
:10451000FF90EF90DF90CF9008958091FC0681305E
:1045200051F40E946C11853831F081E090E00E94D6
:1045300004041092FC0608958091FC06882389F4F7
:1045400080E090E00E94040480E00E947B118823B8
:1045500021F481E08093FC06089581E090E00E94C0
:104560000404089580916A06882331F48091BF067F
:10457000882311F40E949C220895DF93CF93CDB736
:10458000DEB728970FB6F894DEBF0FBECDBF482F19
:104590009B01DB01ED91FC910780F085E02DDE01B0
:1045A0001196369688E001900D928150E1F7D9017D
:1045B000ED91FC918CE180838091440690914506B9
:1045C0009283818393E093838091390684838091E1
:1045D0003A06858380913B06868380913C068783DB
:1045E00080913D06808780913E06818780913F06BD
:1045F00082878091400683879487898185878A8115
:1046000086878B8187878C81808B8D81818B8E8142
:10461000828B8F81838B8885848B458B8EEF96E090
:10462000B9010E94E90828960FB6F894DEBF0FBEC4
:10463000CDBFCF91DF9108950F931F93182F109244
:10464000FB061092FA061092FC0610927F0610925A
:10465000810610927606109264068FEF80936C06A6
:1046600080936D0680936E0680936F06809370062C
:104670008093710680937206809373061092BF0632
:1046800088E00E9499110FB7F89480E00E946D05B0
:1046900081E00E946D0582E00E946D0583E00E942A
:1046A0006D050FBF112309F440C01092FD0682EC86
:1046B00097E0909379068093780680E098E790934E
:1046C000C8068093C7061092750610926306109272
:1046D00083060E943C338093800684EF91E09093A0
:1046E00085068093840681E08093770686E0809338
:1046F0006B061092CB061092CC061092CD0610924B
:10470000CE061092CF061092D0061092D1061092CB
:10471000D2068FEF9FEF9093BE068093BD060E9456
:104720003C338093820610926A061F910F91089580
:104730000F931F93CF93DF93EC01088119810E949F
:104740008D22F801018180E090E00E94040480E065
:10475000011181E00E943910182F81E090E00E9441
:104760000404802F0E941C230E94B2228AE796E054
:104770000E948A0982EC96E00E948A098EEF96E0F8
:104780000E948A0985E696E00E948A09E881F981FB
:10479000118380E280838EEF96E0BE010E94E908DB
:1047A000DF91CF911F910F910895DF93CF9300D0A8
:1047B00000D0CDB7DEB70E948D228FEF9FEF9A8396
:1047C00089839C838B8383E5BE016F5F7F4F0E944B
:1047D0006A2480E5BE016D5F7F4F0E946A2481E0FC
:1047E0000E941C230E94B2220F900F900F900F90F6
:1047F000CF91DF9108950E946B108823B9F40E9435
:104800003808882399F081E00E941C230E94B2227C
:104810008AE796E00E94E20882EC96E00E94E208B5
:1048200085E696E00E94E20880E0089585E8089514
:10483000FF920F931F93182FF92E40914406509129
:10484000450689E0612F792F20915106009143069A
:104850000E94692F882329F481EE612F7F2D0E9409
:10486000BD221F910F91FF900895CF93DF93EC012C
:10487000E881F9818AE18193A6EEB6E088E00D90A7
:1048800001928150E1F78EEF96E0BE010E94E908A7
:10489000DF91CF910895E82F853419F48091830634
:1048A0000895883030F4E82FF0E0E858FE4F849106
:1048B00008958054803228F4F0E0E05CFE4F84914B
:1048C0000895E03F10F480E00895F0E0E055FF4FD8
:1048D000849108951F93CF93DF93182FEB0180915C
:1048E000FC06813051F40E948D22812FBE010E946E
:1048F000CC0E182F0E94B22204C0812F0E94CC0E31
:10490000182F812FDF91CF911F9108950F931F933F
:10491000CF93DF938C01FC01C081D181BE016D5F1B
:104920007F4F89818B3409F4A4C08C3478F58630AC
:1049300009F475C0873098F4823009F4D0C0833010
:1049400038F4882309F4BBC0813009F048C0BAC0EC
:10495000843009F45CC0853008F05CC0C3C0853485
:1049600009F469C0863448F4813409F461C08234A2
:1049700009F45BC0873099F555C0893409F468C0E3
:104980008A3408F06DC0863451F55FC0853509F46E
:1049900062C08635A0F48F3409F476C0803530F4D7
:1049A0008C3409F46BC08E34D1F46BC0823509F4B9
:1049B00073C0833509F473C0803589F468C08935C4
:1049C000D9F08A3528F4873579F0883580F409C024
:1049D0008D35D1F0803F09F469C08A3581F094EFBC
:1049E00085C08091FD0680C0809153067DC0809176
:1049F00078069091790657C08091570675C08091CE
:104A0000C7069091C8064FC0809175066DC0809111
:104A100043066AC0809141069091420644C080914D
:104A2000590662C0809150065FC0809177065CC0D5
:104A30008091630659C04091830629E836E0CB0196
:104A4000B90150E00E944C3350C0809183064CC0A5
:104A50008091800649C0809184069091850623C08C
:104A6000DB01EBECF6E088E001900D928150E1F77C
:104A70003CC08091BD069091BE0615C08091820613
:104A800033C080914F0630C0809156062DC0809172
:104A900044069091450607C080916A0625C0809122
:104AA0004706909148069C838B831FC0DB01E9E396
:104AB000F6E088E001900D928150E1F716C08091F8
:104AC000510612C080915D0690915E06A0915F062E
:104AD000B09160068B839C83AD83BE8306C08091BA
:104AE000380602C0809146068B8390E089818A83D4
:104AF0008EE1888399838EEF96E0B8010E94E908E1
:104B0000DF91CF911F910F910895FF920F931F9303
:104B1000CF93DF93182FEB01F42E8B3409F49BC055
:104B20008C3440F5833409F4B1C0843478F4853092
:104B300038F4823008F0AAC0882309F4A7C03EC028
:104B4000813409F453C08234C9F548C0863409F46D
:104B50005AC0873430F4843409F444C0853471F584
:104B600049C0893409F453C08A3408F05BC08734E3
:104B700029F58CC0853509F44EC0863570F4813531
:104B800030F48E3408F082C08C34C1F46BC08235AE
:104B900009F46CC0823590F079C08835A9F0893568
:104BA00028F4863569F0873549F470C08A3579F084
:104BB0008A3508F46BC0803F09F468C004EFC7C0B1
:104BC00088818093FD06C2C088819981BBC088819D
:104BD00099819093C8068093C706B8C08881809356
:104BE0007706B4C0888180936B06B0C088818093BB
:104BF0006306ACC029E836E040918306C90150E065
:104C00000E944C33A3C08881809383069FC0888113
:104C1000809380069BC088819981909385068093BC
:104C2000840694C088818093CB0689818093CC06CA
:104C30008A818093CD068B818093CE068C81809370
:104C4000CF068D818093D0068E818093D1068F818F
:104C50008093D2067BC0888199819093BE06809311
:104C6000BD0674C088818093820670C0688161111E
:104C700061E060936A06662331F00E948D2286E02F
:104C80000E94991163C00E94B22260C0812FBE01B0
:104C90000E94CC0E082F813871F40E946C11812F74
:104CA000BE010E94CC0E082F882309F050C081E07D
:104CB0008093ED0503C0882309F049C080914F0619
:104CC000282F30E080915306482F50E0609156061F
:104CD000CA01861B9109281739070CF4C901A82FAE
:104CE000281B310981E090E002C0880F991F4A9586
:104CF000E2F70197289FA001299F500D389F500D82
:104D0000112420E030E070E0E1E0F0E00DC0C901E6
:104D1000860F971FEF0102C0CC0FDD1F8A95E2F7C7
:104D20004C0F5D1F2F5F3F4F2A1788F384E190E0FF
:104D30009C01429FC001439F900D529F900D1124F2
:104D4000865F9E4F909379068093780600E0FF205F
:104D500049F08091ED05882329F080E00E947B11C5
:104D60001092ED05802FDF91CF911F910F91FF9051
:104D70000895EF92FF920F931F937C01FC01008135
:104D80001181B8016E5F7F4FF801818141E00E947F
:104D90008525F801918192839FE1908381838EEF35
:104DA00096E0B7010E94E9081F910F91FF90EF90E4
:104DB0000895CF93DF93EC01E881F98183E280834A
:104DC0006183662311F00E94B2228EEF96E0BE014D
:104DD0000E94E908DF91CF9108958091D50688233C
:104DE000E1F080E00E946D058091D506813031F4BC
:104DF0008091F006882311F060E001C06BEE809195
:104E00007606823031F480918706909188060E9460
:104E1000D9261092FB0610927606089580917606A8
:104E2000823039F480918706909188066BEE0E945B
:104E3000D926109276061092FB060895CF92DF9243
:104E4000EF92FF920F931F93DF93CF93CDB7DEB70F
:104E500028970FB6F894DEBF0FBECDBFD82EC92E4F
:104E6000809176068823D1F58091FA068330B1F1DE
:104E700080917F06882391F50E948D22ED2CFC2CD9
:104E8000D701ED91FC9181819F012C5F3F4F8230D2
:104E900031F4848195819A83898342E00DC0AE010B
:104EA0004F5F5F4F88E0D9010D909D01DA010D92AF
:104EB000AD018150C1F743E00281138181E060E0E0
:104EC0009E012F5F3F4F0E94CF1B882329F0D09275
:104ED0008706C092880607C0C70102C08D2D9C2D91
:104EE00061EE0E94D92628960FB6F894DEBF0FBE59
:104EF000CDBFCF91DF911F910F91FF90EF90DF9089
:104F0000CF9008955F926F927F928F929F92AF920F
:104F1000BF92CF92DF92EF92FF920F931F93DF9396
:104F2000CF93CDB7DEB761970FB6F894DEBF0FBE53
:104F3000CDBFBC0140917F06423011F0443069F48E
:104F400080917706882349F0E0918706F0918806E2
:104F500020813181D901199604C0A0E0B0E020E0A1
:104F600030E05091E30659830091E4061091E50684
:104F70001B830A83523069F41E821F8218861986A9
:104F80001A861B868091E6069091E7069D838C83A6
:104F900018C08091E6068C838091E7068D8380910E
:104FA000E8068E838091E9068F838091EA068887E0
:104FB0008091EB0689878091EC068A878091ED06C7
:104FC0008B87909051069C86B0904306BD86809159
:104FD000F1069091F2069F878E87188A8091F306DA
:104FE00087FF02C081E0888B8091EF06898B423079
:104FF00019F0443009F06FC080917706882309F4D6
:105000006AC0F901F084EC81FD815C806D807E8056
:105010008F80A884C984DA84EB8440E049C011966B
:105020008D919C9112970817190709F03FC08C9138
:105030005817E1F51B968C911B979816B9F51C969D
:105040008C911C97B81691F5523041F413968D91BE
:105050009C911497E817F90749F53DC013968C9178
:105060001397851519F514968C9114978615F1F4FC
:1050700015968C9115978715C9F416968C911697ED
:105080008815A1F417968C9117978A1579F41896BC
:105090008C9118978C1551F419968C9119978D1540
:1050A00029F41A968C911A978E15A9F04F5F519694
:1050B0004F1508F4B4CF59C0FD01DE01119681E10E
:1050C0000D9001928150E1F7D90118968C911897B3
:1050D0008F5F18968C939091F4068091F706882341
:1050E00021F4809177068823E1F5DB01ED91FC91B5
:1050F00087E180838091D70681839F012E5F3F4F98
:10510000AE014F5F5F4F81E1DA010D90AD01D90132
:105110000D929D018150C1F78091F406838B892FF8
:10512000877059F4892F90E08077907024E09595EE
:1051300087952A95E1F7882331F08091F5069091C3
:10514000F606958B848B8091F706868B8091F80606
:105150009091F906908F878B8EEF96E00E94E90878
:1051600009C0CB010E94B40805C0E4E0EF1508F4C3
:10517000B2CFA2CF61960FB6F894DEBF0FBECDBFFF
:10518000CF91DF911F910F91FF90EF90DF90CF9023
:10519000BF90AF909F908F907F906F905F90089599
:1051A000FB0140E0208131812817390709F441E0F3
:1051B000842F0895EF92FF920F931F93DF93CF9365
:1051C00000D000D0CDB7DEB7F82E8B011092FB06D1
:1051D00080917F06823029F4FB018081873059F469
:1051E00006C0833041F4FB018081863021F48F2D8D
:1051F0000E94CC2D2CC1F8018081883009F419C19E
:10520000893098F4833009F445C0843038F4813013
:1052100009F468C0823009F018C1E4C0843009F490
:1052200090C0853009F011C1FBC08B3009F489C0F2
:105230008C3038F4893009F4ECC08A3009F005C1AB
:10524000FFC08C3009F4FCC08D3009F0FEC0F801BD
:1052500086818823B9F01682FF2021F0F7E8FF1637
:1052600009F0F3C080ED98E29A838983F801818187
:1052700092819C838B8385E696E0BE016F5F7F4FB2
:105280000E947E09F801818192816F2D43810E94E5
:10529000621FDBC0F80186818823B1F01682FF20EF
:1052A00019F0F7E8FF16B1F480ED98E29A8389834C
:1052B000F801818192819C838B8385E696E0BE0113
:1052C0006F5F7F4F0E947E09F801818192816F2D6F
:1052D0000E94361D8091FA06813009F0B6C00E9406
:1052E000D523B3C0F9EEFF1619F091EEF91649F483
:1052F000F801818192816F2D4FEF5FEF0E94E511E0
:10530000A4C0809376064091C7065091C80660E01D
:1053100070E094E0440F551F661F771F9A95D1F7F0
:1053200080E020E030E006E312E1EE24FF240E945A
:105330007906882309F48BC080E090E00E94361241
:1053400086C0F801818192810E94B408809176061E
:10535000813009F47CC0F80180818430C1F4F7E821
:10536000FF1699F0E0918706F09188060190F08190
:10537000E02D83E28083F182609187067091880638
:105380008EEF96E00E94E90860C082E009C089EED5
:10539000F81609F45AC091EEF91609F456C083E0E4
:1053A00080937606409178065091790660E070E02F
:1053B00084E0440F551F661F771F8A95D1F780E060
:1053C00020E030E00EE017E2EE24FF240E94790690
:1053D00091E09093FB068823D1F180E090E00E9459
:1053E0000E2735C0F8011682FF2019F0F7E8FF16E6
:1053F00061F580ED98E29A838983F8018181928139
:105400009C838B8385E696E0BE016F5F7F4F0E9491
:105410007E09F801618172818F2D0E94BD2215C025
:10542000F801818192810E94B4088EEE0E94EF2ED5
:105430000CC0F801618172818F2D0E94272E05C05A
:10544000F801818192810E94B4080E94B2220F90DB
:105450000F900F900F90CF91DF911F910F91FF90C0
:10546000EF900895EF92FF920F931F931092BF0653
:1054700080916A068823C9F48091FC068823A9F4E8
:1054800088E00E949911883071F083E040E850E094
:1054900060E070E020E030E002E31AE2EE24FF2456
:1054A0000E94790602C00E94B2221F910F91FF90C4
:1054B000EF900895DF92EF92FF920F931F93CF9397
:1054C000DF93EC01E881F981E680F78000851185A2
:1054D000E114F1040105110539F480E090E00E9427
:1054E000322AE881F98147C0809176068823F1F558
:1054F00080917F068823D1F50E948D2286E00E944C
:105500009911D82E81E08093BF0683E00E94680441
:10551000882319F083E00E946D0584E0EE0CFF1CE7
:10552000001F111F8A95D1F783E0B801A70120E081
:1055300030E002E31AE2EE24FF240E947906882379
:1055400081F0E881F98181E2808388EE81838EEFAA
:1055500096E0BE010E94E90880E090E00E94322AB5
:1055600012C0E881F98186E0D81629F081E28083B3
:1055700082EF818303C081E2808311828EEF96E007
:10558000BE010E94E908DF91CF911F910F91FF901A
:10559000EF90DF900895BC018EEF96E00E94E9083D
:1055A000809174068093F40584E064EF75E00E94B6
:1055B0006A24809186068093F30580E063EF75E0AE
:1055C0000E946A2410927F060E94B2220895CF930F
:1055D000DF93E091C906F091CA06C081D181DE0156
:1055E000A956BF4FFA83E983882339F087E088837F
:1055F0008C934AE023E038E013C086E088838C93E4
:1056000018979D0149E356E088E0FA010190AF0147
:10561000F90101929F018150C1F742E123E438EC86
:10562000FD018FEF9FEF9293829332979183808356
:105630001597809182068C938F5F809382063E93AC
:105640002E93FD014293F887EF83CE0162E070E074
:1056500040E00E94100D882311F080E003C081E03B
:105660008093FB06DF91CF9108951F93DF93CF9333
:105670000F92CDB7DEB710917F06123069F013306C
:10568000A1F0113021F58823E9F41093FB068091F5
:10569000F5050E94A40D1BC08823A1F481E00E949F
:1056A000E72A8823A1F4198308C0882359F40E94AB
:1056B000E72A882361F482E08983CE0101960E9463
:1056C000792C05C08091F3058F5F8093F3050F90CF
:1056D000CF91DF911F9108950F931F938C018091BB
:1056E000C9069091CA060E94B4081092CA06109288
:1056F000C906A0918706B0918806ED91FC9111979B
:105700008BE18083118283E082831482158216826A
:10571000178210868EEF96E0BD010E94E908109274
:105720007F060E94B222C8010E94B40880E561EFA2
:1057300076E00E946A248091F6069091F7068F5FCA
:105740009F4F29F083E566EF76E00E946A248091FE
:10575000F3069091F4069093BE068093BD06809167
:10576000D3069091D40694FF05C084E068EF76E0FC
:105770000E946A2480E065EF76E00E946A240E941D
:10578000352B1F910F910895EF92FF921F93CF93A6
:10579000DF93182F7B01FB01C081D18184E064EF8E
:1057A00075E00E946A2440917F065091770620910F
:1057B000F30551C0423011F0443031F4552321F04B
:1057C0008885853008F04AC0133021F48885882305
:1057D00009F072C0322F3F5F8C819D81AE81BF8105
:1057E000022E04C0B695A795979587950A94D2F78F
:1057F00081709070892B71F12093F305113021F4A1
:1058000082E080937F0604C0133011F410937F066A
:1058100080E063EF75E00E946A24182F8823B1F0BE
:105820008091C9069091CA060E94B4081092CA06D7
:105830001092C9060E94B2228AEE898318868EEFE2
:1058400096E0B7010E94E90810927F06812F0E941E
:10585000352B49C0232F2B3108F4ACCF2093F3050F
:10586000113039F0113018F01330E9F527C01982E2
:1058700037C08091C9069091CA060E94B408109260
:10588000CA061092C90680917706882339F0888568
:10589000853010F08AEF05C0882311F0198202C00C
:1058A0008AEE898380E560EC76E00E946A2480912C
:1058B00087069091880615C02093F3058091C9064C
:1058C0009091CA060E94B4081092CA061092C906A6
:1058D0008885882311F0198202C08AEE8983188690
:1058E000C7010E94CB2ADF91CF911F91FF90EF90CB
:1058F0000895CF93DF93C0918706D0918806988151
:10590000298180917F068250833020F5E92FF22F84
:1059100021E030E040E050E00090F30504C0220FA9
:10592000331F441F551F0A94D2F720953095409598
:10593000509584819581A681B78182239323A423E6
:10594000B52384839583A683B7838091EE05BE013A
:105950000E94C42BDF91CF9108951092FB066091B5
:10596000870670918806DB01ED91FC919085DF013F
:10597000A90FB11D19968C93199780858F5F808729
:105980001A961C9221E030E040E050E00090F305D0
:1059900004C0220F331F441F551F0A94D2F72095CD
:1059A00030954095509584819581A681B781822359
:1059B0009323A423B52384839583A683B78380E0B0
:1059C0000E94C42B0895CF92DF92EF92FF920F9323
:1059D0001F93DF93CF9300D0CDB7DEB7D82EC92E5B
:1059E000082F192FD801ED91FC91809151068093D9
:1059F0008606809143068093740686818093F50520
:105A000081818093EE0582819381A481B581809309
:105A1000EF059093F005A093F105B093F20527816F
:105A20002093F405D0928706C09288068BE180838C
:105A30008091EE0582838091EF059091F005A09111
:105A4000F105B091F20584839583A683B783238300
:105A50001086118680917606882321F480917F0636
:105A6000882341F088EE81838EEF96E0B8010E9492
:105A7000E90887C00E948D22F801E080F1808BE068
:105A80008093F3058091EE05833018F4813070F433
:105A900004C0833009F06AC054C0D7011A961C9222
:105AA00081E080937F0680E0B8015DC08FEF9FEFBB
:105AB0009A83898380914406909145069093C1060C
:105AC0008093C00680E5BE016F5F7F4F0E946A240D
:105AD0008091EE05813021F4D092C906C092CA06A9
