:100000000C9490000C94AF000C94AF000C94AF00D3
:100010000C94AF000C94AF000C94E6070C94AF0066
:100020000C94AF000C94AF000C94AF000C94AF0094
:100030000C94AF000C94AF000C94AF000C94AF0084
:100040000C94AF000C94AF000C94AF000C94AF0074
:100050000C94AF000C94AF000C94AF000C94AF0064
:100060000C94AF000C94AF000C94AF000C94AF0054
:100070000C94AF000C94AF000C94AF000C94AF0044
:100080000C94AF000C94AF000C94AF000C94AF0034
:100090000C94AF000C94AF000C94AF000C94AF0024
:1000A0000C94AF000C94AF000C94AF000C94AF0014
:1000B0000C94AF000C94AF000C94AF000C94AF0004
:1000C0000C94AF000C94AF000C94AF000C94AF00F4
:1000D0000C94AF000C94AF000C94AF000C94AF00E4
:1000E0000C94AF000C943F020C944F020C942F021E
:1000F0000C9496010C94C9010C945F020C9463015A
:100100000C94FC010C9423050C9433050C94AF0063
:100110000C94AF000C94AF000C947F020C946F020F
:1001200011241FBECFEFD1E4DEBFCDBF12E0A0E0AF
:10013000B2E0ECE5F0E100E00BBF02C007900D92E9
:10014000A030B107D9F712E0A0E0B2E001C01D92E3
:10015000A930B107E1F70E94B1000C942C080C946F
:100160000000DF93CF93CDB7DEB70E94DB000E9483
:10017000FE00FDCFDF93CF930F92CDB7DEB780E0C7
:1001800090E00E948207009769F4809100028F5FDF
:100190008093000280910002803130F010920002C2
:1001A000198204C01092000281E0898389810F9036
:1001B000CF91DF910895DF93CF93CDB7DEB70E9443
:1001C0008F020E9490060E946D0780E090E060E040
:1001D00070E00E94C10681E090E061E070E00E9462
:1001E000C1060E94F600CF91DF910895DF93CF936F
:1001F000CDB7DEB77894CF91DF910895DF93CF9399
:10020000CDB7DEB70E94BA00882391F480E090E079
:100210000E9482070097D1F380E090E062E070E0F6
:100220000E94C10681E090E062E070E00E94C10699
:10023000CF91DF910895DF93CF9300D0CDB7DEB794
:100240009A83898389819A81909302028093010223
:100250000F900F90CF91DF910895DF93CF9300D04F
:10026000CDB7DEB79A83898389819A8190930402FE
:10027000809303020F900F90CF91DF910895DF9349
:10028000CF9300D0CDB7DEB79A83898389819A81D5
:1002900090930602809305020F900F90CF91DF910B
:1002A0000895DF93CF9300D0CDB7DEB79A838983CB
:1002B00089819A8190930802809307020F900F9092
:1002C000CF91DF9108951F920F920FB60F92009079
:1002D0005B000F9211242F933F934F935F936F9383
:1002E0007F938F939F93AF93BF93EF93FF93DF938E
:1002F000CF93CDB7DEB7E0910102F09102020995EC
:10030000CF91DF91FF91EF91BF91AF919F918F912D
:100310007F916F915F914F913F912F910F9000923C
:100320005B000F900FBE0F901F9018951F920F92B9
:100330000FB60F9200905B000F9211242F933F9302
:100340004F935F936F937F938F939F93AF93BF93DD
:10035000EF93FF93DF93CF93CDB7DEB7E091030226
:10036000F09104020995CF91DF91FF91EF91BF9138
:10037000AF919F918F917F916F915F914F913F913D
:100380002F910F9000925B000F900FBE0F901F9067
:1003900018951F920F920FB60F9200905B000F926C
:1003A00011242F933F934F935F936F937F938F937A
:1003B0009F93AF93BF93EF93FF93DF93CF93CDB70B
:1003C000DEB7E0910502F09106020995CF91DF9129
:1003D000FF91EF91BF91AF919F918F917F916F911D
:1003E0005F914F913F912F910F9000925B000F9082
:1003F0000FBE0F901F9018951F920F920FB60F927D
:1004000000905B000F9211242F933F934F935F93C3
:100410006F937F938F939F93AF93BF93EF93FF93CC
:10042000DF93CF93CDB7DEB7E0910702F0910802DA
:100430000995CF91DF91FF91EF91BF91AF919F917E
:100440008F917F916F915F914F913F912F910F907D
:1004500000925B000F900FBE0F901F9018951F9297
:100460000F920FB60F921124DF93CF93CDB7DEB763
:10047000CF91DF910F900FBE0F901F9018951F9294
:100480000F920FB60F921124DF93CF93CDB7DEB743
:10049000CF91DF910F900FBE0F901F9018951F9274
:1004A0000F920FB60F921124DF93CF93CDB7DEB723
:1004B000CF91DF910F900FBE0F901F9018951F9254
:1004C0000F920FB60F921124DF93CF93CDB7DEB703
:1004D000CF91DF910F900FBE0F901F9018951F9234
:1004E0000F920FB60F921124DF93CF93CDB7DEB7E3
:1004F000CF91DF910F900FBE0F901F9018951F9214
:100500000F920FB60F921124DF93CF93CDB7DEB7C2
:10051000CF91DF910F900FBE0F901F901895DF9332
:10052000CF93CDB7DEB70E9480030E94A3070E943D
:10053000D103A89588E10FB6F894809360001092DB
:1005400060000FBE80E0CF91DF910895DF93CF93DD
:10055000CDB7DEB7CF91DF910895DF93CF93CDB7BD
:10056000DEB72D970FB6F894DEBF0FBECDBF9E83CA
:100570008D8378876F835A8749873C872B878D8146
:100580009E818130910551F48F8199852B853C8521
:10059000692FA9010E94E4058D8739C08D819E8154
:1005A000009799F58F81988529853A85820F931F49
:1005B00020E18130920718F085E88D8728C08B856F
:1005C0009C859A8389831C821B8216C08F819885A3
:1005D0000E941608E981FA8180838F8198850196AF
:1005E00098878F8389819A8101969A8389838B81E9
:1005F0009C8101969C838B832B813C8189859A8584
:100600002817390718F31D8602C028EE2D878D851F
:100610002D960FB6F894DEBF0FBECDBFCF91DF9100
:100620000895DF93CF93CDB7DEB72C970FB6F8942C
:10063000DEBF0FBECDBF9F838E83798768875B87C0
:100640004A878E819F8128853985820F931F20E1FB
:100650008130920718F085E88C8731C08A859B85A8
:100660009D838C831B821A8222C08E819F810E946F
:1006700016088983EC81FD8190818981981741F06A
:100680008E819F81EC81FD812081622F0E941E0856
:100690008C819D8101969D838C838E819F810196A3
:1006A0009F838E838A819B8101969B838A832A8183
:1006B0003B818885998528173907B8F21C868C8577
:1006C0002C960FB6F894DEBF0FBECDBFCF91DF9151
:1006D0000895DF93CF93CDB7DEB7EEE2F0E010825E
:1006E000EDE2F0E08FEF80838FEF9FEF0E94BC047C
:1006F000AEE2B0E0EEE2F0E0808180958C93F4CF42
:10070000DF93CF93CDB7DEB70E949903E5E3F1E025
:1007100080E18083E4E3F1E080E18083E3E3F1E0E2
:1007200080E18083E2E3F1E080E18083CF91DF919B
:100730000895DF93CF9300D000D00F92CDB7DEB7EE
:10074000EFE5F0E080818B83F89489E0E0E0F0E071
:100750008093570084918A838A818D83EFE5F0E04E
:100760008B8180838D81882F90E08F709070823094
:10077000910519F48FE08C8301C01C8280E8898385
:1007800099818C810FB6F8949093610080936100F9
:100790000FBE0F900F900F900F900F90CF91DF91A1
:1007A0000895DF93CF9300D000D0CDB7DEB7E6EB4E
:1007B000F0E080E28083ECEDF0E088EA80838FEF68
:1007C0009FEFAFEFBFE089839A83AB83BC83E4EFF5
:1007D000F0E08C818083E3EFF0E08B818083E2EFB7
:1007E000F0E08A818083E1EFF0E089818083E0EEB0
:1007F000F0E082E08083AFEDB0E0EFEDF0E08081EB
:1008000082608C930F900F900F900F90CF91DF919B
:100810000895DF93CF9300D0CDB7DEB79A83898355
:100820000F900F90CF91DF910895DF93CF93CDB7C5
:10083000DEB72E970FB6F894DEBF0FBECDBF9E87F2
:100840008D87EEEDF0E08081882F90E081709070D0
:100850008823B9F784EE90E09A83898383EE90E051
:100860009C838B8382EE90E09E838D8381EE90E06B
:1008700098878F83EF81F88580818987ED81FE815C
:1008800080818A87EB81FC8180818B87E981FA8175
:1008900080818C8789859A85AB85BC85880F991F57
:1008A000AA1FBB1F880F991FAA1FBB1F880F991F64
:1008B000AA1FBB1F880F991FAA1FBB1FED85FE85AE
:1008C00080839183A283B3832E960FB6F894DEBF04
:1008D0000FBECDBFCF91DF910895DF93CF93CDB7FA
:1008E000DEB72E970FB6F894DEBF0FBECDBF9E8742
:1008F0008D878CEE90E09A8389838BEE90E09C83C9
:100900008B838AEE90E09E838D8389EE90E09887BA
:100910008F83EF81F88580818987ED81FE818081D9
:100920008A87EB81FC8180818B87E981FA818081D4
:100930008C8789859A85AB85BC85880F991FAA1FEE
:10094000BB1F880F991FAA1FBB1F880F991FAA1FC3
:10095000BB1F880F991FAA1FBB1FED85FE858083D3
:100960009183A283B3832E960FB6F894DEBF0FBE99
:10097000CDBFCF91DF910895DF93CF9300D000D00A
:1009800000D0CDB7DEB79E838D831C821B828D8104
:100990009E818436910508F042C081E08C83EFE5AA
:1009A000F0E080818B83F8943AC08D819E819923F9
:1009B0002CF48FEF9FE79A83898304C08D819E81F9
:1009C0009A8389832D813E8189819A81A901481B5F
:1009D000590BCA019E838D8389819A81880F991F43
:1009E0009A838983E4E2F1E089819A8190958195E7
:1009F0009F4F91838083EAE3F0E081E08083E1E22E
:100A0000F1E082E08083EAE3F0E08081882F90E0EB
:100A1000817090700097B9F3E1E2F1E010828D816E
:100A20009E81009711F68C81882321F0EFE5F0E09C
:100A30008B81808326960FB6F894DEBF0FBECDBFA4
:100A4000CF91DF9108951F920F920FB60F9211244C
:100A5000DF93CF93CDB7DEB7CF91DF910F900FBE6D
:100A60000F901F9018951F920F920FB60F92009043
:100A70005B000F9211248F939F93AF93BF93EF93DB
:100A8000FF93DF93CF9300D000D0CDB7DEB78FEFC9
:100A90009FEFAFEFBFEF89839A83AB83BC83E4EE14
:100AA000F0E08C818083E3EEF0E08B818083E2EEE6
:100AB000F0E08A818083E1EEF0E0898180830F900D
:100AC0000F900F900F90CF91DF91FF91EF91BF9119
:100AD000AF919F918F910F9000925B000F900FBE8E
:100AE0000F901F901895DF93CF93CDB7DEB781E0BD
:100AF000CF91DF910895DF93CF93CDB7DEB7E4E2D6
:100B0000F0E087E08083ECE4F0E083E58083CF9140
:100B1000DF910895DF93CF93CDB7DEB7ECE4F0E03B
:100B20001082A4E2B0E0E4E2F0E080818E7F8C935A
:100B3000CF91DF910895DF93CF9300D0CDB7DEB78B
:100B40008A83A4E3B0E0E4E3F0E080818F7D8C93BE
:100B50000000000000000000000000000000000095
:100B60000000000000000000000000000000000085
:100B7000EEE4F0E083E08083EDE4F0E08081882320
:100B8000DCF7EEE4F0E08A818F778083EDE4F0E03B
:100B900080818823DCF7EEE4F0E01082EDE4F0E001
:100BA00080818823DCF7EEE4F0E080818983A4E390
:100BB000B0E0E4E3F0E0808180628C9389810F9063
:100BC0000F90CF91DF910895DF93CF93CDB7DEB72C
:100BD000CA54D0400FB6F894DEBF0FBECDBFFE01A1
:100BE000EA5BFF4F8083FE01E95BFF4F6083FE01FC
:100BF000E85BFF4F518340830E947B051D82CE013D
:100C000006969C838B830EC08D810E949B05EB8191
:100C1000FC8180838D818F5F8D838B819C81019688
:100C20009C838B838D81803478F30E948A051D829A
:100C30001A821982CE0106969C838B8312C0EB81A7
:100C4000FC81208189819A81622F0E9466069A83A5
:100C500089838D818F5F8D838B819C8101969C839D
:100C60008B838D81803458F389819A81009729F094
:100C700085E82B968FAF2B971CC0FE01EA5BFF4FD8
:100C80008081882F90E09E012A5F3F4F280F391FF7
:100C9000FE01E95BFF4F8081482F50E0FE01E85BD9
:100CA000FF4F80819181B9010E940D082B961FAEE4
:100CB0002B972B968FAD2B97C65BDF4F0FB6F89413
:100CC000DEBF0FBECDBFCF91DF910895DF93CF93ED
:100CD00000D000D00F92CDB7DEB79C838B836D839D
:100CE0002D818B819C818227082E8295807F802593
:100CF000092E982F82958F70082686959827892728
:100D0000880F880F880F80259A83898389819A812B
:100D10000F900F900F900F900F90CF91DF9108954B
:100D2000DF93CF93CDB7DEB7AEE2B0E0EEE2F0E016
:100D3000808184608C93ADE2B0E0EDE2F0E08081F0
:100D400084608C93AEE2B0E0EEE2F0E080818860F7
:100D50008C93ADE2B0E0EDE2F0E0808188608C93AE
:100D6000AEE2B0E0EEE2F0E0808180618C93ADE233
:100D7000B0E0EDE2F0E0808180618C93CF91DF9173
:100D80000895DF93CF93CDB7DEB72C970FB6F894C5
:100D9000DEBF0FBECDBF9A8389837C836B8389813D
:100DA0009A819E838D838D819E818130910599F1F9
:100DB0008D819E818230910509F45AC08B819C817E
:100DC00098878F838F8198858130910599F08F81E5
:100DD00098858130910530F08F819885823091051A
:100DE00089F072C0AEE2B0E0EEE2F0E080818B7F8D
:100DF0008C936AC0AEE2B0E0EEE2F0E08081846005
:100E00008C9362C0AEE2B0E0EEE2F0E0908184E06C
:100E100089278C9359C08B819C819A878987898582
:100E20009A858130910599F089859A85813091055F
:100E300030F089859A858230910589F045C0AEE20F
:100E4000B0E0EEE2F0E08081877F8C933DC0AEE2BF
:100E5000B0E0EEE2F0E0808188608C9335C0AEE2D5
:100E6000B0E0EEE2F0E0908188E089278C932CC01E
:100E70008B819C819C878B878B859C85813091059C
:100E800099F08B859C858130910530F08B859C8510
:100E90008230910589F018C0AEE2B0E0EEE2F0E0F9
:100EA00080818F7E8C9310C0AEE2B0E0EEE2F0E085
:100EB000808180618C9308C0AEE2B0E0EEE2F0E0A9
:100EC000908180E189278C932C960FB6F894DEBF31
:100ED0000FBECDBFCF91DF910895DF93CF93CDB7F4
:100EE000DEB7AEE2B0E0EEE2F0E0808180628C93AB
:100EF000ADE2B0E0EDE2F0E080818F7D8C93CF91A8
:100F0000DF910895DF93CF9300D000D0CDB7DEB747
:100F10009A838983ECE2F0E08081882F90E08072F0
:100F20009070009719F41C821B8204C081E090E04D
:100F30009C838B838B819C810F900F900F900F90DF
:100F4000CF91DF910895DF93CF93CDB7DEB7A4E3C0
:100F5000B0E0E4E3F0E0808180628C93A3E3B0E052
:100F6000E3E3F0E0808180628C93CF91DF9108957C
:100F7000DF93CF930F92CDB7DEB78983ECE3F0E038
:100F800080E28083ADE3B0E0EDE3F0E08081806259
:100F90008C93A3E5B0E0E3E5F0E08081982F917FAA
:100FA0008981892B8C93A3E5B0E0E3E5F0E08081B3
:100FB00081608C938895A3E5B0E0E3E5F0E0808163
:100FC0008E7F8C930F90CF91DF9108951F920F9297
:100FD0000FB60F9200905B000F9211248F93AF9386
:100FE000BF93EF93FF93DF93CF93CDB7DEB7ADE31E
:100FF000B0E0EDE3F0E080818F7D8C93CF91DF91C5
:10100000FF91EF91BF91AF918F910F9000925B0094
:101010000F900FBE0F901F901895FB01DC0102C0CE
:1010200001900D9241505040D8F70895F999FECFA4
:1010300092BD81BDF89A992780B50895262FF99918
:10104000FECF1FBA92BD81BD20BD0FB6F894FA9AAB
:0C105000F99A0FBE01960895F894FFCFA6
:00000001FF
