S01900004465766963655F426561636F6E5F4170702E7372656394
S11300000C9435010C9456010C948F050C94BA058C
S11300100C9456010C9456010C9456010C94560100
S11300200C9456010C9456010C9456010C945601F0
S11300300C9456010C9456010C94180A0C94560115
S11300400C94490A0C9456010C9456010C945601D4
S11300500C9456010C9456010C9456010C945601C0
S11300600C9456010C9456010C9456010C945601B0
S11300700C9456010C9456010C9456010C945601A0
S11300800C9456010C9456010C94AA0B0C94560132
S11300900C9456010C9456010C9456010C94560180
S11300A00C9456010C9456010C9456010C94560170
S11300B00C9456010C9456010C9456010C94560160
S11300C00C9456010C9456010C9456010C94560150
S11300D00C9456010C9456010C9456010C94560140
S11300E00C9456010C9456010C9456010C94560130
S11300F00C9456010C9456010C9456010C94560120
S11301000C9456010C9456010C9456010C9456010F
S11301100C9456010C9456010C9456010C945601FF
S11301200C9456010C9456010C9456010C945601EF
S11301300C9456010C9456010C9456010C945601DF
S11301400C9456010C9456010C9456010C945601CF
S11301500C9456010C9456010C9456010C945601BF
S11301600C940C050C9456010C9438050C9456010F
S11301700C9456010C9456010C9456010C9456019F
S11301800C9456010C9456010C9456010C9456018F
S11301900C9456010C9456010C9456010C9456017F
S11301A00C9456010C9456010C9456010C9456016F
S11301B00C9456010C9456010C9456010C9456015F
S11301C00C9456010C9456010C9456010C9456014F
S11301D00C9456010C9456010C9456010C9456013F
S11301E00C9456010C94560103020201010000FF15
S11301F0FEFDFCFBF9F7F4EF311FE81A000072254D
S113020000001624322B0000DC287728BC2F513341
S113021000000000A02B0535FF1C9F1C00000000FF
S11302201A1D871D531D321D000000000000031E0F
S11302300000441EA71D2D1ED71DED1D0000C11D6D
S11302400104010101020101010101010101010196
S1130250040108020101010102010102010201017C
S11302600201020201010101080011241FBECFEFA7
S1130270DFE5DEBFCDBF00E00CBF10E2A0E0B0E2DE
S1130280ECE1FBE700E00BBF02C007900D92A03C3D
S1130290B107D9F715E2A0ECB0E201C01D92A3307A
S11302A0B107E1F70E9478010C948C3D0C94000096
S11302B082E090E061E00E94530B0895EF92FF9278
S11302C00F931F9381E090E062E00E94530B88E05B
S11302D040E251EA67E070E020E00EE511E0EE2430
S11302E0FF240E94C1081F910F91FF90EF90089581
S11302F00E948835882311F00E94A1060E944D0BAC
S113030080E090E060E00E94530B81E090E061E0C7
S11303100E94530B82E090E061E00E94530B7894BA
S113032080E00E946505882311F00E94A10686EEF4
S113033093E060E174E00E94A33880E090E00E94C2
S1130340100480E090E20E94073985E190E20E9467
S1130350073981E00E94BD360E948F35FDCFEF92B0
S1130360FF920F931F938823D1F48EE190E20E94B1
S1130370073981E040E050E060E170E025E000E012
S11303800E94533788E040E251EA67E070E020E0E1
S11303900EE511E0EE24FF240E94C10807C010926C
S11303A0C0201092C12081E00E94BD361F910F91A0
S11303B0FF90EF900895CF92DF92EF920F931F93E7
S11303C0DF93CF930F920F92CDB7DEB7882309F056
S11303D03FC0EC2DFD2D20E032C08385843169F5CA
S11303E08485882351F5018112818AEB0E3B18071D
S11303F021F58585968597FF20C082E08093C220F1
S11304000093C3201093C420838194818093C520DA
S11304109093C62080E390E20E94073981E090E047
S11304208093C0209093C12009831A8380E5BE0184
S11304306F5F7F4F0E94EB361EC075962F5F2E159F
S113044060F281E040E050E060E170E025E008C047
S11304508A3E51F481E040E050E060E170E026E043
S113046000E00E94533707C01092C0201092C120B0
S113047081E00E94BD360F900F90CF91DF911F91C4
S11304800F91EF90DF90CF900895882381F4603529
S113049031F48BE465EC70E20E94EB3608956B3422
S11304A031F484E160E041E00E94863708951092BF
S11304B0C0201092C12081E00E94BD3608956623B9
S11304C099F48EE390E20E94073983E090E08093F0
S11304D0C0209093C12088E00E94E80781E090E06A
S11304E060E00E94530B089581E090E061E00E9477
S11304F0530B1092C0201092C12081E00E94BD369F
S11305000895EF92FF920F931F93DF93CF93CDB78C
S1130510DEB7CF5FD040CDBFDEBFDB0113968D9138
S11305209C9114977E010894E11CF11C0DE610E2E5
S1130530BFEF8F3F9B0799F580913B2190913C2120
S1130540A0913D21B0913E210196A11DB11D809342
S11305503B2190933C21A0933D21B0933E210F92E7
S11305600F9282E690E2EDB7FEB7818392830E94F8
S1130570EE3800D000D0EDB7FEB73196ADB7BEB7B8
S11305801196ED92FC9212970283138380913B2182
S113059090913C21A0913D21B0913E2134C08091A5
S11305A03F2190914021A0914121B0914221019697
S11305B0A11DB11D80933F2190934021A09341211F
S11305C0B09342210F920F9282E890E2ADB7BEB78A
S11305D011968D939C9312970E94EE3800D000D010
S11305E0EDB7FEB73196ADB7BEB71196ED92FC925A
S11305F012970283138380913F2190914021A0910F
S11306004121B091422184839583A683B7830E94BC
S11306103E39EDB7FEB73896EDBFFEBF0F920F928D
S1130620CE010196ADB7BEB711968D939C931297E8
S11306300E94EE380F900F9082E090E060E00E94FC
S1130640530B88E040E251EA67E070E020E008E5FF
S113065011E0EE24FF240E94C108C150DF4FCDBF3A
S1130660DEBFCF91DF911F910F91FF90EF9008951E
S1130670842F622F41E00E9486370895CF92DF9243
S1130680EF92FF920F931F93DF93CF93CDB7DEB713
S1130690CF5FD040CDBFDEBFB7018091C020909125
S11306A0C1208130910571F482E090E08093C020F4
S11306B09093C12084E160E042EC50E220E80E9483
S11306C0283677C08330910509F073C0102F0A369D
S11306D008F019E68DECC82E80E2D82EC601412F11
S11306E050E00E949A3800913A210F5F00933A211A
S11306F082E062EC70E2412F9601EE24E3940E94C2
S1130700A5358091362190913721A0913821B0915F
S113071039210196A11DB11D809336219093372173
S1130720A0933821B09339212DB73EB728503040DB
S11307302DBF3EBF4DB75EB74F5F5F4F6E0108944C
S1130740C11CD11CEDB7FEB7C182D28221E930E2CF
S1130750FA012283338384839583A683B7830E941B
S11307603E392DB73EB72A5F3F4F2DBF3EBFEDB791
S1130770FEB7C182D2820E94EE380F900F901936D4
S113078019F41092352105C0E12FF0E0E353FF4D39
S113079010820F920F928DEC90E2EDB7FEB7818339
S11307A092830E94EE380F900F908AE090E00E94AE
S11307B00039C150DF4FCDBFDEBFCF91DF911F9114
S11307C00F91FF90EF90DF90CF9008950F931F93B8
S11307D0DF93CF930F92CDB7DEB789838A3071F45C
S11307E08DE089838E010F5F1F4F80E0B80141E0E7
S11307F00E9471058823C9F38AE089838E010F5F03
S11308001F4F80E0B80141E00E9471058823C9F3BD
S113081080E090E00F90CF91DF911F910F910895A8
S11308200F931F93DF93CF930F92CDB7DEB78E0153
S11308300F5F1F4F80E0B80141E00E947A058823D2
S1130840C9F3898190E00F90CF91DF911F910F91AF
S11308500895DF93CF930F92CDB7DEB780E0BE014A
S11308606F5F7F4F41E00E947A05813019F429813E
S113087030E002C02FEF3FEFC9010F90CF91DF911D
S113088008950F931F93CF93DF938C01EB010AC05C
S113089080E0B8014C2F0E94710590E0C81BD90B71
S11308A0080F191F1C161D069CF3DF91CF911F9191
S11308B00F9108959B01AC016050774F824C9F4F7C
S11308C0F2E0660F771F881F991FFA95D1F7E3E0CE
S11308D0220F331F441F551FEA95D1F70E941A387F
S11308E021503040E0E6F6E088E0818384E08283B2
S11308F0E0EAF9E0378326838CE1848383E085830F
S11309008CE383830895CF93DF93282F8091A309E9
S1130910837FE0EAF9E08383E091FE233091FF23B3
S11309203E1718F08E2F875F02C08E2F8150831BD5
S1130930681708F4862F392FE901982F11C02091E8
S1130940FF233991A22FB0E0A651BC4D3C9329302E
S113095019F41092FF2303C02F5F2093FF239150BB
S1130960992369F790910224992349F4F0E0E65120
S1130970FC4D90819093A00991E090930224909172
S1130980A3099C60E0EAF9E09383DF91CF91089595
S1130990FC01809103248823E9F19091A3099F7CB1
S11309A0A0EAB9E013969C9313978A3050F0809193
S11309B00124809300248AE0809303246A3028F47D
S11309C005C0861718F4682F01C06AE0962F18C076
S11309D0A0910024B0E0A651BC4D1A968C911A97B0
S11309E08193809100248F5F8093002420910324BD
S11309F021502093032491508A3011F41092002442
S1130A00992331F78091A3098063E0EAF9E08383B5
S1130A10862F089580E008951F920F920FB60F92CB
S1130A200BB60F9211248F939F93EF93FF938091B2
S1130A300124909103249F5F909303249091A00933
S1130A40E82FF0E0E651FC4D9287893019F41092BA
S1130A50012403C08F5F80930124FF91EF919F9144
S1130A608F910F900BBE0F900FBE0F901F90189593
S1130A701F920F920FB60F920BB60F9211248F9301
S1130A80EF93FF938091FE23893019F41092FE2393
S1130A9003C08F5F8093FE23E091FE238091FF23A8
S1130AA0E81739F0F0E0E651FC4D80818093A0090D
S1130AB002C010920224FF91EF918F910F900BBE10
S1130AC00F900FBE0F901F901895882341F460E893
S1130AD075E280E090E00E945A0480E0089585E881
S1130AE00895882329F4CB01642F0E948304089578
S1130AF080E00895882329F4CB01642F0E94C80460
S1130B00089580E008958093432190934421E0E484
S1130B10F6E081E0828B94E09287848708951F92A7
S1130B200F920FB60F920BB60F9211242F933F938F
S1130B304F935F936F937F938F939F93AF93BF93E1
S1130B40EF93FF93E0914321F09144211995FF9194
S1130B50EF91BF91AF919F918F917F916F915F9131
S1130B604F913F912F910F900BBE0F900FBE0F909E
S1130B701F9018951F920F920FB60F9211240F9089
S1130B800FBE0F901F901895EBECF1E021E030E0E0
S1130B9088ED90E084BF208308958091CF0187FD84
S1130BA0FCCF08950F931F93DF93CF930F920F926F
S1130BB0CDB7DEB789839A830E94CD0500EC11E09E
S1130BC0F80112829A8191838981808386E08287E9
S1130BD00E94C405F80184810F900F90CF91DF919A
S1130BE01F910F9108950E94690A0E94840A0E942D
S1130BF0D30B0E942B070E945F0A0E94630A88EDB0
S1130C0084BF81E08093800080E008950E94DB0926
S1130C100895CF92DF92EF92FF920F931F93CF9399
S1130C20DF938B01EA01813031F4862F642FA9010F
S1130C300E94AE0A21C08823E1F4CA01860F971FDF
S1130C4040E181309407B8F4C22ED32EEE24FF2461
S1130C500BC0C701800F911F0E94D205F60181933A
S1130C606F010894E11CF11CEC16FD0690F380E082
S1130C7003C088EE01C085E8DF91CF911F910F91E9
S1130C80FF90EF90DF90CF9008955F926F927F92E4
S1130C908F929F92AF92BF92CF92DF92EF92FF9288
S1130CA00F931F93CF93DF93EC015B01CB018C0F68
S1130CB09D1F20E18130920798F5C42ED52EEE2495
S1130CC0FF2400EC11E023E3722E95E3892E86E3E2
S1130CD0982E21C0CE010E94D205F60161906F01C9
S1130CE08615A9F05C2E0E94CD058091CF0181FF6D
S1130CF004C0F80192860E94C405F80172865092DD
S1130D00C00111821282648282860E94C4052196E7
S1130D100894E11CF11CEA14FB04E0F280E001C039
S1130D2085E8DF91CF911F910F91FF90EF90DF90B5
S1130D30CF90BF90AF909F908F907F906F905F9077
S1130D4008951F93CF93DF93E0E2F6E014828FEFD0
S1130D508183C0E2D6E01FEF8FEF9FEF0E94590717
S1130D601F83FACF60910424709105249B0140E015
S1130D7050E0A9013327222780912008909121086F
S1130D80A0E0B0E0282B392B4A2B5B2B8091042464
S1130D90909105246817790729F7B901CA010895C4
S1130DA01F93CF93DF931FB7F894809147218F3F10
S1130DB009F44CC0C82FD0E0FE0133E0EE0FFF1F52
S1130DC03A95E1F7EC0FFD1FEA5FFB4D80819181BD
S1130DD0A281B38120910424309105242A173B0772
S1130DE069F4809328089093290880910C08806105
S1130DF080930C0880910708836003C080910708E2
S1130E008C7F809307080E94B206FE0123E0EE0F58
S1130E10FF1F2A95E1F7EC0FFD1FEA5FFB4D2081D0
S1130E20318142815381621B730B840B950B6F5F7D
S1130E307F4F8F4F9F4F6F3F2FEF72072FEF820728
S1130E402FE7920718F481E0809346211FBFDF91BA
S1130E50CF911F910895109245211092462110922E
S1130E600424109205248FEF809347218093482116
S1130E7080934921EAE0F4E2848310821182399656
S1130E8094E2EB35F907C1F70E94A10A089588237B
S1130E9019F488E0809300080895CF93DF93EC0160
S1130EA00E94B206688379838A839B83DF91CF9102
S1130EB008954FB7F8948630910518F120912008D1
S1130EC030912108280F391F809120089091210822
S1130ED08217930740F4809120089091210882178B
S1130EE09307C8F30EC08091200890912108281719
S1130EF03907C8F38091200890912108821793073D
S1130F00C8F34FBF089590E0FC0143E0EE0FFF1FCC
S1130F104A95E1F7E80FF91FEA5FFB4D81E0248170
S1130F2035812115310509F480E008958091462129
S1130F30882309F44CC01092462120914521222394
S1130F4009F445C0809148218F3F59F4809149218B
S1130F508F3F39F480914721809349218093482120
S1130F6012C0309147218091492190E0FC0173E047
S1130F70EE0FFF1F7A95E1F7E80FF91FEA5FFB4DCB
S1130F803087309349218091472190E0FC0163E050
S1130F90EE0FFF1F6A95E1F7E80FF91FEA5FFB4DBB
S1130FA08085809347218091492190E0FC0153E0A2
S1130FB0EE0FFF1F5A95E1F7E80FF91FEA5FFB4DAB
S1130FC08FEF80872150209345210E94D0060895F9
S1130FD00F931F93082F893008F0CDC01FB7F894E2
S1130FE00E94960740914521442309F45BC0509127
S1130FF04721252F352F02C0232F382F031709F03F
S113100041C0802F90E0051781F4FC0153E0EE0FFE
S1131010FF1F5A95E1F7E80FF91FEA5FFB4D808542
S1131020809347210E94D00619C030E0F90143E0C3
S1131030EE0FFF1F4A95E1F7E20FF31FEA5FFB4D46
S1131040DC0123E0AA0FBB1F2A95E1F7A80FB91F03
S1131050AA5FBB4D18968C9118978087802F90E0DB
S1131060FC01A3E0EE0FFF1FAA95E1F7E80FF91FBB
S1131070EA5FFB4D8FEF80878091452181508093FB
S1131080452165C0832F90E0FC0173E0EE0FFF1F44
S11310907A95E1F7E80FF91FEA5FFB4D808541502F
S11310A009F0AACF40914821342F242F4BC00217B6
S11310B0D9F5209149210417B1F4021721F48FEFD7
S11310C0809349210DC0802F90E0FC0163E0EE0F76
S11310D0FF1F6A95E1F7E80FF91FEA5FFB4D808572
S11310E08093482134C0832F90E0FC0153E0EE0F3D
S11310F0FF1F5A95E1F7E80FF91FEA5FFB4D802FB8
S113110090E0DC0143E0AA0FBB1F4A95E1F7A80F6A
S1131110B91FAA5FBB4D18968C9118978087021748
S1131120B1F43093492113C0822F90E0FC01B3E065
S1131130EE0FFF1FBA95E1F7E80FF91FEA5FFB4DC9
S1131140322F20852F3F09F0B2CF80E00FC0802FCF
S113115090E0FC01A3E0EE0FFF1FAA95E1F7E80F72
S1131160F91FEA5FFB4D1482158281E01FBF8823BB
S113117021F080E003C08AE801C089E81F910F9143
S113118008952F923F924F925F926F927F928F9227
S11311909F92AF92BF92CF92DF92EF92FF920F9302
S11311A01F93CF93DF93D82E4A015B01C22E3701E0
S11311B0893008F0CBC00115110509F4CBC0C82F44
S11311C0D0E0FE0133E0EE0FFF1F3A95E1F7EC0F9C
S11311D0FD1FEA5FFB4D84819581009709F0B8C03B
S11311E00E94B2069B01AC01CC2029F06C2D613029
S11311F009F0B0C014C0D501C40180589040A0408B
S1131200B04080386FEF96076FEFA6076FE7B60719
S113121008F0A2C0820E931EA41EB51E13C0D501F1
S1131220C40180589040A040B040821B930BA40B93
S1131230B50B80382FEF92072FEFA2072FE7B207E5
S113124008F08AC0CFB6F8940E94960750914721BF
S11312505F3F31F0F0904521652F452F70E054C079
S1131260D0924721FE0123E0EE0FFF1F2A95E1F7FC
S1131270EC0FFD1FEA5FFB4D508735C04F3F09F46B
S113128042C0242F30E0F90193E0EE0FFF1F9A953E
S1131290E1F7E20FF31FEA5FFB4D80819181A281A8
S11312A0B38114012501281A390A4A0A5B0AD201BA
S11312B0C1018F3F2FEF92072FEFA2072FE7B2074D
S11312C018F4642F40851FC0FE0183E0EE0FFF1F5A
S11312D08A95E1F7EC0FFD1FEA5FFB4D4087541739
S11312E021F4D092472181E013C0862F90E0FC01C5
S11312F0B3E0EE0FFF1FBA95E1F7E80FF91FEA5FBD
S1131300FB4DD08656C07F5F7F1508F4B7CF38C039
S1131310FE01A3E0EE0FFF1FAA95E1F7EC0FFD1FFE
S1131320EA5FFB4D80829182A282B382048315839B
S113133066827782909145219F5F9093452188230F
S113134011F00E94D006CFBE80E007C08AE805C035
S113135088E803C088EE01C08BE8DF91CF911F912C
S11313600F91FF90EF90DF90CF90BF90AF909F9040
S11313708F907F906F905F904F903F902F90089543
S1131380862F90E0FC0173E0EE0FFF1F7A95E1F7E2
S1131390E80FF91FEA5FFB4DD086FE0163E0EE0F14
S11313A0FF1F6A95E1F7EC0FFD1FEA5FFB4D8FEF1E
S11313B0808780E0ADCF1F931FB7F8940E949607F3
S11313C01FBF1FEF2FC03FB7F8948091482190E0D2
S11313D0DC0143E0AA0FBB1F4A95E1F7A80FB91F30
S11313E0AA5FBB4D18962C9118971496ED91FC9119
S11313F0159716968D919C91179718961C9318978C
S113140014961D921C92159716961D921C9217976E
S1131410209348212F3F11F4109349213FBF309767
S113142009F01995809148218F3F69F61F9108951D
S11314301F920F920FB60F920BB60F9211242F9397
S11314403F934F935F936F937F938F939F93AF9348
S1131450BF93EF93FF938091042490910524019608
S113146080930424909305240E94D006FF91EF9169
S1131470BF91AF919F918F917F916F915F914F91A8
S11314803F912F910F900BBE0F900FBE0F901F90A6
S113149018951F920F920FB60F9211248F9380917B
S11314A04521882319F081E0809346218F910F9084
S11314B00FBE0F901F901895089581E0089584E859
S11314C0809380010895E0EAF0E082818460828361
S11314D0089582E0809350008091510081FFFCCFF9
S11314E088ED84BF94E0E0E4F0E0918384BF81E080
S11314F08093400082E0E0E5F0E086838091600024
S11315008160809360000895E0E4F6E0808180616A
S113151080838081806880838081816080838081F2
S11315208062808380818860808380818F7B8083D8
S1131530E0E6F6E080ED818380E2828380E18583CA
S1131540089588E08093000880EF80930C0880E37E
S113155080934C0883E0809306080895AF92BF926D
S1131560CF92DF92EF92FF920F931F93DF93CF936B
S1131570CDB7DEB7C054D040CDBFDEBF9E012F5FD4
S11315803F4F90E0E0E4F6E0EE24E394B0E1FB2E7C
S113159000EC18E0A3E0DA2E70ECA72E78E0B72E6A
S11315A0C0904906709149067C7F7187E682F68275
S11315B00000000000000000000000000000000027
S11315C00000000000000000000000000000000017
S11315D0D8011396DC9213977091C20877FFFCCF61
S11315E0792F7F77D50113967C9313977091C20856
S11315F077FFFCCFD50113961C9213977091C20804
S113160077FFFCCF7091C308F582E582C186D901CA
S11316107D939D019F5F903409F0C2CFDE01AF5BE3
S1131620BF4F20E030E0FE01319691912927022E30
S11316302295207F2025032E322F22952F700226FB
S1131640269532272327220F220F220F2025EA175F
S1131650FB0759F72115310581F4FA01DE011196D2
S1131660A80FB11DCA01860F911D02C02D912193AF
S1131670E817F907D9F780E001C085E8C05CDF4FBF
S1131680CDBFDEBFCF91DF911F910F91FF90EF90FF
S1131690DF90CF90BF90AF900895E0E2F6E087E04E
S11316A08183868308958330910528F485559F4D61
S11316B0FC01208101C020E0662319F06130B9F4F7
S11316C00BC081E090E002C0880F991F2A95E2F7D1
S11316D0E0E2F6E08583089581E090E002C0880F9F
S11316E0991F2A95E2F7E0E2F6E08683089581E007
S11316F090E002C0880F991F2A95E2F7E0E2F6E035
S113170087830895E0E2F6E088E0828388E1838BB2
S11317100895E0E2F6E0808590E023E095958795D2
S11317202A95E1F7817008952FB7F89498E0909383
S1131730B000E0E2F6E08BE1838B81858C7F8260F0
S113174081879287E0EAF0E08281826082837894E4
S11317502FBF08951F920F920FB60F920BB60F92E0
S113176011248F93EF93FF93E0E2F6E08285877F65
S11317708287E8E4F0E080818E7F8083FF91EF919F
S11317808F910F900BBE0F900FBE0F901F90189566
S11317900E94940BE8E4F0E08081807F8560808380
S11317A078948895089580E58093C00880E1E0E40A
S11317B0F6E085830895E0E4F6E0209149069091EF
S11317C049069C7F9187806C90E19683E0ECF8E079
S11317D083838091C20887FFFCCFE0ECF8E0638349
S11317E08091C20887FFFCCFE0E4F6E080E18583C6
S11317F021870895E0E4F6E0209149069091490696
S11318009C7F9187806890E19683E0ECF8E0838385
S11318108091C20887FFFCCFE0ECF8E0138280914E
S1131820C20887FFFCCF8091C308E0E4F6E090E1B2
S113183095832187089520E1E0E4F6E0268320E201
S1131840E0ECF8E023832091C20827FFFCCFE0EC12
S1131850F8E013826130B9F0262FFC01A0ECB8E067
S11318603091C20837FFFCCF3091C30813961C9205
S1131870139731932150223098F7625070E06F5FD4
S11318807F4F860F971F2091C20827FFFCCF20911E
S1131890C308FC01208380E1E0E4F6E08583089539
S11318A0FC0180E1A0E4B6E016968C9380E6A0ECFF
S11318B0B8E013968C9313978091C20887FFFCCFEE
S11318C0A0ECB8E0819161509091C20897FFFCCFE1
S11318D013968C9313976623A9F78091C20887FF08
S11318E0FCCF80E1E0E4F6E085830895DF93CF93B5
S11318F00F920F92CDB7DEB74A8369830E94FA0B29
S11319006981862390E04A8102C0959587954A951E
S1131910E2F70F900F90CF91DF9108951F93DF931B
S1131920CF9300D0CDB7DEB7182F2B834A836983BA
S11319300E94FA0B2B8130E04A8102C0220F331F30
S11319404A95E2F76981262360956823622B812FEB
S11319500E94DB0B2396CDBFDEBFCF91DF911F9199
S11319600895EF92FF920F931F93CF93DF938AE42E
S113197091E20E94670D0FE411E297EBE92E93E2E6
S1131980F92EC0E0D0E0F70100831183BE01660F99
S1131990771F660F771F69547C4D8AE491E20E9499
S11319A06E0D219606561F4F84E090E0E80EF91E56
S11319B0C430D10541F7DF91CF911F910F91FF9072
S11319C0EF9008958AE491E260E070E00E94890D4E
S11319D00895BC01009721F08AE491E20E946E0D03
S11319E008956F927F928F929F92BF92CF92DF92CF
S11319F0EF92FF920F931F93CF93DF938C014B01D0
S1131A006A01BFB6F894DC0114968C91149788236C
S1131A1009F44BC0CD91DC91119741155105C1F0EA
S1131A207E0113C0F601628173810190F081E02D83
S1131A30888199811995882371F47E019A818B811B
S1131A40692EE3013E01782EE301209759F72FC058
S1131A50209769F17E018114910449F5D8012D91F3
S1131A603C9111978A819B81C217D30721F48D93EE
S1131A709C93119703C0F70182839383D801129634
S1131A808D919C911397C817D90721F41296ED9262
S1131A90FC921397F8018481815084838081918121
S1131AA0009729F41282138202C0C0E0D0E0BFBEC6
S1131AB0CE01DF91CF911F910F91FF90EF90DF90B6
S1131AC0CF90BF909F908F907F906F900895FC016E
S1131AD0108211821282138214820895FC019FB72E
S1131AE0F8948481882319F46083718306C0A281E9
S1131AF0B38112966D937C93139762837383DB0196
S1131B0012961D921C92139784818F5F84839FBFCA
S1131B100895AB0160E070E00E94F10C0895AB0100
S1131B2061E070E00E94F10C0895CF93DF93EC0123
S1131B300BC0CE0160E070E00E94890D009711F4A3
S1131B401C8205C00E94E90C8C81882391F7DF91E7
S1131B50CF9108951F9381E06FE140E00E94760CDD
S1131B608830A1F48FE00E94FA0B82E069E00E94C1
S1131B70DB0B10E08FE00E94FA0B80FD07C08EE6BD
S1131B8090E00E9459071F5F1330A1F71F91089539
S1131B901F93DF93CF930F92CDB7DEB7182F8091A9
S1131BA080248F3089F510928D248FE39AE10E946E
S1131BB08305E0E4F6E081E0848780914906836050
S1131BC081878FB7F894789498E0968390918D24C8
S1131BD09923E1F38FBF8FE00E94FA0B80E19AE131
S1131BE00E9483058EE06CE00E94DB0B8DE064E0D4
S1131BF042E021E00E948E0C183011F0133021F4E1
S1131C0088E080938024DCC181E06FE140E00E94A1
S1131C10760C80938024183009F458C0193050F49D
S1131C20143009F4A5C0163009F4AFC0133009F01C
S1131C30BEC164C01F3069F0103120F4193009F0BE
S1131C40B6C174C0163109F4D9C0193109F0AFC155
S1131C5041C182E063E00E94DB0B8DE064E042E07E
S1131C6020E00E948E0C0E948A38682F8DE29983AE
S1131C700E94DB0B8EE267E040E09981292F0E94ED
S1131C808E0C8FE00E94FA0B8EE06FEF40E020E1B3
S1131C900E948E0C00000000000000000000000004
S1131CA00000000000000000000000000000000030
S1131CB00000000088E0E0E4F6E0858383E290E041
S1131CC00E945907109380248FE07AC1883009F468
S1131CD06EC182E068E00E94DB0B0000000000009F
S1131CE000000000000000000000000000000000F0
S1131CF00000000000000000000059C1883009F411
S1131D0056C182E063E00E94DB0B0000000000008B
S1131D1000000000000000000000000000000000BF
S1131D200000000000000000000041C1883029F1DB
S1131D30893020F4863009F03AC105C0863119F0A3
S1131D40893109F034C182E069E00E94DB0B0000B4
S1131D50000000000000000000000000000000007F
S1131D6000000000000000000000000000001FC18F
S1131D70883019F0893021F41AC10E94AA0D17C1C4
S1131D8082E064E00E94DB0B12C1893059F08A3092
S1131D9020F4883009F00BC11AC0863119F089315A
S1131DA009F005C182E066E00E94DB0B0000000040
S1131DB0000000000000000000000000000000001F
S1131DC0000000000000000000000000F0C00E94BD
S1131DD0AA0D82E066E00E94DB0B00000000000018
S1131DE000000000000000000000000000000000EF
S1131DF000000000000000000000D9C0883001F19C
S1131E00893020F4863009F0D2C031C0893019F00D
S1131E10893109F0CCC082E066E10E94DB0B00004E
S1131E2000000000000000000000000000000000AE
S1131E300000000000000000000000000000B7C027
S1131E400E94AA0D82E066E10E94DB0B0000000004
S1131E50000000000000000000000000000000007E
S1131E60000000000000000000000000A0C082E0AC
S1131E7069E00E94DB0B000000000000000000008D
S1131E80000000000000000000000000000000004E
S1131E9000000000000081E06FE140E00E94760C49
S1131EA080938024893009F08BC082E066E10E942F
S1131EB0DB0B000000000000000000000000000038
S1131EC0000000000000000000000000000000000E
S1131ED000006DC0883009F454C0893020F4863085
S1131EE009F065C01BC0893021F0863109F05FC05C
S1131EF015C082E069E10E94DB0B000000000000D5
S1131F0000000000000000000000000000000000CD
S1131F100000000000000000000049C082E069E009
S1131F200E94DB0B00000000000000000000000025
S1131F30000000000000000000000000000000009D
S1131F400000000081E06FE140E00E94760C809385
S1131F508024893009F034C082E069E10E94DB0BFF
S1131F60000000000000000000000000000000006D
S1131F70000000000000000000000000000000005D
S1131F8016C00E94AA0D82E069E10E94DB0B0000EA
S1131F90000000000000000000000000000000003D
S1131FA0000000000000000000000000000081E0CC
S1131FB06FE140E00E94760C809380248F31B9F366
S1131FC00F90CF91DF911F91089580916A24882307
S1131FD0E1F080918E248823C1F48091C7239091ED
S1131FE0C823009739F48AE90E94E20C8093C7233E
S1131FF09093C8238091C7239091C823009729F018
S113200010926A2486E10E94C80D80916F2488236F
S113201051F08BE694E260E070E00E94890D009735
S113202011F00E94871080918E24823019F0833041
S113203031F403C00E94EB1008950E94A015089586
S1132040DF92EF92FF920F931F93DF93CF930F9240
S11320500F92CDB7DEB7E091C723F091C823309734
S113206031F4CE01029661E00E941B0C46C0E08070
S1132070F18087E00E94FA0BD82ECE01019661E030
S11320800E941B0C698167FD38C0862F8D5F0AE9A9
S113209010E0081B11090E0D1F1D6E5FC8010E9480
S11320A01B0CF701028713878981F801E80FF11DE2
S11320B0D28280917C2490917D24A0917E24B09141
S11320C07F24F70186839783A087B1876091C72314
S11320D07091C8238BE694E20E946E0D8AE90E94F7
S11320E0E20C8093C7239093C823009731F489E0CE
S11320F00E94C80D81E080936A240F900F90CF91C5
S1132100DF911F910F91FF90EF90DF900895CF938F
S1132110DF939C01DC01CD91DC914A855B85DA017A
S1132120EC91E093822411968C91119790E0877042
S11321309070009701F580917A2490917B248230ED
S11321409105C9F48E819F81A885B98564E0B6950F
S1132150A795979587956A95D1F78093892490934D
S11321608A24A0938B24B0938C2489E090E08093FC
S11321707A2490937B24F0E03196E40FF51F60817C
S113218041814F3118F4442319F003C04EE101C0DA
S113219041E062956695669563708FEF689FB00124
S11321A0112450E0649FC001659F900D749F900DB1
S11321B011246AE570E00E9406386F3F710511F042
S11321C008F06FEF608329833A83CE010E94AC222A
S11321D0DF91CF91089510928E24E0918324F091A1
S11321E08424208130E0275F3F4F85E0220F331F96
S11321F08A95E1F7E0917624F0917724A285B3855E
S113220011968C91119785FF02C0205E3D4F40E0EE
S113221050E086819781A085B185821B930BA40B26
S1132220B50B86839783A087B187A091C923A83073
S113223028F4B0E0A255BF4D8C9101C085E8BF01E0
S11322400E945B2E0895FF920F931F93CF93DF9309
S11322508C01EB01F42E442331F08CE260EF44E076
S11322602091792404C08CE260EF44E020E00E94D5
S11322708E0CC230D10598F4FF2061F08CE26EE040
S113228041E0209170240E948E0C8FE260E00E9455
S1132290DB0B16C08CE26EE041E027E00FC06091DA
S11322A075246295607F80917824682B8FE20E9468
S11322B0DB0B8CE26EE041E0209170240E948E0CD6
S11322C089E10E94C80D8931D9F7809149068C7F34
S11322D0E0E4F6E08187C130D10559F4809182248D
S11322E0833118F080E492E002C080E890E00E941C
S11322F05907C0E4D6E088E08D83000000008E8397
S1132300F80160816150C8010E94500C81E0809303
S11323108E248091490683608987DF91CF911F9134
S11323200F91FF900895FC0180918E248823C9F4B5
S1132330E0937624F0937724828593858093832495
S113234090938424009779F06330710531F4842FDD
S11323500E94AB14882319F408C00E94231180E062
S1132360089586E8089588EE089581EE08951F93F0
S1132370182F2091762430917724C90106960E9463
S11323804D07112311F087E005C082E060EE45E0BF
S11323900E94760C8093C92380917A2490917B24A7
S11323A084309105F1F483E080938E248091C923D5
S11323B0813039F0813040F0833081F0853071F420
S11323C00AC086E090E002C085E090E080937A2421
S11323D090937B2409C087E090E0F8CF83E090E0FD
S11323E0F5CF82E080938E248091C7239091C823F7
S11323F0009739F489E00E94C80D81E080936A2433
S113240003C086E10E94C80D1F910895CF92DF9208
S1132410EF92FF920F931F9369017A0126173707F2
S11324204807590718F48B019C0106C08B019C01D5
S1132430015010402040304F0C191D092E093F094E
S11324403F70B801C9011F910F91FF90EF90DF9089
S1132450CF90089588E090E080937A2490937B2431
S11324600895EF92FF920F931F9340E050EF60E0C6
S113247070E00090732404C0440F551F661F771F3B
S11324800A94D2F74053584F6F4F7F4F81E020E0BA
S11324900AE212E1EE24FF240E94C1081F910F9169
S11324A0FF90EF900895FF920F931F93DF93CF93C4
S11324B000D00F92CDB7DEB78E010F5F1F4FC8015A
S11324C00E944D0789819A81AB81BC8182559E4FC0
S11324D0AF4FBF4F2091CF233091D0234091D123D0
S11324E05091D22382179307A407B50740F3809134
S11324F080248F3019F488E00E94C80D8E010F5F8C
S11325001F4FC8010E944D0789819A81AB81BC810C
S113251080569F4FAF4FBF4F2091CF233091D02390
S11325204091D1235091D22382179307A407B50772
S113253040F389E00E94C80D893009F08FC085E11D
S113254060E847E021E00E948E0C82E0F82E8E01C4
S11325500F5F1F4FC8010E944D0789819A81AB818B
S1132560BC814496A11DB11D2091CF233091D0236D
S11325704091D1235091D22382179307A407B50722
S113258048F386E00E94C80D88E060E847E021E057
S11325900E948E0C80E990E00E94590781E060E877
S11325A047E00E94760C8130C9F789E00E94C80D8B
S11325B081E060E446E00E94760C8130C9F48091A9
S11325C0CF239091D023A091D123B091D223805CCA
S11325D09E4FAF4FBF4F8093CF239093D023A093B0
S11325E0D123B093D223FA9409F0B4CF04E004C009
S11325F086E10E94C80D00E085E160E847E020E044
S11326000E948E0C043051F58E010F5F1F4FC801DC
S11326100E944D0789819A81AB81BC818096A11D5E
S1132620B11D2091CF233091D0234091D1235091DB
S1132630D22382179307A407B50748F384E090E0F8
S113264080937A2490937B24809183249091842492
S113265060E070E040E00E94231106C083E090E057
S113266080937A2490937B242496CDBFDEBFCF91B0
S1132670DF911F910F91FF9008952F923F924F92F7
S11326805F926F927F928F929F92AF92BF92CF92FE
S1132690DF92EF92FF920F931F93DF93CF9300D0BB
S11326A00F92CDB7DEB760EC73E080E090E000906D
S11326B0642404C0660F771F881F991F0A94D2F7F9
S11326C02091892430918A2440918B2450918C2428
S11326D0620F731F841F951F9F704091732450E0F5
S11326E04E5F5F4F27E130E002C0220F331F4A954F
S11326F0E2F7442737FD4095542F225C3F4F4F4F5C
S11327005F4F0E9406121B012C01CE0101960E940C
S11327104D07A980BA80CB80DC8064E0D694C7944E
S1132720B794A7946A95D1F7A982BA82CB82DC8246
S11327306090892470908A2480908B2490908C24BB
S1132740C601B501A40193010E94061224E130E000
S113275040E050E00E941A38611571058105910529
S113276021F02F5F3F4F4F4F5F4FCA01B90124E162
S113277030E040E050E00E94E7377B018C01E60C3A
S1132780F71C081D191D54E0EE0CFF1C001F111F3F
S11327905A95D1F7D201C10144E0880F991FAA1FAD
S11327A0BB1F4A95D1F7E816F9060A071B0708F07C
S11327B0A7C0C201B101A60195010E94061224E13D
S11327C030E040E050E00E941A386091CD23862F1B
S11327D090E0A0E0B0E0281739074A075B0720F42F
S11327E0621B6093CD238CC0D801C70134E0B69539
S11327F0A795979587953A95D1F72091CE2374E1C3
S1132800279F900111242A5A3F4F442737FD4095B2
S1132810542F820F931FA41FB51FBF7082159305F9
S1132820A405B50508F05BC0679FA00111246627C5
S113283057FD6095762F24E0440F551F661F771FC0
S11328402A95D1F74E0D5F1D601F711F94E0AA0CED
S1132850BB1CCC1CDD1C9A95D1F7DB01CA018A197B
S11328609B09AC09BD0906C0805C9E4FAF4FBF4FAA
S1132870B901A8018A019B01005C1E4F2F4F3F4FF5
S11328808436E5E09E07E0E0AE07E0E0BE0760F3D3
S11328904093CF235093D0236093D1237093D223BA
S11328A04E5A51406040704080E021E003E512E15F
S11328B0EE24FF240E94C108882319F481E090E0EB
S11328C009C08B3829F480E090E00E94531220C0A4
S11328D083E090E080937A2490937B2419C0109233
S11328E0CA230E948A3821E030E00090CB2302C042
S11328F0220F331F0A94E2F7215028232093CD237B
S113290082E090E080937A2490937B240E94311299
S11329102496CDBFDEBFCF91DF911F910F91FF9021
S1132920EF90DF90CF90BF90AF909F908F907F906B
S11329306F905F904F903F902F90089510928E2447
S113294010927A2410927B246091762470917724DB
S11329500E945B2E08958F929F92AF92BF92CF9266
S1132960DF92EF92FF920F931F93DF93CF9300D0E8
S11329700F92CDB7DEB7982E30ECA32E33E0B32EF2
S1132980C12CD12C0090732404C0AA0CBB1CCC1CF9
S1132990DD1C0A94D2F7E0908924F0908A240091F7
S11329A08B2410918C24EA0CFB1C0C1D1D1D8FEF35
S11329B09FEFAFEFBFE0E822F9220A231B23CE01E9
S11329C001960E944D0789819A81AB81BC8124E0E4
S11329D0B695A795979587952A95D1F789839A8374
S11329E0AB83BC8380908924F0918A24E0918B246A
S11329F070918C2460E025C06F5F643051F4E092E4
S1132A008924F0928A2400938B2410938C2480E0F0
S1132A1074C0A80197012A0D3B1D4C1D5D1D8E2C11
S1132A20FF2DE02F712F0F2EFFEFEF2EFFEFFF2E64
S1132A30FFEF0F2FFFE01F2FF02DE222F3220423DC
S1132A401523E816F9060A071B07B0F266C0809141
S1132A507824833020F082E002C08091782480932F
S1132A60CB23992019F01092CC2304C080917924AF
S1132A708093CC23E0918324F09184249081892F46
S1132A808B5F933118F028E230E002C02CE030E094
S1132A90E0917624F09177240284F385E02D9181EE
S1132AA095FF03C0865F205E3F4F90E0880F991F1B
S1132AB0820F931F64E170E00E9406386093CE2376
S1132AC0009721F0862F8F5F8093CE238091CE23B1
S1132AD08E5F8093CE230E948A3821E030E00090FC
S1132AE0CB2302C0220F331F0A94E2F7215028237C
S1132AF02093CD230E943D1381E02496CDBFDEBFF9
S1132B00CF91DF911F910F91FF90EF90DF90CF90C5
S1132B10BF90AF909F908F90089580928924F093F6
S1132B208A24E0938B2470938C2483E080938E24F6
S1132B301092CA2380915724882309F088CF8DCF1F
S1132B4080917A2490917B248630910579F18730A5
S1132B50910540F48330910599F08530910509F091
S1132B6057C022C088309105E9F08830910510F1F2
S1132B708930910509F04CC081E00E94E80742C009
S1132B808091CA238F5F8093CA239091CB239F5F48
S1132B909093CB2320917524291710F42093CB23F1
S1132BA08F3480F181EE03C080E001C087E80E9489
S1132BB09E1408958091CC2390917924891728F547
S1132BC08F5F8093CC2386E10E94C80D8091CB2334
S1132BD08F5F8093CB2390917524981710F4909372
S1132BE0CB231092CA230E948A3821E030E000905F
S1132BF0CB2302C0220F331F0A94E2F7215028236B
S1132C002093CD230E943D13089589EE0E949E14C3
S1132C10089585FD03C0982F9F7304C0982F919544
S1132C209F719195E8EEF1E02491291744F4203E38
S1132C30B4F02032B4F427FF10C0822F0BC03F96AB
S1132C40E4919E178CF4E03E54F0E03254F4E7FF34
S1132C500AC08E2F8F71806207C0822F05C080E268
S1132C6003C08FE101C08E2F8068089585FD03C0E5
S1132C70982F9F7304C0982F91959F71919520E090
S1132C8030E0822FF901E851FE4FE4919E1724F0C1
S1132C90E91744F4815008952F5F3F4F20313105E7
S1132CA081F780E0089584E08093702423E02093EA
S1132CB078248FEF9FEF809365249093662480930C
S1132CC06824909369248BE08093722480E098EFC9
S1132CD0AFEFB7E08093852490938624A093872454
S1132CE0B0938824109263248AE091E08093612455
S1132CF0909362248AE08093812482E080937124FB
S1132D0085E0809375242093792483E80E94091632
S1132D108093582481E08093672410927424109245
S1132D2057248FE0809373248093642408951F9321
S1132D30CF93DF9382E2609165240E94DB0B83E2F0
S1132D40609166240E94DB0BC9E5D4E214E2812F72
S1132D5069910E94DB0B1F5F1C32C9F780E260910E
S1132D6068240E94DB0B81E2609169240E94DB0BE2
S1132D7088E060E645E0209167240E948E0C8FE293
S1132D806FE040E0209178240E948E0C8EE268E08F
S1132D9043E0209174240E948E0C8FE260EF44E0A3
S1132DA0209175240E948E0C88E06FE140E0209110
S1132DB072240E948E0C809158240E943616282F6B
S1132DC085E06FE040E00E948E0CDF91CF911F916F
S1132DD008951F93CF93DF93EB01883411F1893465
S1132DE028F4833491F0873449F513C08435A9F06D
S1132DF0893519F08E3411F504C0888180937924C3
S1132E00E8C0888180937024E4C08881809357242B
S1132E10E0C0888180937324DCC08881809364241B
S1132E20D8C088819981AA81BB8180938924909399
S1132E308A24A0938B24B0938C24CBC0209180242B
S1132E402F3009F4C8C08B3009F4BBC08C3078F43F
S1132E50823009F480C0833018F48823E1F1BDC0C6
S1132E60833009F484C0843009F0B7C063C083356B
S1132E7011F1843530F48F3459F0803509F0ADC048
S1132E800CC0873509F460C0803F09F0A6C076C045
S1132E902881209378248FE267C088819981682FE4
S1132EA0809365249093662482E20E94DB0B83E284
S1132EB0609166240DC088819981682F809368246D
S1132EC09093692480E20E94DB0B81E26091692483
S1132ED00E94DB0B7EC080918E24882309F07FC082
S1132EE080E098EFAFEFB7E0088004C0B695A795EF
S1132EF0979587950A94D2F781709070009709F49A
S1132F0070C0283039F088E00E94C80D8830D9F7A5
S1132F1016E101C018E028812093722488E06FE153
S1132F2040E00E948E0C183009F453C086E10E94E0
S1132F30C80D4FC080918E24882309F050C0888129
S1132F40882309F44FC04DC02881209375248FE253
S1132F5060EF44E03CC088810E94091680935824A5
S1132F600E943616282F85E06FE040E030C02881AB
S1132F702093672488E060E645E029C08881809337
S1132F805924898180935A248A8180935B248B817C
S1132F9080935C248C8180935D248D8180935E2456
S1132FA08E8180935F248F8180936024C9E5D4E26D
S1132FB014E2812F69910E94DB0B1F5F1C32C9F759
S1132FC008C02881209374248EE268E043E00E94C4
S1132FD08E0C80E007C081E805C084EF03C086E85A
S1132FE001C088EEDF91CF911F9108950F931F9335
S1132FF0CF93DF9386E00E94C80D8630D9F785E130
S113300060E847E020E00E948E0C00914906809120
S113301049068C7FE0E4F6E0818718E0C0E0D0E068
S113302086E060E645E00E94760C9E01220F331F85
S1133030220F331FC82FD0E0C22BD32B0000000077
S1133040000000000000000000000000000000007C
S1133050000000000000000000000000115001F713
S113306083E00E94C80D8FE00E94FA0BE0E4F6E0D2
S113307081E084870187CE010E948F38DF91CF9150
S11330801F910F910895EF92FF920F931F93DF9377
S1133090CF930F920F92CDB7DEB7F82E81E065E1A2
S11330A070E041E050E09E012F5F3F4F0E9409060F
S11330B000E416E088E0F80186838CE791E00E9442
S11330C05907EE24E394F801E68281E090E00E943F
S11330D05907F801E58200E084E690E00E94590770
S11330E081E06FE140E00E94760C0A30E9F088301C
S11330F011F00F5FF1CF8093802429812223F1F016
S113310082E16FE040E00E948E0C18C00E945316CA
S11331100E94971610928E2410927A2410927B2487
S113312010926A2480E001C085E80F900F90CF913F
S1133130DF911F910F91FF90EF9008950E94F61771
S113314083E060E344E020E00E948E0C83E068E0CA
S113315043E020E00E948E0C83E067E040E021E041
S11331600E948E0C0E948A38682F8DE29A830E94F6
S1133170DB0B8EE267E040E09A81292F0E948E0CDF
S113318080E00E94481A0E946B1A8EE260E245E0D9
S113319021E00E948E0C8CE060E847E021E00E9470
S11331A08E0C84E062E041E021E00E948E0C8EE00F
S11331B06CE00E94DB0B8DE063E040E021E00E94C4
S11331C08E0C8AE06FE040E023E00E948E0C8DE0DC
S11331D068E043E021E00E948E0C8DE064E042E070
S11331E021E00E948E0CFF2009F492CF8FCF1F9311
S11331F00E944318882329F51FB7F8940E94E80712
S113320081E00E94E8071FBF0AC08BE694E260E0F9
S113321070E00E94890D009711F00E94E90C8091E2
S11332206F24882391F780E19AE10E948305E0E40A
S1133230F6E081E08487809149068360818780E09D
S113324001C085E81F9108951F93CF93DF930E94D7
S1133250F305882309F0DFC0C0E4D6E011E01D8344
S113326088E08E838AE491E00E9459071E8381E0FE
S113327090E00E9459071D831AE003C0115009F41D
S1133280CAC084E690E00E9459078DE10E94FA0BBF
S11332908230A1F78CE10E94FA0B833079F782E047
S11332A068E00E94DB0B10E084E690E00E9459077E
S11332B081E06FE140E00E94760C1A3009F4ABC063
S11332C0883011F01F5FF0CF8093802481E060E0AC
S11332D070E048E050E029E534E20E94090681E00C
S11332E00E944318882351F096C0C9E5D4E20E9495
S11332F08A38899384E2C136D807C9F78091592462
S113330020915A2450915B2460915C2470915D2437
S1133310E0915E24F0915F24A0916024382F315015
S113332041E0381708F040E0822F815091E0821785
S113333008F090E0480F21E0481708F020E0922BB5
S1133340252F215081E0251708F080E0592F520FD6
S113335091E0521708F090E0892B262F215091E03C
S1133360261708F090E0682F620F81E0621708F0DA
S113337080E0982B272F215081E0271708F080E068
S1133380792F720F91E0721708F090E0892B2E2F9D
S1133390215091E02E1708F090E0E82FE20F81E031
S11333A0E21708F080E0982B2F2F215081E02F178F
S11333B008F080E0920FF1E0921708F0F0E08F2B14
S11333C0A195A81779F49F3F69F4EF3F59F47F3F23
S11333D049F46F3F39F45F3F29F44F3F19F43E3FFE
S11333E008F083CF80E19AE10E9483058091490629
S11333F08360E0E4F6E081870E94B10C8AE90E94D0
S1133400E20C8093C7239093C8238BE694E20E9436
S1133410670D80E001C085E8DF91CF911F91089589
S11334208CE794E20E944D078FE00E94FA0B83FF21
S11334300FC020918E24213041F486FF02C081E028
S113344001C080E00E94B71108950E9420100895E1
S113345082FF14C08DE060E847E00E94760C882368
S113346039F48DE063E040E021E00E948E0C089581
S11334708DE063E040E022E00E948E0C08958FE02E
S11334800E94FA0B84FF03C081E080938D24089589
S11334908823C9F4809180248F30B9F080918E24E0
S11334A08823A9F410926A2488E00E94C80D883009
S11334B0D9F780E00E9447078FE00E94C80D8F3043
S11334C041F480E0089588EE089581E8089586E83F
S11334D0089586E80895809180248F3051F488E01F
S11334E00E94C80D883039F481E00E94470780E0CB
S11334F0089582E8089585E8089590918E2499238B
S113350011F09330B9F4883031F40E94C80D109250
S11335106A2488E008958091C7239091C823009776
S113352021F086E10E94C80D03C081E080936A24E3
S113353086E0089586E80895FC01A081B18184E1C4
S11335408C9313966C93139711964D935C931297E7
S113355084EF94E2BF010E946E0D08950F931F93B0
S1133560DF93CF930F920F92CDB7DEB78091AC2447
S11335709091AD246BEE4FEF5FEF0E949C1A109276
S11335809C240FEF1FEF09831A8380E5BE016F5F50
S11335907F4F0E94502B0093AE241093AF241092BF
S11335A0BD241092BE241092BF241092C024109205
S11335B0C1241092C2241092C3241092C4240E94E5
S11335C03A280F900F90CF91DF911F910F9108959A
S11335D0DF92EF92FF920F931F93DF93CF93CDB7B8
S11335E0DEB72F97CDBFDEBF7C01DE011196FC0153
S11335F050814181252F342FF9012FE001900D9244
S11336002150E1F78093AC249093AD248C818230D7
S113361019F48F8198851AC08F818093BD24888581
S11336208093BE2489858093BF248A858093C02497
S11336308B858093C1248C858093C2248D8580934F
S1133640C3248E858093C4248EEF9FEF8093AE2491
S11336509093AF2480E5BE016B5F7F4F0E94502B97
S11336600E946928D7010D911C9181E0F8018083A3
S1133670E182F282EA56FF4F80838F858183DF01E6
S11336801897809159248C9380915A2411968C9385
S1133690119780915B2412968C93129780915C24ED
S11336A013968C93139780915D2414968C9314979E
S11336B080915E2415968C93159780915F241696BD
S11336C08C9316978091602417968C93DF011A9738
S11336D08FEF9FEF8D939C9311978C81823059F4D7
S11336E03C978091AE249091AF248083918383E2B0
S11336F098EC45E11CC072978091BD248083809131
S1133700BE2481838091BF2482838091C0248383DB
S11337108091C12484838091C22485838091C324B1
S113372086838091C424878383E29CEC4BE1DF0190
S1133730129720916524309166242D933C93DF01E8
S113374013972091A8242C932F5F2093A824DF01A2
S113375015978D939C9336974083D8011A96ED93D1
S1133760FC931B9784E0BE016D5F7F4F0E94502B3A
S1133770D82E80E0BE016E5F7F4F0E94502BDD206B
S1133780A9F4882399F48091A624833019F463E082
S113379070E002C062E070E0C80141E00E94931151
S11337A0882321F481E08093F12408C0C70161EEED
S11337B04FEF5FEF0E949C1A0E943A282F96CDBFCC
S11337C0DEBFCF91DF911F910F91FF90EF90DF90BB
S11337D00895FF920F931F93DF93CF930F920F924D
S11337E0CDB7DEB7F090E9240E94E90CFF20B1F5D3
S11337F083E567EE74E20E94502B4091E7245091D8
S1133800E8248091D8248093BD248091D924809386
S1133810BE248091DA248093BF248091DB2480939A
S1133820C0248091DC248093C1248091DD24809382
S1133830C2248091DE248093C3248091DF2480936A
S1133840C42481E08093F02410929C248091A624C7
S1133850833031F582E08093A62422C010929C2408
S11338600FEF1FEF09831A8380E5BE016F5F7F4F5F
S11338700E94502B0093AE241093AF241092BD24C9
S11338801092BE241092BF241092C0241092C1241E
S11338901092C2241092C3241092C4244FEF5FEFFD
S11338A08091AC249091AD246F2D0E949C1A0E94AB
S11338B03A280F900F90CF91DF911F910F91FF90B5
S11338C00895EF92FF920F931F93CF93DF93C091CC
S11338D0B924D091BA2480E061E040E020E030E0F7
S11338E000E010E00E94B822882351F48091AC24B7
S11338F09091AD2461EE4FEF5FEF0E949C1A18C0C7
S1133900AE0160E070E084E0440F551F661F771F2E
S11339108A95D1F785E020E00EEA1AE1EE24FF242F
S11339200E94C108882321F080E090E00E94AE1A32
S1133930DF91CF911F910F91FF90EF9008958F9297
S11339409F92AF92BF92CF92DF92EF920F93DF9349
S1133950CF93CDB7DEB76697CDBFDEBF4C01DC0198
S1133960ED91FC9181818983828193818A839B83F8
S113397084818C8385818D8386818E8387818F83E7
S1133980808588878185898782858A8783858B87D7
S113399084858C87858596858D879E8787858F8787
S11339A08089888B8189898B82898A8B83898B8B97
S11339B084898C8B85898D8B86898E8B268D378D1A
S11339C0A18CB28CC38CD48CCE010196BE01645FF1
S11339D07F4F458D0789E08C0E948102C4010E94BB
S11339E0E90C6696CDBFDEBFCF91DF910F91EF90CA
S11339F0DF90CF90BF90AF909F908F900895EF92FB
S1133A00FF92CF93DF93E82EE7017E01F92EE701C1
S1133A10E881F981238134814581568181816281E4
S1133A200E94E037C7010E94E90CDF91CF91FF901B
S1133A30EF900895EF92FF92CF93DF93E82EE70182
S1133A407E01F92EE701E881F98181819281638108
S1133A500E945F02C7010E94E90CDF91CF91FF90A1
S1133A60EF900895EF92FF920F93CF93DF93E82E98
S1133A70E7017E01F92EE701E881F981BF016E5F5C
S1133A807F4F208D318DE38CF48C81814789028DA9
S1133A900E943E03CE010E94E90CDF91CF910F9169
S1133AA0FF90EF9008950F931F93DF93CF93CDB7BB
S1133AB0DEB72B97CDBFDEBF8C01DC01ED91FC910D
S1133AC082818983838194818A839B8385818C838A
S1133AD086818D8387818E8380858F838185888786
S1133AE08285898783858A8784858B878181BE01C6
S1133AF06F5F7F4F0E94E137C8010E94E90C2B964B
S1133B00CDBFDEBFCF91DF911F910F910895EF924A
S1133B10FF920F93CF93DF93E82EE7017E01F92EF6
S1133B20E701E881F98121813281438154816581F2
S1133B3076818781908501850E94E237C7010E94C2
S1133B40E90CDF91CF910F91FF90EF900895EF92E0
S1133B50FF92CF93DF93E82EE7017E01F92EE70170
S1133B60E881F981AF014D5F5F4F818162810E94DD
S1133B70E337C7010E94E90CDF91CF91FF90EF90EA
S1133B800895EF92FF92CF93DF93E82EE7017E0131
S1133B90F92EE701E881F98181810E94E537C701A7
S1133BA00E94E90CDF91CF91FF90EF900895EF927E
S1133BB0FF92CF93DF93E82EE7017E01F92EE70110
S1133BC0E881F98181810E94AF01C7010E94E90C5B
S1133BD0DF91CF91FF90EF900895EF92FF92CF93F2
S1133BE0DF93E82EE7017E01F92EE701E881F981F0
S1133BF081810E94E637C7010E94E90CDF91CF91D1
S1133C00FF90EF900895CF92DF92EF92FF920F937F
S1133C101F93CF93DF93E82EE7017E01F92EE7018E
S1133C20E881F981048115812681378189E0C82ED4
S1133C30D12CCE0EDF1E818162814381E0840E94FB
S1133C40DB01CE010E94E90CDF91CF911F910F910E
S1133C50FF90EF90DF90CF900895EF92FF92CF9373
S1133C60DF93E82EE7017E01F92EE701E881F9816F
S1133C70818162810E944502C7010E94E90CDF91A3
S1133C80CF91FF90EF900895DC01ED91FC9162815A
S1133C9073818181448125810E9438030895CF93E3
S1133CA0DF932091E7243091E82436FFD7C088239E
S1133CB059F42091D6243091D72480916524909191
S1133CC066242817390761F02091D6243091D7242F
S1133CD08091B2249091B3242817390709F0BEC00B
S1133CE02091D8243091D9248091AE249091AF248E
S1133CF02817390709F4B2C09091D8248091BD24C3
S1133D00981759F59091D9248091BE24981729F5D4
S1133D109091DA248091BF249817F9F49091DB24D0
S1133D208091C0249817C9F49091DC248091C12417
S1133D30981799F49091DD248091C224981769F41E
S1133D409091DE248091C324981739F49091DF2454
S1133D508091C424981709F481C08AE90E94E20C76
S1133D60EC01009709F47AC08881998125E0FC016F
S1133D702083C183D283DC01A956BF4F2C93FD015C
S1133D80389720915924208320915A24218320910B
S1133D905B24228320915C24238320915D2424834B
S1133DA020915E24258320915F2426832091602422
S1133DB0278338972091BD2420832091BE2421831A
S1133DC02091BF2422832091C02423832091C124E5
S1133DD024832091C22425832091C3242683209107
S1133DE0C4242783FD0172972091652430916624B1
S1133DF020833183FD0173972091A82420832F5FB2
S1133E002093A824FD01759723E63CEC208331839D
S1133E10569728E12C93FC01A287B3872091732441
S1133E202F3059F02091F024222329F42091A62444
S1133E30233019F405C0213019F062E070E002C0AB
S1133E4063E070E041E00E949311882321F481E053
S1133E508093F12403C0CE010E94E90CDF91CF913D
S1133E6008954F925F926F927F928F929F92AF923A
S1133E70BF92CF92DF92EF92FF920F931F93DF9343
S1133E80CF9300D00F92CDB7DEB75C01DC010D916A
S1133E901C91D8011A96ED91FC911B978081809317
S1133EA0C824E80FF11D81818093E1241A96CD90F6
S1133EB0DC901B97F6018181928145EC54E280935A
S1133EC0C5249093C62423812093C924B6016C5F32
S1133ED07F4F492E429446944694E3E04E22892E25
S1133EE086948694F3E08F2209F45EC0D60114967A
S1133EF02D913C9115972093CB243093CC24F6013B
S1133F003696B82DB23019F5DA011896FA011086F2
S1133F1011961C92119712961C92129713961C924A
S1133F20139714961C92149715961C92159716962F
S1133F301C92169717961C92D60116962D913C91B9
S1133F40179720873187F601389644E031C0B82DA1
S1133F50B33069F59A01285F3F4FD6011696FC905D
S1133F60DA011896FC924181D90111964C9311976C
S1133F70428112964C931297438113964C93139754
S1133F80448114964C931497458115964C93159738
S1133F90468116964C931697478117964C9317971C
S1133FA0F6013E964AE004C0FB0140E001C042E055
S1133FB0442009F449C086FD08C021913191209321
S1133FC0D6243093D7244E5F08C02091CB2430915F
S1133FD0CC242093D6243093D724B42DB230C1F40A
S1133FE01092D8241092D9241092DA241092DB244F
S1133FF01092DC241092DD241092DE241092DF242F
S1134000208131812093D8243093D9244E5F1CC061
S1134010242D2330C9F420812093D8242181209396
S1134020D92422812093DA2423812093DB24248140
S11340302093DC2425812093DD2426812093DE2413
S113404027812093DF24485FF090C8245BEFF50EAE
S1134050F41AF092E6244092D5248092CA2483FD77
S11340605DC2FB01E40FF11D682F67706093C724E4
S1134070633019F420812093E024D80116962D9101
S11340803D914D915C9119972093E2243093E32460
S11340904093E4245093E524613009F449C061302D
S11340A020F0633009F03AC253C08081918180933B
S11340B0E7249093E82442814093E924477011F067
S11340C04C5F01C043E0DF01A40FB11D8C918093CC
S11340D0EA244F5F582F577090E08077907064E027
S11340E0959587956A95E1F7552311F4882389F00E
S11340F09F01240F311D2093EB243093EC2455238E
S113410011F0550F450F882321F0880F880F880F71
S1134110480F4F1550F4F41AF092ED24E40FF11DFA
S1134120E093EE24F093EF24FDC11092ED24FAC144
S1134130FF2059F0BF2DB63718F086E78093E624A8
S1134140E093E724F093E824EDC11092E624EAC159
S11341502091E024243009F4E5C1253030F42230E4
S113416059F0233009F0DAC111C0273009F4DAC15B
S1134170283009F0D3C10EC0818192818093E72455
S11341809093E82483818093E924CCC18181809336
S1134190E724C8C1218132812093E7243093E824A5
S11341A0238134812093E9243093EA2425812093C8
S11341B0EB24268137812093EC243093ED2494FF63
S11341C0B1C180858093EE24ADC18091C724833032
S11341D061F48091E024843011F0873031F484EB71
S11341E094E2B5010E946E0DA3C180919C2481309C
S11341F009F47FC1813020F0843008F08FC160C1A0
S11342008091A524882309F030C19091F024923044
S113421008F084C18091C724813009F47BC18130C6
S113422020F0833009F07AC112C18091F3248823ED
S113423029F0992319F080E00E944F1E2091D62482
S11342403091D724809165249091662428173907EA
S113425009F064C18091D524823069F42091D82476
S11342603091D9248091AE249091AF242817390736
S113427009F054C13BC0833009F050C19091D82457
S11342808091BD24981709F049C19091D924809157
S1134290BE24981709F042C19091DA248091BF247A
S11342A0981709F03BC19091DB248091C0249817A2
S11342B009F034C19091DC248091C124981709F04D
S11342C02DC19091DD248091C224981709F026C154
S11342D09091DE248091C324981709F01FC1909116
S11342E0DF248091C424981709F018C1F80186814D
S11342F09781A085B18554E0B695A7959795879544
S11343005A95D1F789839A83AB83BC8388E4BE0131
S11343106F5F7F4F0E94502B8091A624982F92505C
S1134320923008F075C0C5010E943E2C8091732420
S11343308F3070F440ECA42E43E0B42EC12CD12C69
S113434004C0AA0CBB1CCC1CDD1C8A95D2F705C08A
S1134350A12C3EE1B32EC12CD12C82E00E94E807AF
S113436027E1822E912C9FEF492E9FEF592E9FEF2C
S1134370692E9FE0792E89819A81AB81BC818A0D57
S11343809B1DAC1DBD1DBF7089839A83AB83BC8309
S11343902091732430E02E5F3F4F740102C0EE0C75
S11343A0FF1C2A95E2F79701442737FD4095542FC7
S11343B0281739074A075B0748F47C018D01E21A84
S11343C0F30A040B150BB801A7010CC08301720199
S11343D0E21AF30A040B150BB801A701480F591F81
S11343E06A1F7B1F7F7084E0440F551F661F771F71
S11343F08A95D1F782E021E003E814E3EE24FF2458
S11344000E94C108882309F0B6CF0E94C93408C0AD
S1134410813009F083C0C5010E943E2C1092A6246D
S11344208091F024823009F483C08091A5248823EC
S113443009F07EC080919C24882309F079C0809182
S1134440B024882309F074C00E943A2871C0809176
S1134450E024833009F040C0C5010E94C224809149
S1134460F024813009F064C03DC08330D1F0843041
S113447019F0823009F052C08091C724882309F0D2
S11344804DC08091F324882341F08091F024815021
S1134490823018F481E00E944F1EC5010E943E2C18
S11344A047C08091C7248330C9F58091E0248830C7
S11344B0A9F586E00E94E807C5010E942B3438C0A4
S11344C00E940C2C8091C724813021F1833031F576
S11344D08091E024833019F0883001F506C0C501CD
S11344E00E94C2240E94B72823C0C5010E945235ED
S11344F01FC08091C724833059F48091E024823016
S113450069F485E00E94E807C5010E94E91B10C018
S1134510813021F4C5010E946E260AC0C5010E94A3
S1134520E90C06C08091F124882309F04ECE5DCEBB
S11345302496CDBFDEBFCF91DF911F910F91FF90E5
S1134540EF90DF90CF90BF90AF909F908F907F902F
S11345506F905F904F900895FC0110826181728189
S11345606115710521F084EB94E20E946E0D0895AB
S11345708F929F92AF92BF92DF92EF92FF920F932E
S11345801F93DF93CF930F920F92CDB7DEB7D82E40
S113459079018AE94A8369830E94E20C4C014A81C9
S11345A06981009709F4EEC0FC01A080B180DD2090
S11345B011F084E001C08BE0F5018083F501818274
S11345C09282D501A956BF4F84E08C9380916824D0
S11345D0909169249C012E5F3F4F2230310510F0E9
S11345E0662359F11897809159248C9380915A2409
S11345F011968C93119780915B2412968C93129749
S113460080915C2413968C93139780915D24149667
S11346108C93149780915E2415968C9315978091B2
S11346205F2416968C9316978091602417968C932A
S1134630179783E290EC52E105C09E938E9383E238
S113464090E85CE0442361F0209165243091662475
S11346500217130729F05E5F3E932E9360E002C0B9
S1134660806461E0423029F49860F701208131814F
S113467019C0433071F49C6018975A5F9D0148E05B
S1134680F70101907F01F90101929F014150C1F7A7
S113469035C02091AE243091AF24FFEF2E3F3F0769
S11346A021F098603E932E9329C09C6018975A5F1E
S11346B02091BD242C932091BE2411962C93119704
S11346C02091BF2412962C9312972091C024139604
S11346D02C9313972091C12414962C931497209112
S11346E0C22415962C9315972091C32416962C93C7
S11346F016972091C42417962C9317971297662324
S113470041F020916524309166242D933C931197B8
S113471003C00D931C9311979D012150304040918B
S1134720A824F90140834F5F4093A8249D0123509E
S11347303040F9018083918314975C93F501A2873B
S1134740B387809173248F3059F08091F0248823AB
S113475029F48091A624833019F405C0813019F01E
S113476062E070E002C063E070E0C50141E00E94D5
S11347709311882321F481E08093F12404C0C401BF
S11347800E94E90C80E00F900F90CF91DF911F9170
S11347900F91FF90EF90DF90BF90AF909F908F901C
S11347A008950F931F93CF93DF93FC01E801A08139
S11347B0B18186E18C9311966C93119712964C9368
S11347C0129713962D933C9314974230F9F415964F
S11347D01C92159716961C92169717961C9217976B
S11347E018961C92189719961C9219971A961C924F
S11347F01A971B961C921B971C961C921C978881D7
S1134800998115968D939C93169706C0159688E00A
S113481009900D928150E1F784EF94E2BF010E9468
S11348206E0DDF91CF911F910F9108950F931F93F8
S1134830DF93CF93CDB7DEB72E97CDBFDEBF8C010C
S1134840DC016D917C91CE010196DB012EE00D908F
S1134850FC010192CF012150D1F7DB0111960D9398
S11348601C93129723E02C93CB018A569F4FFC0193
S113487020832D85218338972091592420832091EA
S11348805A24218320915B24228320915C24238356
S113489020915D24248320915E24258320915F242C
S11348A026832091602427832A81223041F4FC014D
S11348B03A978D819E818083918343E112C038971A
S11348C08D8180838E8181838F8182838885838398
S11348D0898584838A8585838B8586838C85878374
S11348E049E1CF0102972091652430916624DC01CF
S11348F02D933C93CF0103972091A824DC012C93A2
S11349002F5F2093A8249F01255030405A81952F72
S1134910990F990F80E08366906CD9018D939C93D5
S113492036974083DB011A96ED93FC931B970E9404
S11349306928F80180819181209173242F3019F422
S113494062E070E002C063E070E041E00E94931115
S1134950882321F481E08093F1240CC02B813C81D5
S1134960C80161EE4A818E010B5F1F4F0E94D12363
S11349700E943A282E96CDBFDEBFCF91DF911F91C2
S11349800F910895BC01DC01ED91FC9185E18083D8
S11349908091D82481838091D92482838091DA24E0
S11349A083838091DB2484838091DC2485838091BC
S11349B0DD2486838091DE2487838091DF248087B1
S11349C08091E724818784EF94E20E946E0D109217
S11349D0BD241092BE241092BF241092C0241092C1
S11349E0C1241092C2241092C3241092C4248FEFC5
S11349F09FEF8093AE249093AF2408950F931F9359
S1134A0040916824509169244E5F5F4F2091652442
S1134A10309166244230510520F443E009E514E264
S1134A2003C042E008E614E20E94D1231F910F91D3
S1134A300895DC01ED91FC911197E081E43270F46A
S1134A40F0E0EE0FFF1FE850FE4F25913491F9017D
S1134A50309711F0199508950E94E90C08951F9359
S1134A608091F124882381F48091A424882361F027
S1134A7080EA94E260E070E00E94890D009721F0E2
S1134A800E94192511E001C010E08091B824882308
S1134A9059F084EB94E260E070E00E94890D009785
S1134AA019F00E94192511E0812F1F9108950F9389
S1134AB01F93FC01A081B18180E18C9311964C93EA
S1134AC0119712966C93129713960D931D932D9331
S1134AD03C93169784EF94E2BF010E946E0D1F91E0
S1134AE00F9108956F927F928F929F92AF92BF928F
S1134AF0CF92DF92EF92FF920F931F93CF93DF93A6
S1134B00E82EE7017E01F92EE70108811981D80119
S1134B1011967C9111971296BC91F80143815481AE
S1134B20C580D68087809084A184B2847384648491
S1134B30F584A785E684E2FC0BC080919C2488233D
S1134B4021F48091A524882319F0CE0161EE9AC046
S1134B508DE0F8018083F3826A2F6B5FE8E9F0E06F
S1134B60EA1BF109E00FF11F723041F46E5F80918E
S1134B70682490916924929382931DC07330D9F470
S1134B8038976A2F635F80915924808380915A24D7
S1134B90818380915B24828380915C2483838091D0
S1134BA05D24848380915E24858380915F24868341
S1134BB08091602487838091652490916624841772
S1134BC0950729F4772341F0BB2359F402C07723D6
S1134BD019F06E5F92938293BB23C9F020E030E01A
S1134BE002C020E430E0B23021F46E5FD292C2926F
S1134BF00AC03897685FC082D18282829382A4827D
S1134C00B582768267826E5F5293429302C020E03F
S1134C1030E08091A82482938F5F8093A824C901F7
S1134C208160E0FE02C0C9018162A73608F090618C
S1134C303B2F330F330F20E0572F5295550F550F4D
S1134C40507C40E0242B352BDF011297282B392B85
S1134C502D933C93119767FD13C033976083D8015C
S1134C601A96ED93FC931B970E946928F801C1835F
S1134C70D283809173248F3061F462E070E00BC0C2
S1134C80CE0165EE4F2D00E010E098010E945725FB
S1134C9016C063E070E0C80141E00E9493118823CC
S1134CA021F481E08093F1240AC0CE0161EE4F2DFE
S1134CB000E010E098010E9457250E943A28DF91F5
S1134CC0CF911F910F91FF90EF90DF90CF90BF9005
S1134CD0AF909F908F907F906F9008950F931F9344
S1134CE0DF93CF93CDB7DEB72897CDBFDEBFBC012E
S1134CF0FC01908181812091E624222321F4CB01BF
S1134D000E94E90C2BC1E92FF82F8091C924808FD0
S1134D108091E2249091E324A091E424B091E524CD
S1134D20818F928FA38FB48F2091D524218380917A
S1134D30D6249091D72482839383822F8250823009
S1134D4050F51482158216821782108611861286F7
S1134D501386223039F48091D8249091D924848305
S1134D60958323C08091D82484838091D92485831A
S1134D708091DA2486838091DB2487838091DC24EC
S1134D8080878091DD2481878091DE2482878091D1
S1134D90DF2483870AC0128213821482158216824A
S1134DA017821086118612861386808D90918F2427
S1134DB0891761F5248190919224291739F5258169
S1134DC090919324291711F5268190919424291701
S1134DD0E9F42781909195242917C1F420859091B5
S1134DE09624291799F4218590919724291771F411
S1134DF0228590919824291749F423859091992428
S1134E00291721F4CB010E94E90C63C080938F24FD
S1134E1084818093922485818093932486818093D6
S1134E20942487818093952480858093962481851A
S1134E3080939724828580939824838580939924F2
S1134E402091CA2424871786108A118A128A138A09
S1134E50148A158A168A8091CB249091CC24858754
S1134E6096872330C9F48091CD2487878091CE24FE
S1134E70808B8091CF24818B8091D024828B8091F0
S1134E80D124838B8091D224848B8091D324858BED
S1134E908091D424868B0BC0223039F48091CD24A8
S1134EA09091CE248787908B02C0158616868091B8
S1134EB0E124878B8091E624858F8091E72490916B
S1134EC0E824868F978F81E1808384EF94E20E94A7
S1134ED06E0D8091C52484FF41C08091D524823019
S1134EE071F48091D8249091D92489839A83009174
S1134EF0D6241091D72480E060E042E021C08330C2
S1134F0019F58091D82489838091D9248A8380914A
S1134F10DA248B838091DB248C838091DC248D8341
S1134F208091DD248E838091DE248F838091DF2421
S1134F3088870091D6241091D72480E060E043E074
S1134F409E012F5F3F4F07C080E060E040E020E01B
S1134F5030E000E010E00E94B82202C00E943A282B
S1134F602896CDBFDEBFCF91DF911F910F91089599
S1134F70FF920F931F93082F1092F1241092F024A4
S1134F801092F2241092A5241092A62410929C242C
S1134F908FE08093A7241092B02410928F248FEF77
S1134FA080939224809393248093942480939524D3
S1134FB080939624809397248093982480939924B3
S1134FC01092B12488E00E947D1AFFB6F89412E092
S1134FD0812F0E94E8071F5F1830D1F7FFBE00231E
S1134FE091F11092F32482EC97E080939E249093A5
S1134FF09F2480E098E78093B9249093BA24109278
S11350009B2481E080939D2486E0809391241092D8
S1135010BD241092BE241092BF241092C02410927A
S1135020C1241092C2241092C3241092C4248FEF7E
S11350309FEF8093AE249093AF240E948A3880938C
S1135040A824109290241F910F91FF9008958091AD
S1135050F224882371F40E94470780E00E94481AD2
S1135060882321F481E08093F224089581E00E9452
S11350704707089580919024882379F48091B1247E
S1135080882359F48091A624882329F082E00E9481
S11350908307882311F00E94272808950E94241969
S11350A0882399F40E945D0A882389F081E00E9494
S11350B0B8270E943A2880EA94E20E94670D84EBA4
S11350C094E20E94670D80E0089585E8089585E8DC
S11350D008958091F224813049F40E946B1A853836
S11350E029F081E00E9447071092F2240895EF927C
S11350F0FF920F931F93CF93DF93E82EE7017E0176
S1135100F92EE701088119810E946928F8011181AB
S113511080E00E94470781E0112309F480E00E94A7
S1135120F718082F81E00E944707812F0E94B827B3
S11351300E943A2880EA94E20E94950D84EB94E25E
S11351400E94950D84EF94E20E94950DE881F98107
S1135150018380E2808384EF94E2BE010E946E0D9D
S1135160DF91CF911F910F91FF90EF900895DF93FE
S1135170CF9300D00F92CDB7DEB70E9469288FEF8E
S11351809FEF89839A838B839C8383E5BE016F5F42
S11351907F4F0E94502B80E5BE016D5F7F4F0E94C0
S11351A0502B81E00E94B8270E943A282496CDBF54
S11351B0DEBFCF91DF910895BC01DC01ED91FC913C
S11351C0DF01139681818B3409F4C3C08C3488F5D4
S11351D0863009F47CC0873098F4823009F40DC11C
S11351E0833038F4882309F4F8C0813009F00DC104
S11351F0F7C0843009F463C0853008F063C000C18F
S1135200843409F470C0853450F4823409F465C0E0
S1135210833408F065C0873009F0F7C05BC0883478
S113522009F464C08A3409F470C0873409F0EDC00D
S113523066C0843509F466C08535B0F48F3409F44A
S113524093C0803538F48C3409F488C08E3409F066
S1135250DCC087C0823509F48FC0833508F08FC065
S1135260803509F0D2C083C08935F1F08A3540F425
S1135270873591F0883598F4863509F0C6C009C0A1
S11352808D35D1F0803F09F481C08A3509F0BDC065
S11352900EC08091F324B6C080917524B3C0809170
S11352A09E2490919F246FC080917924ABC08091FB
S11352B0B9249091BA2467C080919B24A3C08091A3
S11352C06324A0C080916124909162245CC0809189
S11352D0812498C08091712495C080919D2492C0AE
S11352E0809157248FC0809191248CC0209189246F
S11352F030918A2440918B2450918C2479C08091E0
S1135300732480C0809164247DC08091BD248383F4
S11353108091BE2411968C9311978091BF2412968C
S11353208C9312978091C02413968C931397809139
S1135330C12414968C9314978091C22415968C934F
S113534015978091C32416968C9316978091C42444
S113535040C08091AE249091AF2415C08091A824C0
S113536051C0809170244EC0809178244BC08091AC
S113537065249091662407C08091902443C0809155
S1135380682490916924838394833DC08091592437
S1135390838380915A2411968C93119780915B2476
S11353A012968C93129780915C2413968C93139786
S11353B080915D2414968C93149780915E241596A5
S11353C08C93159780915F2416968C9316978091F1
S11353D0602417968C93179716C08091722412C07C
S11353E020918524309186244091872450918824EB
S11353F0238334834583568306C08091582402C096
S113540080916724838380E001C084EF918192833B
S11354109EE19083818384EF94E20E946E0D08954F
S1135420EF92FF920F931F93DF93CF930F92CDB719
S1135430DEB7082F7B01142F813538F58E3408F040
S113544096C0833409F493C0843468F4853038F406
S1135450823008F08CC0882309F489C0E9C0823402
S113546009F0E6C040C08A3409F447C08B3430F4F4
S11354708434F1F1873409F0DBC079C08B3409F44A
S113548056C08C3409F0D4C05AC0873509F46FC0B3
S1135490883568F4853538F4833508F068C082357A
S11354A009F0C6C051C0863509F0C2C00BC08935A9
S11354B009F45DC0893558F08A3569F0803F09F0F8
S11354C0B7C055C0FB0180818093F324AFC0FB01BA
S11354D080819181A7C0FB01808191818093B9244F
S11354E09093BA24A3C0FB01808180939D249EC025
S11354F0FB0180818093912499C0FB01808180937A
S1135500BD2481818093BE2482818093BF248381C2
S11355108093C02484818093C12485818093C22494
S113552086818093C32487818093C4247FC0FB0138
S1135530808191818093AE249093AF2477C0FB0146
S113554080818093A82472C081E0FB01908199231B
S113555009F480E080939024882331F00E94692824
S113556086E00E947D1A62C00E943A285FC0802FA4
S1135570B7010E94E916982F813871F40E946B1AC2
S1135580802FB7010E94E916982F882309F051C093
S113559081E08093D32303C0882309F04AC090910B
S11355A07524292F30E08091782440917024642F51
S11355B070E0281B31092617370714F4492F481BBC
S11355C050E0FB01E41BF50B21E030E002C0220FA8
S11355D0331F9A95E2F721503040E29FB001E39FD8
S11355E0700DF29F700D112490E0480F591F21E0B7
S11355F030E00AC0F901082E02C0EE0FFF1F0A9422
S1135600E2F76E0F7F1F01968417950799F724E13F
S113561030E0629FC001639F900D729F900D112432
S1135620865F9E4F80939E2490939F2490E001C0B8
S113563094EF112371F08091D323882351F080914A
S11356409024882331F499830E94481A1092D3231A
S11356509981892F0F90CF91DF911F910F91FF9026
S1135660EF9008950F931F93CF93DF938C01FC0168
S1135670C081D181BE016E5F7F4F898141E00E946C
S1135680102A99819A839FE19883898384EF94E215
S1135690B8010E946E0DDF91CF911F910F91089573
S11356A0DF93CF9300D0CDB7DEB79091F224913041
S11356B079F469837A838B830E9469288B81698159
S11356C07A810E94E9168B830E943A288B8102C05A
S11356D00E94E9162396CDBFDEBFCF91DF910895D6
S11356E0883030F4E82FF0E0E05CFD4F84910895B9
S11356F0982F9054903230F4E82FF0E0E85FFD4F9B
S113570084910895803F30F0E82FF0E0E858FE4F90
S11357108491089580E00895CF93DF93EC01E881AC
S1135720F98183E280836183662311F00E943A2821
S113573084EF94E2BE010E946E0DDF91CF91089533
S1135740DF92EF92FF920F931F93DF93CF93CDB726
S1135750DEB72997CDBFDEBFD82E80919C24882345
S1135760E1F58091A5248823C1F599870E946928D1
S1135770ED2C9985F92ED701ED91FC91119781813A
S1135780823031F42481358129833A8342E011C087
S11357908481898385818A8386818B8387818C83B5
S11357A080858D8381858E8382858F838385888799
S11357B043E00281138181E060E09E012F5F3F4F4F
S11357C099870E94B8229985882329F0D092AC2425
S11357D09093AD2406C0C70101C08D2D61EE0E94D7
S11357E08C2B2996CDBFDEBFCF91DF911F910F91F6
S11357F0FF90EF90DF90089580919C24823039F4DB
S11358008091AC249091AD246BEE0E948C2B10926D
S11358109C241092F12408958091C7248823E1F0F8
S113582085E00E94E8078091C724813021F48091AB
S1135830E624882311F46BEE01C060E080919C247F
S1135840823031F48091AC249091AD240E948C2B51
S11358501092F12410929C2408958091B0248823FE
S113586061F08091A524882341F480919C248823AD
S113587021F41092B0240E943A2808952F923F9266
S11358804F925F926F927F928F929F92AF92BF924C
S1135890CF92DF92EF92FF920F931F93DF93CF93F8
S11358A0CDB7DEB76C97CDBFDEBF7C018091A52458
S11358B0882321F58091E7248F708A8387E4BE01D1
S11358C06E5F7F4F0E94502B8091E7249091E824D3
S11358D0807F907024E0969587952A95E1F78983D7
S11358E084E5BE016F5F7F4F0E94502B8091E724B7
S11358F09091E82480709F709093A7244091A524F0
S1135900423011F0443069F480919D24882349F099
S1135910E091AC24F091AD24A081B181FD013996D0
S113592004C0A0E0B0E0E0E0F0E06091D524809114
S1135930D6249091D724623069F4188619861A8681
S11359401B861C861D862091D8243091D9242E8351
S11359503F8318C02091D8242E832091D9242F83EB
S11359602091DA2428872091DB2429872091DC24C4
S11359702A872091DD242B872091DE242C872091F7
S1135980DF242D8770917224109163246090E724A2
S11359907090E8242091E924022F001F0027001FA3
S11359A05090E1248090E2249090E324A090E42499
S11359B0B090E524423019F0443009F077C02091CA
S11359C09D24222309F472C01896CC9018974E8116
S11359D05F814E803F8028842985288F3A85398FBE
S11359E02B852A8F3C853B8F2D852C8FDD2435C05C
S11359F0218132818217930771F52081621759F54D
S1135A002385721741F52485121729F5623031F484
S1135A102381348142175307F1F448C023812415AC
S1135A20D1F424812315B9F425812215A1F426810A
S1135A30388D231781F42781398D231761F420854C
S1135A403A8D231741F421853B8D231721F42285B8
S1135A503C8D231759F1D3947596DC1448F210C188
S1135A60AF019E012D5F3F4F0F2EF5E1DF2EF02D8C
S1135A701F01F90101909F01FA010192AF01DA942B
S1135A80C1F7F101608381839283738714876586EC
S1135A9076860787508A818A928AA38AB48A18965E
S1135AA02C9118972F5F18962C9318972091EA241D
S1135AB057E0D52ED22230E02077307044E035957F
S1135AC027954A95E1F7C22E2091ED24222329F44B
S1135AD020919D24222309F03FC0D701ED91FC9130
S1135AE027E120832091C92421839F012E5F3F4F0A
S1135AF0DE01139645E11F010D90F90101929F010A
S1135B004150D1F7F10162838383948375871687AB
S1135B106786708A018B528A838A948AA58AB68A98
S1135B208091EA24878BDD2011F4CC2031F0809120
S1135B30EB249091EC24808F918F8091ED24828FBF
S1135B408091EE249091EF24838F948F84EF94E2DC
S1135B50B7010E946E0D03C0C7010E94E90C809139
S1135B60A524882349F58091C52484FF23C081E0BE
S1135B708093B02480919C248823F1F440919E2446
S1135B8050919F2460E070E004E0440F551F661FAD
S1135B90771F0A95D1F785E020E00DE21CE2EE24A0
S1135BA0FF240E94C108882339F080E090E00E941D
S1135BB02D2C02C01092B0248091A524882309F0D2
S1135BC064C080919D24882309F45FC08091A62439
S1135BD0882309F45AC08091EB249091EC242091FD
S1135BE0682430916924FC0160E009C0419151911D
S1135BF04217530719F480E060E036C06F5F6D15FB
S1135C00A8F3B0915924A0915A2470915B24609117
S1135C105C2450915D2440915E2430915F24209156
S1135C206024ED2DF0E0EE0FFF1FE80FF91F80E078
S1135C3024C0508061808280D380E48005811681F5
S1135C40978138965B16C1F46A16B1F48716A1F4ED
S1135C50D61691F4E51681F4041771F4131761F460
S1135C60921751F480E061E040E020E030E000E091
S1135C7010E00E94B82209C08F5F8C15D0F205C0D5
S1135C802C2D253008F4ECCE11CF6C96CDBFDEBFA1
S1135C90CF91DF911F910F91FF90EF90DF90CF9004
S1135CA0BF90AF909F908F907F906F905F904F9038
S1135CB03F902F900895EF92FF920F931F93DF93DD
S1135CC0CF930F92CDB7DEB7482F7B011092F1240A
S1135CD08091A524823029F4FB018081873059F416
S1135CE006C0833041F4FB018081863021F4842F87
