:100000000C94D8000C94F7000C94F7000C94F700B3
:100010000C94F7000C94F7000C94F7000C94F70084
:100020000C94F7000C94F7000C94F7000C94F70074
:100030000C94F7000C94F7000C94F7000C94F70064
:100040000C94F7000C94F7000C94F7000C94F70054
:100050000C94F7000C94F7000C94F7000C94F70044
:100060000C94F7000C94F7000C94F7000C94F70034
:100070000C94F7000C94F7000C94F7000C94F70024
:100080000C94F7000C94F7000C94F7000C94F70014
:100090000C94F7000C94F7000C94F7000C94F70004
:1000A0000C94F7000C94F7000C94F7000C94F700F4
:1000B0000C94F7000C94F7000C94F7000C94F700E4
:1000C0000C94F7000C94F7000C94F7000C94F700D4
:1000D0000C94F7000C94F7000C94F7000C94F700C4
:1000E0000C94F7000C941A060C9424060C94100639
:1000F0000C948F050C94BA050C942E060C94640590
:100100000C94E5050C94160B0C943F0B0C94F70023
:100110000C94F7000C94F7000C9442060C943806EB
:1001200004030302020100FFFEFDFCFBF9F7F4EFFC
:10013000DB1FDB180B1A352AA52B1D2600329B2D41
:10014000BF2D0E2DC8353E3800002F3D83320000F4
:10015000D91C761CF01C1F1D071DEC1DB21D3F1D78
:1001600000000000271E861E601DDE1E0C1EB01E35
:100170005A1E701EC81E441E010401010102010125
:100180000101010101010101040108020101010154
:100190000201010201020101020102020101010149
:1001A00022011101040104010101010802020800F9
:1001B00011241FBECFEFD1E4DEBFCDBF12E0A0E01F
:1001C000B2E0E0E8F7E800E00BBF02C007900D9254
:1001D000A032B107D9F718E0A0E2B2E001C01D9249
:1001E000A33AB107E1F70E94FF000C94BE430C94C0
:1001F000000081E090E061E00E94FE0B08950E9403
:10020000203F882311F00E94D70681E08093AB063F
:100210001092AC061092AD061092AE061092AF0688
:1002200088E48093B0068EED8093B1068CEA8093CB
:10023000B2060E94F50B80E090E060E00E94FE0BA9
:1002400080E090E061E00E94FE0B81E090E061E0E0
:100250000E94FE0B789481E00E9408410E94273F93
:10026000FDCFDF93CF9300D0CDB7DEB7882361F405
:1002700082E2898381E18A8383E560E0AE014F5F9A
:100280005F4F0E94444103C081E00E9408410F90EB
:100290000F90CF91DF9108959F92AF92BF92CF922E
:1002A000DF92EF92FF920F931F93DF93CF93CDB71F
:1002B000DEB7A7970FB6F894DEBF0FBECDBF882379
:1002C00009F023C1623709F448C0633780F462350E
:1002D00051F1633530F4613411F16C3409F015C11A
:1002E00004C16335C1F0613709F00FC111C1653731
:1002F00081F1663738F4633709F4F0C0643709F0E8
:1003000004C170C0673709F403C16737D0F06C3798
:1003100009F0FBC012C081E0898381E4E1C081E083
:10032000898382E5DDC081E040E050E060E170E07B
:1003300024E000E00E94A741EBC081E0898386E7CA
:10034000CFC081E08E831F8295E09887898785E7FB
:10035000C0C081E0898382E7C3C0609101025091EF
:100360000202409103023091040220910502909113
:10037000060280910702709100027E836F83588786
:1003800049873A872B879C878D8781E08E878F8767
:10039000888B198A1A8A1B8A8C8B8D8B1E8A8F8B6D
:1003A00080EC888F81EC898F82EC8A8F83EC8B8F35
:1003B00084EC8C8F85EC8D8F86EC8E8F87EC8F8F05
:1003C00088EC88A389EC89A38AEC8AA38BEC8BA3A5
:1003D0008CEC8CA38DEC8DA38EEC8EA38FEC8FA375
:1003E00081E777C03091B6062091B7069091200240
:1003F0008091210210912202F0902302E0902402C9
:10040000D0902502C0902602B0902702A09028022A
:10041000909029023E832F83988789871A87212FFE
:100420003F2D4E2D5D2D6C2D7B2D8A2D992D08E0B5
:100430000E944C422B87212F3F2D4E2D5D2D6C2D80
:100440007B2D8A2D992D00E10E944C422C87212F73
:100450003F2D4E2D5D2D6C2D7B2D8A2D992D08E184
:100460000E944C422D87212F3F2D4E2D5D2D6C2D4E
:100470007B2D8A2D992D00E20E944C422E87212F40
:100480003F2D4E2D5D2D6C2D7B2D8A2D992D08E253
:100490000E944C422F87212F3F2D4E2D5D2D6C2D1C
:1004A0007B2D8A2D992D00E30E944C42288B212F11
:1004B0003F2D4E2D5D2D6C2D7B2D8A2D992D08E322
:1004C0000E944C42298B1A8A1B8A1C8A1D8A1E8A0A
:1004D00083E760E0AE014A5F5F4F14C019828CE48D
:1004E00060E0AE014F5F5F4F0DC081E090E0A0E0A3
:1004F000B0E08A839B83AC83BD8387E760E0AE0175
:100500004E5F5F4F0E94444103C081E00E9408415A
:10051000A7960FB6F894DEBF0FBECDBFCF91DF9187
:100520001F910F91FF90EF90DF90CF90BF90AF9011
:100530009F900895AF92CF92EF920F938AEA9AE13B
:1005400064E140E02FE00FE0EE24E394CC24AA2401
:100550000E94DA410F91EF90CF90AF9008958823D9
:1005600061F480E090E060E00E94FE0B8CE760E0C8
:1005700040E052E00E944441089581E00E94084119
:100580000895EF920F931F93A0912002B091210242
:10059000109701F1E0912202E217E1F4E0912302C9
:1005A000E317C1F4E0912402E417A1F4E0912502DD
:1005B000E51781F4E0912602E61761F4E091270245
:1005C000E71741F4E0912802E81721F4E0912902AD
:1005D000E91749F1E0912A02F0912B02309701F1DD
:1005E00000912C020217E1F400912D020317C1F4CF
:1005F00000912E020417A1F400912F02051781F437
:1006000000913002061761F400913102071741F49E
:1006100000913202081721F400913302091729F0E2
:100620001097A9F418C0E0E001C0E1E0AE2FB0E0FF
:10063000FD01EE0FFF1F13E0AA0FBB1F1A95E1F794
:10064000EA0FFB1FE05EFD4F0081118123C0309750
:1006500019F5E1E001C0E0E0F0E08F010C5B1C4C1B
:10066000DF01AA0FBB1FEE0FFF1FEE0FFF1FEE0FE4
:10067000FF1FAE0FBF1FA05EBD4FFD010193119381
:1006800012962C931297318342835383648375832C
:1006900086839783EE2404C00FEF1FEFEE24E394CC
:1006A0000E9412401F910F91EF900895DF93CF9316
:1006B0000F92CDB7DEB7442349F481E0898384E704
:1006C00060E0AE014F5F5F4F0E9444410F90CF91B9
:1006D000DF910895EF92FF920F931F93DF93CF93D3
:1006E000CDB7DEB781E090E060E00E94FE0B85E0D0
:1006F00040E251EA67E070E020E009EF10E0EE240C
:10070000FF240E949009CF91DF911F910F91FF90DC
:10071000EF9008950F931F93DF93CF930F92CDB770
:10072000DEB789838A30A9F48DE089838E010F5F5B
:100730001F4F02C00E945F0682E0B80141E00E94A4
:100740003E058823B9F38AE0898303C00E945F06CF
:1007500003C08E010F5F1F4F82E0B80141E00E948D
:100760003E05882399F380E090E00F90CF91DF91D0
:100770001F910F9108950F931F93DF93CF930F92C3
:10078000CDB7DEB78E010F5F1F4F02C00E945F061C
:1007900082E0B80141E00E9447058823B9F38981CE
:1007A00090E00F90CF91DF911F910F910895DF930B
:1007B000CF930F92CDB7DEB70E945F0682E0BE01F5
:1007C0006F5F7F4F41E00E944705813019F4298116
:1007D00030E002C02FEF3FEFC9010F90CF91DF91C2
:1007E00008950F931F93CF93DF938C01EB010CC0FF
:1007F00082E0B8014C2F0E943E0590E0C81BD90B47
:10080000080F191F0E945F061C161D068CF3DF914E
:10081000CF911F910F910895759A6D9A749A6C9A61
:100820006F986E989A9AA29A8FEF84B982E285B9EE
:1008300000000000A29814B815B802C07598759A07
:10084000679BFCCF5E98569A5F98579A08952091BF
:100850003502222361F530913E0220913C0232178D
:1008600010F0275F01C02150231B522F621708F49C
:10087000562F20913402250F2093340240913E02DE
:10088000282F392FD901852F0CC09D91E42FF0E03E
:10089000E15AF94F9083493011F04F5F01C040E0B9
:1008A0008150882391F740933E02852F089580E080
:1008B00008951F9320913A02222379F12A3050F0B3
:1008C00020913B0220933D022AE020933A026A30B5
:1008D00028F405C0261718F4622F01C06AE0409181
:1008E0003D0210913A02282F392FD901862F0BC0D3
:1008F000E42FF0E0E759F94F90819D934F5F4A3024
:1009000009F440E08150882399F740933D02812FFC
:10091000861B80933A02862F01C080E01F910895C4
:10092000DF93CF9300D000D0CDB7DEB78CB187FD79
:100930001DC090913A029A30C8F49F5F90933A029A
:1009400014B815B875980000000090913B0223B1CF
:10095000E92FF0E0E759F94F2083759A993019F49F
:1009600010923B0203C09F5F90933B023091340290
:10097000332309F05BC073C00097F1F4442349F0BE
:1009800010923602109237021092380210923902F9
:1009900040E064B9E22FF0E0E15AF94F708175B997
:1009A0007498749A14B815B8293011F02F5F01C0EB
:1009B00020E05150315043C040933502309334020F
:1009C00020933C02442309F04AC080913602909162
:1009D0003702A0913802B09139020097A105B10504
:1009E00029F486E392E00E94ED0739C0CE0101961A
:1009F0000E94ED0789819A81AB81BC8120913602EA
:100A0000309137024091380250913902821B930B8A
:100A1000A40BB50B893823E1920720E0A20720E060
:100A2000B207E8F081E08093350219C040913502A9
:100A300020913C025FEF90E0807490706FEF332361
:100A400029F4409335021092340207C0552309F06F
:100A500093CF409335023093340220933C020F90A1
:100A60000F900F900F90CF91DF910895823021F475
:100A70000E940C0480E0089585E80895823029F4EE
:100A8000CB01642F0E942704089580E008958230EE
:100A900029F4CB01642F0E945904089580E0089541
:100AA0009093460280934502089590934402809368
:100AB00043020895909342028093410208959093D7
:100AC000400280933F0208951F920F920FB60F923B
:100AD0000BB60F9211242F933F934F935F936F9315
:100AE0007F938F939F93AF93BF93EF93FF93E09187
:100AF0004502F09146020995FF91EF91BF91AF91A8
:100B00009F918F917F916F915F914F913F912F9125
:100B10000F900BBE0F900FBE0F901F9018951F9255
:100B20000F920FB60F920BB60F9211242F933F9393
:100B30004F935F936F937F938F939F93AF93BF93E5
:100B4000EF93FF93E0914302F09144020995FF91E6
:100B5000EF91BF91AF919F918F917F916F915F9135
:100B60004F913F912F910F900BBE0F900FBE0F90A2
:100B70001F9018951F920F920FB60F920BB60F92FF
:100B800011242F933F934F935F936F937F938F9392
:100B90009F93AF93BF93EF93FF93E0914102F09146
:100BA00042020995FF91EF91BF91AF919F918F9173
:100BB0007F916F915F914F913F912F910F900BBE5D
:100BC0000F900FBE0F901F9018951F920F920FB6A7
:100BD0000F920BB60F9211242F933F934F935F9375
:100BE0006F937F938F939F93AF93BF93EF93FF93F5
:100BF000E0913F02F09140020995FF91EF91BF9182
:100C0000AF919F918F917F916F915F914F913F91A4
:100C10002F910F900BBE0F900FBE0F901F90189545
:100C20001F920F920FB60F9211240F900FBE0F90CC
:100C30001F9018951F920F920FB60F9211240F90CC
:100C40000FBE0F901F9018951F920F920FB60F9224
:100C500011240F900FBE0F901F9018951F920F92A6
:100C60000FB60F9211240F900FBE0F901F90189582
:100C70001F920F920FB60F9211240F900FBE0F907C
:100C80001F9018951F920F920FB60F9211240F907C
:100C90000FBE0F901F90189584B714BEA89588E1D9
:100CA0000FB6F89480936000109260000FBE0E940F
:100CB000E8060E94BF070E94560C80E008950E943B
:100CC000DC0A0E9490040895CF92DF92EF92FF9287
:100CD0000F931F93CF93DF938B01EA01813031F49F
:100CE000862F642FA9010E94620B21C08823E1F4A2
:100CF000CA01860F971F40E181309407B8F4C22ED5
:100D0000D32EEE24FF240BC0C701800F911F0E9439
:100D10004C43F60181936F010894E11CF11CEC1621
:100D2000FD0690F380E003C088EE01C085E8DF9106
:100D3000CF911F910F91FF90EF90DF90CF9008958A
:100D4000AF92BF92CF92DF92EF92FF920F931F93D9
:100D5000CF93DF93EC016B01CB018C0F9D1F20E142
:100D600081309207C0F4E42EF52E00E010E00EC0B2
:100D7000CE010E944C43F70161917F01861719F063
:100D8000CE010E94544321960F5F1F4F0C151D0585
:100D900078F380E001C085E8DF91CF911F910F913A
:100DA000FF90EF90DF90CF90BF90AF9008950E949A
:100DB000F50B8FEF9FEF0E94230880E090E062E048
:100DC0000E94FE0B81E090E062E00E94FE0BF1CFFA
:100DD0008FB7F894E0E0F0E099E090935700E49149
:100DE0008FBFEF70E23011F48FE001C080E090E03F
:100DF00020E80FB6F89420936100809361000FBE45
:100E000080E1809335018093340180933301809396
:100E100032010895AF92BF92CF92DF92EF92FF928C
:100E20000F931F9379018A01E626F72608271927D1
:100E3000A12CB12CC12CE8EFDE2EEA20FB200C21E6
:100E40001D21E114F1040105110539F4E1E06217F7
:100E500073078407950750F008C097705770E1E05A
:100E6000261737074807590708F0E0E08E2F1F9133
:100E70000F91FF90EF90DF90CF90BF90AF900895CB
:100E8000AF92BF92CF92DF92EF92FF920F931F9398
:100E900080914E0290E0FC01A3E0EE0FFF1FAA95A7
:100EA000E1F7E80FF91FED58F94FE080F18002817A
:100EB000138180914B02882309F453C01093F800EA
:100EC0000093F700F092F600E092F5008091DF00C9
:100ED00080FD08C081E08093E0008091DF008160A8
:100EE0008093DF008091E100282F8091E200382F6D
:100EF0008091E300482F8091E400582F2F5F3F4FEF
:100F00004F4F5F4FC801B7010E940A07882329F598
:100F100080915D01883050F58091470290914802A0
:100F2000A0914902B0914A020196A11DB11D8E15F2
:100F30009F05A007B107D1F42091E100A22E2091D6
:100F4000E200B22E2091E300C22E2091E400D22EC6
:100F5000A816B906CA06DB0679F781E08093A906D0
:100F600005C08091DF008E7F8093DF001F910F917D
:100F7000FF90EF90DF90CF90BF90AF9008951092C8
:100F80004B021092A9068FEF80934E0280934C0281
:100F900080934D02E7E7F6E0848311821082399650
:100FA00096E0ED3AF907C1F790E29093B60098EA1F
:100FB0009093DC009FE09093F4008093F300809383
:100FC000F2008093F10082E08093E0008091DF00E6
:100FD00082608093DF00089508952091DE0020FD57
:100FE000FCCF6091E100262F6091E200362F6091E6
:100FF000E300462F6091E400562FB4E0220F331F28
:10100000441F551FBA95D1F7FC01208331834283D9
:10101000538308956091E900262F6091EA00362FEE
:101020006091EB00462F6091EC00562F64E0220F98
:10103000331F441F551F6A95D1F7FC01208331836C
:101040004283538308958436910520F44FB7F89472
:1010500051E01CC040E050E019C097FF03C02FEFE3
:101060003FE701C09C01821B930B220F331F309579
:1010700021953F4F30932501209324017ABB609343
:101080002101D09BFECF1092210102C071E062E0ED
:10109000009719F751114FBF089590E0FC01A3E0AC
:1010A000EE0FFF1FAA95E1F7E80FF91FED58F94F72
:1010B00081E0248135812115310509F480E008950E
:1010C0001F931FB7F8948091A906882309F44CC098
:1010D0001092A90620914B02222309F445C0809169
:1010E0004C028F3F59F480914D028F3F39F480912B
:1010F0004E0280934D0280934C0212C030914E02FA
:1011000080914D0290E0FC0143E0EE0FFF1F4A95F5
:10111000E1F7E80FF91FED58F94F308730934D0292
:1011200080914E0290E0FC0133E0EE0FFF1F3A95F4
:10113000E1F7E80FF91FED58F94F808580934E02D3
:1011400080914D0290E0FC01B3E0EE0FFF1FBA95D5
:10115000E1F7E80FF91FED58F94F8FEF8087215025
:1011600020934B020E9440071FBF1F9108950F93C9
:101170001F93082F863008F0CDC01FB7F8940E9447
:10118000600840914B02442309F45BC050914E0229
:10119000252F352F02C0232F382F031709F041C008
:1011A000802F90E0051781F4FC0163E0EE0FFF1F34
:1011B0006A95E1F7E80FF91FED58F94F80858093A4
:1011C0004E020E94400719C030E0F90153E0EE0FD3
:1011D000FF1F5A95E1F7E20FF31FED58F94FDC01BD
:1011E00043E0AA0FBB1F4A95E1F7A80FB91FAD58FE
:1011F000B94F18968C9118978087802F90E0FC014A
:1012000033E0EE0FFF1F3A95E1F7E80FF91FED58B5
:10121000F94F8FEF808780914B02815080934B0272
:1012200065C0832F90E0FC0123E0EE0FFF1F2A959D
:10123000E1F7E80FF91FED58F94F8085415009F0AB
:10124000AACF40914C02342F242F4BC00217D9F55E
:1012500020914D020417B1F4021721F48FEF80930F
:101260004D020DC0802F90E0FC01B3E0EE0FFF1F98
:10127000BA95E1F7E80FF91FED58F94F8085809393
:101280004C0234C0832F90E0FC01A3E0EE0FFF1F5F
:10129000AA95E1F7E80FF91FED58F94F802F90E07C
:1012A000DC0173E0AA0FBB1F7A95E1F7A80FB91F05
:1012B000AD58B94F18968C91189780870217B1F4E2
:1012C00030934D0213C0822F90E0FC0163E0EE0FDB
:1012D000FF1F6A95E1F7E80FF91FED58F94F322F1C
:1012E00020852F3F09F0B2CF80E00FC0802F90E023
:1012F000FC0153E0EE0FFF1F5A95E1F7E80FF91FCD
:10130000ED58F94F1582148281E01FBF882321F028
:1013100080E003C08AE801C089E81F910F91089519
:101320003F924F925F926F927F928F929F92AF9275
:10133000BF92CF92DF92EF92FF920F931F93DF93B2
:10134000CF9300D000D0CDB7DEB7D82E2801FA82D7
:10135000E982863008F0F6C00115110509F4F6C0DF
:10136000082F10E01C830B83F801A3E0EE0FFF1F92
:10137000AA95E1F7E00FF11FED58F94F84819581AF
:10138000009709F0E1C0F4E0769567955795479589
:10139000FA95D1F7222321F0213009F0D7C020C0DF
:1013A000DB01CA010897A109B109883F1FEF910726
:1013B0001FEFA10717E0B10708F0CAC08091E10054
:1013C000682E8091E200782E8091E300882E809133
:1013D000E400982E460D571D681D791D7F7021C0B1
:1013E0002091E100822F2091E200922F2091E300D2
:1013F000A22F2091E400B22F8A019B01081B190B38
:101400002A0B3B0BD901C801BF700897A109B1098C
:10141000883F1FEF91071FEFA10717E0B10708F002
:1014200097C03FB6F894EFEF6E2EEFEF7E2EEFEF02
:101430008E2EEFE09E2E64227522862297220E9435
:101440006008E0904E022E2D2F3F31F0A0904B020D
:10145000BE2CFE2CCC2451C0D0924E02EB81FC81DC
:1014600033E0EE0FFF1F3A95E1F78B819C81E80F87
:10147000F91FED58F94FE08644C09F2D9F3FE1F1E1
:101480008F2D90E08C0123E0000F111F2A95E1F7CA
:10149000080F191F0D58194FD8016D917D918D912D
:1014A0009C91A40193010E940A07882321F0BF2C7C
:1014B000F801F08421C0EB81FC8103E0EE0FFF1FF7
:1014C0000A95E1F70B811C81E00FF11FED58F94FF0
:1014D000F086EF1419F4D0924E0213C08B2D90E0D9
:1014E000FC0113E0EE0FFF1F1A95E1F7E80FF91F5B
:1014F000ED58F94FD08605C0C394CA1408F4BDCF87
:101500003EC0EB81FC81B3E0EE0FFF1FBA95E1F71F
:101510002B813C81E20FF31FED58F94F60827182FD
:10152000828293825582448289819A8197838683BD
:1015300080914B028F5F80934B020E9440073FBE19
:1015400080E007C08AE805C088E803C088EE01C0D3
:101550008BE80F900F900F900F90CF91DF911F911C
:101560000F91FF90EF90DF90CF90BF90AF909F9042
:101570008F907F906F905F904F903F9008958B2D4C
:1015800090E0FC01A3E0EE0FFF1FAA95E1F7E80F42
:10159000F91FED58F94FD086EB81FC8173E0EE0F17
:1015A000FF1F7A95E1F7AB81BC81EA0FFB1FED5875
:1015B000F94F8FEF8087A5CF1F930E9460081FEF20
:1015C0002FC03FB7F89480914C0290E0DC0123E0FB
:1015D000AA0FBB1F2A95E1F7A80FB91FAD58B94F45
:1015E00018962C9118971496ED91FC9115971696D4
:1015F0008D919C91179718961C93189715961C928D
:101600001E92149717961C921E92169720934C02C6
:101610002F3F11F410934D023FBF309709F0099509
:1016200080914C028F3F69F61F9108951F920F928F
:101630000FB60F9211242F933F938F939F93309166
:10164000E1002091E2009091E3008091E40030936A
:101650004702209348029093490280934A02809166
:101660004B02882319F081E08093A9069F918F9106
:101670003F912F910F900FBE0F901F9018951F92C2
:101680000F920FB60F9211248F938FEF8093E40087
:101690008093E3008093E2008093E1008F910F90AC
:1016A0000FBE0F901F9018955E9A569A5F98579AA2
:1016B0006C9A7498749A5E98569A5F98579A08959F
:1016C00081E008950F931F93DF93CF93CDB7DEB7DB
:1016D000C254D0400FB6F894DEBF0FBECDBF082F66
:1016E000162FCA01749A759A6C9A6D9A5E9A5F9ACF
:1016F000569A579AA2989A9AA5989D9A14B815B88E
:1017000027E024B923E52CBDFE01319620E033E02B
:10171000A59800000000000000000000000000008C
:1017200000000000000000000000000000000000B9
:1017300000003EBD0DB407FEFDCF422F4F774EBDDA
:101740000DB407FEFDCF1EBC0DB407FEFDCF4EB598
:10175000A59A41932F5F2034D9F61CBC209822967D
:101760008FAF229723969FAF23970E940C04BE0150
:101770006F5B7F4F20E030E0FE01319623969FADF6
:10178000239722968FAD229741912427022E2295EE
:10179000207F2025032E322F22952F70022626959A
:1017A00032272327220F220F220F2025E617F707C3
:1017B00059F72115310561F49E012F5F3F4F200F2E
:1017C000311DB901412F50E00E943C4380E001C02F
:1017D00085E8CE5BDF4F0FB6F894DEBF0FBECDBFFE
:1017E000CF91DF911F910F91089510924F02209A8F
:1017F000219A289A299A0E94540B089555B15C7F2A
:10180000209A219A41E08130910509F040E0662359
:1018100029F070914F02613061F415C081E090E0D1
:1018200002C0880F991F4A95E2F720914F02282B9A
:1018300013C0272F30E0042E02C0359527950A9457
:10184000E2F720FF0CC021E030E002C0220F331F7E
:101850004A95E2F72095272320934F020AC081E0A2
:1018600090E002C0880F991F4A95E2F7872B80937A
:101870004F0280914F0280958370852B85B90E941D
:10188000540B089508955E9A569A5F98579A7598E2
:101890006D9A289A209893B1759A209A5E98569AD4
:1018A0005F98579A81E090FD80E00895A59A9D9AEF
:1018B0000895EF92FF920F931F93CF93DF9380E5EC
:1018C00092E00E940F0D05E512E09BEEE92E95E0F7
:1018D000F92EC0E0D0E0F70111830083BE01660F4E
:1018E000771F660F771F65517A4F80E592E00E945F
:1018F000160D219607561F4F84E090E0E80EF91E62
:10190000C630D10541F7DF91CF911F910F91FF9024
:10191000EF90089580E592E060E070E00E94310D64
:101920000895BC01009721F080E592E00E94160D19
:1019300008956F927F928F929F92BF92CF92DF9283
:10194000EF92FF920F931F93CF93DF938C014B0184
:101950006A01BFB6F894DC0114968C911497882321
:1019600009F44BC0CD91DC91119741155105C1F09F
:101970007E0113C0F601628173810190F081E02D38
:10198000888199810995882371F47E019A818B81E0
:10199000692EE3013E01782EE301209759F72FC00D
:1019A000209769F17E018114910449F5D8012D91A8
:1019B0003C9111978A819B81C217D30721F411961C
:1019C0009C938E9303C0F70193838283D801129670
:1019D0008D919C911397C817D90721F41396FC9207
:1019E000EE921297F80184818150848380819181E5
:1019F000009729F41382128202C0C0E0D0E0BFBE7B
:101A0000CE01DF91CF911F910F91FF90EF90DF906A
:101A1000CF90BF909F908F907F906F900895FC0122
:101A2000118210821382128214820895FC019FB7E2
:101A3000F8948481882319F47183608306C0A2819D
:101A4000B38113967C936E93129773836283DB0149
:101A500013961C921E92129784818F5F84839FBF7E
:101A60000895AB0160E070E00E94990C0895AB010D
:101A700061E070E00E94990C0895CF93DF93EC0130
:101A80000BC0CE0160E070E00E94310D009711F4B0
:101A90001C8205C00E94910C8C81882391F7DF91F4
:101AA000CF91089508958091CA06809304068F30DF
:101AB00011F40E94641880910802882319F4E5E06B
:101AC000F6E002C0E5E1F6E080E1919190933F01FC
:101AD0008150D9F78091030680933C01089580914D
:101AE00004068F3019F480E00E9442180895FC012A
:101AF00080E1919190933E018150D9F78091030646
:101B0000806880933C0180913D0180FFFCCF089567
:101B1000DF93CF93CDB7DEB762970FB6F894DEBFF1
:101B20000FBECDBF0097A1F01092250622E02093B2
:101B30000802A5E0B6E0FC0120E101900D922150E1
:101B4000E1F7FC0180E1919190933F018150D9F739
:101B5000442321F0413009F04AC00EC080910802B0
:101B6000813099F5E5E0F6E0819180933F0186E0D0
:101B7000E531F807C9F729C0809108028130B9F131
:101B8000809125068823C1F41092030610923C012F
:101B9000CE0101964A8B698B0E94770DE5E1F6E054
:101BA00069894A8980913F01819386E0E532F8078F
:101BB000C9F781E080932506E5E1F6E08191809305
:101BC0003F0186E0E532F807C9F74093080262302A
:101BD00070F4440F440F440F48706295660F6072B2
:101BE000462B4093030640933C0181E001C080E016
:101BF00062960FB6F894DEBF0FBECDBFCF91DF91D6
:101C00000895FC0180E190913E0191938150D9F7B4
:101C100008950E94520D089581E08093260608954C
:101C20002F923F924F925F926F927F928F929F92EC
:101C3000AF92BF92CF92DF92EF92FF920F931F93DA
:101C4000DF93CF93CDB7DEB762970FB6F894DEBFC0
:101C50000FBECDBF4C015B013A01D22E102F8091F7
:101C60002606882321F00E94530D109226062E2D61
:101C700030E0A901437050704115510559F04F5F94
:101C80005F4F81E090E002C0880F991F4A95E2F70C
:101C9000F82E01C0FF24287F21153105A1F48114FD
:101CA000910489F0A114B10471F04D2C5524120156
:101CB000210E311C8F2D90E09A8B898B820D931D04
:101CC0008038910520F00E946F0D81E0A3C08091C3
:101CD0000902882339F06114710409F50E946F0D1F
:101CE00082E098C061147104D1F020E040E14150DD
:101CF000842F90E0F301E80FF91FDC01A95DB94FD3
:101D000080819C91892790E030E0822B932B21E009
:101D1000009709F420E0442351F7209309028091B1
:101D20000902882379F0C30160E040E00E94880D39
:101D3000E7E2F6E0D30180E10D9001928150E1F7F6
:101D40001092090281E0F5018083FF2061F08F2D60
:101D500090E002979595879523E0880F991F2A9523
:101D6000E1F781608083DD2021F0F50180818064CE
:101D7000808384E0682E6E20F501E0801686CC20FA
:101D8000D1F4FF2051F01787B401620D731DC40117
:101D9000A5012D2D012F0E94770F6620B1F181E062
:101DA000F5018083C401840D951DB5014F2D212FB0
:101DB0000E94DD0F2AC0662059F081E0F501808382
:101DC000C401840D951DB5014F2D212F0E94DD0FFB
:101DD000FF20D9F0F501E0821787C4013E01089485
:101DE000611C711CB301A5012D2D012F0E94770FDD
:101DF0008D2D90E0810F911D880D991DB3014989AA
:101E00005A890E942F43009721F40E946F0D80E0B1
:101E100001C083E062960FB6F894DEBF0FBECDBF5F
:101E2000CF91DF911F910F91FF90EF90DF90CF90B6
:101E3000BF90AF909F908F907F906F905F904F90EA
:101E40003F902F900895EF92FF920F931F93DF938F
:101E5000CF93CDB7DEB762970FB6F894DEBF0FBE53
:101E6000CDBF8C01262F7C010CC0C701298B6A8B4A
:101E70000E94770D80E190E0E80EF91E298920513B
:101E80006A89203190F7262F22952F7030E084E068
:101E9000220F331F8A95E1F7200F311F462F4F7015
:101EA000C9F0E42EFF248E010F5F1F4FC801B90156
:101EB00050E00E943C4320E130E02E193F09E00E43
:101EC000F11EC70160E070E0A9010E944543C8010E
:101ED0000E94770D62960FB6F894DEBF0FBECDBF9D
:101EE000CF91DF911F910F91FF90EF9008958F9206
:101EF0009F92BF92CF92DF92EF92FF920F931F9328
:101F0000DF93CF93CDB7DEB760970FB6F894DEBFFF
:101F10000FBECDBF7C014B016A01122FFA0107876A
:101F200080E090E060E040E00E94880DC6010E94E1
:101F3000770D80E090E061E040E00E94880D112381
:101F400009F1B12E1F3010F09EE0B92E19821A83CC
:101F5000CB2CDD249E012D5F3F4FC901B7014B2DD6
:101F600050E00E943C436B2D6E5FCE0101960E94B3
:101F7000230FB11638F4612F6B19C7018C0D9D1D0D
:101F80000E94230FC701810F911D602F0E94230F14
:101F9000C4010E94010E60960FB6F894DEBF0FBE1A
:101FA000CDBFCF91DF911F910F91FF90EF90DF9008
:101FB000CF90BF909F908F9008958F929F92AF92F5
:101FC000BF92CF92DF92EF92FF920F931F93DF9316
:101FD000CF93CDB7DEB760970FB6F894DEBF0FBED4
:101FE000CDBF7C015B01942E022F10E080E090E0D9
:101FF00060E040E00E94880D88246E010894C11CB6
:10200000D11C22C08394D5011F968C92C5010E94D9
:10201000770DC6010E94010ED601C80101311105DC
:1020200014F080E190E090E09601280F391FF7014D
:1020300004C05D91408145274193A217B307C9F7BA
:10204000E80EF91E0051104010161106DCF299201E
:10205000A1F0F5011786C5010E94770D8E010F5F73
:102060001F4FC8010E94010EF8019191D7018C9178
:1020700089278D937D019A94C1F760960FB6F894E5
:10208000DEBF0FBECDBFCF91DF911F910F91FF90AB
:10209000EF90DF90CF90BF90AF909F908F9008957A
:1020A0001F93809141018F71883091F481E080937A
:1020B0004F0189E08093420110E080914F0180FD43
:1020C00007C08EE690E00E9423081F5F1330A9F737
:1020D0001F9108951F93182F8091CA068F3009F51C
:1020E0001092D3068EE398E10E945F059FB7F894A3
:1020F0007894809139018D7F809339018091D30646
:102100008823E1F39FBF8FEF80934F018CE480938E
:102110004E01183011F0133021F488E08093CA0684
:10212000B2C1809141018F718093CA06183009F4C1
:102130004CC0193050F4143009F494C0163009F42E
:102140009CC0133009F098C156C01F3069F010319F
:1021500020F4193009F090C164C0163109F4C3C0ED
:10216000193109F089C123C183E0809342010E94A3
:102170001F4380936D0180916E019770887F982B2B
:1021800090936E018FEF80934F0180E880934E0112
:10219000000000000000000000000000000000003F
:1021A000000000000000000000000000000000002F
:1021B0008091390182608093390183E290E00E942E
:1021C00023081093CA068FE05EC1883009F454C119
:1021D0001093420100000000000000000000000019
:1021E00000000000000000000000000000000000EF
:1021F0000000000041C1883009F43EC11093420143
:1022000000000000000000000000000000000000CE
:1022100000000000000000000000000000000000BE
:102220002BC1883021F1893020F4863009F024C197
:1022300005C0863119F0893109F01EC189E080930B
:10224000420100000000000000000000000000004B
:10225000000000000000000000000000000000007E
:1022600000000AC1883019F0893021F405C10E94AC
:10227000501002C110934201FFC0893059F08A30DA
:1022800020F4883009F0F8C019C0863119F089317E
:1022900009F0F2C086E080934201000000000000D7
:1022A000000000000000000000000000000000002E
:1022B00000000000000000000000DEC00E9450107E
:1022C0001093420100000000000000000000000028
:1022D00000000000000000000000000000000000FE
:1022E00000000000C9C08830F9F0893020F4863041
:1022F00009F0C2C02EC0893019F0893109F0BCC084
:1023000086E1809342010000000000000000000010
:1023100000000000000000000000000000000000BD
:10232000000000000000A8C00E945010109342015D
:10233000000000000000000000000000000000009D
:10234000000000000000000000000000000000008D
:1023500093C089E08093420100000000000000006B
:10236000000000000000000000000000000000006D
:102370000000000000000000809141018F718093F7
:10238000CA06893009F07FC01093420100000000A6
:10239000000000000000000000000000000000003D
:1023A00000000000000000000000000065C0883050
:1023B00009F44EC0893020F4863009F05DC019C0A0
:1023C000893021F0863109F057C013C010934201C3
:1023D00000000000000000000000000000000000FD
:1023E00000000000000000000000000000000000ED
:1023F00043C089E08093420100000000000000001B
:1024000000000000000000000000000000000000CC
:102410000000000000000000809141018F71809356
:10242000CA06893009F02FC089E18093420100007B
:10243000000000000000000000000000000000009C
:10244000000000000000000000000000000014C0B8
:102450000E94501010934201000000000000000094
:10246000000000000000000000000000000000006C
:102470000000000000000000809141018F718093F6
:10248000CA068F31C9F31F9108958091BB06882336
:10249000E1F08091D4068823C1F4809137069091B1
:1024A0003806009739F489E90E948A0C909338061F
:1024B000809337068091370690913806009729F06F
:1024C0001092BB0686E10E946A108091C0068823A4
:1024D00051F08CEB96E060E070E00E94310D0097C7
:1024E00011F00E94ED128091D406823019F08530EF
:1024F00031F403C00E94281308950E946D140895BA
:10250000AF92BF92CF92DF92EF92FF920F931F9301
:10251000DF93CF930F92CDB7DEB7E0913706F091FE
:102520003806309709F44DC0E080F180C090470133
:10253000D0907B01D7FC45C08D2D8E5F09E910E05E
:10254000081B11090E0D1F1DAD2CBB2495012F5F1B
:102550003F4FC80160E871E0A9010E943C43F801C7
:10256000D292D7011896FC93EE931797EA0DFB1DB4
:10257000C28280914C018F7780934C0182E090E081
:102580000E94230880914C01806880934C016091E7
:102590003706709138068CEB96E00E94160D89E99B
:1025A0000E948A0C9093380680933706009731F486
:1025B00089E00E946A1081E08093BB0680E48093EA
:1025C0004F010F90CF91DF911F910F91FF90EF90EE
:1025D000DF90CF90BF90AF900895CF93DF939C0191
:1025E000FC01C081D181AF81B885EC91E093CC062C
:1025F000F0E03196EA0FFB1F608141814D3318F402
:10260000442319F003C04CE301C041E06295669594
:10261000669563708FEF689FB001112450E0649F4E
:10262000C001659F900D749F900D112464EB70E0C4
:102630000E94BD426F3F710511F008F06FEF60839B
:102640003A832983CE010E943F23DF91CF910895E1
:102650001092D406E0913906E83028F4F0E0E65F05
:10266000FD4F808101C085E86091C6067091C70664
:102670000E9483340895EF92FF920F931F93CF939C
:10268000DF93EC018B01442349F090916C01809120
:10269000C9068295807F9F70892B03C080916C0151
:1026A0008F7080936C010230110598F4442369F017
:1026B00090916C018091C106880F8E70917F892B5B
:1026C00080936C0110926F0117C080916C018E6035
:1026D00011C08091C5068295807F9091C806892B94
:1026E00080936F0190916C018091C106880F8E706C
:1026F000917F892B80936C0189E10E946A10893156
:10270000D9F70130110551F48091CC06833118F0CE
:1027100080E492E005C080E890E002C089E090E0AB
:102720000E9423080FB7F89480913901826080934A
:102730003901809139018D7F80933901288130E002
:102740002150304080E891E0BE01A9010E943C4345
:1027500081E08093D4060FBFDF91CF911F910F913D
:10276000FF90EF9008952091D406222389F490934E
:10277000C7068093C606FC01878190859093CE069C
:102780008093CD06009731F00E943B1380E00895BE
:1027900086E8089588EE08951F931091D4061130AD
:1027A000C9F480914201829586958770809339069D
:1027B00082E08093D4068091370690913806009786
:1027C00031F489E00E946A101093BB0603C086E1D1
:1027D0000E946A101F9108958091470190913A06D6
:1027E000981710F480933A0680913B0690913C062E
:1027F000A0913D06B0913E060197A109B1098093D1
:102800003B0690933C06A0933D06B0933E0600978E
:10281000A105B10521F08FEF80934701089585E070
:102820008093D40608950F931F93082F8091D406A8
:10283000882339F08091CA068F3009F04AC081E8B8
:1028400049C084E00E946A1080915501806880939D
:10285000550110E110934F018CEE93E10E945A054F
:1028600010934E0186E00E946A10863051F08091EC
:1028700055018F77809355018CE480934E0185E854
:1028800029C084E08093D40610923A0620EC33E00D
:1028900040E050E004C0220F331F441F551F0A952B
:1028A000D2F720543C4F4F4F5F4F83E056954795EA
:1028B000379527958A95D1F720933B0630933C06B0
:1028C00040933D0650933E068FEF8093470180E092
:1028D00001C086E81F910F910895809155018F776F
:1028E000809355018CE480934E011092D40686E1CA
:1028F0000E946A1080913A06883320F08FEF80930F
:102900003A060AC09FEF899FC001112467E370E077
:102910000E94BD4260933A0680913A060E941F3998
:10292000089585FD03C0982F9F7304C0982F91953B
:102930009F719195E0E2F1E02491291744F4203E43
:10294000B4F02032B4F427FF10C0822F0BC03F96A2
:10295000E4919E178CF4E03E54F0E03254F4E7FF2B
:102960000AC08E2F8F71806207C0822F05C080E25F
:1029700003C08FE101C08E2F8068089585FD03C0DC
:10298000982F9F7304C0982F91959F71919520E087
:1029900030E0822FF901E05EFE4FE4919E1724F0B3
:1029A000E91744F4815008952F5F3F4F20313105DE
:1029B00081F780E0089584E08093C10623E02093AE
:1029C000C8068FEF9FEF9093B7068093B60690935B
:1029D000BA068093B9068BE08093C3061092B506C1
:1029E00080E098EFAFEFB7E08093CF069093D006EA
:1029F000A093D106B093D2068AE091E09093B406FA
:102A00008093B3068AE08093CB0682E08093C2066F
:102A100085E08093C5062093C90684E80E9491143E
:102A20008093AA0681E08093B8061092C4060895A8
:102A30008091B606809362018091B706809363010E
:102A4000ABEAB6E0E4E6F1E08D91819381E0EC360B
:102A5000F807D1F78091B906809360018091BA069A
:102A600080936101909148018091B8068295880F0A
:102A700080769F79892B8093480190916F01809196
:102A8000C8068F70907F892B80936F0190916E01A3
:102A90008091C406880F880F880F8870977F892BD4
:102AA00080936E0190916F018091C5068295807F21
:102AB0009F70892B80936F01909148018091C3068C
:102AC0008F71907E892B809348018091AA060E9485
:102AD000BE14909145018F70907F892B80934501A2
:102AE0000895CF93DF93EB019091D406943009F4CD
:102AF000E9C08E3431F0893541F488818093C9066C
:102B0000DBC088818093C106D7C02091CA062F30D0
:102B100009F4D4C08B3009F4C2C08C3078F4823010
:102B200009F47EC0833018F48823B9F1C9C083301A
:102B300009F485C0843009F0C3C05EC0833511F14B
:102B4000843530F48F3459F0803509F0B9C00FC0A6
:102B5000873509F459C0803F09F0B2C07DC0888133
:102B60008093C80690916F018F70907F55C09881B7
:102B700089819093B6068093B70690936201809303
:102B800063019AC0988189819093B9068093BA06AF
:102B900090936001809361018FC0992309F092C0E6
:102BA00080E098EFAFEFB7E0088004C0B695A79536
:102BB000979587950A94D2F781709070009709F4E1
:102BC00083C0283039F088E00E946A108830D9F735
:102BD00026E101C028E088818093C30690914801D6
:102BE0008F71907E892B80934801283009F464C04E
:102BF00086E10E946A1060C0992309F063C0888151
:102C0000882309F462C060C088818093C5069091D2
:102C10006F018295807F9F70892B80936F014CC0DC
:102C200088810E9491148093AA060E94BE149091FC
:102C300045018F70907F892B809345013DC088812D
:102C40008093B806909148018295880F80769F798D
:102C5000892B8093480130C088818093AB0689819D
:102C60008093AC068A818093AD068B818093AE06FB
:102C70008C818093AF068D818093B0068E81809386
:102C8000B1068F818093B206ABEAB6E0E4E6F1E0EC
:102C90008D91819381E0EC36F807D1F70DC08881E2
:102CA0008093C40690916E01880F880F880F8870FA
:102CB000977F892B80936E0180E007C081E805C073
:102CC00084EF03C086E801C088EEDF91CF910895BC
:102CD000CF93DF9386E00E946A108630D9F7809107
:102CE00055018F778093550110924E0128E0C0E086
:102CF000D0E080914601CC0FDD1FCC0FDD1F90E0AE
:102D00008076907035E0969587953A95E1F7C82BD7
:102D1000D92B0000000000000000000000000000AF
:102D200000000000000000000000000000000000A3
:102D300000002150F1F683E00E946A108FEF80932B
:102D40004F018CE480934E01CE010E942443DF9119
:102D5000CF9108950F931F93DF93CF930F92CDB729
:102D6000DEB7182F81E065E170E041E050E09E01A0
:102D70002F5F3F4F0E946406809139018D7F8093C1
:102D8000390180EF90E00E942308809139018E7F05
:102D90008093390181E090E00E94230880913901FD
:102DA00081608093390100E084E690E00E9423086E
:102DB000809141010A30E1F08F71883011F00F5F8E
:102DC000F3CF8093CA0689818823C9F0909152017C
:102DD0008F70907F892B8093520111C00E94DB1469
:102DE0000E9418151092D4061092BB0680E001C014
:102DF00085E80F90CF91DF911F910F9108950E9468
:102E000068160E941F4380936D0180916E01977038
:102E1000887F982B90936E0180E00E9442180E9458
:102E2000641880916E01806280936E0180914C01E4
:102E3000806880934C018CE480934E01112381F2D1
:102E4000CDCF0E94AA16882359F01EC08CEB96E0C5
:102E500060E070E00E94310D009711F00E94910C2B
:102E60008091C006882391F788E080934F0180E429
:102E700080934F0184E080934F0180E880934F015D
:102E80000E940C0E80E0089585E808951F93CF936B
:102E9000DF930E944C06882309F0CBC08091390152
:102EA000816080933901809139018D7F8093390150
:102EB0008CE791E00E942308809139018E7F8093F6
:102EC000390181E090E00E942308809139018160FE
:102ED0008093390110E084E690E00E9423088091FD
:102EE00041011A3009F4A5C08F71883011F01F5FBD
:102EF000F2CF8093CA0680915C01833809F099C0B3
:102F00009DC0CBEAD6E00E941F43899386E0C33B75
:102F1000D807C9F78091AB062091AC065091AD0659
:102F20006091AE067091AF06E091B006F091B106E7
:102F3000A091B206382F315041E0381708F040E038
:102F4000822F815091E0821708F090E0480F21E035
:102F5000481708F020E0922B252F215081E02517FB
:102F600008F080E0592F520F91E0521708F090E0DE
:102F7000892B262F215091E0261708F090E0682F2A
:102F8000620F81E0621708F080E0982B272F215014
:102F900081E0271708F080E0792F720F91E0721717
:102FA00008F090E0892B2E2F215091E02E1708F089
:102FB00090E0E82FE20F81E0E21708F080E0982B24
:102FC0002F2F215081E02F1708F080E0920FF1E0C1
:102FD000921708F0F0E08F2BA195A81779F49F3F86
:102FE00069F4EF3F59F47F3F49F46F3F39F45F3F95
:102FF00029F44F3F19F43E3F08F083CF8EE298E169
:103000000E94550586E398E10E9450058EE398E101
:103010000E945F050E94590C89E90E948A0C9093D6
:103020003806809337068CEB96E00E940F0D80E007
:1030300001C085E8DF91CF911F91089581E060E0A4
:1030400070E048E050E02BEA36E00E94640681E040
:103050000E94AA16882309F45DCFEBCF1F931FB7F8
:10306000F8940E9480121FBF1F9108951F931FB7ED
:10307000F8940E94CC131FBF1F91089581E08093A4
:10308000D30608958823C1F48091CA068F30B1F029
:103090008091D4068823A1F41092BB0688E00E9498
:1030A0006A108830D9F78FE00E946A108F3051F48F
:1030B0000E940C0E80E0089588EE089581E808953E
:1030C00086E8089586E808958091CA068F3039F41D
:1030D00088E00E946A10883021F480E0089582E838
:1030E000089585E808959091D4069923B9F488301D
:1030F00031F40E946A101092BB0688E00895809116
:10310000370690913806009721F086E10E946A10F8
:1031100003C081E08093BB0686E0089586E80895A9
:10312000FC01A081B18184E18C9313966C93139779
:1031300012965C934E9311978EE998E0BF010E941E
:10314000160D08950F931F93DF93CF9300D0CDB743
:10315000DEB78091F9069091FA066BEE4FEF5FEFC4
:103160000E9490181092E8060FEF1FEF1A83098350
:1031700080E5BE016F5F7F4F0E94233210933007BE
:1031800000932F0710923D0710923E0710923F07C1
:103190001092400710924107109242071092430785
:1031A000109244070E94D62C0F900F90CF91DF9180
:1031B0001F910F910895DF92EF92FF920F931F934B
:1031C000DF93CF93CDB7DEB72F970FB6F894DEBF5E
:1031D0000FBECDBF7C01DE011196FC015081418103
:1031E000252F342FF9012FE001900D922150E1F7A6
:1031F0008093F9069093FA068C81823019F48F81BE
:1032000098851AC08F8180933D07888580933E07FB
:10321000898580933F078A85809340078B858093BB
:1032200041078C85809342078D85809343078E8567
:10323000809344078EEF9FEF9093300780932F0782
:1032400080E5BE016B5F7F4F0E9423320E94002DFC
:10325000D7010D911C9181E0F8018083F282E18217
:10326000EB56FF4F80838F858183DF011897809114
:10327000AB068C938091AC0611968C93119780913C
:10328000AD0612968C9312978091AE0613968C938E
:1032900013978091AF0614968C9314978091B00683
:1032A00015968C9315978091B10616968C93169768
:1032B0008091B20617968C93DF011A978FEF9FEFDC
:1032C00011969C938E938C81823059F43C97809117
:1032D0002F07909130079183808383E298EC45E13A
:1032E0001CC0729780913D07808380913E07818347
:1032F00080913F07828380914007838380914107BB
:1033000084838091420785838091430786838091DF
:103310004407878383E29CEC4BE1DF011297209105
:10332000B6063091B7062D933C93DF011397209199
:10333000F4062C932F5F2093F406DF0115978D93ED
:103340009C9336974083D8011896FC93EE93179779
:1033500084E0BE016D5F7F4F0E942332D82E80E053
:10336000BE016E5F7F4F0E942332DD2071F48823FF
:1033700061F4C80162E070E041E00E94B313882369
:1033800021F481E08093740708C0C70161EE4FEF1C
:103390005FEF0E9490180E94D62C2F960FB6F894DB
:1033A000DEBF0FBECDBFCF91DF911F910F91FF9078
:1033B000EF90DF900895BC01FC0190818181209104
:1033C000D506222321F4CB010E94910C0895E92F08
:1033D000F82F8091580781838091590782838091CB
:1033E0005A07838380915B07848380915C07858380
:1033F00080915D07868380915E07878380915F0758
:10340000808780916A07818783E180838EE998E0D5
:103410000E94160D0895CF92DF92EF92FF920F93C4
:103420001F93CF93DF93BC01FC01C081D181D98070
:10343000EA80FB800C811D815E814F813885898502
:103440009A85CB84209173072250223020F0CB0143
:103450000E94910C5CC022E02883DE01AD56BF4F74
:10346000FD01219312969C938E931197C282FD01C8
:1034700038978091AB0680838091AC0681838091E0
:10348000AD0682838091AE0683838091AF068483EC
:103490008091B00685838091B10686838091B206C3
:1034A00087833897D082E182F28203831483558325
:1034B00046833783FD0172978091B6069091B706D7
:1034C00091838083FD0173978091F40680838F5FE1
:1034D0008093F406FD01759783E69CEC91838083CD
:1034E00056978BE18C93B887AF831E8287ED96E069
:1034F0000E94160D8091F6069091F7069D838C83AD
:1035000081E00E944D08882311F40E94CC29DF91AC
:10351000CF911F910F91FF90EF90DF90CF90089582
:10352000FF920F931F93DF93CF9300D0CDB7DEB7F9
:10353000F0906C070E94910CFF20B1F583E56AE6DC
:1035400077E00E94233240916A0750916B07809187
:10355000580780933D078091590780933E078091DB
:103560005A0780933F0780915B07809340078091C3
:103570005C078093410780915D07809342078091AB
:103580005E078093430780915F078093440781E043
:10359000809373071092E8068091F306833031F52B
:1035A00082E08093F30622C01092E8060FEF1FEF2F
:1035B0001A83098380E5BE016F5F7F4F0E9423322B
:1035C0001093300700932F0710923D0710923E078B
:1035D00010923F0710924007109241071092420745
:1035E00010924307109244074FEF5FEF8091F90666
:1035F0009091FA066F2D0E9490180E94D62C0F9081
:103600000F90CF91DF911F910F91FF900895EF924E
:10361000FF920F931F93CF93DF93C0913907D091FF
:103620003A0780E061E040E020E030E000E010E0B8
:103630000E94AE23882351F48091F9069091FA06F6
:1036400061EE4FEF5FEF0E94901818C0AE0160E08E
:1036500070E084E0440F551F661F771F8A95D1F7ED
:1036600080E020E002EA18E1EE24FF240E949009A5
:10367000882321F080E090E00E94A218DF91CF9192
:103680001F910F91FF90EF900895209141062730F0
:10369000E8F4FC01A781B08512968C91129786956B
:1036A00086958370823091F4E0913F06F091400658
:1036B0003297F0934006E0933F0616968D919C91C9
:1036C0001797918380832F5F2093410680E00895B0
:1036D000209141062730F0F4DC011796ED91FC9122
:1036E00018978281869586958370833099F48091AE
:1036F0003F069091400608979093400680933F06BE
:10370000DC01369688E001900D928150E1F72F5F41
:103710002093410680E00895BF92CF92DF92EF920E
:10372000FF920F931F93DF93CF9300D000D00F929F
:10373000CDB7DEB7DB01ED90FC901197F7017283F6
:1037400061838AE08083870109561F4F4091F50607
:10375000442371F0041B1109242F235FEBEFF6E0E3
:10376000C801BF0150E02D830E943C432D8101C060
:103770002DE08091DB06882309F443C010934006B6
:1037800000933F061092410688E69BE19A83898365
:1037900087ED96E06E010894C11CD11CB6012D8303
:1037A0000E94370DB09041061092410685E49BE1DE
:1037B0009A83898387ED96E0B6010E94370D309198
:1037C0004106A0913F06B09140061197EB2DF0E025
:1037D000CF0124E0880F991F2A95E1F7832B8C9362
:1037E000EE0FFF1FEE0FFF1FE30FF11DEE0FE09333
:1037F00041062D812E0FF0E0E095F095E00FF11FCE
:1038000002C0F8011292129280917307833019F06E
:103810008FEF9FE002C08FEF9FE43091D50631110A
:103820009068DF019E938E938091B9069091BA06BD
:103830003FEF8E3F9307E9F43A972A5F8091AB06FA
:1038400080838091AC0681838091AD0682838091D4
:10385000AE0683838091AF0684838091B006858312
:103860008091B10686838091B206878380E090ECD8
:1038700005C0FD019293829380E090E8DF011297EA
:103880004091B6065091B7064D935C93DF011397B4
:103890003091F2063C933F5F3093F206DF011597BB
:1038A0008D939C9336972083D7011896FC93EE93C3
:1038B0001797C70162E070E040E00E94B31381E017
:1038C000809374070F900F900F900F900F90CF91EF
:1038D000DF911F910F91FF90EF90DF90CF90BF90FD
:1038E0000895BC0180E00E948C1B08956F927F9226
:1038F0008F92AF92CF92EF920F93DF93CF93CDB78A
:10390000DEB766970FB6F894DEBF0FBECDBF3C01A1
:10391000DC01ED91FC9181818983828193819B837C
:103920008A8384818C8385818D8386818E83878140
:103930008F83808588878185898782858A8783852B
:103940008B8784858C87858596859E878D878785DF
:103950008F878089888B8189898B82898A8B8389EB
:103960008B8B84898C8B85898D8B86898E8B258D1D
:10397000368DCE010196BE01645F7F4F448D07896D
:10398000E08CC18CA28C838C0E946A03C3010E94CC
:10399000910C66960FB6F894DEBF0FBECDBFCF91E7
:1039A000DF910F91EF90CF90AF908F907F906F90BD
:1039B0000895EF92FF92CF93DF93E82EE7017E0107
:1039C000F92EE701E881F981818162810E944142FB
:1039D000C7010E94910CDF91CF91FF90EF90089565
:1039E000EF92FF92CF93DF93E82EE7017E01F92E4D
:1039F000E701E881F981818162810E944242C70129
:103A00000E94910CDF91CF91FF90EF900895EF927B
:103A1000FF92CF93DF93E82EE7017E01F92EE701B5
:103A2000E881F9818181928163810E944342C701CB
:103A30000E94910CDF91CF91FF90EF900895EF924B
:103A4000FF920F93CF93DF93E82EE7017E01F92ECB
:103A5000E701E881F98121813281438154816581C7
:103A600076818781908501850E94C102C7010E94ED
:103A7000910CDF91CF910F91FF90EF900895EF920D
:103A8000FF920F93CF93DF93E82EE7017E01F92E8B
:103A9000E701E881F981BF016E5F7F4F2489358995
:103AA000E788F08C8181438906890E944442CE01D7
:103AB0000E94910CDF91CF910F91FF90EF900895AC
:103AC0000F931F93DF93CF93CDB7DEB766970FB6F3
:103AD000F894DEBF0FBECDBF8C01DC01ED91FC91EF
:103AE000818192819B838A838381898384818C8372
:103AF00085818D8386818E8387818F83808588876A
:103B00008185898782858A8783858B878181928158
:103B10009E878D8784858C8785858F878685888B12
:103B20008785898B80898A8B81898B8B82898C8B15
:103B300083898D8B84898E8BCE010196BE01645F53
:103B40007F4F45890E945603C8010E94910C6696DA
:103B50000FB6F894DEBF0FBECDBFCF91DF911F919E
:103B60000F9108950F931F93DF93CF93CDB7DEB7D7
:103B70002B970FB6F894DEBF0FBECDBF8C01DC01D2
:103B8000ED91FC9182818983838194819B838A83D7
:103B900085818C8386818D8387818E8380858F83C9
:103BA000818588878285898783858A8784858B87B5
:103BB0008181BE016F5F7F4F0E944542C8010E9414
:103BC000910C2B960FB6F894DEBF0FBECDBFCF91F0
:103BD000DF911F910F910895EF92FF920F93CF9372
:103BE000DF93E82EE7017E01F92EE701E881F981F4
:103BF00021813281438154816581768187819085DD
:103C000001850E944642C7010E94910CDF91CF912D
:103C10000F91FF90EF900895EF92FF92CF93DF9373
:103C2000E82EE7017E01F92EE701E881F9819F0185
:103C30002C5F3F4F8181628143810E944742C701CF
:103C40000E94910CDF91CF91FF90EF900895EF9239
:103C5000FF92CF93DF93E82EE7017E01F92EE70173
:103C6000E881F981218132814381548165817681A6
:103C7000878190850E944842C7010E94910CDF9184
:103C8000CF91FF90EF900895EF92FF92CF93DF9343
:103C9000E82EE7017E01F92EE701E881F9818181B3
:103CA0000E944942C7010E94910CDF91CF91FF9081
:103CB000EF900895EF92FF92CF93DF93E82EE70104
:103CC0007E01F92EE701E881F98181810E943101AD
:103CD000C7010E94910CDF91CF91FF90EF90089562
:103CE000EF92FF92CF93DF93E82EE7017E01F92E4A
:103CF000E701E881F98181810E944A42C7010E945F
:103D0000910CDF91CF91FF90EF900895CF92DF92C9
:103D1000EF92FF920F931F93CF93DF93E82EE7016B
:103D20007E01F92EE701E881F98104811581268160
:103D3000378189E0C82ED12CCE0EDF1E81816281B1
:103D40004381E0840E949A02CE010E94910CDF918F
:103D5000CF911F910F91FF90EF90DF90CF9008953A
:103D6000EF92FF92CF93DF93E82EE7017E01F92EC9
:103D7000E701E881F9818181628143810E944C01E0
:103D8000C7010E94910CDF91CF91FF90EF900895B1
:103D9000EF92FF92CF93DF93E82EE7017E01F92E99
:103DA000E701E881F98181810E94AF02C7010E9489
:103DB000910CDF91CF91FF90EF900895DC01ED9190
:103DC000FC91628173818181448125810E944B42F3
:103DD000089520916A0730916B0736FF1BC0882336
:103DE00059F420915607309157078091B60690916B
:103DF000B7062817390759F0209156073091570711
:103E000080913207909133072817390719F48EEE05
:103E10000E94DE3D0895CF93DF9320916A07309191
:103E20006B0736FFC5C0882359F42091560730919F
:103E300057078091B6069091B7062817390761F0A9
:103E400020915607309157078091320790913307A0
:103E50002817390709F0ACC020915807309159074D
:103E600080912F07909130072817390709F4A0C0D7
:103E70009091580780913D07981759F590915907EF
:103E800080913E07981729F590915A0780913F0736
:103E90009817F9F490915B07809140079817C9F43F
:103EA00090915C0780914107981799F490915D0774
:103EB00080914207981769F490915E0780914307BB
:103EC000981739F490915F0780914407981709F487
:103ED0006FC089E90E948A0CEC01009709F468C060
:103EE0008881998125E0FC012083D283C183DC0194
:103EF000AA56BF4F2C93FD0138972091AB06208323
:103F00002091AC0621832091AD0622832091AE063C
:103F100023832091AF0624832091B006258320912E
:103F2000B10626832091B2062783389720913D075A
:103F3000208320913E07218320913F0722832091F7
:103F40004007238320914107248320914207258342
:103F5000209143072683209144072783FD01729710
:103F60002091B6063091B70631832083FD01739707
:103F70002091F40620832F5F2093F406FD017597AE
:103F800023E63CEC31832083569728E12C93FC01F7
:103F9000B087A78362E070E041E00E94B3138823FA
:103FA00021F481E08093740703C0CE010E94910C3C
:103FB000DF91CF9108958F929F92BF92CF92DF921F
:103FC000EF92FF920F931F93DF93CF930F92CDB792
:103FD000DEB78C01DC014D915C91DA011796ED9111
:103FE000FC911897808180934807E80FF11D81812B
:103FF0008093680717968D909C901897F401C18064
:10400000D28025E437E0D0924607C09245078381ED
:1040100080934907B4016C5F7F4FFD2CF294F694B6
:10402000F694E3E0FE22ED2CE694E694F3E0EF2232
:1040300009F45DC0D40114968D919C9115979093CD
:104040004C0780934B07F4013696BE2DB23019F51C
:10405000D9011896F901108611961C9211971296A3
:104060001C92129713961C92139714961C921497F5
:1040700015961C92159716961C92169717961C92D9
:10408000D40116968D919C91179791878087F401A2
:10409000389624E030C0BE2DB33061F5C9010896D2
:1040A000D4011696BC90D9011896BC922181DC01EE
:1040B00011962C931197228112962C93129723819B
:1040C00013962C931397248114962C93149725817F
:1040D00015962C931597268116962C931697278163
:1040E00017962C931797F4013E962AE004C0FB0123
:1040F00020E001C022E0FF2009F449C0C6FC08C04E
:104100008191919190935707809356072E5F08C035
:1041100080914B0790914C079093570780935607D7
:10412000BF2DB230C1F41092580710925907109267
:104130005A0710925B0710925C0710925D0710926D
:104140005E0710925F078081918190935907809359
:1041500058072E5F1CC08F2D8330C9F48081809357
:104160005807818180935907828180935A07838100
:1041700080935B07848180935C07858180935D07D2
:10418000868180935E07878180935F07285F809197
:1041900048078550821B80936907F0925507E0928B
:1041A0004A077B01E20EF11C8C2D87708093470734
:1041B000833021F4D7018C91809367071982C3FE65
:1041C0005FC0FA01678170856F5F7F4F85E497E07C
:1041D000A7019E012F5F3F4F0E94AD3BB82E882361
:1041E00009F453C089E90E948A0CBC01009709F4C4
:1041F0002FC2DC01ED91FC918CE180832091B60609
:104200003091B70632832183809155078383809153
:104210005807848380915907858380915A07868344
:1042200080915B07878380915C07808780915D0721
:10423000818780915E07828780915F078387809165
:104240004A07848780914D07858780914E0786872E
:1042500080914F07878780915007808B809151070D
:10426000818B80915207828B80915307838B809141
:104270005407848BB58A8EE998E00E94160DE8C138
:1042800080916007887F80936007309147073130C5
:1042900009F45FC0313020F0333009F0D9C16DC06E
:1042A0002981F701E20FF11D8081918190936B07C5
:1042B00080936A07822F8E5F8983F701E80FF11DD3
:1042C000808180936C07922F9D5F9983877019F08E
:1042D0002C5F280F29834981F701E40FF11D8081AC
:1042E00080936D074F5F4983582F577090E0807718
:1042F000907024E0959587952A95E1F7552311F460
:104300008823A9F09701240F311D30936F07209364
:104310006E07552321F0952F990F940F99838823C9
:1043200031F0880F880F880F9981980F99839091A9
:1043300069078981891750F4981B90937007E80EDC
:10434000F11CF0927207E092710786C1109270071B
:1043500083C180916907882369F0863718F086E762
:10436000809369078981E80EF11CF0926B07E09257
:104370006A0772C1109269076FC181E08983209139
:1043800067072330F9F0243030F42130D9F022309F
:1043900009F05EC107C0283008F45EC1283009F07A
:1043A00057C115C0D70111968D919C91129790938A
:1043B0006B0780936A07398313968C9113978093C8
:1043C0006C074AC1F701818180936A0745C1D70113
:1043D00011968D919C91129790936B0780936A0729
:1043E000398313968D919C91149790936D078093C8
:1043F0006C0785E0898315968C91159780936E07DD
:1044000086E0898316968D919C91179790937007FB
:1044100080936F072983D4FE1FC118968C9118973B
:104420008093710719C180914707833061F48091AF
:104430006707843011F0873031F484E397E0B801E6
:104440000E94160D0FC18091E806813009F4EBC07F
:10445000813020F0843008F0FBC0A3C08091F106C9
:10446000882309F06AC090917307933080F19330EC
:1044700009F0EEC080914707813009F4E5C0813032
:1044800010F1833009F0E4C080916707843009F4AB
:10449000AFC0853038F4813009F4A0C0833009F012
:1044A000D7C009C0863009F4AEC0863040F08730EE
:1044B00009F0CEC0B0C0C8010E942F27D3C08EEE35
:1044C0000E94DE3DC5C080E00E94E91EC1C080910F
:1044D0004707813009F4B8C0813020F0833009F0FB
:1044E000B7C00CC080919D08882309F4B1C09923FE
:1044F00009F4AEC080E00E940B1FAAC0809167073C
:10450000843009F475C0853038F4813009F466C010
:10451000833009F09DC004C0873009F05AC009C03B
:10452000C8010E942F2780917307813009F09AC03B
:104530005CC0923009F08CC06EC0833009F18430C9
:1045400019F0823009F084C080914707882309F070
:104550007FC080917307833019F481E00E94E91EC7
:1045600080919D08882341F08091730781508230AB
:1045700018F481E00E940B1FC8010E941B3372C017
:1045800080914707833009F063C0809167078830C6
:1045900009F05EC082E00E94B708C8010E94543949
:1045A00061C00E94FA3280914707813009F44CC003
:1045B000833009F04DC0809167078430C9F08530A1
:1045C00030F4813059F0833009F042C00BC087309D
:1045D000F1F0883021F18630D9F515C0C8010E946C
:1045E000DB1940C0C8010E942F270E94522D3AC0FB
:1045F0008091DB06882321F0C8010E94692532C022
:104600000E94B42425C0C8010E94782D2BC080913F
:1046100073078230E9F4C8010E94711C23C0C801ED
:104620000E941B3E1FC080914707833059F4809140
:104630006707823069F480E00E94B708C8010E94D1
:10464000901A10C0813021F4C8010E9475280AC058
:10465000C8010E94910C06C080917407882309F05C
:10466000E2CEF1CE0F90CF91DF911F910F91FF908D
:10467000EF90DF90CF90BF909F908F900895FC01B6
:104680001082618172816115710521F084E397E0E8
:104690000E94160D0895FC018681882399F40780F5
:1046A000F085E02D8281869586958370823061F455
:1046B00081E0DB014D915C91119726813781421792
:1046C000530719F080E0089580E00895FB01DC01B4
:1046D00016968C9116978823E9F517960D90BC9144
:1046E000A02D12968C9112978695869583708330B3
:1046F00099F581E0208116969C911697291751F51E
:10470000218117969C911797291721F522811896D8
:104710009C9118972917F1F4238119969C91199768
:104720002917C1F424811A969C911A97291791F49C
:1047300025811B969C911B97291761F426811C9655
:104740009C911C97291731F427811D969C911D97E8
:10475000291719F080E0089580E008958F929F92C4
:10476000AF92BF92DF92EF92FF920F931F93DF936E
:10477000CF9300D0CDB7DEB7D82E790189E94A832F
:1047800069830E948A0C4C014A816981009709F46F
:10479000DCC0FC01A080B180DD2011F084E001C00C
:1047A0008BE0F5018083F50192828182D501AA56C2
:1047B000BF4F84E08C938091B9069091BA069C011A
:1047C0002E5F3F4F2230310510F0662359F11897C4
:1047D0008091AB068C938091AC0611968C931197C7
:1047E0008091AD0612968C9312978091AE06139627
:1047F0008C9313978091AF0614968C9314978091A5
:10480000B00615968C9315978091B10616968C93E9
:1048100016978091B20617968C93179783E290ECC7
:1048200052E105C09E938E9383E290E85CE04423BE
:1048300061F02091B6063091B7060217130729F0F0
:104840005E5F3E932E9360E002C0806461E0423080
:1048500029F49860F7012081318119C0433071F447
:104860009C6018975A5F9D0148E0F70101907F0115
:10487000F90101929F014150C1F735C020912F07E6
:1048800030913007FFEF2E3F3F0721F098603E93B5
:104890002E9329C09C6018975A5F20913D072C9356
:1048A00020913E0711962C93119720913F07129665
:1048B0002C9312972091400713962C9313972091D5
:1048C000410714962C9314972091420715962C9328
:1048D00015972091430716962C931697209144071D
:1048E00017962C9317971297662341F02091B606DE
:1048F0003091B70611963C932E9303C011961C93EA
:104900000E939D01215030404091F406F9014083FF
:104910004F5F4093F4069D0123503040F90191838D
:10492000808314975C93F501B087A783C50162E08B
:1049300070E041E00E94B313882321F481E080936A
:10494000740704C0C4010E94910C80E00F900F9086
:10495000CF91DF911F910F91FF90EF90DF90BF906B
:10496000AF909F908F9008950F931F93CF93DF93F5
:1049700089E90E948A0CEC01009709F4A5C008811E
:1049800019818CE0D8018C931296DC93CE93119709
:1049900016961C921697F801E956FF4F8091B906BA
:1049A0009091BA069C012E5F3F4F22303105E8F40A
:1049B00038978091AB0680838091AC06818380918B
:1049C000AD0682838091AE0683838091AF06848397
:1049D0008091B00685838091B10686838091B2066E
:1049E000878380E090EC61E105C09293829380E040
:1049F00090E86BE02091B6063091B70640915607DB
:104A0000509157072417350711F4806403C06E5F77
:104A100032932293209155072330E9F438976A5F47
:104A200020915807208320915907218320915A070C
:104A3000228320915B07238320915C0724832091AC
:104A40005D07258320915E07268320915F072783DA
:104A500081609C6008C020915807309159073293BB
:104A60002293816098609F01225030404091560708
:104A700050915707D9014D935C939F0123503040CB
:104A80004091F406D9014C934F5F4093F4069F0187
:104A900025503040D9018D939C9336976083D8017F
:104AA0001896FC93EE9317978881998161E070E0E6
:104AB00040E00E94B313882321F481E080937407BF
:104AC00003C0CE010E94910CDF91CF911F910F91F5
:104AD0000895EF92FF920F931F93DF93CF9300D02F
:104AE00000D0CDB7DEB70E94910C80917307823061
:104AF00008F453C080915507823019F48BE493E297
:104B000005C0833009F049C086E693E29A83898321
:104B100088E597E09C838B8387ED96E07E0108947F
:104B2000E11CF11CB7010E94370D009789F0DC01F0
:104B30000D911C91D8011796ED91FC911897409119
:104B4000560750915707248135814217530719F0B2
:104B50000E94B42422C021E0F8012683928381833D
:104B600087ED96E0B7010E94370D009741F0D8011C
:104B70001796ED91FC911897818180618183C8011E
:104B800061E070E040E00E94B313882321F481E0EB
:104B90008093740702C0F80116820F900F900F9057
:104BA0000F90CF91DF911F910F91FF90EF9008959B
:104BB0000F931F93CF93DF93FC01E801A081B18194
:104BC00086E18C9311966C93119712964C931297E1
:104BD00014963C932E9313974230F9F415961C9239
:104BE000159716961C92169717961C92179718965B
:104BF0001C92189719961C9219971A961C921A973C
:104C00001B961C921B971C961C921C97888199815D
:104C100016969C938E93159706C0159688E009907A
:104C20000D928150E1F78EE998E0BF010E94160DC8
:104C3000DF91CF911F910F910895EF92FF920F9303
:104C40001F93DF93CF93CDB7DEB72E970FB6F894AF
:104C5000DEBF0FBECDBF7C01DC010D911C91DE01DA
:104C60001196F8018EE001900D928150E1F7F80164
:104C7000F282E18283E08083D801AB56BF4F8C93F0
:104C80008D8511968C931197FD0138978091AB0615
:104C900080838091AC0681838091AD068283809170
:104CA000AE0683838091AF0684838091B0068583AE
:104CB0008091B10686838091B20687838A81823093
:104CC00041F4FD013A978D819E819183808323E198
:104CD00012C038978D8180838E8181838F818283FA
:104CE00088858383898584838A8585838B8586836C
:104CF0008C85878329E1DF0112978091B606909118
:104D0000B7068D939C93DF0113978091F4068C93E3
:104D10008F5F8093F406DF0115973A81932F990FE7
:104D2000990F80E08366906C8D939C9336972083D7
:104D3000D8011896FC93EE93179716961C92169727
:104D4000809173078250823008F060C08E8588237E
:104D500009F45CC08A818230D1F48D818B3409F0F2
:104D600041C08E818823F1F58F818823D9F588850C
:104D70008823C1F589858823A9F58A85882391F53B
:104D80008B85882379F58C85882361F55BC083301A
:104D900009F058C09D8180913D07981719F59E81B3
:104DA00080913E079817F1F49F8180913F079817F3
:104DB000C9F49885809140079817A1F4998580914E
:104DC0004107981779F49A8580914207981751F412
:104DD0009B8580914307981729F49C85809144070F
:104DE000981781F187ED96E0B7010E94160D80912A
:104DF000F6069091F706F8019583848381E00E947E
:104E00004D088823F9F40E94CC291CC00E94002D73
:104E1000D7018D919C9162E070E041E00E94B31354
:104E2000882321F481E0809374070CC02B813C819E
:104E3000C70161EE4A818E010B5F1F4F0E94D8258A
:104E40000E94D62C2E960FB6F894DEBF0FBECDBFB3
:104E5000CF91DF911F910F91FF90EF900895BC01CA
:104E6000DC01ED91FC9185E180838091580781837D
:104E700080915907828380915A07838380915B07D1
:104E8000848380915C07858380915D078683809110
:104E90005E07878380915F07808780916A0781879B
:104EA0008EE998E00E94160D10923D0710923E0781
:104EB00010923F071092400710924107109242074C
:104EC00010924307109244078FEF9FEF90933007A3
:104ED00080932F0708950F931F93DF93CF93CDB740
:104EE000DEB728970FB6F894DEBF0FBECDBFDC014A
:104EF000ED91FC91119719821A821B821C821D82EE
:104F00001E821F8218860780F085E02D428146951B
:104F100046954370242F2250223080F42681298325
:104F200027812A8320852B8321852C8322852D832D
:104F300023852E8324852F83258528872091730739
:104F40002330D1F1223009F03FC0423059F40680BD
:104F5000F781E02D20912F0730913007E217F307FA
:104F600059F532C0433041F5368120913D07321763
:104F700019F5378120913E073217F1F430852091E1
:104F80003F073217C9F43185209140073217A1F449
:104F9000328520914107321779F4338520914207F9
:104FA000321751F4348520914307321729F435859F
:104FB00020914407321741F02091B6063091B70690
:104FC0008E010F5F1F4F14C04091B9065091BA0671
:104FD0004E5F5F4F2091B6063091B70642305105C3
:104FE00020F443E00BEA16E003C042E009EB16E0D0
:104FF0000E94D82528960FB6F894DEBF0FBECDBF0D
:10500000CF91DF911F910F910895DC01ED91FC91FB
:105010001197E081E43270F4F0E0EE0FFF1FE05DE5
:10502000FE4F25913491F901309711F009950895BB
:105030000E94910C08951F9380917407882381F436
:105040008091F006882361F08CEE96E060E070E0DD
:105050000E94310D009721F00E94052811E001C047
:1050600010E080913807882359F084E397E060E0EE
:1050700070E00E94310D009719F00E94052811E0A0
:10508000812F1F910895FC018681882329F4848152
:10509000958101979583848380E00895FC01868142
:1050A000882341F481E0248135812115310519F0EF
:1050B00080E0089580E0089521E0FC019381FB01E8
:1050C0008081981320E0822F0895FC01A081B18196
:1050D00080E18C9311964C93119712966C938EE904
:1050E00098E0BF010E94160D08950F931F93DF9360
:1050F000CF93CDB7DEB728970FB6F894DEBF0FBEBB
:10510000CDBFBC01FC0190818181209169072223E0
:1051100021F4CB010E94910C32C1E92FF82F80912C
:105120004907808F209155072183809156079091E0
:10513000570793838283822F8250823050F51482E6
:1051400015821682178210861186128613862230E7
:1051500039F480915807909159079583848323C02F
:1051600080915807848380915907858380915A07DD
:10517000868380915B07878380915C07808780911D
:105180005D07818780915E07828780915F078387B3
:105190000AC0138212821482158216821782108628
:1051A000118612861386808D9091D606891761F537
:1051B00024819091DE06291739F525819091DF062B
:1051C000291711F526819091E0062917E9F4278126
:1051D0009091E1062917C1F420859091E2062917E4
:1051E00099F421859091E306291771F42285909115
:1051F000E406291749F423859091E506291721F43F
:10520000CB010E94910C71C08093D606848180935B
:10521000DE0685818093DF0686818093E0068781A4
:105220008093E10680858093E20681858093E30682
:1052300082858093E40683858093E50620914A0762
:1052400024871786108A118A128A138A148A158A6B
:10525000168A80914B0790914C079687858723305B
:10526000C9F480914D07878780914E07808B80918C
:105270004F07818B80915007828B80915107838BE0
:1052800080915207848B80915307858B80915407BE
:10529000868B0BC0223039F480914D0790914E07D8
:1052A000908B878702C01686158680916807878B4A
:1052B000809160078770818F8091600786958695C1
:1052C00086958370828F80916607838F80916907AE
:1052D000848F80916A0790916B07968F858F81E10B
:1052E00080838EE998E00E94160D8091450784FF27
:1052F00046C080917307833009F443C080915507FD
:10530000823071F480915807909159079A8389836C
:10531000009156071091570780E060E042E021C0FD
:10532000833019F5809158078983809159078A83C2
:1053300080915A078B8380915B078C8380915C07F7
:105340008D8380915D078E8380915E078F8380912E
:105350005F078887009156071091570780E060E04B
:1053600043E09E012F5F3F4F07C080E060E040E0D8
:1053700020E030E000E010E00E94AE2302C00E9476
:10538000D62C28960FB6F894DEBF0FBECDBFCF91B6
:10539000DF911F910F910895EF92FF920F931F934A
:1053A00081E040E050EE61E070E020E007EE19E2BD
:1053B000EE24FF240E949009882321F080E090E0F1
:1053C0000E94E7291F910F91FF90EF900895FF929F
:1053D0000F931F93DF93CF9300D000D0CDB7DEB7EC
:1053E00083E498E29A83898387ED96E08E010F5FCC
:1053F0001F4FB8010E94370D8EE498E29A8389838B
:10540000F02E012F87ED96E06F2D702F0E94310D49
:10541000BC010097D1F0DC01ED91FC9111978081E6
:10542000833041F08D3059F0823061F780EF0E9477
:105430006A2CE8CFCB0160EF0E946B27E3CFCB0152
:1054400060EF43810E946528DDCF8091DB068823D1
:1054500011F00E94CC290F900F900F900F90CF91D8
:10546000DF911F910F91FF900895CF92DF92EF92FD
:10547000FF920F931F93DF93CF93CDB7DEB768975B
:105480000FB6F894DEBF0FBECDBF6C01FC010081EA
:105490001181DE011496F80185E101900D92815091
:1054A000E1F78A8982FD0BC08091E806882321F408
:1054B0008091F106882319F0C60161EEFDC08DE0F0
:1054C000F80180838989838316828E89982F9B5F58
:1054D000998397E9E92EF12CE81AF108E00EF11E04
:1054E000FB82EA828B89882371F0CE010296BE018D
:1054F0006C5F7F4FAE014F5F5F4F0E94CE39682FC8
:10550000882309F0D8C08D81823079F4EA81FB814B
:105510003297FB83EA8389818E5F89838091B90604
:105520009091BA069183808322C0833001F5EA818D
:10553000FB813897FB83EA838981885F8983809127
:10554000AB0680838091AC0681838091AD06828317
:105550008091AE0683838091AF0684838091B006EC
:1055600085838091B10686838091B206878380917E
:10557000B6069091B7062F8138858217930731F4CC
:105580002D81222319F02E81222371F42D812223D3
:1055900071F0EA81FB813297FB83EA8329812E5FD8
:1055A00029839183808303C020E430E002C020E09F
:1055B00030E09E81992381F1EA81FB8189819230DB
:1055C00051F43297FB83EA838E5F898389859A85BC
:1055D0009183808315C03897FB83EA83885F898332
:1055E000898580838A8581838B8582838C8583836B
:1055F0008D8584838E8585838F858683888987833F
:10560000EA81FB813297FB83EA8389818E5F8983FC
:105610008F81988591838083EA81FB813197FB8319
:10562000EA838091F40680838F5F8093F406C9013A
:1056300081604B89442319F0C901896090612A89EE
:1056400020FD80622E89273608F090612E81522F2E
:10565000550F550F40E06D81362F3295330F330FC4
:10566000307C20E0242B352BEA81FB81DF0112976F
:10567000BB83AA83282B392B11963C932E938981C7
:1056800087FD18C03397FB83EA8380838A819B81DF
:10569000F801908787838B89882309F443C0C80168
:1056A000B701AE014C5F5F4F0E94393A682F8823E3
:1056B00011F438C065EEC60149890E94652836C0DC
:1056C0008091730782508230A0F487ED96E0B60196
:1056D0000E94160D8091F6069091F706F8019583C9
:1056E000848381E00E944D08882301F50E94CC2923
:1056F0001DC00E94002DF801D282C182C80162E063
:1057000070E041E00E94B313882321F481E080938C
:1057100074070CC0C60161EE49890E9465280E9489
:10572000D62C04C08A8982FDCBCFE3CF68960FB612
:10573000F894DEBF0FBECDBFCF91DF911F910F91C7
:10574000FF90EF90DF90CF900895EF92FF920F932C
:105750001F93DF93CF9300D000D00F92CDB7DEB769
:105760007C01FC0100811181F801818192E190832B
:1057700089838CE598E29B838A83CE0101969D8381
:105780008C8387ED96E0BE016E5F7F4F0E94310DE6
:10579000009729F00E94910CF801128203C087EE55
:1057A000F80182838EE998E0B7010E94160D0F90F0
:1057B0000F900F900F900F90CF91DF911F910F914D
:1057C000FF90EF900895FF920F931F93082F109270
:1057D00074071092730710929C081092F1061092B1
:1057E000F3061092E8061092D6068FEF8093DE063D
:1057F0008093DF068093E0068093E1068093E206C3
:105800008093E3068093E4068093E50610923107C7
:1058100088E00E947318FFB6F89410E0812F0E9470
:10582000B7081F5F1430D1F7FFBE002309F44EC044
:1058300010929D0882EC97E09093EB068093EA0625
:1058400080E098E790933A078093390711E010932E
:10585000E7061092D5061092F5060E941F4380932A
:10586000F20684EF91E09093F7068093F60610938A
:10587000E90686E08093DD0610923D0710923E0710
:1058800010923F0710924007109241071092420772
:1058900010924307109244078FEF9FEF90933007C9
:1058A00080932F070E941F438093F4061092DC061A
:1058B0001092DB071092860810928F0810929008C1
:1058C0001092910810929208109293081F910F91D4
:1058D000FF900895CF92DF92EF92FF920F931F9364
:1058E000DB01ED91FC91A781B0851696CC901697BF
:1058F0001796DC9017971896EC9018971996FC90CD
:1059000019971A960C911A971B961C911B971C9627
:105910005C911C971D964C919CE190832091B6065A
:105920003091B7063283218393E093832091AB06B5
:1059300024832091AC0625832091AD0626832091F7
:10594000AE0627832091AF0620872091B0062187DD
:105950002091B10622872091B20623879487C586BD
:10596000D686E786F08A018B128B538B448B858B0E
:105970008EE998E00E94160D1F910F91FF90EF9015
:10598000DF90CF90089580919C08882371F40E9445
:10599000EC0780E00E944218882321F481E0809384
:1059A0009C08089581E00E94EC0708958091DC0630
:1059B000882331F480913107882311F40E94C32C8D
:1059C00008950E9446178823B9F40E94600B88232B
:1059D000A9F081E00E94E32B0E94D62C8CEE96E089
:1059E0000E940F0D84E397E00E940F0D87ED96E073
:1059F0000E940F0D80E0089585E8089585E80895D8
:105A000080919C08813049F40E946418853829F0FF
:105A100081E00E94EC0710929C080895EF92FF929B
:105A20000F931F93CF93DF93E82EE7017E01F92EAA
:105A3000E701088119810E94002DF801118180E0A1
:105A40000E94EC0781E0112309F480E00E942117F5
:105A5000082F81E00E94EC07812F0E94E32B0E9417
:105A6000D62C8CEE96E00E943D0D84E397E00E94D8
:105A70003D0D8EE998E00E943D0D87ED96E00E9475
:105A80003D0DE881F981018380E280838EE998E011
:105A9000BE010E94160DDF91CF911F910F91FF90D3
:105AA000EF900895DF93CF9300D000D0CDB7DEB74D
:105AB0000E94002D8FEF9FEF9A8389839C838B83B5
:105AC00083E5BE016F5F7F4F0E94233280E5BE01F8
:105AD0006D5F7F4F0E94233281E00E94E32B0E9482
