:100000000C9498000C94B7000C94B7000C94B700B3
:100010000C94B7000C94B7000C94B7000C94B70084
:100020000C94B7000C94B7000C94B7000C94B70074
:100030000C94B7000C94B7000C94B7000C94B70064
:100040000C94B7000C94B7000C94B7000C94B70054
:100050000C94B7000C94B7000C94B7000C94B70044
:100060000C94B7000C94B7000C94B7000C94B70034
:100070000C94B7000C94B7000C94B7000C94B70024
:100080000C94B7000C94B7000C94B7000C94B70014
:100090000C94FC040C94B7000C9428050C94B70045
:1000A0000C94B7000C94B7000C94B7000C94B700F4
:1000B0000C94B7000C94B7000C94B7000C94B700E4
:1000C0000C94B7000C94B7000C94B7000C94B700D4
:1000D0000C94B7000C94B7000C94B7000C94B700C4
:1000E0000C94B7000C943D060C9447060C94330610
:1000F0000C94B2050C94DD050C9451060C94870504
:100100000C9408060C94A50A0C94CE0A0C94B70023
:100110000C94B7000C94B7000C9465060C945B0625
:1001200003020201010000FFFEFDFCFBF9F7F4EF02
:1001300011241FBECFEFD1E4DEBFCDBF13E0A0E09E
:10014000B2E0EEE1FBE300E00BBF02C007900D92CE
:10015000A034B107D9F716E0A0E4B3E001C01D92C6
:10016000AD39B107E1F70E9441020C948D1D0C944A
:100170000000109241030895CF93DF93CAE0D0E0CE
:100180000AC08FEF9FEF0E94700781E090E062E06D
:1001900070E00E94EC0A21978FEFCF3FD80789F7D4
:1001A00080911203882329F081E090E060E070E004
:1001B00004C081E090E061E070E00E94EC0ADF9111
:1001C000CF910895882391F480911203882319F028
:1001D00080E092E002C08BE192E00E94101982E080
:1001E00090E062E070E00E94EC0A02C00E94BC0055
:1001F0001092400308954F925F926F927F928F9278
:100200009F92AF92BF92CF92EF920F931F93DF9383
:10021000CF93CDB7DEB7CF5FD0400FB6F894DEBF37
:100220000FBECDBF2C01DC0116966D907C90179708
:10023000F301C080F5EFCF0E8301065F1F4F809161
:100240001203882309F4C3C000D089E392E0ADB75C
:10025000BEB712969C938E9311970E94F7180F9039
:100260000F90B3E2CB1621F4F30182858E3229F090
:100270000E94BC0087E492E0BFC0AEE0B4E0F301AE
:100280003F9688E001900D928150E1F78EE28093D5
:100290001A0488249924540144E064E070E0415039
:1002A000242F30E0FB01E21BF30BE00FF11F8081F4
:1002B00090E053E0220F331F5A95E1F702C0880FF8
:1002C000991F2A95E2F7AA2797FDA095BA2F882AA9
:1002D000992AAA2ABB2A442311F7F8018181928125
:1002E000A381B4818093160490931704A0931804FB
:1002F000B09319044091130350911403C8016DE0A9
:1003000074E02EE00DE036E0E32ECC24C3940E948E
:10031000F70C882349F500D089E692E0ADB7BEB767
:1003200012969C938E9311970E94F71883010F9059
:100330000F908DE0A82EB12CA60CB71CF801808D73
:1003400060E070E00E9432040F5F1F4F0A151B052A
:10035000A9F78AE090E00E94091982E090E062E04B
:1003600070E00E94EC0A2EC00E94BC008DB79EB7C0
:1003700008970FB6F8949EBF0FBE8DBFEDB7FEB7BE
:1003800031968E010F5F1F4FADB7BEB712961C930B
:100390000E93119782E892E0938382838482958200
:1003A000A682B7820E944519EDB7FEB736960FB602
:1003B000F894FEBF0FBEEDBF128301830E94F718B1
:1003C0000F900F9010921403109213033DC000D0B1
:1003D00088E992E0ADB7BEB712969C938E931197C1
:1003E0000E94F7180F900F90F30182858E3239F436
:1003F0000E94BC0087EA92E00E94101925C000D03C
:1004000086EC92E0ADB7BEB712969C938E9311978F
:100410000E94F7188301EE240F900F9007C0F80197
:10042000818560E070E00E943204E3940F5F1F4F0B
:10043000EC14A8F38AE090E00E94091982E090E0B1
:1004400062E070E00E94EC0AD20111968D919C91BD
:1004500012970E94400BC150DF4F0FB6F894DEBFD9
:100460000FBECDBFCF91DF911F910F91EF90CF9035
:10047000BF90AF909F908F907F906F905F904F90C4
:1004800008952F923F924F925F926F927F928F9238
:100490009F92AF92BF92CF92DF92EF92FF920F9313
:1004A0001F93DF93CF9300D00F92CDB7DEB70E949A
:1004B0001D16882311F00E946F060E94E50A80E055
:1004C00090E060E070E00E94EC0A81E090E061E082
:1004D00070E00E94EC0A82E090E061E070E00E942F
:1004E000EC0A789481E00E946705882311F00E944D
:1004F0006F0682E394E069E174E00E94AB180E9409
:100500002C0B80E090E00E942F0B892B19F41092A5
:10051000120303C081E08093120380E090E00E9408
:10052000190480911203882391F081E090E060E04B
:1005300070E00E94EC0A00D085ED92E0EDB7FEB7C6
:10054000928381830E94F7180F900F9004C084EF6C
:1005500092E00E9410190E94080E8AEB9BEA9B838E
:100560008A838E010E5F1F4F80E5B8010E946B14D5
:1005700081E090E09B838A8383E5B8010E946B143D
:1005800084E1898380E0BE016F5F7F4F0E946B141E
:100590000E947E1880931D0486E493E09093E1030B
:1005A0008093E00386E00E944D1772EE872E73E081
:1005B000972E61E0A62EB12C58E0252E312C4CE070
:1005C000442E512C34E0632E712C0E94DD060E94D3
:1005D0004E11809140038823C1F780914103882305
:1005E000A1F78091150390911603019709F0FBC0C4
:1005F00080E090E00E942F0B892B39F78091120345
:10060000882309F492C0A0EFB3E0E7E1F3E08DE0C6
:1006100001900D928150E1F7EDE0F4E020E1C22E6F
:100620001192CA94E9F798E0C92ECA940C2D10E0F3
:100630007101E01AF10A8DE094E0E80EF91E83E002
:10064000000F111F8A95E1F72091690630916A0623
:1006500040916B0650916C0660916D0670916E062C
:1006600080916F06909170060E946E17F7012083AB
:10067000CC20D9F6FEE2F0931A04F093E203A7EE41
:10068000B3E0EEE0F4E088E001900D928150E1F7F4
:100690001092EF0314E01150212F30E0C901B3E0B4
:1006A000880F991FBA95E1F7F201E21BF30BE35FA4
:1006B000FB4F40914203509143036091440370917A
:1006C00045036A017B0104C0F694E794D794C7946C
:1006D0008A95D2F7C082F301E21BF30BEE51FC4F77
:1006E000C0821123C1F64F5F5F4F6F4F7F4F409322
:1006F0004203509343036093440370934503409136
:1007000013035091140382EE93E06DE074E02EE049
:100710000DE0A6E0EA2ECC240E94F70C1092140300
:1007200010921303F3E2FF2E0BC0A2EEB3E0E7E159
:10073000F3E08DE001900D928150E1F7EDE0FE2EA7
:100740004F2D50E088E990E0841B950B0091E00369
:100750001091E103080F191FC801B40150E00E9475
:100760009B18F801B292A292B292A29232978AEBAF
:100770009BEA918380830750104080911D04F8010B
:1007800080838F5F80931D0471E6C72E78E8D72E93
:10079000D292C2926BE0D62EFD0CF2928F01E091C4
:1007A000E003F091E10317830683CC24C394C09245
:1007B0004003CF0162E070E041E00E94C212C092AB
:1007C000410380E040E45DE063E070E020E030E081
:1007D00009EB10E0EE24FF240E9469091092160331
:1007E00010921503F2CE80E090E00E942F0B813032
:1007F000910509F0EACE9093160380931503E5CE98
:10080000DF93CF930F92CDB7DEB781E0BE016F5F6C
:100810007F4F41E00E945505813019F02FEF3FEFE7
:1008200003C08981282F30E0C9010F90CF91DF915B
:1008300008950F931F93DF93CF930F92CDB7DEB739
:100840008E010F5F1F4F81E0B80141E00E94550506
:100850008823C9F3898190E00F90CF91DF911F9198
:100860000F9108950F931F93DF93CF930F92CDB7FE
:10087000DEB789838E010F5F1F4F81E0B80141E031
:100880000E945E058823C9F380E090E00F90CF912D
:10089000DF911F910F9108959B01AC016050774F3C
:1008A000824C9F4FF2E0660F771F881F991FFA95C1
:1008B000D1F7E3E0220F331F441F551FEA95D1F70C
:1008C0000E940118215030403093CD002093CC007D
:1008D00082E08093C800EAECF0E096E0908388ED37
:1008E0008093C90080ED8AB980EC8BB9908308951C
:1008F000DC018091C9008F7B8093C900209158064C
:1009000080915906821730F0275F922F981B892F0C
:10091000295005C02150922F981B892F2F5F482FF7
:10092000681708F4462F342F12C090915906E92F0A
:10093000F0E0EC5BF94F8C918083993019F41092C0
:10094000590603C09F5F9093590631501196332387
:1009500061F780915C06882351F4E22FF0E0EC5BB4
:10096000F94F80818093CE0081E080935C06809176
:10097000C90080648093C900842F0895DC01209110
:100980005D06222311F480E008958091C9008F77DD
:100990008093C9002A3058F080915B0680935A06F4
:1009A0008AE080935D066A3020F02AE003C02617B3
:1009B00008F0262F322F17C0E0915A06F0E0EC5BCA
:1009C000F94F82858C9390915A069F5F90935A06B7
:1009D00080915D06815080935D069A3011F41092EB
:1009E0005A0611963150332339F78091C900806837
:1009F0008093C900822F08951F920F920FB60F9215
:100A00000BB60F9211248F939F93EF93FF939091C6
:100A10005B0680915D068F5F80935D068091CE00BE
:100A2000E92FF0E0EC5BF94F8287993019F41092CE
:100A30005B0603C09F5F90935B06FF91EF919F91D0
:100A40008F910F900BBE0F900FBE0F901F901895B7
:100A50001F920F920FB60F920BB60F9211248F9325
:100A6000EF93FF9380915806893019F4109258063D
:100A700003C08F5F80935806E09158068091590615
:100A8000E81739F0F0E0EC5BF94F80818093CE00FD
:100A900002C010925C06FF91EF918F910F900BBEF8
:100AA0000F900FBE0F901F901895813011F080E0CD
:100AB0000895CB01642F0E94BE040895813011F087
:100AC00080E00895CB01642F0E947804089581305E
:100AD00011F085E8089560E875E280E090E00E94FA
:100AE0004C0480E0089590931F0480931E040895A1
:100AF000909321048093200408959093230480937D
:100B000022040895909325048093240408951F924D
:100B10000F920FB60F920BB60F9211242F933F93A3
:100B20004F935F936F937F938F939F93AF93BF93F5
:100B3000EF93FF93E0911E04F0911F040995FF913C
:100B4000EF91BF91AF919F918F917F916F915F9145
:100B50004F913F912F910F900BBE0F900FBE0F90B2
:100B60001F9018951F920F920FB60F920BB60F920F
:100B700011242F933F934F935F936F937F938F93A2
:100B80009F93AF93BF93EF93FF93E0912004F09175
:100B900021040995FF91EF91BF91AF919F918F91A2
:100BA0007F916F915F914F913F912F910F900BBE6D
:100BB0000F900FBE0F901F9018951F920F920FB6B7
:100BC0000F920BB60F9211242F933F934F935F9385
:100BD0006F937F938F939F93AF93BF93EF93FF9305
:100BE000E0912204F09123040995FF91EF91BF91C8
:100BF000AF919F918F917F916F915F914F913F91B5
:100C00002F910F900BBE0F900FBE0F901F90189555
:100C10001F920F920FB60F920BB60F9211242F93C3
:100C20003F934F935F936F937F938F939F93AF9374
:100C3000BF93EF93FF93E0912404F091250409956D
:100C4000FF91EF91BF91AF919F918F917F916F91A4
:100C50005F914F913F912F910F900BBE0F900FBE60
:100C60000F901F9018951F920F920FB60F9211249C
:100C70000F900FBE0F901F9018951F920F920FB6F6
:100C80000F9211240F900FBE0F901F9018951F9276
:100C90000F920FB60F9211240F900FBE0F901F905E
:100CA00018951F920F920FB60F9211240F900FBE3E
:100CB0000F901F9018951F920F920FB60F9211244C
:100CC0000F900FBE0F901F9018951F920F920FB6A6
:100CD0000F9211240F900FBE0F901F9018951EB801
:100CE0008FEF8DB98FEF9FEF0E9470078EB18095C7
:100CF0008EB9F8CFCF92DF92EF92FF920F931F93AE
:100D0000CF93DF937B018A016901892B11F088EE73
:100D100019C0CA01860F971F8150904110F085E8D5
:100D200011C0C0E0D0E00AC0CE018E0D9F1D0E9410
:100D30007C1BF601EC0FFD1F80832196C017D107A5
:100D400098F380E0DF91CF911F910F91FF90EF908A
:100D5000DF90CF900895CF92DF92EF92FF920F93A2
:100D60001F93CF93DF938C017B016A01CB01800F2E
:100D7000911F8150904110F085E816C0C0E0D0E08E
:100D80000FC0C8010E947C1BF601EC0FFD1F6081A3
:100D9000861719F0C8010E94841B0F5F1F4F219610
:100DA000CE15DF0570F380E0DF91CF911F910F9199
:100DB000FF90EF90DF90CF9008950E94330908953F
:100DC0000E94EF060E941007A89588E10FB6F894DC
:100DD00080936000109260000FBE80E008959FB77E
:100DE000F894E0E0F0E089E08093570084919FBFA1
:100DF0008F70823011F090E001C09FE080E80FB664
:100E0000F89480936100909361000FBE80E180931D
:100E1000350180933401809333018093320108952A
:100E200010922604109267069FEF909327049093E8
:100E300028049093290490936606109263061092FA
:100E4000620680E28093B60088EA8093DC008FE03F
:100E50008093F4009093F3009093F2009093F1004C
:100E600082E08093E000EFEDF0E08081826080839B
:100E700008950895FC018091DE0080FDFCCF209153
:100E8000E100822F2091E200922F2091E300A22F17
:100E90002091E400B22F24E0880F991FAA1FBB1FE6
:100EA0002A95D1F780839183A283B3830895FC01AF
:100EB0002091E900822F2091EA00922F2091EB00EF
:100EC000A22F2091EC00B22F34E0880F991FAA1FA7
:100ED000BB1F3A95D1F780839183A283B383089592
:100EE000AC018436910518F060E070E01EC07FB759
:100EF000F89461E01AC057FD02C09A0102C02FEFBA
:100F00003FE7C901880F991F909581959F4F909356
:100F1000250180932401FABBE0932101D09BFECFF1
:100F2000421B530B1092210102C0F1E0E2E0411597
:100F3000510509F761117FBF089520E090E0FC01A1
:100F4000B3E0EE0FFF1FBA95E1F7E80FF91FE25A81
:100F5000F94F84819581892B09F021E0822F089532
:100F6000AF92BF92CF92DF92EF92FF920F931F93B7
:100F70008091270490E0FC0113E0EE0FFF1F1A950B
:100F8000E1F7E80FF91FE25AF94FA080B180C28063
:100F9000D38080912604882309F46BC0D092F80096
:100FA000C092F700B092F600A092F5008091DF00A9
:100FB00080FD08C081E08093E0008091DF008160C7
:100FC0008093DF002091E100822F2091E200922F98
:100FD0002091E300A22F2091E400B22F9C01AD01EB
:100FE0002F5F3F4F4F4F5F4FDA01C9018A259B2585
:100FF000AC25BD2580709070A070B87F0097A105CA
:10100000B10531F4A216B306C406D506C0F109C075
:10101000D601C501B7705770281739074A075B0713
:1010200070F180915D01883068F5E0902A04F090BD
:101030002B0400912C0410912D040894E11CF11C48
:10104000011D111DEA14FB040C051D05D9F4809146
:10105000E100282F8091E200382F8091E300482F93
:101060008091E400582F2E153F054007510779F76E
:1010700006C08091DF008E7F8093DF0003C081E097
:10108000809367061F910F91FF90EF90DF90CF90B4
:10109000BF90AF9008951F931FB7F8948091670693
:1010A000882309F44CC0109267063091260433233C
:1010B00009F445C0809128048F3F59F48091290498
:1010C0008F3F39F48091270480932904809328046A
:1010D00012C0209127048091290490E0FC0153E084
:1010E000EE0FFF1F5A95E1F7E80FF91FE25AF94F8B
:1010F0002087209329048091270490E0FC0143E09D
:10110000EE0FFF1F4A95E1F7E80FF91FE25AF94F7A
:101110008085809327048091290490E0FC0123E0DE
:10112000EE0FFF1F2A95E1F7E80FF91FE25AF94F7A
:101130008FEF80873150309326040E94B0071FBF85
:101140001F9108950F931F93882311F08AE883C09D
:101150000FB7F8940E944B0810912604112309F44C
:101160007DC040912704242F842F312F2223F1F4B6
:10117000442339F480916606809327040E94B007C7
:101180000EC090E0FC01B3E0EE0FFF1FBA95E1F74F
:10119000E80FF91FE25AF94F8091660680878FEFBA
:1011A000809366061150109326044AC0822F90E067
:1011B000FC01A3E0EE0FFF1FAA95E1F7E80FF91F6E
:1011C000E25AF94F50853150822F09F447C0252F3C
:1011D000CDCF222319F520912904332359F422235A
:1011E00021F48FEF8093290402C0809166068093DA
:1011F000280426C0842F90E0FC0173E0EE0FFF1F4F
:101200007A95E1F7E80FF91FE25AF94F80916606E7
:1012100080872223A9F44093290412C0822F90E0F2
:10122000FC0163E0EE0FFF1F6A95E1F7E80FF91F7D
:10123000E25AF94F422F20852F3F59F680E005C032
:10124000109263061092620681E00FBF882311F4AA
:1012500089E801C080E01F910F9108953091280422
:10126000232F432FE9CF1F930E944B081FEF25C068
:101270006FB7F894822F90E0FC0123E0EE0FFF1F80
:101280002A95E1F7E80FF91FE25AF94F20854481CA
:101290005581868197811087158214821782168264
:1012A0002F3F09F43FEF6FBF4115510551F03093C7
:1012B000290420932804FA010995309129042091EA
:1012C00028042F3FA9F630932904209328041F9166
:1012D00008952F923F924F925F926F927F928F92DA
:1012E0009F92AF92BF92CF92DF92EF92FF920F93B5
:1012F0001F93CF93DF93E8011701882311F08AE849
:10130000F4C00115110509F4EDC0809162069091B9
:101310006306892B11F088E8E8C014E0769567959C
:10132000579547951A95D1F72115310529F02130A8
:10133000310509F0D7C026C0DB01CA010897A10911
:10134000B109885F9F4FAF4FB74008F0CDC02091E3
:10135000E100822F2091E200922F2091E300A22F42
:101360002091E400B22F7A018B01E80EF91E0A1FCA
:101370001B1F8FEF9FEFAFEFBFE0E822F9220A2398
:101380001B2320C02091E100822F2091E200922FA8
:101390002091E300A22F2091E400B22F8A019B014B
:1013A000081B190B2A0B3B0BD901C801BF7008970A
:1013B000A109B109885F9F4FAF4FB74008F094C0B3
:1013C0007A018B014FB6F894BFEF8B2EBFEF9B2EA7
:1013D000BFEFAB2EBFE0BB2E8E209F20A022B122FC
:1013E0000E944B08709027042FEF721671F05090F6
:1013F0002604C72CD72C66248FEF9FEFAFEFB7E002
:10140000E822F9220A231B234FC01092270470926E
:1014100066064EC09FEFD91609F441C06D2D70E0ED
:10142000FB01A3E0EE0FFF1FAA95E1F7E60FF71F00
:10143000E25AF94F2081318142815381D501C401A3
:1014400082279327A427B52780709070A070B87F5B
:101450000097A105B10539F4281539054A055B0542
:1014600008F456C007C05770E216F30604071507C4
:1014700008F44EC0D09266067D1419F41092270429
:1014800017C08C2D90E0FC0153E0EE0FFF1F5A9522
:10149000E1F7E80FF91FE25AF94F108609C08FEF04
:1014A000DC2C6394CD2CD82E651408F4B3CF3CC04B
:1014B00080925E0690925F06A0926006B0926106EE
:1014C000D0936306C093620630926506209264064C
:1014D000809126048F5F809326040E94B0074FBE40
:1014E00080E003C088EE01C08BE8DF91CF911F91AF
:1014F0000F91FF90EF90DF90CF90BF90AF909F90B3
:101500008F907F906F905F904F903F902F900895B5
:10151000FB0143E0EE0FFF1F4A95E1F7E60FF71FCF
:10152000E25AF94F8085BDCF8C2D90E0FC0133E06D
:10153000EE0FFF1F3A95E1F7E80FF91FE25AF94F56
:1015400010868FEF80936606B3CF1F920F920FB66F
:101550000F9211242F933F938F939F938091E100DB
:101560009091E2002091E3003091E40080932A04FE
:1015700090932B0420932C0430932D048091260407
:10158000882319F081E0809367069F918F913F91A6
:101590002F910F900FBE0F901F9018951F920F92D2
:1015A0000FB60F9211248F938FEF8093E4008093F6
:1015B000E3008093E2008093E1008F910F900FBED3
:1015C0000F901F90189581E00895729A6A9A739A05
:1015D0006B9A749A6C9A089581309105B9F08130B4
:1015E000910518F00297B9F524C06130710549F0F2
:1015F0006130710520F06230710569F504C07298A0
:101600000895729A08958EB194E010C0613071050A
:1016100049F06130710520F062307105E1F404C0D9
:1016200073980895739A08958EB198E089278EB9BA
:1016300008956130710549F06130710520F0623024
:10164000710549F404C074980895749A08958EB190
:1016500090E189278EB908956D9875980895892B22
:1016600019F021E030E00AC08CB1282F30E085E08D
:10167000369527958A95E1F721703070C901089554
:10168000BC01009721F088E096E00E94750B089558
:1016900088E096E060E070E00E940A0C08950F93E5
:1016A0001F93CF93DF9388E096E00E946E0BCCEF00
:1016B000D5E00EE214E01983088388E096E0BE01CD
:1016C0000E94750B249606561F4F86E0C830D80737
:1016D00091F7DF91CF911F910F910895FC01118235
:1016E00010821382128214820895CF93DF93DC015B
:1016F000EB019FB7F89414968C911497882321F4EA
:1017000011967C936E9306C01296ED91FC911397FF
:10171000738362831396DC93CE9312971B821A8293
:1017200014968C9114978F5F14968C939FBFDF91C2
:10173000CF9108959F92AF92BF92CF92DF92EF9296
:10174000FF920F931F93CF93DF938C015B016A018C
:101750009FB6F894DC0114968C91882319F4C0E0AC
:10176000D0E04AC0F801C081D18141155105B1F0E6
:101770007E0111C0D60112966D917C911397ED9167
:10178000FC91888199810995882359F47E018A8189
:101790009B819C01E901209769F72EC0209761F198
:1017A0007E01AB2849F5F801808191812A813B8136
:1017B000C817D90719F43183208305C0D7011396C0
:1017C0003C932E931297F80182819381C817D90711
:1017D00011F4F382E282D80114968C91149781500F
:1017E00014968C9314978D919C911197892B21F4C9
:1017F00013961C921E9212979FBECE01DF91CF913D
:101800001F910F91FF90EF90DF90CF90BF90AF901E
:101810009F900895AB0160E070E00E949A0B0895DC
:10182000AB0161E070E00E949A0B0895CF93DF93C3
:10183000EC010BC0CE0160E070E00E940A0C009742
:1018400011F41C8205C00E94400B8C81882391F703
:10185000DF91CF9108950895FC0190E081918093EC
:101860003E019F5F9031D1F780910E068068809392
:101870003C0180913D0180FFFCCF0895FC0190E088
:1018800080913E0181939F5F9031D1F708958091BF
:101890002F068F3019F480E00E942D170895809153
:1018A000880680932F068F3011F40E941E178091B6
:1018B0003403882319F0EFE1F6E002C0EFE0F6E030
:1018C00090E0819180933F019F5F9031D1F78091AB
:1018D0000E0680933C0108950F931F93DF93CF93DF
:1018E000CDB7DEB760970FB6F894DEBF0FBECDBFA1
:1018F000DC01162F042F0097F1F010920D0682E004
:10190000809334032FE036E0AD0180E1FA010190CD
:10191000AF01F90101929F018150C1F720E030E051
:10192000FD01E20FF31F808180933F012F5F3F4F46
:1019300020313105A9F7002321F0013009F047C01B
:101940000EC080913403813079F5EFE0F6E08191AB
:1019500080933F0186E0EF31F807C9F725C08091F9
:1019600034038130A1F180910D068823A1F41092F7
:101970000E0610923C01CE0101960E942C0CEFE164
:10198000F6E080913F01819386E0EF32F807C9F7D6
:1019900081E080930D06EFE1F6E0819180933F01B5
:1019A00086E0EF32F807C9F700933403123078F479
:1019B000802F880F880F880F88701295110F107272
:1019C000812B80930E0680933C0181E001C080E072
:1019D00060960FB6F894DEBF0FBECDBFCF91DF91FA
:1019E0001F910F91089581E08093300608953F92F2
:1019F0004F925F926F927F928F929F92AF92BF921F
:101A0000CF92DF92EF92FF920F931F93DF93CF93CA
:101A1000CDB7DEB762970FB6F894DEBF0FBECDBF6D
:101A20004C015B013A01322ED02EFE2C8091300603
:101A3000882321F00E944F0C109230064F2D50E069
:101A40009A01237030702115310511F4EE240AC07B
:101A50002F5F3F4F81E090E002C0880F991F2A95C9
:101A6000E2F7E82E487F452BA1F48114910489F018
:101A7000A114B10471F0432C552482010D0D111DE8
:101A80008E2D90E09A8B898B800F911F8038910565
:101A900020F00E94470C81E0A3C080913503882389
:101AA00039F06114710409F50E94470C82E098C076
:101AB00061147104D1F040E130E04150E42FF0E0D6
:101AC000D301AE0FBF1FEF5CF94F8C9120818227AD
:101AD00090E0232F30E0822B932B30E0892B09F00C
:101AE00031E0442351F73093350380913503882347
:101AF00079F0C30160E040E00E946C0CA1E3B6E025
:101B0000F30180E101900D928150E1F710923503CD
:101B100081E0F5018083EE2061F08E2D90E0029748
:101B20009595879523E0880F991F2A95E1F78160A5
:101B30008083332021F0F50180818064808384E0FC
:101B4000782E7F20F50160801686CC20D1F4EE201F
:101B500051F0D786080D191DC401B801A501232D28
:101B60000D2D0E94F10E7720C1F181E0F5018083F7
:101B7000C401840D951DB5014E2D2D2D0E940B0E17
:101B80002CC0772059F081E0F5018083C401840DD9
:101B9000951DB5014E2D2D2D0E940B0EEE20E9F066
:101BA000F5016082D786C4017E010894E11CF11C16
:101BB000B701A501232D0D2D0E94F10E832D90E07C
:101BC0008D0D911D880D991DB70149895A890E9473
:101BD0008E18009711F083E003C00E94470C80E04C
:101BE00062960FB6F894DEBF0FBECDBFCF91DF91E6
:101BF0001F910F91FF90EF90DF90CF90BF90AF902B
:101C00009F908F907F906F905F904F903F9008953E
:101C10000E942B0C08954F925F926F927F928F9249
:101C20009F92AF92BF92CF92DF92EF92FF920F936B
:101C30001F93DF93CF93CDB7DEB760970FB6F894BD
:101C4000DEBF0FBECDBF5C016B01642E122F80E0A2
:101C500090E060E040E00E946C0C7724EE24FF24CA
:101C6000412E55244E010894811C911C25C073946B
:101C7000D6011F967C92C6010E942C0CC4010E94C2
:101C80003E0CC8010131110514F080E190E0D5014E
:101C9000F401282F30E0A401420F531F04C08C919F
:101CA000919189278D93E417F507C9F7A20EB31E0A
:101CB000E0EFFFEFEE0EFF1E8701040D151D10165D
:101CC0001106ACF26620E9F0D6011F961C92C601FF
:101CD0000E942C0C8E010F5F1F4FC8010E943E0C0A
:101CE00020E030E00CC0F801E20FF31FD5018C9129
:101CF00090818927F50181935F012F5F3F4F621625
:101D000091F760960FB6F894DEBF0FBECDBFCF91AE
:101D1000DF911F910F91FF90EF90DF90CF90BF90D8
:101D2000AF909F908F907F906F905F904F900895AD
:101D3000CF92DF92EF92FF920F931F93DF93CF9397
:101D4000CDB7DEB760970FB6F894DEBF0FBECDBF3C
:101D50006C01F62E8C01E62E07C0C8010E942C0CE7
:101D6000005F1F4F80EFE80E8FE08E15B0F30F2D50
:101D70000F70F2949FE0F9222F2D30E084E0220FC3
:101D8000331F8A95E1F72C0D3D1D0023D9F010E09B
:101D90007E010894E11CF11CC701B901402F50E0FD
:101DA0000E949B18E0E1F0E0E01BF10B9701200F8F
:101DB000311FC90160E070E0AF010E94A418C701A3
:101DC0000E942C0C60960FB6F894DEBF0FBECDBFFC
:101DD000CF91DF911F910F91FF90EF90DF90CF9007
:101DE00008959F92AF92BF92CF92DF92EF92FF92AF
:101DF0000F931F93DF93CF93CDB7DEB760970FB6E6
:101E0000F894DEBF0FBECDBF6C015B017A01122FCB
:101E1000902EFA01078780E090E060E040E00E94A9
:101E20006C0CC7010E942C0C80E090E061E040E067
:101E30000E946C0C112301F1012F1F3008F00EE0FD
:101E400019821A83E02EFF249E012D5F3F4FC901A6
:101E5000B601402F50E00E949B18602F6E5FCE01AC
:101E600001960E94980E011738F4612F601BC6017D
:101E70008E0D9F1D0E94980EC601810F911D692D28
:101E80000E94980EC5010E943E0C60960FB6F89411
:101E9000DEBF0FBECDBFCF91DF911F910F91FF909D
:101EA000EF90DF90CF90BF90AF909F90089580917A
:101EB00041018F718830F1F481E080934F0189E016
:101EC0008093420180914F0180FD14C08EE690E026
:101ED0000E94700780914F0180FD0CC08EE690E05B
:101EE0000E94700780914F0180FD04C08EE690E053
:101EF0000E94700708951F93182F809188068F30D5
:101F0000D1F49FB7F8947894809139018D7F8093B4
:101F10003901809191068823E1F39FBF10929106C9
:101F200080914F018CE480934E01183011F01330F2
:101F300011F488E0AFC1809141018F7180938806D0
:101F4000183009F44BC0193050F4143009F493C020
:101F5000163009F49BC0133009F097C155C01F30EB
:101F600069F0103120F4193009F08FC163C01631C7
:101F700009F4C2C0193109F088C122C183E08093FD
:101F800042010E947E1880936D0180916E019770CE
:101F9000887F982B90936E0180914F0180E8809309
:101FA0004E010000000000000000000000000000E2
:101FB0000000000000000000000000000000000021
:101FC00000008091390182608093390183E290E0C2
:101FD0000E947007109388068FE05EC1883009F474
:101FE00054C11093420100000000000000000000F6
:101FF00000000000000000000000000000000000E1
:1020000000000000000041C1883009F43EC1109377
:10201000420100000000000000000000000000007D
:1020200000000000000000000000000000000000B0
:1020300000002BC1883021F1893020F4863009F06E
:1020400024C105C0863119F0893109F01EC189E02B
:10205000809342010000000000000000000000002A
:102060000000000000000000000000000000000070
:10207000000000000AC1883019F0893021F405C140
:102080000E94570F02C110934201FFC0893059F0DE
:102090008A3020F4883009F0F8C019C0863119F070
:1020A000893109F0F2C086E080934201000000000F
:1020B0000000000000000000000000000000000020
:1020C000000000000000000000000000DEC00E94D0
:1020D000570F1093420100000000000000000000B4
:1020E00000000000000000000000000000000000F0
:1020F000000000000000C9C08830F9F0893020F4E9
:10210000863009F0C2C02EC0893019F0893109F03B
:10211000BCC086E180934201000000000000000086
:1021200000000000000000000000000000000000AF
:102130000000000000000000A8C00E94570F10938C
:10214000420100000000000000000000000000004C
:10215000000000000000000000000000000000007F
:10216000000093C089E0809342010000000000005D
:10217000000000000000000000000000000000005F
:1021800000000000000000000000809141018F71FC
:1021900080938806893009F07FC0109342010000C7
:1021A000000000000000000000000000000000002F
:1021B000000000000000000000000000000065C0FA
:1021C000883009F44EC0893020F4863009F05DC0B3
:1021D00019C0893021F0863109F057C013C010931F
:1021E00042010000000000000000000000000000AC
:1021F00000000000000000000000000000000000DF
:10220000000043C089E0809342010000000000000C
:1022100000000000000000000000000000000000BE
:1022200000000000000000000000809141018F715B
:1022300080938806893009F02FC089E1809342019C
:10224000000000000000000000000000000000008E
:10225000000000000000000000000000000000007E
:1022600014C00E94570F10934201000000000000AC
:10227000000000000000000000000000000000005E
:1022800000000000000000000000809141018F71FB
:102290008F31D9F3809388061F9108958091790634
:1022A0008823E1F0809192068823C1F48091410651
:1022B00090914206892B39F48AE90E94480B909349
:1022C0004206809341068091410690914206892BF7
:1022D00029F01092790686E10E947B0F80917E069C
:1022E000882351F08AE796E060E070E00E940A0CD3
:1022F000009711F00E94831180919206823011F4B0
:102300000E94DB120895EF92FF920F931F93CF93D9
:10231000DF937C01DC010D911C91D8011696ED91A3
:10232000FC911797808180938A06C82FD0E0219670
:10233000CE0FDF1F988129812D3310F02CE303C0CD
:10234000222309F421E092959695969593708FEF4C
:10235000989FC001112430E0FC01E29FC001E39F7F
:10236000900DF29F900D112464EB70E00E94ED1728
:102370006F3F710511F008F06FEF6883D801129676
:10238000FC92EE921197C8010E94FB00DF91CF9161
:102390001F910F91FF90EF900895CF92DF92EF92EF
:1023A000FF920F931F93CF93DF93E0914106F0913B
:1023B0004206309709F449C0C081D181C0904701DD
:1023C000D0907B01D7FC41C082E0D80E0AE910E032
:1023D0000D191109EEEFDE0E0C0F1D1FED2CFF2461
:1023E00097012F5F3F4FC80160E871E0A9010E948B
:1023F0009B18F801D292FF83EE83EE0EFF1EF701C9
:10240000C28280914C018F7780934C0180914C0166
:10241000806880934C0160914106709142068AE782
:1024200096E00E94750B8AE90E94480B9093420641
:1024300080934106892B31F489E00E947B0F81E073
:102440008093790680E480934F01DF91CF911F91B3
:102450000F91FF90EF90DF90CF9008951F93109110
:1024600092061130C9F48091420182958695877059
:102470008093430682E0809392068091410690917A
:102480004206892B31F489E00E947B0F1093790674
:1024900003C086E10E947B0F1F9108950F931F9345
:1024A000CF93DF93EC018B01442349F090916C01B1
:1024B000809187068295807F9F70892B03C08091D1
:1024C0006C018F7080936C010230110598F44423E5
:1024D00069F090916C0180917F06880F8E70917FDA
:1024E000892B80936C0110926F0117C080916C0151
:1024F0008E6011C0809183068295807F90918606C0
:10250000892B80936F0190916C0180917F06880FD9
:102510008E70917F892B80936C0189E10E947B0FE3
:102520008931D9F70130110551F480918A06833140
:1025300018F080E492E005C080E890E002C089E0F5
:1025400090E00E9470071FB7F89480913901826073
:1025500080933901809139018D7F809339012881E1
:1025600030E02150304080E891E0BE01A9010E9496
:102570009B1881E0809392061FBFDF91CF911F913E
:102580000F910895FC0180919206882311F086E84E
:102590000895F0938506E093840686819781909351
:1025A0008C0680938B06009711F488EE08950E94A4
:1025B0004E1280E008951092920680914306833077
:1025C000B1F0843028F4882331F08130E1F409C07F
:1025D0008530C9F412C0609184067091850680E050
:1025E00017C0609184067091850687E811C06091DC
:1025F00084067091850681EE0BC06091840670910F
:10260000850689EE05C0609184067091850685E88F
:102610000E94E2000895FB01873009F45EC0883013
:1026200090F4833009F44CC0843030F48130C1F12F
:10263000823008F042C031C0853009F447C086308E
:1026400008F04EC040C08035F1F0813538F48E344A
:10265000A1F08F34A8F48B3071F466C0873509F48B
:1026600042C0883518F4833531F412C08935F1F150
:10267000803F09F43FC084EF089580917F0638C001
:102680008091860635C0809174069091750622C0AF
:1026900080917706909178061DC08091810628C0B0
:1026A00080918D0690918E06A0918F06B091900634
:1026B00080839183A283B38335C08091680618C05C
:1026C0008091760615C08091730612C080917106C4
:1026D000909172069183808325C08091800608C006
:1026E0008091890605C08091830602C0809187068B
:1026F000808318C080916906808380916A068183F7
:1027000080916B06828380916C06838380916D0635
:10271000848380916E06858380916F068683809185
:102720007006878380E0089580918206808380E030
:102730000895282F85FD03C0982F9F7304C0982FFC
:1027400091959F719195E0E2F1E08491891734F0C1
:102750003F968491981714F0822F0CC0803E3CF075
:1027600080323CF487FF06C08F71806203C080E234
:1027700001C08FE18068089584E080937F0623E0A4
:10278000209386068FEF9FEF9093750680937406D3
:1027900090937806809377068BE080938106109261
:1027A000730680E098EFAFEFB7E080938D069093CB
:1027B0008E06A0938F06B09390068AE091E09093E6
:1027C0007206809371068AE08093890682E0809386
:1027D000800685E0809383062093870683E80E9425
:1027E00099138093680681E08093760610928206A2
:1027F000089585FD03C0982F9F7304C0982F91956D
:102800009F719195E0E2F1E080E02491921724F02D
:1028100029173CF4815008958F5F31968031A9F7D4
:1028200080E008958091740690917506809362010E
:1028300090936301E9E6F6E0A4E6B1E081918D931F
:1028400086E0E137F807D1F7809177069091780616
:102850008093600190936101909148018091760688
:102860008295880F80769F79892B8093480190917B
:102870006F01809186068F70907F892B80936F0106
:1028800090916E0180918206880F880F880F887062
:10289000977F892B80936E0190916F0180918306C1
:1028A0008295807F9F70892B80936F019091480162
:1028B000809181068F71907E892B80934801809151
:1028C00068060E94F913909145018F70907F892BC3
:1028D000809345010895CF93DF93EB018E3431F05F
:1028E000893541F4888180938706F6C0888180937A
:1028F0007F06F2C0209188062F3011F481E8EDC0E8
:102900008B3009F4D7C08C3078F4823009F491C050
:10291000833020F4882309F441C015C0833009F4C2
:1029200099C0843081F469C0833569F1843528F415
:102930008F3459F0803539F41BC0873509F467C0EE
:10294000803F09F494C084EFC8C0888180938606D4
:1029500020918306281710F42093860690916F012A
:10296000809186068F70907F892B80936F01B4C011
:102970008881998180937406909375068093620193
:1029800090936301A9C08881998180937706909381
:10299000780680936001909361019EC080919206B9
:1029A000882309F095C080E098EFAFEFB7E008808A
:1029B00004C0B695A795979587950A94D2F781702C
:1029C0009070892B09F486C0283031F088E00E948D
:1029D0007B0F8830D9F726E198819093810680910A
:1029E00048019F71807E982B90934801283009F40C
:1029F00073C086E10E947B0F6FC08091920688238E
:102A000009F066C08881882309F466C063C06881C4
:102A10006093830680918606681710F4609386069B
:102A200080916F016295607F8F70682B60936F015A
:102A300053C08881809368060E949913809368062A
:102A40000E94F913909145018F70907F892B80939C
:102A5000450142C088818093760690914801829515
:102A6000880F80769F79892B8093480135C08881B3
:102A700080936906898180936A068A8180936B06B8
:102A80008B8180936C068C8180936D068D81809301
:102A90006E068E8180936F068F8180937006E9E6C3
:102AA000F6E0A4E6B1E081918D9386E0E137F80786
:102AB000D1F712C088818093820690916E01880FB1
:102AC000880F880F8870977F892B80936E0104C0D0
:102AD00086E803C088EE01C080E0DF91CF910895C1
:102AE0000F931F93CF93DF93082F809139018D7F30
:102AF0008093390180EF90E00E9470078091390146
:102B00008E7F8093390181E090E00E947007809170
:102B1000390181608093390110E084E690E00E94E1
:102B20007007809141011A3011F485E84DC08F7112
:102B3000883011F01F5FF1CF8093880680916E017D
:102B4000806280936E0180914C01806880934C017B
:102B50008CE480934E0186E00E947B0F10924E0120
:102B6000C0E0D0E010E080914601CC0FDD1FCC0F1B
:102B7000DD1F90E08076907025E0969587952A95E8
:102B8000E1F7C82BD92B1F5F183069F783E00E944B
:102B90007B0F80914F0110934F0180E480934F0190
:102BA00080E880934F018CE480934E01CE010E9417
:102BB0008318002311F00E94BC130E94121410927B
:102BC00092061092790680E0DF91CF911F910F91CC
:102BD00008950E947015882361F085E808958AE7BA
:102BE00096E060E070E00E940A0C009711F00E94ED
:102BF000400B80917E06882391F788E080934F01F7
:102C000080E480934F0184E080934F0180E88093BB
:102C10004F010E947E1880936D0180916E01977024
:102C2000887F982B90936E0180E00E942D170E9460
:102C30001E170E94F30C80E008950F931F93CF930B
:102C4000DF930E94E006882309F0CDC0809139010E
:102C5000816080933901809139018D7F80933901A2
:102C60008CE791E00E947007809139018E7F8093FC
:102C7000390181E090E00E94700780913901816004
:102C80008093390110E084E690E00E947007809103
:102C900041011A3009F4A7C08F71883011F01F5F0D
:102CA000F2CF8093880680915C01833809F09BC045
:102CB000A0C0C9E6D6E00E947E18899386E0C1379D
:102CC000D807C9F78091690630916A0640916B0672
:102CD00060916C0670916D06F0916E06B0916F0672
:102CE00050917006082F015091E0081708F090E00D
:102CF000832F815021E0831708F020E0192F180F4F
:102D000091E0181708F090E0292B842F815031E0D2
:102D1000841708F030E0A22FA80F91E0A81708F060
:102D200090E0392B862F815021E0861708F020E0B3
:102D3000E32FE80F91E0E81708F090E0292B872FA8
:102D4000815031E0871708F030E0622F680F91E082
:102D5000681708F090E0392B8F2F815021E08F17F2
:102D600008F020E0432F480F91E0481708F090E06A
:102D7000292B8B2F815091E08B1708F090E0322F98
:102D8000380F21E0381708F020E0922B51955917A1
:102D900079F43F3F69F44F3F59F46F3F49F4EF3FF7
:102DA00039F4AF3F29F41F3F19F40E3F08F081CFEB
:102DB00086E197E10E9478058EE097E10E94730515
:102DC0008AE097E10E9482050E944F0B8AE90E94E7
:102DD000480B90934206809341068AE796E00E9452
:102DE0006E0B80E001C085E8DF91CF911F910F91BC
:102DF000089580E090E060E070E048E050E029E66F
:102E000036E00E947A0681E00E947015882309F45A
:102E100059CFE9CF81E08093910608951F931FB7A2
:102E2000F8940E942E121FBF1F9108951F931FB781
:102E3000F8940E94CD111FBF1F91089580918806BC
:102E40008F3011F082E8089588E00E947B0F88306F
:102E500011F085E8089580E00895882311F088EE48
:102E60000895809188068F3011F481E8089580914B
:102E70009206882381F41092790688E00E947B0FE5
:102E80008830D9F78FE00E947B0F8F3021F40E94A9
:102E9000F30C80E0089586E80895982F80919206BB
:102EA000882311F086E80895983039F488E00E946C
:102EB0007B0F1092790688E00895809141069091E9
:102EC0004206892B29F086E10E947B0F86E0089557
:102ED00081E08093790686E008950895EF92FF924D
:102EE0000F93DF93CF93CDB7DEB760970FB6F8940B
:102EF000DEBF0FBECDBFA82F002309F461C07E0145
:102F00000894E11CF11C88E0F70111928A95E9F719
:102F100029833A834B835C836D837E83AF83988759
:102F200080E2801BE82FFF27E7FDF0954D815E8151
:102F30006F817885181684F01D861E861F86188A74
:102F4000882799278E1B9F0B04C076956795579508
:102F500047958A95D2F728C0202F332727FD309533
:102F6000DB01CA01022E04C0B695A79597958795F7
:102F70000A94D2F78D879E87AF87B88B04C0440F21
:102F8000551F661F771FEA95D2F789819A81AB8119
:102F9000BC8104C0B695A795979587952A95D2F7D9
:102FA000482B592B6A2B7B2B49875A876B877C8749
:102FB00029853A854B855C856D857E85AF859889A9
:102FC0008A2F60960FB6F894DEBF0FBECDBFCF91AB
:102FD000DF910F91FF90EF900895AA1BBB1B51E169
:102FE00007C0AA1FBB1FA617B70710F0A61BB70B79
:102FF000881F991F5A95A9F780959095BC01CD011E
:103000000895A1E21A2EAA1BBB1BFD010DC0AA1F29
:10301000BB1FEE1FFF1FA217B307E407F50720F041
:10302000A21BB30BE40BF50B661F771F881F991FBC
:103030001A9469F760957095809590959B01AC0105
:10304000BD01CF010895AF92BF92CF92DF92EF9270
:10305000FF920F931F93CF93DF93EC01A880B98069
:10306000CA80DB80A114B104C104D10441F484E21C
:10307000A82E89EDB82E8BE5C82E87E0D82EC60184
:10308000B5012DE133EF41E050E00E94721D27EAC7
:1030900031E440E050E00E94531D7B018C01C601E9
:1030A000B5012DE133EF41E050E00E94721DCA01ED
:1030B000B9012CEE34EF4FEF5FEF0E94531D6E0D00
:1030C0007F1D801F911F97FF04C06150704080409A
:1030D0009048688379838A839B839B013F77C901EA
:1030E000DF91CF911F910F91FF90EF90DF90CF90E4
:1030F000BF90AF9008950E942318089586E393E04F
:103100000E9423180895A0E0B0E0809336039093C6
:103110003703A0933803B09339030895FB01DC0112
:1031200004C08D910190801921F441505040C8F79E
:10313000881B990B0895FB01DC0102C001900D92E0
:1031400041505040D8F70895DC0101C06D934150C3
:103150005040E0F708950F931F93CF93DF938C01B6
:10316000EB01009731F46115710519F420E030E0AE
:1031700038C081E090E06EE070E00E94921BFC019C
:103180009C01009771F180E88383209771F0D387C9
:10319000C28781E883838091930690919406892B5E
:1031A00021F4F0939406E093930601151105C9F0FC
:1031B0001187008783818260838380919506909137
:1031C0009606892B71F4F0939606E093950680910C
:1031D000970690919806892B21F4F0939806E09336
:1031E0009706C901DF91CF911F910F910895DF9349
:1031F000CF93CDB7DEB7FE01359661917191809185
:10320000950690919606AF010E947619CF91DF91B5
:10321000089560919506709196060E94C91C0895C4
:103220000F931F93CF93DF938C01E0919506F0915C
:103230009606838181FF21C0C0E0D0E00DC0E091FF
:103240009506F091960620853185BF01F901099513
:10325000892B11F0CFEFDFEFF80181918F018823E7
:1032600071F7E0919506F0919606208531858AE008
:10327000BF01F9010995892B11F0CFEFDFEFCE01E6
:10328000DF91CF911F910F9108950F931F93DF93BB
:10329000CF93CDB7DEB72E970FB6F894DEBF0FBE33
:1032A000CDBF0D891E8986E08C831A8309838FEF39
:1032B0009FE79E838D839E01275E3F4FCE0101963F
:1032C0006F89788DA9010E9476192F813885020FA8
:1032D000131FF80110822E960FB6F894DEBF0FBEB2
:1032E000CDBFCF91DF911F910F9108952F923F9203
:1032F0004F925F926F927F928F929F92AF92BF9206
:10330000CF92DF92EF92FF920F931F93DF93CF93B1
:10331000CDB7DEB72B970FB6F894DEBF0FBECDBF8B
:103320003C012B015A01FC0117821682838181FD29
:1033300003C06FEF7FEFC6C19AE0892E1E0108948B
:10334000211C311CF3012381F20123FD859123FF10
:1033500081912F01882309F4B2C1853239F423FD0C
:10336000859123FF81912F01853229F490E0B301EB
:103370000E94C91CE7CF982FFF24EE249924FFE177
:10338000FF15D0F09B3269F09C3228F4903259F04E
:10339000933291F40EC09D3249F0903369F441E0CC
:1033A00024C052E0F52A84E0F82A28C098E0F92ADF
:1033B00025C0E0E1FE2A22C0F7FC29C0892F8053F6
:1033C0008A3070F4F6FE05C0989C902C1124980E5B
:1033D00015C0E89CE02C1124E80EF0E2FF2A0EC094
:1033E0009E3229F4F6FC6BC140E4F42A07C09C36F7
:1033F00019F450E8F52A02C0983649F4F20123FD89
:10340000959123FF91912F01992309F0B8CF892F2E
:103410008554833018F08052833038F444E050E013
:10342000A40EB51E5FE359830FC0933631F0933776
:1034300079F0933509F056C020C0F5018081898369
:1034400042E050E0A40EB51E610101E010E012C0A0
:10345000F501C080D180F6FC03C06FEF7FEF02C0A2
:10346000692D70E042E050E0A40EB51EC6010E9436
:10347000BE1C8C015FE7F52214C0F501C080D1802D
:10348000F6FC03C06FEF7FEF02C0692D70E042E0F1
:1034900050E0A40EB51EC6010E94B31C8C0150E87A
:1034A000F52AF3FE07C01AC080E290E0B3010E9443
:1034B000C91CEA948E2D90E008171907A8F30EC0D6
:1034C000F601F7FC8591F7FE81916F0190E0B30161
:1034D0000E94C91CE110EA94015010400115110529
:1034E00079F7EAC0943611F0993669F5F7FE08C00D
:1034F000F501208131814281538184E090E00AC04E
:10350000F501808191819C01442737FD4095542F1E
:1035100082E090E0A80EB91E9FE6F92257FF09C08D
:1035200050954095309521953F4F4F4F5F4FE0E8C4
:10353000FE2ACA01B901A1012AE030E00E94F51C6F
:10354000D82ED21840C0953729F41F2D1F7E2AE0AF
:1035500030E01DC01F2D197F9F3661F0903720F499
:10356000983509F0ACC00FC0903739F0983709F0A2
:10357000A6C004C028E030E00AC0106114FD146049
:1035800020E130E004C014FD166020E132E017FFB6
:1035900008C0F501608171818281938144E050E02F
:1035A00008C0F50180819181BC0180E090E042E09B
:1035B00050E0A40EB51EA1010E94F51CD82ED21811
:1035C0008FE7F82EF122F6FE0BC05EEFF522D9143C
:1035D00038F4F4FE07C0F2FC05C08FEEF82202C0FA
:1035E0001D2D01C0192DF4FE0DC0FE01ED0DF11DC4
:1035F0008081803319F499EEF92208C01F5FF2FE32
:1036000005C003C08F2D867809F01F5F0F2DF3FCD6
:1036100014C0F0FE0FC01E1510F09D2C0BC09D2C89
:103620009E0C911A1E2D06C080E290E0B3010E940C
:10363000C91C1F5F1E15C0F304C01E1510F4E11A4B
:1036400001C0EE2404FF0FC080E390E0B3010E94AC
:10365000C91C02FF1DC001FD03C088E790E00EC039
:1036600088E590E00BC0802F867891F001FF02C0C2
:103670008BE201C080E2F7FC8DE290E0B3010E9492
:10368000C91C06C080E390E0B3010E94C91C9A9453
:10369000D914C0F3DA94F101ED0DF11D808190E0B1
:1036A000B3010E94C91CDD20A9F706C080E290E0AA
:1036B000B3010E94C91CEA94EE20C1F743CEF30186
:1036C00066817781CB012B960FB6F894DEBF0FBED3
:1036D000CDBFCF91DF911F910F91FF90EF90DF90C1
:1036E000CF90BF90AF909F908F907F906F905F90A2
:1036F0004F903F902F900895F999FECF92BD81BDD4
:10370000F89A992780B50895262FF999FECF1FBA08
:1037100092BD81BD20BD0FB6F894FA9AF99A0FBEFA
:10372000019608950F931F93CF93DF93689F8001B5
:10373000699F100D789F100D1124C8010E94AE1BC7
:10374000EC01009729F060E070E0A8010E94A41845
:10375000CE01DF91CF911F910F910895CF93DF9309
:10376000BC018230910510F462E070E0A0919B06EC
:10377000B0919C06ED01E0E0F0E040E050E021C0B7
:10378000888199818617970769F48A819B81309790
:1037900019F09383828304C090939C0680939B06C8
:1037A000FE0134C06817790738F44115510519F046
:1037B0008417950708F4AC01FE018A819B819C0166
:1037C000E9012097E9F641155105A9F1CA01861BC7
:1037D000970B049708F4BA01E0E0F0E02AC08D915D
:1037E0009C91119784179507F9F46417750781F474
:1037F00012968D919C911397309719F09383828341
:1038000004C090939C0680939B06FD0132964FC0A6
:10381000CA01861B970BFD01E80FF91F6193719395
:1038200002978D939C9343C0FD01828193819C01FB
:10383000D9011097A1F68091990690919A06892B4B
:1038400041F480913C0390913D0390939A068093BC
:10385000990640913E0350913F034115510541F4B3
:103860004DB75EB780913A0390913B03481B590BCB
:103870002091990630919A0624173507B0F4CA01B1
:10388000821B930B8617970780F0AB014E5F5F4F4B
:103890008417950750F0420F531F50939A06409398
:1038A0009906F9016193719302C0E0E0F0E0CF0165
:1038B000DF91CF910895CF93DF93009709F450C023
:1038C000EC0122971B821A82A0919B06B0919C0664
:1038D000109709F140E050E0AC17BD0708F1BB8339
:1038E000AA83FE0121913191E20FF31FAE17BF07AA
:1038F00079F48D919C911197280F391F2E5F3F4FBE
:103900003983288312968D919C9113979B838A8388
:103910004115510571F4D0939C06C0939B0620C0BD
:1039200012968D919C911397AD01009711F0DC01D7
:10393000D3CFFA01D383C28321913191E20FF31FD8
:10394000CE17DF0769F488819981280F391F2E5F10
:103950003F4FFA01318320838A819B819383828345
:10396000DF91CF910895FC010590615070400110E6
:10397000D8F7809590958E0F9F1F0895FC01615098
:10398000704001900110D8F7809590958E0F9F1F81
:1039900008950F931F93CF93DF938C01EB018B81DD
:1039A00081FF1BC082FF0DC02E813F818C819D81D4
:1039B0002817390764F4E881F9810193F983E883D2
:1039C00006C0E885F985802F0995892B31F48E8111
:1039D0009F8101969F838E8302C00FEF1FEFC80166
:1039E000DF91CF911F910F910895FA01AA272830F6
:1039F00051F1203181F1E8946F936E7F6E5F7F4FBC
:103A00008F4F9F4FAF4FB1E03ED0B4E03CD0670F37
:103A1000781F891F9A1FA11D680F791F8A1F911D8A
:103A2000A11D6A0F711D811D911DA11D20D009F4DA
:103A300068943F912AE0269F11243019305D31931C
:103A4000DEF6CF010895462F4770405D4193B3E005
:103A50000FD0C9F7F6CF462F4F70405D4A3318F0AC
:103A6000495D31FD4052419302D0A9F7EACFB4E05D
:103A7000A6959795879577956795BA95C9F7009715
:103A80006105710508959B01AC010A2E06945795B6
:103A9000479537952795BA95C9F7620F731F841F0D
:103AA000951FA01D0895629FD001739FF001829F12
:103AB000E00DF11D649FE00DF11D929FF00D839FBD
:103AC000F00D749FF00D659FF00D9927729FB00D5A
:103AD000E11DF91F639FB00DE11DF91FBD01CF016D
:103AE0001124089597FB092E05260ED057FD04D00A
:103AF00088DA0AD0001C38F450954095309521950D
:103B00003F4F4F4F5F4F0895F6F790958095709512
:0E3B100061957F4F8F4F9F4F0895F894FFCF20
:103B1E005365637572697479206F6E3A20547820FC
:103B2E0073656375726564206F6B005365637572A0
:103B3E00697479206F66663A20547820706C6169DA
:103B4E006E74657874206F6B00536563757269745B
:103B5E0079206F6E3A2000527820756E6B6E6F77FB
:103B6E006E206672616D6520776974686F7574205A
:103B7E007365637572697479005278207365637525
:103B8E007265642C20646563727970797465643A29
:103B9E0020004672616D6520256C753A204D4943B3
:103BAE002077726F6E670A00536563757269747958
:103BBE00206F66663A2000527820756E6B6E6F77B6
:103BCE006E206672616D6520776974682073656317
:103BDE00757269747900527820706C61696E7465C3
:103BEE0078743A2000417070207374617274656449
:103BFE002077697468207365637572697479206FB4
:103C0E006E0A0D00417070207374617274656420C9
:103C1E0077697468207365637572697479206F664D
:103C2E0066000124030100546F67676C65206C69A0
:103C3E0067687421A1A3A5A73C5E70B2015293C41C
:103C4E008448201002010100000020009D060000A3
:00000001FF
