:100000000C9498000C94B7000C94B7000C94B700B3
:100010000C94B7000C94B7000C94B7000C94B70084
:100020000C94B7000C94B7000C94B7000C94B70074
:100030000C94B7000C94B7000C94B7000C94B70064
:100040000C94B7000C94B7000C94B7000C94B70054
:100050000C94B7000C94B7000C94B7000C94B70044
:100060000C94B7000C9455020C94B7000C948102C8
:100070000C94B7000C94B7000C94B7000C94B70024
:100080000C94B7000C94B7000C94B7000C94B70014
:100090000C94B7000C94B7000C94B7000C94B70004
:1000A0000C94B7000C94B7000C94B7000C94B700F4
:1000B0000C94B7000C94B7000C94B7000C94B700E4
:1000C0000C94B7000C94B7000C94B7000C94B700D4
:1000D0000C94B7000C94B7000C94B7000C94B700C4
:1000E0000C94B7000C9496030C94A0030C948C030E
:1000F0000C940B030C9436030C94AA030C94E002AA
:100100000C9461030C94FE070C9427080C94B70020
:100110000C94B7000C94B7000C94BE030C94B40379
:1001200003020201010000FFFEFDFCFBF9F7F4EF02
:1001300011241FBECFEFD1E4DEBFCDBF12E0A0E09F
:10014000B2E0E2E2FFE100E00BBF02C007900D92D7
:10015000A430B107D9F715E0A4E0B2E001C01D92C8
:10016000AC3AB107E1F70E9406010C948F0F0C9492
:1001700000001F93CF93DF93882391F41091060220
:100180001B50C0E1D2E080E0BE01412F0E94B702C7
:10019000811778F4181BC80FD11D0E943604F3CFC5
:1001A000813E69F482E090E090930502809304021E
:1001B0000AC082E090E062E070E00E944508109280
:1001C000050210920402DF91CF911F9108951F93B1
:1001D000CF93DF93FC0110811B50EC012A9680E045
:1001E000BE01412F0E94B702811730F4181BC80FBF
:1001F000D11D0E943604F3CF81E090E062E070E010
:100200000E944508DF91CF911F910895CF92DF9210
:10021000EF92FF920F931F93DF93CF9300D00F9233
:10022000CDB7DEB70E94E70D882311F00E94C80306
:100230000E943C080E943E0880E090E060E070E090
:100240000E94450881E090E061E070E00E9445086E
:1002500082E090E061E070E00E944508789480E0E0
:100260000E94C002882311F00E94C8038BE0809393
:10027000060281E698E890930802809307020E94A4
:10028000260F809309028EEF9AEC90930B028093D5
:100290000A0221E0E22EF12CF0920D02E0920C0213
:1002A0009B838A838E010E5F1F4F80E5B8010E94F9
:1002B0005C0CFB82EA8283E5B8010E945C0C8A81B7
:1002C0009B8190930F0280930E0284E1898380E0EA
:1002D000BE016F5F7F4F0E945C0C86E00E94820E21
:1002E00088E8C82E82E0D82E00E112E00E94360491
:1002F0000E948C0A80910402909105020097F9F403
:1003000080E068E872E046E60E94AE02482F88234B
:1003100069F3F0920502E0920402809109028F5F76
:1003200080930902473608F046E6455F409306028F
:100330004B50C801B60150E00E94360F06C002972C
:10034000A9F6F0920502E092040286E092E062E0F3
:1003500070E041E00E94830BC9CF9B01AC0160506B
:10036000774F824C9F4FF2E0660F771F881F991FCF
:10037000FA95D1F7E3E0220F331F441F551FEA958A
:10038000D1F70E94A90E215030403093C500209330
:10039000C40082E08093C000E2ECF0E096E090833D
:1003A00088ED8093C10090830895DC018091C100A5
:1003B0008F7B8093C1002091FD048091FE04821701
:1003C00030F02250922F981B892F2E5F05C02150AC
:1003D000922F981B892F2F5F482F681708F4462FFC
:1003E000342F12C09091FE04E92FF0E0E150FD4F50
:1003F0008C9180839E3F19F41092FE0403C09F5F8E
:100400009093FE0431501196332361F780910105DA
:10041000882351F4E22FF0E0E150FD4F808180937A
:10042000C60081E0809301058091C10080648093C3
:10043000C100842F0895DC0120910205222311F4CC
:1004400080E008958091C1008F778093C1002F3F95
:1004500039F4809100058093FF042093020502C0C7
:10046000261708F0262F322F17C0E091FF04F0E086
:10047000E250FC4F80818C939091FF049F5F90939A
:10048000FF04809102058150809302059F3F11F483
:100490001092FF0411963150332339F78091C10037
:1004A00080688093C100822F08951F920F920FB62B
:1004B0000F920BB60F9211248F939F93EF93FF939C
:1004C00090910005809102058F5F809302058091D5
:1004D000C600E92FF0E0E250FC4F80839E3F19F404
:1004E0001092000503C09F5F90930005FF91EF916C
:1004F0009F918F910F900BBE0F900FBE0F901F908A
:1005000018951F920F920FB60F920BB60F921124EF
:100510008F93EF93FF938091FD048E3F19F4109217
:10052000FD0403C08F5F8093FD04E091FD04809182
:10053000FE04E81739F0F0E0E150FD4F8081809330
:10054000C60002C010920105FF91EF918F910F90AC
:100550000BBE0F900FBE0F901F901895882311F0BF
:1005600080E00895CB01642F0E941B020895882328
:1005700011F080E00895CB01642F0E94D501089509
:10058000882311F085E8089560E875E280E090E046
:100590000E94AD0180E008959093EF028093EE02F7
:1005A00008959093F1028093F00208959093F302DE
:1005B0008093F20208959093F5028093F4020895D7
:1005C0001F920F920FB60F920BB60F9211242F931A
:1005D0003F934F935F936F937F938F939F93AF93CB
:1005E000BF93EF93FF93E091EE02F091EF02099534
:1005F000FF91EF91BF91AF919F918F917F916F91FB
:100600005F914F913F912F910F900BBE0F900FBEB6
:100610000F901F9018951F920F920FB60F920BB666
:100620000F9211242F933F934F935F936F937F9378
:100630008F939F93AF93BF93EF93FF93E091F0025B
:10064000F091F1020995FF91EF91BF91AF919F91C8
:100650008F917F916F915F914F913F912F910F906B
:100660000BBE0F900FBE0F901F9018951F920F9208
:100670000FB60F920BB60F9211242F933F934F9307
:100680005F936F937F938F939F93AF93BF93EF93FA
:10069000FF93E091F202F091F3020995FF91EF913F
:1006A000BF91AF919F918F917F916F915F914F918A
:1006B0003F912F910F900BBE0F900FBE0F901F9088
:1006C00018951F920F920FB60F920BB60F9211242E
:1006D0002F933F934F935F936F937F938F939F934A
:1006E000AF93BF93EF93FF93E091F402F091F50283
:1006F0000995FF91EF91BF91AF919F918F917F915C
:100700006F915F914F913F912F910F900BBE0F9082
:100710000FBE0F901F9018951F920F920FB60F9259
:1007200011240F900FBE0F901F9018951F920F92DB
:100730000FB60F9211240F900FBE0F901F901895B7
:100740001F920F920FB60F9211240F900FBE0F90B1
:100750001F9018951F920F920FB60F9211240F90B1
:100760000FBE0F901F9018951F920F920FB60F9209
:1007700011240F900FBE0F901F9018951F920F928B
:100780000FB60F9211240F900FBE0F901F90189567
:100790001EB88FEF8DB98FEF9FEF0E94C9048EB105
:1007A00080958EB9F8CFCF92DF92EF92FF920F93A0
:1007B0001F93CF93DF937B018A016901892B11F08D
:1007C00088EE19C0CA01860F971F8150904110F022
:1007D00085E811C0C0E0D0E00AC0CE018E0D9F1D9B
:1007E0000E943F0FF601EC0FFD1F80832196C0177A
:1007F000D10798F380E0DF91CF911F910F91FF9087
:10080000EF90DF90CF900895CF92DF92EF92FF921A
:100810000F931F93CF93DF938C017B016A01CB0170
:10082000800F911F8150904110F085E816C0C0E004
:10083000D0E00FC0C8010E943F0FF601EC0FFD1F72
:100840006081861719F0C8010E94470F0F5F1F4F84
:100850002196CE15DF0570F380E0DF91CF911F91D7
:100860000F91FF90EF90DF90CF9008950E948C063B
:1008700008950E9448040E946904A89588E10FB673
:10088000F89480936000109260000FBE80E008959D
:100890009FB7F894E0E0F0E089E0809357008491FE
:1008A0009FBF8F70823011F090E001C09FE080E820
:1008B0000FB6F89480936100909361000FBE80E1C1
:1008C000809335018093340180933301809332010A
:1008D00008951092F60210920C059FEF9093F70284
:1008E0009093F8029093F90290930B0510920805EB
:1008F0001092070580E28093B60088EA8093DC00BE
:100900008FE08093F4009093F3009093F200909323
:10091000F10082E08093E000EFEDF0E08081826002
:10092000808308950895FC018091DE0080FDFCCF56
:100930002091E100822F2091E200922F2091E3008C
:10094000A22F2091E400B22F24E0880F991FAA1F44
:10095000BB1F2A95D1F780839183A283B383089527
:10096000FC012091E900822F2091EA00922F209132
:10097000EB00A22F2091EC00B22F34E0880F991FDA
:10098000AA1FBB1F3A95D1F780839183A283B383BB
:100990000895AC018436910518F060E070E01EC047
:1009A0007FB7F89461E01AC057FD02C09A0102C0F7
:1009B0002FEF3FE7C901880F991F909581959F4FB1
:1009C0009093250180932401FABBE0932101D09BF1
:1009D000FECF421B530B1092210102C0F1E0E2E076
:1009E0004115510509F761117FBF089520E090E09E
:1009F000FC01B3E0EE0FFF1FBA95E1F7E80FF91F16
:100A0000ED5FFA4F84819581892B09F021E0822FD7
:100A10000895AF92BF92CF92DF92EF92FF920F9321
:100A20001F938091F70290E0FC0113E0EE0FFF1F8F
:100A30001A95E1F7E80FF91FED5FFA4FA080B1803A
:100A4000C280D3808091F602882309F46BC0D092D3
:100A5000F800C092F700B092F600A092F5008091E5
:100A6000DF0080FD08C081E08093E0008091DF001E
:100A700081608093DF002091E100822F2091E200CD
:100A8000922F2091E300A22F2091E400B22F9C012D
:100A9000AD012F5F3F4F4F4F5F4FDA01C9018A25EC
:100AA0009B25AC25BD2580709070A070B87F009705
:100AB000A105B10531F4A216B306C406D506C0F1EE
:100AC00009C0D601C501B7705770281739074A0702
:100AD0005B0770F180915D01883068F5E090FA0263
:100AE000F090FB020091FC021091FD020894E11CC1
:100AF000F11C011D111DEA14FB040C051D05D9F4A0
:100B00008091E100282F8091E200382F8091E3004E
:100B1000482F8091E400582F2E153F0540075107BC
:100B200079F706C08091DF008E7F8093DF0003C0DD
:100B300081E080930C051F910F91FF90EF90DF9063
:100B4000CF90BF90AF9008951F931FB7F8948091F6
:100B50000C05882309F44CC010920C053091F60264
:100B6000332309F445C08091F8028F3F59F48091F6
:100B7000F9028F3F39F48091F7028093F902809354
:100B8000F80212C02091F7028091F90290E0FC0176
:100B900053E0EE0FFF1F5A95E1F7E80FF91FED5FE5
:100BA000FA4F20872093F9028091F70290E0FC0130
:100BB00043E0EE0FFF1F4A95E1F7E80FF91FED5FE5
:100BC000FA4F80858093F7028091F90290E0FC0152
:100BD00023E0EE0FFF1F2A95E1F7E80FF91FED5F05
:100BE000FA4F8FEF808731503093F6020E9409054B
:100BF0001FBF1F9108950F931F93882311F08AE858
:100C000083C00FB7F8940E94A4051091F602112337
:100C100009F47DC04091F702842F312F242F222325
:100C2000F1F4442339F480910B058093F7020E947C
:100C300009050EC090E0FC01B3E0EE0FFF1FBA956E
:100C4000E1F7E80FF91FED5FFA4F80910B05808700
:100C50008FEF80930B0511501093F6024AC0822F3C
:100C600090E0FC01A3E0EE0FFF1FAA95E1F7E80F6B
:100C7000F91FED5FFA4F50853150822F09F447C0BC
:100C8000252FCDCF222319F52091F902332359F4D2
:100C9000222321F48FEF8093F90202C080910B058B
:100CA0008093F80226C0842F90E0FC0173E0EE0FE1
:100CB000FF1F7A95E1F7E80FF91FED5FFA4F80917A
:100CC0000B0580872223A9F44093F90212C0822FDA
:100CD00090E0FC0163E0EE0FFF1F6A95E1F7E80F7B
:100CE000F91FED5FFA4F422F20852F3F59F680E024
:100CF00005C0109208051092070581E00FBF8823F8
:100D000011F489E801C080E01F910F91089530919E
:100D1000F802432F232FE9CF1F930E94A4051FEF52
:100D200025C06FB7F894822F90E0FC0123E0EE0F0E
:100D3000FF1F2A95E1F7E80FF91FED5FFA4F2085B5
:100D4000448155818681978110871582148217828C
:100D500016822F3F09F43FEF6FBF4115510551F047
:100D60003093F9022093F802FA0109953091F902C3
:100D70002091F8022F3FA9F63093F9022093F80250
:100D80001F9108952F923F924F925F926F927F92A0
:100D90008F929F92AF92BF92CF92DF92EF92FF928B
:100DA0000F931F93CF93DF93E8011701882311F06E
:100DB0008AE8F4C00115110509F4EDC0809107051A
:100DC00090910805892B11F088E8E8C014E0769529
:100DD0006795579547951A95D1F72115310529F053
:100DE0002130310509F0D7C026C0DB01CA010897C0
:100DF000A109B109885F9F4FAF4FB74008F0CDC040
:100E00002091E100822F2091E200922F2091E300B7
:100E1000A22F2091E400B22F7A018B01E80EF91E77
:100E20000A1F1B1F8FEF9FEFAFEFBFE0E822F922F1
:100E30000A231B2320C02091E100822F2091E20091
:100E4000922F2091E300A22F2091E400B22F8A017B
:100E50009B01081B190B2A0B3B0BD901C801BF7062
:100E60000897A109B109885F9F4FAF4FB74008F0BD
:100E700094C07A018B014FB6F894BFEF8B2EBFEF71
:100E80009B2EBFEFAB2EBFE0BB2E8E209F20A0225B
:100E9000B1220E94A4057090F7022FEF721671F034
:100EA0005090F602C72CD72C66248FEF9FEFAFEF40
:100EB000B7E0E822F9220A231B234FC01092F70261
:100EC00070920B054EC09FEFD91609F441C06D2DED
:100ED00070E0FB01A3E0EE0FFF1FAA95E1F7E60F1C
:100EE000F71FED5FFA4F2081318142815381D50197
:100EF000C40182279327A427B52780709070A07023
:100F0000B87F0097A105B10539F4281539054A05C0
:100F10005B0508F456C007C05770E216F3060407D5
:100F2000150708F44EC0D0920B057D1419F41092E9
:100F3000F70217C08C2D90E0FC0153E0EE0FFF1F6D
:100F40005A95E1F7E80FF91FED5FFA4F108609C0D7
:100F50008FEFDC2C6394CD2CD82E651408F4B3CF1E
:100F60003CC08092030590920405A0920505B092C2
:100F70000605D0930805C093070530920A05209214
:100F800009058091F6028F5F8093F6020E940905A1
:100F90004FBE80E003C088EE01C08BE8DF91CF91A7
:100FA0001F910F91FF90EF90DF90CF90BF90AF9087
:100FB0009F908F907F906F905F904F903F902F9079
:100FC0000895FB0143E0EE0FFF1F4A95E1F7E60F9E
:100FD000F71FED5FFA4F8085BDCF8C2D90E0FC01AF
:100FE00033E0EE0FFF1F3A95E1F7E80FF91FED5FD1
:100FF000FA4F10868FEF80930B05B3CF1F920F929D
:101000000FB60F9211242F933F938F939F9380914C
:10101000E1009091E2002091E3003091E4008093A0
:10102000FA029093FB022093FC023093FD02809120
:10103000F602882319F081E080930C059F918F912F
:101040003F912F910F900FBE0F901F9018951F92F8
:101050000F920FB60F9211248F938FEF8093E400BD
:101060008093E3008093E2008093E1008F910F90E2
:101070000FBE0F901F90189581E008958DB18C617F
:101080008DB98EB18C618EB9089581309105B9F01A
:101090008130910518F00297B9F524C061307105CF
:1010A00049F06130710520F06230710569F504C0C6
:1010B00072980895729A08958EB194E010C06130CC
:1010C000710549F06130710520F062307105E1F47D
:1010D00004C073980895739A08958EB198E0892793
:1010E0008EB908956130710549F06130710520F0C5
:1010F0006230710549F404C074980895749A089593
:101100008EB190E189278EB908956D9875980895EC
:10111000892B19F021E030E00AC08CB1282F30E093
:1011200085E0369527958A95E1F721703070C901E1
:101130000895809141018F718830F1F481E08093AE
:101140004F0189E08093420180914F0180FD14C0DE
:101150008EE690E00E94C90480914F0180FD0CC092
:101160008EE690E00E94C90480914F0180FD04C08A
:101170008EE690E00E94C90408951F93182F809175
:1011800025058F30B1F4809139018D7F809339012D
:10119000809127058823E1F31092270580914F0164
:1011A00088E480934E01183011F0133011F488E078
:1011B000AFC1809141018F7180932505183009F4EA
:1011C0004BC0193050F4143009F493C0163009F4B0
:1011D0009BC0133009F097C155C01F3069F0103122
:1011E00020F4193009F08FC163C0163109F4C2C070
:1011F000193109F088C122C183E0809342010E9425
:10120000260F80936D0180916E019770887F982BD7
:1012100090936E0180914F0180E880934E01000011
:1012200000000000000000000000000000000000BE
:10123000000000000000000000000000000080919D
:10124000390182608093390183E290E00E94C904F1
:10125000109325058FE05EC1883009F454C11093C6
:10126000420100000000000000000000000000003B
:10127000000000000000000000000000000000006E
:10128000000041C1883009F43EC1109342010000C2
:10129000000000000000000000000000000000004E
:1012A00000000000000000000000000000002BC152
:1012B000883021F1893020F4863009F024C105C03E
:1012C000863119F0893109F01EC189E0809342010D
:1012D000000000000000000000000000000000000E
:1012E00000000000000000000000000000000000FE
:1012F0000AC1883019F0893021F405C10E9499088B
:1013000002C110934201FFC0893059F08A3020F4A5
:10131000883009F0F8C019C0863119F0893109F018
:10132000F2C086E08093420100000000000000004F
:1013300000000000000000000000000000000000AD
:101340000000000000000000DEC00E949908109319
:10135000420100000000000000000000000000004A
:10136000000000000000000000000000000000007D
:101370000000C9C08830F9F0893020F4863009F0C7
:10138000C2C02EC0893019F0893109F0BCC086E195
:1013900080934201000000000000000000000000F7
:1013A000000000000000000000000000000000003D
:1013B00000000000A8C00E9499081093420100009C
:1013C000000000000000000000000000000000001D
:1013D000000000000000000000000000000093C0BA
:1013E00089E080934201000000000000000000003E
:1013F00000000000000000000000000000000000ED
:10140000000000000000809141018F71809325054C
:10141000893009F07FC010934201000000000000F5
:1014200000000000000000000000000000000000BC
:101430000000000000000000000065C0883009F4D2
:101440004EC0893020F4863009F05DC019C0893063
:1014500021F0863109F057C013C0109342010000FB
:10146000000000000000000000000000000000007C
:10147000000000000000000000000000000043C069
:1014800089E080934201000000000000000000009D
:10149000000000000000000000000000000000004C
:1014A000000000000000809141018F7180932505AC
:1014B000893009F02FC089E18093420100000000CB
:1014C000000000000000000000000000000000001C
:1014D00000000000000000000000000014C00E9496
:1014E0009908109342010000000000000000000075
:1014F00000000000000000000000000000000000EC
:10150000000000000000809141018F718F31D9F3FC
:10151000809325051F91089580912905882321F046
:101520000E949B0A1092290580912805823011F4AF
:101530000E94860B0895CF93DF93E0912A05F0E097
:10154000EF012196DE01A65DBA4FAC91E65DFA4F40
:1015500022812D3310F02CE303C0222309F421E073
:10156000A295A695A695A3708FEFA89FC001112400
:1015700030E0AC01429FC001439F900D529F900DFF
:10158000112464EB70E00E94950E6F3F710511F01D
:1015900008F06FEFC65DDA4F68838AE295E00E943B
:1015A000E700DF91CF910895FF920F931F93F09082
:1015B000470100917B0107FD1EC000932A0510E042
:1015C0002BE235E0F8013196C90160E871E0AF0126
:1015D0000E94360F065D1A4FF801F28280914C018D
:1015E0008F7780934C0180914C01806880934C01EF
:1015F00081E0809329051F910F91FF9008958091BC
:101600002805882369F0809142018295869587702C
:101610008093FE0282E08093280586E10E94BD0847
:101620000895FF920F931F93CF93DF93EC018B01EB
:10163000442349F090916C01809124058295807F2C
:101640009F70892B03C080916C018F7080936C0117
:101650000230110598F4442369F090916C01809157
:101660001E05880F8E70917F892B80936C011092DC
:101670006F0117C080916C018E6011C080912205AE
:101680008295807F90912305892B80936F019091A3
:101690006C0180911E05880F8E70917F892B80933D
:1016A0006C0189E10E94BD088931D9F7FFB6F89431
:1016B0000130110551F48881833118F080E492E003
:1016C00002C080E890E00E94C904809139018260E4
:1016D00080933901809139018D7F80933901288170
:1016E00030E02150304080E891E0BE01A9010E9425
:1016F000360F81E080932805FFBEDF91CF911F91C7
:101700000F91FF9008950E94110B089510922805E3
:101710008091FE02833071F0843028F4882331F008
:10172000813061F405C0853049F406C080E007C00F
:1017300087E805C081EE03C089EE01C085E80E94FC
:10174000B9000895282F85FD03C0982F9F7304C00A
:10175000982F91959F719195E0E2F1E0849189171E
:1017600034F03F968491981714F0822F0CC0803E7D
:101770003CF080323CF487FF06C08F71806203C06A
:1017800080E201C08FE18068089584E080931E05A7
:1017900023E0209323058FEF9FEF90931A0580930A
:1017A000190590931D0580931C058BE080932005FF
:1017B0001092180585E0809322052093240583E884
:1017C0000E94A20B80930D0581E080931B0510926F
:1017D0002105089585FD03C0982F9F7304C0982F9D
:1017E00091959F719195E0E2F1E080E0249192174C
:1017F00024F029173CF4815008958F5F3196803191
:10180000A9F780E008958091190590911A058093B9
:10181000620190936301EEE0F5E0A4E6B1E081910E
:101820008D9385E0E631F807D1F780911C05909102
:101830001D05809360019093610190914801809112
:101840001B058295880F80769F79892B80934801AC
:1018500090916F01809123058F70907F892B8093E9
:101860006F0190916E0180912105880F880F880F7C
:101870008870977F892B80936E0190916F01809182
:1018800022058295807F9F70892B80936F019091B4
:101890004801809120058F71907E892B80934801AB
:1018A00080910D050E94EA0B909145018F70907F09
:1018B000892B809345010895CF93DF93EB018E34FC
:1018C00031F0893541F4888180932405E4C0888112
:1018D00080931E05E0C0209125052F3011F481E88A
:1018E000DBC08B3009F4C5C08C3070F4823009F451
:1018F0007FC0833018F48823B1F115C0833009F418
:1019000088C0843081F45EC0833511F1843528F4B9
:101910008F3459F0803539F410C0873509F45CC034
:10192000803F09F483C084EFB7C09881909323056A
:1019300080916F019F70807F57C0888199818093CB
:10194000190590931A058093620190936301A3C0D7
:101950008881998180931C0590931D058093600177
:101960009093610198C080912805882309F08FC069
:1019700080E098EFAFEFB7E0088004C0B695A79578
:10198000979587950A94D2F781709070892B09F406
:1019900080C0283031F088E00E94BD088830D9F737
:1019A00026E1988190932005809148019F71807E67
:1019B000982B90934801283009F46DC086E10E946D
:1019C000BD0869C080912805882309F060C088811E
:1019D000882309F460C05DC09881909322058091AE
:1019E0006F019295907F8F70982B90936F0153C0E9
:1019F000888180930D050E94A20B80930D050E94A3
:101A0000EA0B909145018F70907F892B809345015F
:101A100042C0888180931B05909148018295880F70
:101A200080769F79892B8093480135C08881809387
:101A30000E05898180930F058A81809310058B8123
:101A4000809311058C81809312058D8180931305FD
:101A50008E81809314058F8180931505EEE0F5E06B
:101A6000A4E6B1E081918D9385E0E631F807D1F7E6
:101A700012C088818093210590916E01880F880F94
:101A8000880F8870977F892B80936E0104C086E849
:101A900003C088EE01C080E0DF91CF9108950F93DD
:101AA0001F93CF93DF93082F809139018D7F80930F
:101AB000390180EF90E00E94C904809139018E7F46
:101AC0008093390181E090E00E94C904809139013E
:101AD00081608093390110E084E690E00E94C9049F
:101AE000809141011A3011F485E84BC08F71883024
:101AF00011F01F5FF1CF8093250580916E01806208
:101B000080936E0180914C01806880934C0188E441
:101B100080934E0186E00E94BD0810924E01C0E005
:101B2000D0E010E080914601CC0FDD1FCC0FDD1F0F
:101B300090E08076907025E0969587952A95E1F75C
:101B4000C82BD92B1F5F183069F783E00E94BD08AE
:101B500080914F0110934F0180E480934F0180E802
:101B600080934F0188E480934E01CE010E942B0F99
:101B7000002311F00E94C50B0E94030C109228054F
:101B800080E0DF91CF911F910F9108950E944F0D3A
:101B9000882311F085E8089588E080934F0180E460
:101BA00080934F0180E880934F010E94260F80931D
:101BB0006D0180916E019770887F982B90936E01D4
:101BC00080E00E94660E0E94570E80E008951F93E9
:101BD0000E943904882309F03FC080913901816057
:101BE00080933901809139018D7F809339018CE791
:101BF00091E00E94C904809139018E7F8093390160
:101C000081E090E00E94C904809139018160809355
:101C1000390110E084E690E00E94C90480914101FE
:101C20001A30D1F08F71883011F01F5FF3CF80939D
:101C3000250580915C01833879F411C08BE49EE026
:101C40000E94D10283E49EE00E94CC028FE39EE0DA
:101C50000E94DB0280E001C085E81F91089580E0CA
:101C600090E060E070E048E050E02EE035E00E9457
:101C7000D30381E00E944F0D882371F7DFCF81E00D
:101C80008093270508951F931FB7F8940E94FF0AB9
:101C90001FBF1F9108951F931FB7F89480912905C6
:101CA000882311F40E94D40A1FBF1F9108958091C8
:101CB00025058F3011F082E8089588E00E94BD0864
:101CC000883011F085E8089580E00895882311F0A8
:101CD00088EE0895809125058F3011F481E80895EC
:101CE00080912805882361F488E00E94BD0888302F
:101CF000D9F78FE00E94BD088F3011F480E008957D
:101D000086E80895982F80912805882311F086E8A9
:101D10000895983029F488E00E94BD0888E008956D
:101D200086E10E94BD0886E00895AA1BBB1B51E115
:101D300007C0AA1FBB1FA617B70710F0A61BB70B3B
:101D4000881F991F5A95A9F780959095BC01CD01E0
:101D50000895A1E21A2EAA1BBB1BFD010DC0AA1FEC
:101D6000BB1FEE1FFF1FA217B307E407F50720F004
:101D7000A21BB30BE40BF50B661F771F881F991F7F
:101D80001A9469F760957095809590959B01AC01C8
:101D9000BD01CF010895AF92BF92CF92DF92EF9233
:101DA000FF920F931F93CF93DF93EC01A880B9802C
:101DB000CA80DB80A114B104C104D10441F484E2DF
:101DC000A82E89EDB82E8BE5C82E87E0D82EC60147
:101DD000B5012DE133EF41E050E00E94740F27EA96
:101DE00031E440E050E00E94550F7B018C01C601B8
:101DF000B5012DE133EF41E050E00E94740FCA01BC
:101E0000B9012CEE34EF4FEF5FEF0E94550F6E0DCE
:101E10007F1D801F911F97FF04C06150704080405C
:101E20009048688379838A839B839B013F77C901AC
:101E3000DF91CF911F910F91FF90EF90DF90CF90A6
:101E4000BF90AF9008950E94CB0E089580E092E07D
:101E50000E94CB0E0895A0E0B0E080930002909322
:101E60000102A0930202B09303020895FB01DC017A
:101E700002C001900D9241505040D8F70895F99951
:101E8000FECF92BD81BDF89A992780B50895262F7F
:101E9000F999FECF1FBA92BD81BD20BD0FB6F8944F
:101EA000FA9AF99A0FBE01960895629FD001739F26
:101EB000F001829FE00DF11D649FE00DF11D929FE6
:101EC000F00D839FF00D749FF00D659FF00D992725
:101ED000729FB00DE11DF91F639FB00DE11DF91F49
:101EE000BD01CF011124089597FB092E05260ED0C0
:101EF00057FD04D02EDF0AD0001C38F450954095D1
:101F0000309521953F4F4F4F5F4F0895F6F79095CD
:101F10008095709561957F4F8F4F9F4F0895F894EE
:021F2000FFCFF1
:041F220001000000BA
:00000001FF
